:020000040800F2
:10000000C0AB0020A101000879540008014B000892
:1000100035530008212200089965000800000000FF
:10002000000000000000000000000000815B0008EC
:100030006F23000800000000F1550008C50100080A
:10004000BB010008BB010008BB010008BB010008A0
:10005000BB010008BB010008BB010008BB01000890
:10006000BB010008BB010008BB010008F722000823
:10007000032300080F2300081B2300082723000880
:10008000332300083F230008BB010008BB01000820
:1000900023220008BB010008BB010008BB010008C7
:1000A000BB010008BB010008BB010008BB01000840
:1000B000BB010008BB010008BB010008BB01000830
:1000C000BB010008BB010008BB010008BB01000820
:1000D000BB01000867650008736500087F650008BC
:1000E000BB010008BB010008BB010008BB01000800
:1000F000BB010008BB010008BB0100084B2300083E
:10010000BB010008BB010008BB010008BB010008DF
:10011000FF6000080B610008BB010008495E000891
:10012000BB010008BB01000857230008BB01000801
:10013000BB010008BB010008BB010008BB010008AF
:1001400083220008BB010008BB010008BB010008B6
:10015000BB010008BB010008632300088B65000891
:10016000BB010008BB010008BB010008BB0100087F
:10017000BB010008BB010008BB0100080000000033
:10018000BB010008BB010008DFF810D000F018FC2C
:1001900000F0D8F800480047ED700008C0AB002020
:1001A0000648804706480047FEE7FEE7FEE7FEE711
:1001B000FEE7FEE7FEE7FEE7FEE7FEE7375E000844
:1001C0008901000830B410B50348804730BCAE4602
:1001D00030BC0248004770472D740008715D00086C
:1001E0002DE9F05F0546002092469B46884606466C
:1001F000814640241BE0284641464746224600F0FF
:10020000C1FA53465A46C01A914110D311461846B6
:10021000224600F0A8FA2D1A67EB01084F46224645
:100220000120002100F09FFA17EB00094E41201E2B
:10023000A4F10104DFDC484631462A464346BDE8C6
:10024000F09F2DE9F0410024061B254671F10006C0
:1002500005DA01240027D0EB070067EB0101161E29
:1002600073F1000605DA0027D2EB0702012567EBE0
:100270000303FFF7B5FF86460E4617469C46AC4281
:1002800004D00025D0EB050E65EB010624B100205B
:10029000D2EB000760EB030C704631463A466346EA
:1002A000BDE8F08140EA01039B0703D009E008C9DB
:1002B000121F08C0042AFAD203E011F8013B00F82B
:1002C000013B521EF9D27047D2B201E000F8012B77
:1002D000491EFBD270470022F6E710B513460A46C6
:1002E00004461946FFF7F0FF204610BD421C10F8E7
:1002F000011B0029FBD1801A7047034611F8012B1E
:1003000000F8012B002AF9D11846704730B5054690
:100310000020034600E05B1C934205D2EC5CC85C05
:10032000201A01D1002CF6D130BD70B5064609F077
:10033000A7FE046805460A220021304600F044FA70
:100340002C6070BD7CB507480090074801900546B9
:10035000009C04E02046016808448047241DAC420C
:10036000F8D17CBD4CB1000850B100082DE9FE4F1A
:10037000804681EA0300C00F0C46009021F0004146
:1003800023F00045B8EB0200A94105D240462146C2
:1003900090461C460B46024623F00040104347D0CF
:1003A000270DC7F30A00C3F30A510290401A0190C7
:1003B00040286BDAC3F3130040F4801B0098924688
:1003C00020B10023D2EB030A63EB0B0B01985946D3
:1003D000C0F14002504600F0C6F906460D465046B0
:1003E0005946019A00F0DEF910EB08006141002443
:1003F00087EA115284EAE7731A4340D0009A62B345
:10040000019A012A4FEA075215DC001B61EB020139
:100410004FF0004202EA0752CDE90042001C41F5CC
:10042000801132462B4600F04DFA03B0BDE8F08F44
:1004300040462146F9E7001B61EB0201001C41F533
:10044000801300185B412018A2F5001747EB030149
:1004500040EAD570B6196D4111E06D084FEA3606D5
:1004600045EAC0754FEA0752001B61EB0201001C10
:1004700041F5801149084FEA3000001951413246D8
:100480002B4603B0BDE8F04F00F00DBA00980122F2
:1004900040000023D0EB020263EBE073009821469A
:1004A0004FEAE074B8EB000061EB0401E9E783F088
:1004B00000435BE781F0004158E72DE9FE4F81EAF8
:1004C000030404F0004421F0004100944FF0000BBD
:1004D00023F0004350EA01045ED052EA03045BD0EB
:1004E000C3F30A54C1F30A552C44A4F2F334019423
:1004F000A0FB0254C1F3130141F48011C3F31303B1
:1005000043F4801301FB024400FB034E840A970A64
:1005100044EA815447EA8357A4FB076802958D0A91
:1005200005FB07854FEA932C04FB0C542705029D1D
:100530004FEA065847EA1637B5EB08056EEB070C8D
:10054000870E920E47EA811742EA8312A7FB020147
:10055000B6EB0B0164EB00042B0D43EA0C335E1881
:1005600044EB1C50DA465146E7FB0201C5F3130485
:100570004FEA0B3343EA14534FEA0432019C43EA37
:100580000603A4F10C040294009CCDE900B400F031
:1005900099F903B0BDE8F08F00200146F9E72DE995
:1005A000F04D81EA030404F0004B21F000451446AD
:1005B0004FF0000A23F0004150EA050220D054EA2F
:1005C00001021DD0C5F30A570246C5F31303C1F358
:1005D0001300C1F30A5640F4801543F48013A7EBCF
:1005E0000608101BD64608F2FD3873EB050002D34F
:1005F00008F1010801E092185B41B8F1000F03DA3D
:1006000000200146BDE8F08D00204FF48011064621
:1006100084460EE0171B73EB050705D3121B63EB33
:10062000050306434CEA010C49084FEA30009218D2
:100630005B4150EA0107EDD152EA030012D082EA91
:10064000040083EA0501084305D0101BAB4106D224
:100650000122002306E000224FF0004302E06FF089
:10066000010253101AEB06004CEB085110EB0A0084
:1006700041EB0B01BDE8F04D00F015B90EB5C10F0F
:1006800080EAE0700844CA07002140F233438DE855
:100690000E000A460B4600F015F903B000BD70B518
:1006A000C1F30A5201F000450024C1F3130140F2E6
:1006B000FF3341F480119A4201DA002070BD40F20C
:1006C00033439A42A2F2334203DC524200F05AF81A
:1006D00000E090402C43F1D0404270BD00F0004259
:1006E00030F000400AD0C10D01F56071C0F3160072
:1006F00042EA0151C20840071143704700200146F9
:10070000704701F0004330B421F0004150EA01028B
:1007100006D00A0DA2F56072C1F31301002A02DCB3
:1007200030BC00207047440F44EAC104C100E01807
:1007300030BC00EBC25000F07FB830B50B4601462C
:1007400000202022012409E021FA02F59D4205D370
:1007500003FA02F5491B04FA02F52844151EA2F11A
:100760000102F1DC30BD202A04DB203A00FA02F15C
:10077000002070479140C2F1200320FA03F319438F
:1007800090407047202A04DB203A21FA02F0002131
:10079000704721FA02F3D040C2F120029140084391
:1007A00019467047202A06DBCB17203A41FA02F09F
:1007B00043EAE07306E041FA02F3D040C2F12002BE
:1007C00091400843194670472DE9F04791460F467E
:1007D00080460446002614F8015B2DB100F008F9AC
:1007E0000068405DC007F6D12B2D02D02D2D18D00A
:1007F000641E4A463946204600F0FEF827B13968A3
:10080000A14201D1C7F8008071054FF002040BD559
:100810004042002803DD09F033FC0460A007BDE876
:10082000F08746F48066E4E70028F8DA09F028FC4F
:1008300004606FF00040F2E70029A8BF7047401C39
:10084000490008BF20F00100704710B4B0FA80FCE6
:1008500000FA0CF050EA010404BF10BC704749B123
:10086000CCF1200421FA04F411FA0CF118BF012193
:1008700021430843A3EB0C01CB1D4FEA00614FEA73
:10088000102042BF002010BC704700EBC350104442
:100890000029A4BF10BC7047401C490008BF20F0CD
:1008A000010010BC704710B5141E73F1000408DA83
:1008B000401C41F1000192185B411A4301D120F024
:1008C000010010BD2DE9F04D92469B4611B1B1FAE1
:1008D00081F202E0B0FA80F220329046FFF743FF47
:1008E00004460F4640EA0A0041EA0B0153465A46C5
:1008F000084313D0114653EA010019D0C8F1400251
:100900005046FFF73FFF05460E46504659464246C1
:10091000FFF729FF084305D0012004E020463946AF
:10092000BDE8F08D0020054346EAE0762C433743CE
:100930000A986305E40AA0EB08000022FD0A44EAD5
:1009400047540A3002D500200146E9E70105101995
:100950006941DDE9084500196941BDE8F04DA2E7AC
:10096000C1F30A52C1F3130140F2FF3341F4801185
:100970009A4202DA00200146704740F233439A421D
:10098000A2F2334202DC5242FFF7FCBEFFF7EBBE9D
:1009900030B5041E71F1000404DB4FF00044404206
:1009A00064EB0101141E73F1000405DB1C464FF0DB
:1009B0000043524263EB0403994208BF904230BDAA
:1009C0001CB509480090094801900546009C06E0C6
:1009D000E06840F0010394E8070098471034AC4207
:1009E000F6D3FFF7D5FB00002CB100084CB100088E
:1009F0000048704724AA00082DE9F05F824600787D
:100A0000002715468B460AF10104B946302801D06B
:100A10009DB113E014F8010B0127782803D0582862
:100A200001D045B10AE00DB1102D07D100271025E6
:100A300014F8010B02E0082500E00A250026B04664
:100A40000EE005FB080005FB06F1012701EB10464F
:100A50001FFA80F8B6F5803F00D3B94614F8010BB1
:100A6000294600F018F80028EBDABBF1000F05D09A
:100A70000FB1641E00E05446CBF80040B9F1000FFE
:100A800006D009F0FDFA02210160C81EBDE8F09F02
:100A900048EA0640FAE73A2800D2303820F020022F
:100AA000412A01D3A2F13700884201D34FF0FF3031
:100AB000704730B58C1810F8012B12F00F0301D1DC
:100AC00010F8013B120906D110F8012B03E010F8D1
:100AD000015B01F8015B5B1EF9D101E001F8013B0C
:100AE000521EFBD1A142E6D3002030BD40F6F920D2
:100AF000C0F6000005F021BFB0B584B004464BF24B
:100B0000B600C0F60000214601F05CFB0FF2C431D4
:100B100020460822FFF7FAFB002800F089800FF238
:100B2000C03120460D22FFF7F1FB002800F0B38012
:100B3000EFA120460422FFF7E9FB002800F0E28045
:100B4000EDA120460522FFF7E1FB002800F0BF8160
:100B5000EBA120460722FFF7D9FB002800F0E68032
:100B6000E9A120460A22FFF7D1FB002800F0F2801D
:100B7000E8A120460A22FFF7C9FB002800F0F58013
:100B8000E7A120460A22FFF7C1FB002800F0EF8012
:100B9000E6A120460A22FFF7B9FB002800F0F28008
:100BA000E5A120460A22FFF7B1FB002800F0EC8007
:100BB000E4A120460A22FFF7A9FB002800F0F080FC
:100BC000E3A120460522FFF7A1FB002800F03F81AA
:100BD000E1A120460422FFF799FB002800F03981AB
:100BE000DFA120460622FFF791FB002800F03D819F
:100BF000DDA120460922FFF789FB002800F04A8189
:100C0000DCA120460B22FFF781FB002800F04A817F
:100C1000DBA120460B22FFF779FB002800F04A8178
:100C20004BF2A500C0F60000214601F0CBFAB5E07A
:100C30004AF68170C0F6000001F0C4FA4BF25C0085
:100C4000C0F6000001F0BEFA40F25824C2F20004DF
:100C5000204607F08DFC4BF2B605C0F6000528468D
:100C6000214601F0AFFA20464FF40071FFF733FB45
:100C70004AF6F870C0F6000001F0A4FA204607F02A
:100C800009FC2846214601F09DFA20464FF40071E8
:100C9000FFF721FB2CE040F26470C2F20000006814
:100CA000FFF71CFD02464BF24900C0F600000B4660
:100CB00001F088FA40F25C70C2F200000068FFF7B1
:100CC0000DFD02464BF23500C0F600000B4601F068
:100CD00079FA40F25870C2F200000068FFF7FEFC9B
:100CE00002464BF21F00C0F600000B4601F06AFA04
:100CF0000E214AF6B570C0F6000004B0BDE8B04061
:100D000001F060BA40F21870C2F20000006807F00B
:100D1000FDFD40F274700025C2F2000000210022A7
:100D20000023009507F0F0F80121E2E7E01DFFF74E
:100D3000FCFA40F2A052C2F2000240F27041126886
:100D4000C2F20001087010460022022308F01AFACD
:100D50000521CEE704F10A00FFF7E7FA40F20801A7
:100D6000C2F200010968087018E0042519E004F1D6
:100D70000A00FFF7DAFA40F20801C2F2000109683E
:100D800008720BE00C250CE004F10A00FFF7CDFA25
:100D900040F20801C2F20001096808740021A8E7C6
:100DA000142504F10A00FFF7C0FA40F2080440F2EB
:100DB0009C51C2F20004C2F200012268096850513D
:100DC000084621460022022308F0DCF94AF6B570F5
:100DD000C0F60000042101F0F5F94AF66375C0F68B
:100DE0000005284601F0EEF9206801784AF6CC703B
:100DF000C0F6000001F0E6F9206841684AF6D770B5
:100E0000C0F6000001F0DEF92068017A4AF6E270CF
:100E1000C0F6000001F0D6F92068C1684AF6ED700E
:100E2000C0F6000001F0CEF92068017C4AF6C170DE
:100E3000C0F6000001F0C6F92068416953A001F036
:100E4000C1F9284604B0BDE8B04001F0BBB90221A9
:100E50004FE740F20C70C2F200000068002102224D
:100E6000002308F05DFD0B2143E7A01DFFF75DFAAD
:100E700000254FF44861C4B2CDE900152046002199
:100E80000A220023029500F0D6FD204600F0E3FD83
:100E90000C212EE740F68431C2F20001607A096825
:100EA000486312E040F68431C2F20001E07A09683A
:100EB00088630AE004F10B00FFF737FA40F684314B
:100EC000C2F20001096880B2C8630D2111E705F084
:100ED00099FC00BF53686F775461736B000000008A
:100EE00053686F77506172616D65746572000000C0
:100EF00053746F7000000000526573657400000049
:100F00005374617475733D005768616C6544697210
:100F1000583D00005768616C65506F73583D000084
:100F20005768616C65446972593D00005768616C8F
:100F300065506F73593D00005768616C6544697274
:100F4000523D00005768616C65506F73523D000060
:100F500053746172740000004E65787400000000E4
:100F60004D5F5A44543D0000536572766F4A617775
:100F70003D000000536572766F57726973743D00CF
:100F8000536572766F506C6174653D00506F73529B
:100F90003A2025640D0A000040F6A970C0F6000052
:100FA00005F00BBD0000000080B5808841F2305193
:100FB000C2F200010880B1F90000FFF75FFB9FED6E
:100FC0000E0B53EC102BFFF778FA9FED0D0B53EC43
:100FD000102BFFF772FAFFF794FB40F26071C2F238
:100FE00000010860086840F26471C2F20001086004
:100FF00080BD00BF00BF00BF000000000000003F38
:10100000000000000080664010B5044603F00CFDAF
:1010100038B140F26070C2F2000000682060012028
:1010200010BD002010BD00002DE9F04F85B0054631
:101030004BF21A10C0F600000C468DF811108DF816
:1010400012208DF8133008F0DDFF204601F05AF829
:1010500000260DF11109012740F2DC584FF0000A7B
:10106000522001F057F819F80AB04AF6AC30C0F631
:10107000000050F82B000021CDE900070720FA22DC
:101080000A23029600F0D7FC4AF6BC30C0F60000F6
:1010900050F82B000021CDE900070520FA220A2391
:1010A000029600F0C8FC642007F080F940F2A460CA
:1010B000CDE9000706200121FA220A23029600F05A
:1010C000BAFC062000F0C7FC5A2001F013F80620F5
:1010D0000121FA220A23CDE90087029600F0ABFC39
:1010E000062000F0B8FC462001F014F8642007F058
:1010F0005DF92046BAF1020F1CBF09EB0A004078E7
:1011000001F000F8012D17D0022D2BD141F27070A3
:10111000CDE9000706200121FA220A23029600F0F9
:101120008AFC062000F097FC532000F0E3FFBAF1A0
:10113000020F1DD12BE000BF42F21070CDE9000775
:1011400006200121FA220A23029600F074FC0620F0
:1011500000F081FC532000F0CDFFBAF1020F07D15F
:1011600018E000BF532000F0C5FFBAF1020F23D0F2
:1011700006200121FA220A23CDE90087029600F019
:101180005AFC062000F067FC0AF1010A68E74FF4F8
:10119000967001E041F2707001210027CDE9000155
:1011A0000620FA220A23029700F045FC062005B02B
:1011B000BDE8F04F00F04FBC05B0BDE8F08F41F244
:1011C0004053C2F20003187041F24150C2F20000D5
:1011D000017040F27840C2F20000006841F24253D0
:1011E000C2F2000302211A7007F052BD41F2F91059
:1011F000C0F6000005F0E8BB2DE9F04F81B0B0F873
:101200000120B0F80310037841F24050C2F2000010
:101210000078012B08BF012806D0102B08BF022838
:1012200077D001B0BDE8F08F42F66A10C2F200003C
:101230000078002800F09E800128F2D142F64A256D
:1012400042F66E10C2F20005A2F1AF03C2F2000036
:10125000B5F800C042F6462642F64827038042F61B
:1012600070101FFA82FEC2F20006C2F20007A1F15E
:101270006E0BC2F20000BEEB0C0442F64C2A328028
:101280003980A0F800B048BF6442042CC2F2000AC2
:1012900000F20881BAF800801FFA81F9B9EB08045E
:1012A00048BF6442042C00F2FD8042F66C14C2F286
:1012B00000042578022D04D805F10105257040F0C1
:1012C000F98019B283EAE132A2EBE13189B23D46FD
:1012D00034460A2900F2B4800FFA8BF18BEAE1322E
:1012E000A2EBE13189B20A2900F2AA8040F20C7027
:1012F000C2F20000006800210222002308F010FB67
:1013000040F27840C2F200000068022107F066FC5B
:10131000C6E042F64620C2F20000028042F64820B3
:10132000C2F2000001808A3A42F66E1013B2C2F295
:101330000000028082EAE332A2EBE332A1F16C000A
:1013400042F6701192B2C2F20001012A088055D80B
:1013500001B280EAE130A0EBE13080B201284DD843
:1013600042F66C14C2F20004207802284FD80130F3
:10137000207060E042F64620C2F20000028042F691
:101380004820C2F200000180A2F1AF0042F66E13C5
:1013900002B2C2F20003188080EAE230A0EBE23031
:1013A00080B242F670131E284BF2DA00A1F16E01F2
:1013B000C2F20003C0F60000198000F283800AB276
:1013C00081EAE231A1EBE23189B21E297AD840F2FA
:1013D0000C70C2F20000006800210222002308F015
:1013E0009FFA40F27840C2F200000068022107F044
:1013F000F5FB4BF2DA00C0F6000063E042F66C1039
:10140000C2F200000021017004F0CCFB13E040F2B6
:101410000C70C2F2000000680021022200230025A7
:1014200008F07EFA40F27840C2F200000068022123
:1014300007F0D4FB25704BF2BB00C0F6000041E082
:101440000CEB0E00FFF71AF99FED210B56EC107B09
:101450003A463346FFF731F89FED1F0B53EC102B44
:10146000FEF784FFFFF71BF942F66E11C2F200018E
:10147000088008EB0900FFF701F93A463346FFF709
:101480001CF89FED170B53EC102BFEF76FFFFFF7C7
:1014900006F942F67011C2F20001088004F082FBE6
:1014A00026462F4642F66C1032883988C2F2000078
:1014B0000023037042F64A20C2F200000280AAF81C
:1014C000001009A001B0BDE8F04F00F07BBE00BFE6
:1014D000000000000000E03F0000000000E065C0E8
:1014E0000000000000805BC04150505F4D414958F2
:1014F00043414D5F50617273655F424C4F425F43A1
:10150000616C0D0A00000000B0B542F66815C2F229
:10151000000514462A7842B903F0E8FB0120287040
:1015200042F66A10C2F20000047003F065FB08B1D5
:1015300000202870B0BD40F21C20C2F20000002143
:10154000016070470000000070B582B00C4640F2A8
:101550001C25411EC2F20005002207292A601ED860
:101560000FF20400DFE801F0043AEB58EBEBEB225A
:10157000322CC0F291802046FFF780F89FED780B67
:1015800053EC102BFEF799FFFFF789F84AF2BC7174
:10159000C2F200010E6803464FF4487035E010288F
:1015A00002D0202840F0CB802046B5E0322C51DB21
:1015B0002046FFF763F89FED6A0B53EC102BFEF704
:1015C0007CFFFFF76CF84AF2BC71C2F200010E68B2
:1015D00003464FF6E040CFF6FF7032E0322C4BDB93
:1015E0002046FFF74BF89FED5E0B53EC102BFEF7F8
:1015F00064FFFFF754F84AF2BC71C2F200010E68B2
:1016000003464FF6E040CFF6FF7000212246CDE9B9
:10161000003604F057FB1AE0322C4DDB2046FFF772
:101620002DF89FED4F0B53EC102BFEF746FFFFF705
:1016300036F84AF2BC71C2F200010E6803464FF45C
:10164000487000212246CDE9003604F0E5FA012079
:10165000286074E04AF2BC76C2F200063068FFF7F8
:101660000DF841EC130B9FED380B102CC4F1000466
:1016700034DB9FED391B33E04AF2BC76C2F2000640
:101680003068FEF7FBFF41EC130B102CC4F1000493
:1016900030DB9FED310B2FE04AF2BC76C2F2000640
:1016A0003068FEF7EBFF41EC130B102CACBF9FED45
:1016B000300B9FED2D0B1FE04AF2BC76C2F2000604
:1016C0003068FEF7DBFF41EC130B9FED1F0B102C76
:1016D000ACBF9FED271B9FED241B01E09FED1C1B62
:1016E000B0EE402AF0EE602A03F025FE204605F019
:1016F0005BFB0CE09FED160B9FED131BB0EE412A38
:10170000F0EE612A03F017FE204605F02BFB0128BE
:1017100015D1012028603068FEF7B0FF9FED0A0B5D
:1017200041EC130BB0EE401AB0EE402AF0EE601A16
:10173000F0EE602A02B0BDE8704003F0FCBD02B0DC
:1017400070BD00BF00BF00BF00000000000000002F
:1017500000000000000039C000000000000069C067
:101760009A9999999999D93F000000000000394051
:1017700000000000000069402DE9F04383B001380B
:10178000052800F23A81DFE800F003DB5B9930F6D0
:1017900040F21C24C2F2000400254AF2BC76256007
:1017A000C2F2000637684FF6E0404FF45C7CCFF69B
:1017B000FF70002140F698024FF45C73CDE900C73A
:1017C00004F080FA01272760256036684FF4116520
:1017D0004FF44870002141F2A8624FF41163CDE943
:1017E000005604F019FA276007E140F21C25C2F206
:1017F00000054FF000084AF2BC77C5F80080C2F23D
:1018000000074FF6E0443E68CFF6FF7440F6E85C10
:101810002046002142F2C42240F6E853CDE900C63A
:1018200004F0FAF901262E60C5F800803F684FF4F5
:10183000B46C204600214FF461624FF4B46367E05A
:1018400040F21C24C2F2000400254AF2BC78256054
:10185000C2F20008D8F800704FF6E0404FF4E1669D
:10186000CFF6FF70002141F294124FF4E163CDE90D
:10187000006704F0D1F99FED620B9FED653BB0EE80
:10188000401AB0EE402A0126F0EE601AF0EE602A0F
:101890002660256003F04FFD2560D8F8007041F602
:1018A000C8154FF44870002144F2740241F6C81381
:1018B000CDE9005704F006FA26609EE040F21C25B0
:1018C000C2F200054FF000084AF2BC77C5F800806C
:1018D000C2F200074FF6E0443E68CFF6FF7440F6D0
:1018E000A84C2046002141F6A47240F6A843CDE959
:1018F00000C604F091F901262E60C5F800803F680B
:101900004FF4486C204600214FF4FA524FF44863DC
:10191000CDE900C704F0D6F99FED390B9FED3A3BB6
:10192000B0EE401AB0EE402A2E60F0EE601AF0EEF3
:10193000602AC5F8008003B0BDE8F04303F0FBBCAB
:1019400040F21C24C2F20004002020604AF2BC7065
:10195000C2F2000007684FF45C664FF44870002143
:1019600042F260224FF45C63CDE9006704F054F961
:101970000120206041E040F21C25C2F200054FF03A
:1019800000084AF2BC79C5F80080C2F200094FF69F
:10199000E044D9F80060CFF6FF7441F6902C204661
:1019A000002144F2682241F69023CDE900C604F0FC
:1019B00089F901262E60C5F80080D9F800704FF42F
:1019C000756C2046002142F248624FF47563CDE900
:1019D00000C704F021F92E60C5F80080D9F8007026
:1019E0004FF4167C2046002140F2DC524FF416736F
:1019F000CDE900C704F066F92E6003B0BDE8F083BE
:101A000000000000000000000000000000805640C0
:101A1000000000000080664080B50120002100F039
:101A2000D8FC0220002100F0D4FC03200021BDE8F6
:101A3000804000F0CEBC10B584B0DDE906CE089C35
:101A4000CDE900CE029400F093FC0A2004B0BDE87A
:101A5000104006F0ABBC05F011B9000080B582B0B3
:101A600040F2A050C2F20000002100688DF807107B
:101A70000DF10701002207F0DDFC012809D19DF8D6
:101A8000071042F64420C2F20000017002A000F0EC
:101A900099FB02B080BD00BF735F756353746174BE
:101AA0007573203A2025640D0A000000F0B58BB054
:101AB00003A82021FEF70FFC40F20130ADF808002A
:101AC00040F2012042F64426C0F20320C2F2000692
:101AD0000190307800212928009100F20A82DFE885
:101AE00010F00601BB004801EE00A300D300600126
:101AF000080208020802720108020802080208022D
:101B000008020802080208020802BE012A002A0090
:101B10002A000802080208020802080208028100DE
:101B20006C000D01080208020802080208020802FF
:101B300008022201E20140F27141C2F2000109787B
:101B4000002918BF03301538C4B24AF6A950C0F6B0
:101B50000000214600F036FB01A8015D01200022B3
:101B6000FFF72DFB6D4600204FF0FF312A464FF066
:101B7000FF3308F021F84AF62570C0F60000214630
:101B800000F020FB00204FF0FF312A464FF0FF33DA
:101B900008F012F830780321172838BF411CC8B26A
:101BA0000328317040F0A58140F27840C2F2000075
:101BB0000068022107F012F89BE14AF61060C0F6B7
:101BC000000000F0FFFA6A4600204FF0FF314FF0AE
:101BD000FF3307F0F1FF202030704AF62F60C0F687
:101BE000000084E14AF68660C0F6000000F0EAFAE0
:101BF000022002210122FFF7E2FA6A4600204FF09C
:101C0000FF314FF0FF3307F0D7FF40F27840C2F2C8
:101C100000000068022106F0E1FF1F2030704AF644
:101C2000A360C0F6000062E14AF67F40C0F6000003
:101C300000F0C8FA0420FFF79FFD6A4600204FF02D
:101C4000FF314FF0FF3307F0B7FF282030704AF61E
:101C5000A640C0F600004AE14AF6F260C0F6000075
:101C600000F0B0FA0120FFF787FD6A4600204FF030
:101C7000FF314FF0FF3307F09FFF0A2030704AF624
:101C80000C70C0F6000032E14AF61350C0F60000B6
:101C900000F098FA0520FFF76FFD6A4600204FF02C
:101CA000FF314FF0FF3307F087FF40F27140C2F27F
:101CB00000000121017014203070A1A017E14AF644
:101CC000CC40C0F6000000F07DFA0320FFF754FD81
:101CD0006A4600204FF0FF314FF0FF3307F06CFFF2
:101CE0001E2030704AF6F040C0F60000FFE04FF4CE
:101CF000FA700BB0BDE8F04006F058BB4AF66E50E3
:101D0000C0F6000000F05EFA6A4600204FF0FF3196
:101D10004FF0FF3307F050FF042030704AF68C502C
:101D2000C0F60000E3E04AF64D60C0F6000000F0A7
:101D300049FA40F27844C2F200042068022106F019
:101D4000A7FF022002210122FFF739FA6A4600208C
:101D50004FF0FF314FF0FF3307F02EFF20680221D4
:101D600006F03CFF292030704AF66A60C0F6000099
:101D7000BDE04AF63750C0F6000000F023FA02201A
:101D8000FFF7FAFC6A4600204FF0FF314FF0FF33B7
:101D900007F012FF142030704AF65350C0F60000CE
:101DA000A5E055A000F00EFA0620FFF7E5FC6A4614
:101DB00000204FF0FF314FF0FF33002407F0FCFE0E
:101DC00056A0347093E040F27245C2F200052878C4
:101DD00038B94AF6C650C0F6000000F0F3F9012009
:101DE000287003AC204603F035FC002800F0818009
:101DF0004AF64870C0F60000214608F003F90020BA
:101E000001A90022D3B2E35C2B2B08BF0132D3B26D
:101E1000E35C0132303B0B5401300628F2D103A8B9
:101E200003F046FE40F20C70C2F200000068002190
:101E3000022200230224002707F072FD6A460020D8
:101E40004FF0FF314FF0FF3307F0B6FE4AF6DC509B
:101E5000C0F60000347000F0B5F92F7049E04AF682
:101E6000BF60C0F6000000F0ADF940F27140C2F270
:101E7000000000780221002818BF052101A8415C5C
:101E800001200122FFF79BF96A4600204FF0FF3145
:101E90004FF0FF3307F090FE152030704AF6D960FE
:101EA000C0F6000023E04AF6F150C0F6000000F052
:101EB00089F940F27144C2F20004207801AB60F36A
:101EC000000360F3410319785A789B78FFF7ACF868
:101ED0006A4600204FF0FF314FF0FF3307F06CFEF1
:101EE00020780521002818BF062131701DA000F0C0
:101EF00069F90BB0F0BD00BF454E54455220535414
:101F0000415455535F50726F536563417265615F11
:101F1000325F53746172740D0A00000045584954D1
:101F2000205354415455535F50726F53656341724F
:101F300065615F325F53746172740D0A00000000C6
:101F400045584954205354415455535F50726F5370
:101F50006563417265615F325F52617741726561AD
:101F60000D0A000045584954205354415455535FBD
:101F700050726F53656341726561506C6163650DAA
:101F80000A00000082B040F2784441F2405841F229
:101F9000415741F24256C2F200044FF0FF35C2F2FF
:101FA0000008C2F20007C2F2000600BF206802214A
:101FB00000220023009506F0B9FE800705D598F8A9
:101FC000000039783278FFF79FFA642006F0EEF9C6
:101FD000ECE7000040F274444BF2F805C2F2000452
:101FE000C0F600050FF2D00A0FF2D80B38A63BA7B7
:101FF0000FF2F4084FF0000940F29C50C2F20000CA
:10200000006821464FF0FF3207F014FA284600F02E
:10201000D9F8216821A000F0D5F82068017823A024
:1020200000F0D0F820684168504600F0CBF82068F6
:10203000017A584600F0C6F82068C168304600F0C2
:10204000C1F82068017C384600F0BCF8206841697E
:10205000404600F0B7F8284600F0B4F82068416820
:1020600039B10078FFF770FA206880F80090C0F866
:102070000490C16839B1007AFFF766FA206880F8E9
:102080000890C0F80C904169007CFFF75DFA206869
:1020900080F81090C0F81490AEE700BF414444525D
:1020A0003A20253034580D0A000000004469725867
:1020B0003A2025640D0A0000506F73583A202564B9
:1020C0000D0A0000446972593A2025640D0A000087
:1020D000506F73593A2025640D0A0000446972520A
:1020E0003A2025640D0A0000506F73523A2025648F
:1020F0000D0A000080B503F005FD6420BDE88040B6
:1021000006F054B980B503F00FFD6420BDE88040AF
:1021100006F04CB903F01EBD7047704706F044F856
:1021200004F03EFA06F062F8052006F03FF9F5E704
:1021300042F6582440F21C259FED178B9FED189B0B
:10214000C2F20004C2F20005012600BFFFF786FCC0
:10215000FFF7ACFC2068012819D0C8B9B0EE490AD5
:10216000B0EE481AB0EE492AB0EE493AF0EE690AEC
:10217000F0EE681AF0EE692AF0EE693A03F0DBF847
:10218000642004F0C9FD012808BF266026602E6087
:102190000A2006F00BF9D9E70000000000003440E7
:1021A0000000000000000000FFF7ECBEFFF712BFC8
:1021B00005F0FAFF04F0C2FA06F018F80A2006F05B
:1021C000F5F8F5E783B0B0B5ADF20C4D84460DF1EE
:1021D0000B04CDF81C14CDF82024CDF824340DF2D6
:1021E0001C43204640F201416246019307F02EFF56
:1021F00040F28C55C2F2000528684FF0FF3105F01F
:102200001EF806A0214607F0FDFE286805F072F8CA
:102210000DF20C4DBDE8B04003B0704725730000CF
:10222000FEE740F27470C2F2000000F039BA10B557
:1022300040F2AC5440F27470C2F2000440F2A45375
:10224000C2F20000C2F200030021224600F097F91A
:102250002068A0F20121032988BF10BD0138C1B256
:10226000C90051FA80F040F60C61C2F2000101EBA6
:10227000800040F2A451C2F20001BDE8104004F019
:1022800013BE40F29C70C2F2000000F009BAB0B573
:1022900040F2D05540F2C85440F29C70C2F20005A2
:1022A000C2F20004C2F2000000212A46234600F0D8
:1022B00066F900B1B0BD40F24570C2F2000000788E
:1022C0006968B0EB112F0ED12078FD280BD1607812
:1022D0009F2808D1A0786B2805D140F24470C2F243
:1022E00000000121017040F2D050C2F200001C2118
:1022F000FDF7F1FFB0BD40F68400C2F2000000F02F
:1023000069BC40F6C420C2F2000000F063BC40F299
:10231000C470C2F2000000F05DBC40F62430C2F28E
:10232000000000F057BC40F62400C2F2000000F0AC
:1023300051BC40F60420C2F2000000F04BBC40F655
:102340006420C2F2000000F045BC40F6E400C2F296
:10235000000000F03FBC40F64410C2F2000000F064
:1023600039BC40F6A410C2F2000000F033BC704744
:10237000B0B584B0DDE9084E8DF80000FD208DF881
:102380000100100A8DF80300200E8DF80600200CC5
:102390008DF80700200ADDF828C08DF808006B20B2
:1023A00000258DF802108DF80C0068460D218DF87F
:1023B0000F50ADF80D508DF804208DF805308DF8D4
:1023C00009408DF80AE08DF80BC004F0C3FB04B09F
:1023D000B0BD80B584B08DF8000049F6FE00ADF8C0
:1023E00001006B2000228DF803108DF80400684670
:1023F00005210392CDF80920CDF8052004F0AAFBB1
:1024000004B080BD72B600BFFEE710B590F820E0C2
:10241000D0F800C0AEF1010EBEF1010FDCF808E00B
:1024200011D81EF0E05F14D0CEF301640120A0406B
:1024300018608B689BB1D1F804E0C86840EACE0010
:1024400040EA030E0FE000F1240301204FF4802145
:1024500021E000F1240301204FF400111BE0086883
:10246000CB6843EA405E0CF5C07000EB0413240116
:1024700040F804E00C69184640F8044F097D012932
:1024800003D1016841F48071016050680121D86076
:102490001068986000201A681143196010BD90F808
:1024A0002020013A012A30D8B0B546F20060C4F2CB
:1024B0000000026842F001020260026822F47C52CD
:1024C0000260D1F814E0CC694A6A0368012C43EA3F
:1024D000022202600EF01F024FF0010303FA02F223
:1024E000C3696FEA020C23EA0203C36113D02CBB59
:1024F000C36803EA0C03C360CB688C8844EA0343D7
:1025000000EBCE0423640B4611E0416A41F48021C4
:10251000416201207047C3681343C3600B688C8815
:1025200044EA034300EBCE04236401F10C038C68FE
:102530001B8843EA044300EBCE04636443688D695F
:1025400043EA0204D1F810E0096A002D08BF03EA4B
:102550000C0444604369BEF1000F43EA020408BF63
:1025600003EA0C040129446102D1C1691143C1612C
:10257000016821F0010101600020B0BD7047B0B5D5
:1025800090F82040013C012C7AD8D0F800C00029F6
:102590000CBFDCF80C40DCF81040A40776D00CF53A
:1025A000D8754FEA011C55F80C4014F004049460EF
:1025B00055F80CE005EB011C19BF4FEADE0555602C
:1025C0004FEA5E551560DCF80050E64605F002055E
:1025D000D5605EF8044F24075ABFDEF8004004F0CF
:1025E0000F0408241461DEF800400029C4F3072416
:1025F0009461DEF800504FEA15455561DCF808207B
:102600001A70026802EB0112D2F8B8214FEA1222C6
:102610005A70026802EB0112D2F8B8214FEA124256
:102620009A70026802EB0112D2F8B8214FEA1262E6
:10263000DA70026802EB0112D2F8BC211A7102684A
:1026400002EB0112D2F8BC214FEA12225A71026841
:1026500002EB0112D2F8BC214FEA12429A710268D1
:1026600002EB0112D2F8BC214FEA1262DA71006863
:102670000CBF00F10C0100F11001002020220AE043
:1026800000F1240101204FF4802204E000F1240134
:1026900001204FF400120B681A430A60B0BD00001D
:1026A0002DE9F04F81B0044600684669D0F80490E7
:1026B0008768D0F80CB0D0F810A0D0F81880F107D7
:1026C00001D1002549E0F9070ED00121BA07816048
:1026D00007D478071DD4380721D4204600F020FA0B
:1026E00002E0204600F01DFA0025F8051CD5206800
:1026F0004FF48071BA05816007D478050CD4380591
:1027000010D4204600F00EFA0EE0204600F00BFA3E
:102710000AE04FF40065E8E705F5005504E04FF4E2
:102720008055E2E705F58045F80316D520684FF49B
:102730008031BA03816007D4780309D438030AD4FE
:10274000204600F0F1F908E0204600F0EEF904E040
:1027500005F5004501E005F58035300707D51BF08C
:10276000100004D0206845F400751021C160700786
:1027700008D51BF0080005D020680821C16020465C
:1027800000F08CF9B00706D52068C068800702D039
:10279000204600F084F9700607D51AF0100004D026
:1027A000206845F4806510210161B00608D51AF053
:1027B000080005D0206808210161204600F080F95A
:1027C000F00606D520680069800702D0204600F098
:1027D00078F9B00308D519F0100005D02068102151
:1027E0004160204600F06EF9F00308D519F00800AA
:1027F00005D0206808214160204600F097F9300498
:1028000040D55FEA49703AD506F4807008EA102096
:1028100028435FEA8871014648BF41F00201B205D2
:1028200058BF01465FEA48700D4648BF45F00405B1
:10283000700558BF0D46300521D518F070001ED028
:1028400010380009052815D8DFE800F0030F090C3F
:10285000061245F008050DE045F080050AE045F058
:10286000200507E045F0400504E045F0100501E0D3
:1028700045F480752068816921F0700181612068CC
:10288000042141604DB1606A40EA05012046616261
:1028900001B0BDE8F04FFFF771BE01B0BDE8F08FA9
:1028A000D0B1B0B5044690F8200010B9204600F031
:1028B0006FF82068016841F00101016000F027FC19
:1028C000054600BF20684168C90707D100F01FFC1A
:1028D000401B0B28F6D312E001207047016821F05D
:1028E0000201016000F013FC054600BF206841684A
:1028F00089070BD500F00BFC401B0B28F6D3606A50
:10290000052140F40030606201203EE0217E026833
:10291000012922F0800208BF80320260617E0268D5
:10292000012922F0400208BF40320260A17E026805
:10293000012922F0200208BF20320260E17E0268F5
:10294000012922F0100218BF10320260217F0268B4
:10295000012922F0080208BF08320260617F026884
:10296000012922F0040208BF04320260D4E901C246
:10297000D4E9033561691A432A431143ACF10102DA
:102980001143C16100200121606284F82010B0BDB4
:1029900010B586B0044601A81421FDF79CFC206800
:1029A00046F60001C4F2000188422ED046F20041F2
:1029B000C4F2000188426FD140F27C41C2F20001B2
:1029C0000A6843F63000C4F20200531C0B6052B98F
:1029D00000210091016941F000710161016901F07C
:1029E000007100910099002100910168142441F0C8
:1029F0000101016000684FF4C05100F00100009037
:102A000000980020C4F2020032E043F630000021BA
:102A1000C4F202000091026942F080620261026920
:102A200002F080620092009A40F27C42C2F2000200
:102A300013685C1C14604BB90091026942F000728B
:102A40000261026902F000720092009A009101682E
:102A5000402441F00201016000684FF4405100F051
:102A60000200009000980020C4F2020000F580608F
:102A70000191022102910021039103210491092176
:102A8000059101A900F072FA20460521002200F00C
:102A9000F5FB204600F0E2FB06B010BD704740F2A7
:102AA0007471C2F20001884208BFFFF7C0BB40F258
:102AB0009C71C2F20001884218BF7047FFF7E7BB64
:102AC0007047704770470000B0B5044690F820008A
:102AD00001281CD1022084F820002068016821F020
:102AE0000101016000F013FB054600BF206840684B
:102AF000C00712D000F00BFB401B0B28F6D3606A16
:102B000040F400306062052084F8200003E0606A31
:102B100040F4002060620120B0BD00206062B0BDC2
:102B200070477047704770477047704770470000A4
:102B300070B5866D044600F0EAFA94F83510022963
:102B400025D105462068216C026822F01602026039
:102B5000426922F08002426109B9A16C19B1016891
:102B600021F008010160016821F00101016000BF4E
:102B700020680068C0070ED000F0C9FA401B062884
:102B8000F6D320206065032084F835000CE0802017
:102B90006065012008E0E06D3F2101FA00F0B060BF
:102BA000012084F835000020002184F8341070BD25
:102BB00090F83510022909D1052180F835100068F8
:102BC000016821F00101016000207047802141650A
:102BD00001207047F0B581B004460020009040F21B
:102BE0001820C2F200000268D4E9166048F2B5135A
:102BF00037680821C1F64E3381403942A2FB0325D4
:102C00000CD0226813685B0708D5136823F004030F
:102C10001360B160616D41F0010161650121814086
:102C2000394208D022685269120604D5B160616D3C
:102C300041F00201616504218140394208D02268D7
:102C40001268920704D5B160616D41F004016165BD
:102C500010218140394217D020680268120713D52D
:102C6000B16002680168520306D4C90506D4016840
:102C700021F00801016001E0080301D4216C00E0AB
:102C8000A16C09B120468847E16D202000FA01F2CD
:102C90003A423CD020680368DB0638D5B26094F82D
:102CA00035300268052B1AD122F016020260426903
:102CB00022F080024261226C0AB9A26C1AB1026849
:102CC00022F0080202603F208840B060012084F8B2
:102CD0003500216D002084F83400B9BB3BE0016869
:102CE00052030CD4C9050ED4016821F01001016013
:102CF000012084F83500002084F8340003E0080344
:102D000001D4616C00E0E16B09B120468847606D39
:102D100008B3606DC00717D0052084F8350020681F
:102D2000A90A026822F00102026000BF009A013283
:102D30008A42009202D80268D207F7D1012084F8B3
:102D40003500002084F83400E16C21B1204601B048
:102D5000BDE8F040084701B0F0BD00002DE9F041AA
:102D6000044600F0D4F9C4B10546022084F83500C9
:102D70000020216884F83400086820F00100086011
:102D800021680868C0070BD000F0C1F9401B052876
:102D9000F6D903252023032064E00120BDE8F0815B
:102DA000086848F23F02CFF21002D4E9013500EA88
:102DB000020C04F10C0898E8C10143EA0C032B4310
:102DC0001843D4E9072E304338431043626A40EA7F
:102DD0000E00042A40EA08031CD1206BD4E90A2E15
:102DE00040EA0E00184308604869BEF1000F20F069
:102DF000030040EA020040F0040C11D0B8F5005F77
:102E000035D0B8F1000F42D1022A43D0012A38D080
:102E1000002A3EE00B60486920F0070040EA020CFF
:102E200001F0F8004AF6AB221038CAF6AA22A0FB3D
:102E300002231A094AF6CC33C1F814C0C0F60003C5
:102E40009A5C40F2FF335F284FF03F0021EA030114
:102E500000FA02F088BF0431C4E91612886000232A
:102E600001250020636584F83550BDE8F081032A10
:102E7000D6D8012540230120DFE802F0020C02032E
:102E8000F0E7AEF1C070B0FA80F0400904E0032A28
:102E900004D3C5D1CEF300600028C1D00125402362
:102EA0000120DFE790F834C0BCF1010F04BF02201D
:102EB000704770B54FF0010C80F834C0D0F858E07E
:102EC00090F835C0BCF1010F37D14FF0020C80F8FB
:102ED00035C04FF0000CC0F854C0D0F800C0846872
:102EE000056CC06DDCF80060402C26F48026CCF820
:102EF0000060CCF804300B4604BF13460A463F215D
:102F000001FA00F0CCF80830CCF80C20CEF808001C
:102F1000DCF8000040F01600CCF800002DB1DCF821
:102F2000000040F00800CCF80000DCF8000040F0A1
:102F30000100CCF80000002070BD002180F83410A2
:102F4000022070BDB0B5044600F0E1F8054640F23D
:102F50004C20C2F200000078611C18BF044400BF7E
:102F600000F0D5F8401BA042FAD3B0BD2DE9F04FD8
:102F700083B000F1200200F13E4741F60045009287
:102F800007F1FF77C4F2020508224FEAB726A842EC
:102F900008BF072200254FF000084FF00009072E58
:102FA00038BF4FEAB72201920F68012202FA09FEE8
:102FB00017EA0E0A00F09980D1F804C003220CF041
:102FC00003077E1E02FA08F4012E6FEA040B11D8E3
:102FD0008468CE6804EA0B0406FA08F63443846079
:102FE000446824EA0E06CCF3001404FA09F42643DC
:102FF000466003E0032F01D103271EE0C6688C68FA
:1030000006EA0B0604FA08F42643022FC66014D120
:103010006FF00302009E02EA590756F807C005F058
:103020001C040F220B69A2402CEA0202A3401A439F
:10303000F251D1F804C00CF00307026807FA08F354
:1030400002EA0B021A431CF4403F02604DD00022FA
:1030500043F644030292C4F202031A6843F60044A2
:1030600042F480421A601A68C4F2010402F48042F9
:103070000292029A29F003024FF6084C2244CFF63E
:10308000FF7C52F80C3005F00C070F26BE40B3430E
:10309000019E06FA07F73B4342F80C30A2684B68E2
:1030A00042EA0A0743F60C4CDE0258BF22EA0A073E
:1030B000A760C4F2010CDCF800209E0242EA0A0775
:1030C00058BF22EA0A07CCF8007062689E0342EA01
:1030D0000A0758BF22EA0A0767602268DB0342EA50
:1030E0000A0758BF22EA0A07276009F1010908F117
:1030F0000208B9F1100F05F104057FF455AF03B0D4
:10310000BDE8F08F002A08BF09048161704749F6C5
:103110009870C2F200000068704740F24C2049F6F7
:103120009871C2F20000C2F2000100780A681044EF
:103130000860704780B543F60040C4F202000168A1
:1031400041F400710160016841F48061016001682F
:1031500041F480710160032000F0BBF80F2000F003
:1031600004F800F05AF8002080BD70B586B0002544
:1031700043F640010195C4F202010A68044642F098
:1031800020020A60096801A801F02001019101995B
:10319000694600F058F9049E002E18BF012600F081
:1031A00071F94DF68361B040C4F21B31A0FB0101FF
:1031B0004FF0FF3000EB914140F6CC3041F200423D
:1031C000C2F20000C4F2000240F2E733C0E900217D
:1031D000C0E902530561856100F0BBFB0546C8B933
:1031E00040F6CC30C2F2000000F0F9FB054688B989
:1031F000372000F033F80F2C0BD83720214600225F
:10320000002500F03BF840F25020C2F200000460BC
:1032100000E00125284606B070BD82B0002043F6CC
:1032200040010190C4F202014A6842F480424A60BF
:103230004A6802F480420192019A009008680022D4
:1032400040F08050086008680F2100F08050009026
:1032500000986FF0010002B000F010B800280CD404
:1032600000F01F01012202FA01F11C2202EAD00043
:103270004EF20012CEF200028150704710B54EF6A9
:103280000C5CCEF2000CDCF80030C3F3022E8EF0A2
:103290000704042C28BF0424BEF103034FF0FF3EB3
:1032A0000EFA04F438BF0023A14399400EFA03F349
:1032B0009A43114300F00F0200F160430901043A00
:1032C00003F564436244002848BF02F10C031970FF
:1032D00010BD4EF60C51CEF200010A684FF6FF0306
:1032E0001A4060F30A2242F0806040F0FD700860EE
:1032F00070470000002872D02DE9F04143F6000825
:10330000C4F202080446D8F800040D4600F0070095
:10331000884207D288F80054D8F8000400F007006B
:10332000A84266D12068810717D5410705D5D8F88E
:10333000081041F4E051C8F80810010705D5D8F885
:10334000081041F46041C8F80810D8F80810A268C5
:1033500021F0F0011143C8F80810C00741D1D8F896
:10336000000400F00700A84207D988F80054D8F8F4
:10337000000400F00700A8423BD12068410707D5B0
:10338000D8F80810E26821F4E0511143C8F8081099
:10339000000708D5D8F80800216920F4604040EA09
:1033A000C100C8F8080000F093F8D8F808104AF6F1
:1033B0003C22C1F30311C0F60002515C40F2182216
:1033C00020FA01F140F25020C2F200000068C2F27F
:1033D00000021160FFF7C9FE0020BDE8F081012066
:1033E00070476068811E022906D2D8F80010890152
:1033F00008D40120BDE8F08101281FD1D8F80010C1
:103400008903F6D5D8F8081021F003010843C8F85D
:103410000800FFF77CFE064641F28837D8F808001E
:10342000616800F00C00B0EB810F98D0FFF76FFEE1
:10343000801BB842F2D90320BDE8F081D8F8001013
:103440008907D6D5DEE70F22026043F60802C4F2F0
:103450000202136803F003034360136803F0F003F0
:103460008360136803F4E053C360D2F800C04FF4E4
:10347000E05303EADC030361D2F8F80300F007002D
:103480000860704740F2182043F60801C2F20000BD
:10349000C4F20201006809684AF64C22C1F3822195
:1034A000C0F60002515CC840704740F2182043F655
:1034B0000801C2F20000C4F20201006809684AF67D
:1034C0004C22C1F34231C0F60002515CC840704743
:1034D00010B543F60404C4F20204606800F00C0165
:1034E00042F200400829C0F2F40007D0042918BFB6
:1034F00010BD41F20020C0F27A0010BD216801F039
:103500003F02216823684902C3F3881105D4A1FB57
:1035100000010023FCF764FE06E041F20020C0F247
:103520007A004843B0FBF2F021680222C1F3014166
:1035300002EB4101B0FBF1F010BD000000286BD0A0
:103540002DE9F04182B00446007843F60006C0073A
:10355000C4F202060CD0B06800F00C00042840F061
:1035600098803068800303D56068002800F0AB8045
:10357000207880071BD5B06810F00C0F09D0B06818
:1035800000F00C00082840F0A0807068400200F1B4
:103590009C803068800703D5E068012840F0938064
:1035A0003068216920F0F80040EAC10030602078DE
:1035B000000733D42078400745D4A56955B3B068D7
:1035C00000F00C00082840F0B980012D7BD0706815
:1035D000E16900F480028A4275D1216A00F03F025D
:1035E0008A4270D147F6C071626A0140B1EB821F16
:1035F00069D1A16A4FF6FF73C903994300F44032C1
:10360000A1F580318A425ED1E16A00F07060B0EBD2
:10361000016F58D10020F3E0012070476069002855
:1036200078D00020C4F247200121C0F8801EFFF7A7
:103630006EFD0546706F8007BCD4FFF768FD401B28
:103640000228F7D9DBE0306C5FEAC0080AD400201A
:103650000190306C40F080503064306C00F080504D
:103660000190019847F20007C4F200073868C005CE
:1036700042D4386840F480703860FFF748FD054652
:103680003868C00538D4FFF742FD401B0228F7D93F
:10369000B5E0B06800F00C00082803D17068400263
:1036A0003FF55FAF61683068B1F5803F07D0B1F595
:1036B000A02F40F08E8040F480203060306840F4CD
:1036C000803030608EE001209AE0E068002840F20F
:1036D0000000C4F2472053D001210160FFF717FD1D
:1036E000054600BF306880073FF55AAFFFF70FFD72
:1036F000401B0228F6D982E0A168306F012905D06D
:1037000005294FD140F004003067306F40F00100D0
:10371000306750E00020C4F247200021C0F8801E2E
:10372000FFF7F5FC054600BF706F80077FF542AFDD
:10373000FFF7EDFC401B0228F6D960E00027C4F239
:10374000472700203866FFF7E2FC022D05460BD123
:103750003068800157D5FFF7DAFC401B02284FF094
:103760000300F5D94CE000BF306880017FF552AF0F
:10377000FFF7CDFC401B02284FF00300F4D93FE0D7
:1037800000210160FFF7C3FC054600BF30688007D9
:103790007FF50DAFFFF7BBFC401B02284FF0030085
:1037A000F4D92DE020F001003067306F002920F0BF
:1037B0000400306748D0FFF7AAFC054641F288377D
:1037C000306F800751D4FFF7A2FC401BB842F7D9F5
:1037D00015E020F4803030603068002920F480202B
:1037E00030604BD0FFF793FC054600BF3068800384
:1037F0003FF5BEAEFFF78BFC401B6428F6D90320D3
:1038000002B0BDE8F08104F11C052FCD084340EA69
:103810008210D9034FF6FF729143A1F5803140EA3F
:1038200005600843706001203866FFF770FC0446AD
:10383000306880013FF5EEAEFFF769FC001B0228FF
:103840004FF00300F4D9DBE7FFF761FC054641F2D6
:10385000883700BF306F800707D5FFF758FC401B43
:10386000B8424FF00300F5D9CAE7B8F1000F3FF5B1
:10387000A4AE306C20F0805030649EE6FFF747FC29
:10388000054600BF306880037FF572AEFFF73FFC4E
:10389000401B64284FF00300F4D9B1E7704770472C
:1038A00090F83C20012A4FF0020250D010B580F869
:1038B0003D200268D2F804E0D2F808C00C682EF06F
:1038C0007003234341F2FF74C4F20004A242536028
:1038D0000BDC40F2FF73C4F200039A4213DCB2F136
:1038E000804F27D040F2004315E040F2FF33C4F28E
:1038F00001039A4212DC41F60003C4F200039A422B
:1039000018D0002312E040F60003C4F200039A42EC
:1039100010D040F60043C4F2000309E044F2000373
:10392000C4F201039A4205D040F20043C4F20103FD
:103930009A4204D149682CF0800319439160012117
:10394000002280F83D1080F83C20BDE81040104671
:10395000704740B310B5044690F83D0028B90020E8
:1039600084F83C00204600F020F8022084F83D0056
:103970002068211D02F06EFA012084F8460084F8C8
:103980003E0084F83F0084F8400084F8410084F849
:10399000420084F8430084F8440084F8450084F829
:1039A0003D00002010BD01207047006840F6000176
:1039B000C4F20001884218BF704781B00020009017
:1039C00043F64000C4F20200016841F004010160C6
:1039D000006800F004000090009801B0704790F873
:1039E0003D1001291CBF01207047022180F83D10C5
:1039F000006841F2FF72C168C4F20002904241F0D7
:103A00000101C1600BDC40F2FF71C4F20001884289
:103A100013DCB0F1804F27D040F2004115E040F2B6
:103A2000FF31C4F20101884212DC41F60001C4F208
:103A30000001884218D0002112E040F60001C4F2D3
:103A40000001884210D040F60041C4F2000109E0B4
:103A500044F20001C4F20101884205D040F2004165
:103A6000C4F20101884204D1816801F007010629EE
:103A700003D0016841F0010101600020704790F817
:103A80003C20012A4FF002026BD080B580F83D2027
:103A9000D0F800C04FF67772DCF8083023EA020253
:103AA000CCF808200B684F2B28DC1F2B44DD202B83
:103AB00045D0302B43D0402B40F0AC80D1F804E00F
:103AC000C968DCF82030DCF8202022F00102CCF8B4
:103AD0002020DCF8182022F0F00242EA011123F045
:103AE0000A0242EA0E02CCF81810CCF82020DCF8CA
:103AF000081041F0470121F0300127E06F2B32DD43
:103B0000B3F5005F73D0B3F5805F21D0702B40F028
:103B10008180D1E901E3C968DCF8082043EA0E039B
:103B200022F47F4243EA01211143CCF80810DCF86B
:103B3000081041F0770109E00BB1102B6AD1DCF8D5
:103B4000081021F07001194341F00701CCF808106A
:103B50000022012180F83D10002180F83C10BDE8D2
:103B6000804010467047502B21D0602B52D1D1F8A5
:103B700004E0C968DCF82030DCF8202022F01002D4
:103B8000CCF82020DCF8182022F4704242EA0131FF
:103B900023F0A00242EA0E12CCF81810CCF8202034
:103BA000DCF8081041F0670121F01001CEE7D1F8F0
:103BB00004E0C968DCF82030DCF8202022F00102A3
:103BC000CCF82020DCF8182022F0F00242EA0111A3
:103BD00023F00A0242EA0E02CCF81810CCF820209A
:103BE000DCF8081041F0570121F02001AEE7D1E9DF
:103BF00001E3C968DCF8082043EA0E0322F47F429F
:103C000043EA01211143CCF80810DCF8081041F414
:103C100080419BE701229CE7704770B5044600682D
:103C2000C5680669B10716D515F0020113D06FF00B
:103C300002010161012121778069800703D02046BC
:103C4000FFF7EAFF05E0204600F0B5F8204600F057
:103C50002CF900202077700718D515F0040015D036
:103C600020686FF00401016102212177806910F45E
:103C7000407F03D02046FFF7CFFF05E0204600F04D
:103C80009AF8204600F011F900202077300717D568
:103C900015F0080014D020686FF0080101610421BC
:103CA0002177C069800703D02046FFF7B5FF05E004
:103CB000204600F080F8204600F0F7F8002020773A
:103CC000F00618D515F0100015D020686FF010011F
:103CD000016108212177C06910F4407F03D020469C
:103CE000FFF79AFF05E0204600F065F8204600F057
:103CF000DCF800202077F00718BF15F0010006D08F
:103D000020686FF001010161204600F04EF9300695
:103D100009D515F0800006D020686FF080010161A0
:103D20002046FFF7BBFD700609D515F0400006D010
:103D300020686FF040010161204600F040F9B006B4
:103D400058BF70BD15F0200008D021686FF0200228
:103D500020460A61BDE87040FFF7A1BD70BDB0B557
:103D600086B0044640F6000501A81421C4F20005FF
:103D7000FCF7B1FA2068A8421BD1002043F63001BD
:103D80000090C4F202010A6842F008020A60096861
:103D900001F00801009100994FF470410191022156
:103DA000CDE90210CDE9040105F5013001A9FFF7C5
:103DB000DDF806B0B0BD7047B0B5044690F83C00E1
:103DC000012804BF0220B0BD0D464FEAB201012018
:103DD000032984F83C0037D8DFE801F002220A1AF0
:103DE0002068294602F0CCF8206850F8181F06E039
:103DF0002068294602F029F9206850F81C1F41F07C
:103E000008010160016821F004010160296917E0DF
:103E10002068294602F04CF9206850F81C1F06E083
:103E20002068294602F0DDF8206850F8181F41F498
:103E300000610160016821F4806101602969090263
:103E40000268114301600020002184F83C10B0BDDD
:103E500040B310B5044690F83D0028B9002084F81E
:103E60003C00204600F020F8022084F83D00206845
:103E7000211D01F0EFFF012084F8460084F83E0088
:103E800084F83F0084F8400084F8410084F8420040
:103E900084F8430084F8440084F8450084F83D0029
:103EA000002010BD0120704770477047A1B1042960
:103EB00004D0082914BF4122402200E03F22825C46
:103EC000012A11D10222082910D0042914BF80F838
:103ED000412080F83F200BE090F83E20012A03D1DA
:103EE000022280F83E2003E00120704780F8402045
:103EF000006801F01F010122036A02FA01F123EABE
:103F000001020262026A114341F2FF72C4F200022E
:103F1000904201620BDC40F2FF71C4F20001884262
:103F200013DCB0F1804F35D040F2004115E040F293
:103F3000FF31C4F20101884214DC41F60001C4F2F1
:103F40000001884226D0002114E040F60001C4F2AE
:103F5000000188421ED040F60041C4F200018842B0
:103F600018D01CE044F20001C4F20101884211D0D3
:103F700040F20041C4F20101884210D1416C40F28C
:103F8000004340F48062C4F2010341F400419A42CC
:103F9000416404D1816801F00701062903D001685A
:103FA00041F00101016000207047006841F20041CA
:103FB000C4F20001884218BF7047FFF7AEB87047DF
:103FC00070B582B0044690F84200202820D14FF00E
:103FD0000105F1B1EAB1002620462563666302F0CF
:103FE00039FA206B012814D10196206801680191EB
:103FF00040680190019800BF206850E8030F2168D5
:1040000040F0100041E80302002AF5D1002500E04D
:104010000225284602B070BD10B5044640F6144093
:10402000C2F2000084421BD040F65C40C2F20000A5
:1040300084421AD040F6A440C2F20000844219D053
:1040400040F6EC40C2F20000844218D040F63450F2
:10405000C2F20000844217D0FEF7D4F9002017E026
:1040600042F67410C2F2000012E042F68410C2F26E
:1040700000000DE042F69410C2F2000008E042F6A3
:10408000A410C2F2000003E042F6B410C2F2000035
:10409000E16B09684968C1810189C289891A418136
:1040A00010BD7047B0B582B0044600680168C368AF
:1040B000426901F02F05202D03F0200506D12DB116
:1040C000204602B0BDE8B04002F0F4B85FEA017CDF
:1040D0001EBF02F0010E03F4907212EB0E026ED1BD
:1040E000226BCD0643D5012A41D113F010023ED0F8
:1040F0000021019101680191416801910199406994
:10410000400600F1CB80A08DE18DE28D002A00F009
:104110001581884200F01281401A00BF216851E8E1
:10412000031F226821F4907142E80313002BF5D19C
:10413000216851E8051F226821F0010142E80513BA
:10414000002BF5D1202184F842100021216300BF0B
:10415000216851E8031F226821F0100142E803138F
:10416000002BF5D1022281B220466263DCE00A0610
:1041700040F1828013F0800200F07E8094F84110BC
:10418000212940F0DB80A168B1F5805F03D121696E
:10419000002900F0DB80216A4A1C22620978416014
:1041A000E18C01390A04E18440F0C880C16821F043
:1041B0008001C160C16841F04001C160BEE0CA0732
:1041C00018BF13F4807203D0626C42F00102626483
:1041D0004A0706D5BEF1000F03D0626C42F002021E
:1041E00062648A0706D5BEF1000F03D0626C42F00C
:1041F00004026264BCF1000F06D55EEA050203D03A
:10420000626C42F008026264626C002A00F09680E0
:10421000890604D51DB1204602F04CF8206840699B
:10422000616C00F0400001F00801401800F081804E
:10423000204602F017F820684069400640F180806F
:10424000206850E8050F216820F0400041E8050291
:10425000002AF5D1E06B002872D046F21711C0F6A3
:1042600000010165FEF7A4FC002867D0E06B016D3A
:1042700002B0BDE8B040084749065FD513F04001E1
:104280005CD0C16821F04001C1602021204684F843
:10429000411002B0BDE8B04000F0C4BBE06B016863
:1042A00049688AB2002A49D0A38D9A4246D2E18554
:1042B000C069B0F5807F30D0206850E8030F2168D6
:1042C00020F4807041E80302002AF5D1206850E80C
:1042D000050F216820F0010041E80502002AF5D110
:1042E000206850E8050F216820F0400041E80502F1
:1042F000002AF5D1202084F842000020206300BF6E
:10430000206850E8030F216820F0100041E8030204
:10431000002AF5D1E06BFEF70BFC02206063A08D54
:10432000E18D401A81B2204602B0BDE8B040FFF7EF
:1043300073BE2046FFF7B5FE0020606402B0B0BD3A
:10434000204602B0BDE8B040FFF7ABBE216A31F8AD
:10435000022B6FF35F224260216221E758B310B550
:10436000044690F8410028B9002084F84000204617
:1043700000F023F8242084F841002068C16821F46B
:104380000051C160204601F0F6FF2068016921F468
:1043900090410161416921F02A014161C16841F404
:1043A0000051C16000202021606484F8411084F82D
:1043B0004210606310BD012070472DE9F04F87B0B7
:1043C000044602A81421FBF786FF206844F6FF711B
:1043D000C4F20001884200F3818044F20041C4F23B
:1043E0000001884200F0BE8044F60001C4F20001E2
:1043F000884200F0A58144F60041C4F200018842E1
:1044000040F07882002643F630000196C4F20200A4
:10441000016946F2100841F4002101610169C4F20A
:10442000020801F40021019101990196016841F00F
:1044300004010160006802A900F0040001900198E5
:104440004FF4406002900220CDE90306032005905E
:10445000082006900020C4F2020000F50060FEF77C
:1044600085FD40F6240508F16000C2F200054FF01A
:1044700000674021C5E9000705F108004FF4806995
:1044800080E8420205F114001421FBF724FF2846BE
:10449000FEF764FC08B1FDF7B5FFA563AC6340F21D
:1044A000C47508F13000C2F200054FF48071C5E90F
:1044B00000072846C5E90266C5E90496C5E9066114
:1044C000C5E90866FEF74AFC08B1FDF79BFFE56306
:1044D000AC63342000210022342406E245F20001BE
:1044E000C4F20001884200F0A68041F20001C4F24B
:1044F0000101884200F0908141F20041C4F20101C3
:10450000884240F0F781002043F630010190C4F268
:1045100002014A6942F020024A614A6902F020021F
:104520000192019A01900A6842F004020A60096847
:1045300001F0040101910199C02102910221CDE90C
:10454000031003200590082006900020C4F202000A
:1045500000F5006002A9FEF709FD472005210022B1
:104560004724C2E1002643F630000196C4F202005F
:10457000016946F2100841F4003101610169C4F299
:10458000020801F40031019101990196016841F09E
:1045900001010160006802A900F00100019001988A
:1045A0000C2002900220CDE903060320059007208D
:1045B00006900020C4F20200FEF7D8FC40F6642505
:1045C00008F19000C2F200054FF000674021C5E9F4
:1045D000000705F108004FF4806980E8420205F108
:1045E00014001421FBF777FE2846FEF7B7FB08B14D
:1045F000FDF708FFA563AC6340F6042508F17800D9
:10460000C2F200054FF48071C5E900072846C5E9EC
:104610000266C5E90496C5E90661C5E90866FEF7C4
:104620009DFB08B1FDF7EEFEE563AC63262000219B
:104630000022262459E1002643F630000196C4F2F8
:1046400002000169002741F4801101610169C4F28F
:10465000020701F48011019101990196016802ADF0
:1046600041F004010160016846F2100801F0040104
:1046700001910199019601684FF0020941F008018A
:10468000016000684FF0030A00F0080001900198F3
:104690004FF4805002904FF0080B07F50060294658
:1046A000C4F20208CDE90396CDF814A0CDF818B0F5
:1046B000FEF75CFC0420CDE9020904A880E8400C68
:1046C00007F540602946FEF751FC40F6E40508F185
:1046D000A800C2F200054FF000674021C5E90007BD
:1046E00005F108004FF4806980E8420205F11400EA
:1046F0001421FBF7F0FD2846FEF730FB08B1FDF76B
:1047000081FEA563AC6340F68405C2F200054FF458
:104710008070C5E906602846C5E90087C5E90266DC
:10472000C5E90496C5E90866FEF718FB08B1FDF770
:1047300069FEE563AC633520002100223524D4E016
:10474000002643F630000196C4F20200016946F2E9
:10475000100841F4802101610169C4F2020801F4EA
:104760008021019101990196016841F002010160E7
:10477000006802A900F00200019001984FF4406027
:1047800002900220CDE90306032005900720069041
:104790000020C4F2020000F58060FEF7E7FB40F65F
:1047A000243508F14800C2F200054FF000674021AF
:1047B000C5E9000705F108004FF4806980E842026E
:1047C00005F114001421FBF786FD2846FEF7C6FA12
:1047D00008B1FDF717FEA563AC6340F6C42508F1E8
:1047E0001800C2F200054FF48071C5E900072846A1
:1047F000C5E90266C5E90496C5E90661C5E908662A
:10480000FEF7ACFA08B1FDF7FDFDE563AC632720C8
:1048100000210022272468E0002643F6300001969C
:10482000C4F20200416946F2100841F010014161F2
:104830004169C4F2020801F0100101910199019649
:10484000016841F001010160006802A900F0010067
:10485000019001984FF4C06002900220CDE9030658
:1048600003200590072006900020C4F20200FEF706
:104870007DFB40F6A41508F59560C2F200054FF0E7
:1048800000674021C5E9000705F108004FF4806981
:1048900080E8420205F114001421FBF71CFD2846B4
:1048A000FEF75CFA08B1FDF7ADFDA563AC6340F619
:1048B000441508F58660C2F200054FF48071C5E921
:1048C00000072846C5E90266C5E90496C5E9066100
:1048D000C5E90866FEF742FA08B1FDF793FDE56306
:1048E000AC632520052100222524FEF7C7FC2046C5
:1048F000FEF7B4FC07B0BDE8F08F704770470000CA
:104900002DE9F041044690F8410020281CBF022008
:10491000BDE8F0810D464FF00100E1B31746D2B378
:10492000002060642120984684F84100FEF7EFFBE8
:10493000A784E784A1680746B1F5805F01D12069AB
:1049400088B32E46002500BFE08CC0B120468021F0
:104950003A46434601F0CAFDF8B92EB116F8010BEC
:104960002168486007E000BF35F8020B21686FF34B
:104970005F2048600026E08C0138E084E4E72046B0
:1049800040213A46434601F0B1FD202184F8411010
:10499000002818BF0320BDE8F081202084F84100E2
:1049A0000320BDE8F0810026CEE70000B0B5044644
:1049B00090F8410020281CBF0220B0BD4FF001003C
:1049C00079B313466AB34FF0000C21202162A3840F
:1049D000E384C4F844C084F84100A06B46F2212E61
:1049E00046F25F252268C0F6000EC0F60005C0E959
:1049F0000FE546F22515C0F600050432C0E9135C48
:104A0000FEF750FA20686FF040010160206850E81E
:104A1000050F216840F0800041E80502002AF5D129
:104A20000020B0BD704770472DE9F04F81B04FF0C6
:104A300000090DF1030102208DF8039002F03BF90B
:104A4000002855D040F2804640F22027C2F20006EE
:104A5000C2F200070DF103044FF0050A4FF0010BFD
:104A60004FF00008307805281AD0012808D098BBEC
:104A70009DF803007978884208BF86F800B02DE0E1
:104A80009DF80300B978884226D1082087F8009065
:104A9000F8707878B9780844387286F800A01DE07C
:104AA0009DF8031078683A78531C3B7081543B782A
:104AB000FD783A7AAB4218D991420DD141F2385182
:104AC000C2F200010A683AB1F9789047022002F078
:104AD000E5F84FF0010800BF86F80090022021465B
:104AE00002F0E9F80028BDD104E050183872F5E76B
:104AF0004FF000085FFA88F001B0BDE8F08F0000C9
:104B0000FEE70000000000002DE9F04F81B040F604
:104B10000C60C2F20000D0F838A0D0F85CB0D0F839
:104B20001490D0F880800AEB0B00A9EB0000404401
:104B3000FBF7A4FD9FED2C0B54EC105B2A4623469B
:104B4000FBF7BBFC9FED2A0B56EC107B3A46334635
:104B5000FBF725FDFBF7D5FD40F25C71C2F20001C9
:104B600008600AEB0900ABEB00004044FBF786FD50
:104B70002A462346FBF7A1FC3A463346FBF70FFDD6
:104B8000FBF7BFFD40F25871C2F2000140F60C6322
:104B90000860C2F20003198EB3F854209889B3F864
:104BA00078308F18C71B1F44084407EB9777101AFB
:104BB000BF10184400EE107A40F24C7700EB907072
:104BC000B8EEC00AC2F20007801087ED000A00EEBE
:104BD000100A40F24870B8EEC00AC2F2000080ED40
:104BE000000A01B0BDE8F08F6666666666E636408C
:104BF00000000000000062402DE9F04381B04FF05A
:104C000000090DF1030101208DF8039002F053F823
:104C1000002865D040F2884640F22C2741F23C58EB
:104C2000C2F200060DF10304C2F20007C2F200084E
:104C3000002500BF31780020072949D8DFE801F0BE
:104C4000042B480B4830401B9DF8030079788842BC
:104C50003FD101203CE087F800907878F9789DF802
:104C60000320084410443872786839784B1C3B7034
:104C7000425405202CE09DF80300797A88424FF0D9
:104C8000000025D1D8F8002012B37868F978904751
:104C9000012500201CE09DF80300F870032017E0B8
:104CA0009DF8030079683A78531C3B708854397A30
:104CB000084438723878F97888420AD3072007E028
:104CC0009DF80300397A88424FF0000008BF0720A2
:104CD00030700120214601F0EEFF0028AAD100E04B
:104CE0000025E8B201B0BDE8F083000010B502462F
:104CF000481E44F24274C0B2C4F25214C3000428E5
:104D000038BF24FA03F140F28944C2F20004CBB266
:104D100009A1204605F086F92046FBF7E7FA82B2A2
:104D2000B2F5006F28BF4FF4006201202146BDE8B4
:104D3000104001F0E2BF00BF6D6F64653D25642542
:104D40006300000080B540F2747046F20041C2F288
:104D50000000C4F200010322002380E80E0000F1ED
:104D60000C014FF4102C4FF4001E81E808508361B1
:104D70008383FDF795FD18B1BDE88040FDF742BB88
:104D800080BD80B540F29C7046F60001C2F2000082
:104D9000C4F200010C22002380E80E0000F10C0197
:104DA0004FF4003C4FF4001E81E808504FF480712E
:104DB0000183C0F81A30FDF773FD18B1BDE88040DB
:104DC000FDF720BB80BD80B582B0002043F63001E6
:104DD0000190C4F202010A6842F400120A600A68F3
:104DE00002F400120192019A00900868002240F437
:104DF000800008600868002100F48000009000989E
:104E00000B20FEF73BFA0B20FEF728FA0C200021BE
:104E10000022FEF733FA0C20FEF720FA0D200021C5
:104E20000022FEF72BFA0D20FEF718FA0E200021C3
:104E30000022FEF723FA0E20FEF710FA0F200021C1
:104E40000022FEF71BFA0F20FEF708FA10200521BA
:104E50000022FEF713FA1020FEF700FA11200521B8
:104E60000022FEF70BFA1120FEF7F8F92F2005219A
:104E70000022FEF703FA2F20FEF7F0F93A20052171
:104E80000022FEF7FBF93A20FEF7E8F9462005215B
:104E90000022FEF7F3F9462002B0BDE88040FEF79D
:104EA000DDB980B54AF66420C0F6000002F0EAF9E8
:104EB00040F28C51C2F200014AF674220860C0F63A
:104EC00000020120042102F083F940F29451C2F261
:104ED00000014AF6A4220860C0F600020120042165
:104EE00002F076F940F29C51C2F200014AF68C229F
:104EF0000860C0F600020120042102F069F940F2C6
:104F00009851C2F200014AF6BC220860C0F60002C5
:104F10000120012102F05CF940F2A051C2F200012F
:104F2000086042F231104AF61C32C0F60000C0F6AA
:104F30000002002102F0FBF940F20C71C2F2000104
:104F4000086042F2A9104AF64032C0F60000C0F6EE
:104F50000002002102F0EBF940F21071C2F20001F0
:104F6000086042F21B104AF6D422C0F60000C0F6D8
:104F70000002002102F0DBF940F20471C2F20001EC
:104F8000086042F2AD104AF66432C0F60000C0F686
:104F90000002002102F0CBF940F21471C2F20001CC
:104FA000086042F2B1104AF68832C0F60000C0F63E
:104FB0000002002102F0BBF940F21871C2F20001B8
:104FC000086042F21D104AF6F822C0F60000C0F652
:104FD0000002002102F0ABF940F20871C2F20001B8
:104FE00008604AF65420C0F6000002F0AFF840F224
:104FF0007841C2F20001086080BD2DE9F04786B01B
:105000000DF1040840461421FBF765F9002743F62B
:1050100030000097C4F202000168002541F004014D
:1050200001600168C4F2020501F0040100910099D9
:105030000097016805F5006641F080010160016894
:10504000012201F0800100910099009701684FF45E
:10505000005941F0010101600168012401F00101E2
:10506000009100990097016841F002010160016818
:1050700001F00201009100990097016841F00801D8
:10508000016000684FF4005100F0080000900098A3
:105090003046FEF737F82846132100224FF0130A56
:1050A000FEF730F830464146CDE90194CDE903776B
:1050B000FDF75CFF28464146CDE901A4CDE9037721
:1050C000FDF754FF4FF40040CDE901072846414663
:1050D0000394FDF74BFF06B0BDE8F08710B58EB026
:1050E000002401A81C210D94CDE90B44CDE908440E
:1050F000FBF7F1F840F6843040F60001C2F2000000
:10510000C4F2000142F20F73A72280E81600C0E942
:1051100003348461FEF71DFC08B1FDF773F94FF409
:1051200080500A9040F68430C2F200000AA9FEF7CF
:10513000A6FC08B1FDF766F940F68430C2F2000023
:10514000FEF786FE08B1FDF75DF940F684300024D5
:10515000C2F2000008A9CDE90844FEF7A1FB08B19E
:10516000FDF750F96020CDE9010440F68430C2F229
:10517000000001A9002203940594FEF71DFE08B16A
:10518000FDF740F940F68430C2F2000001A9042284
:10519000FEF712FE08B1FDF735F940F68430C2F291
:1051A000000001A90822FEF707FE08B1FDF72AF961
:1051B00040F68430C2F2000001A90C22FEF7FCFD8B
:1051C00008B1FDF71FF940F68430C2F20000FEF787
:1051D000C6FD0EB010BD80B540F6EC4044F600416F
:1051E000C2F20000C4F2000100234FF00C0C4FF497
:1051F000E13280E80E00C0E90333C0E905C3C361B2
:10520000FFF7ACF818B1BDE88040FDF7FBB880BDF2
:1052100080B540F6345045F20001C2F20000C4F2FD
:10522000000100234FF00C0C4FF4165280E80E00E2
:10523000C0E90333C0E905C3C361FFF78FF818B1B4
:10524000BDE88040FDF7DEB880BD80B540F6144073
:1052500041F20001C2F20000C4F2010100234FF04C
:105260000C0C4FF4613280E80E00C0E90333C0E952
:1052700005C3C361FFF772F818B1BDE88040FDF7C0
:10528000C1B880BD80B540F65C4044F20041C2F236
:105290000000C4F2000100234FF00C0C4FF4E13287
:1052A00080E80E00C0E90333C0E905C3C361FFF71E
:1052B00055F818B1BDE88040FDF7A4B880BD80B5B1
:1052C00040F6A44044F60001C2F20000C4F200011E
:1052D00000234FF00C0C4FF4E13280E80E00C0E9DF
:1052E0000333C0E905C3C361FFF738F818B1BDE85F
:1052F0008040FDF787B880BD80B540F67C5041F214
:105300000041C2F20000C4F2010100234FF00C0C76
:105310004FF4E13280E80E00C0E90333C0E905C371
:10532000C361FFF71BF818B1BDE88040FDF76AB80C
:1053300080BD0000FEE72DE9F04F81B02DED048B1C
:1053400088B05AEC10BBB0EE438AB0EE429A53ECF0
:10535000112B58465146F0EE638AF0EE629ACDE981
:105360000032CDF808B0CDF80CA0FAF7FFFF0446E4
:10537000059041F22C50C2F2000000680D460491E5
:10538000FBF7ACF902460B4651EC190BCDE90601CF
:10539000FBF793F822462B4680468946FAF7E6FF4C
:1053A00006464AF2AC60C2F2000000680F46FBF706
:1053B00095F904460D463046394622462B46FBF702
:1053C0007CF8FBF79EF94AF29C61C2F20001C860CA
:1053D0000E4658465146DDF804B0DDF800A05A46A6
:1053E0005346FBF764F842464B46FBF760F822460B
:1053F0002B46FBF762F8FBF784F9B06041F22850C6
:10540000C2F200000068B046FBF768F902460B469E
:10541000DDE90601FBF751F8DDE9043206460F46E7
:10542000FBF745F822462B46FBF747F8FBF769F9EF
:10543000DDE90223C8F8040058465146FBF737F867
:1054400032463B46FBF733F822462B46FBF735F84E
:10545000FBF757F9C8F8000051EC180BFBF71FF9E0
:105460004AF2BC71C2F20001086008B0BDEC048BC6
:1054700001B0BDE8F08F0000FEE7000000284ED02C
:10548000017890ED0F1A90ED102A80ED070A30EEAA
:10549000C00A0029C0ED060A80ED0F0A80ED101A3F
:1054A00080ED112A3ED0012940F0868090ED015A0E
:1054B00090ED026A30EE414A31EE011A90ED037A26
:1054C00024EE054A20EE065A30EE410A32EE000A7A
:1054D000D0E90C2180ED0C0A20EE070A34EE051A03
:1054E00090ED082A90ED043A80ED0B0A31EE000AA7
:1054F00032EE000AB4EE430AF1EE10FA80ED094AEA
:1055000080ED0A5AC0E90D2180ED080AC2BF80ED86
:10551000083AB0EE430A7047B1EE431A41E09FEDFE
:10552000280A704790ED024A90ED0A6A90ED012A30
:1055300090ED053A24EE004A90ED035A34EE064A07
:1055400020EE022AD0E90C2130EE410AB4EE434AA3
:1055500080ED0C0A20EE050AF1EE10FA80ED092A22
:1055600080ED0A4AC0E90D2180ED0B0A06DCB1EEA0
:10557000433AB4EE434AF1EE10FA03DAB0EE434A8E
:1055800080ED0A3A32EE042A90ED041A30EE020A57
:10559000B4EE410AF1EE10FA80ED080A07DCB1EE34
:1055A000411AB4EE410AF1EE10FAA8BF7047B0EE0E
:1055B000410A80ED081A704790ED080A704700BF55
:1055C0000000000088B182B180B5017011684160AF
:1055D00051688160916880ED040AC160C0ED050AE0
:1055E00020302821FAF777FE80BD704700000000C8
:1055F000EFF30980BFF36F8F154B1A681EF0100F81
:1056000008BF20ED108A20E9F04F10602DE9090055
:105610004FF0500080F31188BFF34F8FBFF36F8FAF
:1056200003F0F2F94FF0000080F31188BDE80900A3
:1056300019680868B0E8F04F1EF0100F08BFB0EC12
:10564000108A80F30988BFF36F8F704700BF00BFD7
:10565000B01000202DE9F04782B040F29054C2F221
:1056600000048046207800218DF80710A0B940F290
:105670001001C2F200010420102201F03EFBC820FC
:10568000FDF760FC40F21011C2F2000104200E226E
:1056900001F033FB012020700DF10701042001F01F
:1056A0000AFB002468B340F238270DF107054FF0DC
:1056B000010940F2C11AC2F2000700BF9DF80700BD
:1056C000A0F12B01082916D809FA01F111EA0A0FF5
:1056D00011D07E6839784A1C3A707054387807289F
:1056E00009D33A7840463146FAF7DCFD397830463E
:1056F000FAF7F1FD01240420294601F0DCFA002824
:10570000DCD1E0B202B0BDE8F0870000000000008C
:105710002DE9F04F81B02DED068B984693468946D2
:105720000029074640D4A9EB070090FBFBFA002FA5
:1057300078D4BBF1010FC0F2AC804046FAF79EFF6F
:1057400041EC180B9FED609B40F25C760125C2F2A4
:105750000006B7EE00AA00BF05FB0A742046FAF760
:105760008DFF41EC110BB0EE490AB0EE492AB0EEC4
:10577000483AF0EE690AF0EE692AF0EE683AFFF76F
:10578000DAFD002C00F0858096ED000A30EE0A0A62
:1057900096ED001AB4EE401AF1EE10FAF8DB5D4512
:1057A00005F10105D8D174E0BBF1010F71DBA9EB64
:1057B000070090FBFBFA4046FAF760FF41EC180B3C
:1057C0009FED419B40F25C760125C2F20006BFEEE0
:1057D00000AA00BF05FB0A742046FAF74FFF41EC10
:1057E000110BB0EE490AB0EE492AB0EE483AF0EE9D
:1057F000690AF0EE692AF0EE683AFFF79CFD002C8A
:1058000047D096ED000A30EE0A0A00BF96ED001A66
:10581000B4EE401AF1EE10FAF8DC5D4505F1010531
:10582000D8D136E0BBF1010F33DB4046FAF726FF53
:1058300041EC180B9FED249B40F25C760125C2F2EF
:105840000006BFEE00AA00BF05FB0A742046FAF767
:1058500015FF41EC110BB0EE490AB0EE492AB0EE4B
:10586000483AF0EE690AF0EE692AF0EE683AFFF77E
:1058700062FD74B196ED000A30EE0A0A96ED001A48
:10588000B4EE401AF1EE10FAF8DC5D4505F10105C1
:10589000DAD14846FAF7F2FE41EC180B4046FAF727
:1058A000EDFE9FED090BB0EE481AB0EE402A41EC38
:1058B000130BF0EE681AF0EE602ABDEC068B01B017
:1058C000BDE8F04FFFF737BD00000000000000000A
:1058D0002DE9F04F81B02DED068B98469346894611
:1058E000002907464FD4A9EB070090FBFBFA002FD5
:1058F00000F186804046FAF7C1FE41EC180BBBF17F
:10590000010F2EDB9FED689B40F258760125C2F215
:105910000006B7EE00AA00BF05FB0A742046FAF79E
:10592000ADFE41EC100BB0EE491AB0EE492AB0EED4
:10593000483AF0EE691AF0EE692AF0EE683AFFF79D
:10594000FAFC74B196ED000A30EE0A0A96ED001AE0
:10595000B4EE401AF1EE10FAF8DB5D4505F10105F1
:10596000DAD14846FAF78AFE9FED4F1B41EC100B47
:10597000B0EE412AB0EE483AF0EE612AF0EE683A15
:10598000FFF7D9FC73E0BBF1010F70DBA9EB070057
:1059900090FBFBFA4046FAF771FE41EC180B9FEDC5
:1059A000429B40F258760125C2F20006BFEE00AAE3
:1059B00005FB0A742046FAF761FE41EC100BB0EECD
:1059C000491AB0EE492AB0EE483AF0EE691AF0EE04
:1059D000692AF0EE683AFFF7AEFC002C47D096ED4E
:1059E000000A30EE0A0A00BF96ED001AB4EE401A23
:1059F000F1EE10FAF8DC5D4505F10105D8D136E08D
:105A0000BBF1010F33DB4046FAF738FE41EC180BCF
:105A10009FED259B40F258760125C2F20006BFEEAD
:105A200000AA00BF05FB0A742046FAF727FE41ECE6
:105A3000100BB0EE491AB0EE492AB0EE483AF0EE3B
:105A4000691AF0EE692AF0EE683AFFF774FC74B157
:105A500096ED000A30EE0A0A96ED001AB4EE401AEE
:105A6000F1EE10FAF8DC5D4505F10105DAD14846A2
:105A7000FAF704FE41EC180B4046FAF7FFFD9FEDE4
:105A80000A1BB0EE480AB0EE412A41EC130BF0EECF
:105A9000680AF0EE612ABDEC068B01B0BDE8F04F5C
:105AA000FFF749BC00BF00BF00000000000000007D
:105AB00010B540F2EC54C2F2000402460EA120469A
:105AC00004F0B0FA2046FAF711FC82B20320214616
:105AD000B2F5006F28BF4FF4006201F00EF91420F8
