:020000040800F2
:1000000088AD0020A1010008DD5A0008195200083F
:10001000995900080929000821670008000000001C
:10002000000000000000000000000000315E000839
:10003000512A000800000000515C0008C5010008BA
:10004000BB010008BB010008BB010008BB010008A0
:10005000BB010008BB010008BB010008BB01000890
:10006000BB010008BB010008BB010008D92900083A
:10007000E5290008F1290008FD290008092A0008DF
:10008000152A0008212A0008BB010008BB0100084E
:100090000B290008BB010008BB010008BB010008D8
:1000A000BB010008BB010008BB010008BB01000840
:1000B000BB010008BB010008BB010008BB01000830
:1000C000BB010008BB010008BB010008BB01000820
:1000D000BB010008EF660008FB6600080767000820
:1000E000BB010008BB010008BB010008BB01000800
:1000F000BB010008BB010008BB0100082D2A000855
:10010000BB010008BB010008BB010008BB010008DF
:100110008762000893620008BB010008D15F0008F5
:10012000BB010008BB010008392A0008BB01000818
:10013000BB010008BB010008BB010008BB010008AF
:1001400065290008BB010008BB010008BB010008CD
:10015000BB010008BB010008452A0008136700081E
:10016000BB010008BB010008BB010008BB0100087F
:10017000BB010008BB010008BB0100080000000033
:10018000BB010008BB010008DFF810D000F03EFC06
:1001900000F0D8F800480047E172000888AD002060
:1001A0000648804706480047FEE7FEE7FEE7FEE711
:1001B000FEE7FEE7FEE7FEE7FEE7FEE7BF5F0008BB
:1001C0008901000830B410B50348804730BCAE4602
:1001D00030BC0248004770473D760008F95E0008D1
:1001E0002DE9F05F0546002092469B46884606466C
:1001F000814640241BE0284641464746224600F0FF
:10020000E7FA53465A46C01A914110D31146184690
:10021000224600F0CEFA2D1A67EB01084F4622461F
:100220000120002100F0C5FA17EB00094E41201E05
:10023000A4F10104DFDC484631462A464346BDE8C6
:10024000F09F2DE9F0410024061B254671F10006C0
:1002500005DA01240027D0EB070067EB0101161E29
:1002600073F1000605DA0027D2EB0702012567EBE0
:100270000303FFF7B5FF86460E4617469C46AC4281
:1002800004D00025D0EB050E65EB010624B100205B
:10029000D2EB000760EB030C704631463A466346EA
:1002A000BDE8F08140EA01039B0703D009E008C9DB
:1002B000121F08C0042AFAD203E011F8013B00F82B
:1002C000013B521EF9D27047D2B201E000F8012B77
:1002D000491EFBD270470022F6E710B513460A46C6
:1002E00004461946FFF7F0FF204610BD421C10F8E7
:1002F000011B0029FBD1801A7047034611F8012B1E
:1003000000F8012B002AF9D11846704730B5054690
:100310000020034600E05B1C934205D2EC5CC85C05
:10032000201A01D1002CF6D130BD70B5064609F077
:10033000D7FF046805460A220021304600F06AFA19
:100340002C6070BD7CB507480090074801900546B9
:10035000009C04E02046016808448047241DAC420C
:10036000F8D17CBD58B700085CB700082DE9FE4FF6
:10037000804681EA0300C00F0C46009021F0004146
:1003800023F00045B8EB0200A94105D240462146C2
:1003900090461C460B46024623F00040104347D0CF
:1003A000270DC7F30A00C3F30A510290401A0190C7
:1003B00040286BDAC3F3130040F4801B0098924688
:1003C00020B10023D2EB030A63EB0B0B01985946D3
:1003D000C0F14002504600F0ECF906460D4650468A
:1003E0005946019A00F004FA10EB0800614100241C
:1003F00087EA115284EAE7731A4340D0009A62B345
:10040000019A012A4FEA075215DC001B61EB020139
:100410004FF0004202EA0752CDE90042001C41F5CC
:10042000801132462B4600F073FA03B0BDE8F08F1E
:1004300040462146F9E7001B61EB0201001C41F533
:10044000801300185B412018A2F5001747EB030149
:1004500040EAD570B6196D4111E06D084FEA3606D5
:1004600045EAC0754FEA0752001B61EB0201001C10
:1004700041F5801149084FEA3000001951413246D8
:100480002B4603B0BDE8F04F00F033BA00980122CC
:1004900040000023D0EB020263EBE073009821469A
:1004A0004FEAE074B8EB000061EB0401E9E783F088
:1004B00000435BE781F0004158E72DE9FE4F81EAF8
:1004C000030404F0004421F0004100944FF0000BBD
:1004D00023F0004350EA01045ED052EA03045BD0EB
:1004E000C3F30A54C1F30A552C44A4F2F334019423
:1004F000A0FB0254C1F3130141F48011C3F31303B1
:1005000043F4801301FB024400FB034E840A970A64
:1005100044EA815447EA8357A4FB076802958D0A91
:1005200005FB07854FEA932C04FB0C542705029D1D
:100530004FEA065847EA1637B5EB08056EEB070C8D
:10054000870E920E47EA811742EA8312A7FB020147
:10055000B6EB0B0164EB00042B0D43EA0C335E1881
:1005600044EB1C50DA465146E7FB0201C5F3130485
:100570004FEA0B3343EA14534FEA0432019C43EA37
:100580000603A4F10C040294009CCDE900B400F031
:10059000BFF903B0BDE8F08F00200146F9E72DE96F
:1005A000F04D81EA030404F0004B21F000451446AD
:1005B0004FF0000A23F0004150EA050220D054EA2F
:1005C00001021DD0C5F30A570246C5F31303C1F358
:1005D0001300C1F30A5640F4801543F48013A7EBCF
:1005E0000608101BD64608F2FD3873EB050002D34F
:1005F00008F1010801E092185B41B8F1000F03DA3D
:1006000000200146BDE8F08D00204FF48011064621
:1006100084460EE0171B73EB050705D3121B63EB33
:10062000050306434CEA010C49084FEA30009218D2
:100630005B4150EA0107EDD152EA030012D082EA91
:10064000040083EA0501084305D0101BAB4106D224
:100650000122002306E000224FF0004302E06FF089
:10066000010253101AEB06004CEB085110EB0A0084
:1006700041EB0B01BDE8F04D00F03BB90EB5C10FE9
:1006800080EAE0700844CA07002140F233438DE855
:100690000E000A460B4600F03BF903B000BD0EB554
:1006A00040F2334102910021CDE900110A460B4688
:1006B00000F02EF903B000BD70B5C1F30A5201F08D
:1006C00000450024C1F3130140F2FF3341F48011CF
:1006D0009A4201DA002070BD40F233439A42A2F2FE
:1006E000334203DC524200F073F800E090402C43A8
:1006F000F1D0404270BDC1F30A5210B5C1F31301ED
:1007000040F2FF3341F480119A4201DA002010BD1B
:1007100040F233439A42A2F2334203DC524200F0E9
:1007200057F810BD904010BD00F0004230F000407E
:100730000AD0C10D01F56071C0F3160042EA015103
:10074000C20840071143704700200146704701F07E
:10075000004330B421F0004150EA010206D00A0DF6
:10076000A2F56072C1F31301002A02DC30BC002044
:100770007047440F44EAC104C100E01830BC00EBEC
:10078000C25000F07FB830B50B4601460020202251
:10079000012409E021FA02F59D4205D303FA02F58E
:1007A000491B04FA02F52844151EA2F10102F1DCEE
:1007B00030BD202A04DB203A00FA02F10020704705
:1007C0009140C2F1200320FA03F31943904070478F
:1007D000202A04DB203A21FA02F00021704721FA96
:1007E00002F3D040C2F120029140084319467047FD
:1007F000202A06DBCB17203A41FA02F043EAE073E5
:1008000006E041FA02F3D040C2F1200291400843D1
:10081000194670472DE9F04791460F468046044639
:10082000002614F8015B2DB100F008F90068405D66
:10083000C007F6D12B2D02D02D2D18D0641E4A46AC
:100840003946204600F0FEF827B13968A14201D1AF
:10085000C7F8008071054FF002040BD54042002814
:1008600003DD09F03DFD0460A007BDE8F08746F414
:100870008066E4E70028F8DA09F032FD04606FF0E2
:100880000040F2E70029A8BF7047401C490008BF9C
:1008900020F00100704710B4B0FA80FC00FA0CF0B0
:1008A00050EA010404BF10BC704749B1CCF12004E8
:1008B00021FA04F411FA0CF118BF01212143084375
:1008C000A3EB0C01CB1D4FEA00614FEA102042BFA1
:1008D000002010BC704700EBC35010440029A4BF97
:1008E00010BC7047401C490008BF20F0010010BC3C
:1008F000704710B5141E73F1000408DA401C41F172
:10090000000192185B411A4301D120F0010010BD93
:100910002DE9F04D92469B4611B1B1FA81F202E009
:10092000B0FA80F220329046FFF743FF04460F46AC
:1009300040EA0A0041EA0B0153465A46084313D0E5
:10094000114653EA010019D0C8F140025046FFF7A2
:100950003FFF05460E46504659464246FFF729FFDF
:10096000084305D0012004E020463946BDE8F08D5B
:100970000020054346EAE0762C4337430A98630596
:10098000E40AA0EB08000022FD0A44EA47540A30BA
:1009900002D500200146E9E7010510196941DDE9AA
:1009A000084500196941BDE8F04DA2E7C1F30A52BC
:1009B000C1F3130140F2FF3341F480119A4202DA8D
:1009C00000200146704740F233439A42A2F233427C
:1009D00002DC5242FFF7FCBEFFF7EBBE30B5041E4F
:1009E00071F1000404DB4FF00044404264EB01016C
:1009F000141E73F1000405DB1C464FF00043524205
:100A000063EB0403994208BF904230BD1CB509480E
:100A10000090094801900546009C06E0E06840F01F
:100A2000010394E8070098471034AC42F6D3FFF76F
:100A3000AFFB000038B7000858B7000800487047FF
:100A400054AF00082DE9F05F824600780027154674
:100A50008B460AF10104B946302801D09DB113E05C
:100A600014F8010B0127782803D0582801D045B18C
:100A70000AE00DB1102D07D10027102514F8010B45
:100A800002E0082500E00A250026B0460EE005FB3E
:100A9000080005FB06F1012701EB10461FFA80F85C
:100AA000B6F5803F00D3B94614F8010B294600F093
:100AB00018F80028EBDABBF1000F05D00FB1641E67
:100AC00000E05446CBF80040B9F1000F06D009F021
:100AD00007FC02210160C81EBDE8F09F48EA0640FD
:100AE000FAE73A2800D2303820F02002412A01D318
:100AF000A2F13700884201D34FF0FF30704730B584
:100B00008C1810F8012B12F00F0301D110F8013BE3
:100B1000120906D110F8012B03E010F8015B01F86F
:100B2000015B5B1EF9D101E001F8013B521EFBD1D4
:100B3000A142E6D3002030BD40F64530C0F60000AB
:100B400005F0F3BF70B584B004464BF23060C0F6D8
:100B50000000214601F056FE0FF2186120460822DF
:100B6000FFF7D4FB002800F0CF800FF2146120467D
:100B70000D22FFF7CBFB002800F007810FF2106178
:100B800020460422FFF7C2FB002800F03B810FF251
:100B9000086120460522FFF7B9FB002800F0E78234
:100BA0000FF2FC5120460722FFF7B0FB002800F0AF
:100BB0003D810FF2F45120460A22FFF7A7FB0028DF
:100BC00000F048810FF2EC5120460A22FFF79EFB0D
:100BD000002800F04A810FF2E85120460A22FFF770
:100BE00095FB002800F043810FF2E05120460A22D5
:100BF000FFF78CFB002800F045810FF2DC51204606
:100C00000A22FFF783FB002800F03E810FF2D45147
:100C100020460A22FFF77AFB002800F041810FF2FC
:100C2000D05120460522FFF771FB002800F0928189
:100C30000FF2C45120460422FFF768FB002800F0A1
:100C40008B810FF2BC5120460822FFF75FFB002882
:100C500000F08E810FF2B45120460922FFF756FBB7
:100C6000002800F08E810FF2B05120460922FFF7D4
:100C70004DFB002800F090810FF2A85120460A2277
:100C8000FFF744FB002800F091814BF26461C0F64D
:100C9000000120460C22FFF739FB002800F0A2815A
:100CA0004BF25A61C0F6000120460922FFF72EFBE5
:100CB000002800F0B0814BF24E61C0F600012046E2
:100CC0000B22FFF723FB002800F0B1814BF23561C6
:100CD000C0F6000120460B22FFF718FB002800F0A9
:100CE000B2814BF24161C0F6000120460C22FFF7B1
:100CF0000DFB002800F0B4814BF21F60C0F600002D
:100D0000214601F07FFDC9E04BF2F040C0F6000043
:100D100001F078FD4BF2D650C0F6000001F072FDF4
:100D200040F2C024C2F20004204607F035FD4BF229
:100D30003065C0F600052846214601F063FD2046D7
:100D40004FF40071FFF7C7FA4BF27250C0F6000083
:100D500001F058FD204607F0B1FC2846214601F07D
:100D600051FD20464FF40071FFF7B5FA40F2C04440
:100D7000C2F2000440F2F4402578C2F2000000689C
:100D8000802185B308F046F82FE040F2EC70C2F203
:100D900000000068FFF7C8FC02464BF2C350C0F6E3
:100DA00000000B4601F02EFD40F2E470C2F200009C
:100DB0000068FFF7B9FC02464BF2AF50C0F60000E6
:100DC0000B4601F01FFD40F2E070C2F20000006827
:100DD000FFF7AAFC02464BF29950C0F600000B4602
:100DE00001F010FD04E008F06FF885F001002070BC
:100DF0000E214BF22450C0F6000004B0BDE8704054
:100E000001F000BD40F2A070C2F20000006807F0DF
:100E100091FE40F600000026C2F2000000210022F0
:100E20000023009607F078F90121E2E7E01DFFF7C3
:100E30007CFA40F22462C2F2000240F2E041126801
:100E4000C2F20001087010460022022308F0B6FA30
:100E50000521CEE704F10A00FFF767FA40F2080126
:100E6000C2F200010968087018E0042519E004F1D5
:100E70000A00FFF75AFA40F20801C2F200010968BD
:100E800008720BE00C250CE004F10A00FFF74DFAA4
:100E900040F20801C2F20001096808740021A8E7C5
:100EA000142504F10A00FFF740FA40F2080440F26A
:100EB0002061C2F20004C2F20001226809685051A8
:100EC000084621460022022308F078FA4BF224500B
:100ED000C0F60000042101F095FC4BF2D245C0F6AB
:100EE0000005284601F08EFC206801784BF2465040
:100EF000C0F6000001F086FC206841684BF25150BA
:100F0000C0F6000001F07EFC2068017A4BF25C50D4
:100F1000C0F6000001F076FC2068C1684BF2675013
:100F2000C0F6000001F06EFC2068017C4BF23050EE
:100F3000C0F6000001F066FC206841694BF23B50AE
:100F4000C0F6000001F05EFC284604B0BDE8704029
:100F500001F058BC02214CE740F29470C2F200004C
:100F6000006800210222002308F0F6FD0B2140E773
:100F700004F10800FFF7D9F940F2C241C2F20001C2
:100F800007E004F10900FFF7D0F940F2C141C2F2D5
:100F9000000108700C212CE704F10900FFF7C5F9E6
:100FA00040F2C441C2F200010860F3E740F2C240DF
:100FB00040F2C14140F2C442C2F20000C2F200015C
:100FC000C2F2000200780978166800220123CDE9F8
:100FD00001324FF47A720023009600F0EDFF01F029
:100FE00005F8D7E740F2C24040F2C14140F2C442A6
:100FF000C2F20000C2F20001C2F2000200780978D9
:10100000166800220123CDE9013232220023009626
:1010100000F0D2FFBEE704F10900FFF786F940F6C1
:101020001041C2F20001096880B2486316E004F181
:101030000B00FFF77AF940F61041C2F2000109688F
:1010400080B2C8630AE004F10B00FFF76EF940F6C6
:101050001041C2F20001096880B288630D21C8E620
:1010600004F10C00FFF761F94FF0FF3151FA80F005
:10107000072800F27A80DFE800F0041A090D062143
:101080002810012014E00220012119E00120022192
:10109000032209E00220032112E041F2883007F028
:1010A00099FA03200221012200F030F95DE00220CC
:1010B00001210222032300F0F5F956E0022002216B
:1010C0000022012300F0CFFA4FE041F2883007F010
:1010D00081FA012542F604100024CDE9000507201D
:1010E00000214FF448720023029400F065FF00F0E5
:1010F0007DFF5A2001F0EEFA4FF49676072000218A
:101100004FF448720023CDE90065029400F054FFCB
:1011100000F06CFF522001F0EDFA4FF4C87007F0B8
:1011200059FA40F6B830CDE90005072000214FF408
:1011300048720023029400F03FFF00F057FF532055
:1011400001F0C8FA072000214FF448720023CDE9CE
:101150000065029400F030FF00F048FF462001F0E7
:10116000C9FA4FF4C87007F035FA102141E605F0CE
:1011700035FC00BF53686F775461736B000000004B
:1011800053686F77506172616D657465720000001D
:1011900053746F70000000005265736574000000A6
:1011A0005374617475733D005768616C654469726E
:1011B000583D00005768616C65506F73583D0000E2
:1011C0005768616C65446972593D00005768616CED
:1011D00065506F73593D00005768616C65446972D2
:1011E000523D00005768616C65506F73523D0000BE
:1011F00053746172740000004E6578740000000042
:101200004D5F5A445469643D000000004D5F5A44EC
:10121000546469723D0000004D5F5A4454706F730E
:101220003D0000004D5F5A445473746172740000B5
:1012300080B501F015FB20B102A0BDE8804001F0AF
:10124000E1BA80BD524543454956450D0A000000AC
:1012500040F2E870C2F20000704741F26920C0F627
:10126000000005F0A2BC000080B5808841F2CC618E
:10127000C2F200010880B1F90000FFF7FFF99FED0D
:101280000C0B53EC102BFFF718F99FED0B0B53ECE5
:10129000102BFFF712F9FFF75AFA40F2E871C2F289
:1012A0000001086040F2EC71C2F20001086080BDEC
:1012B000000000000000003F0000000000806640C9
:1012C00080B503F03DFF002818BF012080BD40F22B
:1012D000EC4CC2F2000C0CEB800041708270C370C9
:1012E000704740F2EC40C2F2000070470538C0B2CF
:1012F00002288EBF002002A151F82000704700BFD5
:101300001000002020000020300000202DE9F04FC8
:1013100085B0034640F2EC40C2F20000C45C455C7C
:10132000865C4BF22370C0F6000019461A468DF811
:1013300011408DF812508DF8136001F063FA4BF2F2
:101340001070C0F6000021462A46334601F05AFAD2
:1013500040F2100940F2200840F2300B00260DF157
:10136000110AC2F200090124C2F20008C2F2000B05
:10137000002700BF462001F0BDF91AF807500121EF
:1013800059F82500C822CDE9000405200023029663
:1013900000F012FE58F825000021CDE900040620D7
:1013A000C8220023029600F007FE4FF4C870002FF9
:1013B00008BF4FF4FA7007F00DF9DBF810000021B8
:1013C000CDE9000407204FF448720023029600F094
:1013D000F3FD00F00BFE5A2001F07CF9DBF8080069
:1013E0000021CDE9000407204FF448720023029643
:1013F00000F0E2FD00F0FAFD522001F07BF94FF41D
:10140000C87007F0E7F8DBF80C000021CDE9000414
:1014100007204FF448720023029600F0CDFD00F043
:10142000E5FD532001F056F9022F0FD0DBF808003C
:101430000021CDE9000407204FF4487200230296F2
:1014400000F0BAFD00F0D2FD013793E7DBF80400AD
:1014500001250024CDE90005072000214FF4487242
:101460000023029400F0A8FD00F0C0FD462001F02A
:1014700041F9D9F808000121CDE900050520C8226D
:101480000023029400F098FDD8F808000021CDE96F
:1014900000050620C8220023029400F08DFD05B04F
:1014A000BDE8F08F2DE9F04F85B0044640F2EC40E6
:1014B000C2F2000000EB840010F801B010F80280C6
:1014C000C75C4BF22370C0F600000A460B460E467E
:1014D0008DF811B08DF812808DF8137001F092F92B
:1014E0004BF21070C0F60000594642463B4601F0F0
:1014F00089F9304601F0F6F840F2300500260DF18A
:1015000011090127C2F200054FF00008522001F036
:10151000F1F819F808A040F21000C2F2000050F8EB
:101520002A000121CDE900070520C82200230296E8
:1015300000F042FD40F22000C2F2000050F82A0004
:101540000021CDE900070620C8220023029600F002
:1015500033FD642007F03EF8E8680021CDE900077C
:1015600007204FF448720023029600F025FD00F09A
:101570003DFD5A2001F0AEF8A8680021CDE9000732
:1015800007204FF448720023029600F015FD00F08A
:101590002DFD462001F0AEF8642007F01BF85846F8
:1015A000B8F1020F1CBF09EB0800407801F09AF86F
:1015B000012C15D0022C27D168690021CDE9000744
:1015C00007204FF448720023029600F0F5FC00F06B
:1015D0000DFD532001F07EF8B8F1020F1AD129E079
:1015E00028690021CDE9000707204FF44872002345
:1015F000029600F0E1FC00F0F9FC532001F06AF8DB
:10160000B8F1020F06D117E0532001F063F8B8F1EA
:10161000020F25D0A8680021CDE9000707204FF46C
:1016200048720023029600F0C7FC00F0DFFC08F1CE
:1016300001086BE7281D01E005F114000068012195
:101640000027CDE90001072000214FF44872002354
:10165000029700F0B1FC05B0BDE8F04F00F0C6BC49
:1016600005B0BDE8F08FF0B583B041F2DC65C2F2A1
:101670000005287041F2DD6440F27820C2F20004D7
:10168000C2F20000012B2170827003702ED140F253
:10169000E846C2F2000640F208603268C2F200007A
:1016A0000068515C012750F821000025CDE90007B2
:1016B00005200121C8220023029500F07DFC40F2A4
:1016C0000C6031682278C2F200000068895CC82290
:1016D00050F821000021CDE90007062000230295E3
:1016E00000F06AFC4FF4FA6006F074FF40F2F44038
:1016F000C2F200000068022103B0BDE8F04007F02C
:10170000E3BB40F27820C2F20000704780B541F29E
:101710005170C0F6000005F04FFA0520FFF7E6FD16
:1017200040F20861C2F2000108600620FFF7DEFD0A
:1017300040F20C61C2F200010860FFF7D2FD40F2F6
:10174000E841C2F20001086080BD00000000000016
:101750002DE9F04F81B02DED028B84B0B0F801106F
:1017600040F27827C2F20007B9803A78B0F8034017
:10177000012AFC8025D0002A40F04181027841F204
:10178000DC60C2F200000078012A08BF012800F0E6
:10179000A780102A08BF022840F0318142F612408B
:1017A000C2F20000018042F61440C2F200000A04B6
:1017B000048018BF5FEA044040F03981002078704F
:1017C000EEE1080418BF5FEA044000F01681A0B201
:1017D000C0F1F00000EE100AF88A89B2081A01EE92
:1017E000100AB8EEC00AF8EEC10A08F07DFD9FEDC0
:1017F000EF1A20EE010A10EE100AFEF795FF9FED9A
:10180000EC0B53EC102BFEF7CAFE9FEDEB0B53ECE9
:10181000102BFEF7ABFDFEF79AFFF9880446C1F1E5
:10182000F00000EE100AB888F98AB8EEC00A401A33
:1018300001EE100AB8EEC11A21EE011A20EE000ADC
:1018400030EE010AB1EEC00A388B01EE104AC0F149
:10185000F00002EE100AB8EEC22A30EE428ABDEE67
:10186000C10A10EE100A02B280EAE233A3EBE232C0
:10187000BDEEC80A92B241F2DD6940F20C6A40F254
:10188000086810EE101A052AC2F20009C2F2000A16
:10189000C2F20008B88139813ED80AB281EAE23347
:1018A000A3EBE23292B2052A36D899F800100FF273
:1018B000D03000F0A7FF40F29470C2F20000006840
:1018C000002102220023002508F046F940F2F440EE
:1018D000C2F200000068022107F09CFAFD7061E08E
:1018E000B878012800F09180002840F0888042F606
:1018F000124942F6144BC2F20009C2F2000B08046E
:10190000A9F80010ABF8004018BF5FEA044040F0AF
:10191000AD8000207870A2E1DAF8002099F800305C
:10192000002552F823603144D8F8006042F82310B3
:1019300056F82310084446F8230052F8230041F6D5
:101940004C518842B8BF014621EAE17042F82300B9
:1019500056F8230041F288318842B8BF014621EA97
:10196000E17046F8230052F823000126CDE9000675
:10197000062000211E220023029500F01DFBD8F84E
:10198000000099F800101E2250F821000121CDE935
:10199000000605200023029500F00EFB4FF4FA70BC
:1019A00006F018FE18EE100AFEF7BEFE05462046A9
:1019B0000E46FEF7B9FE41EC100B4BF28F60C0F6FD
:1019C00000002A4633468DED000B00F01BFFB7F9EF
:1019D0000810B7F90C20B2A000F014FF99F800101D
:1019E000DAF80000D8F8003050F8212053F82160D0
:1019F000B5A00B46009600F005FF0020787004B0FB
:101A0000BDEC028B01B0BDE8F08F42F61240C2F28D
:101A10000000018042F61440C2F200000A04048073
:101A200018BF5FEA04404AD10020787070E0F88A5D
:101A3000091A0AB2398181EAE231388BA1EBE2322C
:101A4000B97E92B2201A8A42788166D802B280EAC0
:101A5000E230A0EBE23080B288425ED8F878F97EBE
:101A6000884280F089800130F87099E042F6164291
:101A7000C2F20002B7F80E80B7F810A0B2F800C0AA
:101A80001FFA81FEA1EB0806A4EB0A03BEEB0C00D3
:101A90003E817B8148BF4042042843D842F618402B
:101AA000C2F200000088A5B2281A48BF40420428AC
:101AB00038D8FD78387D854237D2013534E0F88951
:101AC000091A0AB2398181EAE231388AA1EBE2329D
:101AD000F97C92B2201A8A42788119D802B280EA3F
:101AE000E230A0EBE23080B2884211D840F294702C
:101AF000C2F20000006800210222002308F02CF846
:101B000040F2F440C2F200000068022107F082F9BE
:101B10004BF27160C0F60000A5E00020F87004F000
:101B20009BF93DE0387D0025FD708542C0F0918035
:101B300030B286EAE031A1EBE031B87C89B2814273
:101B40003ED819B283EAE133A3EBE13189B2814295
:101B500036D840F29470C2F20000006800210222E0
:101B6000002307F0F9FF40F2F440C2F200000068E1
:101B7000022107F04FF962E040F29470C2F20000D7
:101B80000068002102220023002407F0E5FF40F254
:101B9000F440C2F200000068022107F03BF9FC703B
:101BA0004BF2CC60C0F600005DE000BF00003443A3
:101BB000182D4454FB21094000000000008056C04D
:101BC0000CEB0E00FEF75AFD9FED2B0B55EC109B16
:101BD0004A462B46FEF771FC064640468B46FEF70A
:101BE0005EFD02460B463046594642F6144BC2F2A1
:101BF000000BFEF75CFCFEF75FFD42F61841C2F2F7
:101C000000010988388111FA84F0FEF737FD4A4651
:101C100042F612492B46C2F20009FEF74EFC054679
:101C200050460E46FEF73BFD02460B46284631461F
:101C3000FEF73DFCFEF740FD788104F00DF9B9F8A0
:101C40000010BBF8004042F616420020C2F200022B
:101C5000F87042F61840C2F20000118004804BF286
:101C6000AF60C0F6000004B0BDEC028B01B0BDE86F
:101C7000F04F00F0C7BD00BF000000000000E03FD3
:101C80002A2A2A2A2A2A2A2A202564202A2A2A2A93
:101C90002A2A2A2A2A2043616C4F6B0D0A00000071
:101CA00064436F6F72645F583D25356420202020A7
:101CB00020202020202064436F6F72645F523D25F6
:101CC00035640D0A000000004D4F544F525F585FBD
:101CD000506F735B25645D3D2535642020204D4F9A
:101CE000544F525F525F506F735B25645D3D2535E5
:101CF000640D0A0010B540F27824C2F20004627844
:101D00001AB903F005FB01206070BDE8104003F034
:101D100085BA80B582B040F600004FF0000CC2F2E8
:101D20000000002100220023CDF800C006F0F4F9E5
:101D300002B080BD00000000B0B50C4640F2C8758E
:101D4000411EC2F20005002207292A6019D80FF2AD
:101D50000600DFE801F004311A431A1A1A1B4AF68A
:101D60008410C2F200000068FEF788FC41EC130BFF
:101D700042F2107084422CBF9FED450B9FED420B49
:101D800040E010285FD020285DD0B0BD4AF6841016
:101D9000C2F200000068FEF771FC41EC130B42F246
:101DA00010709FED350B8442C4F1000434BF9FEDE9
:101DB000301B9FED331B33E04AF68410C2F2000063
:101DC0000068FEF75BFC41EC130B42F2107084429A
:101DD000C4F1000414D39FED2A0B13E04AF68410DB
:101DE000C2F200000068FEF749FC41EC130B42F21E
:101DF00010709FED210B844210D39FED251B0FE047
:101E00009FED1B0B9FED1C1BB0EE412AF0EE612AEB
:101E100003F0C3FD204605F07FF80AE09FED1A1B92
:101E2000B0EE402AF0EE602A03F0B7FD204605F040
:101E300095F8012818BFB0BD012028604AF684102B
:101E4000C2F2000004682046FEF718FC9FED0A0B62
:101E500041EC130BB0EE401AB0EE402AF0EE601ADF
:101E6000F0EE602ABDE8B04003F097BD00BF00BFB0
:101E700000000000000039C0000000000000000069
:101E800000000000000069C00000000000003940B0
:101E9000000000000000694080B50138052888BFB7
:101EA00080BDDFE800F0035215320C56022040F6E8
:101EB0009801FFF741FF042041F2A86156E0082095
:101EC00042F2C421FFF738FF02204FF4616124E0A1
:101ED000082041F29411FFF72FFF9FED270B40F2EE
:101EE000C8709FED293BB0EE401AB0EE402AC2F216
:101EF00000000021F0EE601AF0EE602A016003F0AD
:101F00004CFD012044F2740130E0082041F6A47138
:101F1000FFF712FF02204FF4FA51FFF70DFF9FED7C
:101F2000160B40F2C870C2F2000000219FED143B76
:101F3000B0EE401AB0EE402AF0EE601AF0EE602AE1
:101F40000160BDE8804003F028BD042042F260211A
:101F50000CE0022044F26821FFF7EEFE082042F276
:101F60004861FFF7E9FE022040F2DC51BDE8804005
:101F7000FFF7E2BE00BF00BF00000000000000004D
:101F80000000000000805640000000000080664015
:101F900080B50520002100F0A7FD0620002100F0FB
:101FA000A3FD0720002100F09FFD05200021002255
:101FB000BDE8804000F04DBD2DE9F04784B00CAE87
:101FC00070CE984691468A46074604F051FF38463F
:101FD00051464A464346CDE90045029600F053FD7E
:101FE0000A2004B0BDE8F04706F0F4BA04F04CBF94
:101FF00080B582B040F22460C2F200000021006887
:102000008DF807100DF10701002207F02FFB0128C2
:1020100009D19DF8071042F61140C2F2000001708C
:1020200002A000F0EFFB02B080BD00BF735F7563DC
:10203000537461747573203A2025640D0A00000002
:10204000F0B58BB003A82021FEF745F940F201302E
:10205000ADF8080040F2012042F61146C0F203201C
:10206000C2F200060190307800212928009100F288
:102070003182DFE810F02B01E0006E011301C8008F
:10208000F80086012F022F022F0298012F022F0243
:102090002F022F022F022F022F022F022F02E40104
:1020A0002A002A002A002F022F022F022F022F02BD
:1020B0002F0282006D0032012F022F022F022F0209
:1020C0002F022F022F024701090240F2E141C2F222
:1020D00000010978002918BF03301538C4B24BF24B
:1020E0001830C0F60000214600F08CFB01A8015D0D
:1020F000012001220023FFF7B6FA6D4600204FF0C1
:10210000FF312A464FF0FF3307F072FE4BF2944046
:10211000C0F60000214600F075FB00204FF0FF31B3
:102120002A464FF0FF3307F063FE3078032117286B
:1021300038BF411CC8B20328317040F0CB8140F257
:10214000F440C2F200000068022106F063FEC1E123
:102150004BF27F30C0F6000000F054FB6A460020CE
:102160004FF0FF314FF0FF3307F042FE2020307078
:102170004BF29E30C0F60000AAE14BF2F530C0F6FB
:10218000000000F03FFB0220022100220023002576
:10219000FFF769FA6C4600204FF0FF3122464FF0FE
:1021A000FF3307F025FE0220032100220123FFF761
:1021B0005AFA00204FF0FF3122464FF0FF3307F06C
:1021C00017FE0220012100220123FFF74CFA002014
:1021D0004FF0FF3122464FF0FF3307F009FE022097
:1021E000022100220123FFF73EFA00204FF0FF31C9
:1021F00022464FF0FF3307F0FBFD4BF212403570E3
:10220000C0F6000064E14BF2EE10C0F6000000F0F2
:10221000F9FA0420FFF740FE6A4600204FF0FF3134
:102220004FF0FF3307F0E4FD282030704BF215200B
:10223000C0F600004CE14BF26140C0F6000000F037
:10224000E1FA0120FFF728FE6A4600204FF0FF3137
:102250004FF0FF3307F0CCFD0A2030704BF27B408B
:10226000C0F6000034E14BF28220C0F6000000F01E
:10227000C9FA0520FFF710FE6A4600204FF0FF3133
:102280004FF0FF3307F0B4FD40F2E140C2F200002E
:102290000121017014203070A1A019E14BF23B2004
:1022A000C0F6000000F0AEFA0320FFF7F5FD6A4625
:1022B00000204FF0FF314FF0FF3307F099FD1E2053
:1022C00030704BF25F20C0F6000001E14FF4FA706D
:1022D0000BB0BDE8F04006F07DB94BF2DD20C0F652
:1022E000000000F08FFA6A4600204FF0FF314FF0F7
:1022F000FF3307F07DFD042030704BF2FB20C0F669
:102300000000E5E04BF2BC30C0F6000000F07AFAC5
:1023100040F2F444C2F200042068022106F0D4FD29
:102320000220022100220023FFF79DF96A460020C7
:102330004FF0FF314FF0FF3307F05AFD20680221C4
:1023400006F068FD292030704BF2D930C0F600004D
:10235000BEE04BF2A620C0F6000000F053FA0220C7
:10236000FFF79AFD6A4600204FF0FF314FF0FF3330
:1023700007F03EFD142030704BF2C220C0F6000082
:10238000A6E055A000F03EFA0620FFF785FD6A465C
:1023900000204FF0FF314FF0FF33002407F028FDFD
:1023A00056A0347094E040F2E245C2F2000528786D
:1023B00038B94BF23530C0F6000000F023FA0120A6
:1023C000287003AC204603F075FC002800F08280E2
:1023D0004BF2B740C0F60000214607F02FFF002067
:1023E00001A90022D3B2E35C2B2B08BF0132D3B288
:1023F000E35C0132303B0B5401300628F2D103A8D4
:1024000003F0B4FC40F29470C2F2000000680021B6
:10241000022200230224002707F09EFB6A460020C8
:102420004FF0FF314FF0FF3307F0E2FC4BF24B303F
:10243000C0F60000347000F0E5F92F704AE04BF26E
:102440002E40C0F6000000F0DDF940F2E140C2F29B
:10245000000000780221002818BF052101A8415C76
:10246000012000220023FFF7FEF86A4600204FF00B
:10247000FF314FF0FF3307F0BBFC152030704BF2FB
:102480004840C0F6000023E04BF26030C0F6000088
:1024900000F0B8F940F2E144C2F20004207801AB48
:1024A00060F3000360F3410319785A789B78FEF7D4
:1024B000F9FF6A4600204FF0FF314FF0FF3307F07D
:1024C00097FC20780521002818BF062131701DA037
:1024D00000F098F90BB0F0BD454E544552205354CE
:1024E000415455535F50726F536563417265615F2C
:1024F000325F53746172740D0A00000045584954EC
:10250000205354415455535F50726F536563417269
:1025100065615F325F53746172740D0A00000000E0
:1025200045584954205354415455535F50726F538A
:102530006563417265615F325F52617741726561C7
:102540000D0A000045584954205354415455535FD7
:1025500050726F53656341726561506C6163650DC4
:102560000A00000082B040F2F44441F2DC6641F21D
:10257000DD67C2F200044FF0FF35C2F20006C2F27E
:10258000000700BF2068022100220023009506F00A
:10259000E9FC800703D530783978FFF7ABFB64207E
:1025A00006F018F8EEE70000FFF7ABF840F2E4455C
:1025B0004BF2EE660446C2F20005C0F600060FF2CA
:1025C000E40B3BA70FF2F4080FF2FC094FF0000AEE
:1025D00040F22060C2F20000006829464FF0FF324E
:1025E00007F044F8304600F00DF9296823A000F008
:1025F00009F92868017825A000F004F928684168E5
:1026000025A000F0FFF82868017A584600F0FAF893
:102610002868C168384600F0F5F82868017C404613
:1026200000F0F0F828684169484600F0EBF83046C1
:1026300000F0E8F82868416849B10078FFF77CFBB2
:10264000286884F801A080F800A0C0F804A0C16840
:1026500049B1007AFFF770FB286884F801A080F880
:1026600008A0C0F80CA04169007CFFF765FB286852
:1026700080F810A0C0F814A0AAE700BF414444525B
:102680003A20253034580D0A000000004469725881
:102690003A2025640D0A0000506F73583A202564D3
:1026A0000D0A0000446972593A2025640D0A0000A1
:1026B000506F73593A2025640D0A00004469725224
:1026C0003A2025640D0A0000506F73523A202564A9
:1026D0000D0A000080B503F073FB6420BDE8804064
:1026E00005F078BF80B503F07BFB6420BDE8804037
:1026F00005F070BF03F08ABB7047000082B040F263
:10270000F444C2F200042068012106F0DDFB4FF022
:10271000FF3500BF2068012100220023009506F04C
:1027200021FCC00718BFFEF783FD0A2005F052FF09
:10273000F0E7000080B500BF012004F001FEFBE7D8
:10274000FEF7BEFD052005F045FFF9E7FFF750FC59
:10275000FFF776FC0A2005F03DFFF7E7FFF702BF21
:10276000FFF722BF40F25C24C2F20004256805F0A6
:102770002FFE1DB105F003FD02E000BF03F0D4FF02
:1027800004F098F805F046FE0A2005F023FFEDE777
:1027900084B040F2F44940F69867C2F200094FF065
:1027A000FF36C2F200070FF2400800BFD9F8000060
:1027B000802100220023009606F0D4FB00060FD5EE
:1027C000B7F94200D7E91445B7F84A10B7F84820DE
:1027D000B7F94030CDE900044046029507F02EFDE0
:1027E000322005F0F7FEE1E77B6D6F746F317D25D8
:1027F000642C25642C25642C25642C25642C2564EC
:102800000A00000083B0B0B5ADF20C4D84460DF166
:102810000B04CDF81C14CDF82024CDF824340DF28F
:102820001C43204640F201416246019307F02AFD15
:1028300040F21065C2F2000528684FF0FF3104F045
:1028400006FE06A0214607F0F9FC286804F05AFEAF
:102850000DF20C4DBDE8B04003B070472573000089
:102860002DE9F04782B000250DF1070100208DF819
:10287000075004F020FB00283FD042F6104640F2FB
:10288000602741F2D068C2F20006C2F20007C2F22D
:1028900000080DF107044FF001094FF0000A00BFD6
:1028A000307898B138783E281AD89DF807107B7A8E
:1028B00078683A78994215D18554D8F80020AAB1A1
:1028C0003978904735704FF0010A0FE09DF8070006
:1028D0007978884204BF86F800903D7006E000BF1A
:1028E000357003E0531C3B70815400BF002021462B
:1028F00004F0E1FA0028D3D101E04FF0000A5FFABA
:102900008AF002B0BDE8F087FEE740F60000C2F2B0
:10291000000000F051BA10B540F2306440F60000FB
:10292000C2F2000440F22863C2F20000C2F20003C7
:102930000021224600F0AFF92068A0F2012103290E
:1029400088BF10BD013840F69861C0B2C2F20001E4
:1029500001EB401040F22861C2F20001BDE81040D6
:1029600004F07BBB40F62800C2F2000000F024BA5D
:10297000B0B540F2546540F24C6440F62800C2F213
:102980000005C2F20004C2F2000000212A462346DC
:1029900000F081F900B1B0BD40F2CD70C2F200008C
:1029A00000786968B0EB112F0ED12078FD280BD18B
:1029B00060789F2808D1A0786B2805D140F2CC70B0
:1029C000C2F200000121017040F25460C2F2000026
:1029D0001C21FDF780FCB0BD40F61010C2F20000D3
:1029E00000F084BC40F65030C2F2000000F07EBC23
:1029F00040F65000C2F2000000F078BC40F6B03063
:102A0000C2F2000000F072BC40F6B000C2F200005A
:102A100000F06CBC40F69020C2F2000000F066BCF2
:102A200040F6F020C2F2000000F060BC40F67010EA
:102A3000C2F2000000F05ABC40F6D010C2F2000012
:102A400000F054BC40F63020C2F2000000F04EBC52
:102A5000704780B584B08DF800009A208DF8010091
:102A60006B2000238DF802108DF8040068460521C4
:102A70000393CDF80930CDF805308DF8032004F02C
:102A800063F904B080BDB0B584B0DDE9084E8DF8BF
:102A90000000FD208DF80100100A8DF80300200EC3
:102AA0008DF80600200C8DF80700200ADDF828C0FC
:102AB0008DF808006B2000258DF802108DF80C00B1
:102AC00068460D218DF80F50ADF80D508DF804209B
:102AD0008DF805308DF809408DF80AE08DF80BC0AF
:102AE00004F032F904B0B0BD80B584B08DF80000B8
:102AF00049F6FE00ADF801006B2000228DF80310AE
:102B00008DF80400684605210392CDF80920CDF820
:102B1000052004F019F904B080BD000072B600BFB2
:102B2000FEE710B590F820E0D0F800C0AEF1010E3D
:102B3000BEF1010FDCF808E011D81EF0E05F14D000
:102B4000CEF301640120A04018608B689BB1D1F8DE
:102B500004E0C86840EACE0040EA030E0FE000F14E
:102B6000240301204FF4802121E000F124030120FF
:102B70004FF400111BE00868CB6843EA405E0CF597
:102B8000C07000EB0413240140F804E00C691846FF
:102B900040F8044F097D012903D1016841F4807197
:102BA000016050680121D8601068986000201A68A0
:102BB0001143196010BD90F82020013A012A30D845
:102BC000B0B546F20060C4F20000026842F00102B3
:102BD0000260026822F47C520260D1F814E0CC69F1
:102BE0004A6A0368012C43EA022202600EF01F02C7
:102BF0004FF0010303FA02F2C3696FEA020C23EA01
:102C00000203C36113D02CBBC36803EA0C03C36087
:102C1000CB688C8844EA034300EBCE0423640B4664
:102C200011E0416A41F48021416201207047C3688C
:102C30001343C3600B688C8844EA034300EBCE0463
:102C4000236401F10C038C681B8843EA044300EB06
:102C5000CE04636443688D6943EA0204D1F810E04E
:102C6000096A002D08BF03EA0C0444604369BEF101
:102C7000000F43EA020408BF03EA0C04012944617F
:102C800002D1C1691143C161016821F001010160F4
:102C90000020B0BD7047B0B590F82040013C012C39
:102CA0007AD8D0F800C000290CBFDCF80C40DCF862
:102CB0001040A40776D00CF5D8754FEA011C55F8E2
:102CC0000C4014F00404946055F80CE005EB011C72
:102CD00019BF4FEADE0555604FEA5E551560DCF816
:102CE0000050E64605F00205D5605EF8044F240763
:102CF0005ABFDEF8004004F00F0408241461DEF827
:102D000000400029C4F307249461DEF800504FEA24
:102D100015455561DCF808201A70026802EB0112B3
:102D2000D2F8B8214FEA12225A70026802EB01125F
:102D3000D2F8B8214FEA12429A70026802EB0112EF
:102D4000D2F8B8214FEA1262DA70026802EB01127F
:102D5000D2F8BC211A71026802EB0112D2F8BC2130
:102D60004FEA12225A71026802EB0112D2F8BC211A
:102D70004FEA12429A71026802EB0112D2F8BC21AA
:102D80004FEA1262DA7100680CBF00F10C0100F129
:102D90001001002020220AE000F1240101204FF45C
:102DA000802204E000F1240101204FF400120B689E
:102DB0001A430A60B0BD00002DE9F04F81B004460F
:102DC00000684669D0F804908768D0F80CB0D0F855
:102DD00010A0D0F81880F10701D1002549E0F907CB
:102DE0000ED00121BA07816007D478071DD43807B7
:102DF00021D4204600F020FA02E0204600F01DFA1F
:102E00000025F8051CD520684FF48071BA05816053
:102E100007D478050CD4380510D4204600F00EFAFB
:102E20000EE0204600F00BFA0AE04FF40065E8E7F8
:102E300005F5005504E04FF48055E2E705F58045BF
:102E4000F80316D520684FF48031BA03816007D4A7
:102E5000780309D438030AD4204600F0F1F908E0D9
:102E6000204600F0EEF904E005F5004501E005F527
:102E70008035300707D51BF0100004D0206845F4DA
:102E800000751021C160700708D51BF0080005D03F
:102E900020680821C160204600F08CF9B00706D5F3
:102EA0002068C068800702D0204600F084F97006D0
:102EB00007D51AF0100004D0206845F48065102171
:102EC0000161B00608D51AF0080005D02068082175
:102ED0000161204600F080F9F00606D520680069FF
:102EE000800702D0204600F078F9B00308D519F029
:102EF000100005D0206810214160204600F06EF9D6
:102F0000F00308D519F0080005D0206808214160B9
:102F1000204600F097F9300440D55FEA49703AD571
:102F200006F4807008EA102028435FEA88710146A1
:102F300048BF41F00201B20558BF01465FEA487040
:102F40000D4648BF45F00405700558BF0D463005D5
:102F500021D518F070001ED010380009052815D8AA
:102F6000DFE800F0030F090C061245F008050DE03C
:102F700045F080050AE045F0200507E045F04005F2
:102F800004E045F0100501E045F480752068816992
:102F900021F0700181612068042141604DB1606AB7
:102FA00040EA05012046616201B0BDE8F04FFFF73D
:102FB00071BE01B0BDE8F08FD0B1B0B5044690F855
:102FC000200010B9204600F06FF82068016841F039
:102FD0000101016000F027FC054600BF2068416840
:102FE000C90707D100F01FFC401B0B28F6D312E0E5
:102FF00001207047016821F00201016000F013FC1C
:10300000054600BF2068416889070BD500F00BFC1E
:10301000401B0B28F6D3606A052140F40030606243
:1030200001203EE0217E0268012922F0800208BFD3
:1030300080320260617E0268012922F0400208BFEE
:1030400040320260A17E0268012922F0200208BFFE
:1030500020320260E17E0268012922F0100218BFCE
:1030600010320260217F0268012922F0080208BFA5
:1030700008320260617F0268012922F0040208BF61
:1030800004320260D4E901C2D4E9033561691A430C
:103090002A431143ACF101021143C1610020012117
:1030A000606284F82010B0BD10B586B0044601A857
:1030B0001421FDF710F9206846F60001C4F2000162
:1030C00088422ED046F20041C4F2000188426FD1FE
:1030D00040F2F841C2F200010A6843F63000C4F23F
:1030E0000200531C0B6052B900210091016941F0AC
:1030F00000710161016901F00071009100990021E6
:1031000000910168142441F00101016000684FF44E
:10311000C05100F00100009000980020C4F20200AD
:1031200032E043F630000021C4F20200009102694F
:1031300042F080620261026902F080620092009AAD
:1031400040F2F842C2F2000213685C1C14604BB9F2
:103150000091026942F000720261026902F000729D
:103160000092009A00910168402441F00201016040
:1031700000684FF4405100F00200009000980020D9
:10318000C4F2020000F58060019102210291002149
:103190000391032104910921059101A900F072FA1C
:1031A00020460521002200F0F5FB204600F0E2FB5E
:1031B00006B010BD704740F60001C2F2000188421F
:1031C00008BFFFF7A8BB40F62801C2F20001884201
:1031D00018BF7047FFF7CCBB7047704770470000BF
:1031E000B0B5044690F8200001281CD1022084F8D4
:1031F00020002068016821F00101016000F013FB4C
:10320000054600BF20684068C00712D000F00BFBE5
:10321000401B0B28F6D3606A40F400306062052042
:1032200084F8200003E0606A40F40020606201201E
:10323000B0BD00206062B0BD7047704770477047F6
:10324000704770477047000070B5866D044600F007
:10325000EAFA94F83510022925D105462068216C38
:10326000026822F016020260426922F08002426186
:1032700009B9A16C19B1016821F008010160016868
:1032800021F00101016000BF20680068C0070ED076
:1032900000F0C9FA401B0628F6D320206065032001
:1032A00084F835000CE080206065012008E0E06DC6
:1032B0003F2101FA00F0B060012084F835000020C1
:1032C000002184F8341070BD90F83510022909D11E
:1032D000052180F835100068016821F001010160C6
:1032E000002070478021416501207047F0B581B012
:1032F00004460020009040F25820C2F2000002680C
:10330000D4E9166048F2B51337680821C1F64E3388
:1033100081403942A2FB03250CD0226813685B0769
:1033200008D5136823F004031360B160616D41F0A8
:103330000101616501218140394208D0226852694A
:10334000120604D5B160616D41F00201616504218E
:103350008140394208D022681268920704D5B160D2
:10336000616D41F00401616510218140394217D03F
:1033700020680268120713D5B16002680168520321
:1033800006D4C90506D4016821F00801016001E0F6
:10339000080301D4216C00E0A16C09B120468847E4
:1033A000E16D202000FA01F23A423CD02068036827
:1033B000DB0638D5B26094F835300268052B1AD197
:1033C00022F016020260426922F080024261226C01
:1033D0000AB9A26C1AB1026822F0080202603F200A
:1033E0008840B060012084F83500216D002084F809
:1033F0003400B9BB3BE0016852030CD4C9050ED4BC
:10340000016821F010010160012084F835000020DE
:1034100084F8340003E0080301D4616C00E0E16B40
:1034200009B120468847606D08B3606DC00717D0AA
:10343000052084F835002068A90A026822F00102FC
:10344000026000BF009A01328A42009202D80268EC
:10345000D207F7D1012084F83500002084F8340029
:10346000E16C21B1204601B0BDE8F040084701B051
:10347000F0BD00002DE9F041044600F0D4F9C4B1DC
:103480000546022084F835000020216884F83400C5
:10349000086820F00100086021680868C0070BD0A8
:1034A00000F0C1F9401B0528F6D90325202303208D
:1034B00064E00120BDE8F081086848F23F02CFF2E5
:1034C0001002D4E9013500EA020C04F10C0898E876
:1034D000C10143EA0C032B431843D4E9072E3043C0
:1034E00038431043626A40EA0E00042A40EA0803A7
:1034F0001CD1206BD4E90A2E40EA0E001843086064
:103500004869BEF1000F20F0030040EA020040F0DD
:10351000040C11D0B8F5005F35D0B8F1000F42D1DE
:10352000022A43D0012A38D0002A3EE00B604869C5
:1035300020F0070040EA020C01F0F8004AF6AB2246
:103540001038CAF6AA22A0FB02231A094BF2241350
:10355000C1F814C0C0F600039A5C40F2FF335F2844
:103560004FF03F0021EA030100FA02F088BF043166
:10357000C4E916128860002301250020636584F8E1
:103580003550BDE8F081032AD6D80125402301201B
:10359000DFE802F0020C0203F0E7AEF1C070B0FA0F
:1035A00080F0400904E0032A04D3C5D1CEF30060C3
:1035B0000028C1D0012540230120DFE790F834C066
:1035C000BCF1010F04BF0220704770B54FF0010C31
:1035D00080F834C0D0F858E090F835C0BCF1010F45
:1035E00037D14FF0020C80F835C04FF0000CC0F816
:1035F00054C0D0F800C08468056CC06DDCF8006071
:10360000402C26F48026CCF80060CCF804300B4621
:1036100004BF13460A463F2101FA00F0CCF80830F7
:10362000CCF80C20CEF80800DCF8000040F01600C2
:10363000CCF800002DB1DCF8000040F00800CCF818
:103640000000DCF8000040F00100CCF80000002091
:1036500070BD002180F83410022070BDB0B5044662
:1036600000F0E1F8054640F2B420C2F20000007814
:10367000611C18BF044400BF00F0D5F8401BA042F5
:10368000FAD3B0BD2DE9F04F83B000F1200200F174
:103690003E4741F60045009207F1FF77C4F202056C
:1036A00008224FEAB726A84208BF072200254FF09C
:1036B00000084FF00009072E38BF4FEAB7220192E9
:1036C0000F68012202FA09FE17EA0E0A00F099803B
:1036D000D1F804C003220CF003077E1E02FA08F49E
:1036E000012E6FEA040B11D88468CE6804EA0B043B
:1036F00006FA08F634438460446824EA0E06CCF3E4
:10370000001404FA09F42643466003E0032F01D1B4
:1037100003271EE0C6688C6806EA0B0604FA08F464
:103720002643022FC66014D16FF00302009E02EA06
:10373000590756F807C005F01C040F220B69A24078
:103740002CEA0202A3401A43F251D1F804C00CF053
:103750000307026807FA08F302EA0B021A431CF493
:10376000403F02604DD0002243F644030292C4F26F
:1037700002031A6843F6004442F480421A601A6851
:10378000C4F2010402F480420292029A29F0030278
:103790004FF6084C2244CFF6FF7C52F80C3005F06F
:1037A0000C070F26BE40B343019E06FA07F73B43C2
:1037B00042F80C30A2684B6842EA0A0743F60C4C08
:1037C000DE0258BF22EA0A07A760C4F2010CDCF847
:1037D00000209E0242EA0A0758BF22EA0A07CCF8F4
:1037E000007062689E0342EA0A0758BF22EA0A078D
:1037F00067602268DB0342EA0A0758BF22EA0A0729
:10380000276009F1010908F10208B9F1100F05F16B
:1038100004057FF455AF03B0BDE8F08F002A08BF60
:103820000904816170474AF26010C2F2000000682A
:10383000704740F2B4204AF26011C2F20000C2F2B6
:10384000000100780A6810440860704780B543F6AC
:103850000040C4F20200016841F400710160016897
:1038600041F480610160016841F4807101600320CE
:1038700000F0BBF80F2000F004F800F05AF8002028
:1038800080BD70B586B0002543F640010195C4F2B5
:1038900002010A68044642F020020A60096801A891
:1038A00001F0200101910199694600F058F9049E48
:1038B000002E18BF012600F071F94DF68361B0406B
:1038C000C4F21B31A0FB01014FF0FF3000EB91412E
:1038D00040F6584041F20042C2F20000C4F2000239
:1038E00040F2E733C0E90021C0E902530561856178
:1038F00000F0BBFB0546C8B940F65840C2F20000D4
:1039000000F0F9FB054688B9372000F033F80F2C9A
:103910000BD8372021460022002500F03BF840F26A
:10392000B820C2F20000046000E00125284606B07D
:1039300070BD82B0002043F640010190C4F2020144
:103940004A6842F480424A604A6802F48042019226
:10395000019A00900868002240F0805008600868D2
:103960000F2100F08050009000986FF0010002B02D
:1039700000F010B800280CD400F01F01012202FA58
:1039800001F11C2202EAD0004EF20012CEF2000237
:103990008150704710B54EF60C5CCEF2000CDCF88E
:1039A0000030C3F3022E8EF00704042C28BF042439
:1039B000BEF103034FF0FF3E0EFA04F438BF0023BC
:1039C000A14399400EFA03F39A43114300F00F020A
:1039D00000F160430901043A03F56443624400289E
:1039E00048BF02F10C03197010BD4EF60C51CEF217
:1039F00000010A684FF6FF031A4060F30A2242F002
:103A0000806040F0FD70086070470000002872D0B0
:103A10002DE9F04143F60008C4F202080446D8F844
:103A200000040D4600F00700884207D288F80054D1
:103A3000D8F8000400F00700A84266D1206881078A
:103A400017D5410705D5D8F8081041F4E051C8F85A
:103A50000810010705D5D8F8081041F46041C8F8EE
:103A60000810D8F80810A26821F0F0011143C8F836
:103A70000810C00741D1D8F8000400F00700A842A0
:103A800007D988F80054D8F8000400F00700A842CD
:103A90003BD12068410707D5D8F80810E26821F427
:103AA000E0511143C8F80810000708D5D8F80800FD
:103AB000216920F4604040EAC100C8F8080000F025
:103AC00093F8D8F808104AF66C72C1F30311C0F6E7
:103AD0000002515C40F2582220FA01F140F2B82075
:103AE000C2F200000068C2F200021160FFF7C9FED6
:103AF0000020BDE8F081012070476068811E022926
:103B000006D2D8F80010890108D40120BDE8F08160
:103B100001281FD1D8F800108903F6D5D8F808106D
:103B200021F003010843C8F80800FFF77CFE0646B1
:103B300041F28837D8F80800616800F00C00B0EB5B
:103B4000810F98D0FFF76FFE801BB842F2D9032097
:103B5000BDE8F081D8F800108907D6D5DEE70F223E
:103B6000026043F60802C4F20202136803F0030382
:103B70004360136803F0F0038360136803F4E053B9
:103B8000C360D2F800C04FF4E05303EADC030361E2
:103B9000D2F8F80300F007000860704740F25820A0
:103BA00043F60801C2F20000C4F20201006809688D
:103BB0004AF67C72C1F38221C0F60002515CC84013
:103BC000704740F2582043F60801C2F20000C4F2E8
:103BD0000201006809684AF67C72C1F34231C0F6FE
:103BE0000002515CC840704710B543F60404C4F2AB
:103BF0000204606800F00C0142F200400829C0F2A3
:103C0000F40007D0042918BF10BD41F20020C0F213
:103C10007A0010BD216801F03F0221682368490243
:103C2000C3F3881105D4A1FB00010023FCF7D8FAE7
:103C300006E041F20020C0F27A004843B0FBF2F007
:103C400021680222C1F3014102EB4101B0FBF1F016
:103C500010BD000000286BD02DE9F04182B0044671
:103C6000007843F60006C007C4F202060CD0B06824
:103C700000F00C00042840F098803068800303D5E1
:103C80006068002800F0AB80207880071BD5B06802
:103C900010F00C0F09D0B06800F00C00082840F0BC
:103CA000A0807068400200F19C803068800703D5D6
:103CB000E068012840F093803068216920F0F80026
:103CC00040EAC10030602078000733D420784007F4
:103CD00045D4A56955B3B06800F00C00082840F041
:103CE000B980012D7BD07068E16900F480028A42BE
:103CF00075D1216A00F03F028A4270D147F6C07147
:103D0000626A0140B1EB821F69D1A16A4FF6FF736D
:103D1000C903994300F44032A1F580318A425ED153
:103D2000E16A00F07060B0EB016F58D10020F3E061
:103D3000012070476069002878D00020C4F2472035
:103D40000121C0F8801EFFF76EFD0546706F8007E9
:103D5000BCD4FFF768FD401B0228F7D9DBE0306CCC
:103D60005FEAC0080AD400200190306C40F0805017
:103D70003064306C00F080500190019847F20007E9
:103D8000C4F200073868C00542D4386840F4807037
:103D90003860FFF748FD05463868C00538D4FFF79E
:103DA00042FD401B0228F7D9B5E0B06800F00C00D6
:103DB000082803D1706840023FF55FAF6168306842
:103DC000B1F5803F07D0B1F5A02F40F08E8040F4D0
:103DD00080203060306840F4803030608EE0012018
:103DE0009AE0E068002840F20000C4F2472053D077
:103DF00001210160FFF717FD054600BF306880070D
:103E00003FF55AAFFFF70FFD401B0228F6D982E0BD
:103E1000A168306F012905D005294FD140F0040079
:103E20003067306F40F00100306750E00020C4F28E
:103E300047200021C0F8801EFFF7F5FC054600BFB3
:103E4000706F80077FF542AFFFF7EDFC401B022843
:103E5000F6D960E00027C4F2472700203866FFF754
:103E6000E2FC022D05460BD13068800157D5FFF7E3
:103E7000DAFC401B02284FF00300F5D94CE000BFEC
:103E8000306880017FF552AFFFF7CDFC401B022860
:103E90004FF00300F4D93FE000210160FFF7C3FCBD
:103EA000054600BF306880077FF50DAFFFF7BBFC0C
:103EB000401B02284FF00300F4D92DE020F0010050
:103EC0003067306F002920F00400306748D0FFF7DA
:103ED000AAFC054641F28837306F800751D4FFF7BE
:103EE000A2FC401BB842F7D915E020F480303060C6
:103EF0003068002920F4802030604BD0FFF793FC1D
:103F0000054600BF306880033FF5BEAEFFF78BFC6F
:103F1000401B6428F6D9032002B0BDE8F08104F10B
:103F20001C052FCD084340EA8210D9034FF6FF72DB
:103F30009143A1F5803140EA05600843706001209B
:103F40003866FFF770FC0446306880013FF5EEAE3E
:103F5000FFF769FC001B02284FF00300F4D9DBE7F0
:103F6000FFF761FC054641F2883700BF306F8007DC
:103F700007D5FFF758FC401BB8424FF00300F5D9B6
:103F8000CAE7B8F1000F3FF5A4AE306C20F08050C6
:103F900030649EE6FFF747FC054600BF30688003AB
:103FA0007FF572AEFFF73FFC401B64284FF0030023
:103FB000F4D9B1E77047704790F83C20012A4FF0E0
:103FC000020250D010B580F83D200268D2F804E01B
:103FD000D2F808C00C682EF07003234341F2FF743E
:103FE000C4F20004A24253600BDC40F2FF73C4F23F
:103FF00000039A4213DCB2F1804F27D040F2004315
:1040000015E040F2FF33C4F201039A4212DC41F69C
:104010000003C4F200039A4218D0002312E040F6D5
:104020000003C4F200039A4210D040F60043C4F2E9
:10403000000309E044F20003C4F201039A4205D0F0
:1040400040F20043C4F201039A4204D149682CF0C3
:104050008003194391600121002280F83D1080F80F
:104060003C20BDE810401046704740B310B50446F0
:1040700090F83D0028B9002084F83C00204600F06C
:1040800020F8022084F83D002068211D01F0A6FFE1
:10409000012084F8460084F83E0084F83F0084F84C
:1040A000400084F8410084F8420084F8430084F81A
:1040B000440084F8450084F83D00002010BD012034
:1040C0007047006840F60001C4F20001884218BF42
:1040D000704781B00020009043F64000C4F2020017
:1040E000016841F004010160006800F004000090E4
:1040F000009801B0704790F83D1001291CBF0120C5
:104100007047022180F83D10006841F2FF72C168DB
:10411000C4F20002904241F00101C1600BDC40F2A8
:10412000FF71C4F20001884213DCB0F1804F27D048
:1041300040F2004115E040F2FF31C4F20101884233
:1041400012DC41F60001C4F20001884218D00021BF
:1041500012E040F60001C4F20001884210D040F69F
:104160000041C4F2000109E044F20001C4F201017F
:10417000884205D040F20041C4F20101884204D1D6
:10418000816801F00701062903D0016841F00101AF
:1041900001600020704790F83C20012A4FF0020295
:1041A0006BD080B580F83D20D0F800C04FF6777214
:1041B000DCF8083023EA0202CCF808200B684F2B09
:1041C00028DC1F2B44DD202B45D0302B43D0402B47
:1041D00040F0AC80D1F804E0C968DCF82030DCF8AD
:1041E000202022F00102CCF82020DCF8182022F058
:1041F000F00242EA011123F00A0242EA0E02CCF870
:104200001810CCF82020DCF8081041F0470121F00C
:10421000300127E06F2B32DDB3F5005F73D0B3F5CB
:10422000805F21D0702B40F08180D1E901E3C96823
:10423000DCF8082043EA0E0322F47F4243EA01211E
:104240001143CCF80810DCF8081041F0770109E0C0
:104250000BB1102B6AD1DCF8081021F07001194362
:1042600041F00701CCF808100022012180F83D1030
:10427000002180F83C10BDE8804010467047502B6C
:1042800021D0602B52D1D1F804E0C968DCF820308D
:10429000DCF8202022F01002CCF82020DCF81820D6
:1042A00022F4704242EA013123F0A00242EA0E12E7
:1042B000CCF81810CCF82020DCF8081041F0670189
:1042C00021F01001CEE7D1F804E0C968DCF8203015
:1042D000DCF8202022F00102CCF82020DCF81820A5
:1042E00022F0F00242EA011123F00A0242EA0E0231
:1042F000CCF81810CCF82020DCF8081041F0570159
:1043000021F02001AEE7D1E901E3C968DCF808201B
:1043100043EA0E0322F47F4243EA01211143CCF821
:104320000810DCF8081041F480419BE701229CE76B
:10433000704770B504460068C5680669B10716D5B0
:1043400015F0020113D06FF0020101610121217704
:104350008069800703D02046FFF7EAFF05E020468A
:1043600000F0B5F8204600F02CF900202077700707
:1043700018D515F0040015D020686FF00401016114
:1043800002212177806910F4407F03D02046FFF797
:10439000CFFF05E0204600F09AF8204600F011F922
:1043A00000202077300717D515F0080014D02068BA
:1043B0006FF00801016104212177C069800703D0F3
:1043C0002046FFF7B5FF05E0204600F080F82046C4
:1043D00000F0F7F800202077F00618D515F010004F
:1043E00015D020686FF01001016108212177C069A4
:1043F00010F4407F03D02046FFF79AFF05E02046E7
:1044000000F065F8204600F0DCF800202077F00787
:1044100018BF15F0010006D020686FF0010101619E
:10442000204600F04EF9300609D515F0800006D080
:1044300020686FF0800101612046FFF7BBFD700628
:1044400009D515F0400006D020686FF040010161E9
:10445000204600F040F9B00658BF70BD15F02000AE
:1044600008D021686FF0200220460A61BDE8704044
:10447000FFF7A1BD70BDB0B586B0044640F600059B
:1044800001A81421C4F20005FBF725FF2068A8420B
:104490001BD1002043F630010090C4F202010A68EB
:1044A00042F008020A60096801F0080100910099D1
:1044B0004FF4704101910221CDE90210CDE90401D0
:1044C00005F5013001A9FFF7DDF806B0B0BD704772
:1044D000B0B5044690F83C00012804BF0220B0BDEE
:1044E0000D464FEAB2010120032984F83C0037D879
:1044F000DFE801F002220A1A2068294601F004FED2
:10450000206850F8181F06E02068294601F061FE77
:10451000206850F81C1F41F008010160016821F07B
:1045200004010160296917E02068294601F084FE32
:10453000206850F81C1F06E02068294601F015FE8F
:10454000206850F8181F41F400610160016821F4EF
:10455000806101602969090202681143016000203D
:10456000002184F83C10B0BD40B310B5044690F86B
:104570003D0028B9002084F83C00204600F020F8D7
:10458000022084F83D002068211D01F027FD012054
:1045900084F8460084F83E0084F83F0084F8400028
:1045A00084F8410084F8420084F8430084F8440011
:1045B00084F8450084F83D00002010BD01207047BC
:1045C00070477047A1B1042904D0082914BF4122C3
:1045D000402200E03F22825C012A11D102220829F8
:1045E00010D0042914BF80F8412080F83F200BE050
:1045F00090F83E20012A03D1022280F83E2003E0F9
:104600000120704780F84020006801F01F0101225E
:10461000036A02FA01F123EA01020262026A11430B
:1046200041F2FF72C4F20002904201620BDC40F2E0
:10463000FF71C4F20001884213DCB0F1804F35D025
:1046400040F2004115E040F2FF31C4F2010188421E
:1046500014DC41F60001C4F20001884226D000219A
:1046600014E040F60001C4F2000188421ED040F67A
:104670000041C4F20001884218D01CE044F200015D
:10468000C4F20101884211D040F20041C4F201019C
:10469000884210D1416C40F2004340F48062C4F281
:1046A000010341F400419A42416404D1816801F060
:1046B0000701062903D0016841F0010101600020D3
:1046C0007047006841F20041C4F20001884218BFFF
:1046D0007047FFF7AEB8704770B582B0044690F8E7
:1046E0004200202820D14FF00105F1B1EAB10026A7
:1046F00020462563666301F071FF206B012814D109
:10470000019620680168019140680190019800BFFE
:10471000206850E8030F216840F0100041E80302D0
:10472000002AF5D1002500E00225284602B070BD20
:1047300010B5044640F6A040C2F2000084421BD0EF
:1047400040F6E840C2F2000084421AD040F63050F1
:10475000C2F20000844219D040F67850C2F2000044
:10476000844218D040F6C050C2F20000844217D0F4
:10477000FEF7D4F9002017E042F60030C2F2000044
:1047800012E042F61030C2F200000DE042F6203096
:10479000C2F2000008E042F63030C2F2000003E04E
:1047A00042F64030C2F20000E16B09684968C181FD
:1047B0000189C289891A418110BD7047B0B582B0A4
:1047C000044600680168C368426901F02F05202D86
:1047D00003F0200506D12DB1204602B0BDE8B0405F
:1047E00001F02CBE5FEA017C1EBF02F0010E03F453
:1047F000907212EB0E026ED1226BCD0643D5012AC8
:1048000041D113F010023ED00021019101680191C5
:104810004168019101994069400600F1CB80A08D6B
:10482000E18DE28D002A00F01581884200F01281AE
:10483000401A00BF216851E8031F226821F49071DB
:1048400042E80313002BF5D1216851E8051F2268C7
:1048500021F0010142E80513002BF5D1202184F855
:1048600042100021216300BF216851E8031F226824
:1048700021F0100142E80313002BF5D1022281B28E
:1048800020466263DCE00A0640F1828013F0800279
:1048900000F07E8094F84110212940F0DB80A1686F
:1048A000B1F5805F03D12169002900F0DB80216A26
:1048B0004A1C226209784160E18C01390A04E184D2
:1048C00040F0C880C16821F08001C160C16841F03A
:1048D0004001C160BEE0CA0718BF13F4807203D064
:1048E000626C42F0010262644A0706D5BEF1000F15
:1048F00003D0626C42F0020262648A0706D5BEF100
:10490000000F03D0626C42F004026264BCF1000F3D
:1049100006D55EEA050203D0626C42F008026264CA
:10492000626C002A00F09680890604D51DB12046ED
:1049300001F084FD20684069616C00F0400001F0E6
:104940000801401800F08180204601F04FFD2068EA
:104950004069400640F18080206850E8050F2168DA
:1049600020F0400041E80502002AF5D1E06B002864
:1049700072D046F29F21C0F600010165FEF7A4FC4B
:10498000002867D0E06B016D02B0BDE8B040084779
:1049900049065FD513F040015CD0C16821F04001A9
:1049A000C1602021204684F8411002B0BDE8B0402B
:1049B00000F0C4BBE06B016849688AB2002A49D0A4
:1049C000A38D9A4246D2E185C069B0F5807F30D090
:1049D000206850E8030F216820F4807041E803024A
:1049E000002AF5D1206850E8050F216820F0010069
:1049F00041E80502002AF5D1206850E8050F21683A
:104A000020F0400041E80502002AF5D1202084F87A
:104A100042000020206300BF206850E8030F216897
:104A200020F0100041E80302002AF5D1E06BFEF708
:104A30000BFC02206063A08DE18D401A81B22046FC
:104A400002B0BDE8B040FFF773BE2046FFF7B5FEE9
:104A50000020606402B0B0BD204602B0BDE8B040A6
:104A6000FFF7ABBE216A31F8022B6FF35F22426081
:104A7000216221E758B310B5044690F8410028B9E7
:104A8000002084F84000204600F023F8242084F819
:104A900041002068C16821F40051C160204601F046
:104AA0002EFD2068016921F490410161416921F0E6
:104AB0002A014161C16841F40051C16000202021F8
:104AC000606484F8411084F84210606310BD0120D6
:104AD00070472DE9F04F87B0044602A81421FBF778
:104AE000FAFB206844F6FF71C4F20001884200F32B
:104AF000818044F20041C4F20001884200F0BE808F
:104B000044F60001C4F20001884200F0A58144F699
:104B10000041C4F20001884240F07882002643F64A
:104B200030000196C4F20200016946F2100841F417
:104B3000002101610169C4F2020801F40021019120
:104B400001990196016841F004010160006802A921
:104B500000F00400019001984FF4406002900220A0
:104B6000CDE9030603200590082006900020C4F23A
:104B7000020000F50060FEF785FD40F6B00508F183
:104B80006000C2F200054FF000674021C5E9000750
:104B900005F108004FF4806980E8420205F1140035
:104BA0001421FBF798FB2846FEF764FC08B1FDF7DB
:104BB000B5FFA563AC6340F6500508F13000C2F2C2
:104BC00000054FF48071C5E900072846C5E9026673
:104BD000C5E90496C5E90661C5E90866FEF74AFC21
:104BE00008B1FDF79BFFE563AC6334200021002290
:104BF000342406E245F20001C4F20001884200F0CC
:104C0000A68041F20001C4F20101884200F09081C7
:104C100041F20041C4F20101884240F0F7810020D6
:104C200043F630010190C4F202014A6942F02002C9
:104C30004A614A6902F020020192019A01900A68D1
:104C400042F004020A60096801F00401019101992F
:104C5000C02102910221CDE9031003200590082014
:104C600006900020C4F2020000F5006002A9FEF7E1
:104C700009FD4720052100224724C2E1002643F612
:104C800030000196C4F20200016946F2100841F4B6
:104C9000003101610169C4F2020801F4003101919F
:104CA00001990196016841F001010160006802A9C3
:104CB00000F00100019001980C2002900220CDE943
:104CC000030603200590072006900020C4F202008E
:104CD000FEF7D8FC40F6F02508F19000C2F200057E
:104CE0004FF000674021C5E9000705F108004FF4C7
:104CF000806980E8420205F114001421FBF7EBFA09
:104D00002846FEF7B7FB08B1FDF708FFA563AC63C3
:104D100040F6902508F17800C2F200054FF480714A
:104D2000C5E900072846C5E90266C5E90496C5E954
:104D30000661C5E90866FEF79DFB08B1FDF7EEFECA
:104D4000E563AC63262000210022262459E10026D9
:104D500043F630000196C4F202000169002741F4D5
:104D6000801101610169C4F2020701F4801101910F
:104D700001990196016802AD41F0040101600168EA
:104D800046F2100801F004010191019901960168B1
:104D90004FF0020941F00801016000684FF0030A7A
:104DA00000F00800019001984FF4805002904FF0FD
:104DB000080B07F500602946C4F20208CDE9039606
:104DC000CDF814A0CDF818B0FEF75CFC0420CDE9B6
:104DD000020904A880E8400C07F540602946FEF768
:104DE00051FC40F6701508F1A800C2F200054FF022
:104DF00000674021C5E9000705F108004FF480690C
:104E000080E8420205F114001421FBF764FA2846F9
:104E1000FEF730FB08B1FDF781FEA563AC6340F6F9
:104E20001015C2F200054FF48070C5E906602846EF
:104E3000C5E90087C5E90266C5E90496C5E90866C3
:104E4000FEF718FB08B1FDF769FEE563AC6335209A
:104E5000002100223524D4E0002643F630000196DC
:104E6000C4F20200016946F2100841F48021016198
:104E70000169C4F2020801F48021019101990196AF
:104E8000016841F002010160006802A900F002001F
:104E9000019001984FF4406002900220CDE9030692
:104EA00003200590072006900020C4F2020000F5C0
:104EB0008060FEF7E7FB40F6B03508F14800C2F22B
:104EC00000054FF000674021C5E9000705F1080023
:104ED0004FF4806980E8420205F114001421FBF7C9
:104EE000FAF92846FEF7C6FA08B1FDF717FEA563E2
:104EF000AC6340F6503508F11800C2F200054FF4DB
:104F00008071C5E900072846C5E90266C5E904962F
:104F1000C5E90661C5E90866FEF7ACFA08B1FDF718
:104F2000FDFDE563AC63272000210022272468E013
:104F3000002643F630000196C4F20200416946F2B1
:104F4000100841F0100141614169C4F2020801F00A
:104F50001001019101990196016841F00101016080
:104F6000006802A900F00100019001984FF4C060B0
:104F700002900220CDE90306032005900720069049
:104F80000020C4F20200FEF77DFB40F6302508F554
:104F90009560C2F200054FF000674021C5E90007A7
:104FA00005F108004FF4806980E8420205F1140021
:104FB0001421FBF790F92846FEF75CFA08B1FDF7DB
:104FC000ADFDA563AC6340F6D01508F58660C2F26E
:104FD00000054FF48071C5E900072846C5E902665F
:104FE000C5E90496C5E90661C5E90866FEF742FA17
:104FF00008B1FDF793FDE563AC6325200521002290
:105000002524FEF7C7FC2046FEF7B4FC07B0BDE838
:10501000F08F7047704700002DE9F041044690F88A
:10502000410020281CBF0220BDE8F0810D464FF052
:105030000100E1B31746D2B30020606421209846F6
:1050400084F84100FEF7EFFBA784E784A1680746D8
:10505000B1F5805F01D1206988B32E46002500BFDD
:10506000E08CC0B1204680213A46434601F002FB65
:10507000F8B92EB116F8010B2168486007E000BFAF
:1050800035F8020B21686FF35F2048600026E08C42
:105090000138E084E4E7204640213A46434601F0E7
:1050A000E9FA202184F84110002818BF0320BDE848
:1050B000F081202084F841000320BDE8F081002623
:1050C000CEE70000B0B5044690F8410020281CBF90
:1050D0000220B0BD4FF0010079B313466AB34FF020
:1050E000000C21202162A384E384C4F844C084F826
:1050F0004100A06B46F2A93E46F2E7352268C0F6B1
:10510000000EC0F60005C0E90FE546F2AD25C0F679
:1051100000050432C0E9135CFEF750FA20686FF016
:1051200040010160206850E8050F216840F08000D0
:1051300041E80502002AF5D10020B0BD7047704754
:105140002DE9F04F81B04FF000090DF1030102206D
:105150008DF8039001F0AFFE002855D040F2FC46D8
:1051600040F26C27C2F20006C2F200070DF1030400
:105170004FF0050A4FF0010B4FF00008307805287A
:105180001AD0012808D098BB9DF80300797888428E
:1051900008BF86F800B02DE09DF80300B97888427A
:1051A00026D1082087F80090F8707878B9780844FC
:1051B000387286F800A01DE09DF8031078683A78F0
:1051C000531C3B7081543B78FD783A7AAB4218D936
:1051D00091420DD141F2D461C2F200010A683AB1A4
:1051E000F9789047022001F059FE4FF0010800BF06
:1051F00086F800900220214601F05DFE0028BDD116
:1052000004E050183872F5E74FF000085FFA88F0B4
:1052100001B0BDE8F08F0000FEE700002DE9F0438B
:1052200081B04FF000090DF1030101208DF80390CA
:1052300001F041FE002865D040F2045640F2942768
:1052400041F2D868C2F200060DF10304C2F2000771
:10525000C2F20008002500BF31780020072949D894
:10526000DFE801F0042B480B4830401B9DF8030099
:10527000797888423FD101203CE087F80090787827
:10528000F9789DF80320084410443872786839781A
:105290004B1C3B70425405202CE09DF80300797AAA
:1052A00088424FF0000025D1D8F8002012B378686A
:1052B000F9789047012500201CE09DF80300F87064
:1052C000032017E09DF8030079683A78531C3B707F
:1052D0008854397A084438723878F97888420AD381
:1052E000072007E09DF80300397A88424FF000005C
:1052F00008BF072030700120214601F0DCFD0028A6
:10530000AAD100E00025E8B201B0BDE8F0830000BA
:1053100010B50246481E44F25274C0B2C0F24204B4
:10532000C300032838BF24FA03F140F20554C2F247
:105330000004CBB209A1204604F090FF2046FAF702
:10534000D5FF82B2B2F5006F28BF4FF40062012092
:105350002146BDE8104001F0D0BD00BF6D6F64650F
:105360003D2564256300000080B540F6000046F24C
:105370000041C2F20000C4F200010322002380E8D1
:105380000E0000F10C014FF4102C4FF4001E81E8C8
:10539000085083618383FDF70FFE18B1BDE880409C
:1053A000FDF7BCBB80BD80B540F6280046F6000185
:1053B000C2F20000C4F200010C22002380E80E00BB
:1053C00000F10C014FF4003C4FF4001E81E808503E
:1053D0004FF480710183C0F81A30FDF7EDFD18B16C
:1053E000BDE88040FDF79ABB80BD80B582B000204B
:1053F00043F630010190C4F202010A6842F400123F
:105400000A600A6802F400120192019A009008688A
:10541000002240F4800008600868002100F4800049
:10542000009000980B20FEF7B5FA0B20FEF7A2FAC9
:105430000C2000210022FEF7ADFA0C20FEF79AFAAC
:105440000D2000210022FEF7A5FA0D20FEF792FAAA
:105450000E2000210022FEF79DFA0E20FEF78AFAA8
:105460000F2000210022FEF795FA0F20FEF782FAA6
:10547000102005210022FEF78DFA1020FEF77AFA9F
:10548000112005210022FEF785FA1120FEF772FA9D
:105490002F2005210022FEF77DFA2F20FEF76AFA61
:1054A0003A2005210022FEF775FA3A20FEF762FA4B
:1054B000462005210022FEF76DFA462002B0BDE825
:1054C0008040FEF757BA80B54AF69470C0F60000E7
:1054D00001F0E0FF40F21061C2F200014AF6A4724E
:1054E0000860C0F600020120042101F079FF40F2BB
:1054F0001861C2F200014AF6D4720860C0F60002D8
:105500000120042101F06CFF40F22061C2F2000191
:105510004AF6BC720860C0F600020120042101F0C6
:105520005FFF40F21C61C2F200014AF6EC720860B3
:10553000C0F600020120012101F052FF40F2246177
:10554000C2F20001086042F24D704BF27002C0F6E8
:105550000000C0F60002002101F0F1FF40F294715A
:10556000C2F20001086042F25D704BF29402C0F694
:105570000000C0F60002002101F0E1FF40F2987146
:10558000C2F20001086042F2FD604BF20402C0F674
:105590000000C0F60002002101F0D1FF40F2887146
:1055A000C2F20001086042F261704BF2B802C0F62C
:1055B0000000C0F60002002101F0C1FF40F29C7122
:1055C000C2F20001086042F265704BF2DC02C0F6E4
:1055D0000000C0F60002002101F0B1FF40F2A0710E
:1055E000C2F20001086042F241704BF24C02C0F678
:1055F0000000C0F60002002101F0A1FF40F290710E
:10560000C2F20001086042F291704BF20012C0F643
:105610000000C0F60002002101F091FF40F2A471E9
:10562000C2F20001086042F235704BF22802C0F667
:105630000000C0F60002002101F081FF40F28C71F1
:10564000C2F2000108604AF68470C0F6000001F062
:1056500085FE40F2F441C2F20001086080BD2DE9F0
:10566000F04786B00DF1040840461421FAF733FEE6
:10567000002743F630000097C4F2020001680025BD
:1056800041F0040101600168C4F2020501F0040167
:10569000009100990097016805F5006641F08001CE
:1056A00001600168012201F08001009100990097DA
:1056B00001684FF4005941F00101016001680124C3
:1056C00001F00101009100990097016841F0020189
:1056D0000160016801F002010091009900970168E2
:1056E00041F00801016000684FF4005100F008002B
:1056F000009000983046FEF791F8284613210022CA
:105700004FF0130AFEF78AF830464146CDE901947E
:10571000CDE90377FDF7B6FF28464146CDE901A460
:10572000CDE90377FDF7AEFF4FF40040CDE9010767
:10573000284641460394FDF7A5FF06B0BDE8F08773
:1057400010B58EB0002401A81C210D94CDE90B44A6
:10575000CDE90844FAF7BFFD40F6104040F60001DD
:10576000C2F20000C4F2000142F20F73A72280E8E7
:105770001600C0E903348461FEF777FC08B1FDF739
:10578000CDF94FF480500A9040F61040C2F200006C
:105790000AA9FEF700FD08B1FDF7C0F940F6104078
:1057A000C2F20000FEF7E0FE08B1FDF7B7F940F6DF
:1057B00010400024C2F2000008A9CDE90844FEF719
:1057C000FBFB08B1FDF7AAF96020CDE9010440F622
:1057D0001040C2F2000001A9002203940594FEF7D4
:1057E00077FE08B1FDF79AF940F61040C2F20000CA
:1057F00001A90422FEF76CFE08B1FDF78FF940F60F
:105800001040C2F2000001A90822FEF761FE08B1B3
:10581000FDF784F940F61040C2F2000001A90C2205
:10582000FEF756FE08B1FDF779F940F61040C2F2D6
:105830000000FEF720FE0EB010BD80B540F6785097
:1058400044F60041C2F20000C4F2000100234FF010
:105850000C0C4FF4E13280E80E00C0E90333C0E9DC
:1058600005C3C361FFF706F918B1BDE88040FDF735
:1058700055B980BD80B540F6C05045F20001C2F276
:105880000000C4F2000100234FF00C0C4FF416523C
:1058900080E80E00C0E90333C0E905C3C361FFF728
:1058A000E9F818B1BDE88040FDF738B980BD80B592
:1058B00040F6A04041F20001C2F20000C4F2010132
:1058C00000234FF00C0C4FF4613280E80E00C0E969
:1058D0000333C0E905C3C361FFF7CCF818B1BDE8D5
:1058E0008040FDF71BB980BD80B540F6E84044F22A
:1058F0000041C2F20000C4F2000100234FF00C0C82
:105900004FF4E13280E80E00C0E90333C0E905C37B
:10591000C361FFF7AFF818B1BDE88040FDF7FEB8EE
:1059200080BD80B540F6305044F60001C2F2000060
:10593000C4F2000100234FF00C0C4FF4E13280E878
:105940000E00C0E90333C0E905C3C361FFF792F855
:1059500018B1BDE88040FDF7E1B880BD80B540F6E4
:10596000086041F20041C2F20000C4F201010023CC
:105970004FF00C0C4FF4E13280E80E00C0E9033325
:10598000C0E905C3C361FFF775F818B1BDE88040F1
:10599000FDF7C4B880BD0000FEE72DE9F04F81B0EF
:1059A0002DED048B88B05AEC10BBB0EE438AB0EEFC
:1059B000429A53EC112B58465146F0EE638AF0EEB2
:1059C000629ACDE90032CDF808B0CDF80CA0FAF714
:1059D000CDFC0446059041F2C860C2F200000068A8
:1059E0000D460491FAF7A0FE02460B4651EC190B46
:1059F000CDE90601FAF761FD22462B46804689462D
:105A0000FAF7B4FC06464AF67400C2F200000068D9
:105A10000F46FAF789FE04460D46304639462246BF
:105A20002B46FAF74AFDFAF792FE4AF66401C2F2F3
:105A30000001C8600E4658465146DDF804B0DDF856
:105A400000A05A465346FAF732FD42464B46FAF753
:105A50002EFD22462B46FAF730FDFAF778FEB060AD
:105A600041F2C460C2F200000068B046FAF75CFE82
:105A700002460B46DDE90601FAF71FFDDDE90432B7
:105A800006460F46FAF713FD22462B46FAF715FD98
:105A9000FAF75DFEDDE90223C8F8040058465146D6
:105AA000FAF705FD32463B46FAF701FD22462B4642
:105AB000FAF703FDFAF74BFEC8F8000051EC180B9B
:105AC000FAF7FAFD4AF68411C2F20001086008B044
:105AD000BDEC048B01B0BDE8F08F0000FEE70000D4
