:020000040800F2
:1000000058AD0020A1010008B55D0008A556000804
:10001000B15D0008C92D0008B569000800000000A6
:100020000000000000000000000000002161000846
:10003000112F000800000000315F0008C501000812
:10004000BB010008BB010008BB010008BB010008A0
:10005000BB010008BB010008BB010008BB01000890
:10006000BB010008BB010008BB010008992E000875
:10007000A52E0008B12E0008BD2E0008C92E0008CC
:10008000D52E0008E12E0008BB010008BB010008C6
:10009000CB2D0008BB010008BB010008BB01000814
:1000A000BB010008BB010008BB010008BB01000840
:1000B000BB010008BB010008BB010008BB01000830
:1000C000BB010008BB010008BB010008BB01000820
:1000D000BB010008836900088F6900089B6900085C
:1000E000BB010008BB010008BB010008BB01000800
:1000F000BB010008BB010008BB010008ED2E000891
:10010000BB010008BB010008BB010008BB010008DF
:100110001B65000827650008BB0100086562000830
:10012000BB010008BB010008F92E0008BB01000854
:10013000BB010008BB010008BB010008BB010008AF
:10014000252E0008BB010008BB010008BB01000808
:10015000BB010008BB010008052F0008A7690008C3
:10016000BB010008BB010008BB010008BB0100087F
:10017000BB010008BB010008BB0100080000000033
:10018000BB010008BB010008DFF810D000F06AFCDA
:1001900000F0D8F8004800479575000858AD0020D9
:1001A0000648804706480047FEE7FEE7FEE7FEE711
:1001B000FEE7FEE7FEE7FEE7FEE7FEE75362000824
:1001C0008901000830B410B50348804730BCAE4602
:1001D00030BC024800477047697900088F61000809
:1001E0002DE9F05F0546002092469B46884606466C
:1001F000814640241BE0284641464746224600F0FF
:1002000013FB53465A46C01A914110D31146184663
:10021000224600F0FAFA2D1A67EB01084F462246F3
:100220000120002100F0F1FA17EB00094E41201ED9
:10023000A4F10104DFDC484631462A464346BDE8C6
:10024000F09F2DE9F0410024061B254671F10006C0
:1002500005DA01240027D0EB070067EB0101161E29
:1002600073F1000605DA0027D2EB0702012567EBE0
:100270000303FFF7B5FF86460E4617469C46AC4281
:1002800004D00025D0EB050E65EB010624B100205B
:10029000D2EB000760EB030C704631463A466346EA
:1002A000BDE8F08140EA01039B0703D009E008C9DB
:1002B000121F08C0042AFAD203E011F8013B00F82B
:1002C000013B521EF9D27047D2B201E000F8012B77
:1002D000491EFBD270470022F6E710B513460A46C6
:1002E00004461946FFF7F0FF204610BD421C10F8E7
:1002F000011B0029FBD1801A7047034611F8012B1E
:1003000000F8012B002AF9D11846704730B5054690
:100310000020034600E05B1C934205D2EC5CC85C05
:10032000201A01D1002CF6D130BD70B506460AF076
:1003300093F9046805460A220021304600F096FA37
:100340002C6070BD7CB507480090074801900546B9
:10035000009C04E02046016808448047241DAC420C
:10036000F8D17CBDE8B90008ECB900082DE9FE4FD2
:10037000804681EA0300C00F0C46009021F0004146
:1003800023F00045B8EB0200A94105D240462146C2
:1003900090461C460B46024623F00040104347D0CF
:1003A000270DC7F30A00C3F30A510290401A0190C7
:1003B00040286BDAC3F3130040F4801B0098924688
:1003C00020B10023D2EB030A63EB0B0B01985946D3
:1003D000C0F14002504600F018FA06460D4650465D
:1003E0005946019A00F030FA10EB080061410024F0
:1003F00087EA115284EAE7731A4340D0009A62B345
:10040000019A012A4FEA075215DC001B61EB020139
:100410004FF0004202EA0752CDE90042001C41F5CC
:10042000801132462B4600F09FFA03B0BDE8F08FF2
:1004300040462146F9E7001B61EB0201001C41F533
:10044000801300185B412018A2F5001747EB030149
:1004500040EAD570B6196D4111E06D084FEA3606D5
:1004600045EAC0754FEA0752001B61EB0201001C10
:1004700041F5801149084FEA3000001951413246D8
:100480002B4603B0BDE8F04F00F05FBA00980122A0
:1004900040000023D0EB020263EBE073009821469A
:1004A0004FEAE074B8EB000061EB0401E9E783F088
:1004B00000435BE781F0004158E72DE9FE4F81EAF8
:1004C000030404F0004421F0004100944FF0000BBD
:1004D00023F0004350EA01045ED052EA03045BD0EB
:1004E000C3F30A54C1F30A552C44A4F2F334019423
:1004F000A0FB0254C1F3130141F48011C3F31303B1
:1005000043F4801301FB024400FB034E840A970A64
:1005100044EA815447EA8357A4FB076802958D0A91
:1005200005FB07854FEA932C04FB0C542705029D1D
:100530004FEA065847EA1637B5EB08056EEB070C8D
:10054000870E920E47EA811742EA8312A7FB020147
:10055000B6EB0B0164EB00042B0D43EA0C335E1881
:1005600044EB1C50DA465146E7FB0201C5F3130485
:100570004FEA0B3343EA14534FEA0432019C43EA37
:100580000603A4F10C040294009CCDE900B400F031
:10059000EBF903B0BDE8F08F00200146F9E72DE943
:1005A000F04D81EA030404F0004B21F000451446AD
:1005B0004FF0000A23F0004150EA050220D054EA2F
:1005C00001021DD0C5F30A570246C5F31303C1F358
:1005D0001300C1F30A5640F4801543F48013A7EBCF
:1005E0000608101BD64608F2FD3873EB050002D34F
:1005F00008F1010801E092185B41B8F1000F03DA3D
:1006000000200146BDE8F08D00204FF48011064621
:1006100084460EE0171B73EB050705D3121B63EB33
:10062000050306434CEA010C49084FEA30009218D2
:100630005B4150EA0107EDD152EA030012D082EA91
:10064000040083EA0501084305D0101BAB4106D224
:100650000122002306E000224FF0004302E06FF089
:10066000010253101AEB06004CEB085110EB0A0084
:1006700041EB0B01BDE8F04D00F067B930B5041E49
:1006800071F1000404DB4FF00044404264EB0101CF
:10069000141E73F1000405DB1C464FF00043524268
:1006A00063EB0403801A994101D2012030BD002080
:1006B00030BDF0B4CA17CB0F50405140C61841F1BD
:1006C00000054FEAC372314628004FF0960303D06D
:1006D000B623F0BC00F00BB930460021F9E70EB5A7
:1006E000C10F80EAE0700844CA07002140F233439A
:1006F0008DE80E000A460B4600F036F903B000BD47
:100700000EB540F2334102910021CDE900110A46B5
:100710000B4600F029F903B000BD3EB5CA17CB0F58
:10072000002450405140C0186141DA0740F2334381
:100730000094CDE901232246234600F015F903B0C9
:1007400030BD70B5C1F30A5201F000450024C1F379
:10075000130140F2FF3341F480119A4201DA002084
:1007600070BD40F233439A42A2F2334203DC52425C
:1007700000F05AF800E090402C43F1D0404270BDA8
:1007800000F0004230F000400AD0C10D01F5607168
:10079000C0F3160042EA0151C208400711437047F6
:1007A00000200146704701F0004330B421F00041C1
:1007B00050EA010206D00A0DA2F56072C1F31301DE
:1007C000002A02DC30BC00207047440F44EAC10418
:1007D000C100E01830BC00EBC25000F07FB830B56B
:1007E0000B46014600202022012409E021FA02F5EF
:1007F0009D4205D303FA02F5491B04FA02F5284489
:10080000151EA2F10102F1DC30BD202A04DB203AE2
:1008100000FA02F1002070479140C2F1200320FA53
:1008200003F3194390407047202A04DB203A21FA51
:1008300002F00021704721FA02F3D040C2F12002F9
:100840009140084319467047202A06DBCB17203A0F
:1008500041FA02F043EAE07306E041FA02F3D040C5
:10086000C2F1200291400843194670472DE9F04734
:1008700091460F4680460446002614F8015B2DB1D0
:1008800000F008F90068405DC007F6D12B2D02D0BA
:100890002D2D18D0641E4A463946204600F0FEF839
:1008A00027B13968A14201D1C7F8008071054FF026
:1008B00002040BD54042002803DD09F0CDFE0460A0
:1008C000A007BDE8F08746F48066E4E70028F8DA80
:1008D00009F0C2FE04606FF00040F2E70029A8BFF3
:1008E0007047401C490008BF20F00100704710B459
:1008F000B0FA80FC00FA0CF050EA010404BF10BC0E
:10090000704749B1CCF1200421FA04F411FA0CF13A
:1009100018BF012121430843A3EB0C01CB1D4FEA73
:1009200000614FEA102042BF002010BC704700EB6E
:10093000C35010440029A4BF10BC7047401C49009C
:1009400008BF20F0010010BC704710B5141E73F1F1
:10095000000408DA401C41F1000192185B411A437F
:1009600001D120F0010010BD2DE9F04D92469B46CB
:1009700011B1B1FA81F202E0B0FA80F22032904671
:10098000FFF743FF04460F4640EA0A0041EA0B0125
:1009900053465A46084313D0114653EA010019D072
:1009A000C8F140025046FFF73FFF05460E4650464D
:1009B00059464246FFF729FF084305D0012004E0CD
:1009C00020463946BDE8F08D0020054346EAE07632
:1009D0002C4337430A986305E40AA0EB0800002281
:1009E000FD0A44EA47540A3002D500200146E9E7EF
:1009F000010510196941DDE9084500196941BDE8A3
:100A0000F04DA2E7C1F30A52C1F3130140F2FF33E4
:100A100041F480119A4202DA00200146704740F208
:100A200033439A42A2F2334202DC5242FFF7FCBE49
:100A3000FFF7EBBE30B5041E71F1000404DB4FF08C
:100A40000044404264EB0101141E73F1000405DB15
:100A50001C464FF00043524263EB0403994208BF27
:100A6000904230BD1CB509480090094801900546E8
:100A7000009C06E0E06840F0010394E80700984716
:100A80001034AC42F6D3FFF783FB0000C8B900086E
:100A9000E8B9000800487047CCB200082DE9F05FC3
:100AA00082460078002715468B460AF10104B946B4
:100AB000302801D09DB113E014F8010B01277828EC
:100AC00003D0582801D045B10AE00DB1102D07D14F
:100AD0000027102514F8010B02E0082500E00A2584
:100AE0000026B0460EE005FB080005FB06F10127D5
:100AF00001EB10461FFA80F8B6F5803F00D3B946E7
:100B000014F8010B294600F018F80028EBDABBF1C5
:100B1000000F05D00FB1641E00E05446CBF8004032
:100B2000B9F1000F06D009F097FD02210160C81E3F
:100B3000BDE8F09F48EA0640FAE73A2800D230388C
:100B400020F02002412A01D3A2F13700884201D3CC
:100B50004FF0FF30704730B58C1810F8012B12F0B1
:100B60000F0301D110F8013B120906D110F8012B37
:100B700003E010F8015B01F8015B5B1EF9D101E0B5
:100B800001F8013B521EFBD1A142E6D3002030BD4B
:100B900040F69D30C0F6000005F0BCBF70B584B0D3
:100BA00004464BF60210C0F60000214602F08AF817
:100BB0000FF2045120460822FFF7A8FB002800F09E
:100BC000A3800FF2005120460D22FFF79FFB002863
:100BD00000F0DB800FF2FC4120460422FFF796FB79
:100BE000002800F016810FF2F44120460522FFF79D
:100BF0008DFB002800F01C810FF2E8412046052201
:100C0000FFF784FB002800F055820FF2E0412046F8
:100C10000722FFF77BFB002800F01A810FF2D44176
:100C200020460922FFF772FB002800F025810FF211
:100C3000D04120460922FFF769FB002800F02781F8
:100C40000FF2C84120460422FFF760FB002800F0A5
:100C50002E810FF2C04120460822FFF757FB0028E3
:100C600000F031810FF2B84120460922FFF74EFB18
:100C7000002800F031810FF2B44120460922FFF72D
:100C800045FB002800F033810FF2AC4120460A22D8
:100C9000FFF73CFB002800F034810FF2A84120460A
:100CA0000C22FFF733FB002800F047810FF2A4412C
:100CB00020460922FFF72AFB002800F057810FF297
:100CC000A04120460B22FFF721FB002800F05A81AB
:100CD0000FF2984120460B22FFF718FB002800F086
:100CE0005D814BF60711C0F6000120460C22FFF78C
:100CF0000DFB002800F05F814BF6F100C0F600000C
:100D0000214601F0DFFFC0E04BF60800C0F600000E
:100D100001F0D8FF4BF6A800C0F6000001F0D2FFAA
:100D200040F2B824C2F20004204607F025FF4BF63B
:100D30000215C0F600052846214601F0C3FF2046F3
:100D40004FF40071FFF7C7FA4BF66C00C0F60000D5
:100D500001F0B8FF204607F0A1FE2846214601F029
:100D6000B1FF20464FF40071FFF7B5FA40F2B944E5
:100D7000C2F2000440F2D8402578C2F200000068B8
:100D80008021BDB308F014FA36E040F29070C2F250
:100D90000000D0F83802FFF7F3FC02464BF6930050
:100DA000C0F600000B4601F08DFF40F6DE10C2F2E7
:100DB0000000B0F900104BF64800C0F6000001F04A
:100DC00081FF40F6E010C2F20000B0F900104BF6CF
:100DD0005400C0F6000001F075FF40F6DC10C2F2CE
:100DE0000000B0F900104BF63C00C0F6000001F026
:100DF00069FF04E008F082F985F0010020700E21FF
:100E00004BF66000C0F6000004B0BDE8704001F091
:100E100059BF40F25070C2F20000006808F07AF842
:100E2000002000210022002307F00CFB0121E7E74E
:100E30004FF6D460CFF6FF7001464FF496724FF430
:100E4000967307F0FFFA0A2007F0B4FD0221D7E7F6
:100E5000E01DFFF76AFA40F2FC52C2F2000240F2D3
:100E6000C0411268C2F2000108701046002202233D
:100E700008F060FC0521C3E704F10900FFF755FA0B
:100E800040F2B841C2F2000108700021B8E704F155
:100E90000900FFF74AFA024640F2B840C2F20000E9
:100EA0000178D317012000F0D1FA0421A8E740F21D
:100EB0005870C2F20000006800210222002309F0ED
:100EC00007F80B219CE704F10800FFF72EFA40F227
:100ED000BB41C2F2000107E004F10900FFF725FA67
:100EE00040F2BA41C2F2000108700C2188E704F117
:100EF0000900FFF71AFA40F2BC41C2F20001086093
:100F0000F3E740F2BB4040F2BA4140F2BC42C2F2C9
:100F10000000C2F20001C2F20002007809781668EF
:100F200000220123CDE901324FF4C872002300965C
:100F300001F02CFA01F044FAD7E740F2BB4040F24E
:100F4000BA4140F2BC42C2F20000C2F20001C2F259
:100F5000000200780978166800220123CDE90132E9
:100F600032220023009601F011FABEE704F10900D5
:100F7000FFF7DBF940F60461C2F20001096880B2B4
:100F8000486316E004F10B00FFF7CFF940F6046167
:100F9000C2F20001096880B2C8630AE004F10B00E4
:100FA000FFF7C3F940F60461C2F20001096880B29C
:100FB00088630D2124E704F10C00FFF7B6F94FF028
:100FC000FF3151FA80F0062800F27280DFE800F06D
:100FD0000412090F0619200001200CE00220022152
:100FE00011E001200221032200F0D0FB60E002208A
:100FF000012108E0022001210222032300F098FCD5
:1010000056E0022003210022012300F0C2FD4FE040
:1010100041F2883007F0CEFC012542F6041000248E
:10102000CDE90005072000214FF448720023029407
:1010300001F0ACF901F0C4F95A2001F0C6FC4FF4FC
:101040009676072000214FF448720023CDE9006511
:10105000029401F09BF901F0B3F9522001F0C6FCB3
:101060004FF4C87007F0A6FC40F6B830CDE9000593
:10107000072000214FF448720023029401F086F902
:1010800001F09EF9532001F0A0FC072000214FF44D
:1010900048720023CDE90065029401F077F901F070
:1010A0008FF9462001F0A2FC4FF4C87007F082FCD3
:1010B0001021A5E605F080FC53686F775461736BCF
:1010C0000000000053686F77506172616D65746550
:1010D0007200000053746F7000000000537461725E
:1010E00074000000526573657400000053746174ED
:1010F00075733D005768616C654469723D0000007E
:101100005768616C65506F733D0000004E657874E0
:10111000000000004D5F5A445469643D0000000027
:101120004D5F5A44546469723D0000004D5F5A445B
:1011300054706F733D0000004D5F5A4454737461E6
:10114000727400004D5F5A445473746172746E7708
:1011500000000000536572766F4A61773D00000021
:10116000536572766F57726973743D00536572767A
:101170006F506C6174653D0080B501F0D1FD20B108
:1011800002A0BDE8804001F09DBD80BD52454345B1
:101190004956450D0A00000088B040F2651007F07E
:1011A00009FC40F29074C2F200040120207100F0AA
:1011B0002EFA9FED9A8A9FED9A9A4BF2304804F1ED
:1011C000580504F108070026C0F60008206000BF9B
:1011D000F0B206F0AEF847F8140B2846002142465C
:1011E000B0EE480AF0EE490A04F08AFE0136042EF9
:1011F00005F14805ECD19FED8C8A4BF224429FED1E
:10120000890A04F5BC70C0F600020021F0EE480A1D
:101210000190002704F074FE9FED849A4BF21C416C
:1012200004F5E070C0F60001B0EE490A06F056F889
:101230004BF2204104F5E870C0F60001B0EE490A17
:1012400006F04CF80020C4F27A400021002200236E
:1012500004F50A7CCCF27A41C4F2C822CCF2C8234D
:101260008CE80F00204605F065FF9FED719A04AEF3
:101270000DF10C090DF1080B04F11405204605F0E1
:101280001FFE204605F056FF304649465A46234683
:101290000497CDE9027705F0F7FD2079012831D1D7
:1012A00094ED890A94ED8E1A30EE410A07F014F994
:1012B00040F6E410C2F2000080ED000A0198F0EE62
:1012C000400AB0EE480A04F077FD9DED042A94ED43
:1012D0008A1AD4ED8B0A84ED860AB0EE420A06F033
:1012E00005F89DED032A94ED8C1AD4ED8D0A84ED5A
:1012F000840AB0EE420A05F0F9FF207984ED850AF0
:1013000002E000BF94ED850A94ED841A94ED862ADC
:1013100031EE003A33EE024AB1EE444A8DED044A12
:1013200030EE414A31EE400A34EE424A33EE423A60
:1013300030EE420A03284FF000008DED054A8DED96
:10134000063A8DED070A0FD1311891ED000A00EB36
:101350008002BDEEC00A043010EE101A224410289C
:101360001183F1D14BE000BF2946B0EE480A00BF1F
:10137000321892ED001A043081ED001AB0EEC11A55
:10138000B4EE410AF1EE10FAB8BFB0EE410A1028EF
:1013900001F11401ECD1B4EE490AF1EE10FA0DDDC1
:1013A00089EE000A142000BF211891ED001A1430B4
:1013B00020EE011A642881ED001AF5D104F1100A1B
:1013C0004FF058089AEC020A04EB080004F0F4FC11
:1013D00008F14808B8F5BC7F0AF1140AF2D104F10B
:1013E0007800002190ED000A6318BDEEC00A1431A8
:1013F00010EE102A502900F148001A83F2D1B4F9F6
:101400001800B4F92C10B4F94020B4F9543007F0A6
:1014100019F8052007F0CEFA30E700BF0080BB4581
:101420000000FA440000C842000000006F12033BB5
:1014300000007A4480B5002000210022002307F03C
:1014400001F8BDE8804005F0ADBF00002DE9F04196
:10145000154642F21072A5FB0247804603FB02705C
:1014600040F29077C2F200071E4687F80012C7E9E3
:101470007840C7E97A4007F01DF897F80002102875
:101480000AD128463146FFF714F90021C7E978113F
:10149000C7E97A11C7F82402B8F1000F18BFBDE8F8
:1014A000F08140F248750024C2F2000528684FF030
:1014B000FF3108F05BFB632C04F10104F6D3BDE8B7
:1014C000F08100000138052800F2978080B5DFE840
:1014D00000F0036B2E4C0F70002004214FF4FA72C1
:1014E0000023FFF7B3FF0020012141F268027FE0F3
:1014F000002010214FF487720023FFF7A7FF002080
:10150000012141F658320023FFF7A0FF00201021EF
:10151000B4220023FFF79AFF0020012140F2DC52A1
:101520000023FFF793FF00201021002260E000203D
:101530001021B4220023FFF789FF0020012140F68B
:10154000C4120023FFF782FF002010215A2200233B
:10155000FFF77CFF0020012146F660520023FFF7D1
:1015600075FF00201021B42242E00020102100224B
:101570000023FFF76BFF0020012141F664120023D6
:10158000FFF764FF002010214FF487720023FFF75C
:101590005DFF002001214FF4FA520023FFF756FFB0
:1015A000002010215A2223E00020012141F6583268
:1015B0001EE0002010214FF487720023FFF746FF42
:1015C0000020012141F658320023FFF73FFF0020A1
:1015D0001021B4220023FFF739FF0020012146F635
:1015E00060520023FFF732FF002004214FF4FA720B
:1015F0000023FFF72BFFBDE8804040F25870C2F295
:101600000000006800210222002308F061BC40F6BF
:10161000D810C2F20000704741F22960C0F6000005
:1016200005F0B8BA0000000080B5808841F2B461CE
:10163000C2F200010880B1F90000FFF750F89FEDF9
:101640000A0B53EC102BFEF738FF9FED090B53EC00
:10165000102BFEF732FFFFF7A6F840F6D811C2F2C2
:101660000001086080BD00BF000000000000003FD6
:10167000000000000080664080B503F0A7FF00284E
:1016800018BF012080BD40F2D04CC2F2000C0CEB20
:10169000800041708270C370704740F2D040C2F247
:1016A000000070470538C0B202288EBF002002A19A
:1016B00051F82000704700BF0C0000201C000020E3
:1016C0002C000020F0B583B040F22C06C2F20006D8
:1016D0007168012704460025CDE900170720002185
:1016E00064220023029500F051FE00F069FE4620BE
:1016F00001F07CF9204601F071F9F0680021CDE994
:101700000007072064220023029500F03FFE00F04E
:1017100057FE5A2001F059F970680021CDE9000701
:10172000072064220023029500F030FE00F048FEFE
:10173000522001F05BF9B0680021CDE900070720D5
:1017400064220023029500F021FE00F039FE5320B0
:1017500001F03BF970680021CDE900070720642201
:101760000023029500F012FE00F02AFE462001F050
:101770003DF940F25870C2F20000006800210222D8
:10178000002303B0BDE8F04008F0A2BB2DE9F04F04
:1017900085B0034640F2D040C2F20000C45C455C14
:1017A000865C4BF6B210C0F6000019461A468DF85A
:1017B00011408DF812508DF8136001F083FA4BF64A
:1017C0009F10C0F6000021462A46334601F07AFAFF
:1017D00040F20C0940F21C0840F22C0B00260DF1DF
:1017E000110AC2F200090124C2F20008C2F2000B81
:1017F000002700BF462001F0F9F81AF80750012130
:1018000059F82500C822CDE90004052000230296DE
:1018100000F0BCFD58F825000021CDE900040620A9
:10182000C8220023029600F0B1FD4FF4C870002FCB
:1018300008BF4FF4FA7007F0BDF8DBF81000002184
:10184000CDE90004072064220023029600F09EFDEB
:1018500000F0B6FD5A2001F0B8F8DBF808000021CE
:10186000CDE90004072064220023029600F08EFDDB
:1018700000F0A6FD522001F0B9F84FF4C87007F04F
:1018800099F8DBF80C000021CDE900040720642260
:101890000023029600F07AFD00F092FD532001F043
:1018A00094F8022F0ED0DBF808000021CDE90004E7
:1018B000072064220023029600F068FD00F080FDFE
:1018C000013797E7DBF8040001250024CDE9000586
:1018D0000720002164220023029400F057FD00F04D
:1018E0006FFD462001F082F8D9F808000121CDE90A
:1018F00000050520C8220023029400F047FDD8F817
:1019000008000021CDE900050620C822002302942A
:1019100000F03CFD40F25870C2F200000068002167
:101920000222002305B0BDE8F04F08F0D1BA000054
:101930002DE9F04F85B0044640F2D040C2F20000DD
:1019400000EB840010F801B010F80280C75C4BF681
:10195000B210C0F600000A460B460E468DF811B0D4
:101960008DF812808DF8137001F0ACF94BF69F10D2
:10197000C0F60000594642463B4601F0A3F9304606
:1019800001F02CF840F22C0500260DF11109012779
:10199000C2F200054FF00008522001F027F819F8B4
:1019A00008A040F20C00C2F2000050F82A00012109
:1019B000CDE900070520C8220023029600F0E6FCCE
:1019C00040F21C00C2F2000050F82A000021CDE9CC
:1019D00000070620C8220023029600F0D7FC4FF42F
:1019E000C87006F0E7FFE8680021CDE9000707208E
:1019F00064220023029600F0C9FC00F0E1FC5A20AA
:101A000000F0E3FFA8680021CDE900070720642269
:101A10000023029600F0BAFC00F0D2FC462000F051
:101A2000E5FF4FF4C87006F0C5FF5846B8F1020F45
:101A30001CBF09EB0800407800F0D0FF012C15D046
:101A4000022C27D168690021CDE900070720642214
:101A50000023029600F09AFC00F0B2FC532000F044
:101A6000B4FFB8F1020F1BD12CE000BF28690021A0
:101A7000CDE90007072064220023029600F086FCCF
:101A800000F09EFC532000F0A0FFB8F1020F07D138
:101A900015E000BF532000F098FFB8F1020F20D0EE
:101AA000A8680021CDE900070720642200230296E0
:101AB00000F06CFC00F084FC08F101086CE705F113
:101AC000140000E0281D006801210027CDE9000175
:101AD0000720002164220023029700F057FC00F049
:101AE0006FFC40F25870C2F2000000680021022230
:101AF000002305B0BDE8F04F08F0EAB9B0B584B0F6
:101B000040F20C00C2F20000806801250024CDE9FB
:101B1000000505200121C8220023029400F036FCB4
:101B200006200021C8220023CDE90045029400F0E0
:101B30002DFC522004B0BDE8B04000F057BFB0B556
:101B400084B040F20C00C2F200008068012500243D
:101B5000CDE9000505200121C8220023029400F0F0
:101B600015FC40F21C00C2F2000080680021CDE9A3
:101B700000050620C8220023029400F007FC46203E
:101B800000F034FF4FF4FA6004B0BDE8B04006F056
:101B900011BFF0B583B041F2C465C2F200052870F0
:101BA00041F2C56440F27025C2F20004C2F20005A1
:101BB0002170AA702B7023BB40F2EC50C2F20000DF
:101BC0000068012780680026CDE900070520012173
:101BD000C8220023029600F0D9FB40F2F050C2F276
:101BE0000000006800218068C822CDE900070620B7
:101BF0000023029600F0CAFB4FF4FA7006F0DAFEFA
:101C00002B78012B2FD140F2CC46C2F2000640F2D5
:101C1000EC5031682278C2F200000068895C01272C
:101C200050F821000025CDE9000705200121C82238
:101C30000023029500F0AAFB40F2F05031682278B0
:101C4000C2F200000068895CC82250F8210000211F
:101C5000CDE9000706200023029500F097FB4FF422
:101C6000FA7006F0A7FE40F2D840C2F20000006809
:101C7000022103B0BDE8F04007F09ABA80B541F602
:101C8000C140C0F6000004F08CFF0520FFF70AFDFC
:101C900040F2EC51C2F2000108600620FFF702FD9D
:101CA00040F2F051C2F200010860FFF7F6FC40F28A
:101CB000CC41C2F20001086080BD000000000000BD
:101CC0002DE9F04F81B02DED028B84B0B0F80110FA
:101CD00040F27027C2F20007B9803A78B0F80340AA
:101CE000012AFC8025D0002A40F06F81027841F261
:101CF000C460C2F200000078012A08BF012800F089
:101D0000AB80102A08BF022840F05F8142F6FA300B
:101D1000C2F20000018042F6FC30C2F200000A0468
:101D2000048018BF5FEA044040F0678100207870AB
:101D30005AE2080418BF5FEA044000F04481A0B2F0
:101D4000C0F1F00000EE100AF88A89B2081A01EE1C
:101D5000100AB8EEC00AF8EEC10A08F081FC9FED47
:101D6000EF1A20EE010A10EE100AFEF709FD9FEDB2
:101D7000EC0B53EC102BFEF712FC9FEDEB0B53EC2E
:101D8000102BFEF7F3FAFEF70EFDF9888146C1F13C
:101D9000F00000EE100AB888F98AB8EEC00A401ABE
:101DA00001EE100AB8EEC11A21EE011A20EE000A67
:101DB00030EE011AB1EEC11A388B00EE109AC0F164
:101DC000F00002EE100AB8EEC22A31EE428ABDEEF1
:101DD000C01A11EE101A0AB2B98181EAE231A1EB00
:101DE000E231BDEEC81A89B241F2C56A40F2F05440
:101DF00040F2CC4B40F2EC5811EE100A0229C2F22C
:101E0000000AC2F20004C2F2000BC2F200083881DC
:101E10003ED801B280EAE130A0EBE13080B2022886
:101E200036D89AF800100FF2B04000F04BFF40F2A5
:101E30005870C2F200000068002102220023002531
:101E400008F046F840F2D840C2F2000000680221D3
:101E500007F054F9FD707DE0B878012800F0BB80F0
:101E6000002840F0B28042F6FA3B42F6FC39C2F25A
:101E7000000BC2F200090804ABF80010A9F80040FA
:101E800018BF5FEA044040F0D7800020787011E26C
:101E9000B3EE041A20EE010ABDEEC00A10EE100ADD
:101EA00028EE010ABDEEC00A10EE101ADBF8002081
:101EB0009AF80030B88139812668D55C56F82540FB
:101EC000214446F82510D8F80010D55C51F825407B
:101ED000204441F82500D05C42F2486456F8205076
:101EE000A542B8BF2C4624EAE47546F82050D05CE1
:101EF00041F6583451F82050A542B8BF2C4624EA88
:101F0000E47541F82050D05C012456F820000025EB
:101F1000CDE900040620002114220023029500F0E0
:101F200035FADBF800009AF80010D8F80020405C81
:101F3000012152F820001422CDE9000440F2F054AF
:101F400005200023C2F20004029500F01FFA64206D
:101F500006F030FD388940F6DE11C2F2000108803B
:101F6000B88940F6DC11C2F20001088018EE100AB0
:101F7000FEF706FC054648460E46FEF701FC41EC1E
:101F8000100B4BF64010C0F600002A4633468DED8C
:101F9000000B00F097FEB7F90810B7F90C20D6A097
:101FA00000F090FE9AF80010DBF800002268405C18
:101FB000D8F8003052F8202053F82060D8A00B4603
:101FC000009600F07FFE0020787004B0BDEC028B1C
:101FD00001B0BDE8F08F42F6FA30C2F20000018095
:101FE00042F6FC30C2F200000A04048018BF5FEA27
:101FF00004404AD10020787084E0F88A0D1A29B292
:1020000085EAE132388BA2EBE132B97E92B2201A36
:102010008A423D8178817AD802B280EAE230A0EB30
:10202000E23080B2884272D8F878F97E884280F037
:10203000B2800130F870C4E042F6FE32C2F2000213
:10204000B7F80E80B7F810A0B2F800C01FFA81FEF2
:10205000A1EB0806A4EB0A03BEEB0C003E817B81DA
:1020600048BF4042042863D842F60040C2F2000054
:102070000088A5B2281A48BF4042042858D8FD78E5
:10208000387D854257D2013554E0F8893A8A081ADA
:1020900001B280EAE133A3EBE133F97C9BB2A21AEF
:1020A0008B4238817A811BD813B282EAE336A6EBE1
:1020B000E3339BB28B4213D840F25870C2F2000057
:1020C000006800210222002307F002FF40F2D840FE
:1020D000C2F200000068022107F010F838897A89FE
:1020E00040F6DE11C2F20001088040F6E011C2F2B3
:1020F00000010A8001B24BF6321012B2C0F60000A5
:1021000000F0E0FD4BF61410C0F60000D6E0002011
:10211000F87004F017F83D8953E000BF0000344325
:10212000182D4454FB21094000000000008056C0D7
:10213000387D0025FD708542C0F0A28030B286EA6D
:10214000E031A1EBE031B87C89B2814251D819B2BB
:1021500083EAE133A3EBE13189B2814249D840F20D
:102160005870C2F2000000680021022200230024FF
:1021700007F0AEFE40F2D840C2F200000068022133
:1021800006F0BCFFC7F80340FC71ABF80040A9F8AB
:102190000040002170E040F25870C2F20000006878
:1021A000002102220023002507F092FE40F2D840D1
:1021B000C2F200000068022106F0A0FFFD70BD81A0
:1021C0003D8140F6DE10C2F200000580B7F90A201A
:1021D00040F6E010C2F2000002804BF6321029B245
:1021E000C0F6000000F06EFD4BF67D10C0F600005A
:1021F00064E00CEB0E00FEF772FA9FED350B55EC28
:10220000109B4A462B46FEF758F9064640468B4639
:10221000FEF776FA02460B4630465946FEF747F976
:10222000FEF78FFA42F60041C2F2000109883881B8
:1022300011FA84F0FEF753FA4A462B46FEF73DF9B1
:10224000054650460E46FEF75BFA02460B46284608
:102250003146FEF72CF9FEF774FA788103F072FF2D
:1022600042F6FA3142F6FC32C2F20001C2F200023A
:10227000098814880020F87042F6FE32C2F200028B
:1022800042F60040C2F200001180048040F6DE10E9
:10229000B7F90810C2F20000B7F90A20018040F631
:1022A000E010C2F2000002804BF63210C0F60000CF
:1022B00000F008FD4BF66010C0F6000004B0BDEC65
:1022C000028B01B0BDE8F04F00F0FCBC00BF00BFC6
:1022D000000000000000E03F2A2A2A2A2A2A2A2A8F
:1022E000202564202A2A2A2A2A2A2A2A2A204361E7
:1022F0006C4F6B0D0A00000064436F6F72645F588F
:102300003D253564202020202020202020206443EB
:102310006F6F72645F523D2535640D0A0000000046
:102320004D4F544F525F585F506F735B25645D3D56
:102330002535642020204D4F544F525F525F506F1F
:10234000735B25645D3D2535640D0A0010B540F2D0
:102350007024C2F2000462781AB903F01FFA012057
:10236000607003F0A1F908B10020607010BD80B565
:102370000520002100F0FEFD0620002100F0FAFDFE
:1023800007200021BDE8804000F0F4BD2DE9F047B2
:1023900084B00CAE70CE984691468A46074604F04B
:1023A0005DFD384651464A464346CDE90045029612
:1023B00000F0AFFD0A2004B0BDE8F04706F0FABA1D
:1023C00004F058BD80B582B040F2FC50C2F200006B
:1023D000002100688DF807100DF10701002207F0B9
:1023E00001FB012809D19DF8071042F6F930C2F22D
:1023F0000000017002A000F065FC02B080BD00BFCB
:10240000735F7563537461747573203A2025640D8E
:102410000A000000F0B58BB003A82021FDF75BFF98
:1024200040F20130ADF8080040F2012042F6F937E1
:10243000C0F20320C2F20007019038780021292859
:10244000009100F25982DFE810F04901FA00910191
:102450003101E0001401A901570257025702BD01E2
:1024600057025702570257025702570257025702A4
:1024700057020A022A002A002A005702570257026E
:102480005702570257029800730050015702570233
:10249000570257025702570257027401310240F2A5
:1024A000C141C2F200010978002918BF0330153874
:1024B000C4B24BF24E60C0F60000214600F002FCB0
:1024C00001A8055D0120294601220023FFF761FBD9
:1024D0006E4600204FF0FF3132464FF0FF3307F0D9
:1024E00043FE4BF2CA70C0F60000214600F0EAFB42
:1024F0002846FFF7E7F800204FF0FF3132464FF053
:10250000FF3307F031FE38780321172838BF411C0C
:10251000C8B20328397040F0EF81FFF7EFFA40F2BC
:10252000D840C2F200000068022106F0E7FDE3E1B6
:102530004BF2B560C0F6000000F0C4FB40F2C140B1
:10254000C2F20000007801AB60F3000360F34103C6
:1025500019785A789B780120FFF7EAF96A4600203B
:102560004FF0FF314FF0FF3307F0FEFD20203870B1
:102570004BF2D460C0F60000BCE14BF22B70C0F609
:10258000000000F09FFBFFF7DAFA02200221002290
:102590000023FFF7FEFA6C4600204FF0FF31224681
:1025A0004FF0FF3307F0E0FD02200321002201235A
:1025B000FFF7EFFA00204FF0FF3122464FF0FF33D4
:1025C00007F0D2FD0220012100220123FFF7E1FAEA
:1025D00000204FF0FF3122464FF0FF3307F0C4FDDB
:1025E0000220022100220123FFF7D3FA00204FF03E
:1025F000FF3122464FF0FF3307F0B6FD1F20387041
:102600004BF24870C0F6000074E14BF22450C0F663
:10261000000000F057FBFFF771FA0420FEF752FFAD
:102620006A4600204FF0FF314FF0FF3307F09CFD6A
:10263000282038704BF24B50C0F600005AE14BF2A4
:102640009770C0F6000000F03DFBFFF757FA01203D
:10265000FEF738FF6A4600204FF0FF314FF0FF339E
:1026600007F082FD022038704BF2B170C0F6000016
:1026700040E14BF2B850C0F6000000F023FBFFF73A
:102680003DFA0520FEF71EFF6A4600204FF0FF319D
:102690004FF0FF3307F068FD40F2C140C2F2000086
:1026A0000121017014203870A6A023E14BF2715073
:1026B000C0F6000000F006FB0320FEF703FF6A46A9
:1026C00000204FF0FF314FF0FF3307F04DFD1E208B
:1026D00038704BF29550C0F600000BE14FF4FA70E1
:1026E0000BB0BDE8F04006F065B94BF21360C0F6E0
:1026F000000000F0E7FA40F2C140C2F200000078AA
:1027000001AA60F3000260F34102107851789278D8
:10271000FFF73CF86A4600204FF0FF314FF0FF33DF
:1027200007F022FD042038704BF23160C0F6000043
:10273000E0E04BF2F260C0F6000000F0C3FAFFF7F1
:10274000FEF90220022100220023FFF722FA6A4646
:1027500000204FF0FF314FF0FF3307F005FD292037
:1027600038704BF20F70C0F60000C3E04BF2DC5043
:10277000C0F6000000F0A6FA0220FEF7A3FE6A46AB
:1027800000204FF0FF314FF0FF3307F0EDFC142035
:1027900038704BF2F850C0F60000ABE057A000F0E4
:1027A00091FAFFF7ABF90620FEF78CFE6A4600208F
:1027B0004FF0FF314FF0FF33002407F0D5FC58A055
:1027C0003C7097E040F2C245C2F20005287838B963
:1027D0004BF26B60C0F6000000F074FA0120287024
:1027E00003AC204603F0D6FB002800F085804BF2B6
:1027F000ED70C0F60000214607F0DCFE002001A9C4
:10280000002200BFD3B2E35C2B2B08BF0132D3B24E
:10281000E35C0132303B0B5401300628F2D103A8AF
:1028200003F014FC40F25870C2F20000006800216E
:10283000022200230224002607F04AFB6A460020F9
:102840004FF0FF314FF0FF3307F08EFC4BF2816009
:10285000C0F600003C7000F035FA2E704CE04BF2F0
:102860006470C0F6000000F02DFAFFF768F940F23E
:10287000C140C2F20000007801A960F3000160F3DA
:1028800041010978012000220023FFF782F96A46FE
:1028900000204FF0FF314FF0FF3307F065FC1520AB
:1028A00038704BF27E70C0F6000023E04BF2966069
:1028B000C0F6000000F006FA40F2C144C2F2000483
:1028C000207801AB60F3000360F3410319785A7874
:1028D0009B78FFF72DF86A4600204FF0FF314FF04C
:1028E000FF3307F041FC20780521002818BF06219E
:1028F00039701DA000F0E6F90BB0F0BD454E54450F
:1029000052205354415455535F50726F5365634185
:102910007265615F325F53746172740D0A0000006A
:1029200045584954205354415455535F50726F5386
:102930006563417265615F325F53746172740D0A41
:102940000000000045584954205354415455535FEA
:1029500050726F536563417265615F325F52617798
:10296000417265610D0A0000455849542053544195
:102970005455535F50726F53656341726561506C7B
:102980006163650D0A00000082B040F2D84441F254
:10299000C46641F2C567C2F200044FF0FF35C2F2CF
:1029A0000006C2F2000700BF2068022100220023B7
:1029B000009506F04BFC800703D530783978FFF797
:1029C000C5FC642005F0F6FFEEE780B503F068FB78
:1029D0004FF4C870BDE8804005F0ECBF80B503F04F
:1029E00071FB6420BDE8804005F0E4BF03F080BBCC
:1029F0007047000082B040F2D844C2F20004206860
:102A0000012106F0D5FB4FF0FF3500BF2068012102
:102A100000220023009506F019FCC00718BFFEF73E
:102A2000ABFB0A2005F0C6FFF0E7FEF7B5BB0000E0
:102A3000FEF722FE052005F0BDFFF9E7FFF7C2FC17
:102A4000FFF7E8FC0A2005F0B5FFF7E7FFF79CBFAA
:102A50008EB00520FEF726FE40F2C441C2F200010E
:102A600008600620FEF71EFE40F2C84140F2D8443E
:102A700040F2907BC2F20001C2F200044FF0FF3539
:102A8000C2F2000B086000BF2068802100220023F2
:102A9000009506F0DBFB000640F1CA80DBF8100071
:102AA000DBF82440DBF83850DBF84CA0FDF768FE7B
:102AB000804620468946FDF763FE41EC180B284608
:102AC000FDF75EFE41EC190B5046FDF759FEDBF8B1
:102AD000104241EC1A0B2046FDF752FE41EC1B0B55
:102AE00084F00040FDF74CFEDBF8144241EC1C0B77
:102AF0002046FDF745FE41EC1D0B84F00040FDF73C
:102B00003FFE41EC100B4BF2C540C0F600004246C0
:102B10004B468DEC0C8B8DED0C0B07F04BFD40F60E
:102B2000E410C2F200000068FDF72AFE0446DBF85C
:102B300018020D46FDF724FE41EC100B4BF2155028
:102B4000C0F6000022462B468DED000B07F032FD4B
:102B5000DBF81400DBF82860DBF83C70DBF8504051
:102B6000FDF70EFE804630460D46FDF709FE41ECAE
:102B7000180B3846FDF704FE41EC190B2046FDF713
:102B8000FFFD41EC100B4BF2F540C0F60000424651
:102B90002B468DEC048B8DED040B07F00BFDBBF980
:102BA0001810BBF92C20BBF94030BBF9547022A09F
:102BB000009707F0FFFCDBF80800DBF81C10DBF8DF
:102BC0004460DBF83070D0E90A23D1E90A01D6E984
:102BD0000A64D7E90A75DBE97CCE8DE88300CDE98C
:102BE000046440F2D8441BA003954FF0FF35C2F2B5
:102BF0000004CDF818C0CDF81CE007F0DBFCDBE9E1
:102C0000782320A007F0D6FC40F2C440C2F20000B6
:102C10000068031D0ECB1FA007F0CCFC40F2C8409B
:102C2000C2F200000068031D0ECB20A007F0C2FC1A
:102C3000322005F0BFFE27E77B676976655F637525
:102C40007272656E747D25642C25642C25642C2598
:102C5000640A00007B746F74616C5F616E676C6501
:102C60005F6F66667365747D256C6C642C256C6C77
:102C7000642C256C6C642C256C6C642C256C6C6449
:102C80000A0000007B6469735F7365747D256C6C5A
:102C9000640A00007B4D4F544F525F525F506F7378
:102CA0007D25642C25642C25640A00007B4D4F543F
:102CB0004F525F585F506F737D25642C25642C251F
:102CC000640A000083B0B0B5ADF20C4D84460DF13E
:102CD0000B04CDF81C14CDF82024CDF824340DF2CB
:102CE0001C43204640F201416246019307F086FCF6
:102CF00040F2F455C2F2000528684FF0FF3104F0AD
:102D0000F2FC06A0214607F055FC286804F046FDB9
:102D10000DF20C4DBDE8B04003B0704725730000C4
:102D20002DE9F04782B000250DF1070100208DF854
:102D3000075004F042FA00283FD042F6F83640F23D
:102D4000582741F2B868C2F20006C2F20007C2F288
:102D500000080DF107044FF001094FF0000A00BF11
:102D6000307898B138783E281AD89DF807107B7AC9
:102D700078683A78994215D18554D8F80020AAB1DC
:102D80003978904735704FF0010A0FE09DF8070041
:102D90007978884204BF86F800903D7006E000BF55
:102DA000357003E0531C3B70815400BF0020214666
:102DB00004F003FA0028D3D101E04FF0000A5FFAD3
:102DC0008AF002B0BDE8F087FEE740F6F410C2F2E8
:102DD000000000F037BA10B540F2086440F6F41075
:102DE000C2F2000440F20063C2F20000C2F200032B
:102DF0000021224600F095F92068A0F20121032964
:102E000088BF10BD013841F24801C0B2C2F20001D2
:102E100001EB801040F20061C2F20001BDE81040F9
:102E200004F08EBA40F61C20C2F2000000F00ABA8C
:102E3000B0B540F22C6540F2246440F61C20C2F28A
:102E40000005C2F20004C2F2000000212A46234617
:102E500000F067F900B1B0BD40F28570C2F2000029
:102E600000786968B0EB112F0ED12078FD280BD1C6
:102E700060789F2808D1A0786B2805D140F2847033
:102E8000C2F200000121017040F22C60C2F2000089
:102E90001C21FDF720FAB0BD40F60430C2F200005C
:102EA00000F06ABC40F64450C2F2000000F064BC7E
:102EB00040F64420C2F2000000F05EBC40F6A45090
:102EC000C2F2000000F058BC40F6A420C2F200009C
:102ED00000F052BC40F68440C2F2000000F04CBC4E
:102EE00040F6E440C2F2000000F046BC40F6643018
:102EF000C2F2000000F040BC40F6C430C2F2000054
:102F000000F03ABC40F62440C2F2000000F034BCAD
:102F10007047B0B584B0DDE9084E8DF80000FD20A3
:102F20008DF80100100A8DF80300200E8DF80600C0
:102F3000200C8DF80700200ADDF828C08DF8080065
:102F40006B2000258DF802108DF80C0068460D21CD
:102F50008DF80F50ADF80D508DF804208DF8053028
:102F60008DF809408DF80AE08DF80BC003F0E2FE01
:102F700004B0B0BD80B584B08DF8000049F6FE0005
:102F8000ADF801006B2000228DF803108DF80400CD
:102F9000684605210392CDF80920CDF8052003F0FD
:102FA000C9FE04B080BD000072B600BFFEE710B5D8
:102FB00090F820E0D0F800C0AEF1010EBEF1010F94
:102FC000DCF808E011D81EF0E05F14D0CEF3016405
:102FD0000120A04018608B689BB1D1F804E0C8685C
:102FE00040EACE0040EA030E0FE000F12403012086
:102FF0004FF4802121E000F1240301204FF400115F
:103000001BE00868CB6843EA405E0CF5C07000EB3B
:103010000413240140F804E00C69184640F8044FFA
:10302000097D012903D1016841F480710160506874
:103030000121D8601068986000201A681143196057
:1030400010BD90F82020013A012A30D8B0B546F2E0
:103050000060C4F20000026842F0010202600268EF
:1030600022F47C520260D1F814E0CC694A6A036809
:10307000012C43EA022202600EF01F024FF001030E
:1030800003FA02F2C3696FEA020C23EA0203C36186
:1030900013D02CBBC36803EA0C03C360CB688C88D5
:1030A00044EA034300EBCE0423640B4611E0416A7B
:1030B00041F48021416201207047C3681343C3601B
:1030C0000B688C8844EA034300EBCE04236401F1CF
:1030D0000C038C681B8843EA044300EBCE04636452
:1030E00043688D6943EA0204D1F810E0096A002DB3
:1030F00008BF03EA0C0444604369BEF1000F43EAD1
:10310000020408BF03EA0C040129446102D1C16929
:103110001143C161016821F0010101600020B0BDCF
:103120007047B0B590F82040013C012C7AD8D0F817
:1031300000C000290CBFDCF80C40DCF81040A407EC
:1031400076D00CF5D8754FEA011C55F80C4014F0F8
:103150000404946055F80CE005EB011C19BF4FEA1C
:10316000DE0555604FEA5E551560DCF80050E64616
:1031700005F00205D5605EF8044F24075ABFDEF85B
:10318000004004F00F0408241461DEF80040002918
:10319000C4F307249461DEF800504FEA15455561E9
:1031A000DCF808201A70026802EB0112D2F8B8218C
:1031B0004FEA12225A70026802EB0112D2F8B821CB
:1031C0004FEA12429A70026802EB0112D2F8B8215B
:1031D0004FEA1262DA70026802EB0112D2F8BC21E7
:1031E0001A71026802EB0112D2F8BC214FEA1222D6
:1031F0005A71026802EB0112D2F8BC214FEA124266
:103200009A71026802EB0112D2F8BC214FEA1262F5
:10321000DA7100680CBF00F10C0100F11001002010
:1032200020220AE000F1240101204FF4802204E072
:1032300000F1240101204FF400120B681A430A60C8
:10324000B0BD00002DE9F04F81B00446006846692A
:10325000D0F804908768D0F80CB0D0F810A0D0F85F
:103260001880F10701D1002549E0F9070ED00121AE
:10327000BA07816007D478071DD4380721D42046C7
:1032800000F020FA02E0204600F01DFA0025F805C3
:103290001CD520684FF48071BA05816007D4780589
:1032A0000CD4380510D4204600F00EFA0EE020466B
:1032B00000F00BFA0AE04FF40065E8E705F5005569
:1032C00004E04FF48055E2E705F58045F80316D594
:1032D00020684FF48031BA03816007D4780309D4A1
:1032E00038030AD4204600F0F1F908E0204600F047
:1032F000EEF904E005F5004501E005F580353007FD
:1033000007D51BF0100004D0206845F4007510218B
:10331000C160700708D51BF0080005D0206808219F
:10332000C160204600F08CF9B00706D52068C0685F
:10333000800702D0204600F084F9700607D51AF005
:10334000100004D0206845F4806510210161B006AA
:1033500008D51AF0080005D0206808210161204630
:1033600000F080F9F00606D520680069800702D0D9
:10337000204600F078F9B00308D519F0100005D008
:10338000206810214160204600F06EF9F00308D556
:1033900019F0080005D0206808214160204600F09F
:1033A00097F9300440D55FEA49703AD506F4807049
:1033B00008EA102028435FEA8871014648BF41F0BF
:1033C0000201B20558BF01465FEA48700D4648BF8A
:1033D00045F00405700558BF0D46300521D518F09D
:1033E00070001ED010380009052815D8DFE800F05D
:1033F000030F090C061245F008050DE045F08005A5
:103400000AE045F0200507E045F0400504E045F0FE
:10341000100501E045F480752068816921F0700194
:1034200081612068042141604DB1606A40EA050174
:103430002046616201B0BDE8F04FFFF771BE01B0F8
:10344000BDE8F08FD0B1B0B5044690F8200010B9B7
:10345000204600F06FF82068016841F0010101602A
:1034600000F027FC054600BF20684168C90707D166
:1034700000F01FFC401B0B28F6D312E00120704720
:10348000016821F00201016000F013FC054600BF55
:103490002068416889070BD500F00BFC401B0B2806
:1034A000F6D3606A052140F40030606201203EE0FE
:1034B000217E0268012922F0800208BF803202606A
:1034C000617E0268012922F0400208BF403202609A
:1034D000A17E0268012922F0200208BF203202608A
:1034E000E17E0268012922F0100218BF103202604A
:1034F000217F0268012922F0080208BF0832026019
:10350000617F0268012922F0040208BF04320260D0
:10351000D4E901C2D4E9033561691A432A4311434E
:10352000ACF101021143C16100200121606284F805
:103530002010B0BD10B586B0044601A81421FCF7D8
:10354000CAFE206846F60001C4F2000188422ED06F
:1035500046F20041C4F2000188426FD140F2DC41E2
:10356000C2F200010A6843F63000C4F20200531CA4
:103570000B6052B900210091016941F000710161B5
:10358000016901F00071009100990021009101682A
:10359000142441F00101016000684FF4C05100F0B3
:1035A0000100009000980020C4F2020032E043F6CF
:1035B00030000021C4F202000091026942F08062F2
:1035C0000261026902F080620092009A40F2DC42DD
:1035D000C2F2000213685C1C14604BB900910269CE
:1035E00042F000720261026902F000720092009AD9
:1035F00000910168402441F00201016000684FF42D
:10360000405100F00200009000980020C4F2020037
:1036100000F58060019102210291002103910321B4
:1036200004910921059101A900F072FA20460521B3
:10363000002200F0F5FB204600F0E2FB06B010BDD2
:10364000704740F6F411C2F20001884208BFFFF74C
:10365000C2BB40F61C21C2F20001884218BF70476D
:10366000FFF7E6BB7047704770470000B0B50446EF
:1036700090F8200001281CD1022084F82000206846
:10368000016821F00101016000F013FB054600BF55
:1036900020684068C00712D000F00BFB401B0B28CD
:1036A000F6D3606A40F400306062052084F82000A0
:1036B00003E0606A40F4002060620120B0BD002099
:1036C0006062B0BD70477047704770477047704781
:1036D0007047000070B5866D044600F0EAFA94F871
:1036E0003510022925D105462068216C026822F098
:1036F00016020260426922F08002426109B9A16C9F
:1037000019B1016821F008010160016821F001018F
:10371000016000BF20680068C0070ED000F0C9FA41
:10372000401B0628F6D320206065032084F835006E
:103730000CE080206065012008E0E06D3F2101FA87
:1037400000F0B060012084F835000020002184F8EA
:10375000341070BD90F83510022909D1052180F888
:1037600035100068016821F00101016000207047F8
:103770008021416501207047F0B581B004460020EA
:10378000009040F25020C2F200000268D4E91660B6
:1037900048F2B51337680821C1F64E3381403942EB
:1037A000A2FB03250CD0226813685B0708D51368B9
:1037B00023F004031360B160616D41F001016165A4
:1037C00001218140394208D022685269120604D58D
:1037D000B160616D41F002016165042181403942AF
:1037E00008D022681268920704D5B160616D41F07B
:1037F0000401616510218140394217D020680268B8
:10380000120713D5B16002680168520306D4C905D6
:1038100006D4016821F00801016001E0080301D429
:10382000216C00E0A16C09B120468847E16D2020A1
:1038300000FA01F23A423CD020680368DB0638D532
:10384000B26094F835300268052B1AD122F01602C6
:103850000260426922F080024261226C0AB9A26CC5
:103860001AB1026822F0080202603F208840B0606E
:10387000012084F83500216D002084F83400B9BBA4
:103880003BE0016852030CD4C9050ED4016821F055
:1038900010010160012084F83500002084F8340014
:1038A00003E0080301D4616C00E0E16B09B120463C
:1038B0008847606D08B3606DC00717D0052084F895
:1038C00035002068A90A026822F00102026000BFE8
:1038D000009A01328A42009202D80268D207F7D1D8
:1038E000012084F83500002084F83400E16C21B117
:1038F000204601B0BDE8F040084701B0F0BD00002F
:103900002DE9F041044600F0D4F9C4B10546022087
:1039100084F835000020216884F83400086820F01D
:103920000100086021680868C0070BD000F0C1F9E9
:10393000401B0528F6D903252023032064E001203D
:10394000BDE8F081086848F23F02CFF21002D4E9E6
:10395000013500EA020C04F10C0898E8C10143EAC1
:103960000C032B431843D4E9072E3043384310434C
:10397000626A40EA0E00042A40EA08031CD1206B68
:10398000D4E90A2E40EA0E00184308604869BEF1E7
:10399000000F20F0030040EA020040F0040C11D0B8
:1039A000B8F5005F35D0B8F1000F42D1022A43D0FC
:1039B000012A38D0002A3EE00B60486920F0070059
:1039C00040EA020C01F0F8004AF6AB221038CAF6C1
:1039D000AA22A0FB02231A094BF23C43C1F814C0EF
:1039E000C0F600039A5C40F2FF335F284FF03F00BF
:1039F00021EA030100FA02F088BF0431C4E916127B
:103A00008860002301250020636584F83550BDE8F7
:103A1000F081032AD6D8012540230120DFE802F0F7
:103A2000020C0203F0E7AEF1C070B0FA80F040097A
:103A300004E0032A04D3C5D1CEF300600028C1D02E
:103A4000012540230120DFE790F834C0BCF1010FCD
:103A500004BF0220704770B54FF0010C80F834C0ED
:103A6000D0F858E090F835C0BCF1010F37D14FF0D5
:103A7000020C80F835C04FF0000CC0F854C0D0F8EC
:103A800000C08468056CC06DDCF80060402C26F432
:103A90008026CCF80060CCF804300B4604BF1346F7
:103AA0000A463F2101FA00F0CCF80830CCF80C208F
:103AB000CEF80800DCF8000040F01600CCF800005A
:103AC0002DB1DCF8000040F00800CCF80000DCF874
:103AD000000040F00100CCF80000002070BD002183
:103AE00080F83410022070BDB0B5044600F0E1F853
:103AF000054640F2AC20C2F200000078611C18BFFD
:103B0000044400BF00F0D5F8401BA042FAD3B0BD7A
:103B10002DE9F04F83B000F1200200F13E4741F65D
:103B20000045009207F1FF77C4F2020508224FEA30
:103B3000B726A84208BF072200254FF000084FF023
:103B40000009072E38BF4FEAB72201920F68012201
:103B500002FA09FE17EA0E0A00F09980D1F804C0B3
:103B600003220CF003077E1E02FA08F4012E6FEA0E
:103B7000040B11D88468CE6804EA0B0406FA08F630
:103B800034438460446824EA0E06CCF3001404FA3B
:103B900009F42643466003E0032F01D103271EE00A
:103BA000C6688C6806EA0B0604FA08F42643022F5E
:103BB000C66014D16FF00302009E02EA590756F85E
:103BC00007C005F01C040F220B69A2402CEA020278
:103BD000A3401A43F251D1F804C00CF00307026865
:103BE00007FA08F302EA0B021A431CF4403F026092
:103BF0004DD0002243F644030292C4F202031A6835
:103C000043F6004442F480421A601A68C4F2010488
:103C100002F480420292029A29F003024FF6084C05
:103C20002244CFF6FF7C52F80C3005F00C070F262B
:103C3000BE40B343019E06FA07F73B4342F80C30FF
:103C4000A2684B6842EA0A0743F60C4CDE0258BFF2
:103C500022EA0A07A760C4F2010CDCF800209E02E9
:103C600042EA0A0758BF22EA0A07CCF800706268E5
:103C70009E0342EA0A0758BF22EA0A0767602268E1
:103C8000DB0342EA0A0758BF22EA0A07276009F164
:103C9000010908F10208B9F1100F05F104057FF4DC
:103CA00055AF03B0BDE8F08F002A08BF0904816159
:103CB00070474AF24810C2F200000068704740F2B4
:103CC000AC204AF24811C2F20000C2F200010078B2
:103CD0000A6810440860704780B543F60040C4F29B
:103CE0000200016841F400710160016841F48061E3
:103CF0000160016841F480710160032000F0BBF8AD
:103D00000F2000F004F800F05AF8002080BD70B5D4
:103D100086B0002543F640010195C4F202010A680D
:103D2000044642F020020A60096801A801F020015F
:103D300001910199694600F058F9049E002E18BFC0
:103D4000012600F071F94DF68361B040C4F21B31D9
:103D5000A0FB01014FF0FF3000EB914140F64C60B9
:103D600041F20042C2F20000C4F2000240F2E73326
:103D7000C0E90021C0E902530561856100F0BBFB89
:103D80000546C8B940F64C60C2F2000000F0F9FBED
:103D9000054688B9372000F033F80F2C0BD83720B0
:103DA00021460022002500F03BF840F2B020C2F28C
:103DB0000000046000E00125284606B070BD82B016
:103DC000002043F640010190C4F202014A6842F427
:103DD00080424A604A6802F480420192019A00904F
:103DE0000868002240F08050086008680F2100F049
:103DF0008050009000986FF0010002B000F010B801
:103E000000280CD400F01F01012202FA01F11C224B
:103E100002EAD0004EF20012CEF20002815070474A
:103E200010B54EF60C5CCEF2000CDCF80030C3F39B
:103E3000022E8EF00704042C28BF0424BEF10303D5
:103E40004FF0FF3E0EFA04F438BF0023A14399401F
:103E50000EFA03F39A43114300F00F0200F160439E
:103E60000901043A03F564436244002848BF02F1A3
:103E70000C03197010BD4EF60C51CEF200010A6809
:103E80004FF6FF031A4060F30A2242F0806040F0D0
:103E9000FD70086070470000002872D02DE9F041E5
:103EA00043F60008C4F202080446D8F800040D46A0
:103EB00000F00700884207D288F80054D8F80004C0
:103EC00000F00700A84266D12068810717D5410796
:103ED00005D5D8F8081041F4E051C8F808100107DA
:103EE00005D5D8F8081041F46041C8F80810D8F892
:103EF0000810A26821F0F0011143C8F80810C007AB
:103F000041D1D8F8000400F00700A84207D988F88A
:103F10000054D8F8000400F00700A8423BD1206804
:103F2000410707D5D8F80810E26821F4E0511143A1
:103F3000C8F80810000708D5D8F80800216920F44F
:103F4000604040EAC100C8F8080000F093F8D8F8D3
:103F500008104BF2E422C1F30311C0F60002515CD9
:103F600040F2502220FA01F140F2B020C2F20000EB
:103F70000068C2F200021160FFF7C9FE0020BDE830
:103F8000F081012070476068811E022906D2D8F8AE
:103F90000010890108D40120BDE8F08101281FD15B
:103FA000D8F800108903F6D5D8F8081021F00301DD
:103FB0000843C8F80800FFF77CFE064641F2883740
:103FC000D8F80800616800F00C00B0EB810F98D0C1
:103FD000FFF76FFE801BB842F2D90320BDE8F081E5
:103FE000D8F800108907D6D5DEE70F22026043F625
:103FF0000802C4F20202136803F00303436013686B
:1040000003F0F0038360136803F4E053C360D2F855
:1040100000C04FF4E05303EADC030361D2F8F80375
:1040200000F007000860704740F2502043F6080196
:10403000C2F20000C4F20201006809684BF2F422E7
:10404000C1F38221C0F60002515CC840704740F2C3
:10405000502043F60801C2F20000C4F202010068D9
:1040600009684BF2F422C1F34231C0F60002515C00
:10407000C840704710B543F60404C4F202046068F7
:1040800000F00C0142F200400829C0F2F40007D011
:10409000042918BF10BD41F20020C0F27A0010BD03
:1040A000216801F03F02216823684902C3F38811A7
:1040B00005D4A1FB00010023FCF792F806E041F2D1
:1040C0000020C0F27A004843B0FBF2F021680222DF
:1040D000C1F3014102EB4101B0FBF1F010BD000062
:1040E00000286BD02DE9F04182B00446007843F6F9
:1040F0000006C007C4F202060CD0B06800F00C0045
:10410000042840F098803068800303D56068002858
:1041100000F0AB80207880071BD5B06810F00C0F42
:1041200009D0B06800F00C00082840F0A08070684A
:10413000400200F19C803068800703D5E0680128C8
:1041400040F093803068216920F0F80040EAC10017
:1041500030602078000733D42078400745D4A56923
:1041600055B3B06800F00C00082840F0B980012D6C
:104170007BD07068E16900F480028A4275D1216ABF
:1041800000F03F028A4270D147F6C071626A014076
:10419000B1EB821F69D1A16A4FF6FF73C90399433E
:1041A00000F44032A1F580318A425ED1E16A00F02C
:1041B0007060B0EB016F58D10020F3E00120704730
:1041C0006069002878D00020C4F247200121C0F89F
:1041D000801EFFF76EFD0546706F8007BCD4FFF7A9
:1041E00068FD401B0228F7D9DBE0306C5FEAC008AD
:1041F0000AD400200190306C40F080503064306C64
:1042000000F080500190019847F20007C4F20007C7
:104210003868C00542D4386840F480703860FFF7D1
:1042200048FD05463868C00538D4FFF742FD401BFD
:104230000228F7D9B5E0B06800F00C00082803D1D7
:10424000706840023FF55FAF61683068B1F5803F4C
:1042500007D0B1F5A02F40F08E8040F48020306070
:10426000306840F4803030608EE001209AE0E068F1
:10427000002840F20000C4F2472053D00121016021
:10428000FFF717FD054600BF306880073FF55AAFBE
:10429000FFF70FFD401B0228F6D982E0A168306FBE
:1042A000012905D005294FD140F004003067306F57
:1042B00040F00100306750E00020C4F247200021A8
:1042C000C0F8801EFFF7F5FC054600BF706F800741
:1042D0007FF542AFFFF7EDFC401B0228F6D960E006
:1042E0000027C4F2472700203866FFF7E2FC022DC2
:1042F00005460BD13068800157D5FFF7DAFC401B2B
:1043000002284FF00300F5D94CE000BF306880016F
:104310007FF552AFFFF7CDFC401B02284FF00300A2
:10432000F4D93FE000210160FFF7C3FC054600BF60
:10433000306880077FF50DAFFFF7BBFC401B0228FC
:104340004FF00300F4D92DE020F001003067306F0A
:10435000002920F00400306748D0FFF7AAFC05468A
:1043600041F28837306F800751D4FFF7A2FC401B21
:10437000B842F7D915E020F4803030603068002969
:1043800020F4802030604BD0FFF793FC054600BF3F
:10439000306880033FF5BEAEFFF78BFC401B6428FE
:1043A000F6D9032002B0BDE8F08104F11C052FCD41
:1043B000084340EA8210D9034FF6FF729143A1F5FA
:1043C000803140EA05600843706001203866FFF7DD
:1043D00070FC0446306880013FF5EEAEFFF769FCE3
:1043E000001B02284FF00300F4D9DBE7FFF761FC64
:1043F000054641F2883700BF306F800707D5FFF7C9
:1044000058FC401BB8424FF00300F5D9CAE7B8F199
:10441000000F3FF5A4AE306C20F0805030649EE673
:10442000FFF747FC054600BF306880037FF572AE9A
:10443000FFF73FFC401B64284FF00300F4D9B1E7BD
:104440007047704790F83C20012A4FF0020250D08C
:1044500010B580F83D200268D2F804E0D2F808C018
:104460000C682EF07003234341F2FF74C4F2000481
:10447000A24253600BDC40F2FF73C4F200039A4285
:1044800013DCB2F1804F27D040F2004315E040F238
:10449000FF33C4F201039A4212DC41F60003C4F276
:1044A00000039A4218D0002312E040F60003C4F241
:1044B00000039A4210D040F60043C4F2000309E022
:1044C00044F20003C4F201039A4205D040F20043D3
:1044D000C4F201039A4204D149682CF080031943C5
:1044E00091600121002280F83D1080F83C20BDE859
:1044F00010401046704740B310B5044690F83D0098
:1045000028B9002084F83C00204600F020F8022062
:1045100084F83D002068211D01F0AAFE012084F8E6
:10452000460084F83E0084F83F0084F8400084F898
:10453000410084F8420084F8430084F8440084F881
:10454000450084F83D00002010BD01207047006840
:1045500040F60001C4F20001884218BF704781B0E4
:104560000020009043F64000C4F20200016841F0D0
:1045700004010160006800F004000090009801B0A0
:10458000704790F83D1001291CBF0120704702219F
:1045900080F83D10006841F2FF72C168C4F2000269
:1045A000904241F00101C1600BDC40F2FF71C4F2A6
:1045B0000001884213DCB0F1804F27D040F2004167
:1045C00015E040F2FF31C4F20101884212DC41F6ED
:1045D0000001C4F20001884218D0002112E040F628
:1045E0000001C4F20001884210D040F60041C4F23C
:1045F000000109E044F20001C4F20101884205D043
:1046000040F20041C4F20101884204D1816801F006
:104610000701062903D0016841F001010160002073
:10462000704790F83C20012A4FF002026BD080B511
:1046300080F83D20D0F800C04FF67772DCF80830E3
:1046400023EA0202CCF808200B684F2B28DC1F2B32
:1046500044DD202B45D0302B43D0402B40F0AC80A4
:10466000D1F804E0C968DCF82030DCF8202022F022
:104670000102CCF82020DCF8182022F0F00242EAF7
:10468000011123F00A0242EA0E02CCF81810CCF80D
:104690002020DCF8081041F0470121F0300127E02C
:1046A0006F2B32DDB3F5005F73D0B3F5805F21D09F
:1046B000702B40F08180D1E901E3C968DCF8082063
:1046C00043EA0E0322F47F4243EA01211143CCF86E
:1046D0000810DCF8081041F0770109E00BB1102B4D
:1046E0006AD1DCF8081021F07001194341F007018C
:1046F000CCF808100022012180F83D10002180F83C
:104700003C10BDE8804010467047502B21D0602BF4
:1047100052D1D1F804E0C968DCF82030DCF8202060
:1047200022F01002CCF82020DCF8182022F470428D
:1047300042EA013123F0A00242EA0E12CCF818102E
:10474000CCF82020DCF8081041F0670121F01001BE
:10475000CEE7D1F804E0C968DCF82030DCF820208E
:1047600022F00102CCF82020DCF8182022F0F00220
:1047700042EA011123F00A0242EA0E02CCF81810B4
:10478000CCF82020DCF8081041F0570121F020017E
:10479000AEE7D1E901E3C968DCF8082043EA0E037B
:1047A00022F47F4243EA01211143CCF80810DCF8DF
:1047B000081041F480419BE701229CE7704770B5E7
:1047C00004460068C5680669B10716D515F00201F0
:1047D00013D06FF002010161012121778069800708
:1047E00003D02046FFF7EAFF05E0204600F0B5F8C9
:1047F000204600F02CF900202077700718D515F01E
:10480000040015D020686FF00401016102212177B6
:10481000806910F4407F03D02046FFF7CFFF05E00A
:10482000204600F09AF8204600F011F90020207789
:10483000300717D515F0080014D020686FF0080174
:10484000016104212177C069800703D02046FFF76A
:10485000B5FF05E0204600F080F8204600F0F7F8AC
:1048600000202077F00618D515F0100015D020682C
:104870006FF01001016108212177C06910F4407FB9
:1048800003D02046FFF79AFF05E0204600F065F8C8
:10489000204600F0DCF800202077F00718BF15F064
:1048A000010006D020686FF001010161204600F090
:1048B0004EF9300609D515F0800006D020686FF05B
:1048C000800101612046FFF7BBFD700609D515F098
:1048D000400006D020686FF040010161204600F0E2
:1048E00040F9B00658BF70BD15F0200008D021680F
:1048F0006FF0200220460A61BDE87040FFF7A1BDBD
:1049000070BDB0B586B0044640F6000501A814217C
:10491000C4F20005FBF7DFFC2068A8421BD1002091
:1049200043F630010090C4F202010A6842F0080226
:104930000A60096801F00801009100994FF4704184
:1049400001910221CDE90210CDE9040105F5013004
:1049500001A9FFF7DDF806B0B0BD7047B0B5044659
:1049600090F83C00012804BF0220B0BD0D464FEA7C
:10497000B2010120032984F83C0037D8DFE801F0B8
:1049800002220A1A2068294601F008FD206850F822
:10499000181F06E02068294601F065FD206850F8E0
:1049A0001C1F41F008010160016821F00401016051
:1049B000296917E02068294601F088FD206850F831
:1049C0001C1F06E02068294601F019FD206850F8F8
:1049D000181F41F400610160016821F480610160E9
:1049E000296909020268114301600020002184F84E
:1049F0003C10B0BD40B310B5044690F83D0028B956
:104A0000002084F83C00204600F020F8022084F8C2
:104A10003D002068211D01F02BFC012084F8460098
:104A200084F83E0084F83F0084F8400084F8410098
:104A300084F8420084F8430084F8440084F8450078
:104A400084F83D00002010BD01207047704770477A
:104A5000A1B1042904D0082914BF4122402200E05A
:104A60003F22825C012A11D10222082910D0042998
:104A700014BF80F8412080F83F200BE090F83E20E2
:104A8000012A03D1022280F83E2003E00120704772
:104A900080F84020006801F01F010122036A02FA39
:104AA00001F123EA01020262026A114341F2FF723C
:104AB000C4F20002904201620BDC40F2FF71C4F2CA
:104AC0000001884213DCB0F1804F35D040F2004144
:104AD00015E040F2FF31C4F20101884214DC41F6D6
:104AE0000001C4F20001884226D0002114E040F603
:104AF0000001C4F2000188421ED040F60041C4F219
:104B00000001884218D01CE044F20001C4F2010107
:104B1000884211D040F20041C4F20101884210D114
:104B2000416C40F2004340F48062C4F2010341F45E
:104B300000419A42416404D1816801F007010629CD
:104B400003D0016841F00101016000207047006856
:104B500041F20041C4F20001884218BF7047FFF7DC
:104B6000AEB8704770B582B0044690F84200202875
:104B700020D14FF00105F1B1EAB1002620462563AE
:104B8000666301F075FE206B012814D10196206840
:104B90000168019140680190019800BF206850E8C9
:104BA000030F216840F0100041E80302002AF5D10C
:104BB000002500E00225284602B070BD10B504466D
:104BC00040F69460C2F2000084421BD040F6DC60E4
:104BD000C2F2000084421AD040F62470C2F20000F3
:104BE000844219D040F66C70C2F20000844218D0A2
:104BF00040F6B470C2F20000844217D0FEF7D4F938
:104C0000002017E042F6E820C2F2000012E042F66F
:104C1000F820C2F200000DE042F60830C2F20000B7
:104C200008E042F61830C2F2000003E042F62830F5
:104C3000C2F20000E16B09684968C1810189C2893B
:104C4000891A418110BD7047B0B582B00446006832
:104C50000168C368426901F02F05202D03F020058B
:104C600006D12DB1204602B0BDE8B04001F030BD04
:104C70005FEA017C1EBF02F0010E03F4907212EB9A
:104C80000E026ED1226BCD0643D5012A41D113F01D
:104C900010023ED00021019101680191416801910B
:104CA00001994069400600F1CB80A08DE18DE28D35
:104CB000002A00F01581884200F01281401A00BFDE
:104CC000216851E8031F226821F4907142E8031320
:104CD000002BF5D1216851E8051F226821F0010160
:104CE00042E80513002BF5D1202184F84210002161
:104CF000216300BF216851E8031F226821F01001E1
:104D000042E80313002BF5D1022281B220466263F0
:104D1000DCE00A0640F1828013F0800200F07E8021
:104D200094F84110212940F0DB80A168B1F5805F43
:104D300003D12169002900F0DB80216A4A1C22622C
:104D400009784160E18C01390A04E18440F0C880AF
:104D5000C16821F08001C160C16841F04001C160BB
:104D6000BEE0CA0718BF13F4807203D0626C42F031
:104D7000010262644A0706D5BEF1000F03D0626CDF
:104D800042F0020262648A0706D5BEF1000F03D02A
:104D9000626C42F004026264BCF1000F06D55EEA68
:104DA000050203D0626C42F008026264626C002A61
:104DB00000F09680890604D51DB1204601F088FCDC
:104DC00020684069616C00F0400001F00801401863
:104DD00000F08180204601F053FC206840694006C5
:104DE00040F18080206850E8050F216820F04000E5
:104DF00041E80502002AF5D1E06B002872D046F2A6
:104E00003351C0F600010165FEF7A4FC002867D00D
:104E1000E06B016D02B0BDE8B040084749065FD5C0
:104E200013F040015CD0C16821F04001C160202135
:104E3000204684F8411002B0BDE8B04000F0C4BB89
:104E4000E06B016849688AB2002A49D0A38D9A4272
:104E500046D2E185C069B0F5807F30D0206850E847
:104E6000030F216820F4807041E80302002AF5D185
:104E7000206850E8050F216820F0010041E8050294
:104E8000002AF5D1206850E8050F216820F0400085
:104E900041E80502002AF5D1202084F842000020D4
:104EA000206300BF206850E8030F216820F0100045
:104EB00041E80302002AF5D1E06BFEF70BFC02206B
:104EC0006063A08DE18D401A81B2204602B0BDE83A
:104ED000B040FFF773BE2046FFF7B5FE00206064C8
:104EE00002B0B0BD204602B0BDE8B040FFF7ABBE97
:104EF000216A31F8022B6FF35F224260216221E7C1
:104F000058B310B5044690F8410028B9002084F841
:104F10004000204600F023F8242084F84100206857
:104F2000C16821F40051C160204601F032FC2068C4
:104F3000016921F490410161416921F02A01416137
:104F4000C16841F40051C16000202021606484F8F0
:104F5000411084F84210606310BD012070472DE9B4
:104F6000F04F87B0044602A81421FBF7B4F920687B
:104F700044F6FF71C4F20001884200F3818044F2DC
:104F80000041C4F20001884200F0BE8044F60001F6
:104F9000C4F20001884200F0A58144F60041C4F249
:104FA0000001884240F07882002643F630000196E6
:104FB000C4F20200016946F2100841F400210161C7
:104FC0000169C4F2020801F40021019101990196DE
:104FD000016841F004010160006802A900F00400CA
:104FE000019001984FF4406002900220CDE9030641
:104FF00003200590082006900020C4F2020000F56E
:105000000060FEF785FD40F6A42508F16000C2F2BD
:1050100000054FF000674021C5E9000705F10800D1
:105020004FF4806980E8420205F114001421FBF777
:1050300052F92846FEF764FC08B1FDF7B5FFA563F9
:10504000AC6340F6442508F13000C2F200054FF48D
:105050008071C5E900072846C5E90266C5E90496DE
:10506000C5E90661C5E90866FEF74AFC08B1FDF727
:105070009BFFE563AC63342000210022342406E268
:1050800045F20001C4F20001884200F0A68041F21E
:105090000001C4F20101884200F0908141F2004118
:1050A000C4F20101884240F0F781002043F630014C
:1050B0000190C4F202014A6942F020024A614A6941
:1050C00002F020020192019A01900A6842F0040263
:1050D0000A60096801F0040101910199C02102915F
:1050E0000221CDE90310032005900820069000203E
:1050F000C4F2020000F5006002A9FEF709FD472096
:10510000052100224724C2E1002643F63000019623
:10511000C4F20200016946F2100841F40031016155
:105120000169C4F2020801F400310191019901966C
:10513000016841F001010160006802A900F001006E
:10514000019001980C2002900220CDE90306032073
:105150000590072006900020C4F20200FEF7D8FC5C
:1051600040F6E44508F19000C2F200054FF00067F8
:105170004021C5E9000705F108004FF4806980E887
:10518000420205F114001421FBF7A5F82846FEF7AA
:10519000B7FB08B1FDF708FFA563AC6340F6844593
:1051A00008F17800C2F200054FF48071C5E90007EC
:1051B0002846C5E90266C5E90496C5E90661C5E960
:1051C0000866FEF79DFB08B1FDF7EEFEE563AC63F4
:1051D000262000210022262459E1002643F6300033
:1051E0000196C4F202000169002741F480110161B7
:1051F0000169C4F2020701F480110191019901963D
:10520000016802AD41F004010160016846F2100836
:1052100001F0040101910199019601684FF0020922
:1052200041F00801016000684FF0030A00F0080037
:10523000019001984FF4805002904FF0080B07F551
:1052400000602946C4F20208CDE90396CDF814A007
:10525000CDF818B0FEF75CFC0420CDE9020904A8E3
:1052600080E8400C07F540602946FEF751FC40F607
:10527000643508F1A800C2F200054FF00067402134
:10528000C5E9000705F108004FF4806980E8420293
:1052900005F114001421FBF71EF82846FEF730FB39
:1052A00008B1FDF781FEA563AC6340F60435C2F298
:1052B00000054FF48070C5E906602846C5E90087FF
:1052C000C5E90266C5E90496C5E90866FEF718FB5C
:1052D00008B1FDF769FEE563AC63352000210022CB
:1052E0003524D4E0002643F630000196C4F20200D3
:1052F000016946F2100841F4802101610169C4F29C
:10530000020801F48021019101990196016841F0A0
:1053100002010160006802A900F0020001900198FA
:105320004FF4406002900220CDE90306032005906F
:10533000072006900020C4F2020000F58060FEF70E
:10534000E7FB40F6A45508F14800C2F200054FF013
:1053500000674021C5E9000705F108004FF48069A6
:1053600080E8420205F114001421FAF7B4FF284640
:10537000FEF7C6FA08B1FDF717FEA563AC6340F669
:10538000445508F11800C2F200054FF48071C5E9D8
:1053900000072846C5E90266C5E90496C5E9066125
:1053A000C5E90866FEF7ACFA08B1FDF7FDFDE56357
:1053B000AC63272000210022272468E0002643F662
:1053C00030000196C4F20200416946F2100841F033
:1053D000100141614169C4F2020801F0100101911C
:1053E00001990196016841F001010160006802A97C
:1053F00000F00100019001984FF4C060029002207B
:10540000CDE9030603200590072006900020C4F292
:105410000200FEF77DFB40F6244508F59560C2F2D8
:1054200000054FF000674021C5E9000705F10800BD
:105430004FF4806980E8420205F114001421FAF764
:105440004AFF2846FEF75CFA08B1FDF7ADFDA563FB
:10545000AC6340F6C43508F58660C2F200054FF42F
:105460008071C5E900072846C5E90266C5E90496CA
:10547000C5E90661C5E90866FEF742FA08B1FDF71D
:1054800093FDE563AC632520052100222524FEF76A
:10549000C7FC2046FEF7B4FC07B0BDE8F08F7047AC
:1054A000704700002DE9F041044690F841002028A3
:1054B0001CBF0220BDE8F0810D464FF00100E1B3B2
:1054C0001746D2B3002060642120984684F841003A
:1054D000FEF7EFFBA784E784A1680746B1F5805F7C
:1054E00001D1206988B32E46002500BFE08CC0B1F1
:1054F000204680213A46434601F006FAF8B92EB11B
:1055000016F8010B2168486007E000BF35F8020B70
:1055100021686FF35F2048600026E08C0138E0844A
:10552000E4E7204640213A46434601F0EDF92021C8
:1055300084F84110002818BF0320BDE8F081202026
:1055400084F841000320BDE8F0810026CEE700008A
:10555000B0B5044690F8410020281CBF0220B0BD21
:105560004FF0010079B313466AB34FF0000C2120CD
:105570002162A384E384C4F844C084F84100A06B92
:1055800046F23D6E46F27B652268C0F6000EC0F61C
:105590000005C0E90FE546F24155C0F600050432AA
:1055A000C0E9135CFEF750FA20686FF0400101601B
:1055B000206850E8050F216840F0800041E80502AE
:1055C000002AF5D10020B0BD704770472DE9F04F9B
:1055D00081B04FF000090DF1030102208DF8039016
:1055E00001F0EBFD002855D040F2E04640F2642780
:1055F000C2F20006C2F200070DF103044FF0050AE3
:105600004FF0010B4FF00008307805281AD0012820
:1056100008D098BB9DF803007978884208BF86F8C7
:1056200000B02DE09DF80300B978884226D108200B
:1056300087F80090F8707878B9780844387286F85E
:1056400000A01DE09DF8031078683A78531C3B7069
:1056500081543B78FD783A7AAB4218D991420DD10A
:1056600041F2BC61C2F200010A683AB1F978904790
:10567000022001F095FD4FF0010800BF86F8009070
:105680000220214601F099FD0028BDD104E0501808
:105690003872F5E74FF000085FFA88F001B0BDE816
:1056A000F08F0000FEE700002DE9F04381B04FF0DD
:1056B00000090DF1030101208DF8039001F07DFD3B
:1056C000002865D040F2E84640F28C2741F2C068DD
:1056D000C2F200060DF10304C2F20007C2F2000894
:1056E000002500BF31780020072949D8DFE801F004
:1056F000042B480B4830401B9DF803007978884202
:105700003FD101203CE087F800907878F9789DF847
:105710000320084410443872786839784B1C3B7079
:10572000425405202CE09DF80300797A88424FF01E
:10573000000025D1D8F8002012B37868F978904796
:10574000012500201CE09DF80300F870032017E0FD
:105750009DF8030079683A78531C3B708854397A75
:10576000084438723878F97888420AD3072007E06D
:105770009DF80300397A88424FF0000008BF0720E7
:1057800030700120214601F018FD0028AAD100E068
:105790000025E8B201B0BDE8F083000010B5024674
:1057A000481E44F25274C0B2C0F24204C30003283F
:1057B00038BF24FA03F140F2E944C2F20004CBB24C
:1057C00009A1204604F006FF2046FAF78FFD82B2B9
:1057D000B2F5006F28BF4FF4006201202146BDE8FA
:1057E000104001F00CBD00BF6D6F64653D25642560
:1057F0006300000080B540F6F41046F20041C2F2AA
:105800000000C4F200010322002380E80E0000F132
:105810000C014FF4102C4FF4001E81E808508361F6
:105820008383FDF70FFE18B1BDE88040FDF7BCBBD8
:1058300080BD80B540F61C2046F60001C2F2000093
:10584000C4F200010C22002380E80E0000F10C01DC
:105850004FF4003C4FF4001E81E808504FF4807173
:105860000183C0F81A30FDF7EDFD18B1BDE88040A6
:10587000FDF79ABB80BD80B582B0002043F63001B1
:105880000190C4F202010A6842F400120A600A6838
:1058900002F400120192019A00900868002240F47C
:1058A000800008600868002100F4800000900098E3
:1058B0000B20FEF7B5FA0B20FEF7A2FA0C20002110
:1058C0000022FEF7ADFA0C20FEF79AFA0D20002117
:1058D0000022FEF7A5FA0D20FEF792FA0E20002115
:1058E0000022FEF79DFA0E20FEF78AFA0F20002113
:1058F0000022FEF795FA0F20FEF782FA102005210C
:105900000022FEF78DFA1020FEF77AFA1120052109
:105910000022FEF785FA1120FEF772FA2F200521EA
:105920000022FEF77DFA2F20FEF76AFA3A200521C1
:105930000022FEF775FA3A20FEF762FA46200521AA
:105940000022FEF76DFA462002B0BDE88040FEF767
:1059500057BA80B54BF20C30C0F6000001F0E6FEFD
:1059600040F2F451C2F200014BF234320860C0F64A
:1059700000020120002101F02EFF40F24871C2F226
:1059800000014BF21C320860C0F600020120012128
:1059900001F072FE40F2FC51C2F20001086042F6D2
:1059A0003D204BF2B032C0F60000C0F600020021EC
:1059B00001F05BFF40F25871C2F20001086042F64C
:1059C0004D204BF2D432C0F60000C0F60002002198
:1059D00001F04BFF40F25C71C2F20001086042F638
:1059E000F5104BF24432C0F60000C0F60002002170
:1059F00001F03BFF40F24C71C2F20001086042F638
:105A000031204BF28C32C0F60000C0F600020021BB
:105A100001F02BFF40F25471C2F20001086042F61F
:105A200051204BF2F832C0F60000C0F6000200210F
:105A300001F01BFF40F26071C2F20001086042F603
:105A40002B204BF26832C0F60000C0F600020021A5
:105A500001F00BFF40F25071C2F2000108604BF2FE
:105A6000FC20C0F6000001F0C5FD40F2D841C2F2B2
:105A70000001086080BD2DE9F04786B00DF10408F3
:105A800040461421FAF727FC002743F63000009720
:105A9000C4F202000168002541F0040101600168C0
:105AA000C4F2020501F00401009100990097016819
:105AB00005F5006641F0800101600168012201F0F6
:105AC000800100910099009701684FF4005941F05E
:105AD000010101600168012401F0010100910099B8
