:020000040800F2
:1000000060AF0020A1010008855E00087957000854
:10001000815E00089D2E00083D6A00080000000077
:10002000000000000000000000000000F161000876
:10003000E52F00080000000001600008C50100086D
:10004000BB010008BB010008BB010008BB010008A0
:10005000BB010008BB010008BB010008BB01000890
:10006000BB010008BB010008BB0100086D2F0008A0
:10007000792F0008852F0008912F00089D2F000878
:10008000A92F0008B52F0008BB010008BB0100081C
:100090009F2E0008BB010008BB010008BB0100083F
:1000A000BB010008BB010008BB010008BB01000840
:1000B000BB010008BB010008BB010008BB01000830
:1000C000BB010008BB010008BB010008BB01000820
:1000D000BB0100080B6A0008176A0008236A0008C1
:1000E000BB010008BB010008BB010008BB01000800
:1000F000BB010008BB010008BB010008C12F0008BC
:10010000BB010008BB010008BB010008BB010008DF
:10011000A3650008AF650008BB010008ED62000898
:10012000BB010008BB010008CD2F0008BB0100087F
:10013000BB010008BB010008BB010008BB010008AF
:10014000F92E0008BB010008BB010008BB01000834
:10015000BB010008BB010008D92F00082F6A000866
:10016000BB010008BB010008BB010008BB0100087F
:10017000BB010008BB010008BB0100080000000033
:10018000BB010008BB010008DFF810D000F066FCDE
:1001900000F0D8F8004800472577000860AF00203D
:1001A0000648804706480047FEE7FEE7FEE7FEE711
:1001B000FEE7FEE7FEE7FEE7FEE7FEE7DB6200089C
:1001C0008901000830B410B50348804730BCAE4602
:1001D00030BC024800477047F97A000815620008F1
:1001E0002DE9F05F0546002092469B46884606466C
:1001F000814640241BE0284641464746224600F0FF
:100200000FFB53465A46C01A914110D31146184667
:10021000224600F0F6FA2D1A67EB01084F462246F7
:100220000120002100F0EDFA17EB00094E41201EDD
:10023000A4F10104DFDC484631462A464346BDE8C6
:10024000F09F2DE9F0410024061B254671F10006C0
:1002500005DA01240027D0EB070067EB0101161E29
:1002600073F1000605DA0027D2EB0702012567EBE0
:100270000303FFF7B5FF86460E4617469C46AC4281
:1002800004D00025D0EB050E65EB010624B100205B
:10029000D2EB000760EB030C704631463A466346EA
:1002A000BDE8F08140EA01039B0703D009E008C9DB
:1002B000121F08C0042AFAD203E011F8013B00F82B
:1002C000013B521EF9D27047D2B201E000F8012B77
:1002D000491EFBD270470022F6E710B513460A46C6
:1002E00004461946FFF7F0FF204610BD421C10F8E7
:1002F000011B0029FBD1801A7047034611F8012B1E
:1003000000F8012B002AF9D11846704730B5054690
:100310000020034600E05B1C934205D2EC5CC85C05
:10032000201A01D1002CF6D130BD70B506460AF076
:1003300047FA046805460A220021304600F092FA86
:100340002C6070BD7CB507480090074801900546B9
:10035000009C04E02046016808448047241DAC420C
:10036000F8D17CBD74B9000878B900082DE9FE4FBA
:10037000804681EA0300C00F0C46009021F0004146
:1003800023F00045B8EB0200A94105D240462146C2
:1003900090461C460B46024623F00040104347D0CF
:1003A000270DC7F30A00C3F30A510290401A0190C7
:1003B00040286BDAC3F3130040F4801B0098924688
:1003C00020B10023D2EB030A63EB0B0B01985946D3
:1003D000C0F14002504600F014FA06460D46504661
:1003E0005946019A00F02CFA10EB080061410024F4
:1003F00087EA115284EAE7731A4340D0009A62B345
:10040000019A012A4FEA075215DC001B61EB020139
:100410004FF0004202EA0752CDE90042001C41F5CC
:10042000801132462B4600F09BFA03B0BDE8F08FF6
:1004300040462146F9E7001B61EB0201001C41F533
:10044000801300185B412018A2F5001747EB030149
:1004500040EAD570B6196D4111E06D084FEA3606D5
:1004600045EAC0754FEA0752001B61EB0201001C10
:1004700041F5801149084FEA3000001951413246D8
:100480002B4603B0BDE8F04F00F05BBA00980122A4
:1004900040000023D0EB020263EBE073009821469A
:1004A0004FEAE074B8EB000061EB0401E9E783F088
:1004B00000435BE781F0004158E72DE9FE4F81EAF8
:1004C000030404F0004421F0004100944FF0000BBD
:1004D00023F0004350EA01045ED052EA03045BD0EB
:1004E000C3F30A54C1F30A552C44A4F2F334019423
:1004F000A0FB0254C1F3130141F48011C3F31303B1
:1005000043F4801301FB024400FB034E840A970A64
:1005100044EA815447EA8357A4FB076802958D0A91
:1005200005FB07854FEA932C04FB0C542705029D1D
:100530004FEA065847EA1637B5EB08056EEB070C8D
:10054000870E920E47EA811742EA8312A7FB020147
:10055000B6EB0B0164EB00042B0D43EA0C335E1881
:1005600044EB1C50DA465146E7FB0201C5F3130485
:100570004FEA0B3343EA14534FEA0432019C43EA37
:100580000603A4F10C040294009CCDE900B400F031
:10059000E7F903B0BDE8F08F00200146F9E72DE947
:1005A000F04D81EA030404F0004B21F000451446AD
:1005B0004FF0000A23F0004150EA050220D054EA2F
:1005C00001021DD0C5F30A570246C5F31303C1F358
:1005D0001300C1F30A5640F4801543F48013A7EBCF
:1005E0000608101BD64608F2FD3873EB050002D34F
:1005F00008F1010801E092185B41B8F1000F03DA3D
:1006000000200146BDE8F08D00204FF48011064621
:1006100084460EE0171B73EB050705D3121B63EB33
:10062000050306434CEA010C49084FEA30009218D2
:100630005B4150EA0107EDD152EA030012D082EA91
:10064000040083EA0501084305D0101BAB4106D224
:100650000122002306E000224FF0004302E06FF089
:10066000010253101AEB06004CEB085110EB0A0084
:1006700041EB0B01BDE8F04D00F063B930B5041E4D
:1006800071F1000404DB4FF00044404264EB0101CF
:10069000141E73F1000405DB1C464FF00043524268
:1006A00063EB0403101A8B4101D2012030BD0020FE
:1006B00030BD30B5041E71F1000404DB4FF000447E
:1006C000404264EB0101141E73F1000405DB1C467B
:1006D0004FF00043524263EB0403801A994101D268
:1006E000012030BD002030BDF0B4CA17CB0F504000
:1006F0005140C61841F100054FEAC3723146280047
:100700004FF0960303D0B623F0BC00F0ECB83046AF
:100710000021F9E70EB5C10F80EAE0700844CA076E
:10072000002140F233438DE80E000A460B4600F0EC
:1007300017F903B000BD10B500F0004420F00040F0
:10074000C20DC0F3160040F400007F2A02DA002038
:10075000014610BD0021962A03DCC2F19602D0406A
:1007600002E0963A00F04DF8002CF2D00023D0EBD6
:10077000030063EB010110BD00F0004230F00040C7
:100780000AD0C10D01F56071C0F3160042EA0151B3
:10079000C20840071143704700200146704701F02E
:1007A000004330B421F0004150EA010206D00A0DA6
:1007B000A2F56072C1F31301002A02DC30BC0020F4
:1007C0007047440F44EAC104C100E01830BC00EB9C
:1007D000C25000F07FB830B50B4601460020202201
:1007E000012409E021FA02F59D4205D303FA02F53E
:1007F000491B04FA02F52844151EA2F10102F1DC9E
:1008000030BD202A04DB203A00FA02F100207047B4
:100810009140C2F1200320FA03F31943904070473E
:10082000202A04DB203A21FA02F00021704721FA45
:1008300002F3D040C2F120029140084319467047AC
:10084000202A06DBCB17203A41FA02F043EAE07394
:1008500006E041FA02F3D040C2F120029140084381
:10086000194670472DE9F04791460F4680460446E9
:10087000002614F8015B2DB100F008F90068405D16
:10088000C007F6D12B2D02D02D2D18D0641E4A465C
:100890003946204600F0FEF827B13968A14201D15F
:1008A000C7F8008071054FF002040BD540420028C4
:1008B00003DD09F085FF0460A007BDE8F08746F47A
:1008C0008066E4E70028F8DA09F07AFF04606FF048
:1008D0000040F2E70029A8BF7047401C490008BF4C
:1008E00020F00100704710B4B0FA80FC00FA0CF060
:1008F00050EA010404BF10BC704749B1CCF1200498
:1009000021FA04F411FA0CF118BF01212143084324
:10091000A3EB0C01CB1D4FEA00614FEA102042BF50
:10092000002010BC704700EBC35010440029A4BF46
:1009300010BC7047401C490008BF20F0010010BCEB
:10094000704710B5141E73F1000408DA401C41F121
:10095000000192185B411A4301D120F0010010BD43
:100960002DE9F04D92469B4611B1B1FA81F202E0B9
:10097000B0FA80F220329046FFF743FF04460F465C
:1009800040EA0A0041EA0B0153465A46084313D095
:10099000114653EA010019D0C8F140025046FFF752
:1009A0003FFF05460E46504659464246FFF729FF8F
:1009B000084305D0012004E020463946BDE8F08D0B
:1009C0000020054346EAE0762C4337430A98630546
:1009D000E40AA0EB08000022FD0A44EA47540A306A
:1009E00002D500200146E9E7010510196941DDE95A
:1009F000084500196941BDE8F04DA2E7C1F30A526C
:100A0000C1F3130140F2FF3341F480119A4202DA3C
:100A100000200146704740F233439A42A2F233422B
:100A200002DC5242FFF7FCBEFFF7EBBE30B5041EFE
:100A300071F1000404DB4FF00044404264EB01011B
:100A4000141E73F1000405DB1C464FF000435242B4
:100A500063EB0403994208BF904230BD1CB50948BE
:100A60000090094801900546009C06E0E06840F0CF
:100A7000010394E8070098471034AC42F6D3FFF71F
:100A800087FB000054B9000874B90008004870479B
:100A900064B100082DE9F05F824600780027154612
:100AA0008B460AF10104B946302801D09DB113E00C
:100AB00014F8010B0127782803D0582801D045B13C
:100AC0000AE00DB1102D07D10027102514F8010BF5
:100AD00002E0082500E00A250026B0460EE005FBEE
:100AE000080005FB06F1012701EB10461FFA80F80C
:100AF000B6F5803F00D3B94614F8010B294600F043
:100B000018F80028EBDABBF1000F05D00FB1641E16
:100B100000E05446CBF80040B9F1000F06D009F0D0
:100B20004FFE02210160C81EBDE8F09F48EA064062
:100B3000FAE73A2800D2303820F02002412A01D3C7
:100B4000A2F13700884201D34FF0FF30704770B5F3
:100B50008C1810F8015B15F0070301D110F8013B68
:100B60002A1106D110F8012B03E010F8016B01F8EF
:100B7000016B5B1EF9D12B0705D40023521E0DD447
:100B800001F8013BFAE710F8013BCB1A921C03E095
:100B900013F8015B01F8015B521EF9D5A142D8D3CD
:100BA000002070BD40F6B130C0F6000005F0F1BF86
:100BB00070B584B004464BF67500C0F600002146BF
:100BC00002F0EAF80FF2405120460822FFF79EFBA0
:100BD000002800F0AE800FF23C5120460D22FFF7B6
:100BE00095FB002800F0E6800FF2385120460422E1
:100BF000FFF78CFB002800F021810FF230512046D6
:100C00000522FFF783FB002800F027810FF2245113
:100C100020460522FFF77AFB002800F072820FF2CF
:100C20001C5120460722FFF771FB002800F02581A8
:100C30000FF2105120460922FFF768FB002800F050
:100C400030810FF20C5120460922FFF75FFB00288C
:100C500000F030810FF2045120460922FFF756FBC5
:100C6000002800F032810FF2005120460422FFF7E5
:100C70004DFB002800F040810FF2F441204608228D
:100C8000FFF744FB002800F043810FF2F0412046BB
:100C90000922FFF73BFB002800F043810FF2E841F7
:100CA00020460922FFF732FB002800F045810FF2B1
:100CB000E44120460A22FFF729FB002800F0468184
:100CC0000FF2DC4120460C22FFF720FB002800F049
:100CD00058810FF2DC4120460922FFF717FB00285C
:100CE00000F068810FF2D44120460B22FFF70EFB83
:100CF000002800F06B814BF67A01C0F60001204617
:100D00000B22FFF703FB002800F06C814BF68601F5
:100D1000C0F6000120460C22FFF7F8FA002800F088
:100D20006E814BF66400C0F60000214602F034F8F4
:100D3000C9E04BF27B70C0F6000002F02DF84BF6D4
:100D40001B00C0F6000002F027F840F2F024C2F2C7
:100D50000004204607F0D8FF4BF67505C0F60005E5
:100D60002846214602F018F820464FF40071FFF79C
:100D7000B2FA4BF2DF70C0F6000002F00DF8204628
:100D800007F054FF2846214602F006F820464FF4AB
:100D90000071FFF7A0FA40F2F244C2F2000440F200
:100DA00014502578C2F2000000688021BDB308F01D
:100DB000C7FA36E040F67810C2F20000D0F85802C8
:100DC000FFF7DAFC02464BF60600C0F600000B46C1
:100DD00001F0E2FF40F6EA30C2F20000B0F9001084
:100DE0004BF2BB70C0F6000001F0D6FF40F6EC30CD
:100DF000C2F20000B0F900104BF2C770C0F600005C
:100E000001F0CAFF40F6E830C2F20000B0F900106D
:100E10004BF2AF70C0F6000001F0BEFF04E008F036
:100E200035FA85F0010020700E214BF2D370C0F628
:100E3000000004B0BDE8704001F0AEBF40F63C10C9
:100E4000C2F20000006808F02DF900200021002205
:100E5000002307F0BFFB0121E7E74FF6D460CFF690
:100E6000FF7001464FF496724FF4967307F0B2FB91
:100E70000A2007F067FE0221D7E7E01DFFF755FAC9
:100E800040F2E872C2F2000240F2FC411268C2F283
:100E90000001087010460022022308F013FD05210E
:100EA000C3E704F10900FFF740FA40F2F141C2F252
:100EB000000107E004F10900FFF737FA40F2F041C2
:100EC000C2F2000108700021AFE704F10900FFF74A
:100ED0002CFA034640F2F14040F2F041C2F2000029
:100EE000C2F2000100780A78DE170121CDE9003650
:100EF00000F0E2FA042198E740F64410C2F2000044
:100F0000006800210222002309F0AAF80B218CE7D7
:100F100004F10800FFF709FA40F2F441C2F20001BF
:100F200007E004F10900FFF700FA40F2F341C2F2D2
:100F3000000108700C2178E704F10900FFF7F5F9CA
:100F400040F2F841C2F200010860F3E740F2F440D9
:100F500040F2F34140F2F842C2F20000C2F2000156
:100F6000C2F2000200780978166800220123CDE958
:100F7000013264223223009601F09BF901F0B3F9AB
:100F8000D8E740F2F44040F2F34140F2F842C2F2B6
:100F90000000C2F20001C2F200020078097816686F
:100FA00000220123CDE9013232220023009601F014
:100FB00080F9BFE704F10900FFF7B7F941F2180122
:100FC000C2F20001096880B2486316E004F10B0028
:100FD000FFF7ABF941F21801C2F20001096880B2D3
:100FE000C8630AE004F10B00FFF79FF941F2180112
:100FF000C2F20001096880B288630D2115E704F18F
:101000000C00FFF792F94FF0FF3151FA80F00728FA
:1010100000F27580DFE800F00415090F061C2312AA
:1010200001200FE00220022114E00120022103220E
:1010300000F0DCFB63E0022001210BE000F066FE23
:101040005DE0022001210222032300F0A9FC56E00A
:10105000022003210022012300F0ACFE4FE041F208
:10106000883007F06FFD012542F604100024CDE919
:101070000005072000214FF448720023029401F07C
:1010800018F901F030F95A2001F024FC4FF496765B
:10109000072000214FF448720023CDE90065029437
:1010A00001F007F901F01FF9522001F024FC4FF480
:1010B000C87007F047FD40F6B830CDE900050720BD
:1010C00000214FF448720023029401F0F2F801F07D
:1010D0000AF9532001F0FEFB072000214FF448726B
:1010E0000023CDE90065029401F0E3F801F0FBF87C
:1010F000462001F000FC4FF4C87007F023FD1021DA
:1011000093E605F09DFC00BF53686F775461736BE5
:101110000000000053686F77506172616D657465FF
:101120007200000053746F7000000000537461720D
:10113000740000005265736574000000537461749C
:1011400075733D005768616C654D6F643D0000002C
:101150005768616C654469723D0000005768616CB6
:1011600065506F733D0000004E657874000000000C
:101170004D5F5A445469643D000000004D5F5A447D
:10118000546469723D0000004D5F5A4454706F739F
:101190003D0000004D5F5A44547374617274000046
:1011A0004D5F5A445473746172746E77000000008E
:1011B000536572766F4A61773D0000005365727621
:1011C0006F57726973743D0080B501F013FE20B152
:1011D00002A0BDE8804001F0DFBD80BD524543451F
:1011E0004956450D0A00000088B040F2651007F02E
:1011F000A9FC40F67814C2F200040120207100F02E
:101200009BFA9FEDA18A9FEDA19A4BF2D02804F1A1
:10121000580504F108070026C0F60008206000BF4A
:10122000F0B206F04EF947F8140B2846002142466A
:10123000B0EE480AF0EE490A04F0CAFE0136042E68
:1012400005F14805ECD19FED938A4BF2C4229FED46
:10125000900A04F5BC70C0F600020021F0EE480AC6
:101260000190002504F0B4FE9FED8B9A4BF2B4215F
:1012700004F5E070C0F60001B0EE490A06F0F6F899
:101280004BF2BC2104F5E870C0F60001B0EE490A4B
:1012900006F0ECF84BF2B82104F5F070C0F600014E
:1012A000B0EE490A06F0E2F84BF2C02104F5F870FE
:1012B000C0F60001B0EE490A06F0D8F8002000217F
:1012C000C4F27A40CCF27A41C4E99201C4E99401B3
:1012D000204605F0F7FF9FED6A0B9FED70AA04AE64
:1012E0000DF1080A5BEC107B204605F027FE204636
:1012F00005F0E8FF304603A9524623460495CDE9A0
:10130000025505F0FFFD207901283FD194ED910AA7
:1013100094ED961A30EE410A07F0A6F910EE100A85
:1013200020F00040B0EE409AFFF726FA3A465B46BE
:10133000FFF7BFF9002840F6F030F0EE480AC2F29D
:10134000000018BFF0EE490AC0ED000A0198B0EEA7
:10135000480A04F099FD9DED042A94ED921AD4ED0B
:10136000930A84ED8E0AB0EE420A06F087F89DEDEE
:10137000032A94ED941AD4ED950A84ED8C0AB0EE0C
:10138000420A06F07BF884ED8D0A01E094ED8D0AA7
:1013900094ED8C1A94ED8E2A31EE003A33EE024A27
:1013A000B1EE444A8DED044A30EE414A31EE400A36
:1013B00030EE420A34EE424A33EE423A8DED070AED
:1013C00004F114000021B0EE480A8DED054A8DEDC0
:1013D000063A00BF721892ED001A043180ED001A2F
:1013E000B0EEC11AB4EE410AF1EE10FAB8BFB0EE99
:1013F000410A102900F11400ECD1B4EE4A0AF1EED2
:1014000010FA0DDD8AEE000A142000BF211891EDBC
:10141000001A143020EE011A642881ED001AF5D16B
:1014200004F110084FF0580998EC020A04EB090087
:1014300004F02AFD09F14809B9F5BC7F08F1140848
:10144000F2D104F17800002190ED000A6318BDEE9E
:10145000C00A143110EE102A502900F148001A83F6
:10146000F2D1B4F91800B4F92C10B4F94020B4F951
:10147000543007F0AFF8052007F064FB34E700BFF5
:101480009A9999999999B93F0080BB450000FA440F
:101490000000C842000000000AD7A33B00007A44C5
:1014A00080B5002000210022002307F093F8BDE85A
:1014B000804006F03FB800002DE9F041069D4FF452
:1014C0007A74079EA5FB0437884606FB047140F634
:1014D0007817C2F2000787F8640287F82022C7E96C
:1014E0008031C7E9823107F0ADF897F82002102863
:1014F00030D128463146FFF7F7F897ED961A00EEFF
:10150000100A002130EE410AC7E98011C7E98211B3
:10151000C7F8440207F0A8F810EE100A20F00040C7
:10152000FFF72AF99FED1E0B55EC104B22462B4678
:10153000FFF7A4F888BB97ED910A97ED961A30EE65
:10154000410A07F091F810EE100A20F00040FFF772
:1015500013F9EBE7182000BF3C5214306828FBD188
:10156000142007F0EFFA002000210022002307F0EA
:1015700031F8B8F1000F18BFBDE8F08140F634151E
:101580000024C2F2000500BF28684FF0FF3108F0C8
:10159000B5FB092C04F10104F6D3BDE8F08100BFCE
:1015A0009A9999999999B93F0138052800F2BA801A
:1015B000B0B582B0DFE800F0037D3A571286002410
:1015C0009623002000210422CDE90034FFF774FFA8
:1015D0004FF416730020002101229CE000244FF4F8
:1015E0008773002000211022CDE90034FFF764FF4B
:1015F00040F25235002000210122CDE90054FFF7CE
:101600005BFFB423002000211022CDE90034FFF756
:1016100053FF002000210122CDE90054FFF74CFFC9
:101620000094002000211022019476E000244FF461
:10163000AF73002000210222CDE90034FFF73CFF08
:101640005A23002000211022CDE90034FFF734FF97
:1016500040F2A463002000210122CDE90034FFF70D
:101660002BFFB42321E0002400200021102200944D
:101670000194FFF721FF40F25235002000210122A2
:10168000CDE90054FFF718FF4FF4877300200021C5
:101690001022CDE90034FFF70FFF002000210122C6
:1016A000CDE90054FFF708FF5A2300200021102243
:1016B00031E000234FF44874002000210122CDE9DD
:1016C00000432AE000244FF48773002000211022F9
:1016D000CDE90034FFF7F0FE4FF42F730020002116
:1016E0000122CDE90034FFF7E7FEB42300200021FA
:1016F0001022CDE90034FFF7DFFE40F2A4630020A2
:1017000000210122CDE90034FFF7D6FE4FF4C87363
:10171000002000210422CDE90034FFF7CDFE02B005
:10172000BDE8B04040F64410C2F20000006800215D
:101730000222002308F094BC40F6E030C2F2000020
:10174000704741F25170C0F6000005F062BA000027
:1017500080B5808841F6C401C2F200010880B1F969
:101760000000FEF7D7FF9FED0A0B53EC102BFEF79E
:10177000A4FE9FED090B53EC102BFEF79EFEFFF726
:101780000EF840F6E031C2F20001086080BD00BFF3
:10179000000000000000003F0000000000806640E4
:1017A00080B503F07DFF002818BF012080BD40F206
:1017B0000C5CC2F2000C0CEB800041708270C370B4
:1017C000704740F20C50C2F2000070470538C0B2BA
:1017D00002288EBF002002A151F82000704700BFF0
:1017E0000C00002028000020440000202DE9F04FCC
:1017F00085B0034640F20C50C2F20000C45C455C68
:10180000865C4BF61110C0F6000019461A468DF89A
:1018100011408DF812508DF8136001F0BDFA4BF6AF
:10182000FE00C0F6000021462A46334601F0B4FA15
:1018300040F20C0940F2280840F2440B00260DF15A
:10184000110AC2F200090124C2F20008C2F2000B20
:10185000002700BF462001F04EF81AF8075001217A
:1018600059F82500C822CDE900040520322302964C
:1018700000F01FFD58F825000021CDE900040620E6
:10188000C8223223029600F014FD4FF47A7007F05C
:1018900059F94FF4C870002F08BF4FF4FA7007F0E1
:1018A00051F9DBF810000021CDE9000407204FF4C6
:1018B0002F72FF23029600F0FCFC00F014FD5A206A
:1018C00001F008F8DBF808000021CDE9000407204A
:1018D0004FF42F72FF23029600F0EBFC00F003FDA3
:1018E000522001F008F84FF4C87007F02BF9DBF82C
:1018F0000C000021CDE9000407204FF42F72FF23D4
:10190000029600F0D6FC00F0EEFC532000F0E2FF5F
:10191000022F0FD0DBF808000021CDE900040720DA
:101920004FF42F72FF23029600F0C3FC00F0DBFCA3
:1019300001378FE7DBF8040001250024CDE900051D
:10194000072000214FF42F72FF23029400F0B1FC16
:1019500000F0C9FC462000F0CEFFD9F808000121B4
:10196000CDE900050520C8223223029400F0A1FC35
:10197000D8F808000021CDE900050620C82232234E
:10198000029400F096FC40F64410C2F20000006899
:1019900000210222002305B0BDE8F04F08F060BB33
:1019A0002DE9F04F85B0044640F20C50C2F2000021
:1019B00000EB840010F80190865CC75C4BF61110B8
:1019C000C0F6000088468DF811908DF812608DF8F1
:1019D000137001F0E1F94BF6FE00C0F60000494635
:1019E00032463B4601F0D8F940F2280B40F20C0A8F
:1019F000C2F2000BC2F2000A5BF829205AF8295003
:101A00004BF62610C0F6000049464B46009501F003
:101A1000C3F95BF826205AF826504BF62610C0F67C
:101A2000000031463346009501F0B6F95BF82720F7
:101A30005AF827604BF62610C0F6000039463B46A0
:101A4000009601F0A9F9404600F04DFF40F244062F
:101A500000270DF111080125C2F200064FF0000A1F
:101A6000522000F048FF18F80AB040F20C00C2F211
:101A7000000050F82B000121CDE900050520C82207
:101A80003223029700F015FC40F22800C2F2000059
:101A900050F82B000021CDE900050620C822322392
:101AA000029700F006FC4FF47A7007F04BF8F068EC
:101AB0000021CDE9000507204FF42F72FF23029784
:101AC00000F0F7FB00F00FFC5A2000F003FFB068B5
:101AD0000021CDE9000507204FF42F72FF23029764
:101AE00000F0E7FB00F0FFFB462000F004FF4FF49E
:101AF0007A7007F027F84846BAF1020F1CBF08EBCE
:101B00000A00407800F0EFFEB4B1012C0CD17069EE
:101B10000021CDE9000507204FF42F72FF23029723
:101B200000F0C7FB00F0DFFB532000F0D3FEBAF15A
:101B3000020F14D123E000BF30690021CDE9000578
:101B400007204FF42F72FF23029700F0B2FB00F042
:101B5000CAFB532000F0BEFEBAF1020F12D0B068EB
:101B60000021CDE9000507204FF42F72FF230297D3
:101B700000F09FFB00F0B7FB0AF1010A70E7012CAF
:101B80000FD10436306801210027CDE9000107207C
:101B900000214FF42F72FF23029700F08AFB00F020
:101BA000A2FB40F64410C2F20000006800210222AD
:101BB000002305B0BDE8F04F08F052BA70B584B00C
:101BC000044640F20C50C2F20000055D40A02146E0
:101BD00001F0E2F841A0294601F0DEF840F22800C9
:101BE000C2F2000050F8251040F20C00C2F20000D2
:101BF00050F825203CA001F0CFF8204600F073FEFD
:101C000040F24405C2F20005286801260024CDE90F
:101C10000006072000214FF42F72FF23029400F0EA
:101C200048FB00F060FB522000F065FE4FF47A7034
:101C300006F088FFE8680021CDE9000607204FF490
:101C40002F72FF23029400F034FB00F04CFB5A206B
:101C500000F040FEA8680021CDE9000607204FF4FF
:101C60002F72FF23029400F024FB00F03CFB46207F
:101C700000F041FE4FF47A7006F064FF28690021FD
:101C8000CDE9000607204FF42F72FF23029400F0E5
:101C900010FB00F028FB532000F01CFE68680021B8
:101CA000CDE9000607204FF42F72FF23029400F0C5
:101CB00000FB00F018FB40F64410C2F20000006880
:101CC00000210222002304B0BDE8704008F0C8B92A
:101CD000436F6C6F72202564200D0A0044697220E6
:101CE0002564200D0A0000004D4F544F525F585F8D
:101CF000506F733D2535642020204D4F544F525F67
:101D0000525F506F733D2535640D0A00B0B584B045
:101D100040F24400C2F20000006801250024CDE931
:101D20000005072000214FF42F72FF23029400F0DA
:101D3000C0FA40F20C00C2F2000080680121CDE937
:101D400000050520C8223223029400F0B2FA0620D2
:101D50000021C8223223CDE90045029400F0A9FAFF
:101D600004B0BDE8B04000F0BEBAB0B584B040F2F7
:101D70000C00C2F20000806801250024CDE90005B6
:101D800005200121C8223223029400F092FA062095
:101D90000021C8223223CDE90045029400F089FADF
:101DA000462000F0A8FD4FF47A7004B0BDE8B040C2
:101DB00006F0C8BEF0B583B041F6D405C2F2000506
:101DC000287041F6D50440F28C20C2F20004C2F221
:101DD0000000012A21704274C37304BF0122027003
:101DE000012B2ED140F20856C2F2000640F22860C4
:101DF0003268C2F200000068515C012750F82100EF
:101E00000025CDE9000705200121C822FA2302950B
:101E100000F04FFA40F22C6031682278C2F20000E4
:101E20000068895CC82250F821000021CDE9000734
:101E30000620FA23029500F03CFA4FF4FA7006F0FF
:101E400081FE40F21450C2F200000068022103B08B
:101E5000BDE8F04007F074BA40F28C20C2F20000F6
:101E60000130704710B52DED048B8AB041F69D709E
:101E7000C0F6000004F0D4FE0520FFF7A7FC40F2F6
:101E80002861C2F2000108600620FFF79FFC40F2C3
:101E90002C61C2F200010860FFF793FC40F2085188
:101EA000C2F200010860324831A107AB9FED338ACE
:101EB0009FED339AD1E9011207C340F2306007ACBD
:101EC000C2F2000000212246B0EE480AF0EE490AB4
:101ED00004F07EF840F27860C2F200000021224651
:101EE000B0EE480AF0EE490A04F072F8254825A140
:101EF00004ABD1E9011207C340F2C06004ACC2F2E6
:101F0000000000212246B0EE480AF0EE490A04F033
:101F10005FF840F20870C2F2000000212246B0EEE5
:101F2000480AF0EE490A04F053F8194818A101AB29
:101F3000D1E9011207C340F2987001ACC2F200006F
:101F400000212246B0EE480AF0EE490A04F040F8BB
:101F500040F25070C2F2000000212246B0EE480A62
:101F6000F0EE490A04F034F80AB0BDEC048B10BD61
:101F70000000C03F00000000000000000080BB45E2
:101F8000CDCCCC3DCDCCCC3F00000000000000000B
:101F900000007041000000000000000070B52DED51
:101FA000028B82B0417840F28C26C2F20006F174B6
:101FB000438840F6E434B3828288C2F20004F2829D
:101FC000238040F6E634C2F2000422803478032CE9
:101FD00037D0022C2DD0012C3CD17579002D08BFB3
:101FE0000D46F4887571002C08BF1C463089F480BA
:101FF000002808BF1046A94230812BD0A1B29BB265
:10200000C91A48BF4942042924D880B291B2401A63
:1020100048BF404204281DD84BF6D200C0F600004D
:1020200000F0BAFE4BF693000221C0F600003170BA
:1020300053E0180418BF5FEA02400FD1002030744B
:1020400008E04278B17AF27280788A4270734BD09D
:10205000884249D002B0BDEC028B70BDF08B1B1AD8
:10206000308C3383101A40F6EA32C2F200027083D9
:10207000138040F6EC321DB2C2F20002108083EAF7
:10208000E532A2EBE53396F822209BB2934257D873
:1020900003B280EAE330A0EBE33080B290424FD845
:1020A00041F6D40441F6D505C2F200040020C2F284
:1020B00000052070B27A28704BF6B300C0F600001D
:1020C000002A18BF1146B17200F066FE032030707E
:1020D0000120052120705AA0297002B0BDEC028BAE
:1020E000BDE8704000F058BE1318C3F106038A42E1
:1020F000B2703071F37018BF884204D10122884257
:1021000008BF0222B27335A000F046FE0020B1786D
:10211000F278337930703BA000F03EFE41A000F031
:102120003BFE40F64410C2F200000068002102228B
:10213000002302B0BDEC028BBDE8704007F090BFF9
:1021400040F21450C2F20000006800250221002273
:102150000023009507F042F980077FF57BAFB6F9C1
:1021600018409FED418A20B284EAE031A1EBE030D3
:1021700080B200EE100AB8EE400A20EE080A10EE17
:10218000100AFEF7D8FA84460B46012201200021EE
:10219000002CC8BF0222CDE900C3FFF78DF9B6F9C4
:1021A0001A4020B284EAE031A1EBE03080B200EEC8
:1021B000100AB8EE400A20EE080A10EE100AFEF7E8
:1021C000BAFA84460B46082201200021002CC8BF21
:1021D0000422CDE900C3FFF76FF93BE745584954A6
:1021E000204D41495843414D5F5354415455535F2D
:1021F000426C6F625F5761697447726162310D0AA8
:1022000000000000426C6F624469724D6170706939
:102210006E67436F6C6F72203A20256425642564D5
:102220000D0A0000454E544552204D414958434146
:102230004D5F5354415455535F49646C650D0A001A
:10224000454E544552204D41495843414D5F5354EA
:10225000415455535F426C6F625F576169744772B6
:102260006162310D0A0000009A99193F10B580B1E2
:1022700079B140F28C24C2F20004227C1AB903F036
:10228000F7FA0120207403F079FA10B100202074CD
:1022900000BF10BD80B50520002100F0D5FE06204E
:1022A000002100F0D1FE07200021BDE8804000F0B1
:1022B000CBBE2DE9F04784B00CAE70CE9846914667
:1022C0008A46074604F008FE384651464A464346C9
:1022D000CDE90045029600F086FE0A2004B0BDE874
:1022E000F04706F02FBC04F003BE000080B582B0BA
:1022F00040F2E870C2F20000002100688DF807107B
:102300000DF10701002207F035FC012809D19DF8E5
:10231000071042F60960C2F20000017002A000F04E
:102320003BFD02B080BD00BF735F75635374617481
:102330007573203A2025640D0A0000002DE9F04F46
:102340008FB007A82021FDF7C6FF40F20130ADF89D
:10235000180040F2012042F60968C0F20320C2F2E0
:102360000008059098F8000000211D28049121DC48
:10237000152800F25582DFE810F01600CB00480166
:102380009500B00077003301530253025302E60078
:102390005302530253025302530253025302530295
:1023A0005302630181014FF4FA700FB0BDE8F04FA2
:1023B00006F0C8BB27282ADC1E2800F096811F28BB
:1023C00040F02E824BF28850C0F6000000F0E4FC92
:1023D00040F2FD40C2F20000007805AA60F300025E
:1023E00060F34102107851789278FFF7FFF904AA60
:1023F00000204FF0FF314FF0FF3307F07DFF042046
:1024000088F800004BF2A650C0F6000006E228282B
:1024100000F0E781292840F003824BF26160C0F6AA
:10242000000000F0B9FC40F2FD44C2F20004207844
:1024300005AB60F3000360F3410319785A789B7889
:10244000FFF7AEFA04AA00204FF0FF314FF0FF3340
:1024500007F052FF20780521002818BF062188F8D0
:1024600000100FF23040D9E14BF22D50C0F60000C1
:1024700000F092FCFFF74AFC0520FFF795F804AA4C
:1024800000204FF0FF314FF0FF3307F035FF40F2EF
:10249000FD40C2F2000001210170142088F8000004
:1024A000F3A0BBE14BF2E640C0F6000000F074FC84
:1024B000FFF72CFC0320FFF777F804AA00204FF069
:1024C000FF314FF0FF3307F017FF1E2088F80000A0
:1024D0004BF20A50C0F60000A0E14BF29940C0F662
:1024E000000000F059FCFFF711FC0420FFF75CF836
:1024F00004AA00204FF0FF314FF0FF3307F0FCFE3D
:10250000282088F800004BF2C040C0F6000085E1AA
:102510004BF22D70C0F6000000F03EFCFFF7F6FB1A
:102520000120FFF741F804AA00204FF0FF314FF0DF
:10253000FF3307F0E1FE022088F800004BF24770FD
:10254000C0F600006AE140F2FE45C2F200052878BC
:1025500038B94BF23660C0F6000000F01DFC0120D7
:10256000287007AC204603F07DFD002800F058815C
:102570004BF26070C0F60000214608F0E3F800203E
:1025800005A90022D3B2E35C2B2B08BF0132D3B2E2
:10259000E35C0132303B0B5401300628F2D107A82E
:1025A00003F0BCFD40F64410C2F2000000680021B8
:1025B000022200230224002607F052FD04AA002074
:1025C0004FF0FF314FF0FF3307F096FE4BF24C60B7
:1025D000C0F6000088F8004000F0DEFB2E701FE11E
:1025E00091A000F0D9FBFFF791FB0620FEF7DCFF7E
:1025F00004AA00204FF0FF314FF0FF33002407F012
:102600007BFE92A088F8004008E14BF25150C0F6E2
:10261000000000F0C1FBFFF779FB0220FEF7C4FFCA
:1026200004AA00204FF0FF314FF0FF3307F064FEA3
:10263000142088F800004BF26D50C0F60000EDE069
:102640004BF2FA60C0F6000000F0A6FBFFF78DFB2E
:102650000120042101220023FFF7ACFB04AA002083
:102660004FF0FF314FF0FF3307F046FE152088F89A
:1026700000004BF21470C0F60000CFE04BF2C350E4
:10268000C0F6000000F088FBFFF7E6FB012103AA7B
:10269000012300BFC75CB94204D00133042BF9D138
:1026A00001E000BF535401310429F1D1417882780F
:1026B000C3784BF21760C0F6000000F06DFB9DF888
:1026C0000D109DF80E209DF80F304BF2F850C0F61B
:1026D000000000F061FB4BF2DE50C0F6000000F09D
:1026E0005BFB002088F800009AE04BF2DD60C0F64A
:1026F000000000F051FBFFF738FB0220022100220E
:1027000000234FF00009FFF755FB04AC00204FF009
:10271000FF3122464FF0FF3307F0EEFD4FF0010A84
:1027200041F64C5B072000214FF496726423CDE9FB
:1027300000BACDF80890FFF7BCFDFFF7D4FD0220EA
:10274000022100220023FFF735FB00204FF0FF316C
:1027500022464FF0FF3307F0CFFD40F2FD46C2F2B4
:10276000000605AF002500BF072000214FF4967238
:102770006423CDE900BACDF80890FFF79AFDFFF782
:10278000B2FD3078394660F3000160F34101495DE4
:10279000022000220123FFF70DFB00204FF0FF3144
:1027A00022464FF0FF3307F0A7FD3078394660F33B
:1027B000000160F34101485DFFF700FA00204FF08F
:1027C000FF3122464FF0FF3307F096FD0135032D10
:1027D000CAD11F2088F800004BF28060C0F60000CC
:1027E0001CE04BF2A460C0F6000000F0D5FAFFF741
:1027F000BCFA0220022100220023FFF7DBFA04AA20
:1028000000204FF0FF314FF0FF3307F075FD292016
:1028100088F800004BF2C160C0F6000000F0BCFA7E
:102820000FB0BDE8F08F00BF454E544552205354C1
:10283000415455535F50726F536563417265615FD8
:10284000325F53746172740D0A0000004558495498
:10285000205354415455535F50726F536563417216
:1028600065615F325F53746172740D0A000000008D
:1028700045584954205354415455535F50726F5337
:102880006563417265615F325F5261774172656174
:102890000D0A000045584954205354415455535F84
:1028A00050726F53656341726561506C6163650D71
:1028B0000A00000041F6D40441F6D505C2F2000436
:1028C000C2F2000520782978FFF7D0FC642006F0DA
:1028D00039F9F7E780B503F04BFC4FF4C870BDE859
:1028E000804006F02FB980B503F054FC6420BDE8A9
:1028F000804006F027B903F063BC704782B040F215
:102900001454C2F200042068012106F019FD4FF0B2
:10291000FF3500BF2068012100220023009506F04A
:102920005DFDC00718BFFEF74FFC0A2006F00AF94C
:10293000F0E7FEF759BC0000FEF732FF052006F075
:1029400001F9F9E7FFF7D2FCFFF7F8FC0A2006F0DF
:10295000F9F8F7E7FFF7AEBF8EB00520FEF736FFB8
:1029600040F20051C2F2000108600620FEF72EFF7F
:1029700040F2045140F2145940F6781BC2F20001B3
:10298000C2F200094FF0FF3AC2F2000B086000BF2C
:10299000D9F80000802100220023CDF800A006F025
:1029A0001DFD000640F1AC81DBF81000DBF824408F
:1029B000DBF83850DBF84C60FDF7DEFE07462046BA
:1029C0008846FDF7D9FE41EC180B2846FDF7D4FEEA
:1029D00041EC190B3046FDF7CFFEDBF8304241ECFD
:1029E0001A0B2046FDF7C8FE41EC1B0B84F000409B
:1029F000FDF7C2FEDBF8344241EC1C0B2046FDF72C
:102A0000BBFE41EC1D0B84F00040FDF7B5FE41EC30
:102A1000100B4BF28E30C0F600003A4643468DEC68
:102A20000C8B8DED0C0B07F08DFEDBE91E40DBE916
:102A30000465FDF7A1FE0746DBF880008846FDF738
:102A40009BFE41EC180BDBF88400FDF795FE41EC92
:102A5000190B2046FDF790FE41EC1A0B3046FDF7AE
:102A60008BFE41EC1B0B2846FDF786FE41EC100B5C
:102A70004BF2BE30C0F600003A4643468DEC088B60
:102A80008DED080B07F05EFEDBE93040DBE9096500
:102A9000FDF772FE8046DBF8C8000F46FDF76CFEBE
:102AA00041EC180BDBF8CC00FDF766FE41EC190B8E
:102AB0002046FDF761FE41EC1A0B3046FDF75CFE47
:102AC00041EC1B0B2846FDF757FE41EC100B4BF277
:102AD000E930C0F6000042463B468DEC088B8DED98
:102AE000080B07F02FFEDBE94240DBE90E65FDF73E
:102AF00043FE8046DBF810010F46FDF73DFE41EC3A
:102B0000180BDBF81401FDF737FE41EC190B2046DA
:102B1000FDF732FE41EC1A0B3046FDF72DFE41EC7D
:102B20001B0B2846FDF728FE41EC100B4BF214401E
:102B3000C0F6000042463B468DEC088B8DED080B3D
:102B400007F000FEDBE95440DBE91365FDF714FEF6
:102B50008046DBF858010F46FDF70EFE41EC180BDE
:102B6000DBF85C01FDF708FE41EC190B2046FDF790
:102B700003FE41EC1A0B3046FDF7FEFD41EC1B0B4A
:102B80002846FDF7F9FD41EC100B4BF23F40C0F633
:102B9000000042463B468DEC088B8DED080B07F09C
:102BA000D1FD40F6F030C2F200000068FDF7E4FD10
:102BB0000446DBF838020D46FDF7DEFD41EC100B54
:102BC0004BF28A40C0F6000022462B468DED000BEA
:102BD00007F0B8FDDBF81400DBF82860DBF83C7088
:102BE000DBF85040FDF7C8FD804630460D46FDF746
:102BF000C3FD41EC180B3846FDF7BEFD41EC190B47
:102C00002046FDF7B9FD41EC100B4BF26A40C0F6CF
:102C1000000042462B468DEC048B8DED040B07F033
:102C200091FDBBF91810BBF92C20BBF94030BBF962
:102C3000547035A0009707F085FDDBF80800DBF83D
:102C40001C10DBF83070DBF84460D0E90A23D1E9CE
:102C50000A01D7E90A75D6E90A648DE883004BF2C8
:102C60006530C0F60000CDE90356059407F06AFD13
:102C700040F20050C2F200000068031D0ECB29A0F4
:102C800007F060FD40F20450C2F200000068031D2E
:102C90000ECB2AA007F056FDDBE98017DBE9842381
:102CA0002CA0CDE9001707F04DFD40F60440C2F21C
:102CB0000000B0F9001040F60640C2F20000B0F982
:102CC000002029A007F03EFD40F6E430C2F20000EB
:102CD000018840F6E630C2F20000028827A007F023
:102CE00031FD40F6EA30C2F20000B0F9001040F6C3
:102CF000EC30C2F20000B0F9002023A007F022FD62
:102D0000322005F01FFF43E67B676976655F6375D8
:102D10007272656E747D25642C25642C25642C25C7
:102D2000640A00007B4D4F544F525F525F506F73E7
:102D30007D25642C25642C25640A00007B4D4F54AE
:102D40004F525F585F506F737D25642C25642C258E
:102D5000640A00007B6469735F7365747D256C6C25
:102D6000642C256C6C640A007B675F6F627365720C
:102D70007665727D25642C25640A00007B63616D95
:102D80007D25642C25640A007B63616D5F647D256D
:102D9000642C25640A00000083B0B0B5ADF20C4D80
:102DA00084460DF10B04CDF81C14CDF82024CDF889
:102DB00024340DF21C43204640F201416246019347
:102DC00007F0E4FC40F2E075C2F2000528684FF01D
:102DD000FF3104F050FD06A0214607F0B3FC28683F
:102DE00004F0A4FD0DF20C4DBDE8B04003B07047F7
:102DF000257300002DE9F04782B000250DF1070191
:102E000000208DF8075004F0A0FA00283FD042F6C9
:102E1000086640F2742741F6C808C2F20006C2F202
:102E20000007C2F200080DF107044FF001094FF04E
:102E3000000A00BF307898B138783E281AD89DF83B
:102E400007107B7A78683A78994215D18554D8F87A
:102E50000020AAB13978904735704FF0010A0FE091
:102E60009DF807007978884204BF86F800903D708D
:102E700006E000BF357003E0531C3B70815400BF77
:102E80000020214604F061FA0028D3D101E04FF080
:102E9000000A5FFA8AF002B0BDE8F087FEE740F66C
:102EA0000840C2F2000000F037BA10B540F2F474E6
:102EB00040F60840C2F2000440F2EC73C2F2000097
:102EC000C2F200030021224600F095F92068A0F22A
:102ED0000121032988BF10BD013841F25821C0B239
:102EE000C2F2000101EB801040F2EC71C2F200016D
:102EF000BDE8104004F0ECBA40F63040C2F20000E9
:102F000000F00ABAB0B540F6180540F6100440F6D5
:102F10003040C2F20005C2F20004C2F200000021FB
:102F20002A46234600F067F900B1B0BD40F67110A3
:102F3000C2F2000000786968B0EB112F0ED1207842
:102F4000FD280BD160789F2808D1A0786B2805D187
:102F500040F67010C2F200000121017040F6180026
:102F6000C2F200001C21FDF7B6F9B0BD40F61850C2
:102F7000C2F2000000F06ABC40F65870C2F20000D5
:102F800000F064BC40F65840C2F2000000F05EBCA5
:102F900040F6B870C2F2000000F058BC40F6B840ED
:102FA000C2F2000000F052BC40F69860C2F200008D
:102FB00000F04CBC40F6F860C2F2000000F046BCE5
:102FC00040F67850C2F2000000F040BC40F6D85005
:102FD000C2F2000000F03ABC40F63860C2F20000D5
:102FE00000F034BC7047B0B584B0DDE9084E8DF810
:102FF0000000FD208DF80100100A8DF80300200E5E
:103000008DF80600200C8DF80700200ADDF828C096
:103010008DF808006B2000258DF802108DF80C004B
:1030200068460D218DF80F50ADF80D508DF8042035
:103030008DF805308DF809408DF80AE08DF80BC049
:1030400003F0B6FE04B0B0BD80B584B08DF80000CA
:1030500049F6FE00ADF801006B2000228DF8031048
:103060008DF80400684605210392CDF80920CDF8BB
:10307000052003F09DFE04B080BD000072B600BFC5
:10308000FEE710B590F820E0D0F800C0AEF1010ED8
:10309000BEF1010FDCF808E011D81EF0E05F14D09B
:1030A000CEF301640120A04018608B689BB1D1F879
:1030B00004E0C86840EACE0040EA030E0FE000F1E9
:1030C000240301204FF4802121E000F1240301209A
:1030D0004FF400111BE00868CB6843EA405E0CF532
:1030E000C07000EB0413240140F804E00C6918469A
:1030F00040F8044F097D012903D1016841F4807132
:10310000016050680121D8601068986000201A683A
:103110001143196010BD90F82020013A012A30D8DF
:10312000B0B546F20060C4F20000026842F001024D
:103130000260026822F47C520260D1F814E0CC698B
:103140004A6A0368012C43EA022202600EF01F0261
:103150004FF0010303FA02F2C3696FEA020C23EA9B
:103160000203C36113D02CBBC36803EA0C03C36022
:10317000CB688C8844EA034300EBCE0423640B46FF
:1031800011E0416A41F48021416201207047C36827
:103190001343C3600B688C8844EA034300EBCE04FE
:1031A000236401F10C038C681B8843EA044300EBA1
:1031B000CE04636443688D6943EA0204D1F810E0E9
:1031C000096A002D08BF03EA0C0444604369BEF19C
:1031D000000F43EA020408BF03EA0C04012944611A
:1031E00002D1C1691143C161016821F0010101608F
:1031F0000020B0BD7047B0B590F82040013C012CD4
:103200007AD8D0F800C000290CBFDCF80C40DCF8FC
:103210001040A40776D00CF5D8754FEA011C55F87C
:103220000C4014F00404946055F80CE005EB011C0C
:1032300019BF4FEADE0555604FEA5E551560DCF8B0
:103240000050E64605F00205D5605EF8044F2407FD
:103250005ABFDEF8004004F00F0408241461DEF8C1
:1032600000400029C4F307249461DEF800504FEABF
:1032700015455561DCF808201A70026802EB01124E
:10328000D2F8B8214FEA12225A70026802EB0112FA
:10329000D2F8B8214FEA12429A70026802EB01128A
:1032A000D2F8B8214FEA1262DA70026802EB01121A
:1032B000D2F8BC211A71026802EB0112D2F8BC21CB
:1032C0004FEA12225A71026802EB0112D2F8BC21B5
:1032D0004FEA12429A71026802EB0112D2F8BC2145
:1032E0004FEA1262DA7100680CBF00F10C0100F1C4
:1032F0001001002020220AE000F1240101204FF4F7
:10330000802204E000F1240101204FF400120B6838
:103310001A430A60B0BD00002DE9F04F81B00446A9
:1033200000684669D0F804908768D0F80CB0D0F8EF
:1033300010A0D0F81880F10701D1002549E0F90765
:103340000ED00121BA07816007D478071DD4380751
:1033500021D4204600F020FA02E0204600F01DFAB9
:103360000025F8051CD520684FF48071BA058160EE
:1033700007D478050CD4380510D4204600F00EFA96
:103380000EE0204600F00BFA0AE04FF40065E8E793
:1033900005F5005504E04FF48055E2E705F580455A
:1033A000F80316D520684FF48031BA03816007D442
:1033B000780309D438030AD4204600F0F1F908E074
:1033C000204600F0EEF904E005F5004501E005F5C2
:1033D0008035300707D51BF0100004D0206845F475
:1033E00000751021C160700708D51BF0080005D0DA
:1033F00020680821C160204600F08CF9B00706D58E
:103400002068C068800702D0204600F084F970066A
:1034100007D51AF0100004D0206845F4806510210B
:103420000161B00608D51AF0080005D0206808210F
:103430000161204600F080F9F00606D52068006999
:10344000800702D0204600F078F9B00308D519F0C3
:10345000100005D0206810214160204600F06EF970
:10346000F00308D519F0080005D020680821416054
:10347000204600F097F9300440D55FEA49703AD50C
:1034800006F4807008EA102028435FEA887101463C
:1034900048BF41F00201B20558BF01465FEA4870DB
:1034A0000D4648BF45F00405700558BF0D46300570
:1034B00021D518F070001ED010380009052815D845
:1034C000DFE800F0030F090C061245F008050DE0D7
:1034D00045F080050AE045F0200507E045F040058D
:1034E00004E045F0100501E045F48075206881692D
:1034F00021F0700181612068042141604DB1606A52
:1035000040EA05012046616201B0BDE8F04FFFF7D7
:1035100071BE01B0BDE8F08FD0B1B0B5044690F8EF
:10352000200010B9204600F06FF82068016841F0D3
:103530000101016000F027FC054600BF20684168DA
:10354000C90707D100F01FFC401B0B28F6D312E07F
:1035500001207047016821F00201016000F013FCB6
:10356000054600BF2068416889070BD500F00BFCB9
:10357000401B0B28F6D3606A052140F400306062DE
:1035800001203EE0217E0268012922F0800208BF6E
:1035900080320260617E0268012922F0400208BF89
:1035A00040320260A17E0268012922F0200208BF99
:1035B00020320260E17E0268012922F0100218BF69
:1035C00010320260217F0268012922F0080208BF40
:1035D00008320260617F0268012922F0040208BFFC
:1035E00004320260D4E901C2D4E9033561691A43A7
:1035F0002A431143ACF101021143C16100200121B2
:10360000606284F82010B0BD10B586B0044601A8F1
:103610001421FCF760FE206846F60001C4F20001A8
:1036200088422ED046F20041C4F2000188426FD198
:1036300040F21851C2F200010A6843F63000C4F2A9
:103640000200531C0B6052B900210091016941F046
:1036500000710161016901F0007100910099002180
:1036600000910168142441F00101016000684FF4E9
:10367000C05100F00100009000980020C4F2020048
:1036800032E043F630000021C4F2020000910269EA
:1036900042F080620261026902F080620092009A48
:1036A00040F21852C2F2000213685C1C14604BB95D
:1036B0000091026942F000720261026902F0007238
:1036C0000092009A00910168402441F002010160DB
:1036D00000684FF4405100F0020000900098002074
:1036E000C4F2020000F580600191022102910021E4
:1036F0000391032104910921059101A900F072FAB7
:1037000020460521002200F0F5FB204600F0E2FBF8
:1037100006B010BD704740F60841C2F20001884271
:1037200008BFFFF7C2BB40F63041C2F20001884239
:1037300018BF7047FFF7E6BB70477047704700003F
:10374000B0B5044690F8200001281CD1022084F86E
:1037500020002068016821F00101016000F013FBE6
:10376000054600BF20684068C00712D000F00BFB80
:10377000401B0B28F6D3606A40F4003060620520DD
:1037800084F8200003E0606A40F4002060620120B9
:10379000B0BD00206062B0BD704770477047704791
:1037A000704770477047000070B5866D044600F0A2
:1037B000EAFA94F83510022925D105462068216CD3
:1037C000026822F016020260426922F08002426121
:1037D00009B9A16C19B1016821F008010160016803
:1037E00021F00101016000BF20680068C0070ED011
:1037F00000F0C9FA401B0628F6D32020606503209C
:1038000084F835000CE080206065012008E0E06D60
:103810003F2101FA00F0B060012084F8350000205B
:10382000002184F8341070BD90F83510022909D1B8
:10383000052180F835100068016821F00101016060
:10384000002070478021416501207047F0B581B0AC
:1038500004460020009040F26C20C2F20000026892
:10386000D4E9166048F2B51337680821C1F64E3323
:1038700081403942A2FB03250CD0226813685B0704
:1038800008D5136823F004031360B160616D41F043
:103890000101616501218140394208D022685269E5
:1038A000120604D5B160616D41F002016165042129
:1038B0008140394208D022681268920704D5B1606D
:1038C000616D41F00401616510218140394217D0DA
:1038D00020680268120713D5B160026801685203BC
:1038E00006D4C90506D4016821F00801016001E091
:1038F000080301D4216C00E0A16C09B1204688477F
:10390000E16D202000FA01F23A423CD020680368C1
:10391000DB0638D5B26094F835300268052B1AD131
:1039200022F016020260426922F080024261226C9B
:103930000AB9A26C1AB1026822F0080202603F20A4
:103940008840B060012084F83500216D002084F8A3
:103950003400B9BB3BE0016852030CD4C9050ED456
:10396000016821F010010160012084F83500002079
:1039700084F8340003E0080301D4616C00E0E16BDB
:1039800009B120468847606D08B3606DC00717D045
:10399000052084F835002068A90A026822F0010297
:1039A000026000BF009A01328A42009202D8026887
:1039B000D207F7D1012084F83500002084F83400C4
:1039C000E16C21B1204601B0BDE8F040084701B0EC
:1039D000F0BD00002DE9F041044600F0D4F9C4B177
:1039E0000546022084F835000020216884F8340060
:1039F000086820F00100086021680868C0070BD043
:103A000000F0C1F9401B0528F6D903252023032027
:103A100064E00120BDE8F081086848F23F02CFF27F
:103A20001002D4E9013500EA020C04F10C0898E810
:103A3000C10143EA0C032B431843D4E9072E30435A
:103A400038431043626A40EA0E00042A40EA080341
:103A50001CD1206BD4E90A2E40EA0E0018430860FE
:103A60004869BEF1000F20F0030040EA020040F078
:103A7000040C11D0B8F5005F35D0B8F1000F42D179
:103A8000022A43D0012A38D0002A3EE00B60486960
:103A900020F0070040EA020C01F0F8004AF6AB22E1
:103AA0001038CAF6AA22A0FB02231A094BF2DC2323
:103AB000C1F814C0C0F600039A5C40F2FF335F28DF
:103AC0004FF03F0021EA030100FA02F088BF043101
:103AD000C4E916128860002301250020636584F87C
:103AE0003550BDE8F081032AD6D8012540230120B6
:103AF000DFE802F0020C0203F0E7AEF1C070B0FAAA
:103B000080F0400904E0032A04D3C5D1CEF300605D
:103B10000028C1D0012540230120DFE790F834C000
:103B2000BCF1010F04BF0220704770B54FF0010CCB
:103B300080F834C0D0F858E090F835C0BCF1010FDF
:103B400037D14FF0020C80F835C04FF0000CC0F8B0
:103B500054C0D0F800C08468056CC06DDCF800600B
:103B6000402C26F48026CCF80060CCF804300B46BC
:103B700004BF13460A463F2101FA00F0CCF8083092
:103B8000CCF80C20CEF80800DCF8000040F016005D
:103B9000CCF800002DB1DCF8000040F00800CCF8B3
:103BA0000000DCF8000040F00100CCF8000000202C
:103BB00070BD002180F83410022070BDB0B50446FD
:103BC00000F0E1F8054640F2E420C2F2000000787F
:103BD000611C18BF044400BF00F0D5F8401BA04290
:103BE000FAD3B0BD2DE9F04F83B000F1200200F10F
:103BF0003E4741F60045009207F1FF77C4F2020507
:103C000008224FEAB726A84208BF072200254FF036
:103C100000084FF00009072E38BF4FEAB722019283
:103C20000F68012202FA09FE17EA0E0A00F09980D5
:103C3000D1F804C003220CF003077E1E02FA08F438
:103C4000012E6FEA040B11D88468CE6804EA0B04D5
:103C500006FA08F634438460446824EA0E06CCF37E
:103C6000001404FA09F42643466003E0032F01D14F
:103C700003271EE0C6688C6806EA0B0604FA08F4FF
:103C80002643022FC66014D16FF00302009E02EAA1
:103C9000590756F807C005F01C040F220B69A24013
:103CA0002CEA0202A3401A43F251D1F804C00CF0EE
:103CB0000307026807FA08F302EA0B021A431CF42E
:103CC000403F02604DD0002243F644030292C4F20A
:103CD00002031A6843F6004442F480421A601A68EC
:103CE000C4F2010402F480420292029A29F0030213
:103CF0004FF6084C2244CFF6FF7C52F80C3005F00A
:103D00000C070F26BE40B343019E06FA07F73B435C
:103D100042F80C30A2684B6842EA0A0743F60C4CA2
:103D2000DE0258BF22EA0A07A760C4F2010CDCF8E1
:103D300000209E0242EA0A0758BF22EA0A07CCF88E
:103D4000007062689E0342EA0A0758BF22EA0A0727
:103D500067602268DB0342EA0A0758BF22EA0A07C3
:103D6000276009F1010908F10208B9F1100F05F106
:103D700004057FF455AF03B0BDE8F08F002A08BFFB
:103D80000904816170474AF25030C2F200000068B5
:103D9000704740F2E4204AF25031C2F20000C2F211
:103DA000000100780A6810440860704780B543F647
:103DB0000040C4F20200016841F400710160016832
:103DC00041F480610160016841F480710160032069
:103DD00000F0BBF80F2000F004F800F05AF80020C3
:103DE00080BD70B586B0002543F640010195C4F250
:103DF00002010A68044642F020020A60096801A82C
:103E000001F0200101910199694600F058F9049EE2
:103E1000002E18BF012600F071F94DF68361B04005
:103E2000C4F21B31A0FB01014FF0FF3000EB9141C8
:103E300041F2600041F20042C2F20000C4F200020E
:103E400040F2E733C0E90021C0E902530561856112
:103E500000F0BBFB0546C8B941F26000C2F20000A9
:103E600000F0F9FB054688B9372000F033F80F2C35
:103E70000BD8372021460022002500F03BF840F205
:103E8000E820C2F20000046000E00125284606B0E8
:103E900070BD82B0002043F640010190C4F20201DF
:103EA0004A6842F480424A604A6802F480420192C1
:103EB000019A00900868002240F08050086008686D
:103EC0000F2100F08050009000986FF0010002B0C8
:103ED00000F010B800280CD400F01F01012202FAF3
:103EE00001F11C2202EAD0004EF20012CEF20002D2
:103EF0008150704710B54EF60C5CCEF2000CDCF829
:103F00000030C3F3022E8EF00704042C28BF0424D3
:103F1000BEF103034FF0FF3E0EFA04F438BF002356
:103F2000A14399400EFA03F39A43114300F00F02A4
:103F300000F160430901043A03F564436244002838
:103F400048BF02F10C03197010BD4EF60C51CEF2B1
:103F500000010A684FF6FF031A4060F30A2242F09C
:103F6000806040F0FD70086070470000002872D04B
:103F70002DE9F04143F60008C4F202080446D8F8DF
:103F800000040D4600F00700884207D288F800546C
:103F9000D8F8000400F00700A84266D12068810725
:103FA00017D5410705D5D8F8081041F4E051C8F8F5
:103FB0000810010705D5D8F8081041F46041C8F889
:103FC0000810D8F80810A26821F0F0011143C8F8D1
:103FD0000810C00741D1D8F8000400F00700A8423B
:103FE00007D988F80054D8F8000400F00700A84268
:103FF0003BD12068410707D5D8F80810E26821F4C2
:10400000E0511143C8F80810000708D5D8F8080097
:10401000216920F4604040EAC100C8F8080000F0BF
:1040200093F8D8F808104BF27C12C1F30311C0F6D4
:104030000002515C40F26C2220FA01F140F2E820CB
:10404000C2F200000068C2F200021160FFF7C9FE70
:104050000020BDE8F081012070476068811E0229C0
:1040600006D2D8F80010890108D40120BDE8F081FB
:1040700001281FD1D8F800108903F6D5D8F8081008
:1040800021F003010843C8F80800FFF77CFE06464C
:1040900041F28837D8F80800616800F00C00B0EBF6
:1040A000810F98D0FFF76FFE801BB842F2D9032032
:1040B000BDE8F081D8F800108907D6D5DEE70F22D9
:1040C000026043F60802C4F20202136803F003031D
:1040D0004360136803F0F0038360136803F4E05354
:1040E000C360D2F800C04FF4E05303EADC0303617D
:1040F000D2F8F80300F007000860704740F26C2027
:1041000043F60801C2F20000C4F202010068096827
:104110004BF28C12C1F38221C0F60002515CC84000
:10412000704740F26C2043F60801C2F20000C4F26E
:104130000201006809684BF28C12C1F34231C0F6EB
:104140000002515CC840704710B543F60404C4F245
:104150000204606800F00C0142F200400829C0F23D
:10416000F40007D0042918BF10BD41F20020C0F2AE
:104170007A0010BD216801F03F02216823684902DE
:10418000C3F3881105D4A1FB00010023FCF728F834
:1041900006E041F20020C0F27A004843B0FBF2F0A2
:1041A00021680222C1F3014102EB4101B0FBF1F0B1
:1041B00010BD000000286BD02DE9F04182B004460C
:1041C000007843F60006C007C4F202060CD0B068BF
:1041D00000F00C00042840F098803068800303D57C
:1041E0006068002800F0AB80207880071BD5B0689D
:1041F00010F00C0F09D0B06800F00C00082840F057
:10420000A0807068400200F19C803068800703D570
:10421000E068012840F093803068216920F0F800C0
:1042200040EAC10030602078000733D4207840078E
:1042300045D4A56955B3B06800F00C00082840F0DB
:10424000B980012D7BD07068E16900F480028A4258
:1042500075D1216A00F03F028A4270D147F6C071E1
:10426000626A0140B1EB821F69D1A16A4FF6FF7308
:10427000C903994300F44032A1F580318A425ED1EE
:10428000E16A00F07060B0EB016F58D10020F3E0FC
:10429000012070476069002878D00020C4F24720D0
:1042A0000121C0F8801EFFF76EFD0546706F800784
:1042B000BCD4FFF768FD401B0228F7D9DBE0306C67
:1042C0005FEAC0080AD400200190306C40F08050B2
:1042D0003064306C00F080500190019847F2000784
:1042E000C4F200073868C00542D4386840F48070D2
:1042F0003860FFF748FD05463868C00538D4FFF739
:1043000042FD401B0228F7D9B5E0B06800F00C0070
:10431000082803D1706840023FF55FAF61683068DC
:10432000B1F5803F07D0B1F5A02F40F08E8040F46A
:1043300080203060306840F4803030608EE00120B2
:104340009AE0E068002840F20000C4F2472053D011
:1043500001210160FFF717FD054600BF30688007A7
:104360003FF55AAFFFF70FFD401B0228F6D982E058
:10437000A168306F012905D005294FD140F0040014
:104380003067306F40F00100306750E00020C4F229
:1043900047200021C0F8801EFFF7F5FC054600BF4E
:1043A000706F80077FF542AFFFF7EDFC401B0228DE
:1043B000F6D960E00027C4F2472700203866FFF7EF
:1043C000E2FC022D05460BD13068800157D5FFF77E
:1043D000DAFC401B02284FF00300F5D94CE000BF87
:1043E000306880017FF552AFFFF7CDFC401B0228FB
:1043F0004FF00300F4D93FE000210160FFF7C3FC58
:10440000054600BF306880077FF50DAFFFF7BBFCA6
:10441000401B02284FF00300F4D92DE020F00100EA
:104420003067306F002920F00400306748D0FFF774
:10443000AAFC054641F28837306F800751D4FFF758
:10444000A2FC401BB842F7D915E020F48030306060
:104450003068002920F4802030604BD0FFF793FCB7
:10446000054600BF306880033FF5BEAEFFF78BFC0A
:10447000401B6428F6D9032002B0BDE8F08104F1A6
:104480001C052FCD084340EA8210D9034FF6FF7276
:104490009143A1F5803140EA056008437060012036
:1044A0003866FFF770FC0446306880013FF5EEAED9
:1044B000FFF769FC001B02284FF00300F4D9DBE78B
:1044C000FFF761FC054641F2883700BF306F800777
:1044D00007D5FFF758FC401BB8424FF00300F5D951
:1044E000CAE7B8F1000F3FF5A4AE306C20F0805061
:1044F00030649EE6FFF747FC054600BF3068800346
:104500007FF572AEFFF73FFC401B64284FF00300BD
:10451000F4D9B1E77047704790F83C20012A4FF07A
:10452000020250D010B580F83D200268D2F804E0B5
:10453000D2F808C00C682EF07003234341F2FF74D8
:10454000C4F20004A24253600BDC40F2FF73C4F2D9
:1045500000039A4213DCB2F1804F27D040F20043AF
:1045600015E040F2FF33C4F201039A4212DC41F637
:104570000003C4F200039A4218D0002312E040F670
:104580000003C4F200039A4210D040F60043C4F284
:10459000000309E044F20003C4F201039A4205D08B
:1045A00040F20043C4F201039A4204D149682CF05E
:1045B0008003194391600121002280F83D1080F8AA
:1045C0003C20BDE810401046704740B310B504468B
:1045D00090F83D0028B9002084F83C00204600F007
:1045E00020F8022084F83D002068211D01F084FE9F
:1045F000012084F8460084F83E0084F83F0084F8E7
:10460000400084F8410084F8420084F8430084F8B4
:10461000440084F8450084F83D00002010BD0120CE
:104620007047006840F60001C4F20001884218BFDC
:10463000704781B00020009043F64000C4F20200B1
:10464000016841F004010160006800F0040000907E
:10465000009801B0704790F83D1001291CBF01205F
:104660007047022180F83D10006841F2FF72C16876
:10467000C4F20002904241F00101C1600BDC40F243
:10468000FF71C4F20001884213DCB0F1804F27D0E3
:1046900040F2004115E040F2FF31C4F201018842CE
:1046A00012DC41F60001C4F20001884218D000215A
:1046B00012E040F60001C4F20001884210D040F63A
:1046C0000041C4F2000109E044F20001C4F201011A
:1046D000884205D040F20041C4F20101884204D171
:1046E000816801F00701062903D0016841F001014A
:1046F00001600020704790F83C20012A4FF0020230
:104700006BD080B580F83D20D0F800C04FF67772AE
:10471000DCF8083023EA0202CCF808200B684F2BA3
:1047200028DC1F2B44DD202B45D0302B43D0402BE1
:1047300040F0AC80D1F804E0C968DCF82030DCF847
:10474000202022F00102CCF82020DCF8182022F0F2
:10475000F00242EA011123F00A0242EA0E02CCF80A
:104760001810CCF82020DCF8081041F0470121F0A7
:10477000300127E06F2B32DDB3F5005F73D0B3F566
:10478000805F21D0702B40F08180D1E901E3C968BE
:10479000DCF8082043EA0E0322F47F4243EA0121B9
:1047A0001143CCF80810DCF8081041F0770109E05B
:1047B0000BB1102B6AD1DCF8081021F070011943FD
:1047C00041F00701CCF808100022012180F83D10CB
:1047D000002180F83C10BDE8804010467047502B07
:1047E00021D0602B52D1D1F804E0C968DCF8203028
:1047F000DCF8202022F01002CCF82020DCF8182071
:1048000022F4704242EA013123F0A00242EA0E1281
:10481000CCF81810CCF82020DCF8081041F0670123
:1048200021F01001CEE7D1F804E0C968DCF82030AF
:10483000DCF8202022F00102CCF82020DCF818203F
:1048400022F0F00242EA011123F00A0242EA0E02CB
:10485000CCF81810CCF82020DCF8081041F05701F3
:1048600021F02001AEE7D1E901E3C968DCF80820B6
:1048700043EA0E0322F47F4243EA01211143CCF8BC
:104880000810DCF8081041F480419BE701229CE706
:10489000704770B504460068C5680669B10716D54B
:1048A00015F0020113D06FF002010161012121779F
:1048B0008069800703D02046FFF7EAFF05E0204625
:1048C00000F0B5F8204600F02CF9002020777007A2
:1048D00018D515F0040015D020686FF004010161AF
:1048E00002212177806910F4407F03D02046FFF732
:1048F000CFFF05E0204600F09AF8204600F011F9BD
:1049000000202077300717D515F0080014D0206854
:104910006FF00801016104212177C069800703D08D
:104920002046FFF7B5FF05E0204600F080F820465E
:1049300000F0F7F800202077F00618D515F01000E9
:1049400015D020686FF01001016108212177C0693E
:1049500010F4407F03D02046FFF79AFF05E0204681
:1049600000F065F8204600F0DCF800202077F00722
:1049700018BF15F0010006D020686FF00101016139
:10498000204600F04EF9300609D515F0800006D01B
:1049900020686FF0800101612046FFF7BBFD7006C3
:1049A00009D515F0400006D020686FF04001016184
:1049B000204600F040F9B00658BF70BD15F0200049
:1049C00008D021686FF0200220460A61BDE87040DF
:1049D000FFF7A1BD70BDB0B586B0044640F6000536
:1049E00001A81421C4F20005FBF775FC2068A84259
:1049F0001BD1002043F630010090C4F202010A6886
:104A000042F008020A60096801F00801009100996B
:104A10004FF4704101910221CDE90210CDE904016A
:104A200005F5013001A9FFF7DDF806B0B0BD70470C
:104A3000B0B5044690F83C00012804BF0220B0BD88
:104A40000D464FEAB2010120032984F83C0037D813
:104A5000DFE801F002220A1A2068294601F0E2FC90
:104A6000206850F8181F06E02068294601F03FFD35
:104A7000206850F81C1F41F008010160016821F016
:104A800004010160296917E02068294601F062FDF0
:104A9000206850F81C1F06E02068294601F0F3FC4E
:104AA000206850F8181F41F400610160016821F48A
:104AB00080610160296909020268114301600020D8
:104AC000002184F83C10B0BD40B310B5044690F806
:104AD0003D0028B9002084F83C00204600F020F872
:104AE000022084F83D002068211D01F005FC012012
:104AF00084F8460084F83E0084F83F0084F84000C3
:104B000084F8410084F8420084F8430084F84400AB
:104B100084F8450084F83D00002010BD0120704756
:104B200070477047A1B1042904D0082914BF41225D
:104B3000402200E03F22825C012A11D10222082992
:104B400010D0042914BF80F8412080F83F200BE0EA
:104B500090F83E20012A03D1022280F83E2003E093
:104B60000120704780F84020006801F01F010122F9
:104B7000036A02FA01F123EA01020262026A1143A6
:104B800041F2FF72C4F20002904201620BDC40F27B
:104B9000FF71C4F20001884213DCB0F1804F35D0C0
:104BA00040F2004115E040F2FF31C4F201018842B9
:104BB00014DC41F60001C4F20001884226D0002135
:104BC00014E040F60001C4F2000188421ED040F615
:104BD0000041C4F20001884218D01CE044F20001F8
:104BE000C4F20101884211D040F20041C4F2010137
:104BF000884210D1416C40F2004340F48062C4F21C
:104C0000010341F400419A42416404D1816801F0FA
:104C10000701062903D0016841F00101016000206D
:104C20007047006841F20041C4F20001884218BF99
:104C30007047FFF7AEB8704770B582B0044690F881
:104C40004200202820D14FF00105F1B1EAB1002641
:104C500020462563666301F04FFE206B012814D1C6
:104C6000019620680168019140680190019800BF99
:104C7000206850E8030F216840F0100041E803026B
:104C8000002AF5D1002500E00225284602B070BDBB
:104C900010B5044641F2A800C2F2000084421BD0C5
:104CA00041F2F000C2F2000084421AD041F2381002
:104CB000C2F20000844219D041F28010C2F200001A
:104CC000844218D041F2C810C2F20000844217D0CA
:104CD000FEF7D4F9002017E042F6F840C2F20000D7
:104CE00012E042F60850C2F200000DE042F6185001
:104CF000C2F2000008E042F62850C2F2000003E0D1
:104D000042F63850C2F20000E16B09684968C1817F
:104D10000189C289891A418110BD7047B0B582B03E
:104D2000044600680168C368426901F02F05202D20
:104D300003F0200506D12DB1204602B0BDE8B040F9
:104D400001F00ABD5FEA017C1EBF02F0010E03F410
:104D5000907212EB0E026ED1226BCD0643D5012A62
:104D600041D113F010023ED0002101910168019160
:104D70004168019101994069400600F1CB80A08D06
:104D8000E18DE28D002A00F01581884200F0128149
:104D9000401A00BF216851E8031F226821F4907176
:104DA00042E80313002BF5D1216851E8051F226862
:104DB00021F0010142E80513002BF5D1202184F8F0
:104DC00042100021216300BF216851E8031F2268BF
:104DD00021F0100142E80313002BF5D1022281B229
:104DE00020466263DCE00A0640F1828013F0800214
:104DF00000F07E8094F84110212940F0DB80A1680A
:104E0000B1F5805F03D12169002900F0DB80216AC0
:104E10004A1C226209784160E18C01390A04E1846C
:104E200040F0C880C16821F08001C160C16841F0D4
:104E30004001C160BEE0CA0718BF13F4807203D0FE
:104E4000626C42F0010262644A0706D5BEF1000FAF
:104E500003D0626C42F0020262648A0706D5BEF19A
:104E6000000F03D0626C42F004026264BCF1000FD8
:104E700006D55EEA050203D0626C42F00802626465
:104E8000626C002A00F09680890604D51DB1204688
:104E900001F062FC20684069616C00F0400001F0A4
:104EA0000801401800F08180204601F02DFC2068A8
:104EB0004069400640F18080206850E8050F216875
:104EC00020F0400041E80502002AF5D1E06B0028FF
:104ED00072D046F2BB51C0F600010165FEF7A4FC9A
:104EE000002867D0E06B016D02B0BDE8B040084714
:104EF00049065FD513F040015CD0C16821F0400144
:104F0000C1602021204684F8411002B0BDE8B040C5
:104F100000F0C4BBE06B016849688AB2002A49D03E
:104F2000A38D9A4246D2E185C069B0F5807F30D02A
:104F3000206850E8030F216820F4807041E80302E4
:104F4000002AF5D1206850E8050F216820F0010003
:104F500041E80502002AF5D1206850E8050F2168D4
:104F600020F0400041E80502002AF5D1202084F815
:104F700042000020206300BF206850E8030F216832
:104F800020F0100041E80302002AF5D1E06BFEF7A3
:104F90000BFC02206063A08DE18D401A81B2204697
:104FA00002B0BDE8B040FFF773BE2046FFF7B5FE84
:104FB0000020606402B0B0BD204602B0BDE8B04041
:104FC000FFF7ABBE216A31F8022B6FF35F2242601C
:104FD000216221E758B310B5044690F8410028B982
:104FE000002084F84000204600F023F8242084F8B4
:104FF00041002068C16821F40051C160204601F0E1
:105000000CFC2068016921F490410161416921F0A3
:105010002A014161C16841F40051C1600020202192
:10502000606484F8411084F84210606310BD012070
:1050300070472DE9F04F87B0044602A81421FBF712
:105040004AF9206844F6FF71C4F20001884200F377
:10505000818044F20041C4F20001884200F0BE8029
:1050600044F60001C4F20001884200F0A58144F634
:105070000041C4F20001884240F07882002643F6E5
:1050800030000196C4F20200016946F2100841F4B2
:10509000002101610169C4F2020801F400210191BB
:1050A00001990196016841F004010160006802A9BC
:1050B00000F00400019001984FF44060029002203B
:1050C000CDE9030603200590082006900020C4F2D5
:1050D000020000F50060FEF785FD40F6B84508F1D6
:1050E0006000C2F200054FF000674021C5E90007EB
:1050F00005F108004FF4806980E8420205F11400D0
:105100001421FBF7E8F82846FEF764FC08B1FDF728
:10511000B5FFA563AC6340F6584508F13000C2F214
:1051200000054FF48071C5E900072846C5E902660D
:10513000C5E90496C5E90661C5E90866FEF74AFCBB
:1051400008B1FDF79BFFE563AC633420002100222A
:10515000342406E245F20001C4F20001884200F066
:10516000A68041F20001C4F20101884200F0908162
:1051700041F20041C4F20101884240F0F781002071
:1051800043F630010190C4F202014A6942F0200264
:105190004A614A6902F020020192019A01900A686C
:1051A00042F004020A60096801F0040101910199CA
:1051B000C02102910221CDE90310032005900820AF
:1051C00006900020C4F2020000F5006002A9FEF77C
:1051D00009FD4720052100224724C2E1002643F6AD
:1051E00030000196C4F20200016946F2100841F451
:1051F000003101610169C4F2020801F4003101913A
:1052000001990196016841F001010160006802A95D
:1052100000F00100019001980C2002900220CDE9DD
:10522000030603200590072006900020C4F2020028
:10523000FEF7D8FC40F6F86508F19000C2F20005D0
:105240004FF000674021C5E9000705F108004FF461
:10525000806980E8420205F114001421FBF73BF855
:105260002846FEF7B7FB08B1FDF708FFA563AC635E
:1052700040F6986508F17800C2F200054FF480719D
:10528000C5E900072846C5E90266C5E90496C5E9EF
:105290000661C5E90866FEF79DFB08B1FDF7EEFE65
:1052A000E563AC63262000210022262459E1002674
:1052B00043F630000196C4F202000169002741F470
:1052C000801101610169C4F2020701F480110191AA
:1052D00001990196016802AD41F004010160016885
:1052E00046F2100801F0040101910199019601684C
:1052F0004FF0020941F00801016000684FF0030A15
:1053000000F00800019001984FF4805002904FF097
:10531000080B07F500602946C4F20208CDE90396A0
:10532000CDF814A0CDF818B0FEF75CFC0420CDE950
:10533000020904A880E8400C07F540602946FEF702
:1053400051FC40F6785508F1A800C2F200054FF074
:1053500000674021C5E9000705F108004FF48069A6
:1053600080E8420205F114001421FAF7B4FF284640
:10537000FEF730FB08B1FDF781FEA563AC6340F694
:105380001855C2F200054FF48070C5E90660284642
:10539000C5E90087C5E90266C5E90496C5E908665E
:1053A000FEF718FB08B1FDF769FEE563AC63352035
:1053B000002100223524D4E0002643F63000019677
:1053C000C4F20200016946F2100841F48021016133
:1053D0000169C4F2020801F480210191019901964A
:1053E000016841F002010160006802A900F00200BA
:1053F000019001984FF4406002900220CDE903062D
:1054000003200590072006900020C4F2020000F55A
:105410008060FEF7E7FB40F6B87508F14800C2F27D
:1054200000054FF000674021C5E9000705F10800BD
:105430004FF4806980E8420205F114001421FAF764
:105440004AFF2846FEF7C6FA08B1FDF717FEA56326
:10545000AC6340F6587508F11800C2F200054FF42D
:105460008071C5E900072846C5E90266C5E90496CA
:10547000C5E90661C5E90866FEF7ACFA08B1FDF7B3
:10548000FDFDE563AC63272000210022272468E0AE
:10549000002643F630000196C4F20200416946F24C
:1054A000100841F0100141614169C4F2020801F0A5
:1054B0001001019101990196016841F0010101601B
:1054C000006802A900F00100019001984FF4C0604B
:1054D00002900220CDE903060320059007200690E4
:1054E0000020C4F20200FEF77DFB40F6386508F5A7
:1054F0009560C2F200054FF000674021C5E9000742
:1055000005F108004FF4806980E8420205F11400BB
:105510001421FAF7E0FE2846FEF75CFA08B1FDF721
:10552000ADFDA563AC6340F6D85508F58660C2F2C0
:1055300000054FF48071C5E900072846C5E90266F9
:10554000C5E90496C5E90661C5E90866FEF742FAB1
:1055500008B1FDF793FDE563AC632520052100222A
:105560002524FEF7C7FC2046FEF7B4FC07B0BDE8D3
:10557000F08F7047704700002DE9F041044690F825
:10558000410020281CBF0220BDE8F0810D464FF0ED
:105590000100E1B31746D2B3002060642120984691
:1055A00084F84100FEF7EFFBA784E784A168074673
:1055B000B1F5805F01D1206988B32E46002500BF78
:1055C000E08CC0B1204680213A46434601F0E0F924
:1055D000F8B92EB116F8010B2168486007E000BF4A
:1055E00035F8020B21686FF35F2048600026E08CDD
:1055F0000138E084E4E7204640213A46434601F082
:10560000C7F9202184F84110002818BF0320BDE805
:10561000F081202084F841000320BDE8F0810026BD
:10562000CEE70000B0B5044690F8410020281CBF2A
:105630000220B0BD4FF0010079B313466AB34FF0BA
:10564000000C21202162A384E384C4F844C084F8C0
:105650004100A06B46F2C56E46F203752268C0F6A3
:10566000000EC0F60005C0E90FE546F2C955C0F6C8
:1056700000050432C0E9135CFEF750FA20686FF0B1
:1056800040010160206850E8050F216840F080006B
:1056900041E80502002AF5D10020B0BD70477047EF
:1056A0002DE9F04F81B04FF000090DF10301022008
:1056B0008DF8039001F049FE002855D040F21C56A9
:1056C00040F28027C2F20006C2F200070DF1030487
:1056D0004FF0050A4FF0010B4FF000083078052815
:1056E0001AD0012808D098BB9DF803007978884229
:1056F00008BF86F800B02DE09DF80300B978884215
:1057000026D1082087F80090F8707878B978084496
:10571000387286F800A01DE09DF8031078683A788A
:10572000531C3B7081543B78FD783A7AAB4218D9D0
:1057300091420DD141F6CC01C2F200010A683AB1A2
:10574000F9789047022001F0F3FD4FF0010800BF07
:1057500086F800900220214601F0F7FD0028BDD117
:1057600004E050183872F5E74FF000085FFA88F04F
:1057700001B0BDE8F08F0000FEE700002DE9F04326
:1057800081B04FF000090DF1030101208DF8039065
:1057900001F0DBFD002865D040F2245640F2C4271A
:1057A00041F6D008C2F200060DF10304C2F2000770
:1057B000C2F20008002500BF31780020072949D82F
:1057C000DFE801F0042B480B4830401B9DF8030034
:1057D000797888423FD101203CE087F800907878C2
:1057E000F9789DF8032008441044387278683978B5
:1057F0004B1C3B70425405202CE09DF80300797A45
:1058000088424FF0000025D1D8F8002012B3786804
:10581000F9789047012500201CE09DF80300F870FE
:10582000032017E09DF8030079683A78531C3B7019
:105830008854397A084438723878F97888420AD31B
:10584000072007E09DF80300397A88424FF00000F6
:1058500008BF072030700120214601F076FD0028A6
:10586000AAD100E00025E8B201B0BDE8F083000055
:105870000B460139C9B2042902469CBF0CA0435C07
:1058800010B540F22554C2F200040BA1204604F0EA
:1058900069FF2046FAF72AFD82B2B2F5006F28BFF1
:1058A0004FF4006201202146BDE8104001F06FBDB9
:1058B00052474241610000006D6F64653D256425DB
:1058C0006300000080B540F6084046F20041C2F295
:1058D0000000C4F200010322002380E80E0000F162
:1058E0000C014FF4102C4FF4001E81E80850836126
:1058F0008383FDF711FE18B1BDE88040FDF7BEBB04
:1059000080BD80B540F6304046F60001C2F200008E
:10591000C4F200010C22002380E80E0000F10C010B
:105920004FF4003C4FF4001E81E808504FF48071A2
:105930000183C0F81A30FDF7EFFD18B1BDE88040D3
:10594000FDF79CBB80BD80B582B0002043F63001DE
:105950000190C4F202010A6842F400120A600A6867
:1059600002F400120192019A00900868002240F4AB
:10597000800008600868002100F480000090009812
:105980000B20FEF7B7FA0B20FEF7A4FA0C2000213B
:105990000022FEF7AFFA0C20FEF79CFA0D20002142
:1059A0000022FEF7A7FA0D20FEF794FA0E20002140
:1059B0000022FEF79FFA0E20FEF78CFA0F2000213E
:1059C0000022FEF797FA0F20FEF784FA1020052137
:1059D0000022FEF78FFA1020FEF77CFA1120052135
:1059E0000022FEF787FA1120FEF774FA2F20052116
:1059F0000022FEF77FFA2F20FEF76CFA3A200521ED
:105A00000022FEF777FA3A20FEF764FA46200521D5
:105A10000022FEF76FFA462002B0BDE88040FEF794
:105A200059BA80B54BF2A410C0F6000001F046FF51
:105A300040F2E071C2F200014BF2CC120860C0F6F5
:105A400000020120002101F08EFF40F63411C2F265
:105A500000014BF2B4120860C0F6000201200121DF
:105A600001F0D2FE40F2E871C2F20001086042F695
:105A700045104BF24822C0F60000C0F6000200219B
:105A800001F0BBFF40F64411C2F20001086042F68B
:105A900055104BF26C22C0F60000C0F60002002147
:105AA00001F0ABFF40F64811C2F20001086042F677
:105AB000FD004BF2DC12C0F60000C0F6000200212F
:105AC00001F09BFF40F63811C2F20001086042F677
:105AD00039104BF22422C0F60000C0F6000200216B
