:020000040800F2
:1000000020B00020A1010008716800083D610008CF
:100010006D68000859380008797400080000000075
:10002000000000000000000000000000C16B00089C
:100030009F39000800000000F1690008C5010008B0
:10004000BB010008BB010008BB010008BB010008A0
:10005000BB010008BB010008BB010008BB01000890
:10006000BB010008BB010008BB01000827390008DC
:10007000333900083F3900084B3900085739000868
:10008000633900086F390008BB010008BB01000894
:100090005B380008BB010008BB010008BB01000879
:1000A000BB010008BB010008BB010008BB01000840
:1000B000BB010008BB010008BB010008BB01000830
:1000C000BB010008BB010008BB010008BB01000820
:1000D000BB01000847740008537400085F740008EF
:1000E000BB010008BB010008BB010008BB01000800
:1000F000BB010008BB010008BB0100087B390008F8
:10010000BB010008BB010008BB010008BB010008DF
:10011000DF6F0008EB6F0008BB010008296D0008C5
:10012000BB010008BB01000887390008BB010008BB
:10013000BB010008BB010008BB010008BB010008AF
:10014000B5380008BB010008BB010008BB0100086E
:10015000BB010008BB010008933900086B7400085C
:10016000BB010008BB010008BB010008BB0100087F
:10017000BB010008BB010008BB0100080000000033
:10018000BB010008BB010008DFF810D000F046FCFE
:1001900000F0D8F800480047DD80000820B00020BB
:1001A0000648804706480047FEE7FEE7FEE7FEE711
:1001B000FEE7FEE7FEE7FEE7FEE7FEE7176D000855
:1001C0008901000830B410B50348804730BCAE4602
:1001D00030BC024800477047B1840008516C0008E9
:1001E0002DE9F05F0546002092469B46884606466C
:1001F000814640241BE0284641464746224600F0FF
:10020000EEFA53465A46C01A914110D31146184689
:10021000224600F0D5FA2D1A67EB01084F46224618
:100220000120002100F0CCFA17EB00094E41201EFE
:10023000A4F10104DFDC484631462A464346BDE8C6
:10024000F09F2DE9F0410024061B254671F10006C0
:1002500005DA01240027D0EB070067EB0101161E29
:1002600073F1000605DA0027D2EB0702012567EBE0
:100270000303FFF7B5FF86460E4617469C46AC4281
:1002800004D00025D0EB050E65EB010624B100205B
:10029000D2EB000760EB030C704631463A466346EA
:1002A000BDE8F08140EA01039B0703D009E008C9DB
:1002B000121F08C0042AFAD203E011F8013B00F82B
:1002C000013B521EF9D27047D2B201E000F8012B77
:1002D000491EFBD270470022F6E710B513460A46C6
:1002E00004461946FFF7F0FF204610BD421C10F8E7
:1002F000011B0029FBD1801A7047034611F8012B1E
:1003000000F8012B002AF9D11846704730B5054690
:100310000020034600E05B1C934205D2EC5CC85C05
:10032000201A01D1002CF6D130BD70B506460AF076
:1003300037FF046805460A220021304600F071FAB2
:100340002C6070BD7CB507480090074801900546B9
:10035000009C04E02046016808448047241DAC420C
:10036000F8D17CBDA4C60008A8C600082DE9FE4F40
:10037000804681EA0300C00F0C46009021F0004146
:1003800023F00045B8EB0200A94105D240462146C2
:1003900090461C460B46024623F00040104347D0CF
:1003A000270DC7F30A00C3F30A510290401A0190C7
:1003B00040286BDAC3F3130040F4801B0098924688
:1003C00020B10023D2EB030A63EB0B0B01985946D3
:1003D000C0F14002504600F0F3F906460D46504683
:1003E0005946019A00F00BFA10EB08006141002415
:1003F00087EA115284EAE7731A4340D0009A62B345
:10040000019A012A4FEA075215DC001B61EB020139
:100410004FF0004202EA0752CDE90042001C41F5CC
:10042000801132462B4600F07AFA03B0BDE8F08F17
:1004300040462146F9E7001B61EB0201001C41F533
:10044000801300185B412018A2F5001747EB030149
:1004500040EAD570B6196D4111E06D084FEA3606D5
:1004600045EAC0754FEA0752001B61EB0201001C10
:1004700041F5801149084FEA3000001951413246D8
:100480002B4603B0BDE8F04F00F03ABA00980122C5
:1004900040000023D0EB020263EBE073009821469A
:1004A0004FEAE074B8EB000061EB0401E9E783F088
:1004B00000435BE781F0004158E72DE9FE4F81EAF8
:1004C000030404F0004421F0004100944FF0000BBD
:1004D00023F0004350EA01045ED052EA03045BD0EB
:1004E000C3F30A54C1F30A552C44A4F2F334019423
:1004F000A0FB0254C1F3130141F48011C3F31303B1
:1005000043F4801301FB024400FB034E840A970A64
:1005100044EA815447EA8357A4FB076802958D0A91
:1005200005FB07854FEA932C04FB0C542705029D1D
:100530004FEA065847EA1637B5EB08056EEB070C8D
:10054000870E920E47EA811742EA8312A7FB020147
:10055000B6EB0B0164EB00042B0D43EA0C335E1881
:1005600044EB1C50DA465146E7FB0201C5F3130485
:100570004FEA0B3343EA14534FEA0432019C43EA37
:100580000603A4F10C040294009CCDE900B400F031
:10059000C6F903B0BDE8F08F00200146F9E72DE968
:1005A000F04D81EA030404F0004B21F000451446AD
:1005B0004FF0000A23F0004150EA050220D054EA2F
:1005C00001021DD0C5F30A570246C5F31303C1F358
:1005D0001300C1F30A5640F4801543F48013A7EBCF
:1005E0000608101BD64608F2FD3873EB050002D34F
:1005F00008F1010801E092185B41B8F1000F03DA3D
:1006000000200146BDE8F08D00204FF48011064621
:1006100084460EE0171B73EB050705D3121B63EB33
:10062000050306434CEA010C49084FEA30009218D2
:100630005B4150EA0107EDD152EA030012D082EA91
:10064000040083EA0501084305D0101BAB4106D224
:100650000122002306E000224FF0004302E06FF089
:10066000010253101AEB06004CEB085110EB0A0084
:1006700041EB0B01BDE8F04D00F042B930B5041E6E
:1006800071F1000404DB4FF00044404264EB0101CF
:10069000141E73F1000405DB1C464FF00043524268
:1006A00063EB0403101A8B4101D2012030BD0020FE
:1006B00030BD30B5041E71F1000404DB4FF000447E
:1006C000404264EB0101141E73F1000405DB1C467B
:1006D0004FF00043524263EB0403801A994101D268
:1006E000012030BD002030BDF0B4CA17CB0F504000
:1006F0005140C61841F100054FEAC3723146280047
:100700004FF0960303D0B623F0BC00F0CBB83046D0
:100710000021F9E70EB5C10F80EAE0700844CA076E
:10072000002140F233438DE80E000A460B4600F0EC
:10073000F6F803B000BD00F0004230F000400AD0EF
:10074000C10D01F56071C0F3160042EA0151C20803
:1007500040071143704700200146704701F00043F5
:1007600030B421F0004150EA010206D00A0DA2F592
:100770006072C1F31301002A02DC30BC0020704714
:10078000440F44EAC104C100E01830BC00EBC25081
:1007900000F07FB830B50B4601460020202201242E
:1007A00009E021FA02F59D4205D303FA02F5491B3F
:1007B00004FA02F52844151EA2F10102F1DC30BD55
:1007C000202A04DB203A00FA02F100207047914011
:1007D000C2F1200320FA03F3194390407047202A06
:1007E00004DB203A21FA02F00021704721FA02F3DB
:1007F000D040C2F120029140084319467047202A98
:1008000006DBCB17203A41FA02F043EAE07306E038
:1008100041FA02F3D040C2F1200291400843194648
:1008200070472DE9F04791460F4680460446002662
:1008300014F8015B2DB100F009F90068405DC007B4
:10084000F6D12B2D02D02D2D18D0641E4A463946E4
:10085000204600F0FFF827B13968A14201D1C7F85E
:10086000008071054FF002040BD54042002803DDE3
:100870000AF096FC0460A007BDE8F08746F48066A5
:10088000E4E70028F8DA0AF08BFC04606FF000401F
:10089000F2E70029A8BF7047401C490008BF20F0BC
:1008A0000100704710B4B0FA80FC00FA0CF050EA76
:1008B000010404BF10BC704749B1CCF1200421FAF7
:1008C00004F411FA0CF118BF012121430843A3EBF2
:1008D0000C01CB1D4FEA00614FEA102042BF0020FF
:1008E00010BC704700EBC35010440029A4BF10BCDB
:1008F0007047401C490008BF20F0010010BC704741
:1009000010B5141E73F1000408DA401C41F1000117
:1009100092185B411A4301D120F0010010BD2DE96E
:10092000F04D92469B4611B1B1FA81F202E0B0FA65
:1009300080F220329046FFF743FF04460F4640EA1C
:100940000A0041EA0B0153465A46084313D01146A8
:1009500053EA010019D0C8F140025046FFF73FFFAB
:1009600005460E46504659464246FFF729FF0843C2
:1009700005D0012004E020463946BDE8F08D002076
:10098000054346EAE0762C4337430A986305E40AB8
:10099000A0EB08000022FD0A44EA47540A3002D5C1
:1009A00000200146E9E7010510196941DDE9084524
:1009B00000196941BDE8F04DA2E7C1F30A52C1F345
:1009C000130140F2FF3341F480119A4202DA002011
:1009D0000146704740F233439A42A2F2334202DCAE
:1009E0005242FFF7FCBEFFF7EBBE000030B5041E1D
:1009F00071F1000404DB4FF00044404264EB01015C
:100A0000141E73F1000405DB1C464FF000435242F4
:100A100063EB0403994208BF904230BD1CB50948FE
:100A20000090094801900546009C06E0E06840F00F
:100A3000010394E8070098471034AC42F6D3FFF75F
:100A4000A7FB000084C60008A4C600080048704741
:100A500014BE00082DE9F05F824600780027154695
:100A60008B460AF10104B946302801D09DB113E04C
:100A700014F8010B0127782803D0582801D045B17C
:100A80000AE00DB1102D07D10027102514F8010B35
:100A900002E0082500E00A250026B0460EE005FB2E
:100AA000080005FB06F1012701EB10461FFA80F84C
:100AB000B6F5803F00D3B94614F8010B294600F083
:100AC00018F80028EBDABBF1000F05D00FB1641E57
:100AD00000E05446CBF80040B9F1000F06D00AF010
:100AE0005FFB02210160C81EBDE8F09F48EA064096
:100AF000FAE73A2800D2303820F02002412A01D308
:100B0000A2F13700884201D34FF0FF30704730B573
:100B10008C1810F8012B12F00F0301D110F8013BD3
:100B2000120906D110F8012B03E010F8015B01F85F
:100B3000015B5B1EF9D101E001F8013B521EFBD1C4
:100B4000A142E6D3002030BD40F65530C0F600008B
:100B500006F03DBDB0B584B004464CF23F50C0F63F
:100B60000000214602F0F6FD0FF2F0412046082277
:100B7000FFF7CCFB002800F0AE800FF2EC412046DE
:100B80000D22FFF7C3FB002800F0E6800FF2E841DA
:100B900020460422FFF7BAFB002800F021810FF263
:100BA000E04120460522FFF7B1FB002800F0278135
:100BB0000FF2D44120460522FFF7A8FB002800F0E1
:100BC0003E820FF2CC4120460722FFF79FFB002810
:100BD00000F025810FF2C04120460922FFF796FB65
:100BE000002800F030810FF2BC4120460922FFF7B7
:100BF0008DFB002800F030810FF2B441204609221D
:100C0000FFF784FB002800F032810FF2B04120464C
:100C10000422FFF77BFB002800F040810FF2A44183
:100C200020460822FFF772FB002800F043810FF2F4
:100C3000A04120460922FFF769FB002800F043810C
:100C40000FF2984120460922FFF760FB002800F0D0
:100C500045810FF2944120460C22FFF757FB0028F4
:100C600000F046810FF2904120460A22FFF74EFB2A
:100C7000002800F057810FF28C4120460922FFF72F
:100C800045FB002800F06D810FF2844120460B22C5
:100C9000FFF73CFB002800F070814CF24451C0F695
:100CA000000120460B22FFF731FB002800F0718184
:100CB0004CF25051C0F6000120460C22FFF726FBF3
:100CC000002800F073814CF22E50C0F6000021463F
:100CD00002F040FDC9E04CF24540C0F6000002F0D1
:100CE00039FD4CF2E540C0F6000002F033FD40F261
:100CF0000844C2F20004204608F0E2FC4CF23F55E2
:100D0000C0F600052846214602F024FD20464FF497
:100D10000071FFF7E0FA4CF2A940C0F6000002F0C3
:100D200019FD204608F05EFC2846214602F012FD1F
:100D300020464FF40071FFF7CEFA40F20A64C2F287
:100D4000000440F22C602578C2F200000068802187
:100D5000BDB308F0D1FF36E040F61020C2F200002B
:100D6000D0F85802FFF7E7FC02464CF2D040C0F63C
:100D700000000B4602F0EEFC40F6AC40C2F2000070
:100D8000B0F900104CF28540C0F6000002F0E2FC21
:100D900040F6AE40C2F20000B0F900104CF29140B3
:100DA000C0F6000002F0D6FC40F6AA40C2F20000F5
:100DB000B0F900104CF27940C0F6000002F0CAFC15
:100DC00004E008F03FFF85F0010020700E214CF296
:100DD0009D40C0F6000004B0BDE8B04002F0BABCCF
:100DE00040F6C810C2F20000006808F037FE00208C
:100DF00000210022002308F0C9F80121E7E74FF69F
:100E0000D460CFF6FF7001464FF496724FF496739C
:100E100008F0BCF80A2008F071FB0221D7E7E01DBA
:100E2000FFF783FA40F67402C2F2000240F2146146
:100E30001268C2F20001087010460022022309F075
:100E40001DFA0521C3E704F10900FFF76EFA40F22D
:100E50000961C2F2000107E004F10900FFF765FA39
:100E600040F20861C2F2000108700021AFE704F10E
:100E70000900FFF75AFA034640F2096040F20861A0
:100E8000C2F20000C2F2000100780A78DD170121E9
:100E9000CDE9003500F0C4FA042198E740F6D010FF
:100EA000C2F20000006800210222002309F0B4FD14
:100EB0000B218CE704F10800FFF737FA40F20C61D0
:100EC000C2F2000107E004F10900FFF72EFA40F238
:100ED0000B61C2F2000108700C2178E704F10900EF
:100EE000FFF723FA40F21061C2F200010860F3E755
:100EF00040F20C6040F20B6140F21062C2F200005E
:100F0000C2F20001C2F200020078097815680022DE
:100F10000123CDE901324FF4AF72DC23009501F0DB
:100F200012FED9E740F20C6440F20B6140F210620D
:100F3000C2F20004C2F20001C2F200022078097875
:100F4000156800220123CDE901324FF4AF72DC2392
:100F5000009501F0F8FD20784FF4167101F003FEC2
:100F6000BAE704F10900FFF7E0F941F2D801C2F253
:100F70000001096880B2486316E004F10B00FFF736
:100F8000D4F941F2D801C2F20001096880B2C86305
:100F90000AE004F10B00FFF7C8F941F2D801C2F2F0
:100FA0000001096880B288630D2110E704F10C008C
:100FB000FFF7BBF94FF0FF3151FA80F011283CD810
:100FC000DFE800F0091B0B2F352520321911171D02
:100FD00020141128090B01201DE001200221032209
:100FE00000F07AFC29E0012003210DE0012002211C
:100FF0000AE0032007E0022005E002200BE00220C7
:1010000000F0D2FE0120012100F080FB15E002205B
:1010100003210EE0002001210222032300F076FDCF
:101020000BE00220012104E000F09AFF05E002201D
:1010300002210022022301F01EF81021C7E640F62B
:10104000C810C2F20000006808F008FD002000216E
:101050000022002307F09AFF06F010FA53686F771A
:101060005461736B0000000053686F7750617261C8
:101070006D6574657200000053746F7000000000AD
:10108000537461727400000052657365740000004F
:101090005374617475733D005768616C654D6F647E
:1010A0003D0000005768616C654469723D000000B6
:1010B0005768616C65506F733D0000004E65787431
:1010C000000000004D5F5A445469643D0000000078
:1010D0004D5F5A44546469723D0000004D5F5A44AC
:1010E00054706F733D0000004D5F5A445473746137
:1010F00072746E77000000004D5F5A44547374613F
:1011000072740000536572766F4A61773D0000008B
:10111000536572766F57726973743D0080B502F043
:1011200047FB20B102A0BDE8804002F013BB80BDA8
:10113000524543454956450D0A0000000000000095
:1011400088B040F2651008F0D9F940F61024C2F2D8
:1011500000040120207100F07DFA9FEDA58A9FED2B
:10116000A59A4BF6807804F1580504F1080700268B
:10117000C0F60008206000BFF0B206F07EFE47F81F
:10118000140B284600214246B0EE480AF0EE490A08
:1011900005F014FC0136042E05F14805ECD19FED55
:1011A000978A4BF674729FED940A04F5BC70C0F6F2
:1011B00000020021F0EE480A0190002505F0FEFB38
:1011C0009FED8F9A4BF6647104F5E070C0F6000154
:1011D000B0EE490A06F026FE4BF66C7104F5E87095
:1011E000C0F60001B0EE490A06F01CFE4BF668712D
:1011F00004F5F070C0F60001B0EE490A06F012FEE8
:101200004BF6707104F5F870C0F60001B0EE490AB3
:1012100006F008FE00200021C4F27A40CCF27A41A8
:10122000C4E99201C4E9940104F51D701921C4F8C0
:101230006C52FFF750F8204606F020FD9FED6A0B38
:101240009FED70AA04AE0DF1080A5BEC107B00BFA5
:10125000204606F0F1FB204606F010FD304603A9BB
:10126000524623460495CDE9025506F06FFB2079DE
:1012700001283FD194ED910A94ED961A30EE410A7F
:1012800007F0CEFE10EE100A20F00040B0EE409ABB
:10129000FFF751FA3A465B46FFF70BFA002840F693
:1012A000B040F0EE480AC2F2000018BFF0EE490A62
:1012B000C0ED000A0198B0EE480A05F0DBFA9DED9A
:1012C000042A94ED921AD4ED930A84ED8E0AB0EEBE
:1012D000420A06F0AFFD9DED032A94ED941AD4ED79
:1012E000950A84ED8C0AB0EE420A06F0A3FD84ED67
:1012F0008D0A01E094ED8D0A94ED8C1A94ED8E2AFE
:1013000031EE003A33EE024AB1EE444A8DED044A22
:1013100030EE414A31EE400A30EE420A34EE424AA3
:1013200033EE423A8DED070A04F114000021B0EECD
:10133000480A8DED054A8DED063A00BF721892ED10
:10134000001A043180ED001AB0EEC11AB4EE410A61
:10135000F1EE10FAB8BFB0EE410A102900F1140006
:10136000ECD1B4EE4A0AF1EE10FA0DDD8AEE000A75
:10137000142000BF211891ED001A143020EE011A3C
:10138000642881ED001AF5D104F110084FF05809D6
:1013900098EC020A04EB090005F06CFA09F148091F
:1013A000B9F5BC7F08F11408F2D104F178000021EE
:1013B00090ED000A6318BDEEC00A143110EE102A39
:1013C000502900F148001A83F2D1B4F91800B4F999
:1013D0002C10B4F94020B4F9543007F0D7FD0520A3
:1013E00008F08CF834E700BF9A9999999999B93F18
:1013F0000080BB450000FA440000C8420000000025
:101400000AD7A33B00007A4480B5002000210022C7
:10141000002307F0BBFDBDE8804006F067BD00007B
:101420002DE9F041069D4FF47A74079EA5FB043721
:10143000884606FB047140F61027C2F2000787F8C1
:101440008D0287F82022C7E98031C7E9823107F091
:10145000D5FD97F82002102830D128463146FFF7F5
:1014600043F997ED961A00EE100A002130EE410A7A
:10147000C7E98011C7E98211C7F8440207F0D0FD1F
:1014800010EE100A20F00040FFF755F99FED1E0BFB
:1014900055EC104B22462B46FFF7F0F888BB97ED32
:1014A000910A97ED961A30EE410A07F0B9FD10EE59
:1014B000100A20F00040FFF73EF9EBE7182000BFCC
:1014C0003C5214306828FBD1142008F017F8002093
:1014D00000210022002307F059FDB8F1000F18BFCA
:1014E000BDE8F08140F6C0150024C2F2000500BF3F
:1014F00028684FF0FF3109F0DDF8042C04F10104F5
:10150000F6D3BDE8F08100BF9A9999999999B93FAE
:101510000138052800F2948010B582B0DFE800F0B1
:1015200003602B48126900247D230120002104223E
:10153000CDE90034FFF774FF4FF41673002000214B
:10154000012276E000244FF4707300200021022273
:10155000CDE90034FFF764FF4FF4E173012000216F
:101560000422CDE90034FFF75BFF00940020002146
:10157000102201945FE000244FF4BE73012000218B
:101580000222CDE90034FFF74BFF5A23002000214F
:101590001022CDE90034FFF743FF40F2D66300206C
:1015A00000210122CDE90034FFF73AFFB42313E014
:1015B00000244FF44873002000210222CDE90034BA
:1015C000FFF72EFF4FF46173002000210422CDE9C4
:1015D0000034FFF725FF5A2300200021102228E0C5
:1015E00000234FF44874002000210122CDE900437C
:1015F00021E000244FF46173002000210222CDE994
:101600000034FFF70DFFB423002000211022CDE9A4
:101610000034FFF705FF40F2A463002000210122FF
:10162000CDE90034FFF7FCFE4FF4C8730020002121
:101630000422CDE90034FFF7F3FE02B0BDE810400C
:1016400040F6D010C2F20000006800210222002300
:1016500009F0E2B940F6A040C2F20000704741F242
:101660007160C0F6000005F0F2BF0000000000004D
:1016700080B5808841F68411C2F200010880B1F97A
:101680000000FFF747F89FED0A0B53EC102BFEF715
:1016900014FF9FED090B53EC102BFEF70EFFFFF725
:1016A0005DF840F6A041C2F20001086080BD00BFB5
:1016B000000000000000003F0000000000806640C5
:1016C00080B504F0CFFC002818BF012080BD40F297
:1016D000246CC2F2000C0CEB800041708270C3706D
:1016E000704740F22460C2F2000070470538C0B273
:1016F00002288EBF002002A151F82000704700BFD1
:101700001401002030010020500100202DE9F04399
:1017100083B0054653200C4601F0A4FD284601F095
:10172000AEFD40F25018C2F20008D8F800000127C0
:101730000026CDE90007072000214FF46172002345
:10174000029601F000FA07204FF4167101F00BFA2F
:10175000601EC0B202282CD856A151F8201058A201
:1017600052F8205059A252F8209008680121CDE982
:10177000000705204FF4AF72DC23029601F0E3F975
:1017800028680021CDE9000706204FF4AF72FA2344
:10179000029601F0D8F908200121FA22C823CDE9E8
:1017A0000097029601F0CFF908204FF42F7101F055
:1017B000DAF900BFD8F820000021CDE900070720A2
:1017C0004FF44872F723029601F0BDF907204FF459
:1017D000167101F0C8F95A2001F044FDD8F808004C
:1017E0000021CDE9000707204FF461720023029623
:1017F00001F0A9F907204FF4167101F0B4F9012C9A
:1018000015D140F23010C2F20000C069012100275A
:10181000CDE90001062000214FF4AF72FA230297B0
:1018200001F091F906204FF4167101F09CF90024A3
:10183000012608200121FA22C823CDE9004602949E
:1018400001F081F908204FF42F7101F08CF9D8F8DC
:101850000C000021CDE9000607204FF44872F72361
:10186000029401F070F907204FF4167101F07BF932
:10187000532001F0F7FCD8F800000021CDE9000664
:1018800007204FF461720023029401F05CF90720F5
:101890004FF4167101F067F940F6D010C2F2000063
:1018A000006800210222002303B0BDE8F04309F0E4
:1018B000B3B800BF24010020280100202C01002023
:1018C000400100204401002048010020550500008F
:1018D00052080000550500002DE9F04F85B005467F
:1018E00040F22460C2F2000010F8058010F8019068
:1018F000875C4CF242608B460392C0F6000029469A
:101900002A462B468DF811808DF812908DF81370B1
:1019100001F020FF4CF22F60C0F6000041464A461D
:101920003B4601F017FF40F2501800240126C2F296
:1019300000084FF0000900BF532001F093FC03980A
:10194000B9F1010F08BF5846B9F1000F08BF28468A
:1019500001F095FC40F25550CDE900060820012128
:10196000FA22C8230294082701F0EDF80DF11100C6
:1019700010F809A040F21410C2F2000050F82A003A
:101980000121CDE9000605204FF4AF72DC2302945B
:1019900001F0D9F840F23010C2F2000050F82A00ED
:1019A0000021CDE9000606204FF4AF72FA2302941D
:1019B00001F0C9F8B9F1000F05D106204FF47A7192
:1019C00001F0D1F8052738464FF47A7101F0CBF8D1
:1019D000D8F810000021CDE9000607204FF4487226
:1019E0000023029401F0AFF807204FF4167101F0C4
:1019F000BAF85A2001F036FCD8F808000021CDE9E9
:101A0000000607204FF461720023029401F09BF856
:101A100007204FF4167101F0A6F808200021FA22E1
:101A2000C823CDE90046029401F08DF808204FF458
:101A30007A7101F098F8D8F80C000021CDE9000681
:101A400007204FF448720023029401F07CF807202D
:101A50004FF4167101F087F8532001F003FCB9F13F
:101A6000020F0ED0D8F808000021CDE900060720AB
:101A70004FF461720023029401F065F809F1010945
:101A80005AE7D8F8040001250024CDE90005072015
:101A900000214FF461720023029401F054F840F2E7
:101AA0005550CDE9000508200121FA22C8230294EF
:101AB00001F049F840F21410C2F2000080680121E0
:101AC000CDE9000505204FF4AF72DC23029401F04C
:101AD0003AF840F23010C2F2000080680021CDE9EF
:101AE000000506204FF4AF72FA23029401F02BF8A0
:101AF00040F6D010C2F2000000680021022200234C
:101B000005B0BDE8F04F08F087BF00002DE9F04FA9
:101B100085B0054640F22460C2F2000000EB85006B
:101B2000445C875C10F803A04CF24260C0F60000F1
:101B3000884691468DF811408DF812708DF813A0EB
:101B4000039301F007FE4CF22F60C0F6000021461F
:101B50003A46534601F0FEFD40F2301040F2141BAD
:101B6000C2F20000C2F2000B50F824205BF824609F
:101B70004CF25760C0F6000021462346009601F063
:101B8000E9FD40F23014C2F2000454F827205BF85B
:101B900027604CF25760C0F6000039463B4600967D
:101BA00001F0D8FD54F82A205BF82A704CF25760F7
:101BB000C0F6000051465346009701F0CBFD40F2BD
:101BC0005014C2F20004606801260027CDE9000627
:101BD000072000214FF461720023029700F0B3FF49
:101BE00007204FF4167100F0BEFF4FF0000A00BF4F
:101BF000532001F037FB5FFA8AF1404619B148469D
:101C0000012918BF039801F03AFB08200121FA22AC
:101C1000C823CDE90076029700F095FF08204FF425
:101C20002F7100F0A0FF0DF1110010F80AB040F282
:101C30001410C2F2000050F82B000121CDE900067B
:101C400005204FF4AF72DC23029700F07CFF40F2D6
:101C50003010C2F2000050F82B000021CDE9000640
:101C600006204FF4AF72FA23029700F06CFF4FF496
:101C70002F7007F043FCE0680021CDE90006072043
:101C80004FF44872F723029700F05DFF07204FF4EE
:101C9000167100F068FF5A2001F0E4FAA0680021F4
:101CA000CDE9000607204FF461720023029700F08F
:101CB0004AFF07204FF4167100F055FF40F25550CF
:101CC000CDE9000608200121FA22C823029700F07E
:101CD0003AFF08204FF42F7100F045FFC5B1012DE8
:101CE0000FD160690021CDE9000607204FF448724A
:101CF000F723029700F027FF07204FF4167100F03A
:101D000032FF532001F0AEFABAF1020F16D128E0EB
:101D100020690021CDE9000607204FF44872F7231F
:101D2000029700F010FF07204FF4167100F01BFF20
:101D3000532001F097FABAF1020F15D0A0680021E4
:101D4000CDE9000607204FF461720023029700F0EE
:101D5000FAFE07204FF4167100F005FF0AF1010AA0
:101D600046E7012D12D10434206801210027CDE976
:101D70000001072000214FF461720023029700F058
:101D8000E2FE07204FF4167100F0EDFE40F6D01091
:101D9000C2F20000006800210222002305B0BDE865
:101DA000F04F08F039BE000070B584B0044640F230
:101DB0002460C2F20000055D5AA0214601F0CAFC71
:101DC0005BA0294601F0C6FC40F23010C2F20000D0
:101DD00050F8251040F21410C2F2000050F82520EF
:101DE00056A001F0B7FC532001F03CFA204601F068
:101DF00046FA40F25015C2F2000528680126002478
:101E0000CDE90006072000214FF4617200230294FF
:101E100000F099FE07204FF4167100F0A4FE082090
:101E20000021FA224623CDE90046029400F08BFE01
:101E300008204FF42F7100F096FEE8680021CDE9EC
:101E4000000607204FF44872F723029400F07BFE4F
:101E500007204FF4167100F086FE5A2001F002FAB6
:101E6000A8680021CDE9000607204FF46172002325
:101E7000029400F068FE07204FF4167100F073FE24
:101E800040F25550CDE9000608200121FA224623F0
:101E9000029400F058FE08204FF4167100F063FE23
:101EA00028690021A0F2DC50CDE9000607204FF49C
:101EB0004872F723029400F046FE07204FF4167193
:101EC00000F051FE28690021CDE9000607206422B8
:101ED0003223029400F037FE07204FF4167100F011
:101EE00042FE532001F0BEF9A8690021CDE90006A9
:101EF00007204FF461720023029400F024FE0720B3
:101F00004FF4167100F02FFE40F6D010C2F2000020
:101F1000006800210222002304B0BDE8704008F0F0
:101F20007BBD00BF436F6C6F72202564200D0A00DB
:101F3000446972202564200D0A0000004D4F544F63
:101F4000525F585F506F733D2535642020204D4F00
:101F5000544F525F525F506F733D2535640D0A0038
:101F6000B0B584B040F25010C2F200000068012504
:101F70000024CDE90005072000214FF46172002301
:101F8000029400F0E0FD40F21410C2F200008068FC
:101F90000121CDE9000505204FF4AF72DC23029446
:101FA00000F0D1FD062000214FF4AF72FA23CDE9F5
:101FB0000045029400F0C7FD08200121FA22C82341
:101FC000CDE90045029400F0BEFD07204FF41671E4
:101FD00004B0BDE8B04000F0C6BDF0B583B040F23B
:101FE0005011C2F200010968012604460025CDE91E
:101FF0000016072000214FF461720023029500F0C3
:10200000A2FD012C0BD0022C2AD140F21410C2F2F6
:102010000000806840F255544FF4967703E04FF487
:10202000076400200027CDE90006052001214FF4B8
:10203000AF72DC23029500F086FD062000214FF4EC
:10204000AF72FA23CDE90076029500F07CFD0820FE
:102050000121FA22C823CDE90046029500F073FD64
:10206000732001F0FFF808204FF4167103B0BDE8AB
:10207000F04000F078BD2DE9F04184B0054640F213
:1020800098300C46C2F20000022A4274C37304D096
:10209000012A55D10121017052E0022B05D0012BFC
:1020A0004ED10421017000BF4AE040F220660521B4
:1020B000C2F20006017040F240703168C2F20000C6
:1020C0000068095D012750F821004FF00008CDE9B4
:1020D000000705200121C8226423CDF8088000F004
:1020E00032FD40F244703168C2F200000068095DC0
:1020F000C82250F821000021CDE900070620642302
:10210000CDF8088000F01FFD42F23410CDE9000741
:10211000072000214FF4FA72DC23CDF8088000F08C
:1021200012FD06204FF4167100F01DFD05204FF43E
:102130007A7100F018FD07204FF4167100F013FDBE
:1021400041F69410C2F20000057041F69510C2F2FB
:102150000000047004B0BDE8F08140F29830C2F293
:1021600000000130704740F29830C2F20000807BDE
:102170007047000010B52DED048B86B042F2792037
:10218000C0F6000005F06AFA0520FFF7AFFA40F24A
:102190004071C2F2000108600620FFF7A7FA40F282
:1021A0004471C2F2000108600720FFF79FFA40F275
:1021B0004871C2F200010860FFF793FA40F2206113
:1021C000C2F200010860234822A103AB9FED248ADC
:1021D0009FED249AD1E9011207C340F24C7003AC81
:1021E000C2F2000000212246B0EE480AF0EE490A91
:1021F00004F0E4FB40F29470C2F200000021224699
:10220000B0EE480AF0EE490A04F0D8FB164816A1D1
:10221000D1E901128DE8070040F2DC706C46C2F291
:10222000000000212246B0EE480AF0EE490A04F010
:10223000C5FB40F62400C2F2000000212246B0EEA9
:10224000480AF0EE490A04F0B9FB06B0BDEC048B75
:1022500010BD00BF3333333F00000000000000001A
:102260000080BB45CDCCCC3D6666663F00000000DB
:1022700000000000000000002DE9F04F81B02DEDBE
:10228000028B86B0437840F29839C2F2000989F88F
:102290001330428840F6A447A9F81C208188C2F276
:1022A0000007A9F81E103B7040F6A647C2F20007CF
:1022B0003A8040F6A847C2F20007398099F80070CA
:1022C000013F042F00F2C883DFE807F003E353A1C6
:1022D00039001004A9F81420A9F8161000F04E8156
:1022E000B9F83600B9F8387040F6AC46101ACF1B72
:1022F000C2F20006A9F82000A9F82270308040F64A
:10230000AE40C2F200000780B9F8187090B2C71B47
:1023100048BF7F42042F00F23581B9F81A708EB29F
:10232000F71B48BF7F42042F00F22C8199F81270EE
:1023300099F82C50AF4280F02A81013725E1100432
:1023400018BF5FEA014000F0878341F69518C2F29A
:10235000000898F80000032800F06682022800F0C8
:102360005E82012840F06482B9F83200B9F8345036
:102370005EE2427899F80A1089F80B2080788A4248
:1023800089F80D0018BF884240F066831318C3F126
:1023900006038A4289F8022089F8040089F803308C
:1023A00018BF884204D1401A18BF012089F80E00D6
:1023B0004CF28350C0F6000001F0CCF9002089F8FF
:1023C0000000C9F8050099F8021099F8032099F85F
:1023D0000430A9F809004CF2E220C0F6000001F038
:1023E000B9F94CF2A850C0F6000001F0B3F940F67C
:1023F000D010C2F20000006800210222002306B0C3
:10240000BDEC028B01B0BDE8F04F08F005BB100435
:1024100018BF5FEA014000F0B180B9F83600121A27
:10242000B9F83800A9F82020081A40F6AC41C2F2E9
:102430000001A9F822000A8040F6AE4114B2C2F2AF
:102440000001088082EAE431A1EBE43299F83E1001
:1024500092B28A4205B200F24F8180EAE530A0EBE9
:10246000E53080B2884200F2478141F69410C2F212
:1024700000000024047041F69510C2F200000470C0
:102480000FF2506089F81240A9F82440A9F82040C2
:1024900036E2100472D0B9F82600101AB9F82820D4
:1024A000A9F82000891A40F6AC42C2F20002A9F84D
:1024B0002210108040F6AE4205B2C2F20002118036
:1024C00080EAE532A2EBE53799F82A20BFB29742BD
:1024D0000EB200F28B8081EAE631A1EBE63189B2DF
:1024E000914200F2838041F6941541F6951499F8D3
:1024F0000A00C2F200050026C2F200042E70267007
:10250000002818BF03464CF2E450C0F6000089F8DA
:102510000A3001F01FF9012740F6A660CDE9000757
:1025200005200121C822FA2302964FF0050800F089
:102530000AFB4FF4FA50CDE9000706200021C8221B
:10254000FA23029600F0FFFA4FF4AF6000900820E3
:102550000121C82264230296019700F0F4FA4FF497
:102560007A7006F0CBFF032089F800004CF25D5032
:102570002F70C0F6000084F80080D5E1002089F8B3
:10258000100069E299F82C50002789F8127099F828
:102590000560AF4213D3002E08BF1E46B9F806707F
:1025A000154689F80560002F18BF3D46B9F8087038
:1025B000A9F80650002F08BF0F46A9F80870B342CB
:1025C0000FD0B9F806308FB2181A48BF4042B9F898
:1025D0000830DB1B48BF5B42132898BF142BC0F0A8
:1025E0001081A9F81820A9F81A1035E206FA80F02F
:1025F00000EBD0704FF0000AAAEB60000490FEF7E9
:1026000089F88046701B00EBD07040100C46059096
:10261000FEF780F8834640F24C709FEDC70BC2F284
:1026200000000F46C0F818A051EC100B9FEDC40B32
:102630004FEAD17A6AF3DF7455EC106B40462146BD
:1026400032462B46FDF739FF9FEDBF0B54EC108B44
:1026500042462346FDF78AFEFEF780F840F24C71B1
:10266000C2F200016AF3DF77886058463946324685
:102670002B46FDF722FF42462346FDF777FEFEF785
:102680006DF840F29474C2F20004A06004989FEDCB
:10269000F58A00EE100A40F24C75B8EEC00AC2F29C
:1026A0000005B1EE400A2846F0EE480A04F0E2F8D0
:1026B0000598F0EE480A00EE100AB8EEC00AB1EE36
:1026C000400A204604F0D6F895ED080ABDEEC00A8F
:1026D00010EE100A94ED080AA9F82000BDEEC00A19
:1026E00010EE100AA9F8220006B0BDEC028B01B072
:1026F000BDE8F04F04F076BA4FF0000A204689F8A2
:1027000012A0FEF707F8804628460E46FEF702F8AC
:10271000059040F2DC709FEDD40BC2F200000F4632
:10272000C0F818A051EC100B9FEDD10BC80F60F34F
:10273000DF765AEC10BB0490404631465A46534669
:10274000FDF72DFF9FEDCC0B56EC108B4246334628
:10275000FDF70CFEFEF702F840F2DC71C2F2000158
:10276000886004985A4660F3DF77059839465346E7
:10277000FDF715FF42463346FDF7F8FDFDF7EEFF86
:1027800040F6240600EE104A9FEDDC8A40F2DC742D
:10279000C2F20006B8EEC00AC2F20004B060B1EEA8
:1027A000400A2046F0EE480A04F064F800EE105AA1
:1027B000B8EEC00AB1EE400A3046F0EE480A04F026
:1027C00059F894ED080ABDEEC00A10EE100A96ED15
:1027D000080AA9F82000BDEEC00A10EE100AA9F8F8
:1027E000220004F0FFF9B9F8200040F6AC41C2F233
:1027F00000010880B9F8220040F6AE41C2F20001A3
:1028000029E14CF20360C0F6000000F0A3FF4CF297
:10281000C4500221C0F6000089F8001084E0B9F825
:102820003600B9F8385003E0B9F83A00B9F83C502E
:1028300089B2C1F1F00100EE101A91B286B2881B84
:1028400001EE100AB8EEC00AF8EEC10A08F0ACFCBE
:102850009FED8B1A9FED8B2A20EE010A80EE020A73
:10286000B9F81E009FED881AC0F1F00030EE010AA1
:1028700001EE100AB9F81C00B8EEC11A801B02EE76
:10288000100AB8EEC22AA8B222EE022A21EE011ADC
:10289000C0F1F00031EE021A02EE100AB1EEC11AD8
:1028A000B8EEC22A31EE421ABDEEC02A12EE101A5C
:1028B0000AB2A9F8241081EAE231A1EBE231BDEEBF
:1028C000C12A89B212EE100A0129A9F820003FD8C6
:1028D00001B280EAE130A0EBE13080B2022837D2C9
:1028E00098F8001069A000F035FF41F69410C2F28C
:1028F00000000024047088F8004089F812406BA0A2
:1029000000F028FF89F8004003F093FC40F6D01057
:10291000C2F20000006800210222002308F07CF8C7
:102920004CF2A850C0F6000006B0BDEC028B01B01E
:10293000BDE8F04F00F00EBF0000000000000000F6
:10294000000000000000D03F000000000000E83F51
:10295000B3EE042A20EE020ABDEEC00A10EE101AF1
:1029600021EE020A40F2206BBDEEC00AC2F2000B5B
:102970004FF0000A10EE102A40F24473DBF800001A
:1029800098F8004089F812A0A9F82410A9F820208E
:10299000C2F200031B68075D53F827502A4443F82E
:1029A000272040F24077C2F200073A68055D52F8EE
:1029B0002560314442F82510015D42F2486553F824
:1029C0002160AE42B8BF354625EAE57643F821607E
:1029D000015D41F6583552F82160AE42B8BF354628
:1029E00025EAE57642F82160005D012453F82000D5
:1029F0000021CDE90004062032223223CDF808A0C0
:102A000000F0A1F8DBF8000098F800103A68405C8C
:102A1000012152F820003222CDE9000405203223A2
:102A2000CDF808A000F08FF806204FF4FA7100F0FE
:102A30009AF805204FF4FA7100F095F8B9F82000E3
:102A400040F6AC41C2F200010880B9F8240040F61B
:102A5000AA41C2F20001088006B0BDEC028B01B0B1
:102A6000BDE8F08F00000000000000000000000042
:102A70000000000000001440000000000000E83FDB
:102A800000003443DB0F49400000B4C22A2A2A2A3E
:102A90002A2A2A2A202564202A2A2A2A2A2A2A2A75
:102AA0002A2043616C4F6B0D0A00000045584954C1
:102AB000204150505F4D41495843414D5F50617234
:102AC00073655F434952434C455F43616C58520DF7
:102AD0000A00000045584954204150505F4D41497B
:102AE0005843414D5F50617273655F436972636C17
:102AF000655F43616C4361720D0A000000000000D5
:102B000010B580B179B140F29834C2F20004227C51
:102B10001AB903F0A3FB0120207403F011FB10B1DC
:102B20000020207400BF10BD80B50520002100F0FA
:102B30006DFF0620002100F069FF07200021BDE89D
:102B4000804000F063BF10B584B0DDE906CE089C7C
:102B5000CDE900CE029400F023FF0A2004B0BDE8C6
:102B6000104006F0CBBC04F0D5BE000080B582B0AA
:102B700040F67400C2F20000002100688DF80710D2
:102B80000DF10701002207F0D1FC012809D19DF8C1
:102B9000071042F6C960C2F20000017002A000F006
:102BA000D9FD02B080BD00BF735F7563537461745B
:102BB0007573203A2025640D0A0000002DE9F043CA
:102BC0008BB003A82021FDF786FB42F6C969C2F24B
:102BD000000999F8000000211D28029121DC152828
:102BE00000F2B082DFE810F01600C7004701910044
:102BF000AC0072003201AE02AE02AE02E200AE02E2
:102C0000AE02AE02AE02AE02AE02AE02AE02AE0244
:102C1000620181014FF4FA700BB0BDE8F04306F099
:102C20006DBC27282CDC1E2800F0D5811F2840F021
:102C300089824CF25320C0F6000000F08BFD40F278
:102C40001560C2F20000007840F20802C2F20002F1
:102C5000002818BF0332107851789278FEF73CFEB6
:102C600002AA00204FF0FF314FF0FF3308F020F8A8
:102C7000042089F800004CF27120C0F600005FE2E9
:102C8000282800F0F981292840F05C820FF2945046
:102C900000F060FD40F21568C2F2000898F80000EC
:102CA000002800F0118240F20800C2F20000C17852
:102CB000027943790120FEF729FF02AA00204FF094
:102CC000FF314FF0FF3307F0F3FF2DE24CF2F81025
:102CD000C0F6000000F03EFDFFF742F90520FEF7C8
:102CE00017FC02AA00204FF0FF314FF0FF3307F02E
:102CF000DFFF40F21560C2F20000012101701420D4
:102D000089F800000FF2F8401AE24CF2B110C0F658
:102D1000000000F01FFDFFF723F90320FEF7F8FB8A
:102D200002AA00204FF0FF314FF0FF3307F0C0FF41
:102D30001E2089F800004CF2D510C0F60000FFE11B
:102D40004CF26410C0F6000000F004FDFFF708F933
:102D50000420FEF7DDFB02AA00204FF0FF314FF008
:102D6000FF3307F0A5FF282089F800004CF28B10F4
:102D7000C0F60000E4E14CF2F730C0F6000000F0CD
:102D8000E9FCFFF7EDF80120FEF7C2FB02AA0020E4
:102D90004FF0FF314FF0FF3307F08AFF022089F830
:102DA00000004CF21140C0F60000C9E140F2166686
:102DB000C2F20006307838B94CF20130C0F600009B
:102DC00000F0C8FC0120307003AC204603F042FE46
:102DD000002800F0B7814CF22A40C0F600002146DE
:102DE00008F08CF940F208010020C2F20001002234
:102DF000D3B2E35C2B2B08BF0132D3B2E35C0132C8
:102E0000303B0B5401300628F2D103A803F07EFEBC
:102E100040F6D010C2F20000006800210222002318
:102E20000224002507F0F8FD02AA00204FF0FF3130
:102E30004FF0FF3307F03CFF4CF21730C0F60000B4
:102E400089F8004000F086FC35707BE1DAA000F0E4
:102E500081FCFFF785F80620FEF75AFB02AA002046
:102E60004FF0FF314FF0FF33002407F021FFDBA0CC
:102E700089F8004064E14CF21C20C0F6000000F02C
:102E800069FCFFF76DF80220FEF742FB02AA002062
:102E90004FF0FF314FF0FF3307F00AFF142089F89D
:102EA00000004CF23820C0F6000049E14CF2C4307A
:102EB000C0F6000000F04EFC0120FFF78EF8012064
:102EC000042101220123FFF7D6F802AA00204FF0C7
:102ED000FF314FF0FF3307F0EBFE152089F80000BB
:102EE0004CF2DE30C0F600002AE14CF28E20C0F633
:102EF000000000F02FFCFFF730F9012101AE00BF08
:102F0000012200BF835C994204D00132042AF9D126
:102F100001E000BF725401310429F1D14178827877
:102F2000C3784CF2E220C0F6000000F013FC9DF8DC
:102F300005109DF806209DF807304CF2C320C0F61E
:102F4000000000F007FC40F21567C2F20007387875
:102F500040F20808C2F200080028404618BF0330BB
:102F60000078315CFEF7D2FB02AC00204FF0FF315D
:102F700022464FF0FF3307F09BFE387801210028EE
:102F800018BF042118F80100315CFEF7BFFB0020D8
:102F90004FF0FF3122464FF0FF3307F089FEFFF775
:102FA000E2F8002800F0D180012840F0E280387873
:102FB000022200284FF0020018BF052018F8000078
:102FC000315C032900F0F580022900F0CE80012950
:102FD00000F0CD80CDE04CF2A730C0F6000000F04C
:102FE000B9FB0220FEF7F9FF022002210222012391
:102FF000FFF741F80DF1080800204FF0FF3142467D
:103000004FF0FF33002607F053FE40F2080740F26E
:103010001565C2F20007C2F20005FC1C28780222E6
:103020000028384618BF2046815D02200223FFF7A2
:1030300022F800204FF0FF3142464FF0FF3307F0F7
:1030400037FE28780028384618BF2046805DFEF7F6
:10305000ABFE00204FF0FF3142464FF0FF3307F048
:1030600027FE0136032ED9D11F2089F800004CF22B
:103070004A30C0F6000063E04CF26E30C0F600004B
:1030800000F068FB02200224FEF7A7FF40F2156063
:10309000C2F2000000780221002818BF0124204657
:1030A00002220123FEF7E7FF02AA00204FF0FF31C2
:1030B0004FF0FF3307F0FCFD292089F800004CF2A7
:1030C0008B30C0F600003BE040F20805C2F200057C
:1030D0000027EE1C02AC00BF98F800000222002876
:1030E000284618BF3046C15D02200223FEF7C3FF09
:1030F00000204FF0FF3122464FF0FF3307F0D8FD9C
:1031000098F800000028284618BF3046C05DFEF73A
:103110004BFE00204FF0FF3122464FF0FF3307F007
:10312000C7FD0137032FD7D198F8000005210028EB
:103130004CF22C3018BF062189F80010C0F60000B0
:1031400000F008FB0BB0BDE8F083387802210028BE
:1031500018BF052118F80100315C032905D00229A8
:1031600005D0012905D1022102E0012100E003215F
:1031700031544FF4FA7006F0C1F938780221002872
:1031800018BF052118F80100315CFEF7BFFA02AA4A
:1031900000204FF0FF314FF0FF3307F089FD4CF274
:1031A000A920C0F6000000F0D5FA032089F800003D
:1031B000C8E73254DDE700BF454E54455220535412
:1031C000415455535F50726F536563417265615F3F
:1031D000325F53746172740D0A00000045584954FF
:1031E000205354415455535F50726F53656341727D
:1031F00065615F325F53746172740D0A00000000F4
:1032000045584954205354415455535F50726F539D
:103210006563417265615F325F52617741726561DA
:103220000D0A0000454E5445522053544154555305
:103230005F50726F53656341726561506C61636585
:103240000D0A000041F6941441F69515C2F20004EF
:10325000C2F2000520782978FFF752FC642006F0BE
:103260004DF9F7E710B5044603F07AFC732C08BF5C
:1032700010BD4FF4C870BDE8104006F03FB980B5EE
:1032800003F084FC6420BDE8804006F037B9704745
:1032900082B040F22C64C2F200042068012106F0E2
:1032A0002BFD4FF0FF3500BF2068012100220023D5
:1032B000009506F06FFDC00718BFFDF72FFF0A202D
:1032C00006F01CF9F0E7FDF73BBF0000FEF7F8F948
:1032D000052006F013F9F9E7FFF748FCFFF76EFC4D
:1032E0000A2006F00BF9F7E7FFF7ACBF8EB0052018
:1032F000FEF7FCF940F21861C2F2000108600620F6
:10330000FEF7F4F940F21C6140F22C6B40F6102AF3
:10331000C2F20001C2F2000B4FF0FF34C2F2000A09
:10332000086000BFDBF80000802100220023009429
:1033300006F030FD000640F1C181DAF81000DAF83D
:103340002440DAF83850DAF84C60FDF7F4F980469A
:1033500020468946FDF7EFF941EC180B2846FDF7AA
:10336000EAF941EC190B3046FDF7E5F9DAF830429D
:1033700041EC1A0B2046FDF7DEF941EC1B0B84F003
:103380000040FDF7D8F9DAF8344241EC1C0B204636
:10339000FDF7D1F941EC1D0B84F00040FDF7CBF9AE
:1033A00041EC100B4CF25900C0F6000042464B466F
:1033B0008DEC0C8B8DED0C0B07F0A0FEDAE91E40B6
:1033C000DAE90476FDF7B7F98046DAF880000D46B1
:1033D000FDF7B1F941EC180BDAF88400FDF7ABF911
:1033E00041EC190B2046FDF7A6F941EC1A0B3846C3
:1033F000FDF7A1F941EC1B0B3046FDF79CF941ECC0
:10340000100B4CF28900C0F6000042462B468DECB2
:10341000088B8DED080B07F071FEDAE93040DAE930
:103420000976FDF788F98046DAF8C8000D46FDF701
:1034300082F941EC180BDAF8CC00FDF77CF941EC8D
:10344000190B2046FDF777F941EC1A0B3846FDF7CA
:1034500072F941EC1B0B3046FDF76DF941EC100B96
:103460004CF2B400C0F6000042462B468DEC088BAF
:103470008DED080B07F042FEDAE94240DAE90E76FC
:10348000FDF759F98046DAF810010D46FDF753F9BA
:1034900041EC180BDAF81401FDF74DF941EC190B6A
:1034A0002046FDF748F941EC1A0B3846FDF743F981
:1034B00041EC1B0B3046FDF73EF941EC100B4CF292
:1034C000DF00C0F6000042462B468DEC088B8DEDE8
:1034D000080B07F013FEDAE95440DAE91376FDF73A
:1034E0002AF98046DAF858010D46FDF724F941EC37
:1034F000180BDAF85C01FDF71EF941EC190B2046B8
:10350000FDF719F941EC1A0B3846FDF714F941ECB7
:103510001B0B3046FDF70FF941EC100B4CF20A1073
:10352000C0F6000042462B468DEC088B8DED080B53
:1035300007F0E4FD40F6B040C2F200000068FDF77D
:10354000FAF80446DAF838020D46FDF7F4F841ECD3
:10355000100B4CF25510C0F6000022462B468DEDA4
:10356000000B07F0CBFDDAF81400DAF82860DAF87F
:103570003C70DAF85040FDF7DEF8804630460D46E4
:10358000FDF7D9F841EC180B3846FDF7D4F841ECBB
:10359000190B2046FDF7CFF841EC100B4CF235101B
:1035A000C0F6000042462B468DEC048B8DED040BDB
:1035B00007F0A4FDBAF91810BAF92C20BAF9403076
:1035C000BAF954704CF21500C0F60000009707F0ED
:1035D00095FDDAF80800DAF81C10DAF83070DAF83D
:1035E0004460D0E90A23D1E90A01D7E90A75D6E98E
:1035F0000A648DE883004CF23000C0F60000CDE98B
:10360000035605944FF0FF3407F078FD40F2186040
:10361000C2F200000068031D0ECB2AA007F06EFD69
:1036200040F21C60C2F200000068031D0ECB2BA00C
:1036300007F064FDDAE98017DAE984232DA0CDE9EB
:10364000001707F05BFD40F6C440C2F20000B0F97D
:10365000001040F6C640C2F20000B0F900202AA0D7
:1036600007F04CFD40F6A640C2F20000018840F68B
:10367000A84040F29835C2F20000C2F2000502886C
:10368000EB882F8925A0009707F038FD40F6AC4065
:10369000C2F20000B0F9001040F6AE40C2F20000E5
:1036A000B0F9002022A007F029FD40F6A440C2F2A4
:1036B000000001786A7922A007F020FD322005F091
:1036C0001DFF2FE67B4D4F544F525F525F506F737B
:1036D0007D25642C25642C25640A00007B4D4F5405
:1036E0004F525F585F506F737D25642C25642C25E5
:1036F000640A00007B6469735F7365747D256C6C7C
:10370000642C256C6C640A007B675F6F6273657262
:103710007665727D25642C25640A00007B63616DEB
:103720007D25642C25642C25642C25640A0000006A
:103730007B63616D5F647D25642C25640A00000055
:103740007B63616D5F636F6C6F727D25642C256494
:103750000A00000083B0B0B5ADF20C4D84460DF107
:103760000B04CDF81C14CDF82024CDF824340DF230
:103770001C43204640F201416246019307F0E2FCFF
:1037800040F66C05C2F2000528684FF0FF3104F0E6
:103790004EFD06A0214607F0B1FC286804F0A2FD0A
:1037A0000DF20C4DBDE8B04003B07047257300002A
:1037B0002DE9F04782B000250DF1070100208DF8BA
:1037C000075004F09EFA00283FD042F6C86640F247
:1037D000803741F68818C2F20006C2F20007C2F232
:1037E00000080DF107044FF001094FF0000A00BF77
:1037F000307898B138783E281AD89DF807107B7A2F
:1038000078683A78994215D18554D8F80020AAB141
:103810003978904735704FF0010A0FE09DF80700A6
:103820007978884204BF86F800903D7006E000BFBA
:10383000357003E0531C3B70815400BF00202146CB
:1038400004F05FFA0028D3D101E04FF0000A5FFADC
:103850008AF002B0BDE8F087FEE740F6C840C2F249
:10386000000000F03BBA10B540F6800440F6C840B6
:10387000C2F2000440F67803C2F20000C2F2000374
:103880000021224600F099F92068A0F201210329C5
:1038900088BF10BD013841F21831C0B2C2F2000138
:1038A00001EB801040F67801C2F20001BDE8104043
:1038B00004F0EABA40F6F040C2F2000000F00EBA9E
:1038C000B0B540F6A40540F69C0440F6F040C2F2C4
:1038D0000005C2F20004C2F2000000212A4623467D
:1038E00000F06BF900B1B0BD6868010A40F6052030
:1038F000C2F2000001702178FD290CD161789F2966
:1039000009D1A1786B2906D1007840F6FC11C2F2EA
:10391000000101220A5440F6A400C2F200001C215A
:10392000FCF7D9FCB0BD40F6D850C2F2000000F060
:103930006FBC41F21800C2F2000000F069BC40F612
:103940001850C2F2000000F063BC41F27800C2F2ED
:10395000000000F05DBC40F67850C2F2000000F0BC
:1039600057BC40F65870C2F2000000F051BC40F65F
:10397000B870C2F2000000F04BBC40F63860C2F2F2
:10398000000000F045BC40F69860C2F2000000F074
:103990003FBC40F6F860C2F2000000F039BC70474E
:1039A00070B584B040F6FC160025C2F20006DDE9D1
:1039B000084E8DF80F50ADF80D5035548DF80000BD
:1039C000FD208DF80100100A8DF80300200E8DF8FF
:1039D0000600200C8DF80700200ADDF828C08DF8BD
:1039E00008006B208DF802108DF80C0068460D2140
:1039F0008DF804208DF805308DF809408DF80AE027
:103A00008DF80BC003F0F2FE04B070BD80B584B039
:103A10008DF8000049F6FE00ADF801006B20002291
:103A20008DF803108DF80400684605210392CDF847
:103A30000920CDF8052003F0D9FE04B080BD0000B8
:103A400072B600BFFEE710B590F820E0D0F800C0D5
:103A5000AEF1010EBEF1010FDCF808E011D81EF046
:103A6000E05F14D0CEF301640120A04018608B68A1
:103A70009BB1D1F804E0C86840EACE0040EA030EEA
:103A80000FE000F1240301204FF4802121E000F138
:103A9000240301204FF400111BE00868CB6843EABF
:103AA000405E0CF5C07000EB0413240140F804E004
:103AB0000C69184640F8044F097D012903D10168BB
:103AC00041F48071016050680121D86010689860ED
:103AD00000201A681143196010BD90F82020013AA7
:103AE000012A30D8B0B546F20060C4F20000026886
:103AF00042F001020260026822F47C520260D1F8B6
:103B000014E0CC694A6A0368012C43EA022202608D
:103B10000EF01F024FF0010303FA02F2C3696FEACD
:103B2000020C23EA0203C36113D02CBBC36803EA6F
:103B30000C03C360CB688C8844EA034300EBCE04DB
:103B400023640B4611E0416A41F480214162012067
:103B50007047C3681343C3600B688C8844EA03430F
:103B600000EBCE04236401F10C038C681B8843EA4C
:103B7000044300EBCE04636443688D6943EA0204A6
:103B8000D1F810E0096A002D08BF03EA0C04446074
:103B90004369BEF1000F43EA020408BF03EA0C04C4
:103BA0000129446102D1C1691143C161016821F059
:103BB000010101600020B0BD7047B0B590F8204011
:103BC000013C012C7AD8D0F800C000290CBFDCF8E9
:103BD0000C40DCF81040A40776D00CF5D8754FEAFD
:103BE000011C55F80C4014F00404946055F80CE0E6
:103BF00005EB011C19BF4FEADE0555604FEA5E5523
:103C00001560DCF80050E64605F00205D5605EF868
:103C1000044F24075ABFDEF8004004F00F040824C4
:103C20001461DEF800400029C4F307249461DEF833
:103C300000504FEA15455561DCF808201A700268FB
:103C400002EB0112D2F8B8214FEA12225A70026830
:103C500002EB0112D2F8B8214FEA12429A700268C0
:103C600002EB0112D2F8B8214FEA1262DA70026850
:103C700002EB0112D2F8BC211A71026802EB0112A8
:103C8000D2F8BC214FEA12225A71026802EB0112EB
:103C9000D2F8BC214FEA12429A71026802EB01127B
:103CA000D2F8BC214FEA1262DA7100680CBF00F151
:103CB0000C0100F11001002020220AE000F1240193
:103CC00001204FF4802204E000F1240101204FF490
:103CD00000120B681A430A60B0BD00002DE9F04FD6
:103CE00081B0044600684669D0F804908768D0F82F
:103CF0000CB0D0F810A0D0F81880F10701D1002541
:103D000049E0F9070ED00121BA07816007D478078E
:103D10001DD4380721D4204600F020FA02E02046C6
:103D200000F01DFA0025F8051CD520684FF48071BD
:103D3000BA05816007D478050CD4380510D4204624
:103D400000F00EFA0EE0204600F00BFA0AE04FF405
:103D50000065E8E705F5005504E04FF48055E2E71B
:103D600005F58045F80316D520684FF48031BA0375
:103D7000816007D4780309D438030AD4204600F0C0
:103D8000F1F908E0204600F0EEF904E005F5004501
:103D900001E005F58035300707D51BF0100004D091
:103DA000206845F400751021C160700708D51BF02C
:103DB000080005D020680821C160204600F08CF979
:103DC000B00706D52068C068800702D0204600F002
:103DD00084F9700607D51AF0100004D0206845F465
:103DE000806510210161B00608D51AF0080005D0E1
:103DF000206808210161204600F080F9F00606D510
:103E000020680069800702D0204600F078F9B003EE
:103E100008D519F0100005D0206810214160204617
:103E200000F06EF9F00308D519F0080005D02068FD
:103E300008214160204600F097F9300440D55FEA40
:103E400049703AD506F4807008EA102028435FEAEA
:103E50008871014648BF41F00201B20558BF0146D2
:103E60005FEA48700D4648BF45F00405700558BF2D
:103E70000D46300521D518F070001ED0103800090D
:103E8000052815D8DFE800F0030F090C061245F0ED
:103E900008050DE045F080050AE045F0200507E043
:103EA00045F0400504E045F0100501E045F480755B
:103EB0002068816921F070018161206804214160DE
:103EC0004DB1606A40EA05012046616201B0BDE87B
:103ED000F04FFFF771BE01B0BDE8F08FD0B1B0B5C3
:103EE000044690F8200010B9204600F06FF82068D2
:103EF000016841F00101016000F027FC054600BFA8
:103F000020684168C90707D100F01FFC401B0B283F
:103F1000F6D312E001207047016821F00201016030
:103F200000F013FC054600BF2068416889070BD5E7
:103F300000F00BFC401B0B28F6D3606A052140F40F
:103F40000030606201203EE0217E0268012922F0FB
:103F5000800208BF80320260617E0268012922F07F
:103F6000400208BF40320260A17E0268012922F0AF
:103F7000200208BF20320260E17E0268012922F09F
:103F8000100218BF10320260217F0268012922F05E
:103F9000080208BF08320260617F0268012922F02E
:103FA000040208BF04320260D4E901C2D4E9033537
:103FB00061691A432A431143ACF101021143C16103
:103FC00000200121606284F82010B0BD10B586B0D9
:103FD000044601A81421FCF77EF9206846F600018A
:103FE000C4F2000188422ED046F20041C4F2000122
:103FF00088426FD140F23061C2F200010A6843F694
:104000003000C4F20200531C0B6052B90021009131
:10401000016941F000710161016901F000710091D5
:104020000099002100910168142441F00101016010
:1040300000684FF4C05100F001000090009800208B
:10404000C4F2020032E043F630000021C4F2020064
:104050000091026942F080620261026902F08062AE
:104060000092009A40F23062C2F2000213685C1CB7
:1040700014604BB90091026942F00072026102695A
:1040800002F000720092009A00910168402441F011
:104090000201016000684FF4405100F002000090FE
:1040A00000980020C4F2020000F580600191022116
:1040B000029100210391032104910921059101A995
:1040C00000F072FA20460521002200F0F5FB2046A0
:1040D00000F0E2FB06B010BD704740F6C841C2F2E6
:1040E0000001884208BFFFF7BEBB40F6F041C2F2B4
:1040F0000001884218BF7047FFF7E2BB7047704766
:1041000070470000B0B5044690F8200001281CD18B
:10411000022084F820002068016821F0010101607C
:1041200000F013FB054600BF20684068C00712D0AE
:1041300000F00BFB401B0B28F6D3606A40F4003004
:104140006062052084F8200003E0606A40F40020EB
:1041500060620120B0BD00206062B0BD7047704752
:1041600070477047704770477047000070B5866DA4
:10417000044600F0EAFA94F83510022925D10546E4
:104180002068216C026822F016020260426922F067
:104190008002426109B9A16C19B1016821F00801DE
:1041A0000160016821F00101016000BF2068006822
:1041B000C0070ED000F0C9FA401B0628F6D3202015
:1041C0006065032084F835000CE0802060650120E4
:1041D00008E0E06D3F2101FA00F0B060012084F8B2
:1041E00035000020002184F8341070BD90F835109F
:1041F000022909D1052180F835100068016821F0F5
:104200000101016000207047802141650120704755
:10421000F0B581B004460020009040F27830C2F240
:1042200000000268D4E9166048F2B5133768082127
:10423000C1F64E3381403942A2FB03250CD02268DF
:1042400013685B0708D5136823F004031360B1609B
:10425000616D41F00101616501218140394208D061
:1042600022685269120604D5B160616D41F0020105
:10427000616504218140394208D0226812689207A2
:1042800004D5B160616D41F0040161651021814088
:10429000394217D020680268120713D5B16002684E
:1042A0000168520306D4C90506D4016821F008014B
:1042B000016001E0080301D4216C00E0A16C09B1A8
:1042C00020468847E16D202000FA01F23A423CD0B6
:1042D00020680368DB0638D5B26094F83530026890
:1042E000052B1AD122F016020260426922F08002E8
:1042F0004261226C0AB9A26C1AB1026822F008026B
:1043000002603F208840B060012084F83500216DB4
:10431000002084F83400B9BB3BE0016852030CD4A0
:10432000C9050ED4016821F010010160012084F854
:104330003500002084F8340003E0080301D4616CE8
:1043400000E0E16B09B120468847606D08B3606DFD
:10435000C00717D0052084F835002068A90A026834
:1043600022F00102026000BF009A01328A420092EC
:1043700002D80268D207F7D1012084F83500002066
:1043800084F83400E16C21B1204601B0BDE8F04072
:10439000084701B0F0BD00002DE9F041044600F0EF
:1043A000D4F9C4B10546022084F835000020216804
:1043B00084F83400086820F001000860216808686B
:1043C000C0070BD000F0C1F9401B0528F6D9032522
:1043D0002023032064E00120BDE8F081086848F252
:1043E0003F02CFF21002D4E9013500EA020C04F1D9
:1043F0000C0898E8C10143EA0C032B431843D4E9A5
:10440000072E304338431043626A40EA0E00042A04
:1044100040EA08031CD1206BD4E90A2E40EA0E00C2
:10442000184308604869BEF1000F20F0030040EA1D
:10443000020040F0040C11D0B8F5005F35D0B8F19F
:10444000000F42D1022A43D0012A38D0002A3EE090
:104450000B60486920F0070040EA020C01F0F80008
:104460004AF6AB221038CAF6AA22A0FB02231A0988
:104470004BF68C73C1F814C0C0F600039A5C40F28E
:10448000FF335F284FF03F0021EA030100FA02F0FA
:1044900088BF0431C4E9161288600023012500207A
:1044A000636584F83550BDE8F081032AD6D801252C
:1044B00040230120DFE802F0020C0203F0E7AEF136
:1044C000C070B0FA80F0400904E0032A04D3C5D1DB
:1044D000CEF300600028C1D0012540230120DFE792
:1044E00090F834C0BCF1010F04BF0220704770B5D2
:1044F0004FF0010C80F834C0D0F858E090F835C087
:10450000BCF1010F37D14FF0020C80F835C04FF0ED
:10451000000CC0F854C0D0F800C08468056CC06DB1
:10452000DCF80060402C26F48026CCF80060CCF843
:1045300004300B4604BF13460A463F2101FA00F03F
:10454000CCF80830CCF80C20CEF80800DCF80000DD
:1045500040F01600CCF800002DB1DCF8000040F06F
:104560000800CCF80000DCF8000040F00100CCF8B6
:104570000000002070BD002180F83410022070BDC2
:10458000B0B5044600F0E1F8054640F2F830C2F25A
:1045900000000078611C18BF044400BF00F0D5F88B
:1045A000401BA042FAD3B0BD2DE9F04F83B000F11B
:1045B000200200F13E4741F60045009207F1FF77E7
:1045C000C4F2020508224FEAB726A84208BF072214
:1045D00000254FF000084FF00009072E38BF4FEAC2
:1045E000B72201920F68012202FA09FE17EA0E0AA9
:1045F00000F09980D1F804C003220CF003077E1E5E
:1046000002FA08F4012E6FEA040B11D88468CE6810
:1046100004EA0B0406FA08F634438460446824EA8A
:104620000E06CCF3001404FA09F42643466003E0B6
:10463000032F01D103271EE0C6688C6806EA0B062B
:1046400004FA08F42643022FC66014D16FF0030267
:10465000009E02EA590756F807C005F01C040F2215
:104660000B69A2402CEA0202A3401A43F251D1F88E
:1046700004C00CF00307026807FA08F302EA0B0211
:104680001A431CF4403F02604DD0002243F644031D
:104690000292C4F202031A6843F6004442F48042D4
:1046A0001A601A68C4F2010402F480420292029A6B
:1046B00029F003024FF6084C2244CFF6FF7C52F853
:1046C0000C3005F00C070F26BE40B343019E06FADE
:1046D00007F73B4342F80C30A2684B6842EA0A07EE
:1046E00043F60C4CDE0258BF22EA0A07A760C4F268
:1046F000010CDCF800209E0242EA0A0758BF22EAB9
:104700000A07CCF8007062689E0342EA0A0758BFA5
:1047100022EA0A0767602268DB0342EA0A0758BFF9
:1047200022EA0A07276009F1010908F10208B9F134
:10473000100F05F104057FF455AF03B0BDE8F08F0D
:10474000002A08BF0904816170474AF21040C2F292
:1047500000000068704740F2F8304AF21041C2F29F
:104760000000C2F2000100780A6810440860704737
:1047700080B543F60040C4F20200016841F40071C4
:104780000160016841F480610160016841F4807159
:104790000160032000F0BBF80F2000F004F800F0E7
:1047A0005AF8002080BD70B586B0002543F6400160
:1047B0000195C4F202010A68044642F020020A6030
:1047C000096801A801F0200101910199694600F0F2
:1047D00058F9049E002E18BF012600F071F94DF61D
:1047E0008361B040C4F21B31A0FB01014FF0FF30E8
:1047F00000EB914141F2201041F20042C2F2000070
:10480000C4F2000240F2E733C0E90021C0E90253DC
:104810000561856100F0BBFB0546C8B941F2201077
:10482000C2F2000000F0F9FB054688B9372000F01D
:1048300033F80F2C0BD8372021460022002500F03A
:104840003BF840F2FC30C2F20000046000E00125B9
:10485000284606B070BD82B0002043F640010190AA
:10486000C4F202014A6842F480424A604A6802F493
:1048700080420192019A00900868002240F0805026
:10488000086008680F2100F08050009000986FF0D9
:10489000010002B000F010B800280CD400F01F0195
:1048A000012202FA01F11C2202EAD0004EF20012AB
:1048B000CEF200028150704710B54EF60C5CCEF27D
:1048C000000CDCF80030C3F3022E8EF00704042C39
:1048D00028BF0424BEF103034FF0FF3E0EFA04F498
:1048E00038BF0023A14399400EFA03F39A431143C2
:1048F00000F00F0200F160430901043A03F564433C
:104900006244002848BF02F10C03197010BD4EF636
:104910000C51CEF200010A684FF6FF031A4060F313
:104920000A2242F0806040F0FD700860704700008D
:10493000002872D02DE9F04143F60008C4F20208C5
:104940000446D8F800040D4600F00700884207D25C
:1049500088F80054D8F8000400F00700A84266D197
:104960002068810717D5410705D5D8F8081041F40C
:10497000E051C8F80810010705D5D8F8081041F42F
:104980006041C8F80810D8F80810A26821F0F001BA
:104990001143C8F80810C00741D1D8F8000400F04E
:1049A0000700A84207D988F80054D8F8000400F09E
:1049B0000700A8423BD12068410707D5D8F8081066
:1049C000E26821F4E0511143C8F80810000708D547
:1049D000D8F80800216920F4604040EAC100C8F816
:1049E000080000F093F8D8F808104BF62C62C1F3D9
:1049F0000311C0F60002515C40F2783220FA01F156
:104A000040F2FC30C2F200000068C2F20002116005
:104A1000FFF7C9FE0020BDE8F08101207047606803
:104A2000811E022906D2D8F80010890108D401207D
:104A3000BDE8F08101281FD1D8F800108903F6D510
:104A4000D8F8081021F003010843C8F80800FFF760
:104A50007CFE064641F28837D8F80800616800F00D
:104A60000C00B0EB810F98D0FFF76FFE801BB842AF
:104A7000F2D90320BDE8F081D8F800108907D6D517
:104A8000DEE70F22026043F60802C4F20202136856
:104A900003F003034360136803F0F00383601368BB
:104AA00003F4E053C360D2F800C04FF4E05303EACC
:104AB000DC030361D2F8F80300F0070008607047D8
:104AC00040F2783043F60801C2F20000C4F202015D
:104AD000006809684BF63C62C1F38221C0F600020F
:104AE000515CC840704740F2783043F60801C2F28A
:104AF0000000C4F20201006809684BF63C62C1F391
:104B00004231C0F60002515CC840704710B543F610
:104B10000404C4F20204606800F00C0142F2004098
:104B20000829C0F2F40007D0042918BF10BD41F2D3
:104B30000020C0F27A0010BD216801F03F02216818
:104B400023684902C3F3881105D4A1FB00010023A7
:104B5000FBF746FB06E041F20020C0F27A00484332
:104B6000B0FBF2F021680222C1F3014102EB4101E6
:104B7000B0FBF1F010BD000000286BD02DE9F04132
:104B800082B00446007843F60006C007C4F202066D
:104B90000CD0B06800F00C00042840F09880306819
:104BA000800303D56068002800F0AB802078800780
:104BB0001BD5B06810F00C0F09D0B06800F00C00E5
:104BC000082840F0A0807068400200F19C803068A6
:104BD000800703D5E068012840F0938030682169A0
:104BE00020F0F80040EAC10030602078000733D49C
:104BF0002078400745D4A56955B3B06800F00C0093
:104C0000082840F0B980012D7BD07068E16900F47C
:104C100080028A4275D1216A00F03F028A4270D137
:104C200047F6C071626A0140B1EB821F69D1A16A87
:104C30004FF6FF73C903994300F44032A1F5803168
:104C40008A425ED1E16A00F07060B0EB016F58D12A
:104C50000020F3E0012070476069002878D0002030
:104C6000C4F247200121C0F8801EFFF76EFD054603
:104C7000706F8007BCD4FFF768FD401B0228F7D98E
:104C8000DBE0306C5FEAC0080AD400200190306C91
:104C900040F080503064306C00F0805001900198FA
:104CA00047F20007C4F200073868C00542D43868EC
:104CB00040F480703860FFF748FD05463868C0054D
:104CC00038D4FFF742FD401B0228F7D9B5E0B068A1
:104CD00000F00C00082803D1706840023FF55FAF78
:104CE00061683068B1F5803F07D0B1F5A02F40F082
:104CF0008E8040F480203060306840F48030306036
:104D00008EE001209AE0E068002840F20000C4F242
:104D1000472053D001210160FFF717FD054600BF72
:104D2000306880073FF55AAFFFF70FFD401B0228A0
:104D3000F6D982E0A168306F012905D005294FD14D
:104D400040F004003067306F40F00100306750E001
:104D50000020C4F247200021C0F8801EFFF7F5FCB8
:104D6000054600BF706F80077FF542AFFFF7EDFC8F
:104D7000401B0228F6D960E00027C4F24727002034
:104D80003866FFF7E2FC022D05460BD13068800142
:104D900057D5FFF7DAFC401B02284FF00300F5D986
:104DA0004CE000BF306880017FF552AFFFF7CDFCCB
:104DB000401B02284FF00300F4D93FE000210160BE
:104DC000FFF7C3FC054600BF306880077FF50DAFD5
:104DD000FFF7BBFC401B02284FF00300F4D92DE085
:104DE00020F001003067306F002920F004003067A8
:104DF00048D0FFF7AAFC054641F28837306F80079C
:104E000051D4FFF7A2FC401BB842F7D915E020F4BB
:104E1000803030603068002920F4802030604BD032
:104E2000FFF793FC054600BF306880033FF5BEAE38
:104E3000FFF78BFC401B6428F6D9032002B0BDE8C5
:104E4000F08104F11C052FCD084340EA8210D903FC
:104E50004FF6FF729143A1F5803140EA05600843A7
:104E6000706001203866FFF770FC044630688001EE
:104E70003FF5EEAEFFF769FC001B02284FF0030080
:104E8000F4D9DBE7FFF761FC054641F2883700BF44
:104E9000306F800707D5FFF758FC401BB8424FF032
:104EA0000300F5D9CAE7B8F1000F3FF5A4AE306CA6
:104EB00020F0805030649EE6FFF747FC054600BFB7
:104EC000306880037FF572AEFFF73FFC401B64281B
:104ED0004FF00300F4D9B1E77047704790F83C20D9
:104EE000012A4FF0020250D010B580F83D20026830
:104EF000D2F804E0D2F808C00C682EF07003234307
:104F000041F2FF74C4F20004A24253600BDC40F291
:104F1000FF73C4F200039A4213DCB2F1804F27D032
:104F200040F2004315E040F2FF33C4F201039A421D
:104F300012DC41F60003C4F200039A4218D00023A9
:104F400012E040F60003C4F200039A4210D040F68B
:104F50000043C4F2000309E044F20003C4F2010379
:104F60009A4205D040F20043C4F201039A4204D1B0
:104F700049682CF08003194391600121002280F8D8
:104F80003D1080F83C20BDE810401046704740B30B
:104F900010B5044690F83D0028B9002084F83C0084
:104FA000204600F020F8022084F83D002068211DF2
:104FB00001F0C0FE012084F8460084F83E0084F829
:104FC0003F0084F8400084F8410084F8420084F8EF
:104FD000430084F8440084F8450084F83D00002034
:104FE00010BD01207047006840F60001C4F20001C6
:104FF000884218BF704781B00020009043F64000FF
:10500000C4F20200016841F004010160006800F090
:1050100004000090009801B0704790F83D100129FD
:105020001CBF01207047022180F83D10006841F24A
:10503000FF72C168C4F20002904241F00101C160F8
:105040000BDC40F2FF71C4F20001884213DCB0F1C6
:10505000804F27D040F2004115E040F2FF31C4F20A
:105060000101884212DC41F60001C4F200018842CD
:1050700018D0002112E040F60001C4F2000188427D
:1050800010D040F60041C4F2000109E044F20001F2
:10509000C4F20101884205D040F20041C4F201018E
:1050A000884204D1816801F00701062903D0016814
:1050B00041F0010101600020704790F83C20012A76
:1050C0004FF002026BD080B580F83D20D0F800C0D0
:1050D0004FF67772DCF8083023EA0202CCF8082099
:1050E0000B684F2B28DC1F2B44DD202B45D0302BA9
:1050F00043D0402B40F0AC80D1F804E0C968DCF824
:105100002030DCF8202022F00102CCF82020DCF84E
:10511000182022F0F00242EA011123F00A0242EACA
:105120000E02CCF81810CCF82020DCF8081041F062
:10513000470121F0300127E06F2B32DDB3F5005F2E
:1051400073D0B3F5805F21D0702B40F08180D1E91E
:1051500001E3C968DCF8082043EA0E0322F47F4229
:1051600043EA01211143CCF80810DCF8081041F0A3
:10517000770109E00BB1102B6AD1DCF8081021F09F
:105180007001194341F00701CCF8081000220121F9
:1051900080F83D10002180F83C10BDE880401046AA
:1051A0007047502B21D0602B52D1D1F804E0C96850
:1051B000DCF82030DCF8202022F01002CCF820208F
:1051C000DCF8182022F4704242EA013123F0A002F8
:1051D00042EA0E12CCF81810CCF82020DCF80810A7
:1051E00041F0670121F01001CEE7D1F804E0C96871
:1051F000DCF82030DCF8202022F00102CCF820205E
:10520000DCF8182022F0F00242EA011123F00A0231
:1052100042EA0E02CCF81810CCF82020DCF8081076
:1052200041F0570121F02001AEE7D1E901E3C9685F
:10523000DCF8082043EA0E0322F47F4243EA01210E
:105240001143CCF80810DCF8081041F480419BE7CA
:1052500001229CE7704770B504460068C56806697E
:10526000B10716D515F0020113D06FF002010161EC
:10527000012121778069800703D02046FFF7EAFFEC
:1052800005E0204600F0B5F8204600F02CF900209B
:105290002077700718D515F0040015D020686FF03E
:1052A0000401016102212177806910F4407F03D05D
:1052B0002046FFF7CFFF05E0204600F09AF8204691
:1052C00000F011F900202077300717D515F00800FD
:1052D00014D020686FF00801016104212177C069B2
:1052E000800703D02046FFF7B5FF05E0204600F019
:1052F00080F8204600F0F7F800202077F00618D557
:1053000015F0100015D020686FF010010161082120
:105310002177C06910F4407F03D02046FFF79AFF41
:1053200005E0204600F065F8204600F0DCF800209B
:105330002077F00718BF15F0010006D020686FF045
:1053400001010161204600F04EF9300609D515F043
:10535000800006D020686FF0800101612046FFF7D1
:10536000BBFD700609D515F0400006D020686FF02F
:1053700040010161204600F040F9B00658BF70BD01
:1053800015F0200008D021686FF0200220460A6145
:10539000BDE87040FFF7A1BD70BDB0B586B0044652
:1053A00040F6000501A81421C4F20005FAF793FFA6
:1053B0002068A8421BD1002043F630010090C4F2BF
:1053C00002010A6842F008020A60096801F0080157
:1053D000009100994FF4704101910221CDE9021032
:1053E000CDE9040105F5013001A9FFF7DDF806B0AC
:1053F000B0BD7047B0B5044690F83C00012804BF2A
:105400000220B0BD0D464FEAB2010120032984F805
:105410003C0037D8DFE801F002220A1A206829464A
:1054200001F01EFD206850F8181F06E0206829468C
:1054300001F07BFD206850F81C1F41F0080101605D
:10544000016821F004010160296917E020682946FC
:1054500001F09EFD206850F81C1F06E020682946D8
:1054600001F02FFD206850F8181F41F40061016021
:10547000016821F480610160296909020268114311
:1054800001600020002184F83C10B0BD40B310B58D
:10549000044690F83D0028B9002084F83C002046DE
:1054A00000F020F8022084F83D002068211D01F062
:1054B00041FC012084F8460084F83E0084F83F0057
:1054C00084F8400084F8410084F8420084F84300E6
:1054D00084F8440084F8450084F83D00002010BDA5
:1054E0000120704770477047A1B1042904D00829F2
:1054F00014BF4122402200E03F22825C012A11D1E8
:105500000222082910D0042914BF80F8412080F815
:105510003F200BE090F83E20012A03D1022280F8C0
:105520003E2003E00120704780F84020006801F031
:105530001F010122036A02FA01F123EA0102026259
:10554000026A114341F2FF72C4F20002904201620A
:105550000BDC40F2FF71C4F20001884213DCB0F1B1
:10556000804F35D040F2004115E040F2FF31C4F2E7
:105570000101884214DC41F60001C4F200018842B6
:1055800026D0002114E040F60001C4F20001884258
:105590001ED040F60041C4F20001884218D01CE041
:1055A00044F20001C4F20101884211D040F20041EE
:1055B000C4F20101884210D1416C40F2004340F432
:1055C0008062C4F2010341F400419A42416404D173
:1055D000816801F00701062903D0016841F001014B
:1055E000016000207047006841F20041C4F20001F0
:1055F000884218BF7047FFF7AEB8704770B582B0E9
:10560000044690F84200202820D14FF00105F1B166
:10561000EAB1002620462563666301F08BFE206B0D
:10562000012814D101962068016801914068019019
:10563000019800BF206850E8030F216840F0100077
:1056400041E80302002AF5D1002500E002252846A2
:1056500002B070BD10B5044641F26810C2F20000FD
:1056600084421BD041F2B010C2F2000084421AD032
:1056700041F2F810C2F20000844219D041F24020F9
:10568000C2F20000844218D041F28820C2F2000029
:10569000844217D0FEF7D4F9002017E042F6B85044
:1056A000C2F2000012E042F6C850C2F200000DE063
:1056B00042F6D850C2F2000008E042F6E850C2F2CA
:1056C000000003E042F6F850C2F20000E16B096806
:1056D0004968C1810189C289891A418110BD704719
:1056E000B0B582B0044600680168C368426901F041
:1056F0002F05202D03F0200506D12DB1204602B044
:10570000BDE8B04001F046BD5FEA017C1EBF02F07B
:10571000010E03F4907212EB0E026ED1226BCD06D5
:1057200043D5012A41D113F010023ED0002101914E
:10573000016801914168019101994069400600F1B9
:10574000CB80A08DE18DE28D002A00F0158188428A
:1057500000F01281401A00BF216851E8031F22683F
:1057600021F4907142E80313002BF5D1216851E830
:10577000051F226821F0010142E80513002BF5D135
:10578000202184F842100021216300BF216851E8E4
:10579000031F226821F0100142E80313002BF5D10A
:1057A000022281B220466263DCE00A0640F1828078
:1057B00013F0800200F07E8094F84110212940F01F
:1057C000DB80A168B1F5805F03D12169002900F079
:1057D000DB80216A4A1C226209784160E18C013930
:1057E0000A04E18440F0C880C16821F08001C160F2
:1057F000C16841F04001C160BEE0CA0718BF13F4A0
:10580000807203D0626C42F0010262644A0706D5DE
:10581000BEF1000F03D0626C42F0020262648A079C
:1058200006D5BEF1000F03D0626C42F00402626440
:10583000BCF1000F06D55EEA050203D0626C42F0AF
:1058400008026264626C002A00F09680890604D522
:105850001DB1204601F09EFC20684069616C00F09B
:10586000400001F00801401800F08180204601F05E
:1058700069FC20684069400640F18080206850E85B
:10588000050F216820F0400041E80502002AF5D10B
:10589000E06B002872D046F6F771C0F60001016592
:1058A000FEF7A4FC002867D0E06B016D02B0BDE8F4
:1058B000B040084749065FD513F040015CD0C1688D
:1058C00021F04001C1602021204684F8411002B03F
:1058D000BDE8B04000F0C4BBE06B016849688AB223
:1058E000002A49D0A38D9A4246D2E185C069B0F51D
:1058F000807F30D0206850E8030F216820F480704A
:1059000041E80302002AF5D1206850E8050F21681C
:1059100020F0010041E80502002AF5D1206850E896
:10592000050F216820F0400041E80502002AF5D16A
:10593000202084F842000020206300BF206850E847
:10594000030F216820F0100041E80302002AF5D17E
:10595000E06BFEF70BFC02206063A08DE18D401A26
:1059600081B2204602B0BDE8B040FFF773BE2046CA
:10597000FFF7B5FE0020606402B0B0BD204602B063
:10598000BDE8B040FFF7ABBE216A31F8022B6FF3E0
:105990005F224260216221E758B310B5044690F8B7
:1059A000410028B9002084F84000204600F023F888
:1059B000242084F841002068C16821F40051C160AE
:1059C000204601F048FC2068016921F49041016102
:1059D000416921F02A014161C16841F40051C1606F
:1059E00000202021606484F8411084F84210606334
:1059F00010BD012070472DE9F04F87B0044602A882
:105A00001421FAF768FC206844F6FF71C4F2000123
:105A1000884200F3818044F20041C4F200018842D0
:105A200000F0BE8044F60001C4F20001884200F09C
:105A3000A58144F60041C4F20001884240F078821A
:105A4000002643F630000196C4F20200016946F2D6
:105A5000100841F4002101610169C4F2020801F457
:105A60000021019101990196016841F00401016052
:105A7000006802A900F00400019001984FF4406012
:105A800002900220CDE9030603200590082006902D
:105A90000020C4F2020000F50060FEF785FD40F62C
:105AA000785508F16000C2F200054FF00067402110
:105AB000C5E9000705F108004FF4806980E842025B
:105AC00005F114001421FAF706FC2846FEF764FCE1
:105AD00008B1FDF7B5FFA563AC6340F6185508F1B2
