:020000040800F2
:1000000030980020A1010008995400086D4B0008A9
:10001000AD52000849210008A95F00080000000057
:1000200000000000000000000000000091560008E1
:100030007524000800000000A1540008C501000854
:10004000BB010008BB010008BB010008BB010008A0
:10005000BB010008BB010008BB010008BB01000890
:10006000BB010008BB010008BB010008FD2300081C
:100070000924000815240008212400082D24000864
:100080003924000845240008BB010008BB01000812
:100090004B210008BB010008BB010008BB010008A0
:1000A000BB010008BB010008BB010008BB01000840
:1000B000BB010008BB010008BB010008BB01000830
:1000C000BB010008BB010008BB010008BB01000820
:1000D000BB010008775F0008835F00088F5F00089E
:1000E000BB010008BB010008BB010008BB01000800
:1000F000BB010008BB010008BB0100085124000837
:10010000BB010008BB010008BB010008BB010008DF
:100110000F5B00081B5B0008BB0100085958000872
:10012000BB010008BB0100085D240008BB010008FA
:10013000BB010008BB010008BB010008BB010008AF
:100140009D220008BB010008BB010008BB0100089C
:10015000BB010008BB010008692400089B5F000880
:10016000BB010008BB010008BB010008BB0100087F
:10017000BB010008BB010008BB0100080000000033
:10018000BB010008BB010008DFF810D000F0FEFB47
:1001900000F0D0F80048004755660008309800206D
:1001A0000648804706480047FEE7FEE7FEE7FEE711
:1001B000FEE7FEE7FEE7FEE7FEE7FEE7475800083A
:1001C0008901000830B410B50348804730BCAE4602
:1001D00030BC024800477047956900088157000805
:1001E0002DE9F05F0546002092469B46884606466C
:1001F000814640241BE0284641464746224600F0FF
:10020000A6FA53465A46C01A914110D311461846D1
:10021000224600F08DFA2D1A67EB01084F46224660
:100220000120002100F084FA17EB00094E41201E46
:10023000A4F10104DFDC484631462A464346BDE8C6
:10024000F09F2DE9F0410024061B254671F10006C0
:1002500005DA01240027D0EB070067EB0101161E29
:1002600073F1000605DA0027D2EB0702012567EBE0
:100270000303FFF7B5FF86460E4617469C46AC4281
:1002800004D00025D0EB050E65EB010624B100205B
:10029000D2EB000760EB030C704631463A466346EA
:1002A000BDE8F08140EA01039B0703D009E008C9DB
:1002B000121F08C0042AFAD203E011F8013B00F82B
:1002C000013B521EF9D27047D2B201E000F8012B77
:1002D000491EFBD270470022F6E710B513460A46C6
:1002E00004461946FFF7F0FF204610BD421C10F8E7
:1002F000011B0029FBD1801A704730B5054600204C
:10030000034600E05B1C934205D2EC5CC85C201AFB
:1003100001D1002CF6D130BD70B5064608F086FE3E
:10032000046805460A220021304600F032FA2C60AB
:1003300070BD00007CB50748009007480190054655
:10034000009C04E02046016808448047241DAC421C
:10035000F8D17CBD64A0000868A000082DE9FE4F1C
:10036000804681EA0300C00F0C46009021F0004156
:1003700023F00045B8EB0200A94105D240462146D2
:1003800090461C460B46024623F00040104347D0DF
:10039000270DC7F30A00C3F30A510290401A0190D7
:1003A00040286BDAC3F3130040F4801B0098924698
:1003B00020B10023D2EB030A63EB0B0B01985946E3
:1003C000C0F14002504600F0B3F906460D465046D3
:1003D0005946019A00F0CBF910EB08006141002466
:1003E00087EA115284EAE7731A4340D0009A62B355
:1003F000019A012A4FEA075215DC001B61EB02014A
:100400004FF0004202EA0752CDE90042001C41F5DC
:10041000801132462B4600F03AFA03B0BDE8F08F67
:1004200040462146F9E7001B61EB0201001C41F543
:10043000801300185B412018A2F5001747EB030159
:1004400040EAD570B6196D4111E06D084FEA3606E5
:1004500045EAC0754FEA0752001B61EB0201001C20
:1004600041F5801149084FEA3000001951413246E8
:100470002B4603B0BDE8F04F00F0FAB90098012216
:1004800040000023D0EB020263EBE07300982146AA
:100490004FEAE074B8EB000061EB0401E9E783F098
:1004A00000435BE781F0004158E72DE9FE4F81EA08
:1004B000030404F0004421F0004100944FF0000BCD
:1004C00023F0004350EA01045ED052EA03045BD0FB
:1004D000C3F30A54C1F30A552C44A4F2F334019433
:1004E000A0FB0254C1F3130141F48011C3F31303C1
:1004F00043F4801301FB024400FB034E840A970A75
:1005000044EA815447EA8357A4FB076802958D0AA1
:1005100005FB07854FEA932C04FB0C542705029D2D
:100520004FEA065847EA1637B5EB08056EEB070C9D
:10053000870E920E47EA811742EA8312A7FB020157
:10054000B6EB0B0164EB00042B0D43EA0C335E1891
:1005500044EB1C50DA465146E7FB0201C5F3130495
:100560004FEA0B3343EA14534FEA0432019C43EA47
:100570000603A4F10C040294009CCDE900B400F041
:1005800086F903B0BDE8F08F00200146F9E72DE9B8
:10059000F04D81EA030404F0004B21F000451446BD
:1005A0004FF0000A23F0004150EA050220D054EA3F
:1005B00001021DD0C5F30A570246C5F31303C1F368
:1005C0001300C1F30A5640F4801543F48013A7EBDF
:1005D0000608101BD64608F2FD3873EB050002D35F
:1005E00008F1010801E092185B41B8F1000F03DA4D
:1005F00000200146BDE8F08D00204FF48011064632
:1006000084460EE0171B73EB050705D3121B63EB43
:10061000050306434CEA010C49084FEA30009218E2
:100620005B4150EA0107EDD152EA030012D082EAA1
:10063000040083EA0501084305D0101BAB4106D234
:100640000122002306E000224FF0004302E06FF099
:10065000010253101AEB06004CEB085110EB0A0094
:1006600041EB0B01BDE8F04D00F002B90EB5C10F32
:1006700080EAE0700844CA07002140F233438DE865
:100680000E000A460B4600F002F903B000BD70B53B
:10069000C1F30A5201F000450024C1F3130140F2F6
:1006A000FF3341F480119A4201DA002070BD40F21C
:1006B00033439A42A2F2334203DC524200F047F83D
:1006C00000E090402C43F1D0404270BD01F0004367
:1006D00030B421F0004150EA010206D00A0DA2F523
:1006E0006072C1F31301002A02DC30BC00207047A5
:1006F000440F44EAC104C100E01830BC00EBC25012
:1007000000F07FB830B50B460146002020220124BE
:1007100009E021FA02F59D4205D303FA02F5491BCF
:1007200004FA02F52844151EA2F10102F1DC30BDE5
:10073000202A04DB203A00FA02F1002070479140A1
:10074000C2F1200320FA03F3194390407047202A96
:1007500004DB203A21FA02F00021704721FA02F36B
:10076000D040C2F120029140084319467047202A28
:1007700006DBCB17203A41FA02F043EAE07306E0C9
:1007800041FA02F3D040C2F12002914008431946D9
:1007900070472DE9F04791460F46804604460026F3
:1007A00014F8015B2DB100F009F90068405DC00745
:1007B000F6D12B2D02D02D2D18D0641E4A46394675
:1007C000204600F0FFF827B13968A14201D1C7F8EF
:1007D000008071054FF002040BD54042002803DD74
:1007E00008F024FC0460A007BDE8F08746F48066AA
:1007F000E4E70028F8DA08F019FC04606FF0004024
:10080000F2E70029A8BF7047401C490008BF20F04C
:100810000100704710B4B0FA80FC00FA0CF050EA06
:10082000010404BF10BC704749B1CCF1200421FA87
:1008300004F411FA0CF118BF012121430843A3EB82
:100840000C01CB1D4FEA00614FEA102042BF00208F
:1008500010BC704700EBC35010440029A4BF10BC6B
:100860007047401C490008BF20F0010010BC7047D1
:1008700010B5141E73F1000408DA401C41F10001A8
:1008800092185B411A4301D120F0010010BD2DE9FF
:10089000F04D92469B4611B1B1FA81F202E0B0FAF6
:1008A00080F220329046FFF743FF04460F4640EAAD
:1008B0000A0041EA0B0153465A46084313D0114639
:1008C00053EA010019D0C8F140025046FFF73FFF3C
:1008D00005460E46504659464246FFF729FF084353
:1008E00005D0012004E020463946BDE8F08D002007
:1008F000054346EAE0762C4337430A986305E40A49
:10090000A0EB08000022FD0A44EA47540A3002D551
:1009100000200146E9E7010510196941DDE90845B4
:1009200000196941BDE8F04DA2E7C1F30A52C1F3D5
:10093000130140F2FF3341F480119A4202DA0020A1
:100940000146704740F233439A42A2F2334202DC3E
:100950005242FFF7FCBEFFF7EBBE000030B5041EAD
:1009600071F1000404DB4FF00044404264EB0101EC
:10097000141E73F1000405DB1C464FF00043524285
:1009800063EB0403994208BF904230BD1CB509488F
:100990000090094801900546009C06E0E06840F0A0
:1009A000010394E8070098471034AC42F6D3FFF7F0
:1009B000EFFB000044A0000864A000080048704756
:1009C000D09900082DE9F05F82460078002715468F
:1009D0008B460AF10104B946302801D09DB113E0DD
:1009E00014F8010B0127782803D0582801D045B10D
:1009F0000AE00DB1102D07D10027102514F8010BC6
:100A000002E0082500E00A250026B0460EE005FBBE
:100A1000080005FB06F1012701EB10461FFA80F8DC
:100A2000B6F5803F00D3B94614F8010B294600F013
:100A300018F80028EBDABBF1000F05D00FB1641EE7
:100A400000E05446CBF80040B9F1000F06D008F0A2
:100A5000EDFA02210160C81EBDE8F09F48EA064099
:100A6000FAE73A2800D2303820F02002412A01D398
:100A7000A2F13700884201D34FF0FF30704730B504
:100A80008C1810F8012B12F00F0301D110F8013B64
:100A9000120906D110F8012B03E010F8015B01F8F0
:100AA000015B5B1EF9D101E001F8013B521EFBD155
:100AB000A142E6D3002030BD40F6C520C0F60000BC
:100AC00005F0F4BAB0B5044677A0214601F0BEFAAD
:100AD00077A120460422FFF710FC002845D076A11C
:100AE00020460722FFF709FC002840D074A12046C9
:100AF0000A22FFF702FC00284DD074A120460A22EA
:100B0000FFF7FBFB002851D073A120460A22FFF714
:100B1000F4FB00284CD073A120460A22FFF7EDFB1E
:100B2000002850D072A120460A22FFF7E6FB0028D9
:100B30004BD072A120460A22FFF7DFFB002857D0D6
:100B400071A120460522FFF7D8FB002800F09D8008
:100B50006FA120460422FFF7D0FB002800F0978009
:100B60006DA0214601F072FA39E0012138E0E01D64
:100B7000FFF7D2FB40F2A032C2F2000240F2702135
:100B80001268C2F20001087010460022022307F02A
:100B9000DBFA052124E004F10A00FFF7BDFB40F277
:100BA0000801C2F200010968087018E0042520E07D
:100BB00004F10A00FFF7B0FB40F20801C2F20001A5
:100BC000096808720BE00C2513E004F10A00FFF736
:100BD000A3FB40F20801C2F2000109680874002179
:100BE00049F63170C0F60000BDE8B04001F02EBA01
:100BF000142504F10A00FFF78FFB40F2080440F2CD
:100C00009C31C2F20004C2F200012268096850510E
:100C1000084621460022022307F096FA49F6317071
:100C2000C0F60000042101F011FA49F61375C0F670
:100C30000005284601F00AFA2068017849F63D705F
:100C4000C0F6000001F002FA2068416849F64870D9
:100C5000C0F6000001F0FAF92068017A34A001F032
:100C6000F5F92068C16835A001F0F0F92068017C31
:100C700035A001F0EBF92068416936A001F0E6F9F2
:100C80002846BDE8B04001F0E1B90221A8E740F2F2
:100C90001050C2F20000006800210222002307F079
:100CA00015FE0B219CE700BF25730D0A0000000014
:100CB00053746F70000000005374617475733D00CD
:100CC0005768616C65446972583D00005768616CF3
:100CD00065506F73583D00005768616C65446972D8
:100CE000593D00005768616C65506F73593D0000B5
:100CF0005768616C65446972523D00005768616CC9
:100D000065506F73523D00005374617274000000AF
:100D10004E65787400000000556E6B6E6F776E2024
:100D2000636F6D6D616E643A2025730D0A000000DB
:100D3000446972593A2025640D0A0000506F7359B6
:100D40003A2025640D0A0000446972523A20256455
:100D50000D0A0000506F73523A2025640D0A0000FE
:100D600080B501F09DF920B102A0BDE8804001F0FE
:100D70006DB980BD524543454956450D0A000000F6
:100D800040F2943540F2742440F29C36C2F20005E1
:100D9000C2F20004C2F20006286821464FF0FF327A
:100DA00007F02AFB306821460022022307F0CCF925
:100DB000F2E72DE9F04F83B049F6B270C0F60000BB
:100DC0009A4691460E4608F0F3F806F0FD0049F603
:100DD000583849F668350128C0F60008C0F6000505
:100DE00040F0C081532001F0E3F8304601F0E8F80C
:100DF000002401274FF4AF7B06200121FA220A23A9
:100E0000CDE900B7029400F081FD062000F08EFDD0
:100E1000522001F0DDF858F826000021CDE9000746
:100E20000520FA220A23029400F070FD052000F04C
:100E30007DFD40F2DC50CDE9000706200121FA22B9
:100E40000A23029400F062FD062000F06FFD55F8C1
:100E500026000021CDE900070720FA220A23029488
:100E600000F054FD5A2001F0A3F806200121FA22D7
:100E70000A23CDE900B7029400F048FD062000F0F7
:100E800055FD462001F0A4F843F29C10CDE900077F
:100E900006200121FA220A23029400F037FD0620E1
:100EA00000F044FD532001F083F806200121FA22CE
:100EB0000A23CDE900B7029400F028FD4FF4C87072
:100EC00006F04EFC072000F031FD55F82900002106
:100ED000CDE900070720FA220A23029400F016FD4C
:100EE000062000F023FDB9F1020F72D1022001F0BB
:100EF00067F8522001F06CF841F26800CDE9000774
:100F000005200021FA220A23029400F0FFFC40F29F
:100F1000DC50CDE9000706200121FA220A230294C1
:100F200000F0F4FC062000F001FD5A2001F040F82A
:100F30004FF4AF7506200121FA220A23CDE90057AC
:100F4000029400F0E3FC062000F0F0FC462001F0E3
:100F50003FF843F29C10CDE9000706200121FA2258
:100F60000A23029400F0D2FC062000F0DFFC53209C
:100F700001F01EF806200121FA220A23CDE90057CC
:100F8000029400F0C3FC4FF4FA7006F0E9FB49F656
:100F90005838C0F6000858F82A000021CDE90007AB
:100FA0000520FA220A23029400F0B0FC062000F08B
:100FB000BDFC504601F004F8522001F009F807206A
:100FC0004FF0070B00F0B2FC49F66830C0F60000A5
:100FD00073E04846A84600F0F3FF522000F0F8FF07
:100FE00049F65830C0F6000050F829000021CDE93C
:100FF00000070520FA220A2302944FF0050B00F0A7
:1010000085FC40F2DC50CDE9000706200121FA22E0
:101010000A23029400F07AFC062000F087FC5A2094
:1010200000F0C6FF4FF4AF7506200121FA220A2313
:10103000CDE90057029400F069FC062000F076FC30
:10104000462000F0C5FF43F29C10CDE900070620C2
:101050000121FA220A23029400F058FC062000F035
:1010600065FC532000F0A4FF06200121FA220A2388
:10107000CDE90057029400F049FC4FF4C87006F027
:101080006FFB072000F052FC58F82A000021CDE940
:1010900000070720FA220A23029400F037FC0620FA
:1010A00000F044FC504600F08BFF522000F090FF0F
:1010B00049F65838C0F60008404650F82A00012783
:1010C0000024CDE9000758460021FA220A230294A1
:1010D00000F01CFC40F2DC50CDE9000706200121A5
:1010E000FA220A23029400F011FC062000F01EFCF4
:1010F0005A2000F05DFF4FF4AF70CDE900070620E5
:101100000121FA220A23029400F000FC062000F0DC
:101110000DFC462000F05CFF43F29C10CDE9000777
:1011200006200121FA220A23029400F0EFFB062098
:1011300000F0FCFB532000F03BFF40F6AC50CDE943
:10114000000706200121FA220A23029400F0DEFBA8
:10115000062000F0EBFB072000F0E8FB49F66835BD
:10116000C0F60005022E1CBF03B0BDE8F08F53206F
:1011700000F01EFF022000F023FF002401264FF4A0
:10118000AF7706200121FA220A23CDE900760294E6
:1011900000F0BCFB062000F0C9FB522000F018FF55
:1011A00040F2DC50CDE9000606200121FA220A2394
:1011B000029400F0ABFB062000F0B8FB5A2000F0D0
:1011C000F7FE06200121FA220A23CDE900760294D7
:1011D00000F09CFB062000F0A9FB462000F0F8FE82
:1011E00043F29C1B06200121FA220A23CDE900B616
:1011F000029400F08BFB062000F098FB532000F0D7
:10120000D7FE06200121FA220A23CDE900760294B6
:1012100000F07CFB4FF4C87006F0A2FA58F82900E1
:101220000021CDE900060520FA220A23029400F0ED
:101230006DFB062000F07AFB484600F0C1FE52200C
:1012400000F0C6FE55F829000021CDE90006072070
:10125000FA220A23029400F059FB40F2DC5000907D
:1012600006200121FA220A2340F2DC590196029459
:1012700000F04CFB062000F059FB5A2000F098FECD
:1012800006200121FA220A23CDE90076029400F01B
:101290003DFB062000F04AFB462000F099FE0620A8
:1012A0000121FA220A23CDE900B6029400F02EFBB8
:1012B000062000F03BFB532000F07AFE06200121BF
:1012C000FA220A23CDE90076029400F01FFB4FF4C6
:1012D000C87006F045FA072000F028FB55F82A00F0
:1012E0000021CDE900060720FA220A23029400F02B
:1012F0000DFB4FF4FA7006F033FA062000F016FBEF
:10130000504600F05DFE522000F062FE58F82A00C0
:101310000021CDE900060520FA220A23029400F0FC
:10132000F5FA06200121FA220A23CDE9009602945B
:1013300000F0ECFA062000F0F9FA5A2000F038FE2E
:1013400006200121FA220A23CDE90076029400F05A
:10135000DDFA062000F0EAFA462000F039FE062009
:101360000121FA220A23CDE900B6029400F0CEFA58
:10137000062000F0DBFA532000F01AFE40F6AC50D5
:10138000CDE9000606200121FA220A23029400F08A
:10139000BDFA062000F0CAFA072003B0BDE8F04FFE
:1013A00000F0C4BA41F2B043C2F20003187041F237
:1013B000B140C2F20000017040F28020C2F2000091
:1013C000006841F2B243C2F2000302211A7006F033
:1013D00041BC41F2E130C0F6000004F0A7BE0000BD
:1013E0002DE9F04F81B0B0F80120B0F80310037878
:1013F00041F2B040C2F200000078012B08BF012882
:1014000006D0102B08BF022877D001B0BDE8F08FBE
:1014100041F2DA50C2F200000078002800F09E800D
:101420000128F2D141F2DC6541F2DE50C2F2000542
:10143000A2F1AF03C2F20000B5F800C041F2D866D5
:1014400041F2DA67038041F2E0501FFA82FEC2F2F5
:101450000006C2F20007A1F16E0BC2F20000BEEB63
:101460000C0441F2DE6A32803980A0F800B048BF37
:101470006442042CC2F2000A00F20881BAF800802B
:101480001FFA81F9B9EB080448BF6442042C00F24A
:10149000FD8041F2DC54C2F200042578022D04D80C
:1014A00005F10105257040F0F98019B283EAE132B7
:1014B000A2EBE13189B23D4634460A2900F2B480FC
:1014C0000FFA8BF18BEAE132A2EBE13189B20A2902
:1014D00000F2AA8040F21050C2F200000068002121
:1014E0000222002307F0F2F940F28020C2F200004D
:1014F0000068022106F054FBC6E041F2D860C2F257
:101500000000028041F2DA60C2F2000001808A3AF3
:1015100041F2DE5013B2C2F20000028082EAE332EE
:10152000A2EBE332A1F16C0041F2E05192B2C2F2BF
:101530000001012A088055D801B280EAE130A0EB11
:10154000E13080B201284DD841F2DC54C2F20004EF
:10155000207802284FD80130207060E041F2D86036
:10156000C2F20000028041F2DA60C2F200000180A3
:10157000A2F1AF0041F2DE5302B2C2F200031880C2
:1015800080EAE230A0EBE23080B241F2E0531E2864
:1015900049F67270A1F16E01C2F20003C0F60000BC
:1015A000198000F283800AB281EAE231A1EBE231D4
:1015B00089B21E297AD840F21050C2F200000068A9
:1015C00000210222002307F081F940F28020C2F2BC
:1015D00000000068022106F0E3FA49F67270C0F6D6
:1015E000000063E041F2DC50C2F200000021017013
:1015F00004F08DF813E040F21050C2F200000068D1
:10160000002102220023002507F060F940F280202B
:10161000C2F200000068022106F0C2FA257049F605
:101620005370C0F6000041E00CEB0E00FFF71EF80F
:101630009FED210B56EC107B3A463346FEF735FF03
:101640009FED1F0B53EC102BFEF788FEFFF71FF8E2
:1016500041F2DE51C2F20001088008EB0900FFF7F9
:1016600005F83A463346FEF720FF9FED170B53EC83
:10167000102BFEF773FEFFF70AF841F2E051C2F2B9
:101680000001088004F043F826462F4641F2DC5062
:1016900032883988C2F200000023037041F2DC6016
:1016A000C2F200000280AAF8001009A001B0BDE853
:1016B000F04F00F0CBBC00BF000000000000E03F96
:1016C0000000000000E065C00000000000805BC07A
:1016D0004150505F4D41495843414D5F50617273D5
:1016E000655F424C4F425F43616C0D0A0000000091
:1016F000B0B541F2D855C2F2000514462A7842B975
:1017000003F0B0FA0120287041F2DA50C2F2000072
:10171000047003F02DFA30B1002164202970BDE877
:10172000B04006F01DB8B0BD7047000000000000DA
:10173000B0B540F27825C2F200052A78002A60D1BF
:101740000C46411E072915D8DFE801F0042D5B3F48
:101750005B5B5B1D9FED380B9FED3B1BB0EE402AA2
:10176000B0EE403AF0EE602AF0EE603A03F0A0FDF1
:10177000204627E0102845D0202842D19FED2E0B8F
:101780009FED2F2B42E09FED2C1B9FED2F0BB0EE1A
:10179000412AB0EE413AF0EE612AF0EE613A03F0F0
:1017A00087FD604220E09FED240B9FED291BB0EEEA
:1017B000402AB0EE403AF0EE602AF0EE603A03F0D4
:1017C00077FD604204F06EFE10E09FED1B1B9FED65
:1017D000200BB0EE412AB0EE413AF0EE612AF0EE75
:1017E000613A03F065FD204604F038FE012808D177
:1017F00001242C7005F0F4FD40F21C50C2F20000F0
:101800000460B0BD9FED0C0B9FED092BB0EE401AAC
:10181000B0EE403AF0EE601AF0EE603A03F048FDA8
:1018200040F23C50C2F200000068A042E0D0E8E77D
:101830000000000000C072C00000000000000000B6
:101840000000000000C072400000000000407F4027
:101850000000000000407FC080B50138052888BF27
:1018600080BDDFE800F0032F15220C33022040F684
:101870009801FFF75DFF042041F2A86133E00820E2
:1018800042F2C421FFF754FF02204FF4616114E0DB
:10189000082041F29411FFF74BFF2020B421FFF7FD
:1018A00047FF012044F274011DE0082041F6A471B5
:1018B000FFF73EFF02204FF4FA51FFF739FF1020E7
:1018C0005A2110E0042042F260210CE0022044F290
:1018D0006821FFF72DFF082042F24861FFF728FF3B
:1018E000022040F2DC51BDE88040FFF721BF80B507
:1018F0000120002100F0F0FD0220002100F0ECFDAD
:1019000003200021BDE8804000F0E6BD10B584B0A2
:10191000DDE906CE089CCDE900CE029400F0ABFDD7
:101920000A2004B0BDE8104005F01ABF04F056BD0F
:1019300080B582B040F2A030C2F200000021006801
:101940008DF807100DF10701002206F055FD012862
:1019500009D19DF8071041F2D660C2F20000017073
:1019600002A000F073FB02B080BD00BF735F75631F
:10197000537461747573203A2025640D0A000000C9
:1019800070B58CB004A82021FEF7A5FC40F2013010
:10199000ADF80C0040F2012041F2D666C0F20320FF
:1019A000C2F200060290307800212928019100F24D
:1019B0000082DFE810F00601BB004801EE00A30042
:1019C000D3006001FE01FE01FE017201FE01FE0175
:1019D000FE01FE01FE01FE01FE01FE01FE01B40159
:1019E0002A002A002A00FE01FE01FE01FE01FE017E
:1019F000FE0181006C000D01FE01FE01FE01FE01F1
:101A0000FE01FE01FE012201D80140F27921C2F25D
:101A100000010978002918BF03301538C4B249F60F
:101A20005950C0F60000214600F010FB02A8015DED
:101A300001200022FFF7B6FC01AD00204FF0FF317E
:101A40002A464FF0FF3307F08DF849F6D560C0F60F
:101A50000000214600F0FAFA00204FF0FF312A463C
:101A60004FF0FF3307F07EF830780321172838BF96
:101A7000411CC8B20328317040F09B8140F28020A5
:101A8000C2F200000068022106F08AF891E149F6EE
:101A9000C050C0F6000000F0D9FA01AA00204FF0B3
:101AA000FF314FF0FF3307F05DF82020307049F62A
:101AB000DF50C0F600007AE149F63660C0F600005B
:101AC00000F0C4FA022002210122FFF76BFC01AAF8
:101AD00000204FF0FF314FF0FF3307F043F840F2A2
:101AE0008020C2F200000068022106F059F81F2091
:101AF000307049F65360C0F6000058E149F62F40B7
:101B0000C0F6000000F0A2FA0420FFF7A5FE01AA2B
:101B100000204FF0FF314FF0FF3307F023F828206B
:101B2000307049F65640C0F6000040E149F6A26028
:101B3000C0F6000000F08AFA0120FFF78DFE01AA2E
:101B400000204FF0FF314FF0FF3307F00BF80A2071
:101B5000307049F6BC60C0F6000028E149F6C34089
:101B6000C0F6000000F072FA0520FFF775FE01AA2A
:101B700000204FF0FF314FF0FF3306F0F3FF40F24B
:101B80007920C2F2000001210170142030709CA065
:101B90000DE149F67C40C0F6000000F057FA032042
:101BA000FFF75AFE01AA00204FF0FF314FF0FF333C
:101BB00006F0D8FF1E20307049F6A040C0F60000A5
:101BC000F5E04FF4FA700CB0BDE8704005F0C8BD08
:101BD00049F61E50C0F6000000F038FA01AA0020B5
:101BE0004FF0FF314FF0FF3306F0BCFF04203070A0
:101BF00049F63C50C0F60000D9E049F6FD50C0F669
:101C0000000000F023FA40F28024C2F200042068B1
:101C1000022106F01FF8022002210122FFF7C2FB79
:101C200001AA00204FF0FF314FF0FF3306F09AFF7A
:101C30002068022105F0B4FF2920307049F61A60AF
:101C4000C0F60000B3E049F6E740C0F6000000F03F
:101C5000FDF90220FFF700FE01AA00204FF0FF313E
:101C60004FF0FF3306F07EFF1420307049F603502A
:101C7000C0F600009BE050A000F0E8F90620FFF756
:101C8000EBFD01AA00204FF0FF314FF0FF3300249D
:101C900006F068FF51A0347089E040F27A25C2F264
:101CA0000005287838B949F67650C0F6000000F0F3
:101CB000CDF90120287004AC204603F023FC002855
:101CC00077D049F6F860C0F60000214607F070F9B9
:101CD000002002A9002200BFD3B2E35C2B2B08BF77
:101CE0000132D3B2E35C0132303B0B5401300628A1
:101CF000F2D104A803F062FC01AA00204FF0FF31EA
:101D00004FF0FF33002406F02DFF0220307049F61B
:101D10008C50C0F6000000F099F92C7049E049F6AB
:101D20006F60C0F6000000F091F940F27920C2F235
:101D3000000000780221002818BF052102A8415C9C
:101D400001200122FFF72EFB01AA00204FF0FF31F6
:101D50004FF0FF3306F006FF1520307049F689601A
:101D6000C0F6000023E049F6A150C0F6000000F0E4
:101D70006DF940F27924C2F20004207802AB60F3DE
:101D8000000360F3410319785A789B78FFF711F844
:101D900001AA00204FF0FF314FF0FF3306F0E2FEC2
:101DA00020780521002818BF062131701DA000F001
:101DB0004DF90CB070BD00BF454E544552205354F0
:101DC000415455535F50726F536563417265615F53
:101DD000325F53746172740D0A0000004558495413
:101DE000205354415455535F50726F536563417291
:101DF00065615F325F53746172740D0A0000000008
:101E000045584954205354415455535F50726F53B1
:101E10006563417265615F325F52617741726561EE
:101E20000D0A000045584954205354415455535FFE
:101E300050726F53656341726561506C6163650DEB
:101E40000A00000082B040F2802441F2B04841F222
:101E5000B14741F2B246C2F200044FF0FF35C2F280
:101E60000008C2F20007C2F2000600BF206802218B
:101E700000220023009505F03BFF8007F6D598F877
:101E8000000039783278FFF733FCEFE740F27C242A
:101E900049F69075C2F20004C0F600050FF2D40AAC
:101EA0000FF2DC0B39A63CA70FF2F8084FF000093F
:101EB00040F29C30C2F20000006821464FF0FF3231
:101EC00006F09AFA284600F0C1F8216822A000F036
:101ED000BDF82068017824A000F0B8F820684168B7
:101EE000504600F0B3F82068017A584600F0AEF88A
:101EF0002068C168304600F0A9F82068017C3846A7
:101F000000F0A4F820684169404600F09FF8284698
:101F100000F09CF82068416839B10078FFF708FCB0
:101F2000206880F80090C0F80490C16839B1007A48
:101F3000FFF7FEFB206880F80890C0F80C9041691C
:101F40000029B5D0007CFFF7F3FB206880F81090E3
:101F5000C0F81490ACE700BF414444523A20253009
:101F600034580D0A00000000446972583A20256474
:101F70000D0A0000506F73583A2025640D0A0000C6
:101F8000446972593A2025640D0A0000506F735954
:101F90003A2025640D0A0000446972523A202564F3
:101FA0000D0A0000506F73523A2025640D0A00009C
:101FB00080B503F02DFB6420BDE8804005F0D0BB68
:101FC00080B503F037FB6420BDE8804005F0C8BB56
:101FD00080B503F045FB6420BDE8804005F0C0BB40
:101FE0007047000082B040F28024C2F200042068F2
:101FF000012105F02FFE4FF0FF3500BF20680121C1
:1020000000220023009505F073FEC007F6D0FEF70E
:10201000A7FE0A2005F0A4FBF0E7FEF7B1BE000022
:10202000322003F047FB18B14FF4967005F098FB8F
:10203000142005F095FBF3E7FFF77AFCFFF7A0FC0F
:10204000FAE7FFF7FFBEFFF721BF000083B0B0B58E
:10205000ADF5037D844687A80DF10B040EC087AB58
:10206000204640F201216246019306F0C5FF40F28E
:102070008C35C2F2000528684FF0FF3104F093FB65
:1020800006A0214606F094FF286804F0E7FB0DF552
:10209000037DBDE8B04003B0704700BF257300006A
:1020A0002DE9F04782B000250DF1070100208DF8E1
:1020B000075004F0A3F900283FD041F2D46640F263
:1020C0001C2741F2A848C2F20006C2F20007C2F281
:1020D00000080DF107044FF001094FF0000A00BF9E
:1020E000307898B138783E281AD89DF807107B7A56
:1020F00078683A78994215D18554D8F80020AAB169
:102100003978904735704FF0010A0FE09DF80700CD
:102110007978884204BF86F800903D7006E000BFE1
:10212000357003E0531C3B70815400BF00202146F2
:1021300004F064F90028D3D101E04FF0000A5FFAFF
:102140008AF002B0BDE8F087FEE740F24050C2F2EC
:10215000000000F029BB000070B582B040F240548E
:1021600040F2AC35C2F20004C2F2000540F2A433E2
:10217000C2F20003204600212A46002600F083FA1E
:102180002868A0F20121032910D80138C1B2C90082
:1021900051FA80F040F69031C2F2000101EB80006C
:1021A00040F2A431C2F2000104F0B0F920684169A4
:1021B00041F0020141614AF21D00C0F6000007F043
:1021C000B3FB49F6DF70C0F60000002106F0F0FE18
:1021D0000FA0002106F0ECFE49F6C270C0F6000028
:1021E000002106F0E5FE0EA0002106F0E1FE13A09E
:1021F000002106F0DDFE17A000210022002300963A
:1022000006F0D6FE1BA002B0BDE8704007F08CBB04
:102210004578744944203D2025640D0A00000000E3
:1022200049444528303D5374642C20343D4578742E
:1022300029203D2025640D0A00000000444C43285D
:1022400044617461204C656E67746829203D2025C7
:10225000640D0A0044617461203D2025303258200D
:1022600025303258202530325820253032580D0A7A
:10227000000000002A2A2A2A2A2A2A2A2A2A2A2A66
:102280002A323030365F43414E2A2A2A2A2A2A2A05
:102290002A2A2A2A2A2A2A2A0D00000040F26850F7
:1022A000C2F2000000F080BA70B582B040F2D035C2
:1022B00040F2C83640F26850C2F20005C2F2000691
:1022C000C2F2000000212A46334600F0DCF928B1B2
:1022D00026A002B0BDE8704007F026BB49F6F970B1
:1022E000C0F6000007F020FB296849F6DF70C0F651
:1022F000000006F05DFE696849F6EC70C0F600006B
:1023000006F056FEE96849F6C270C0F6000006F015
:102310004FFEA9681AA006F04BFE29691FA006F01F
:1023200047FE31787278B378F47822A0009406F0F2
:102330003FFE28A007F0F8FA40F22150C2F2000058
:102340000078696881420ED13078FD280BD1707811
:102350009F2808D1B0786B2805D140F22050C2F2F6
:1023600000000121017002B070BD00BF50617273A6
:1023700065206863616E32206572726F720D0000B5
:1023800049444528303D5374642C20343D457874CD
:1023900029203D2025640D0A00000000444C4328FC
:1023A00044617461204C656E67746829203D202566
:1023B000640D0A0044617461203D202530325820AC
:1023C00025303258202530325820253032580D0A19
:1023D000000000002A2A2A2A2A2A2A2A2A2A2A2A05
:1023E0002A5A44545F43414E2A2A2A2A2A2A2A2A50
:1023F0002A2A2A2A2A2A2A0D0000000040F25060C8
:10240000C2F2000000F06ABC40F69000C2F2000088
:1024100000F064BC40F29050C2F2000000F05EBCDC
:1024200040F6F000C2F2000000F058BC40F2F0505C
:10243000C2F2000000F052BC40F2D070C2F20000C4
:1024400000F04CBC40F63000C2F2000000F046BC88
:1024500040F2B060C2F2000000F040BC40F21070E8
:10246000C2F2000000F03ABC40F27070C2F200000C
:1024700000F034BC7047B0B584B0DDE9084E8DF88B
:102480000000FD208DF80100100A8DF80300200ED9
:102490008DF80600200C8DF80700200ADDF828C012
:1024A0008DF808006B2000258DF802108DF80C00C7
:1024B00068460D218DF80F50ADF80D508DF80420B1
:1024C0008DF805308DF809408DF80AE08DF80BC0C5
:1024D00003F0F0FE04B0B0BD80B584B08DF800000C
:1024E00049F6FE00ADF801006B2000228DF80310C4
:1024F0008DF80400684605210392CDF80920CDF837
:10250000052003F0D7FE04B080BD000072B600BF06
:10251000FEE710B590F820E0D0F800C0AEF1010E53
:10252000BEF1010FDCF808E011D81EF0E05F14D016
:10253000CEF301640120A04018608B689BB1D1F8F4
:1025400004E0C86840EACE0040EA030E0FE000F164
:10255000240301204FF4802121E000F12403012015
:102560004FF400111BE00868CB6843EA405E0CF5AD
:10257000C07000EB0413240140F804E00C69184615
:1025800040F8044F097D012903D1016841F48071AD
:10259000016050680121D8601068986000201A68B6
:1025A0001143196010BD90F82020013A012A30D85B
:1025B000B0B546F20060C4F20000026842F00102C9
:1025C0000260026822F47C520260D1F814E0CC6907
:1025D0004A6A0368012C43EA022202600EF01F02DD
:1025E0004FF0010303FA02F2C3696FEA020C23EA17
:1025F0000203C36113D02CBBC36803EA0C03C3609E
:10260000CB688C8844EA034300EBCE0423640B467A
:1026100011E0416A41F48021416201207047C368A2
:102620001343C3600B688C8844EA034300EBCE0479
:10263000236401F10C038C681B8843EA044300EB1C
:10264000CE04636443688D6943EA0204D1F810E064
:10265000096A002D08BF03EA0C0444604369BEF117
:10266000000F43EA020408BF03EA0C040129446195
:1026700002D1C1691143C161016821F0010101600A
:102680000020B0BD7047B0B590F82040013C012C4F
:102690007AD8D0F800C000290CBFDCF80C40DCF878
:1026A0001040A40776D00CF5D8754FEA011C55F8F8
:1026B0000C4014F00404946055F80CE005EB011C88
:1026C00019BF4FEADE0555604FEA5E551560DCF82C
:1026D0000050E64605F00205D5605EF8044F240779
:1026E0005ABFDEF8004004F00F0408241461DEF83D
:1026F00000400029C4F307249461DEF800504FEA3B
:1027000015455561DCF808201A70026802EB0112C9
:10271000D2F8B8214FEA12225A70026802EB011275
:10272000D2F8B8214FEA12429A70026802EB011205
:10273000D2F8B8214FEA1262DA70026802EB011295
:10274000D2F8BC211A71026802EB0112D2F8BC2146
:102750004FEA12225A71026802EB0112D2F8BC2130
:102760004FEA12429A71026802EB0112D2F8BC21C0
:102770004FEA1262DA7100680CBF00F10C0100F13F
:102780001001002020220AE000F1240101204FF472
:10279000802204E000F1240101204FF400120B68B4
:1027A0001A430A60B0BD00002DE9F04F81B0044625
:1027B00000684669D0F804908768D0F80CB0D0F86B
:1027C00010A0D0F81880F10701D1002549E0F907E1
:1027D0000ED00121BA07816007D478071DD43807CD
:1027E00021D4204600F020FA02E0204600F01DFA35
:1027F0000025F8051CD520684FF48071BA0581606A
:1028000007D478050CD4380510D4204600F00EFA11
:102810000EE0204600F00BFA0AE04FF40065E8E70E
:1028200005F5005504E04FF48055E2E705F58045D5
:10283000F80316D520684FF48031BA03816007D4BD
:10284000780309D438030AD4204600F0F1F908E0EF
:10285000204600F0EEF904E005F5004501E005F53D
:102860008035300707D51BF0100004D0206845F4F0
:1028700000751021C160700708D51BF0080005D055
:1028800020680821C160204600F08CF9B00706D509
:102890002068C068800702D0204600F084F97006E6
:1028A00007D51AF0100004D0206845F48065102187
:1028B0000161B00608D51AF0080005D0206808218B
:1028C0000161204600F080F9F00606D52068006915
:1028D000800702D0204600F078F9B00308D519F03F
:1028E000100005D0206810214160204600F06EF9EC
:1028F000F00308D519F0080005D0206808214160D0
:10290000204600F097F9300440D55FEA49703AD587
:1029100006F4807008EA102028435FEA88710146B7
:1029200048BF41F00201B20558BF01465FEA487056
:102930000D4648BF45F00405700558BF0D463005EB
:1029400021D518F070001ED010380009052815D8C0
:10295000DFE800F0030F090C061245F008050DE052
:1029600045F080050AE045F0200507E045F0400508
:1029700004E045F0100501E045F4807520688169A8
:1029800021F0700181612068042141604DB1606ACD
:1029900040EA05012046616201B0BDE8F04FFFF753
:1029A00071BE01B0BDE8F08FD0B1B0B5044690F86B
:1029B000200010B9204600F06FF82068016841F04F
:1029C0000101016000F02CFC054600BF2068416851
:1029D000C90707D100F024FC401B0B28F6D312E0F6
:1029E00001207047016821F00201016000F018FC2D
:1029F000054600BF2068416889070BD500F010FC30
:102A0000401B0B28F6D3606A052140F40030606259
:102A100001203EE0217E0268012922F0800208BFE9
:102A200080320260617E0268012922F0400208BF04
:102A300040320260A17E0268012922F0200208BF14
:102A400020320260E17E0268012922F0100218BFE4
:102A500010320260217F0268012922F0080208BFBB
:102A600008320260617F0268012922F0040208BF77
:102A700004320260D4E901C2D4E9033561691A4322
:102A80002A431143ACF101021143C161002001212D
:102A9000606284F82010B0BD10B586B0044601A86D
:102AA0001421FDF718FC206846F60001C4F200016D
:102AB00088422ED046F20041C4F2000188426FD114
:102AC00040F28421C2F200010A6843F63000C4F2E9
:102AD0000200531C0B6052B900210091016941F0C2
:102AE00000710161016901F00071009100990021FC
:102AF00000910168142441F00101016000684FF465
:102B0000C05100F00100009000980020C4F20200C3
:102B100032E043F630000021C4F202000091026965
:102B200042F080620261026902F080620092009AC3
:102B300040F28422C2F2000213685C1C14604BB99C
:102B40000091026942F000720261026902F00072B3
:102B50000092009A00910168402441F00201016056
:102B600000684FF4405100F00200009000980020EF
:102B7000C4F2020000F5806001910221029100215F
:102B80000391032104910921059101A900F072FA32
:102B900020460521002200F0FAFB204600F0E7FB6A
:102BA00006B010BD704740F24051C2F200018842A9
:102BB00008BFFFF7D1BA40F26851C2F20001884263
:102BC00018BF7047FFF770BB704770477047000031
:102BD000B0B5044690F8200001281CD1022084F8EA
:102BE00020002068016821F00101016000F018FB5D
:102BF000054600BF20684068C00712D000F010FBF7
:102C0000401B0B28F6D3606A40F400306062052058
:102C100084F8200003E0606A40F400206062012034
:102C2000B0BD00206062B0BD70477047704770470C
:102C3000704770477047000070B5866D044600F01D
:102C4000EFFA94F83510022925D105462068216C49
:102C5000026822F016020260426922F0800242619C
:102C600009B9A16C19B1016821F00801016001687E
:102C700021F00101016000BF20680068C0070ED08C
:102C800000F0CEFA401B0628F6D320206065032012
:102C900084F835000CE080206065012008E0E06DDC
:102CA0003F2101FA00F0B060012084F835000020D7
:102CB000002184F8341070BD90F83510022909D134
:102CC000052180F835100068016821F001010160DC
:102CD000002070478021416501207047F0B581B028
:102CE00004460020009040F21420C2F20000026866
:102CF000D4E9166048F2B51337680821C1F64E339F
:102D000081403942A2FB03250CD0226813685B077F
:102D100008D5136823F004031360B160616D41F0BE
:102D20000101616501218140394208D02268526960
:102D3000120604D5B160616D41F0020161650421A4
:102D40008140394208D022681268920704D5B160E8
:102D5000616D41F00401616510218140394217D055
:102D600020680268120713D5B16002680168520337
:102D700006D4C90506D4016821F00801016001E00C
:102D8000080301D4216C00E0A16C09B120468847FA
:102D9000E16D202000FA01F23A423CD0206803683D
:102DA000DB0638D5B26094F835300268052B1AD1AD
:102DB00022F016020260426922F080024261226C17
:102DC0000AB9A26C1AB1026822F0080202603F2020
:102DD0008840B060012084F83500216D002084F81F
:102DE0003400B9BB3BE0016852030CD4C9050ED4D2
:102DF000016821F010010160012084F835000020F5
:102E000084F8340003E0080301D4616C00E0E16B56
:102E100009B120468847606D08B3606DC00717D0C0
:102E2000052084F835002068A90A026822F0010212
:102E3000026000BF009A01328A42009202D8026802
:102E4000D207F7D1012084F83500002084F834003F
:102E5000E16C21B1204601B0BDE8F040084701B067
:102E6000F0BD00002DE9F041044600F0D9F9C4B1ED
:102E70000546022084F835000020216884F83400DB
:102E8000086820F00100086021680868C0070BD0BE
:102E900000F0C6F9401B0528F6D90325202303209E
:102EA00064E00120BDE8F081086848F23F02CFF2FB
:102EB0001002D4E9013500EA020C04F10C0898E88C
:102EC000C10143EA0C032B431843D4E9072E3043D6
:102ED00038431043626A40EA0E00042A40EA0803BD
:102EE0001CD1206BD4E90A2E40EA0E00184308607A
:102EF0004869BEF1000F20F0030040EA020040F0F4
:102F0000040C11D0B8F5005F35D0B8F1000F42D1F4
:102F1000022A43D0012A38D0002A3EE00B604869DB
:102F200020F0070040EA020C01F0F8004AF6AB225C
:102F30001038CAF6AA22A0FB02231A0949F67833F0
:102F4000C1F814C0C0F600039A5C40F2FF335F285A
:102F50004FF03F0021EA030100FA02F088BF04317C
:102F6000C4E916128860002301250020636584F8F7
:102F70003550BDE8F081032AD6D801254023012031
:102F8000DFE802F0020C0203F0E7AEF1C070B0FA25
:102F900080F0400904E0032A04D3C5D1CEF30060D9
:102FA0000028C1D0012540230120DFE790F834C07C
:102FB000BCF1010F04BF0220704770B54FF0010C47
:102FC00080F834C0D0F858E090F835C0BCF1010F5B
:102FD00037D14FF0020C80F835C04FF0000CC0F82C
:102FE00054C0D0F800C08468056CC06DDCF8006087
:102FF000402C26F48026CCF80060CCF804300B4638
:1030000004BF13460A463F2101FA00F0CCF808300D
:10301000CCF80C20CEF80800DCF8000040F01600D8
:10302000CCF800002DB1DCF8000040F00800CCF82E
:103030000000DCF8000040F00100CCF800000020A7
:1030400070BD002180F83410022070BDB0B5044678
:1030500000F0E6F8054640F24820C2F20000007891
:10306000611C18BF044400BF00F0DAF8401BA04206
:10307000FAD3B0BD2DE9F04F83B000F1200200F18A
:103080003E4741F60045009207F1FF77C4F2020582
:1030900008224FEAB726A84208BF072200254FF0B2
:1030A00000084FF00009072E38BF4FEAB7220192FF
:1030B0000F68012202FA09FE17EA0E0A00F0998051
:1030C000D1F804C003220CF003077E1E02FA08F4B4
:1030D000012E6FEA040B11D88468CE6804EA0B0451
:1030E00006FA08F634438460446824EA0E06CCF3FA
:1030F000001404FA09F42643466003E0032F01D1CB
:1031000003271EE0C6688C6806EA0B0604FA08F47A
:103110002643022FC66014D16FF00302009E02EA1C
:10312000590756F807C005F01C040F220B69A2408E
:103130002CEA0202A3401A43F251D1F804C00CF069
:103140000307026807FA08F302EA0B021A431CF4A9
:10315000403F02604DD0002243F644030292C4F285
:1031600002031A6843F6004442F480421A601A6867
:10317000C4F2010402F480420292029A29F003028E
:103180004FF6084C2244CFF6FF7C52F80C3005F085
:103190000C070F26BE40B343019E06FA07F73B43D8
:1031A00042F80C30A2684B6842EA0A0743F60C4C1E
:1031B000DE0258BF22EA0A07A760C4F2010CDCF85D
:1031C00000209E0242EA0A0758BF22EA0A07CCF80A
:1031D000007062689E0342EA0A0758BF22EA0A07A3
:1031E00067602268DB0342EA0A0758BF22EA0A073F
:1031F000276009F1010908F10208B9F1100F05F182
:1032000004057FF455AF03B0BDE8F08F00690840B6
:1032100018BF01207047002A08BF09048161704768
:1032200048F62040C2F200000068704740F2482093
:1032300048F62041C2F20000C2F2000100780A689C
:1032400010440860704780B543F60040C4F20200A5
:10325000016841F400710160016841F4806101601E
:10326000016841F480710160032000F0BBF80F2079
:1032700000F004F800F05AF8002080BD70B586B068
:10328000002543F640010195C4F202010A68044694
:1032900042F020020A60096801A801F020010191B2
:1032A0000199694600F057F9049E002E18BF0126C7
:1032B00000F070F94DF68361B040C4F21B31A0FB01
:1032C00001014FF0FF3000EB914140F6981041F2C0
:1032D0000042C2F20000C4F2000240F2E733C0E94B
:1032E0000021C0E902530561856100F0BAFB054683
:1032F000C8B940F69810C2F2000000F0F8FB05468D
:1033000088B9372000F033F80F2C0BD8372021462E
:103310000022002500F03BF840F24C20C2F20000F1
:10332000046000E00125284606B070BD82B0002090
:1033300043F640010190C4F202014A6842F480421F
:103340004A604A6802F480420192019A009008683B
:10335000002240F08050086008680F2100F0805083
:10336000009000986FF0010002B000F010B8002843
:103370000CD400F01F01012202FA01F11C2202EA22
:10338000D0004EF20012CEF200028150704710B50C
:103390004EF60C5CCEF2000CDCF80030C3F3022ECB
:1033A0008EF00704042C28BF0424BEF103034FF061
:1033B000FF3E0EFA04F438BF0023A14399400EFAF1
:1033C00003F39A43114300F00F0200F16043090137
:1033D000043A03F564436244002848BF02F10C0339
:1033E000197010BD4EF60C51CEF200010A684FF66E
:1033F000FF031A4060F30A2242F0806040F0FD7043
:1034000008607047002872D02DE9F04143F60008AB
:10341000C4F202080446D8F800040D4600F0070084
:10342000884207D288F80054D8F8000400F007005A
:10343000A84266D12068810717D5410705D5D8F87D
:10344000081041F4E051C8F80810010705D5D8F874
:10345000081041F46041C8F80810D8F80810A268B4
:1034600021F0F0011143C8F80810C00741D1D8F885
:10347000000400F00700A84207D988F80054D8F8E3
:10348000000400F00700A8423BD12068410707D59F
:10349000D8F80810E26821F4E0511143C8F8081088
:1034A000000708D5D8F80800216920F4604040EAF8
:1034B000C100C8F8080000F093F8D8F8081049F6E1
:1034C000E812C1F30311C0F60002515C40F214226D
:1034D00020FA01F140F24C20C2F200000068C2F272
:1034E00000021160FFF7CAFE0020BDE8F081012054
:1034F00070476068811E022906D2D8F80010890141
:1035000008D40120BDE8F08101281FD1D8F80010AF
:103510008903F6D5D8F8081021F003010843C8F84C
:103520000800FFF77DFE064641F28837D8F808000C
:10353000616800F00C00B0EB810F98D0FFF770FECF
:10354000801BB842F2D90320BDE8F081D8F8001002
:103550008907D6D5DEE70F22026043F60802C4F2DF
:103560000202136803F003034360136803F0F003DF
:103570008360136803F4E053C360D2F800C04FF4D3
:10358000E05303EADC030361D2F8F80300F007001C
:103590000860704740F2142043F60801C2F20000B0
:1035A000C4F202010068096849F6F812C1F38221E9
:1035B000C0F60002515CC840704740F2142043F648
:1035C0000801C2F20000C4F202010068096849F66D
:1035D000F812C1F34231C0F60002515CC840704796
:1035E00010B543F60404C4F20204606800F00C0154
:1035F00042F200400829C0F2F40007D0042918BFA5
:1036000010BD41F20020C0F27A0010BD216801F027
:103610003F02216823684902C3F3881105D4A1FB46
:1036200000010023FCF7DCFD06E041F20020C0F2BF
:103630007A004843B0FBF2F021680222C1F3014155
:1036400002EB4101B0FBF1F010BD000000286BD08F
:103650002DE9F04182B00446007843F60006C00729
:10366000C4F202060CD0B06800F00C00042840F050
:1036700098803068800303D56068002800F0AB8034
:10368000207880071BD5B06810F00C0F09D0B06807
:1036900000F00C00082840F0A0807068400200F1A3
:1036A0009C803068800703D5E068012840F0938053
:1036B0003068216920F0F80040EAC10030602078CD
:1036C000000733D42078400745D4A56955B3B068C6
:1036D00000F00C00082840F0B980012D7BD0706804
:1036E000E16900F480028A4275D1216A00F03F024C
:1036F0008A4270D147F6C071626A0140B1EB821F05
:1037000069D1A16A4FF6FF73C903994300F44032AF
:10371000A1F580318A425ED1E16A00F07060B0EBC1
:10372000016F58D10020F3E0012070476069002844
:1037300078D00020C4F247200121C0F8801EFFF796
:103740006FFD0546706F8007BCD4FFF769FD401B15
:103750000228F7D9DBE0306C5FEAC0080AD4002009
:103760000190306C40F080503064306C00F080503C
:103770000190019847F20007C4F200073868C005BD
:1037800042D4386840F480703860FFF749FD054640
:103790003868C00538D4FFF743FD401B0228F7D92D
:1037A000B5E0B06800F00C00082803D17068400252
:1037B0003FF55FAF61683068B1F5803F07D0B1F584
:1037C000A02F40F08E8040F480203060306840F4BC
:1037D000803030608EE001209AE0E068002840F2FE
:1037E0000000C4F2472053D001210160FFF718FD0B
:1037F000054600BF306880073FF55AAFFFF710FD60
:10380000401B0228F6D982E0A168306F012905D05B
:1038100005294FD140F004003067306F40F00100BF
:10382000306750E00020C4F247200021C0F8801E1D
:10383000FFF7F6FC054600BF706F80077FF542AFCB
:10384000FFF7EEFC401B0228F6D960E00027C4F227
:10385000472700203866FFF7E3FC022D05460BD111
:103860003068800157D5FFF7DBFC401B02284FF082
:103870000300F5D94CE000BF306880017FF552AFFE
:10388000FFF7CEFC401B02284FF00300F4D93FE0C5
:1038900000210160FFF7C4FC054600BF30688007C7
:1038A0007FF50DAFFFF7BCFC401B02284FF0030073
:1038B000F4D92DE020F001003067306F002920F0AE
:1038C0000400306748D0FFF7ABFC054641F288376B
:1038D000306F800751D4FFF7A3FC401BB842F7D9E3
:1038E00015E020F4803030603068002920F480201A
:1038F00030604BD0FFF794FC054600BF3068800372
:103900003FF5BEAEFFF78CFC401B6428F6D90320C0
:1039100002B0BDE8F08104F11C052FCD084340EA58
:103920008210D9034FF6FF729143A1F5803140EA2E
:1039300005600843706001203866FFF771FC04469B
:10394000306880013FF5EEAEFFF76AFC001B0228ED
:103950004FF00300F4D9DBE7FFF762FC054641F2C4
:10396000883700BF306F800707D5FFF759FC401B31
:10397000B8424FF00300F5D9CAE7B8F1000F3FF5A0
:10398000A4AE306C20F0805030649EE6FFF748FC17
:10399000054600BF306880037FF572AEFFF740FC3C
:1039A000401B64284FF00300F4D9B1E7704770471B
:1039B00090F83C20012A4FF0020250D010B580F858
:1039C0003D200268D2F804E0D2F808C00C682EF05E
:1039D0007003234341F2FF74C4F20004A242536017
:1039E0000BDC40F2FF73C4F200039A4213DCB2F125
:1039F000804F27D040F2004315E040F2FF33C4F27D
:103A000001039A4212DC41F60003C4F200039A4219
:103A100018D0002312E040F60003C4F200039A42DB
:103A200010D040F60043C4F2000309E044F2000362
:103A3000C4F201039A4205D040F20043C4F20103EC
:103A40009A4204D149682CF0800319439160012106
:103A5000002280F83D1080F83C20BDE81040104660
:103A6000704740B310B5044690F83D0028B90020D7
:103A700084F83C00204600F020F8022084F83D0045
:103A80002068211D01F0EEFE012084F8460084F834
:103A90003E0084F83F0084F8400084F8410084F838
:103AA000420084F8430084F8440084F8450084F818
:103AB0003D00002010BD01207047006840F6000165
:103AC000C4F20001884218BF704781B00020009006
:103AD00043F64000C4F20200016841F004010160B5
:103AE000006800F004000090009801B0704790F862
:103AF0003D1001291CBF01207047022180F83D10B4
:103B0000006841F2FF72C168C4F20002904241F0C5
:103B10000101C1600BDC40F2FF71C4F20001884278
:103B200013DCB0F1804F27D040F2004115E040F2A5
:103B3000FF31C4F20101884212DC41F60001C4F2F7
:103B40000001884218D0002112E040F60001C4F2C2
:103B50000001884210D040F60041C4F2000109E0A3
:103B600044F20001C4F20101884205D040F2004154
:103B7000C4F20101884204D1816801F007010629DD
:103B800003D0016841F0010101600020704790F806
:103B90003C20012A4FF002026BD080B580F83D2016
:103BA000D0F800C04FF67772DCF8083023EA020242
:103BB000CCF808200B684F2B28DC1F2B44DD202B72
:103BC00045D0302B43D0402B40F0AC80D1F804E0FE
:103BD000C968DCF82030DCF8202022F00102CCF8A3
:103BE0002020DCF8182022F0F00242EA011123F034
:103BF0000A0242EA0E02CCF81810CCF82020DCF8B9
:103C0000081041F0470121F0300127E06F2B32DD31
:103C1000B3F5005F73D0B3F5805F21D0702B40F017
:103C20008180D1E901E3C968DCF8082043EA0E038A
:103C300022F47F4243EA01211143CCF80810DCF85A
:103C4000081041F0770109E00BB1102B6AD1DCF8C4
:103C5000081021F07001194341F00701CCF8081059
:103C60000022012180F83D10002180F83C10BDE8C1
:103C7000804010467047502B21D0602B52D1D1F894
:103C800004E0C968DCF82030DCF8202022F01002C3
:103C9000CCF82020DCF8182022F4704242EA0131EE
:103CA00023F0A00242EA0E12CCF81810CCF8202023
:103CB000DCF8081041F0670121F01001CEE7D1F8DF
:103CC00004E0C968DCF82030DCF8202022F0010292
:103CD000CCF82020DCF8182022F0F00242EA011192
:103CE00023F00A0242EA0E02CCF81810CCF8202089
:103CF000DCF8081041F0570121F02001AEE7D1E9CE
:103D000001E3C968DCF8082043EA0E0322F47F428D
:103D100043EA01211143CCF80810DCF8081041F403
:103D200080419BE701229CE7704770B5044600681C
:103D3000C5680669B10716D515F0020113D06FF0FA
:103D400002010161012121778069800703D02046AB
:103D5000FFF7EAFF05E0204600F0B5F8204600F046
:103D60002CF900202077700718D515F0040015D025
:103D700020686FF00401016102212177806910F44D
:103D8000407F03D02046FFF7CFFF05E0204600F03C
:103D90009AF8204600F011F900202077300717D557
:103DA00015F0080014D020686FF0080101610421AB
:103DB0002177C069800703D02046FFF7B5FF05E0F3
:103DC000204600F080F8204600F0F7F80020207729
:103DD000F00618D515F0100015D020686FF010010E
:103DE000016108212177C06910F4407F03D020468B
:103DF000FFF79AFF05E0204600F065F8204600F046
:103E0000DCF800202077F00718BF15F0010006D07D
:103E100020686FF001010161204600F04EF9300684
:103E200009D515F0800006D020686FF0800101618F
:103E30002046FFF7BBFD700609D515F0400006D0FF
:103E400020686FF040010161204600F040F9B006A3
:103E500058BF70BD15F0200008D021686FF0200217
:103E600020460A61BDE87040FFF7A1BD70BDB0B546
:103E700086B0044640F6000501A81421C4F20005EE
:103E8000FCF729FA2068A8421BD1002043F6300134
:103E90000090C4F202010A6842F008020A60096850
:103EA00001F00801009100994FF470410191022145
:103EB000CDE90210CDE9040105F5013001A9FFF7B4
:103EC000D9F806B0B0BD7047B0B5044690F83C00D4
:103ED000012804BF0220B0BD0D464FEAB201012007
:103EE000032984F83C0037D8DFE801F002220A1ADF
:103EF0002068294601F04CFD206850F8181F06E0A4
:103F00002068294601F0A9FD206850F81C1F41F0E7
:103F100008010160016821F004010160296917E0CE
:103F20002068294601F0CCFD206850F81C1F06E0EF
:103F30002068294601F05DFD206850F8181F41F403
:103F400000610160016821F4806101602969090252
:103F50000268114301600020002184F83C10B0BDCC
:103F600040B310B5044690F83D0028B9002084F80D
:103F70003C00204600F020F8022084F83D00206834
:103F8000211D01F06FFC012084F8460084F83E00FA
:103F900084F83F0084F8400084F8410084F842002F
:103FA00084F8430084F8440084F8450084F83D0018
:103FB000002010BD0120704770477047A1B104294F
:103FC00004D0082914BF4122402200E03F22825C35
:103FD000012A11D10222082910D0042914BF80F827
:103FE000412080F83F200BE090F83E20012A03D1C9
:103FF000022280F83E2003E00120704780F8402034
:10400000006801F01F010122036A02FA01F123EAAC
:1040100001020262026A114341F2FF72C4F200021D
:10402000904201620BDC40F2FF71C4F20001884251
:1040300013DCB0F1804F35D040F2004115E040F282
:10404000FF31C4F20101884214DC41F60001C4F2E0
:104050000001884226D0002114E040F60001C4F29D
:10406000000188421ED040F60041C4F2000188429F
:1040700018D01CE044F20001C4F20101884211D0C2
:1040800040F20041C4F20101884210D1416C40F27B
:10409000004340F48062C4F2010341F400419A42BB
:1040A000416404D1816801F00701062903D0016849
:1040B00041F00101016000207047006841F20041B9
:1040C000C4F20001884218BF7047FFF7AFB87047CD
:1040D00070B582B0044690F84200202820D14FF0FD
:1040E0000105F1B1EAB1002620462563666301F0BF
:1040F000B9FE206B012814D1019620680168019156
:1041000040680190019800BF206850E8030F2168C3
:1041100040F0100041E80302002AF5D1002500E03C
:104120000225284602B070BD10B5044640F6E010E6
:10413000C2F2000084421BD040F62820C2F20000E8
:1041400084421AD040F67020C2F20000844219D096
:1041500040F6B820C2F20000844218D040F6003089
:10416000C2F20000844217D0FEF7D0F9002017E019
:1041700041F2E450C2F2000012E041F2F450C2F207
:1041800000000DE041F20460C2F2000008E041F2DC
:104190001460C2F2000003E041F22460C2F20000A9
:1041A000E16B226809684968C1810189C389C91A1C
:1041B00044F20043C4F200039A42418118BF10BD8B
:1041C00041F2F454C2F200046068007803F0C3FCCA
:1041D0006168228940F62820C2F20000BDE8104044
:1041E000FFF776BF70470000B0B582B004460068A4
:1041F0000168C368426901F02F05202D03F02005F6
:1042000006D12DB1204602B0BDE8B04001F05ABD44
:104210005FEA017C1EBF02F0010E03F4907212EB04
:104220000E026ED1226BCD0643D5012A41D113F087
:1042300010023ED000210191016801914168019175
:1042400001994069400600F1CB80A08DE18DE28D9F
:10425000002A00F01581884200F01281401A00BF48
:10426000216851E8031F226821F4907142E803138A
:10427000002BF5D1216851E8051F226821F00101CA
:1042800042E80513002BF5D1202184F842100021CB
:10429000216300BF216851E8031F226821F010014B
:1042A00042E80313002BF5D1022281B2204662635B
:1042B000DCE00A0640F1828013F0800200F07E808C
:1042C00094F84110212940F0DB80A168B1F5805FAE
:1042D00003D12169002900F0DB80216A4A1C226297
:1042E00009784160E18C01390A04E18440F0C8801A
:1042F000C16821F08001C160C16841F04001C16026
:10430000BEE0CA0718BF13F4807203D0626C42F09B
:10431000010262644A0706D5BEF1000F03D0626C49
:1043200042F0020262648A0706D5BEF1000F03D094
:10433000626C42F004026264BCF1000F06D55EEAD2
:10434000050203D0626C42F008026264626C002ACB
:1043500000F09680890604D51DB1204601F0B2FC1C
:1043600020684069616C00F0400001F008014018CD
:1043700000F08180204601F07DFC20684069400605
:1043800040F18080206850E8050F216820F040004F
:1043900041E80502002AF5D1E06B002872D045F60D
:1043A0002731C0F600010165FEF786FC002867D0C2
:1043B000E06B016D02B0BDE8B040084749065FD52B
:1043C00013F040015CD0C16821F04001C1602021A0
:1043D000204684F8411002B0BDE8B04000F0C4BBF4
:1043E000E06B016849688AB2002A49D0A38D9A42DD
:1043F00046D2E185C069B0F5807F30D0206850E8B2
:10440000030F216820F4807041E80302002AF5D1EF
:10441000206850E8050F216820F0010041E80502FE
:10442000002AF5D1206850E8050F216820F04000EF
:1044300041E80502002AF5D1202084F8420000203E
:10444000206300BF206850E8030F216820F01000AF
:1044500041E80302002AF5D1E06BFEF7EDFB0220F4
:104460006063A08DE18D401A81B2204602B0BDE8A4
:10447000B040FFF759BE2046FFF7B4FE002060644D
:1044800002B0B0BD204602B0BDE8B040FFF7AABE02
:10449000216A31F8022B6FF35F224260216221E72B
:1044A00058B310B5044690F8410028B9002084F8AC
:1044B0004000204600F023F8242084F841002068C2
:1044C000C16821F40051C160204601F05CFC206805
:1044D000016921F490410161416921F02A014161A2
:1044E000C16841F40051C16000202021606484F85B
:1044F000411084F84210606310BD012070472DE91F
:10450000F04F87B0044602A81421FBF7E4FE2068B0
:1045100044F6FF71C4F20001884200F3818044F246
:104520000041C4F20001884200F0BE8044F6000160
:10453000C4F20001884200F0A58144F60041C4F2B3
:104540000001884240F07882002643F63000019650
:10455000C4F20200016946F2100841F40021016131
:104560000169C4F2020801F4002101910199019648
:10457000016841F004010160006802A900F0040034
:10458000019001984FF4406002900220CDE90306AB
:1045900003200590082006900020C4F2020000F5D8
:1045A0000060FEF767FD40F2F05508F16000C2F2CE
:1045B00000054FF000674021C5E9000705F108003C
:1045C0004FF4806980E8420205F114001421FBF7E2
:1045D00082FE2846FEF746FC08B1FDF797FFA5636B
:1045E000AC6340F2905508F13000C2F200054FF480
:1045F0008071C5E900072846C5E90266C5E9049649
:10460000C5E90661C5E90866FEF72CFC08B1FDF7AF
:104610007DFFE563AC63342000210022342406E2F0
:1046200045F20001C4F20001884200F0A68041F288
:104630000001C4F20101884200F0908141F2004182
:10464000C4F20101884240F0F781002043F63001B6
:104650000190C4F202014A6942F020024A614A69AB
:1046600002F020020192019A01900A6842F00402CD
:104670000A60096801F0040101910199C0210291C9
:104680000221CDE9031003200590082006900020A8
:10469000C4F2020000F5006002A9FEF7EBFC47201F
:1046A000052100224724C2E1002643F6300001968E
:1046B000C4F20200016946F2100841F400310161C0
:1046C0000169C4F2020801F40031019101990196D7
:1046D000016841F001010160006802A900F00100D9
:1046E000019001980C2002900220CDE903060320DE
:1046F0000590072006900020C4F20200FEF7BAFCE5
:1047000040F6300508F19000C2F200054FF0006756
:104710004021C5E9000705F108004FF4806980E8F1
:10472000420205F114001421FBF7D5FD2846FEF7DF
:1047300099FB08B1FDF7EAFEA563AC6340F2D075C2
:1047400008F17800C2F200054FF48071C5E9000756
:104750002846C5E90266C5E90496C5E90661C5E9CA
:104760000866FEF77FFB08B1FDF7D0FEE563AC639A
:10477000262000210022262459E1002643F630009D
:104780000196C4F202000169002741F48011016121
:104790000169C4F2020701F48011019101990196A7
:1047A000016802AD41F004010160016846F21008A1
:1047B00001F0040101910199019601684FF002098D
:1047C00041F00801016000684FF0030A00F00800A2
:1047D000019001984FF4805002904FF0080B07F5BC
:1047E00000602946C4F20208CDE90396CDF814A072
:1047F000CDF818B0FEF73EFC0420CDE9020904A86C
:1048000080E8400C07F540602946FEF733FC40F293
:10481000B06508F1A800C2F200054FF00067402122
:10482000C5E9000705F108004FF4806980E84202FD
:1048300005F114001421FBF74EFD2846FEF712FB8C
:1048400008B1FDF763FEA563AC6340F25065C2F2A8
:1048500000054FF48070C5E906602846C5E9008769
:10486000C5E90266C5E90496C5E90866FEF7FAFAE5
:1048700008B1FDF74BFEE563AC6335200021002253
:104880003524D4E0002643F630000196C4F202003D
:10489000016946F2100841F4802101610169C4F206
:1048A000020801F48021019101990196016841F00B
:1048B00002010160006802A900F002000190019865
:1048C0004FF4406002900220CDE9030603200590DA
:1048D000072006900020C4F2020000F58060FEF779
:1048E000C9FB40F6F00508F14800C2F200054FF0A0
:1048F00000674021C5E9000705F108004FF4806911
:1049000080E8420205F114001421FBF7E4FC28467C
:10491000FEF7A8FA08B1FDF7F9FDA563AC6340F610
:10492000900508F11800C2F200054FF48071C5E946
:1049300000072846C5E90266C5E90496C5E906618F
:10494000C5E90866FEF78EFA08B1FDF7DFFDE563FD
:10495000AC63272000210022272468E0002643F6CC
:1049600030000196C4F20200416946F2100841F09D
:10497000100141614169C4F2020801F01001019186
:1049800001990196016841F001010160006802A9E6
:1049900000F00100019001984FF4C06002900220E5
:1049A000CDE9030603200590072006900020C4F2FD
:1049B0000200FEF75FFB40F2707508F59560C2F2E9
:1049C00000054FF000674021C5E9000705F1080028
:1049D0004FF4806980E8420205F114001421FBF7CE
:1049E0007AFC2846FEF73EFA08B1FDF78FFDA56375
:1049F000AC6340F2107508F58660C2F200054FF412
:104A00008071C5E900072846C5E90266C5E9049634
:104A1000C5E90661C5E90866FEF724FA08B1FDF7A5
:104A200075FDE563AC632520052100222524FEF7F2
:104A3000AEFC2046FEF79BFC07B0BDE8F08F704748
:104A4000704700002DE9F041044690F8410020280D
:104A50001CBF0220BDE8F0810D464FF00100E1B31C
:104A60001746D2B3002060642120984684F84100A4
:104A7000FEF7D6FBA784E784A1680746B1F5805FFF
:104A800001D1206988B32E46002500BFE08CC0B15B
:104A9000204680213A46434601F030FAF8B92EB15B
:104AA00016F8010B2168486007E000BF35F8020BDB
:104AB00021686FF35F2048600026E08C0138E084B5
:104AC000E4E7204640213A46434601F017FA202108
:104AD00084F84110002818BF0320BDE8F081202091
:104AE00084F841000320BDE8F0810026CEE70000F5
:104AF000B0B5044690F8410020281CBF0220B0BD8C
:104B00004FF0010079B313466AB34FF0000C212037
:104B10002162A384E384C4F844C084F84100A06BFC
:104B200045F6314E45F66F452268C0F6000EC0F6D8
:104B30000005C0E90FE545F63535C0F6000504323D
:104B4000C0E9135CFEF732FA20686FF040010160A3
:104B5000206850E8050F216840F0800041E8050218
:104B6000002AF5D10020B0BD70477047FEE7000075
:104B70002DE9F04381B04FF000090DF10301012050
:104B80008DF8039001F03AFC002865D041F2D5661B
:104B900040F2282741F2AC48C2F200060DF10304AE
:104BA000C2F20007C2F20008002500BF31780020E1
:104BB000072949D8DFE801F0042B480B4830401B97
:104BC0009DF80300797888423FD101203CE087F8C6
:104BD00000907878F9789DF80320084410443872E2
:104BE000786839784B1C3B70425405202CE09DF8C6
:104BF0000300797A88424FF0000025D1D8F80020D0
:104C000012B37868F9789047012500201CE09DF8E0
:104C10000300F870032017E09DF8030079683A78E4
:104C2000531C3B708854397A084438723878F978C4
:104C300088420AD3072007E09DF80300397A8842AA
:104C40004FF0000008BF072030700120214601F01E
:104C5000D5FB0028AAD100E00025E8B201B0BDE8EC
:104C6000F083000010B50246481E44F24274C0B200
:104C7000C4F25214C300042838BF24FA03F140F2EE
:104C80008C24C2F20004CBB209A1204604F0A0F9A2
:104C90002046FBF72BFB82B2B2F5006F28BF4FF422
:104CA000006201202146BDE8104001F0C9BB00BFF1
:104CB0006D6F64653D2564256300000080B540F29A
:104CC000405046F20041C2F20000C4F2000110223E
:104CD000002380E80E0000F10C014FF4803C4FF4FB
:104CE000001E81E8085083618383FDF75DFE18B1E3
:104CF000BDE88040FDF70ABC80BD80B540F2685039
:104D000046F60001C2F20000C4F200010C220023AA
:104D100080E80E0000F10C014FF4003C4FF4001E3F
:104D200081E808504FF480710183C0F81A30FDF714
:104D30003BFE18B1BDE88040FDF7E8BB80BD80B503
:104D400082B0002043F630010190C4F202010A68EB
:104D500042F400120A600A6802F400120192019AF9
:104D600000900868002240F4800008600868002174
:104D700000F48000009000980B20FEF708FB0B2049
:104D8000FEF7F5FA0C2000210022FEF700FB0C20B4
:104D9000FEF7EDFA0D2000210022FEF7F8FA0D20B3
:104DA000FEF7E5FA0E2000210022FEF7F0FA0E20B1
:104DB000FEF7DDFA0F2000210022FEF7E8FA0F20AF
:104DC000FEF7D5FA102005210022FEF7E0FA1020A8
:104DD000FEF7CDFA112005210022FEF7D8FA1120A6
:104DE000FEF7C5FA2F2005210022FEF7D0FA2F206A
:104DF000FEF7BDFA3A2005210022FEF7C8FA3A2054
:104E0000FEF7B5FA462005210022FEF7C0FA46203B
:104E100002B0BDE88040FEF7AABA80B549F610207E
:104E2000C0F6000001F0E2FC40F28C31C2F2000159
:104E300049F620220860C0F600020120042101F09A
:104E40007BFC40F29431C2F2000149F65022086026
:104E5000C0F600020120042101F06EFC40F29C31FA
:104E6000C2F2000149F638220860C0F600020120B3
:104E7000042101F061FC40F29831C2F2000149F6D0
:104E800068220860C0F600020120012101F054FCF4
:104E900040F2A031C2F20001086042F2390049F646
:104EA000EC22C0F60000C0F60002002101F0F3FC85
:104EB00040F21051C2F20001086042F2210049F6AE
:104EC000C822C0F60000C0F60002002101F0E3FC99
:104ED00040F20C51C2F20001086042F2430049F670
:104EE0001032C0F60000C0F60002002101F0D3FC31
:104EF00040F21451C2F20001086042F21B0049F670
:104F0000A422C0F60000C0F60002002101F0C3FC9C
:104F100040F20851C2F20001086041F6E57049F61E
:104F20008022C0F60000C0F60002002101F0B3FCB0
:104F300040F20451C2F20001086042F2470049F613
:104F40003432C0F60000C0F60002002101F0A3FCDC
:104F500040F21851C2F20001086049F60020C0F684
:104F6000000001F0A7FB40F28021C2F200010860BE
:104F700080BD2DE9F04786B00DF1040840461421AC
:104F8000FBF7A9F9002743F630000097C4F20200AE
:104F90000168002541F0040101600168C4F20205C6
:104FA00001F00401009100990097016805F5006681
:104FB00041F0800101600168012201F0800100914F
:104FC0000099009701684FF4005941F00101016018
:104FD0000168012401F00101009100990097016826
:104FE00041F002010160016801F0020100910099A5
:104FF0000097016841F00801016000684FF400511A
:1050000000F00800009000983046FEF704F92846AA
:10501000132100224FF0130AFEF7FDF830464146F7
:10502000CDE90194CDE90377FEF724F828464146FF
:10503000CDE901A4CDE90377FEF71CF84FF4004059
:10504000CDE90107284641460394FEF713F806B060
:10505000BDE8F08710B58EB0002401A81C210D9486
:10506000CDE90B44CDE90844FBF735F940F6501083
:1050700040F60001C2F20000C4F2000142F20F73D8
:10508000A72280E81600C0E903348461FEF7E9FC3A
:1050900008B1FDF73BFA4FF480500A9040F65010EB
:1050A000C2F200000AA9FEF772FD08B1FDF72EFA60
:1050B00040F65010C2F20000FEF752FF08B1FDF7B3
:1050C00025FA40F650100024C2F2000008A9CDE9EC
:1050D0000844FEF76DFC08B1FDF718FA6020CDE931
:1050E000010440F65010C2F2000001A9002203940E
:1050F0000594FEF7E9FE08B1FDF708FA40F65010F6
:10510000C2F2000001A90422FEF7DEFE08B1FDF79D
:10511000FDF940F65010C2F2000001A90822FEF786
:10512000D3FE08B1FDF7F2F940F65010C2F20000CC
:1051300001A90C22FEF7C8FE08B1FDF7E7F940F619
:105140005010C2F20000FEF792FE0EB010BD80B506
:1051500040F6B82044F60041C2F20000C4F200015B
:1051600000234FF00C0C4FF4E13280E80E00C0E950
:105170000333C0E905C3C361FFF792F918B1BDE875
:105180008040FDF7C3B980BD80B540F6003045F2E0
:105190000001C2F20000C4F2000100234FF00C0C29
:1051A0004FF4E13280E80E00C0E90333C0E905C3E3
:1051B000C361FFF775F918B1BDE88040FDF7A6B9E6
:1051C00080BD80B540F6E01041F20001C2F200005F
:1051D000C4F2010100234FF00C0C4FF4E13280E8DF
:1051E0000E00C0E90333C0E905C3C361FFF758F9F6
:1051F00018B1BDE88040FDF789B980BD80B540F6A3
:10520000282044F20041C2F20000C4F20001002351
:105210004FF00C0C4FF4E13280E80E00C0E903338C
:10522000C0E905C3C361FFF73BF918B1BDE8804091
:10523000FDF76CB980BD80B540F6702044F60001E2
:10524000C2F20000C4F2000100234FF00C0C4FF436
:10525000E13280E80E00C0E90333C0E905C3C36151
:10526000FFF71EF918B1BDE88040FDF74FB980BDCA
:1052700080B540F6483041F20041C2F20000C4F26D
:10528000010100234FF00C0C4FF4E13280E80E00D6
:10529000C0E90333C0E905C3C361FFF701F918B1E1
:1052A000BDE88040FDF732B980BD0000FEE7000098
:1052B0002DE9F04F81B02DED068B8AB0B0EE40AAFB
:1052C000F0EE60AA9FED6A0BB0EE438AB0EE429A10
:1052D00051EC110B53EC102BF0EE638AF0EE629A56
:1052E00007900991CDE90423FBF7DFF89FED620BEE
:1052F000044656EC107B0D4651EC1A0B3A463346E9
:1053000008900691FBF7D1F822462B46FBF726F8CA
:10531000044640F21820C2F2000000680D46FBF778
:10532000A5F953EC192BFBF7C0F822462B46824611
:1053300002908B460191FBF711F89FED510B53EC56
:10534000109B4A460393CDF80090FBF720F9FBF73A
:10535000BDF949F21031C2F20001086007980999BD
:105360003A463346FBF7A1F89FED470B069C0646ED
:1053700058EC105B08980F4621462A464346FBF737
:1053800094F832463B46FAF7E9FF02460B46504690
:105390005946FAF7E3FF4A46DDF80C904B46FBF717
:1053A000F6F8FBF793F949F21031C2F20001DDF88B
:1053B0001CB04860099958462A464346FBF775F8E1
:1053C0009FED330B06465AEC105B08980F462146BA
:1053D0002A465346FBF769F832463B46FAF7BEFFCA
:1053E000029E019F02460B4630463946FAF7B6FF49
:1053F000DDF800804B464246FBF7C9F8FBF766F93B
:1054000049F21031C2F200018860099958462A46D3
:105410005346FBF74AF804460D4608980699DDE91D
:105420000423FBF742F822462B46FAF797FF024681
:105430000B4630463946FAF791FF42464B46FBF79A
:10544000A6F8FBF743F949F21031C2F20001C86037
:1054500051EC180BFBF71BF949F22C41C2F2000189
:1054600008600AB0BDEC068B01B0BDE8F08F00BF4C
:105470000000000054D6D4BF000000000505F6BFB0
:10548000CD3B7F669EA0F63F0000000054D6D43F7F
:10549000000000000505F63FFEE7000000000000E8
:1054A000EFF30980BFF36F8F154B1A681EF0100FD2
:1054B00008BF20ED108A20E9F04F10602DE90900A7
:1054C0004FF0500080F31188BFF34F8FBFF36F8F01
:1054D00002F0F2FA4FF0000080F31188BDE80900F5
:1054E00019680868B0E8F04F1EF0100F08BFB0EC64
:1054F000108A80F30988BFF36F8F704700BF00BF29
:10550000340E00202DE9F04782B040F29034C2F210
:1055100000048046207800218DF80710A0B940F2E1
:105520000C01C2F200010420102200F089FFC82003
:10553000FDF78CFD40F20C11C2F2000104200E2296
:1055400000F07EFF012020700DF10701042000F023
:1055500055FF002468B340F234270DF107054FF0E2
:10556000010940F2C11AC2F2000700BF9DF807000E
:10557000A0F12B01082916D809FA01F111EA0A0F46
:1055800011D07E6839784A1C3A70705438780728F0
:1055900009D33A7840463146FAF784FE39783046E6
:1055A000FAF799FE01240420294600F027FF00287D
:1055B000DCD1E0B202B0BDE8F087000010B540F2E7
:1055C000EC34C2F2000402460EA1204603F000FDB6
:1055D0002046FAF78BFE82B203202146B2F5006F17
:1055E00028BF4FF4006200F02BFF1420FDF72EFDC2
:1055F00040F20C21C2F2000103200322BDE810405A
:1056000000F01EBF74302E7478743D222573220082
:105610005A2805D0532818BF704740F2B63001E031
:105620004FF4207040F65011C2F20001096848633F
:10563000704700000138C0B2022888BF704705A13A
:1056400051F8200040F65011C2F200010968C86309
:10565000704700BF5E0100000C030000E204000080
:10566000462805D0522818BF70474FF4207001E03B
:105670004FF4916040F65011C2F20001096888634E
:105680007047000000000000000000000000000063
:10569000074B19680868B0E8F04F80F30988BFF33A
:1056A0006F8F4FF0000080F31188704700BF00BF7C
:1056B000340E002070B5054618B1FDF7B1FD064661
:1056C00000E000260024C4F2020400BF25B1FDF76B
:1056D000A7FD801BA8420FD820464FF40041FDF7DC
:1056E00095FD0028F2D11420FDF7B0FC20464FF4C0
:1056F0000041FDF78BFD08B1002070BD20464FF43E
:105700000041FDF783FD0028F8D0012070BD41F273
:10571000DE50C2F20000008840F21021C2F2000107
:1057200000B20822D1F800C00028C8BF04228CF8BB
:10573000002041F2E05248BF4042C2F2000200EBBA
:10574000800012884000CCF8040010B20222002829
:10575000C8BF01228CF8082048BF404280B500EB4A
:10576000800240F29430C2F2000000684FEA420E1C
:1057700000220223CCF80CE0BDE8804002F0E4BC3B
:1057800080B54EF21000CEF20000006803F01DF963
:10579000012808BF80BDBDE8804002F0D2BB0000F8
:1057A00070B592B006AC20463021FAF794FD01A8FE
:1057B0001421FAF790FD002543F640000095C4F24D
:1057C00002000168022641F080510160006800F08B
:1057D00080500090009847F200000095C4F200004D
:1057E000016841F4804101600068A82100F4804014
:1057F00000900098012006904FF4803007904FF4FD
:1058000080000D9004200E90119020460C96CDE95A
:105810000F16FDF71BFF10B172B600BFFEE70F2099
:10582000CDE901064FF4A05004904FF4805005904C
:1058300001A805210395FDF7E5FD10B172B600BF83
:10584000FEE712B070BD4EF68850CEF2000001683F
:1058500041F470010160704740F69810C2F20000F8
:10586000FEF763BA10B540F6FF3E0368C4F2000EBF
:1058700040F2004C7045C4F2010C0DDCB0F1804FD9
:1058800017D040F20042C4F20002904211D040F61C
:105890000002C4F200020AE040F60042C4F2000234
:1058A000904206D0604504D00022C4F2010290422A
:1058B00003D14A6823F07003134341F6FF72C4F228
:1058C000000290420DDC70451FDCB0F1804F3FD0EC
:1058D00040F20042C4F20002904239D040F6000289
:1058E00021E043F6FF72C4F2010290421EDC42F254
:1058F0000002C4F2000290422AD00022C4F2010247
:10590000904225D0604523D026E040F60042C4F204
:10591000000290421CD041F60002C4F20002904204
:1059200016D041F60042C4F200020FE044F2000239
:10593000C4F2010290420BD044F60002C4F201020C
:10594000904205D044F20042C4F20102904203D1D9
:10595000CA6823F44073134323F080024B69D1F8E3
:1059600000E08C681A430260C46240F48062C0F8B0
:1059700028E0624504BF09690163012141610169B1
:10598000C90708BF10BD016921F00101016110BD07
:1059900070B5026A036A40F2004423F00103036217
:1059A000D0F804E0D0F818C08B6822F0020540F46B
:1059B0008062C4F20104A24243EA050305D1CD6826
:1059C00023F00C0325F004052B430D68A24206D1F9
:1059D000D1E905262EF44074224342EA060E2CF04B
:1059E00073022A43C0F804E082614968416303629C
:1059F00070BD70B5026A036A40F2004423F01003E0
:105A00000362D0F804E0D0F818C08B6822F02005BB
:105A100040F48062C4F20104A24245EA031307D1B4
:105A2000CD686FF0400623F0C00306EA05152B434E
:105A30000D68A24206D1D1E905242EF44066224326
:105A400046EA820E2CF4E64242EA0522C0F804E05F
:105A5000826149688163036270BD70B5026A036A3E
:105A600040F2004423F480730362D0F804E0D0F8DD
:105A70001CC08B6822F4007540F48062C4F20104FB
:105A8000A24245EA032307D1CD6840F2FF462D022A
:105A900023F44063B5432B430D68A24206D1D1E9FC
:105AA00005242EF44056224346EA021E2CF07302CF
:105AB0002A43C0F804E0C2614968C163036270BD53
:105AC00070B5D0F820C0026A40F2004622F480523D
:105AD00002624268C3690C68D1F808E040F480654E
