:020000040800F2
:10000000A8AC0020A1010008417C0008C16D0008D7
:100010008D790008E5270008BD9900080000000060
:1000200000000000000000000000000081860008C1
:100030002D2C000800000000817F0008C501000889
:10004000BB010008BB010008BB010008BB010008A0
:10005000BB010008BB010008BB010008BB01000890
:10006000BB010008BB010008BB010008F52900081E
:10007000052A0008152A0008252A0008352A000844
:10008000452A0008552A0008BB010008BB010008EA
:10009000E9270008BB010008BB010008BB010008FC
:1000A000BB010008BB010008BB010008BB01000840
:1000B000BB010008BB010008BB010008BB01000830
:1000C000BB010008BB010008BB010008BB01000820
:1000D000BB0100084D9800085D9800086D98000865
:1000E000BB010008BB010008BB010008BB01000800
:1000F000BB010008BB010008BB010008652A00081D
:10010000BB010008BB010008BB010008BB010008DF
:10011000BD8F0008CD8F0008BB0100084989000889
:10012000BB010008BB010008752A0008BB010008DC
:10013000BB010008BB010008BB010008BB010008AF
:1001400065280008BB010008BB010008BB010008CE
:10015000BB010008BB010008852A00087D98000843
:10016000BB010008BB010008BB010008BB0100087F
:10017000BB010008BB010008BB0100080000000033
:10018000BB010008BB010008DFF810D000F018FC2C
:1001900000F0D8F80048004715A80008A8AC0020D7
:1001A0000648804706480047FEE7FEE7FEE7FEE711
:1001B000FEE7FEE7FEE7FEE7FEE7FEE7358900081B
:1001C0008901000830B410B50348804730BCAE4602
:1001D00030BC02480047704755AF000859880008F6
:1001E0002DE9F05F0546002092469B46884606466C
:1001F000814640241BE0284641464746224600F0FF
:10020000C1FA53465A46C01A914110D311461846B6
:10021000224600F0A8FA2D1A67EB01084F46224645
:100220000120002100F09FFA17EB00094E41201E2B
:10023000A4F10104DFDC484631462A464346BDE8C6
:10024000F09F2DE9F0410024061B254671F10006C0
:1002500005DA01240027D0EB070067EB0101161E29
:1002600073F1000605DA0027D2EB0702012567EBE0
:100270000303FFF7B5FF86460E4617469C46AC4281
:1002800004D00025D0EB050E65EB010624B100205B
:10029000D2EB000760EB030C704631463A466346EA
:1002A000BDE8F08140EA01039B0703D009E008C9DB
:1002B000121F08C0042AFAD203E011F8013B00F82B
:1002C000013B521EF9D27047D2B201E000F8012B77
:1002D000491EFBD270470022F6E710B513460A46C6
:1002E00004461946FFF7F0FF204610BD421C10F8E7
:1002F000011B0029FBD1801A7047034611F8012B1E
:1003000000F8012B002AF9D11846704730B5054690
:100310000020034600E05B1C934205D2EC5CC85C05
:10032000201A01D1002CF6D130BD70B506460EF072
:10033000D1FF046805460A220021304600F044FA45
:100340002C6070BD7CB507480090074801900546B9
:10035000009C04E02046016808448047241DAC420C
:10036000F8D17CBD14050108180501082DE9FE4FE0
:10037000804681EA0300C00F0C46009021F0004146
:1003800023F00045B8EB0200A94105D240462146C2
:1003900090461C460B46024623F00040104347D0CF
:1003A000270DC7F30A00C3F30A510290401A0190C7
:1003B00040286BDAC3F3130040F4801B0098924688
:1003C00020B10023D2EB030A63EB0B0B01985946D3
:1003D000C0F14002504600F0C6F906460D465046B0
:1003E0005946019A00F0DEF910EB08006141002443
:1003F00087EA115284EAE7731A4340D0009A62B345
:10040000019A012A4FEA075215DC001B61EB020139
:100410004FF0004202EA0752CDE90042001C41F5CC
:10042000801132462B4600F04DFA03B0BDE8F08F44
:1004300040462146F9E7001B61EB0201001C41F533
:10044000801300185B412018A2F5001747EB030149
:1004500040EAD570B6196D4111E06D084FEA3606D5
:1004600045EAC0754FEA0752001B61EB0201001C10
:1004700041F5801149084FEA3000001951413246D8
:100480002B4603B0BDE8F04F00F00DBA00980122F2
:1004900040000023D0EB020263EBE073009821469A
:1004A0004FEAE074B8EB000061EB0401E9E783F088
:1004B00000435BE781F0004158E72DE9FE4F81EAF8
:1004C000030404F0004421F0004100944FF0000BBD
:1004D00023F0004350EA01045ED052EA03045BD0EB
:1004E000C3F30A54C1F30A552C44A4F2F334019423
:1004F000A0FB0254C1F3130141F48011C3F31303B1
:1005000043F4801301FB024400FB034E840A970A64
:1005100044EA815447EA8357A4FB076802958D0A91
:1005200005FB07854FEA932C04FB0C542705029D1D
:100530004FEA065847EA1637B5EB08056EEB070C8D
:10054000870E920E47EA811742EA8312A7FB020147
:10055000B6EB0B0164EB00042B0D43EA0C335E1881
:1005600044EB1C50DA465146E7FB0201C5F3130485
:100570004FEA0B3343EA14534FEA0432019C43EA37
:100580000603A4F10C040294009CCDE900B400F031
:1005900099F903B0BDE8F08F00200146F9E72DE995
:1005A000F04D81EA030404F0004B21F000451446AD
:1005B0004FF0000A23F0004150EA050220D054EA2F
:1005C00001021DD0C5F30A570246C5F31303C1F358
:1005D0001300C1F30A5640F4801543F48013A7EBCF
:1005E0000608101BD64608F2FD3873EB050002D34F
:1005F00008F1010801E092185B41B8F1000F03DA3D
:1006000000200146BDE8F08D00204FF48011064621
:1006100084460EE0171B73EB050705D3121B63EB33
:10062000050306434CEA010C49084FEA30009218D2
:100630005B4150EA0107EDD152EA030012D082EA91
:10064000040083EA0501084305D0101BAB4106D224
:100650000122002306E000224FF0004302E06FF089
:10066000010253101AEB06004CEB085110EB0A0084
:1006700041EB0B01BDE8F04D00F015B90EB5C10F0F
:1006800080EAE0700844CA07002140F233438DE855
:100690000E000A460B4600F015F903B000BD70B518
:1006A000C1F30A5201F000450024C1F3130140F2E6
:1006B000FF3341F480119A4201DA002070BD40F20C
:1006C00033439A42A2F2334203DC524200F05AF81A
:1006D00000E090402C43F1D0404270BD00F0004259
:1006E00030F000400AD0C10D01F56071C0F3160072
:1006F00042EA0151C20840071143704700200146F9
:10070000704701F0004330B421F0004150EA01028B
:1007100006D00A0DA2F56072C1F31301002A02DCB3
:1007200030BC00207047440F44EAC104C100E01807
:1007300030BC00EBC25000F07FB830B50B4601462C
:1007400000202022012409E021FA02F59D4205D370
:1007500003FA02F5491B04FA02F52844151EA2F11A
:100760000102F1DC30BD202A04DB203A00FA02F15C
:10077000002070479140C2F1200320FA03F319438F
:1007800090407047202A04DB203A21FA02F0002131
:10079000704721FA02F3D040C2F120029140084391
:1007A00019467047202A06DBCB17203A41FA02F09F
:1007B00043EAE07306E041FA02F3D040C2F12002BE
:1007C00091400843194670472DE9F04791460F467E
:1007D00080460446002614F8015B2DB100F008F9AC
:1007E0000068405DC007F6D12B2D02D02D2D18D00A
:1007F000641E4A463946204600F0FEF827B13968A3
:10080000A14201D1C7F8008071054FF002040BD559
:100810004042002803DD0EF05DFD0460A007BDE846
:10082000F08746F48066E4E70028F8DA0EF052FD1F
:1008300004606FF00040F2E70029A8BF7047401C39
:10084000490008BF20F00100704710B4B0FA80FCE6
:1008500000FA0CF050EA010404BF10BC704749B123
:10086000CCF1200421FA04F411FA0CF118BF012193
:1008700021430843A3EB0C01CB1D4FEA00614FEA73
:10088000102042BF002010BC704700EBC350104442
:100890000029A4BF10BC7047401C490008BF20F0CD
:1008A000010010BC704710B5141E73F1000408DA83
:1008B000401C41F1000192185B411A4301D120F024
:1008C000010010BD2DE9F04D92469B4611B1B1FAE1
:1008D00081F202E0B0FA80F220329046FFF743FF47
:1008E00004460F4640EA0A0041EA0B0153465A46C5
:1008F000084313D0114653EA010019D0C8F1400251
:100900005046FFF73FFF05460E46504659464246C1
:10091000FFF729FF084305D0012004E020463946AF
:10092000BDE8F08D0020054346EAE0762C433743CE
:100930000A986305E40AA0EB08000022FD0A44EAD5
:1009400047540A3002D500200146E9E70105101995
:100950006941DDE9084500196941BDE8F04DA2E7AC
:10096000C1F30A52C1F3130140F2FF3341F4801185
:100970009A4202DA00200146704740F233439A421D
:10098000A2F2334202DC5242FFF7FCBEFFF7EBBE9D
:1009900030B5041E71F1000404DB4FF00044404206
:1009A00064EB0101141E73F1000405DB1C464FF0DB
:1009B0000043524263EB0403994208BF904230BDAA
:1009C0001CB509480090094801900546009C06E0C6
:1009D000E06840F0010394E8070098471034AC4207
:1009E000F6D3FFF7D5FB0000F40401081405010855
:1009F0000048704750FC00082DE9F05F82460078FF
:100A0000002715468B460AF10104B946302801D06B
:100A10009DB113E014F8010B0127782803D0582862
:100A200001D045B10AE00DB1102D07D100271025E6
:100A300014F8010B02E0082500E00A250026B04664
:100A40000EE005FB080005FB06F1012701EB10464F
:100A50001FFA80F8B6F5803F00D3B94614F8010BB1
:100A6000294600F018F80028EBDABBF1000F05D09A
:100A70000FB1641E00E05446CBF80040B9F1000FFE
:100A800006D00EF027FC02210160C81EBDE8F09FD1
:100A900048EA0640FAE73A2800D2303820F020022F
:100AA000412A01D3A2F13700884201D34FF0FF3031
:100AB000704730B58C1810F8012B12F00F0301D1DC
:100AC00010F8013B120906D110F8012B03E010F8D1
:100AD000015B01F8015B5B1EF9D101E001F8013B0C
:100AE000521EFBD1A142E6D3002030BD80B540F6B6
:100AF000FD20C0F6000009F023FA80BD80B58CB05F
:100B00000B908DF82B100B9940F26430C0F6010069
:100B100001F096FD00208DF82A000B9840F2DC31A0
:100B2000C0F601010822FFF7F1FBB0BBFFE740F27E
:100B30001A20C0F6010001F083FD40F20A30C0F631
:100B4000010001F07DFD40F2F820C2F200000690A5
:100B50000CF0C6F8069940F26430C0F6010005902A
:100B600001F06EFD06984FF400710791FFF7B3FB9B
:100B700040F2A620C0F6010001F062FD06980CF0DC
:100B80001DF80598069901F05BFD06980799FFF797
:100B9000A2FB0E208DF82A0000E20B9840F2EA3109
:100BA000C0F601010D22FFF7B1FBB8BBFFE740F62D
:100BB0000800C2F200000068FFF790FD41EC100B46
:100BC00053EC102B40F2F720C0F6010001F038FD85
:100BD00040F60000C2F200000068FFF77FFD41EC24
:100BE000100B53EC102B40F2E320C0F6010001F093
:100BF00027FD40F2FC70C2F200000068FFF76EFDB6
:100C000041EC100B53EC102B40F2CD20C0F601004C
:100C100001F016FD0E208DF82A00BEE10B9840F27F
:100C2000E531C0F601010422FFF770FBB0B9FFE720
:100C300040F2C470C2F2000000680CF0E5FA6846A9
:100C40000023036040F61C00C2F2000019461A4659
:100C50000BF092FB01208DF82A009DE10B9840F2E9
:100C6000F831C0F601010522FFF750FB10B9FFE78C
:100C700009F07AF80B9840F2BE31C0F60101072264
:100C8000FFF744FBC0B9FFE70B98073009900998BC
:100C9000FFF74BFB40F21851C2F20001087040F21E
:100CA0004C60C2F200000068002202230DF06CF8D4
:100CB00005208DF82A006DE10B9840F28631C0F6D0
:100CC00001010A22FFF722FB68B9FFE70B980A30FF
:100CD00009900998FFF729FB40F20801C2F20001D0
:100CE0000968087055E10B9840F29131C0F6010196
:100CF0000A22FFF70BFBC8B9FFE70B980A300990EF
:100D00000998FFF712FB40F20801C2F200010A68DD
:100D1000506040F24860C2F20000006800220223E6
:100D20000DF032F804208DF82A0031E10B9840F2E2
:100D30009C31C0F601010A22FFF7E8FA68B9FFE723
:100D40000B980A3009900998FFF7EFFA40F2080172
:100D5000C2F200010968087219E10B9840F2A7314C
:100D6000C0F601010A22FFF7D1FAC8B9FFE70B98D4
:100D70000A3009900998FFF7D8FA40F20801C2F248
:100D800000010A68D06040F24860C2F200000068CA
:100D9000002202230CF0F8FF04208DF82A00F5E071
:100DA0000B9840F26931C0F601010A22FFF7AEFA52
:100DB00068B9FFE70B980A3009900998FFF7B5FA70
:100DC00040F20801C2F2000109680874DDE00B98E6
:100DD00040F27431C0F601010A22FFF797FAC8B950
:100DE000FFE70B980A3009900998FFF79EFA40F246
:100DF0000801C2F200010A68506140F24860C2F284
:100E000000000068002202230CF0BEFF04208DF8D1
:100E10002A00B9E00B9840F2FE31C0F6010105222C
:100E2000FFF774FA20B9FFE702208DF82A00AAE044
:100E30000B9840F20441C0F601010422FFF766FA64
:100E400070B9FFE740F2B870C2F2000000680222F9
:100E5000002319460DF0FAFC0B208DF82A0091E0D2
:100E60000B9840F27F31C0F601010622FFF74EFADF
:100E7000E8B9FFE70B98063009900998FFF755FA93
:100E80008DF823009DF823006A4600239360536089
:100E90004FF4486111600A22194600F047FF9DF89F
:100EA000230000F077FF0C208DF82A0069E00B98F2
:100EB00040F2D231C0F601010922FFF727FAA8B9A2
:100EC000FFE70B98093009900998017840F2F84043
:100ED000C2F200000180008840F62C41C2F20001FD
:100EE000096848630D208DF82A0049E00B9840F20C
:100EF000C631C0F601010B22FFF708FAA8B9FFE7D7
:100F00000B980B3009900998017840F2FC40C2F22E
:100F100000000180008840F62C41C2F200010968FF
:100F200088630D208DF82A0029E00B9840F2B23139
:100F3000C0F601010B22FFF7E9F9B8B9FFE70B98FA
:100F40000B3009900998FFF7F0F9014640F2FA409A
:100F5000C2F200000180008840F62C41C2F200017C
:100F60000968C8630D208DF82A0007E00B9940F24C
:100F70005330C0F6010001F063FBFFE7FFE7FFE736
:100F8000FFE7FFE7FFE7FFE7FFE7FFE7FFE7FFE731
:100F9000FFE7FFE7FFE7FFE7FFE7FFE79DF82A101E
:100FA00040F25820C0F6010001F04AFB9DF82A00EB
:100FB000042845D1FFE740F2FC10C0F60100049080
:100FC00001F03EFB40F20800C2F20000039000680E
:100FD000017840F27A20C0F6010001F031FB03985D
:100FE0000068416840F28520C0F6010001F028FB4E
:100FF00003980068017A40F29020C0F6010001F0E9
:101000001FFB03980068C16840F29B20C0F60100F6
:1010100001F016FB03980068017C40F26420C0F6E2
:10102000010001F00DFB03980068416940F26F2058
:10103000C0F6010001F004FB049801F001FBFFE79A
:101040000CB080BD80B501F035FB38B1FFE740F250
:101050004E20C0F6010001F0F3FAFFE780BD00006A
:1010600080B541F27100C0F6000008F097FF80BD26
:1010700080B582B001908DF8031001990879497903
:1010800040EA012141F2DC50C2F200000180B0F9D7
:101090000000FFF7F3FA41EC100B9FED131B53EC2C
:1010A000112B51EC100BFFF77AFA41EC100B51ECBD
:1010B000100B9FED0F0B53EC102BFFF7FEF941ECDB
:1010C000100B51EC100BFFF71CFB014640F604001F
:1010D000C2F200000160006840F60801C2F200019F
:1010E000086002B080BD00BF000000000000E040CA
:1010F000000000000080664080B582B001900020B2
:101100008DF8030005F0A8FD58B1FFE701208DF828
:10111000030040F60400C2F2000000680199086074
:10112000FFE79DF8030002B080BD000010B594B049
:101130008DF84F008DF84E108DF84D208DF84C3005
:101140004FF4C8701290642011909DF84E008DF8F5
:1011500041009DF84D008DF842009DF84C008DF83F
:1011600043009DF841109DF842209DF8433040F225
:101170009240C0F601000EF06FF89DF84E0001F0AD
:10118000E3F900208DF84000FFE79DF840000228B9
:1011900000F37581FFE7522001F0E4F940F22400EA
:1011A000C2F20000028840F21000C2F20000037890
:1011B0009DF840100DF141000890415C40F2140090
:1011C000C2F2000050F82100694600248C604FF004
:1011D000010CCDF830C0C1F804C0086007202146DA
:1011E00000F0A4FD0898DDF830C040F23801C2F2EA
:1011F00000010A8840F22601C2F200010B789DF836
:101200004010415C40F22800C2F2000050F821007A
:1012100069468C60C1F804C008600520214600F0D2
:1012200085FD11984FF47A710E91484344F6D351DD
:10123000C1F262010F91A0FB011080090BF014FCB8
:101240000C9940F25C00C2F200000990028840F262
:101250003A00C2F200000A90037840F23C00C2F269
:1012600000000B90C068EC46CCF80840CCF80410A5
:10127000CCF8000006200D9000F058FD0D9800F00D
:1012800089FD5A2001F052F9099A0A9BDDF82CC019
:101290000C990D9812881B78DCF808C0EE46CEF841
:1012A0000840CEF80410CEF800C000F03FFD0D98C5
:1012B00000F070FD462001F055F90E9A0F99119833
:1012C0005043A0FB011080090BF0CEFB9DF84000BD
:1012D000012809DCFFE79DF840000DF141010844B9
:1012E000407801F031F904E09DF8410001F02CF95B
:1012F000FFE79DF84F00012820D1FFE740F25C0096
:10130000C2F20000028840F23A00C2F20000037804
:1013100040F23C00C2F200000069EC460021CCF82B
:1013200008100121CCF80410CCF80000062007902A
:1013300000F0FCFC079800F02DFD25E09DF84F0023
:10134000022820D1FFE740F25C00C2F200000288D0
:1013500040F23A00C2F20000037840F23C00C2F2D0
:1013600000004069EC460021CCF808100121CCF8BF
:101370000410CCF800000620069000F0D7FC069878
:1013800000F008FDFFE7FFE7532001F0CFF89DF8DC
:10139000400002284CD1FFE79DF84F00012820D1E2
:1013A000FFE740F25C00C2F20000028840F23A001F
:1013B000C2F20000037840F23C00C2F20000406933
:1013C000EC460021CCF808100121CCF80410CCF830
:1013D00000000620059000F0A9FC059800F0DAFC5A
:1013E00025E09DF84F00022820D1FFE740F25C0085
:1013F000C2F20000028840F23A00C2F20000037814
:1014000040F23C00C2F200004068EC460021CCF8FB
:1014100008100121CCF80410CCF80000062004903C
:1014200000F084FC049800F0B5FCFFE7FFE71FE044
:1014300040F25C00C2F20000028840F23A00C2F2C0
:101440000000037840F23C00C2F200008068EC46E5
:101450000021CCF808100121CCF80410CCF80000D1
:101460000620039000F062FC039800F093FCFFE775
:10147000FFE79DF8400001308DF8400085E614B08C
:1014800010BD000080B582B08DF807008DF8061001
:101490008DF805209DF8070041F2F051C2F20001DD
:1014A00008709DF8060048709DF80500887040F2AD
:1014B0002450C2F20000006802210CF0E1F802B0F2
:1014C00080BD000080B541F2D540C0F6000008F0B4
:1014D00073FD80BD80B582B001908DF80310019935
:1014E0004878897840EA012040F2AC21C2F200013C
:1014F0008880019AD078127940EA0220C880019849
:10150000007801282BD1FFE741F2F050C2F2000031
:101510000078012823D1FFE740F2AC20C2F200009E
:101520004078012809D1FFE700F032F840F2464048
:10153000C0F6010001F084F810E040F2AC20C2F2E5
:101540000000407848B9FFE700F06AF940F228400F
:10155000C0F6010001F074F8FFE7FFE716E001981C
:101560000078102811D1FFE741F2F050C2F20000DC
:101570000078022809D1FFE700F0B2F940F20940F3
:10158000C0F6010001F05CF8FFE7FFE702B080BDA4
:1015900080B598B000208DF85F0040F2AC22C2F216
:1015A00000021492918842F62A30C2F200000180B3
:1015B000D18842F62C33C2F20003198091889389B6
:1015C000C91A1181D188D389C91A5181008842F67C
:1015D0002E31C2F200010988401A15900028169099
:1015E00002D51598404216901698042828DCFFE78B
:1015F00042F62C30C2F20000008842F63031C2F2CE
:1016000000010988401A12900028139002D5129800
:10161000404213901398042812DCFFE740F2AC21FB
:10162000C2F200018878897C884208DAFFE740F23C
:10163000AC21C2F20001887801308870FFE706E033
:1016400040F2AC21C2F2000100208870FFE740F2B6
:10165000AC21C2F200018878897C88422DDBFFE74B
:1016600040F2AC20C2F200000F90008900B210904E
:101670000028119002D51098404211900F991198AE
:10168000097C884218DCFFE740F2AC20C2F200007F
:101690000C90408900B20D9000280E9002D50D9854
:1016A00040420E900C990E98097C884204DCFFE7BA
:1016B00001208DF85F00FFE7FFE79DF85F00D8B1DC
:1016C000FFE740F2B870C2F20000006802220A92FE
:1016D00000230B9319460DF0B9F80A9940F22450F3
:1016E000C2F2000000680BF049FF0B9840F2AC21F9
:1016F000C2F20001887079E040F2AC21C2F2000130
:101700008878897C884270DBFFE742F62A30C2F293
:101710000000008842F62E31C2F200010988084418
:10172000FEF7ACFF41EC100B51EC100B9FED3A0BA8
:1017300053EC102B04930392FEF731FF41EC100B96
:101740008DED000B40F2AC20C2F2000009908089C0
:10175000FEF794FF9DED001B41EC100B51EC110BBB
:1017600053EC102BFEF7A3FE41EC100B51EC100BC9
:10177000FEF795FF0999088142F62C30C2F200006D
:10178000008842F63031C2F2000109880844FEF7B1
:1017900075FF039A049B41EC100B51EC100BFEF704
:1017A000FEFE0246099805920A46059942EC101B76
:1017B0008DED060BC089FEF761FF9DED061B41EC28
:1017C000100B51EC110B53EC102BFEF770FE41EC9B
:1017D000100B51EC100BFEF762FF0999488106F0DF
:1017E00069FF099900208870FFE7FFE742F62A3079
:1017F000C2F20000008842F62E31C2F200010880D9
:1018000042F62C30C2F20000008842F63031C2F2BB
:101810000001088018B080BD0000000000000040FA
:1018200080B588B000208DF81F0040F2AC20C2F2D5
:1018300000000490818842F62A32C2F20002118030
:10184000C18842F62C32C2F200021180818882895E
:10185000891A0181C188C289891A4181008900B22F
:1018600005900028069002D50598404206900499FC
:101870000698497C884218DCFFE740F2AC20C2F2AF
:1018800000000190408900B202900028039002D528
:1018900002984042039001990398497C884204DCF5
:1018A000FFE701208DF81F00FFE79DF81F00A0B1A2
:1018B000FFE740F2B870C2F2000000680222009216
:1018C000002319460CF0C2FF009940F22450C2F2E6
:1018D000000000680BF052FEFFE708B080BD00007A
:1018E00080B58AB000208DF8270040F2AC20C2F20B
:1018F00000000690818842F62A32C2F2000211806E
:10190000C18842F62C32C2F2000211808188828A9C
:10191000891A0181C188C28A891A4181008900B26D
:1019200007900028089002D5079840420890069931
:101930000898097E884241DCFFE740F2AC20C2F201
:1019400000000390408900B204900028059002D561
:1019500004984042059003990598097E88422DDC41
:10196000FFE740F2AC21C2F200018878497E88424C
:1019700008DAFFE740F2AC21C2F2000188780130BA
:1019800088701AE040F2B870C2F2000000680222CB
:1019900001920023029319460CF058FF019940F27E
:1019A0002450C2F2000000680BF0E8FD029840F2FB
:1019B000AC21C2F200018870FFE708E040F2AC21E0
:1019C000C2F200010020887006F074FEFFE70AB042
:1019D00080BD000080B582B08DF807008DF806103C
:1019E0008DF8052040F2AC20C2F20000007880B9EA
:1019F000FFE79DF807009DF8061005F0E3FB40F2B5
:101A0000AC21C2F20001012008709DF80500487069
:101A1000FFE705F0FFFA38B1FFE740F2AC21C2F270
:101A2000000100200870FFE702B080BD80B582B0E1
:101A300040F26C21C2F200010120086068460023D8
:101A4000036040F61C00C2F2000019461A460AF074
:101A500093FC02B080BD000080B58AB08DF82700ED
:101A600008910020079040F26C21C2F2000108604A
:101A70000798002840F0D980FFE79DF8270001383B
:101A8000014606911F2800F2CF800699DFE801F099
:101A90001035CC5CCCCCCC81CCCCCCCCCCCCCCBAA6
:101AA000CCCCCCCCCCCCCCCCCCCCCCCCCCCCCCA89A
:101AB00008980590FEF7E2FD41EC100B9FED5E1BD0
:101AC00053EC112B51EC100BFEF7F7FC41EC100B13
:101AD00051EC100BFEF7E3FD059A03466846002122
:101AE000416003604FF4487006F072FE40F26C21D2
:101AF000C2F200010120086096E008980490FEF709
:101B0000BDFD41EC100B9FED4C1B53EC112B51EC28
:101B1000100BFEF7D2FC41EC100B51EC100BFEF752
:101B2000BEFD049A034668460021416003604FF6FB
:101B3000E040CFF6FF7006F04BFE40F26C21C2F29F
:101B40000001012008606FE008980390FEF796FD01
:101B500041EC100B9FED381B53EC112B51EC100B8B
:101B6000FEF7ABFC41EC100B51EC100BFEF797FDB0
:101B7000039A034668460021416003604FF44870B1
:101B800006F0E2FD40F26C21C2F200010120086083
:101B90004AE008980290FEF771FD41EC100B9FEDB2
:101BA000261B53EC112B51EC100BFEF786FC41EC7D
:101BB000100B51EC100BFEF772FD029A03466846BB
:101BC0000021416003604FF6E040CFF6FF7006F061
:101BD000BBFD40F26C21C2F200010120086023E04D
:101BE0000898FEF74BFD41EC130B9FED112BB0EE67
:101BF000420AF0EE620AB0EE421AF0EE621A05F006
:101C0000C7FE11E00898FEF739FD41EC130B9FED7C
:101C1000082BB0EE420AF0EE620AB0EE421AF0EE85
:101C2000621A05F0B5FEFFE7FFE70AB080BD00BF0E
:101C300000000000000000009A9999999999D93FF5
:101C400080B584B08DF80F009DF80F000138014673
:101C50000291052854D80299DFE801F0030E1423FD
:101C60003241022040F69801FFF7F6FE042041F2CF
:101C7000A861FFF7F1FE44E0042042F26021FFF783
:101C8000EBFE3EE0082041F29411FFF7E5FE202034
:101C9000B421FFF7E1FE012044F27401FFF7DCFEFE
:101CA0002FE0082041F6A471FFF7D6FE02204FF482
:101CB000FA51FFF7D1FE10205A21FFF7CDFE20E0A8
:101CC000082042F2C421FFF7C7FE02204FF46161F1
:101CD000FFF7C2FE10205A21FFF7BEFE11E00220DE
:101CE000019044F26821FFF7B7FE082042F24861F4
:101CF000FFF7B2FE019840F2DC51FFF7ADFE00E0C5
:101D0000FFE704B080BD000080B582B00120002153
:101D1000019100F0E1FF0199022000F0DDFF01993F
:101D2000032000F0D9FF02B080BD0000B0B586B03E
:101D30008C4686460C980B990A9C8DF817E08DF816
:101D400016C0ADF814208DF813308DF812108DF8F0
:101D500011009DF817009DF81610BDF814209DF88D
:101D60001330DDF828C09DF812409DF811E00EF008
:101D70000105EE46CEF8085004F00104CEF8044008
:101D8000CEF800C000F054FF0A200AF06DFE06B045
:101D9000B0BD000080B582B08DF807009DF8070047
:101DA00008F0E2F902B080BD80B582B000228DF863
:101DB0000720009240F24C60C2F2000000680DF172
:101DC00007010CF0D3F90090009801280FD1FFE72C
:101DD0009DF8071042F62930C2F200000170017828
:101DE0004FF6CF70C0F6000000F02AFC00E0FFE7DD
:101DF00002B080BD80B59AB000200C901990189068
:101E000017901690159014901390129040F2013193
:101E1000ADF8441040F20121C0F2032110910F905F
:101E20008DF83B0042F62930C2F2000000780146EE
:101E30000D91292800F2AB820D99DFE811F02A00FC
:101E40002F00C2006501DE0167028A02A802A80213
:101E5000A8024C00A802A802A802A802A802A80290
:101E6000A802A802A802DF00070107010701A802D3
:101E7000A802A802A802A802A8028201AA01C4011D
:101E8000A802A802A802A802A802A802A802FB01B0
:101E900029024FF4FA700AF0E7FD79E240F24810A7
:101EA000C0F6010000F0CCFB0120FFF7C9FE0020C6
:101EB0000FAA4FF0FF3319460CF096FE42F6293177
:101EC000C2F200010A20087040F26210C0F6010060
:101ED00000F0B6FB5CE240F21A50C2F2000000785B
:101EE00068B9FFE74FF6FE70C0F6000000F0A8FBEF
:101EF00040F21A51C2F2000101200870FFE712A857
:101F000006F076F800285BD0FFE740F29E10C0F69E
:101F1000010012A90DF0A0F900208DF83A008DF80B
:101F20003900FFE79DF83900052820DCFFE79DF820
:101F30003A1012A8405C2B2806D1FFE79DF83A0022
:101F400001308DF83A00FFE79DF83A10481C8DF8F3
:101F50003A0012A8405C30389DF8392010A9885406
:101F6000FFE79DF8390001308DF83900DAE712A853
:101F700006F0B6FA40F2B870C2F200000068022221
:101F80000A9200230B9319460CF060FC0B980FAAE1
:101F90004FF0FF3319460CF027FE0A9842F629311C
:101FA000C2F20001087040F21400C0F6010000F017
:101FB00047FB0B9840F21A51C2F200010870FFE78C
:101FC000E6E14FF65D70C0F6000000F039FB02203C
:101FD000FFF736FE00200FAA4FF0FF3319460CF032
:101FE00003FE42F62931C2F20001142008704FF6B8
:101FF0007970C0F6000000F023FBC9E140F2151033
:10200000C0F6010000F01CFB40F21950C2F20000C3
:10201000007800EB400010A90844817801221046A6
:10202000FFF730FA00200FAA4FF0FF3319460CF0EB
:10203000DBFD42F62931C2F200011520087040F2A2
:102040002F10C0F6010000F0FBFAA1E142F62930A2
:10205000C2F200000990007840F21951C2F200016A
:10206000097801EB4101084415388DF83B009DF8D3
:102070003B104FF6E170C0F6000000F0E1FA9DF869
:102080003B1010A8415C012000220692FFF7FAF9EC
:1020900006980FAA07924FF0FF33089319460CF0E9
:1020A000A3FD9DF83B1040F27B10C0F6010000F04C
:1020B000C7FA0698079A089B19460CF095FD0998EF
:1020C0000078162809DCFFE742F62930C2F200004A
:1020D00000780130C0B2059002E003200590FFE7D0
:1020E000059942F62930C2F20000017000780328F9
:1020F00009D1FFE740F22450C2F20000006802213B
:102100000BF03CFAFFE743E14FF6CF60C0F600006A
:1021100000F096FA0320FFF793FD00200FAA4FF07E
:10212000FF3319460CF060FD42F62931C2F200017E
:102130001E2008704FF6F360C0F6000000F080FA31
:1021400026E140F2DC00C0F6010000F079FA02213D
:10215000049101220846FFF795F900200FAA4FF0DD
:10216000FF3319460CF040FD049940F22450C2F2AE
:10217000000000680BF002FA42F62931C2F20001B9
:102180001F20087040F2F900C0F6010000F058FA74
:10219000FEE040F26600C0F6010000F051FA0020B7
:1021A0000FAA4FF0FF3319460CF01EFD42F62931FD
:1021B000C2F200012020087040F28500C0F6010044
:1021C00000F03EFAE4E04FF69470C0F6000000F034
:1021D00037FA00200FAA4FF0FF3319460CF004FD28
:1021E00042F62931C2F20001042008704FF6B270A5
:1021F000C0F6000000F024FACAE04FF68260C0F694
:10220000000000F01DFA0420FFF71AFD00200FAABD
:102210004FF0FF3319460CF0E7FC42F62931C2F2C9
:102220000001282008704FF6A960C0F6000000F0F9
:1022300007FAADE040F2A300C0F6010000F000FA9A
:1022400040F22450C2F20000039000680221029183
:102250000BF016FA029901220846FFF713F9002045
:102260000FAA4FF0FF3319460CF0BEFC02990398F9
:1022700000680BF083F942F62931C2F200012920EF
:10228000087040F2C000C0F6010000F0D9F97FE00C
:1022900040F22900C0F6010000F0D2F940F21950D6
:1022A000C2F200000190007800EB400210A98B18E8
:1022B000895C5A789B78FEF739FF00200FAA4FF00F
:1022C000FF3319460CF090FC0198007838B9FFE70D
:1022D00042F62931C2F20001052008700FE040F2F9
:1022E0001950C2F200000078012807D1FFE742F63A
:1022F0002931C2F2000106200870FFE7FFE740F233
:102300004800C0F6010000F09BF941E04FF616705E
:10231000C0F6000000F094F90520FFF791FC0020C2
:102320000FAA4FF0FF3319460CF05EFC40F2195132
:10233000C2F200010120087042F62931C2F2000108
:10234000142008704FF63A70C0F6000000F078F9DB
:102350001EE040F2B910C0F6010000F071F906204D
:10236000FFF76EFC002000900FAA4FF0FF331946D4
:102370000CF03AFC009842F62931C2F200010870D4
:1023800040F2DB10C0F6010000F05AF900E0FFE770
:102390001AB080BD80B582B0FFE740F22450C2F28F
:1023A000000000686A464FF0FF31116002210023EF
:1023B0001A460BF0F3F901909DF8040080070028FD
:1023C0000AD5FFE741F2F052C2F2000210785178CC
:1023D0009278FFF7FFFA00E0FFE764200AF044FB81
:1023E000DBE7000080B586B0FFE740F24860C2F24C
:1023F0000000006840F21C51C2F2000105914FF04C
:10240000FF320BF0B3FE40F26340C0F601000490CF
:1024100000F016F90598016840F28540C0F6010009
:1024200000F00EF905980068017840F27A20C0F6B5
:10243000010000F005F905980068416840F2852028
:10244000C0F6010000F0FCF805980068017A40F23F
:102450009020C0F6010000F0F3F805980068C1680C
:1024600040F29B20C0F6010000F0EAF805980068F1
:10247000017C40F26420C0F6010000F0E1F805980C
:102480000068416940F26F20C0F6010000F0D8F802
:10249000049800F0D5F805980068406888B1FFE717
:1024A00040F21C50C2F200000390016808784968AD
:1024B000FFF7D2FA03990A68002010700968486093
:1024C000FFE740F21C50C2F200000068C06888B10B
:1024D000FFE740F21C50C2F2000002900168087A47
:1024E000C968FFF7B9FA02990A68002010720968F2
:1024F000C860FFE740F21C50C2F20000006840696B
:10250000002811D3FFE740F21C50C2F200000190F6
:102510000168087C4969FFF79FFA01990A68002061
:10252000107409684861FFE75FE7000080B582B07A
:102530008DF807009DF8070006F00EF864200AF0F9
:1025400093FA02B080BD000080B582B08DF807001C
:102550009DF8070006F02AF864200AF085FA02B018
:1025600080BD000080B582B08DF807009DF807009F
:1025700006F056F802B080BD7047000080B584B008
:1025800003900A20019040F22450C2F2000000683B
:1025900001210BF075F8FFE740F22450C2F2000071
:1025A00000686A464FF0FF311160012100231A468E
:1025B0000BF0F4F802909DF80800C00718B1FFE78F
:1025C000FEF740FD00E0FFE70A200AF04DFAE3E7DE
:1025D00080B582B00190FFE70AF0CCF807F0F0F97F
:1025E0000AF0F4F805200AF03FFAF5E780B582B06A
:1025F0000190FFE7FFF7D8FBFFF7FCFB0A200AF08A
:1026000033FAF7E780B582B00190FFF7C3FE02B05E
:1026100080BD000080B582B00190FFF7E3FE02B0FC
:1026200080BD000080B582B00190FFE70AF0A2F8FB
:1026300007F0B6FA0AF0CAF80A200AF015FAF5E728
:1026400083B080B5ADF2144DCDF82434CDF82024FC
:10265000CDF81C14CDF810040DF21C400290DDF8EA
:102660001024029B0DF10F00009040F201410CF08C
:1026700017FE40F23860C2F20000019000684FF08F
:10268000FF3108F027FA00994FF67F60C0F600008E
:102690000CF0E2FD0198006808F000FB0DF2144D0B
:1026A000BDE8804003B0704781B08DF8030001B0F1
:1026B0007047000080B582B000208DF807008DF8CB
:1026C0000600FFE700200DF1070107F0ABFD002831
:1026D00000F08380FFE79DF80700FFF7E5FF42F673
:1026E0002830C2F2000000780146009120B1FFE7D7
:1026F0000098092819D068E09DF8070040F294215D
:10270000C2F20001497888420DD1FFE742F6283134
:10271000C2F200010920087040F29421C2F20001C7
:102720000020087000E0FFE756E040F29420C2F27B
:10273000000000783E2840D8FFE79DF8070040F2EF
:102740009421C2F20001497A884226D1FFE740F283
:102750009420C2F20000416802780020885441F2BF
:10276000E450C2F200000068B0B1FFE741F2E4506B
:10277000C2F20000026840F29421C2F200014868EF
:102780000978904701208DF8060042F62831C2F200
:10279000000100200870FFE70EE09DF8070040F2FE
:1027A000942CC2F2000CDCF804109CF80020531C9E
:1027B0008CF800308854FFE706E042F62831C2F278
:1027C000000100200870FFE706E042F62831C2F25F
:1027D000000100200870FFE774E7FFE79DF806009E
:1027E00002B080BDFFE7FEE780B540F61C00C2F2F4
:1027F000000000F025FD80BD80B582B040F61C00D1
:10280000C2F2000040F25862C2F20002019240F2AD
:102810005063C2F20003002100F008FC0198006838
:10282000A0F2012003281BD8FFE740F25860C2F253
:1028300000000068411E40F22050C2F2000001700A
:10284000007800EBC00140F6B860C2F2000000EB77
:10285000810040F25061C2F2000107F031FEFFE753
:1028600002B080BD80B540F64400C2F2000000F026
:10287000E7FC80BD80B540F64400C2F2000040F2A3
:102880007C62C2F2000240F27463C2F200030021D3
:1028900000F0CCFB08B1FFE73AE040F2F170C2F281
:1028A0000000007840F27C61C2F200014968B0EBA0
:1028B000112F20D1FFE740F27460C2F200000078CF
:1028C000FD2817D1FFE740F27460C2F200004078A3
:1028D0009F280FD1FFE740F27460C2F200008078B9
:1028E0006B2807D1FFE740F2F071C2F2000101202E
:1028F0000870FFE7FFE740F27C61C2F200010020B0
:10290000886148610861C860886048600860FFE7C6
:1029100080BD000080B58EB00E200D900021019189
:1029200009910A91012003900B9004910591069161
:10293000079108910C9040F61C00C2F2000004A917
:10294000029100F09DFA019A029903980F230993CE
:102950000A920B90049205920692079208920C90AC
:1029600040F64400C2F2000000F08AFA0EB080BDCA
:1029700080B582B08DF803009DF8030030B9FFE701
:1029800042F61820C2F20000019030E09DF80300EA
:10299000012806D1FFE742F62820C2F2000001908C
:1029A00025E09DF80300022806D1FFE742F6382013
:1029B000C2F2000001901AE09DF80300032806D13E
:1029C000FFE742F64820C2F2000001900FE09DF8B8
:1029D0000300042806D1FFE742F65820C2F20000A7
:1029E000019004E000F09CF900200190FFE70198BD
:1029F00002B080BD80B540F62C10C2F2000001F09C
:102A0000F3F880BD80B540F66C30C2F2000001F0F2
:102A1000EBF880BD80B540F66C00C2F2000001F01A
:102A2000E3F880BD80B540F6CC30C2F2000001F082
:102A3000DBF880BD80B540F6CC00C2F2000001F0AA
:102A4000D3F880BD80B540F6AC20C2F2000001F0A2
:102A5000CBF880BD80B540F60C30C2F2000001F02A
:102A6000C3F880BD80B540F68C10C2F2000001F0C2
:102A7000BBF880BD80B540F6EC10C2F2000001F05A
:102A8000B3F880BD80B540F64C20C2F2000001F0E2
:102A9000ABF880BD82B001900198007810384AF6FA
:102AA000AB21CAF6AA21A0FB0110000900900099F1
:102AB0004FF66C40C0F60000405C0199C865009874
:102AC000042807D3FFE701990868042262F309008C
:102AD000886506E00199086840F2FF3290438865F6
:102AE000FFE70198806D02B07047000086B0059046
:102AF00000208DF813000598806A0390059880697E
:102B000010BBFFE70398029003281BD80299DFE867
:102B100001F0020D0218059890F82F00C00720B1AF
:102B2000FFE701208DF81300FFE70CE00598C06A6D
:102B3000B0F1C07F04D1FFE701208DF81300FFE75B
:102B400001E000E0FFE745E005988069B0F5005F2F
:102B500025D1FFE70398019003281ED80199DFE8EB
:102B600001F00206021101208DF8130016E005980D
:102B700090F82F00C00720B1FFE701208DF8130067
:102B8000FFE70BE00598C06AB0F1C07F04D1FFE712
:102B900001208DF81300FFE700E0FFE719E003983C
:102BA0000090032804D3FFE70098032804D00EE028
:102BB00001208DF813000BE0059890F82F00C00756
:102BC00020B1FFE701208DF81300FFE700E0FFE7E9
:102BD000FFE7FFE79DF8130006B0704784B003904D
:102BE00002910192009303980168086820F4802004
:102BF0000860009803990968486003988068402835
:102C000009D1FFE701980399096888600298039940
:102C10000968C86008E0029803990968886001980B
:102C200003990968C860FFE704B070477047000067
:102C300010B586B08C4686460A980999089C8DF88E
:102C400017E08DF816C0ADF814208DF813308DF80C
:102C500012108DF811000020039002900190009056
:102C60009DF817008DF80000FD208DF801009DF8FB
:102C700016008DF802009DF815008DF803009DF8F0
:102C800014008DF804009DF813008DF805009DF8E0
:102C900023008DF80600BDF822008DF80700089883
:102CA000000A8DF8080008988DF809009DF81200B8
:102CB00000F001008DF80A009DF8110000F00100FD
:102CC0008DF80B006B208DF80C0068460D2107F085
:102CD000B1F906B010BD000080B586B08DF81700C0
:102CE0008DF81610002004900390029001909DF83A
:102CF00017008DF80400FE208DF8050098208DF84F
:102D000006009DF8160000F001008DF807006B200A
:102D10008DF8080001A8052107F08CF906B080BDE8
:102D200072B6FFE7FEE7000088B0069005910492B6
:102D30000393069890F820008DF807000698006825
:102D4000806800900598806808B9FFE700E0FFE719
:102D50009DF80700012806D0FFE79DF8070002282C
:102D600040F08080FFE79DF80300400700280CD466
:102D7000FFE79DF803000007002806D4FFE79DF851
:102D80000300C006002864D5FFE70098C0F3016087
:102D90000290029901208840039908600598806894
:102DA00068B9FFE705980168C06840EA4150069994
:102DB0000968029A01EB0211C1F880010EE0059941
:102DC0004A688868C96840EAC200084306990968E9
:102DD000029A01EB0211C1F88001FFE70598006932
:102DE00006990968029A01EB0211C1F8840105985D
:102DF000007D01280CD1FFE706980068029900EBDE
:102E00000111D1F8840140F48070C1F88401FFE71A
:102E10000498406806990968029A01EB0211C1F80A
:102E20008C010498006806990968029A01EB021166
:102E3000C1F8880106980068029900EB0111D1F8E9
:102E4000800140F00100C1F8800100208DF81F00D2
:102E500011E00699486A40F40010486201208DF89C
:102E60001F0008E00699486A40F48020486201206B
:102E70008DF81F00FFE79DF81F0008B070470000A5
:102E800086B004900391049800680190049890F82B
:102E900020008DF803009DF80300012806D0FFE70D
:102EA0009DF80300022840F0B080FFE746F20040A2
:102EB000C4F2000001900199D1F8000240F0010035
:102EC000C1F800020199D1F8000220F47C50C1F849
:102ED00000020398426A0199D1F8000240EA0220F8
:102EE000C1F800020398406900F01F0101208840EA
:102EF0000290029A0199D1F81C029043C1F81C0279
:102F00000398C069F0B9FFE7029A0199D1F80C0261
:102F10009043C1F80C02039A9088D168526940EA44
:102F20000140019901EBC201C1F84002039A1088E7
:102F30009168526940EA0140019901EBC201C1F870
:102F40004402FFE70398C06901281ED1FFE7029AF7
:102F50000199D1F80C021043C1F80C02039A908831
:102F60001168526940EA0140019901EBC201C1F8C0
:102F70004002039A90899168526940EA01400199A0
:102F800001EBC201C1F84402FFE70398806940B930
:102F9000FFE7029A0199D1F804029043C1F80402B4
:102FA00007E0029A0199D1F804021043C1F8040223
:102FB000FFE70398006940B9FFE7029A0199D1F849
:102FC00014029043C1F8140207E0029A0199D1F863
:102FD00014021043C1F81402FFE70398006A0128A5
:102FE00008D1FFE7029A0199D1F81C021043C1F8F9
:102FF0001C02FFE70199D1F8000220F00100C1F89E
:10300000000200208DF8170008E00499486A40F497
:103010008020486201208DF81700FFE79DF8170017
:1030200006B0704781B0009001B0704786B0049040
:10303000039102920193049890F820008DF8030008
:103040009DF80300012806D0FFE79DF80300022841
:1030500040F0E880FFE7039880B9FFE70498006834
:10306000C068800748B9FFE70499486A40F4001037
:10307000486201208DF81700DDE00FE00498006839
:103080000069800748B9FFE70499486A40F40010D6
:10309000486201208DF81700CDE0FFE70498006832
:1030A000039900EB0110D0F8B00100F00400029980
:1030B00088600298806858B9FFE70498006803990F
:1030C00000EB0110D0F8B001400D029908600AE051
:1030D00004980068039900EB0110D0F8B001C00813
:1030E00002994860FFE704980068039900EB01101B
:1030F000D0F8B00100F002000299C860049800689E
:10310000039900EB0110D0F8B40100F00F0008287B
:1031100004D3FFE70299082008610BE004980068D7
:10312000039900EB0110D0F8B40100F00F000299F0
:103130000861FFE704980068039900EB0110D0F8DC
:10314000B40180B2000A029988610498006803996A
:1031500000EB0110D0F8B401000C0299486104980A
:103160000068039900EB0110D0F8B80101990870CC
:1031700004980068039900EB0110D0F8B801000A28
:103180000199487004980068039900EB0110D0F889
:10319000B801000C0199887004980068039900EB4D
:1031A0000110D0F8B801000E0199C87004980068A9
:1031B000039900EB0110D0F8BC0101990871049843
:1031C0000068039900EB0110D0F8BC01000A0199D6
:1031D000487104980068039900EB0110D0F8BC0115
:1031E000000C0199887104980068039900EB0110A4
:1031F000D0F8BC01000E0199C871039838B9FFE7F7
:1032000004980168C86840F02000C86006E004988F
:103210000168086940F020000861FFE700208DF890
:10322000170008E00499486A40F4802048620120B1
:103230008DF81700FFE79DF8170006B070470000F3
:1032400080B58AB00990002008900998006840690C
:10325000079009980068406806900998006880689F
:10326000059009980068C068049009980068006992
:10327000039009980068806902909DF81C00C007BF
:10328000002800F09480FFE79DF81400C00758B3B1
:10329000FFE709980168012088609DF81400800705
:1032A000002804D5FFE7099800F0EEFB1BE09DF82D
:1032B00014004007002805D5FFE7089840F4006097
:1032C00008900FE09DF814000007002805D5FFE7DF
:1032D000089840F48050089003E0099800F0D0FB73
:1032E000FFE7FFE7FFE7FFE79DF81500C00760B3C2
:1032F000FFE7099801684FF4807088609DF8150019
:103300008007002804D5FFE7099800F0C5FB1BE003
:103310009DF815004007002805D5FFE7089840F400
:10332000005008900FE09DF815000007002805D513
:10333000FFE7089840F48040089003E0099800F007
:10334000A7FBFFE7FFE7FFE7FFE79DF81600C007D1
:1033500060B3FFE7099801684FF4803088609DF8FA
:1033600016008007002804D5FFE7099800F09CFBB1
:103370001BE09DF816004007002805D5FFE70898D8
:1033800040F4004008900FE09DF816000007002868
:1033900005D5FFE7089840F48030089003E00998CD
:1033A00000F07EFBFFE7FFE7FFE7FFE7FFE79DF8A1
:1033B0001C000007002810D5FFE79DF81000C0068C
:1033C000002809D5FFE7089840F400700890099894
:1033D00001681020C860FFE7FFE79DF81C00400768
:1033E00000280FD5FFE79DF810000007002808D53A
:1033F000FFE7099801680820C860099800F0CEFA34
:10340000FFE7FFE79DF81C00800700280BD5FFE7CA
:1034100009980068C068800720B1FFE7099800F0AC
:10342000C1FAFFE7FFE79DF81C004006002810D511
:10343000FFE79DF80C00C006002809D5FFE70898B3
:1034400040F4806008900998016810200861FFE747
:10345000FFE79DF81C00800600280FD5FFE79DF8C8
:103460000C000007002808D5FFE70998016808202C
:103470000861099800F0B2FAFFE7FFE79DF81C0029
:10348000C00600280BD5FFE709980068006980078F
:1034900020B1FFE7099800F0A5FAFFE7FFE79DF8E4
:1034A0001E00800700280FD5FFE79DF81800C00612
:1034B000002808D5FFE7099801681020486009989E
:1034C00000F094FAFFE7FFE79DF81E00C00778B10F
:1034D000FFE79DF818000007002808D5FFE70998C6
:1034E000016808204860099800F0E2FAFFE7FFE76A
:1034F0009DF81D000006002840F18D80FFE79DF833
:1035000018004007002840F18180FFE79DF81D006A
:10351000C00750B1FFE79DF80800C00728B1FFE7DA
:10352000089840F001000890FFE79DF81D00800713
:1035300000280BD5FFE79DF808008007002805D577
:10354000FFE7089840F002000890FFE79DF81D0093
:10355000400700280BD5FFE79DF80800400700282A
:1035600005D5FFE7089840F004000890FFE79DF8B4
:103570001D000007002848D5FFE79DF8080010F05F
:10358000700F42D0FFE7029800F0700001460191F1
:10359000102814D0FFE70198202815D0FFE70198E4
:1035A000302816D0FFE70198402817D0FFE7019890
:1035B000502818D0FFE70198602819D01DE008981E
:1035C00040F00800089019E0089840F010000890BA
:1035D00014E0089840F0200008900FE0089840F0B0
:1035E000400008900AE0089840F08000089005E04C
:1035F000089840F48070089000E0FFE7099801689F
:10360000886920F070008861FFE7FFE7099801688A
:1036100004204860FFE7089848B1FFE7089A099935
:10362000486A104348620998FFF7FCFCFFE70AB0BC
:1036300080BD000080B584B00290029820B9FFE7F9
:1036400001208DF80F00E0E0029890F8200020B9EA
:10365000FFE7029800F0DEF8FFE7029801680868CB
:1036600040F00100086000F07FFF0190FFE7029842
:1036700000684068C007A8B9FFE700F075FF01992E
:10368000401A0B280DD3FFE70299486A40F4003036
:1036900048620299052081F8200001208DF80F0072
:1036A000B3E0E4E702980168086820F002000860CF
:1036B00000F05AFF0190FFE7029800684068800719
:1036C000002815D5FFE700F04FFF0199401A0B289D
:1036D0000DD3FFE70299486A40F40030486202992E
:1036E000052081F8200001208DF80F008DE0E3E730
:1036F0000298007E012807D1FFE702980168086858
:1037000040F08000086006E002980168086820F038
:1037100080000860FFE70298407E012807D1FFE79C
:1037200002980168086840F04000086006E00298CE
:103730000168086820F040000860FFE70298807E7A
:10374000012807D1FFE702980168086840F02000CF
:10375000086006E002980168086820F02000086010
:10376000FFE70298C07E012807D1FFE702980168B1
:10377000086820F01000086006E0029801680868F8
:1037800040F010000860FFE70298007F012807D191
:10379000FFE702980168086840F00800086006E04A
:1037A00002980168086820F008000860FFE70298A6
:1037B000407F012807D1FFE702980168086840F0C0
:1037C0000400086006E002980168086820F0040020
:1037D0000860FFE7029B19685A689868D3F80CC024
:1037E00040EA0C00D3F810C040EA0C005B691843B3
:1037F000013A1043C861029900204862029A0121EF
:1038000082F820108DF80F00FFE79DF80F0004B03C
:1038100080BD000080B590B00F9000200E900D90FC
:103820000C900B900A900F98006846F20041C4F289
:10383000000188424AD1FFE740F22850C2F200005E
:103840000168013101600068012812D1FFE7FFE73C
:103850000020099043F64000C4F20200016841F0E4
:1038600000710160006800F0007009900998FFE79E
:10387000FFE7FFE70020089043F63000C4F20200A3
:10388000016841F001010160006800F0010008904A
:103890000898FFE74FF4C0500A9002200B900020D8
:1038A00003900C9003200D9009200E900020C4F28C
:1038B00002000AA900F064FC039A14200490052178
:1038C00000F030FF049800F023FF65E00F980068D7
:1038D00046F60001C4F2000188425CD1FFE7FFE731
:1038E0000020079043F64000C4F20200016841F056
:1038F00080610160006800F0806007900798FFE732
:1039000040F22850C2F200000168013101600068F5
:10391000012812D1FFE7FFE70020069043F64000A0
:10392000C4F20200016841F000710160006800F01B
:10393000007006900698FFE7FFE7FFE7002005907C
:1039400043F63000C4F20200016841F00201016058
:10395000006800F0020005900598FFE74FF4405022
:103960000A9002200B90002001900C9003200D90F3
:1039700009200E9040F20040C4F202000AA900F0B3
:10398000FFFB019A40200290052100F0CBFE029837
:1039900000F0BEFEFFE7FFE710B080BD81B00090F1
:1039A00001B0704780B582B00190019840F61C01CB
:1039B000C2F20001884203D1FFE7FEF71DFF0BE0D2
:1039C000019840F64401C2F20001884203D1FFE7AA
:1039D000FEF750FFFFE7FFE702B080BD81B0009027
:1039E00001B0704781B0009001B0704781B0009085
:1039F00001B0704780B584B00290029890F8200022
:103A000001282FD1FFE70299022081F820000298B7
:103A10000168086820F00100086000F0A5FD019031
:103A2000FFE7029800684068C007A8B1FFE700F010
:103A30009BFD0199401A0B280DD3FFE70299486AB4
:103A400040F4003048620299052081F820000120EE
:103A50008DF80F000FE0E4E70299002048628DF82E
:103A60000F0008E00299486A40F4002048620120F3
:103A70008DF80F00FFE79DF80F0004B080BD000037
:103A800081B0009001B0704781B0009001B07047E4
:103A900081B0009001B0704781B0009001B07047D4
:103AA00081B0009001B0704781B0009001B07047C4
:103AB00081B0009001B0704780B584B00290029848
:103AC000806D019000F050FD0090029890F8350054
:103AD00002280DD0FFE7029980204865FFE7029990
:103AE000002081F83400FFE701208DF80F0055E039
:103AF00002980168086820F01600086002980168C2
:103B0000486920F0800048610298006C20B9FFE706
:103B10000298806C38B1FFE702980168086820F0CD
:103B200008000860FFE702980168086820F00100BB
:103B30000860FFE7029800680068C007C8B1FFE7A7
:103B400000F012FD0099401A062811D3FFE70299F0
:103B5000202048650299032081F83500FFE702998B
:103B6000002081F83400FFE703208DF80F0015E0F6
:103B7000E0E70298C16D3F20884001998860029972
:103B8000012081F83500FFE70299002081F8340018
:103B9000FFE7FFE700208DF80F00FFE79DF80F001B
:103BA00004B080BD82B00090009890F835000228E3
:103BB00007D0FFE700998020486501208DF80700B5
:103BC0000EE00099052081F835000098016808682A
:103BD00020F001000860FFE700208DF80700FFE7F4
:103BE0009DF8070002B0704780B586B005900020B0
:103BF000039040F26820C2F20000006848F2B5115C
:103C0000C1F64E31A0FB0110800A02900598806D2C
:103C1000019001980068049004980599C96DC84006
:103C2000000700281AD5FFE70598006800684007DC
:103C3000002812D5FFE705980168086820F0040005
:103C400008600598C16D0820884001998860059931
:103C5000486D40F001004865FFE7FFE704980599CB
:103C6000C96DC840C007A0B1FFE70598006840696A
:103C7000000600280CD5FFE70598C16D012088409B
:103C8000019988600599486D40F002004865FFE79A
:103C9000FFE704980599C96DC8404007002814D56E
:103CA000FFE7059800680068800700280CD5FFE74B
:103CB0000598C16D04208840019988600599486D78
:103CC00040F004004865FFE7FFE704980599C96DD7
:103CD000C840C006002847D5FFE70598006800687F
:103CE000000700283FD5FFE70598C16D10208840E8
:103CF00001998860059800680068400300281AD57B
:103D0000FFE70598006800680003002809D4FFE772
:103D10000598006C20B1FFE70598016C8847FFE724
:103D200008E00598806C20B1FFE70598816C884712
:103D3000FFE7FFE716E0059800680068C005002867
:103D400007D4FFE705980168086820F008000860BC
:103D5000FFE70598006C20B1FFE70598016C8847E4
:103D6000FFE7FFE7FFE7FFE704980599C96DC84043
:103D70008006002840F18D80FFE705980068006804
:103D8000C006002840F18480FFE70598C16D20201F
:103D9000884001998860059890F83500052834D14D
:103DA000FFE705980168086820F01600086005988C
:103DB0000168486920F0800048610598006C20B9CE
:103DC000FFE70598806C38B1FFE70598016808683F
:103DD00020F008000860FFE70598C16D3F2088408B
:103DE000019988600599012081F83500FFE7059960
:103DF000002081F83400FFE70598006D20B1FFE74F
:103E00000598016D8847FFE77BE00598006800682A
:103E1000400300281AD5FFE70598006800680003F2
:103E2000002809D4FFE70598406C20B1FFE705980A
:103E3000416C8847FFE708E00598C06B20B1FFE7B9
:103E40000598C16B8847FFE7FFE720E00598006809
:103E50000068C005002811D4FFE7059801680868CC
:103E600020F0100008600599012081F83500FFE777
:103E70000599002081F83400FFE7FFE70598C06B43
:103E800020B1FFE70598C16B8847FFE7FFE7FFE731
:103E9000FFE70598406DA0B3FFE70598406DC007A8
:103EA00030B3FFE70599052081F8350005980168D2
:103EB000086820F001000860FFE7039801300390D4
:103EC0000299884201D9FFE707E0FFE705980068FB
:103ED0000068C0070028F0D1FFE70599012081F8AC
:103EE0003500FFE70599002081F83400FFE7FFE780
:103EF0000598C06C20B1FFE70598C16C8847FFE7C3
:103F0000FFE706B080BD000080B586B004900020B9
:103F1000039000F029FB0290049820B9FFE70120EC
:103F20008DF81700A3E00498406A08B1FFE7FFE7A7
:103F30000499022081F83500FFE70499002081F8F8
:103F40003400FFE704980168086820F00100086069
:103F5000FFE7049800680068C00790B1FFE700F031
:103F600003FB0299401A06280AD3FFE70499202090
:103F700048650499032081F835008DF8170076E034
:103F8000E7E70498006800680390039848F23F014F
:103F9000CFF2100108400390049900914868D1F8CD
:103FA00008C0CB680A6940EA0C00184310434A690C
:103FB00010438A691043CA691043096A0143039890
:103FC000084303900498406A042808D1FFE7049945
:103FD000C86A096B0143039808430390FFE70398FD
:103FE0000499096808600498006840690390039880
:103FF00020F0070003900498416A03980843039057
:104000000498406A04281AD1FFE70498816A03984B
:10401000084303900498C06A80B1FFE70498FEF754
:1040200065FD50B1FFE704994020486504990120DF
:1040300081F835008DF8170019E0FFE7FFE70398D6
:104040000499096848610498FEF724FD01900498DA
:10405000C16D3F208840019988600499002048651F
:10406000049A012182F835108DF81700FFE79DF8BA
:10407000170006B080BD000080B588B0069005919D
:104080000492039300208DF80B000698806D019038
:10409000FFE7069890F83400012804D1FFE70220DA
:1040A0008DF81F0045E00699012081F83400FFE7F4
:1040B000FFE7069890F8350001282BD1FFE7069915
:1040C000022081F835000699002048650698059978
:1040D000049A039BFEF782FD0698C16D3F2088403D
:1040E0000199886006980168086840F01600086029
:1040F0000698006C38B1FFE706980168086840F040
:1041000008000860FFE706980168086840F00100B1
:10411000086009E0FFE70699002081F83400FFE716
:1041200002208DF80B00FFE79DF80B008DF81F00B3
:10413000FFE79DF81F0008B080BD000080B584B087
:10414000039000F011FA0290039801900198013059
:1041500048B1FFE740F2E820C2F200000178019880
:1041600008440190FFE7FFE700F0FEF90299401ACA
:104170000199884201D2FFE7F6E704B080BD000054
:104180008EB00D900C9100200A90099008900B9031
:10419000FFE70B980F2800F2CC81FFE70B99012075
:1041A00088400A900C9800680A990840099009987C
:1041B0000A99884240F0B881FFE70C98406800F007
:1041C0000300012807D0FFE70C98406800F00300C7
:1041D00002282FD1FFE70D98806808900B984100C6
:1041E000032000FA01F10898884308900C98C068F1
:1041F0000B99490000FA01F10898084308900898C3
:104200000D9988600D98406808900B99012000FA7C
:1042100001F10898884308900C984068C0F300109A
:104220000B9900FA01F108980843089008980D9935
:104230004860FFE70C98406800F00300032818D09E
:10424000FFE70D98C06808900B984100032000FA22
:1042500001F10898884308900C9880680B994900F0
:1042600000FA01F108980843089008980D99C86071
:10427000FFE70C98406800F00300022826D1FFE712
:104280000D980B996FF0030202EA51010844006A8D
:1042900008900B9800F0070081000F2000FA01F150
:1042A0000898884308900C9800690B9901F0070161
:1042B000890000FA01F108980843089008980D99C0
:1042C0000B9B02EA530211440862FFE70D98006855
:1042D00008900B984100032000FA01F108988843E8
:1042E00008900C98406800F003000B99490000FA10
:1042F00001F108980843089008980D9908600C98F7
:1043000080798007002800F00E81FFE7FFE700209A
:10431000079043F64400C4F20200016841F4804172
:104320000160006800F4804007900798FFE70B9851
:1043300020F0030043F60801C4F201014058089040
:104340000B9800F0030081000F2000FA01F108989B
:10435000884308900D980021C4F20201884203D1DD
:10436000FFE7002006905EE00D9840F20041C4F2A5
:104370000201884203D1FFE70120059050E00D982B
:1043800040F60001C4F20201884203D1FFE7022097
:10439000049042E00D9840F60041C4F202018842C8
:1043A00003D1FFE70320039034E00D9841F20001B0
:1043B000C4F20201884203D1FFE70420029026E004
:1043C0000D9841F20041C4F20201884203D1FFE797
:1043D0000520019018E00D9841F60001C4F2020199
:1043E000884203D1FFE7062000900AE00D9941F6CC
:1043F0000042C4F202020820914208BF0720009048
:10440000FFE700980190FFE701980290FFE702980C
:104410000390FFE703980490FFE704980590FFE7F7
:1044200005980690FFE70698C0B20B9901F00301CA
:10443000890000FA01F108980843089008980B9940
:1044400021F0030143F60802C4F20102885043F64A
:104450000840C4F201000068089009990898884350
:1044600008900C988079C006002805D5FFE70999C7
:10447000089808430890FFE7089843F60841C4F2FB
:104480000101086043F60C40C4F201000068089086
:1044900009990898884308900C988079800600282C
:1044A00005D5FFE70999089808430890FFE70898A1
:1044B00043F60C41C4F20101086043F60440C4F223
:1044C00001000068089009990898884308900C98A2
:1044D00080798007002805D5FFE7099908980843E7
:1044E0000890FFE7089843F60441C4F20101086010
:1044F00043F60040C4F2010000680890099908984A
:10450000884308900C988079C00728B1FFE7099983
:10451000089808430890FFE7089843F60041C4F262
:1045200001010860FFE7FFE7FFE70B9801300B9000
:104530002FE60EB07047000082B00190ADF8021077
:104540008DF801209DF8010028B1FFE7BDF80200B9
:104550000199886105E0BDF80200000401998861B5
:10456000FFE702B0704700004AF27C00C2F2000090
:104570000068704740F2E820C2F2000002784AF278
:104580007C01C2F200010868104408607047000016
:1045900080B543F60041C4F20201086840F400709F
:1045A0000860086840F480600860086840F4807023
:1045B0000860032000F0D0F80F2000F005F800F0AC
:1045C0007BF8002080BD000080B58CB00B900020EF
:1045D00004900390FFE70020009043F64000C4F2EF
:1045E0000200016841F020010160006800F0200035
:1045F00000900098FFE706A802A900F0E7F90998E3
:104600000490049820B9FFE700F010FA059004E048
:1046100000F00CFA40000590FFE705984DF6836125
:10462000C4F21B31A0FB01014FF0FF3000EB9140C1
:10463000039040F67440C2F2000041F20041C4F21F
:104640000001016040F2E731C1600399416000213F
:1046500001618160816100F07BFE8DF807009DF8AB
:10466000070028BBFFE740F67440C2F2000000F0EC
:10467000DDFE8DF807009DF80700C0B9FFE7372081
:1046800000F046F80B980F280CD8FFE70B9937205D
:10469000002200F047F80B9840F2EC21C2F2000132
:1046A000086003E001208DF80700FFE7FFE7FFE760
:1046B0009DF807000CB080BD80B582B0FFE70020F8
:1046C000019043F64400C4F20200016841F48041C5
:1046D0000160006800F4804001900198FFE7FFE767
:1046E0000020009043F64000C4F20200016841F04F
:1046F00080510160006800F0805000900098FFE752
:104700006FF001000F21002200F00CF802B080BD14
:1047100080B582B08DF807009DF9070005F0A2FA78
:1047200002B080BD80B586B08DF817000491039269
:104730000020029005F0AEFA02909DF9170001905A
:1047400002980499039A03F07DFA0146019805F056
:10475000A9FA06B080BD000080B582B00190019832
:1047600005F0E4FA02B080BD80B584B002900191FA
:10477000029820B9FFE701208DF80F0021E1019890
:1047800043F60041C4F20201096801F007018842C2
:1047900012D9FFE7019943F60040C4F2020001700C
:1047A000006800F007000199884204D0FFE701206B
:1047B0008DF80F0005E1FFE70298007880070028D8
:1047C0002AD5FFE7029800784007002809D5FFE7BF
:1047D00043F60801C4F20201086840F4E0500860A2
:1047E000FFE7029800780007002809D5FFE743F6A5
:1047F0000801C4F20201086840F460400860FFE765
:1048000043F60801C4F20201086820F0F000029AA1
:10481000926810430860FFE702980078C0070028FC
:104820006ED0FFE702984068012811D1FFE743F6F8
:104830000000C4F20200006800F400310020B0EB78
:10484000514F04D1FFE701208DF80F00B9E02CE0B3
:1048500002984068022805D0FFE7029840680328C4
:1048600011D1FFE743F60000C4F20200006800F037
:1048700000710020B0EB516F04D1FFE701208DF8EB
:104880000F009EE010E043F60000C4F20200006852
:1048900000F002010020B0EB510F04D1FFE701202E
:1048A0008DF80F008DE0FFE7FFE743F60801C4F243
:1048B0000201086820F00300029A52681043086061
:1048C000FFF752FE0090FFE743F60800C4F2020033
:1048D000006800F00C0002994968B0EB810F0ED01F
:1048E000FFE7FFF741FE0099401A41F28931884203
:1048F00004D3FFE703208DF80F0062E0E4E7FFE751
:10490000019843F60041C4F20201096801F0070171
:10491000884212D2FFE7019943F60040C4F2020038
:104920000170006800F007000199884204D0FFE799
:1049300001208DF80F0044E0FFE70298007840075F
:1049400000280CD5FFE743F60801C4F2020108680D
:1049500020F4E050029AD26810430860FFE7029802
:104960000078000700280DD5FFE743F60801C4F2E0
:104970000201086820F46040029A126940EAC2000D
:104980000860FFE700F076F843F60801C4F2020180
:104990000968C9B20A094FF65441C0F60001895CA2
:1049A000C84040F26821C2F20001086040F2EC20E9
:1049B000C2F200000068FFF707FE00208DF80F002C
:1049C000FFE79DF80F0004B080BD000082B00190A9
:1049D000009101990F20086043F60800C4F202001C
:1049E000016801F00301019A5160016801F0F001D2
:1049F000019A9160016801F4E051019AD160006868
:104A000000F46040C0080199086143F60040C4F218
:104A10000200006800F007000099086002B07047CB
:104A200040F26820C2F200000068704780B5FFF7CE
:104A3000F7FF43F60801C4F202010968C1F38222BC
:104A40004FF66441C0F60001895CC84080BD00009B
:104A500080B5FFF7E5FF43F60801C4F202010968DB
:104A600089B24A0B4FF66441C0F60001895CC84028
:104A700080BD000080B586B00020059004900390B2
:104A8000029043F60800C4F20200006800F00C0037
:104A90000146019140B1FFE7019804280AD0FFE7E1
:104AA000019808280CD04FE042F20040C0F2F40018
:104AB00002904FE041F20020C0F27A00029049E0FB
:104AC00043F60400C4F20200016801F03F010591C1
:104AD00000684002002813D5FFE743F60400C4F243
:104AE00002000068C0F3881041F20021C0F27A0190
:104AF000A0FB0101059A0023FBF772FB049012E072
:104B000043F60400C4F202000068C0F3881042F2C9
:104B10000041C0F2F401A0FB0101059A0023FBF75C
:104B20005FFB0490FFE743F60400C4F20200006854
:104B300000F44031022000EBD13003900498039937
:104B4000B0FBF1F0029005E042F20040C0F2F40048
:104B50000290FFE7029806B080BD000080B586B0E5
:104B60000490049820B9FFE701208DF8170050E366
:104B700004980078C007002800F0A580FFE743F6FE
:104B80000800C4F20200006800F00C00042813D0F2
:104B9000FFE743F60800C4F20200006800F00C00D2
:104BA00008281ED1FFE743F60400C4F202000068A3
:104BB0004002002815D5FFE743F60000C4F20200CA
:104BC000006800F400310020B0EB514F08D0FFE73F
:104BD0000498406820B9FFE701208DF8170018E31A
:104BE00070E0FFE704984068B0F5803F09D1FFE727
:104BF00043F60001C4F20201086840F48030086006
:104C000020E004984068B0F5A02F0DD1FFE743F6EF
:104C10000001C4F20201086840F4802008600868BE
:104C200040F4803008600CE043F60001C4F2020159
:104C3000086820F480300860086820F4802008604C
:104C4000FFE7FFE7FFE704984068E8B1FFE7FFF7F9
:104C50008BFC0390FFE743F60000C4F202000068FB
:104C600000F400310020B0EB514F0CD1FFE7FFF70B
:104C70007BFC0399401A652804D3FFE703208DF8D5
:104C80001700C6E2E7E71CE0FFF76EFC0390FFE7C2
:104C900043F60000C4F20200006800F40031002076
:104CA000B0EB514F0CD0FFE7FFF75EFC0399401AC1
:104CB000652804D3FFE703208DF81700A9E2E7E792
:104CC000FFE7FFE7FFE7049800788007002840F13E
:104CD0009680FFE743F60800C4F20200006810F077
:104CE0000C0F13D0FFE743F60800C4F2020000687F
:104CF00000F00C0008282CD1FFE743F60400C4F2B2
:104D0000020000684002002823D4FFE743F60000B9
:104D1000C4F20200006800F002010020B0EB510F65
:104D200009D0FFE70498C068012804D0FFE70120FC
:104D30008DF817006DE243F60001C4F20201086825
:104D400020F0F800049A126940EAC2000860FFE708
:104D500054E00498C06870B3FFE70021C4F2472113
:104D600001200860FFF700FC0390FFE743F6000016
:104D7000C4F20200006800F002010020B0EB510F05
:104D80000CD1FFE7FFF7F0FB0399401A032804D387
:104D9000FFE703208DF817003BE2E7E743F6000149
:104DA000C4F20201086820F0F800049A126940EA8F
:104DB000C200086021E00021C4F247210020086001
:104DC000FFF7D2FB0390FFE743F60000C4F20200B6
:104DD000006800F002010020B0EB510F0CD0FFE79B
:104DE000FFF7C2FB0399401A032804D3FFE703200F
:104DF0008DF817000DE2E7E7FFE7FFE7FFE704980C
:104E00000078000700284BD5FFE70498406918B3E5
:104E1000FFE740F68061C4F2472101200860FFF7F8
:104E2000A3FB0390FFE743F67400C4F2020000689E
:104E300000F002010020B0EB510F0CD1FFE7FFF7AB
:104E400093FB0399401A032804D3FFE703208DF84E
:104E50001700DEE1E7E722E040F68061C4F2472177
:104E600000200860FFF780FB0390FFE743F6740023
:104E7000C4F20200006800F002010020B0EB510F04
:104E80000CD0FFE7FFF770FB0399401A032804D307
:104E9000FFE703208DF81700BBE1E7E7FFE7FFE737
:104EA000049800784007002840F1CE80FFE70020FA
:104EB0008DF8070043F64000C4F202000068C0000D
:104EC000002815D4FFE7FFE70020009043F64000DC
:104ED000C4F20200016841F080510160006800F0F6
:104EE000805000900098FFE701208DF80700FFE751
:104EF00047F20000C4F200000068C005002822D478
:104F0000FFE747F20001C4F20001086840F4807036
:104F10000860FFF729FB0390FFE747F20000C4F2A7
:104F200000000068C00500280CD4FFE7FFF71CFB59
:104F30000399401A032804D3FFE703208DF81700D4
:104F400067E1EAE7FFE7FFE704988068012809D1F5
:104F5000FFE743F67001C4F20201086840F0010067
:104F600008601FE00498806805280DD1FFE743F62C
:104F70007001C4F20201086840F00400086008688B
:104F800040F0010008600CE043F67001C4F2020139
:104F9000086820F001000860086820F0040008603C
:104FA000FFE7FFE7FFE704988068F8B1FFE7FFF746
:104FB000DBFA0390FFE743F67000C4F202000068DA
:104FC00000F002010020B0EB510F0ED1FFE7FFF718
:104FD000CBFA0399401A41F28931884204D3FFE7A2
:104FE00003208DF8170014E1E5E71EE0FFF7BCFA97
:104FF0000390FFE743F67000C4F20200006800F07F
:1050000002010020B0EB510F0ED0FFE7FFF7ACFA22
:105010000399401A41F28931884204D3FFE7032003
:105020008DF81700F5E0E5E7FFE79DF80700012898
:1050300009D1FFE743F64001C4F20201086820F0FD
:1050400080500860FFE7FFE704988069002800F0BF
:10505000DC80FFE743F60800C4F20200006800F0BD
:105060000C00082800F08580FFE70498806902287A
:105070005CD1FFE76021C4F2472100200860FFF700
:1050800073FA0390FFE743F60000C4F202000068E1
:1050900000F000710020B0EB516F0CD0FFE7FFF77C
:1050A00063FA0399401A032804D3FFE703208DF81D
:1050B0001700AEE0E7E70499C869D1F820C04B6A51
:1050C0008A6A40EA0C0040EA8310D2034FF6FF736D
:1050D0009A43A2F580321043C96A40EA016043F660
:1050E0000401C4F2020108606021C4F247210120DA
:1050F0000860FFF739FA0390FFE743F60000C4F2B7
:105100000200006800F000710020B0EB516F0CD17C
:10511000FFE7FFF729FA0399401A032804D3FFE7B2
:1051200003208DF8170074E0E7E721E06021C4F266
:10513000472100200860FFF717FA0390FFE743F6C6
:105140000000C4F20200006800F000710020B0EB23
:10515000516F0CD0FFE7FFF707FA0399401A0328B5
:1051600004D3FFE703208DF8170052E0E7E7FFE7DD
:105170004AE004988069012804D1FFE701208DF8F6
:10518000170046E043F60400C4F2020000680290F3
:1051900004988069012831D0FFE7029800F480006C
:1051A0000499C969884229D1FFE7029800F03F00BD
:1051B0000499096A884221D1FFE7029847F6C07135
:1051C00008400499496AB0EB811F17D1FFE70298A4
:1051D00000F440300499896AC9034FF6FF72914385
:1051E000A1F58031884209D1FFE7029800F0706094
:1051F0000499C96AB0EB016F04D0FFE701208DF874
:10520000170006E0FFE7FFE7FFE700208DF8170033
:10521000FFE79DF8170006B080BD000081B0009048
:1052200001B0704781B0009001B0704785B0039025
:105230000291FFE7039890F83C00012804D1FFE7B2
:1052400002208DF813007EE00399012081F83C00D4
:10525000FFE7FFE70399022081F83D00039800680B
:10526000406801900398006880680090019820F0E1
:10527000700001900298016801980843019001981C
:10528000039909684860039800680021C4F201018D
:1052900088423CD0FFE703980068B0F1804F36D0D9
:1052A000FFE70398006840F20041C4F20001884221
:1052B0002DD0FFE70398006840F60001C4F200011A
:1052C000884224D0FFE70398006840F60041C4F20A
:1052D000000188421BD0FFE70398006840F20041BC
:1052E000C4F20101884212D0FFE70398006844F23B
:1052F0000001C4F20101884209D0FFE70398006869
:1053000041F60001C4F2000188420ED1FFE7009887
:1053100020F08000009002984168009808430090B7
:105320000098039909688860FFE70399012081F8D4
:105330003D00FFE70399002081F83C00FFE70020D3
:105340008DF81300FFE79DF8130005B070470000CB
:1053500080B582B00090009820B9FFE701208DF859
:1053600007003FE0009890F83D0040B9FFE7009942
:10537000002081F83C00009800F038F8FFE7009921
:10538000022081F83D00009951F8040B03F0E4FA83
:105390000099012081F84600FFE70099012081F87B
:1053A0003E00009981F83F00009981F84000009983
:1053B00081F84100FFE7FFE70099012081F84200F2
:1053C000009981F84300009981F84400009981F820
:1053D0004500FFE70099012081F83D0000208DF88D
:1053E0000700FFE79DF8070002B080BD82B0019082
:1053F0000198006840F60001C4F20001884212D111
:10540000FFE7FFE70020009043F64000C4F20200EF
:10541000016841F004010160006800F004000090A0
:105420000098FFE7FFE702B07047000083B00190EB
:10543000019890F83D00012804D0FFE701208DF885
:105440000B006AE00199022081F83D000198016893
:10545000C86840F00100C860019800680021C4F2EB
:10546000010188423CD0FFE701980068B0F1804F0D
:1054700036D0FFE70198006840F20041C4F2000115
:1054800088422DD0FFE70198006840F60001C4F281
:105490000001884224D0FFE70198006840F60041EF
:1054A000C4F2000188421BD0FFE70198006840F277
:1054B0000041C4F20101884212D0FFE70198006860
:1054C00044F20001C4F20101884209D0FFE70198CB
:1054D000006841F60001C4F20001884212D1FFE7E2
:1054E00001980068806800F0070000900098062886
:1054F00007D0FFE701980168086840F001000860E4
:10550000FFE706E001980168086840F001000860C4
:10551000FFE700208DF80B00FFE79DF80B0003B0BC
:105520007047000080B586B00490039100208DF88C
:105530000B00FFE7049890F83C00012804D1FFE736
:1055400002208DF81700ABE00499012081F83C009F
:10555000FFE7FFE70499022081F83D000498006806
:1055600080680190019820F077000190019820F464
:105570007F40019001980499096888600398006849
:105580000090002872D0FFE7009810286ED0FFE747
:10559000009820286AD0FFE70098302866D0FFE7FF
:1055A0000098402855D0FFE70098502837D0FFE7F3
:1055B0000098602840D0FFE7009870280BD0FFE7E4
:1055C0000098B0F5805F05D0FFE70098B0F5005F68
:1055D00016D052E055E004980068039B5A68996819
:1055E000DB6803F0ADFA04980068806801900198C8
:1055F00040F077000190019804990968886040E0C4
:1056000004980068039B5A689968DB6803F098FA6D
:1056100004980168886840F48040886031E004980C
:105620000068039A5168D26803F076FC0498006819
:10563000502103F09FFA24E004980068039A51680F
:10564000D26803F091FC04980068602103F092FA9C
:1056500017E004980068039A5168D26803F05CFC74
:1056600004980068402103F085FA0AE00498006875
:105670000399096803F07EFA03E001208DF80B001E
:10568000FFE70499012081F83D00FFE7049900201D
:1056900081F83C00FFE79DF80B008DF81700FFE74D
:1056A0009DF8170006B080BD81B0009001B0704732
:1056B00080B584B0039003980068C0680290039896
:1056C0000068006901909DF804008007002824D537
:1056D000FFE79DF80800800700281DD5FFE7039825
:1056E00001686FF0020008610399012008770398B0
:1056F00000688069800720B1FFE70398FFF7D4FFB7
:1057000006E0039800F018F9039800F00DFAFFE79F
:10571000039900200877FFE7FFE79DF804004007A2
:10572000002825D5FFE79DF80800400700281ED572
:10573000FFE7039801686FF00400086103990220F5
:10574000087703980068806910F4407F04D0FFE771
:105750000398FFF7A9FF06E0039800F0EDF803981F
:1057600000F0E2F9FFE7039900200877FFE7FFE781
:105770009DF804000007002824D5FFE79DF80800E5
:10578000000700281DD5FFE7039801686FF00800A7
:10579000086103990420087703980068C0698007AE
:1057A00020B1FFE70398FFF77FFF06E0039800F0C2
:1057B000C3F8039800F0B8F9FFE7039900200877D1
:1057C000FFE7FFE79DF80400C006002825D5FFE7A6
:1057D0009DF80800C00600281ED5FFE70398016861
:1057E0006FF010000861039908200877039800689B
:1057F000C06910F4407F04D0FFE70398FFF754FF1F
:1058000006E0039800F098F8039800F08DF9FFE7A0
:10581000039900200877FFE7FFE79DF80400C00721
:1058200078B1FFE79DF80800C00748B1FFE703988B
:1058300001686FF001000861039800F05FFAFFE76C
:10584000FFE79DF804000006002810D5FFE79DF84B
:1058500008000006002809D5FFE7039801686FF0EB
:10586000800008610398FFF7D9FCFFE7FFE79DF888
:1058700004004006002810D5FFE79DF80800400608
:10588000002809D5FFE7039801686FF04000086120
:10589000039800F045FAFFE7FFE79DF80400800653
:1058A000002810D5FFE79DF808008006002809D5DC
:1058B000FFE7039801686FF0200008610398FFF785
:1058C000B1FCFFE7FFE704B080BD000080B588B001
:1058D000079000200690059004900390029007988E
:1058E000006840F60001C4F20001884222D1FFE7BF
:1058F000FFE70020019043F63000C4F20200016887
:1059000041F008010160006800F008000190019872
:10591000FFE74FF4704002900220039000210491B1
:105920000591069040F60040C4F2020002A9FEF77D
:1059300027FCFFE708B080BD81B0009001B0704740
:1059400080B586B004900391029200208DF8070084
:10595000FFE7049890F83C00012804D1FFE70220FB
:105960008DF8170089E00499012081F83C00FFE7D9
:10597000FFE7029800900C2800F270800099DFE8A1
:1059800001F0076D6D6D206D6D6D3A6D6D6D53009D
:1059900004980068039903F003F904980168886982
:1059A00040F00800886104980168886920F00400CC
:1059B00088610398026904980168886910438861C6
:1059C00050E004980068039903F060F904980168B6
:1059D000886940F40060886104980168886920F44F
:1059E000806088610398026904980168886940EAC8
:1059F0000220886136E004980068039903F0C0F93A
:105A000004980168C86940F00800C86104980168FA
:105A1000C86920F00400C86103980269049801680D
:105A2000C8691043C8611DE004980068039903F039
:105A300021FA04980168C86940F40060C8610498BC
:105A40000168C86920F48060C861039802690498FD
:105A50000168C86940EA0220C86103E001208DF8AE
:105A60000700FFE7FFE70499002081F83C00FFE70B
:105A70009DF807008DF81700FFE79DF8170006B0A6
:105A800080BD000080B582B00090009820B9FFE78B
:105A900001208DF807003FE0009890F83D0040B9E4
:105AA000FFE70099002081F83C00009800F038F8EA
:105AB000FFE70099022081F83D00009951F8040B9E
:105AC00002F04AFF0099012081F84600FFE70099A3
:105AD000012081F83E00009981F83F00009981F88B
