:020000040800F2
:1000000078B00020A1010008297500089D6D000846
:1000100025750008B144000819810008000000009F
:1000200000000000000000000000000061780008EF
:10003000F745000800000000A1760008C50100088F
:10004000BB010008BB010008BB010008BB010008A0
:10005000BB010008BB010008BB010008BB01000890
:10006000BB010008BB010008BB0100087F45000878
:100070008B45000897450008A3450008AF450008D8
:10008000BB450008C7450008BB010008BB010008CC
:10009000B3440008BB010008BB010008BB01000815
:1000A000BB010008BB010008BB010008BB01000840
:1000B000BB010008BB010008BB010008BB01000830
:1000C000BB010008BB010008BB010008BB01000820
:1000D000BB010008E7800008F3800008FF800008EB
:1000E000BB010008BB010008BB010008BB01000800
:1000F000BB010008BB010008BB010008D345000894
:10010000BB010008BB010008BB010008BB010008DF
:100110007F7C00088B7C0008BB010008C9790008BF
:10012000BB010008BB010008DF450008BB01000857
:10013000BB010008BB010008BB010008BB010008AF
:100140000D450008BB010008BB010008BB01000809
:10015000BB010008BB010008EB4500080B8100084B
:10016000BB010008BB010008BB010008BB0100087F
:10017000BB010008BB010008BB0100080000000033
:10018000BB010008BB010008DFF810D000F046FCFE
:1001900000F0D8F800480047C58F000878B000206C
:1001A0000648804706480047FEE7FEE7FEE7FEE711
:1001B000FEE7FEE7FEE7FEE7FEE7FEE7B7790008A9
:1001C0008901000830B410B50348804730BCAE4602
:1001D00030BC024800477047C1930008F17800081E
:1001E0002DE9F05F0546002092469B46884606466C
:1001F000814640241BE0284641464746224600F0FF
:10020000EEFA53465A46C01A914110D31146184689
:10021000224600F0D5FA2D1A67EB01084F46224618
:100220000120002100F0CCFA17EB00094E41201EFE
:10023000A4F10104DFDC484631462A464346BDE8C6
:10024000F09F2DE9F0410024061B254671F10006C0
:1002500005DA01240027D0EB070067EB0101161E29
:1002600073F1000605DA0027D2EB0702012567EBE0
:100270000303FFF7B5FF86460E4617469C46AC4281
:1002800004D00025D0EB050E65EB010624B100205B
:10029000D2EB000760EB030C704631463A466346EA
:1002A000BDE8F08140EA01039B0703D009E008C9DB
:1002B000121F08C0042AFAD203E011F8013B00F82B
:1002C000013B521EF9D27047D2B201E000F8012B77
:1002D000491EFBD270470022F6E710B513460A46C6
:1002E00004461946FFF7F0FF204610BD421C10F8E7
:1002F000011B0029FBD1801A7047034611F8012B1E
:1003000000F8012B002AF9D11846704730B5054690
:100310000020034600E05B1C934205D2EC5CC85C05
:10032000201A01D1002CF6D130BD70B506460BF075
:10033000BFFE046805460A220021304600F071FA2B
:100340002C6070BD7CB507480090074801900546B9
:10035000009C04E02046016808448047241DAC420C
:10036000F8D17CBD90D8000894D800082DE9FE4F44
:10037000804681EA0300C00F0C46009021F0004146
:1003800023F00045B8EB0200A94105D240462146C2
:1003900090461C460B46024623F00040104347D0CF
:1003A000270DC7F30A00C3F30A510290401A0190C7
:1003B00040286BDAC3F3130040F4801B0098924688
:1003C00020B10023D2EB030A63EB0B0B01985946D3
:1003D000C0F14002504600F0F3F906460D46504683
:1003E0005946019A00F00BFA10EB08006141002415
:1003F00087EA115284EAE7731A4340D0009A62B345
:10040000019A012A4FEA075215DC001B61EB020139
:100410004FF0004202EA0752CDE90042001C41F5CC
:10042000801132462B4600F07AFA03B0BDE8F08F17
:1004300040462146F9E7001B61EB0201001C41F533
:10044000801300185B412018A2F5001747EB030149
:1004500040EAD570B6196D4111E06D084FEA3606D5
:1004600045EAC0754FEA0752001B61EB0201001C10
:1004700041F5801149084FEA3000001951413246D8
:100480002B4603B0BDE8F04F00F03ABA00980122C5
:1004900040000023D0EB020263EBE073009821469A
:1004A0004FEAE074B8EB000061EB0401E9E783F088
:1004B00000435BE781F0004158E72DE9FE4F81EAF8
:1004C000030404F0004421F0004100944FF0000BBD
:1004D00023F0004350EA01045ED052EA03045BD0EB
:1004E000C3F30A54C1F30A552C44A4F2F334019423
:1004F000A0FB0254C1F3130141F48011C3F31303B1
:1005000043F4801301FB024400FB034E840A970A64
:1005100044EA815447EA8357A4FB076802958D0A91
:1005200005FB07854FEA932C04FB0C542705029D1D
:100530004FEA065847EA1637B5EB08056EEB070C8D
:10054000870E920E47EA811742EA8312A7FB020147
:10055000B6EB0B0164EB00042B0D43EA0C335E1881
:1005600044EB1C50DA465146E7FB0201C5F3130485
:100570004FEA0B3343EA14534FEA0432019C43EA37
:100580000603A4F10C040294009CCDE900B400F031
:10059000C6F903B0BDE8F08F00200146F9E72DE968
:1005A000F04D81EA030404F0004B21F000451446AD
:1005B0004FF0000A23F0004150EA050220D054EA2F
:1005C00001021DD0C5F30A570246C5F31303C1F358
:1005D0001300C1F30A5640F4801543F48013A7EBCF
:1005E0000608101BD64608F2FD3873EB050002D34F
:1005F00008F1010801E092185B41B8F1000F03DA3D
:1006000000200146BDE8F08D00204FF48011064621
:1006100084460EE0171B73EB050705D3121B63EB33
:10062000050306434CEA010C49084FEA30009218D2
:100630005B4150EA0107EDD152EA030012D082EA91
:10064000040083EA0501084305D0101BAB4106D224
:100650000122002306E000224FF0004302E06FF089
:10066000010253101AEB06004CEB085110EB0A0084
:1006700041EB0B01BDE8F04D00F042B930B5041E6E
:1006800071F1000404DB4FF00044404264EB0101CF
:10069000141E73F1000405DB1C464FF00043524268
:1006A00063EB0403101A8B4101D2012030BD0020FE
:1006B00030BD30B5041E71F1000404DB4FF000447E
:1006C000404264EB0101141E73F1000405DB1C467B
:1006D0004FF00043524263EB0403801A994101D268
:1006E000012030BD002030BDF0B4CA17CB0F504000
:1006F0005140C61841F100054FEAC3723146280047
:100700004FF0960303D0B623F0BC00F0CBB83046D0
:100710000021F9E70EB5C10F80EAE0700844CA076E
:10072000002140F233438DE80E000A460B4600F0EC
:10073000F6F803B000BD00F0004230F000400AD0EF
:10074000C10D01F56071C0F3160042EA0151C20803
:1007500040071143704700200146704701F00043F5
:1007600030B421F0004150EA010206D00A0DA2F592
:100770006072C1F31301002A02DC30BC0020704714
:10078000440F44EAC104C100E01830BC00EBC25081
:1007900000F07FB830B50B4601460020202201242E
:1007A00009E021FA02F59D4205D303FA02F5491B3F
:1007B00004FA02F52844151EA2F10102F1DC30BD55
:1007C000202A04DB203A00FA02F100207047914011
:1007D000C2F1200320FA03F3194390407047202A06
:1007E00004DB203A21FA02F00021704721FA02F3DB
:1007F000D040C2F120029140084319467047202A98
:1008000006DBCB17203A41FA02F043EAE07306E038
:1008100041FA02F3D040C2F1200291400843194648
:1008200070472DE9F04791460F4680460446002662
:1008300014F8015B2DB100F009F90068405DC007B4
:10084000F6D12B2D02D02D2D18D0641E4A463946E4
:10085000204600F0FFF827B13968A14201D1C7F85E
:10086000008071054FF002040BD54042002803DDE3
:100870000BF01EFC0460A007BDE8F08746F480661C
:10088000E4E70028F8DA0BF013FC04606FF0004096
:10089000F2E70029A8BF7047401C490008BF20F0BC
:1008A0000100704710B4B0FA80FC00FA0CF050EA76
:1008B000010404BF10BC704749B1CCF1200421FAF7
:1008C00004F411FA0CF118BF012121430843A3EBF2
:1008D0000C01CB1D4FEA00614FEA102042BF0020FF
:1008E00010BC704700EBC35010440029A4BF10BCDB
:1008F0007047401C490008BF20F0010010BC704741
:1009000010B5141E73F1000408DA401C41F1000117
:1009100092185B411A4301D120F0010010BD2DE96E
:10092000F04D92469B4611B1B1FA81F202E0B0FA65
:1009300080F220329046FFF743FF04460F4640EA1C
:100940000A0041EA0B0153465A46084313D01146A8
:1009500053EA010019D0C8F140025046FFF73FFFAB
:1009600005460E46504659464246FFF729FF0843C2
:1009700005D0012004E020463946BDE8F08D002076
:10098000054346EAE0762C4337430A986305E40AB8
:10099000A0EB08000022FD0A44EA47540A3002D5C1
:1009A00000200146E9E7010510196941DDE9084524
:1009B00000196941BDE8F04DA2E7C1F30A52C1F345
:1009C000130140F2FF3341F480119A4202DA002011
:1009D0000146704740F233439A42A2F2334202DCAE
:1009E0005242FFF7FCBEFFF7EBBE000030B5041E1D
:1009F00071F1000404DB4FF00044404264EB01015C
:100A0000141E73F1000405DB1C464FF000435242F4
:100A100063EB0403994208BF904230BD1CB50948FE
:100A20000090094801900546009C06E0E06840F00F
:100A3000010394E8070098471034AC42F6D3FFF75F
:100A4000A7FB000070D8000890D800080048704745
:100A500024CD00082DE9F05F824600780027154676
:100A60008B460AF10104B946302801D09DB113E04C
:100A700014F8010B0127782803D0582801D045B17C
:100A80000AE00DB1102D07D10027102514F8010B35
:100A900002E0082500E00A250026B0460EE005FB2E
:100AA000080005FB06F1012701EB10461FFA80F84C
:100AB000B6F5803F00D3B94614F8010B294600F083
:100AC00018F80028EBDABBF1000F05D00FB1641E57
:100AD00000E05446CBF80040B9F1000F06D00BF00F
:100AE000E7FA02210160C81EBDE8F09F48EA06400F
:100AF000FAE73A2800D2303820F02002412A01D308
:100B0000A2F13700884201D34FF0FF30704730B573
:100B10008C1810F8012B12F00F0301D110F8013BD3
:100B2000120906D110F8012B03E010F8015B01F85F
:100B3000015B5B1EF9D101E001F8013B521EFBD1C4
:100B4000A142E6D3002030BD40F65530C0F600008B
:100B500007F09DBBB0B584B004464DF27950C0F6A5
:100B60000000214603F022FC0FF28C51204608229F
:100B7000FFF7CCFB002800F0AE800FF28851204632
:100B80000D22FFF7C3FB002800F0E6800FF284512E
:100B900020460422FFF7BAFB002800F021810FF263
:100BA0007C5120460522FFF7B1FB002800F043816D
:100BB0000FF2705120460522FFF7A8FB002800F035
:100BC0006F820FF2685120460722FFF79FFB002833
:100BD00000F041810FF25C5120460922FFF796FB9D
:100BE000002800F04C810FF2585120460922FFF7EF
:100BF0008DFB002800F04C810FF250512046092255
:100C0000FFF784FB002800F04E810FF24C51204684
:100C10000422FFF77BFB002800F05C810FF24051BB
:100C200020460822FFF772FB002800F05F810FF2D8
:100C30003C5120460922FFF769FB002800F05F8144
:100C40000FF2345120460922FFF760FB002800F024
:100C500061810FF2305120460C22FFF757FB00282C
:100C600000F062810FF22C5120460A22FFF74EFB62
:100C7000002800F072810FF2285120460922FFF768
:100C800045FB002800F087810FF2205120460B22FF
:100C9000FFF73CFB002800F08A814DF27E51C0F640
:100CA000000120460B22FFF731FB002800F08B816A
:100CB0004DF28A51C0F6000120460C22FFF726FBB8
:100CC000002800F08D814DF26850C0F600002146EA
:100CD00003F06CFBE5E04DF27F40C0F6000003F04E
:100CE00065FB4DF21F50C0F6000003F05FFB40F2C1
:100CF0004044C2F20004204609F06AFC4DF27955E6
:100D0000C0F600052846214603F050FB20464FF46C
:100D10000071FFF7E0FA4DF2E340C0F6000003F087
:100D200045FB204609F0E6FB2846214603F03EFB42
:100D300020464FF40071FFF7CEFA40F24264C2F24F
:100D4000000440F284602578C2F20000006880212F
:100D5000BDB309F059FF36E040F66020C2F2000052
:100D6000D0F85802FFF7E7FC02464DF20A50C0F6F1
:100D700000000B4603F01AFB40F60450C2F20000DC
:100D8000B0F900104DF2BF40C0F6000003F00EFBBA
:100D900040F60650C2F20000B0F900104DF2CB4010
:100DA000C0F6000003F002FB40F60250C2F2000061
:100DB000B0F900104DF2B340C0F6000003F0F6FAAF
:100DC00004E009F0C7FE85F0010020700E214DF20D
:100DD000D740C0F6000004B0BDE8B04003F0E6BA6A
:100DE00040F61420C2F20000006809F0BFFD0020A8
:100DF00000210022002309F051F80520002103F012
:100E000031FC052004F0E8F90620002103F02AFC5B
:100E1000052004F0E1F90720002103F023FC052060
:100E200004F0DAF90820002103F01CFC052004F08E
:100E3000D3F90121CBE74FF6D460CFF6FF7001461E
:100E40004FF496724FF4967309F028F80A2009F0CF
:100E5000DDFA0221BBE7E01DFFF767FA40F6C002AA
:100E6000C2F2000240F24C611268C2F20001087046
:100E70001046002202230AF089F90521A7E704F1B0
:100E80000900FFF752FA40F24161C2F2000107E0A7
:100E900004F10900FFF749FA40F24061C2F2000193
:100EA0000870002193E704F10900FFF73EFA0346BA
:100EB00040F2416040F24061C2F20000C2F2000123
:100EC00000780A78DD170121CDE9003500F080FABD
:100ED00004217CE740F62020C2F2000000680021D7
:100EE000022200230AF020FD0B2170E704F1080024
:100EF000FFF71BFA40F24461C2F2000107E004F17F
:100F00000900FFF712FA40F24361C2F200010870D3
:100F10000C215CE704F10900FFF707FA40F2486191
:100F2000C2F200010860F3E740F2446040F243611E
:100F300040F24862C2F20000C2F20001C2F20002B6
:100F400000780978156800220123CDE90132C82212
:100F50003223009502F053FADAE740F2446440F29B
:100F6000436140F24862C2F20004C2F20001C2F2E0
:100F7000000220780978156800220123CDE90132AA
:100F8000C8223223009502F03AFA20784FF47A71A1
:100F900002F045FABCE704F10900FFF7C6F941F297
:100FA0003011C2F20001096880B2C86316E004F192
:100FB0000B00FFF7BAF941F23011C2F200010968E3
:100FC00080B248630AE004F10B00FFF7AEF941F28A
:100FD0003011C2F20001096880B288630D21F6E683
:100FE00004F10C00FFF7A1F94FF0FF3151FA80F046
:100FF00012284FD8DFE800F02B370A253E4123287E
:101000004A10481F232D1013300A500001200221DE
:10101000032200F0E1FC3DE00120032138E0012043
:1010200002F0CCFE4FF4FA7009F0F0F90020012133
:10103000032202231BE00220012101F029F80120F4
:1010400025E0022001211AE001F01EF922E0002033
:101050000AE0012002211BE0012002F0AFFE4FF464
:10106000FA7009F0D3F9012001210222032300F0D4
:1010700003FE0FE00220022101E0022003210022F2
:10108000022301F02EFA05E0032000E002200121F6
:1010900000F0A0FB10219AE6022001F0B3F9F9E775
:1010A00040F61420C2F20000006809F05FFC002046
:1010B00000210022002308F0F1FE0520002103F0AA
:1010C000D1FA052004F088F80620002103F0CAFABE
:1010D000052004F081F80720002103F0C3FA052061
:1010E00004F07AF80820002103F0BCFA052004F08F
:1010F00073F807F025F800BF53686F775461736B7E
:101100000000000053686F77506172616D6574650F
:101110007200000053746F7000000000537461721D
:1011200074000000526573657400000053746174AC
:1011300075733D005768616C654D6F643D0000003C
:101140005768616C654469723D0000005768616CC6
:1011500065506F733D0000004E657874000000001C
:101160004D5F5A445469643D000000004D5F5A448D
:10117000546469723D0000004D5F5A4454706F73AF
:101180003D0000004D5F5A445473746172746E7771
:10119000000000004D5F5A44547374617274000083
:1011A000536572766F4A61773D0000005365727631
:1011B0006F57726973743D0080B503F025F920B153
:1011C00002A0BDE8804003F0F1B880BD5245434520
:1011D0004956450D0A00000084B040F2651009F040
:1011E00015F940F66024C2F200040120207100F0DD
:1011F000A5FA9FED6B8A9FED6B9A4CF6B46804F1EB
:10120000580504F108070026C0F60008206000BF5A
:10121000F0B207F0A8FD47F8140B2846002142461B
:10122000B0EE480AF0EE490A06F024FA0136042E20
:1012300005F14805ECD19FED5D8A04F5BC784CF6CC
:10124000A8629FED590AC0F6000240460021F0EE68
:10125000480A002506F00EFA9FED559A4CF6986163
:1012600004F5E070C0F60001B0EE490A07F050FD49
:101270004CF6A06104F5E870C0F60001B0EE490A32
:1012800007F046FD4CF69C6104F5F070C0F60001D5
:10129000B0EE490A07F03CFD4CF6A46104F5F87085
:1012A000C0F60001B0EE490A07F032FD002000212F
:1012B000C4F27A40CCF27A41C4E99201C4E99401C3
:1012C000204607F051FC9FED340B0DF10C090DF198
:1012D000080A0DF1040B57EC106B00BF204607F015
:1012E00043FC484651465A4623460395CDE90155ED
:1012F00007F08FF9207901283ED194ED910A94ED01
:10130000961A30EE410A08F013FE10EE100A20F093
:101310000040B0EE409AFFF70EFA32463B46FFF728
:10132000C8F9002840F60850F0EE480AC2F2000062
:1013300018BFF0EE490AC0ED000A4046B0EE480A78
:1013400006F0F4F89DED032A94ED921AD4ED930A79
:1013500084ED8E0AB0EE420A07F0E2FC9DED022A0F
:1013600094ED941AD4ED950A84ED8C0AB0EE420AFD
:1013700007F0D6FC84ED8D0A07F068F9B4F918007F
:10138000B4F92C10B4F94020B4F9543008F086FDBB
:10139000052009F03BF8A1E79A9999999999B93FE5
:1013A0000080BB450000FA440000C8420000000075
:1013B0000AD7A33B80B5002000210022002308F0BB
:1013C0006DFDBDE8804007F007BD00000000000093
:1013D0002DE9F04381B0DDF820904FF47A74099E36
:1013E000A9FB0437884606FB047140F66027C2F269
:1013F000000701253D7187F8910287F82022C7E98F
:101400008031C7E9823108F081FD97F82002102869
:1014100034D148463146FFF767F900EE100AB6EEC0
:10142000001A30EE010A97ED961A002087ED910A16
:1014300030EE410AC7E98000C7E9820008F078FD74
:1014400010EE100A20F00040FFF775F99FED1E0B1B
:1014500055EC104B22462B46FFF710F978BB97ED61
:10146000910A97ED961A30EE410A08F061FD10EEF0
:10147000100A20F00040FFF75EF9EBE7182000BFEC
:101480003C5214306828FBD1142008F0BFFF002024
:1014900000210022002308F001FDB8F1000F0ED159
:1014A00040F60C250024C2F2000500BF28684FF06A
:1014B000FF310AF087F8092C04F10104F6D301B0DA
:1014C000BDE8F08300BF00BF9A9999999999B93FF7
:1014D00070B582B0A0F120010B2936D80FF20400BC
:1014E000DFE811F00C009F00670048001F011F019A
:1014F0001F011F011F011F018800C40000244FF4B9
:10150000B973002000210122CDE90034FFF760FF0C
:101510004FF48773002000211022CDE90034FFF73B
:1015200057FF40F27263002000210222CDE900340F
:10153000FFF74EFFB423002000211022CDE9003434
:10154000FFF746FF4FF4FA732FE00138052800F249
:10155000E880DFE800F003C3E6E6CCB300247D2397
:10156000002000210422CDE90034FFF731FF4FF4C1
:1015700007731AE000245A23002000211022CDE92D
:101580000034FFF725FF40F27263002000210222A1
:10159000CDE90034FFF71CFF002000211022009449
:1015A0000194FFF715FF4FF4B973002000210122C9
:1015B000B3E000244FF4B973002000210222CDE9EA
:1015C0000034FFF705FF4FF487730020002110223D
:1015D000CDE90034FFF7FCFE40F2726300200021E9
:1015E0000222CDE90034FFF7F3FEB42300200021EE
:1015F000102292E000244FF44875002000210122BF
:10160000CDE90054FFF7E4FE4FF48773002000217A
:101610001022CDE90034FFF7DBFE0020002101227B
:1016200049E000244FF4B973002000210222CDE9E3
:101630000034FFF7CDFE5A23002000211022CDE90F
:101640000034FFF7C5FE40F2726300200021022241
:10165000CDE90034FFF7BCFE0020002110220094E9
:101660000194FFF7B5FE4FF4FA7353E000244FF4F2
:101670008775002000211022CDE90054FFF7A8FE55
:101680004FF44876002000210122CDE90064FFF7E5
:101690009FFEB423002000211022CDE90034FFF783
:1016A00097FE002000210122CDE90064FFF790FEA3
:1016B000002000211022CDE9005430E0002440F247
:1016C0005233002000210122CDE90034FFF780FED3
:1016D0004FF4AF730020002108221EE000234FF4D6
:1016E0004D75002000210122CDE9005317E00024B0
:1016F0004FF45773002000210222CDE90034FFF798
:1017000067FE00200021102200940194FFF760FE84
:101710004FF4D773002000210222CDE90034FFF7F7
:1017200057FE40F62020C2F200000068002102228D
:10173000002302B0BDE870400AF0F6B840F6F84069
:10174000C2F20000704741F25970C0F6000006F086
:10175000DEBD00000000000080B5808841F6DC118D
:10176000C2F200010880B1F90000FEF7D3FF9FED3F
:101770000A0B53EC102BFEF7A0FE9FED090B53EC68
:10178000102BFEF79AFEFEF7E9FF40F6F841C2F291
:101790000001086080BD00BF000000000000003FA5
:1017A000000000000080664080B505F08BFA00283C
:1017B00018BF012080BD40F27C6CC2F2000C0CEB23
:1017C000800041708270C370704740F27C60C2F24A
:1017D000000070472DE9F04F83B08346481EC0B229
:1017E00040F2601A40F236190C460228C2F2000A92
:1017F000C2F200093AD872A26EA152F8205073A228
:1018000051F8201052F8206040F23410C2F200006B
:10181000028840F21410C2F2000003780868012721
:101820004FF00008CDE9000705200121CDF8088020
:1018300001F0E5FD40F28410C2F200000288286841
:101840000021CDE900070620ED23CDF8088001F046
:10185000D6FD3068BAF8002099F80130CDE90007CC
:1018600008200121CDF8088001F0C9FD08204FF4BF
:101870002F7101F0D4FD05204FF42F7101F0CFFD41
:1018800040F2881900BF40F2AC1740F28615C2F250
:101890000009C2F20007C2F20005D9F820003A8818
:1018A0002B784FF001080026CDE900080720002121
:1018B000029601F0A4FD07204FF47A7101F0AFFD0C
:1018C000584602F07BFA5A2002F06CFAD9F8080068
:1018D0007A886B78CDE9000807200021029601F094
:1018E0008EFD07204FF47A7101F099FD012C16D17D
:1018F00040F28410C2F20000028840F26410C2F28A
:101900000000C0690021CDE900080620ED23029601
:1019100001F075FD06204FF4167101F080FD40F2D4
:101920003610C2F2000040F238114078C2F20001D5
:10193000C969BAF800200A38CDE90018C3B20820F6
:101940000121029601F05BFD08204FF42F7101F098
:1019500066FDD9F80C003A882B78CDE900080720FD
:101960000021029601F04BFD07204FF47A7101F03F
:1019700056FD532002F016FAD9F800007A886B78E9
:10198000CDE9000807200021029601F038FD07206C
:101990004FF47A7101F043FD40F62020C2F20000BE
:1019A000006800210222002303B0BDE8F04F09F0D7
:1019B000BBBF00BF280100202C0100203001002007
:1019C00074010020780100207C01002048010020E3
:1019D0004C010020500100202DE9F04F87B0034654
:1019E00040F27C60C2F2000010F80390455C875C16
:1019F0004DF62E0004910592C0F6000019461A46D5
:101A00008DF819908DF81A508DF81B70039302F021
:101A1000CDFC4DF61B00C0F6000049462A463B4669
:101A200002F0C4FC40F2601440F2361040F238116B
:101A300040F2861840F288150026C2F20004C2F275
:101A40000000C2F200010127C2F20008C2F2000544
:101A50004FF0000982464378086A22888B46CDE918
:101A6000000708200121029601F0C9FC40F2341061
:101A7000C2F2000002880DF1190010F8094040F28E
:101A80001410C2F20000037840F21810C2F20000F5
:101A900050F824000121CDE900070520029601F04D
:101AA000AEFC40F28410C2F20000028840F26210E4
:101AB000C2F20000037840F26410C2F2000050F855
:101AC00024000021CDE900070620029601F097FCD2
:101AD000B9F1000F20D008204FF42F7101F09FFCC6
:101AE00040F2AC14C2F200042869228898F8003051
:101AF000CDE9000707200021029601F080FC0720B5
:101B00004FF42F7101F08BFCDDE90410B9F1010FE6
:101B100008BF08461FE000BF06204FF42F7101F0F8
:101B20007EFC05204FF42F7101F079FC40F2AC14DB
:101B3000C2F200042869228898F80030CDE9000735
:101B400007200021029601F05AFC07204FF42F7164
:101B500001F065FC039802F031F95A2002F022F9F5
:101B6000A868628898F80130CDE9000707200021B5
:101B7000029601F044FC07204FF47A7101F04FFC0B
:101B8000264640F260149AF80100C2F20004DBF825
:101B90001C1022880A3800910121C3B208200027B6
:101BA0000191029701F02BFC08204FF42F7101F0F6
:101BB00036FCE868328898F80030009001200190E7
:101BC0000720002100270297012701F018FC0720B9
:101BD0004FF47A7101F023FC532002F0E3F8A86877
:101BE000728898F801300026CDE90007072000210F
:101BF000029601F004FC07204FF47A7101F00FFC0B
:101C000009F1010959465046B9F1030F7FF422AF9B
:101C100040F23410C2F20000028840F21410C2F206
:101C200000000378012540F674600024CDE900052A
:101C300005200121029401F0E2FB40F28410C2F27F
:101C40000000028840F26210C2F200000378062011
:101C50000021CDE90045029401F0D1FB40F620209F
:101C6000C2F20000006800210222002307B0BDE894
:101C7000F04F09F059BE00002DE9F04F87B040F257
:101C80007C67C2F20007059007EB8000465C845C2D
:101C9000C75C4DF62E00C0F600008DF819608DF877
:101CA0001A408DF81B70CDE9033202F07FFB4DF630
:101CB0001B00C0F60000314622463B4602F076FB90
:101CC00040F2641840F21819C2F20008C2F200098A
:101CD0004DF6430A58F8262059F82650C0F6000A57
:101CE000504631463346009502F060FB58F82420F8
:101CF00059F82460504621462346009602F056FBD0
:101D000058F8272059F82760504639463B46009638
:101D100002F04CFB40F2881540F2AC1740F28616F8
:101D2000C2F20005C2F20007C2F2000668683A88F3
:101D3000337801244FF0000ACDE900040720002188
:101D4000CDF808A001F05BFB07204FF47A7101F099
:101D500066FB4FF0000900BF0DF1190010F8098073
:101D60000598012808BFB8F1010F00F0938040F2F8
:101D70008410C2F20000028840F26210C2F2000039
:101D8000037840F26410C2F2000050F828000021ED
:101D9000CDE900040620CDF808A001F030FB40F2A8
:101DA0003410C2F20000028840F21410C2F20000A7
:101DB000037840F21810C2F2000050F82800012108
:101DC000CDE900040520CDF808A001F018FB40F291
:101DD0003610C2F20000037840F2381040F2601B67
:101DE000C2F20000C2F2000BC069BBF80020CDE9CE
:101DF000000408200121CDF808A001F000FB082014
:101E00004FF42F7101F00BFBE8683A883378CDE985
:101E1000000407200021CDF808A001F0F0FA072007
:101E20004FF47A7101F0FBFA5A2001F0BBFFA86869
:101E30003A883378CDE9000407200021CDF808A0C6
:101E400001F0DDFA07204FF47A7101F0E8FA40F270
:101E50003610C2F20000037840F23810C2F20000DF
:101E6000006ABBF80020CDE9000408200121CDF86C
:101E700008A001F0C4FA08204FF42F7101F0CFFA46
:101E80000598002800F0B4800598012800F0A9808A
:101E9000CCE000BFB04640F2341B40F21816C2F24C
:101EA000000BC2F20006BBF80020706840F2141B61
:101EB000C2F2000B9BF8003000F2DC50CDE90004C8
:101EC00005200121CDF808A001F099FA40F2841014
:101ED000C2F20000028840F26210C2F200000378F1
:101EE00040F26410C2F2000040680021CDE9000415
:101EF0000620CDF808A001F082FA40F2381040F236
:101F0000601640F2361BC2F20000C2F20006C2F2B6
:101F1000000BC06932889BF80030CDE9000408202E
:101F20000121CDF808A001F06AFA08204FF42F71C2
:101F300001F075FAE8683A8898F80030CDE90004B5
:101F400007200021CDF808A001F059FA07204FF42E
:101F50007A7101F064FA5A2001F024FFA8683A88E7
:101F600098F80030CDE9000407200021CDF808A042
:101F700001F045FA07204FF47A7101F050FA40F26F
:101F80003810C2F20000006A32889BF80030CDE9B8
:101F9000000408200121CDF808A001F030FA082043
:101FA0004FF42F7101F03BFA40F23410C2F20000FE
:101FB000028840F21410C2F20000037840F21810B8
:101FC000C2F2000040680121CDE900040520464628
:101FD000CDF808A001F013FA05204FF42F7101F09D
:101FE0001EFA3A8833786869CDE9000413E000BF2F
:101FF00030783A882969B8F1010FA0F10A0005D0BC
:10200000B8F1030F0CBF6431643901E0A1F5AF7181
:10201000CDE90014C3B207200021CDF808A001F0DB
:10202000EEF907204FF47A7101F0F9F95FFA89F1BE
:10203000049811B1012902D1039801F0BFFE532089
:1020400001F0B0FE307829683A880538CDE90014EF
:10205000C3B207200021CDF808A001F0D0F9072075
:102060004FF47A7101F0DBF909F10109B9F1030FBD
:102070007FF472AE40F62020C2F20000006800211A
:102080000222002307B0BDE8F04F09F04DBC00006C
:102090002DE9F04F85B0024640F27C60C2F20000AC
:1020A000855C049169A0114602F080F96AA0294676
:1020B00002F07CF940F26410C2F2000050F82510E2
:1020C00040F21810C2F2000050F8252065A002F07E
:1020D0006DF940F2861AC2F2000A40F2881740F207
:1020E000AC199AF80000C2F20007C2F20009396880
:1020F000B9F80020053801240026CDE90014C3B248
:1021000007200021029601F07AF907204FF47A7136
:1021100001F085F940F2601040F2381BC2F2000075
:1021200040F23618C2F2000B0288C2F20008DBF857
:102130001C0098F80030CDE9000408200121029627
:1021400001F05DF908204FF42F7101F068F99AF859
:102150000000F968B9F800200538CDE90014C3B2D1
:1021600007200021029601F04AF907204FF47A7106
:1021700001F055F95A2001F015FEB868B9F80020B1
:102180009AF80030CDE9000407200021029601F002
:1021900036F907204FF47A7101F041F940F26010EE
:1021A000C2F200000288DBF8200098F80030CDE988
:1021B000000408200121029601F021F908204FF4C3
:1021C0002F7101F02CF99AF8000039696FF0630360
:1021D000B9F80020012D04BF4FF6A263CFF6FF73BC
:1021E0000A38032D08BF32231944CDE90014C3B2C5
:1021F00007200021029601F002F907204FF47A71BE
:1022000001F00DF9049801F0D9FD532001F0CAFD49
:10221000B869B9F800209AF80030CDE90004072029
:102220000021029601F0EBF807204FF47A7101F0DB
:10223000F6F840F62020C2F20000006800210222D9
:10224000002305B0BDE8F04F09F06EBB436F6C6F23
:1022500072202564200D0A00446972202564200D37
:102260000A0000004D4F544F525F585F506F733D4E
:102270002535642020204D4F544F525F525F506FE0
:10228000733D2535640D0A00B0B584B040F2AC1042
:10229000C2F20000428840F28610C2F20000437889
:1022A00040F28810C2F20000006801250024CDE948
:1022B000000507200021029401F0A1F840F234103B
:1022C000C2F20000028840F21410C2F2000003784B
:1022D00040F67460CDE9000505200121029401F06B
:1022E0008EF840F28410C2F20000028841F2883079
:1022F000CDE9000506200021ED23029401F07FF8CE
:1023000040F26010C2F20000028840F23610C2F2C1
:102310000000437840F23810C2F20000C069012189
:10232000CDE900050820029401F069F807204FF478
:102330007A7101F074F808204FF42F7104B0BDE8F1
:10234000B04001F06CB870B584B041F23010C2F208
:10235000000000684FF4826181634FF4FA704FF41B
:10236000FA7602F039FF40F2AC10C2F20000428867
:1023700040F28610C2F20000437840F28810C2F2A8
:102380000000006801250024CDE900050720002198
:10239000029401F034F840F23410C2F200000288D6
:1023A00040F21410C2F20000037840F67460CDE9E8
:1023B000000505200121029401F021F840F284106B
:1023C000C2F20000028840F26210C2F200000378FC
:1023D00006200121CDE90065029401F010F840F2D9
:1023E0006010C2F20000028840F23610C2F2000013
:1023F000437808200121CDE90045029400F0FFFF59
:1024000004B070BD70B584B040F2AC11C2F20001EE
:102410004A8840F28611C2F200014B7840F28811DE
:10242000C2F200010968012604460025CDE9001624
:1024300007200021029500F0E2FF07204FF47A7197
:1024400000F0EDFF40F23810012CC2F2000006D07F
:10245000022C3BD100F1200440F6746002E000F150
:102460002404002040F23411C2F200010A8840F234
:102470001411C2F200010B78CDE9000605200121FC
:10248000029500F0BCFF40F28410C2F20000028806
:1024900040F26210C2F20000037806200021CDE96C
:1024A0000056029500F0ABFF40F26010C2F200004F
:1024B000028840F23610C2F2000043782068012101
:1024C000CDE900060820029500F099FF732001F085
:1024D00069FC08204FF42F7104B0BDE8704000F093
:1024E0009EBF2DE9F04184B040F2D0360C4605463F
:1024F000C2F20006032A7274F3730FD0022A04D0CA
:10250000012A04BF012030709CE0022B53D0012B24
:1025100040F098800620307000BF93E040F2341005
:10252000C2F20000028840F21410C2F200000378E8
:10253000012740F674604FF00008CDE90007052040
:102540000121CDF8088000F05AFF40F28410C2F259
:102550000000028840F26210C2F20000037840F2EC
:102560006410C2F2000000690021CDE900070620D6
:10257000CDF8088000F043FF40F26010C2F2000086
:10258000028840F23610C2F20000037840F23810A0
:10259000C2F20000006A0121CDE900070820CDF851
:1025A000088000F02CFF08204FF4FA7100F037FF8C
:1025B0000420307046E040F27868C2F2000807203C
:1025C000D8F800103070085D40F21811C2F2000116
:1025D00051F8200001270026CDE900070520012140
:1025E000C8228223029600F00AFFD8F8000040F2C9
:1025F0006411005DC2F2000151F820000021CDE914
:1026000000070620C8228223029600F0F8FE42F25C
:102610003410CDE90007072000214FF4FA72DC23C3
:10262000029600F0ECFE06204FF4167100F0F7FE63
:1026300005204FF4FA6100F0F2FE07204FF47A71A2
:1026400000F0EDFE41F6EC10C2F20000057041F61C
:10265000ED10C2F20000047004B0BDE8F08140F259
:10266000D030C2F200000130704742F62C70C2F246
:10267000000000787047000010B52DED048B86B087
:1026800042F24970C0F6000005F048FEFFF79DF8E1
:1026900040F27861C2F200010860234822A103AB36
:1026A0009FED248A9FED249AD1E9011207C340F2DD
:1026B000987003ACC2F2000000212246B0EE480A36
:1026C000F0EE490A04F0D6FF40F2E070C2F20000DA
:1026D00000212246B0EE480AF0EE490A04F0CAFF93
:1026E000164816A1D1E901128DE8070040F628002E
:1026F0006C46C2F2000000212246B0EE480AF0EE1D
:10270000490A04F0B7FF40F67000C2F20000002151
:102710002246B0EE480AF0EE490A04F0ABFF06B0DC
:10272000BDEC048B10BD00BF9A99193F000000005A
:10273000000000000080BB45CDCCCC3D6666663F06
:1027400000000000000000002DE9F04F81B02DEDE9
:10275000048B86B0417840F2D039C2F2000989F882
:102760001310478840F6FC42A9F81C708388C2F217
:102770000002A9F81E30117040F6FE42C2F20002BB
:10278000178040F60052C2F20002138099F8002030
:10279000013A062A00F21582DFE812F00700EA008B
:1027A0005A00AA003000BD01E8014DF2E160A9F82D
:1027B0001630BAB29BB2C0F60000A9F8147001F04E
:1027C000F5FDB9F81400002800F0EF8140F25464E0
:1027D000C2F200042178012900F0A282002940F011
:1027E000CF82A9F818000120B9F8161020704DF218
:1027F000A450C0F60000A9F81A10F4E1417899F845
:102800000A2089F80B108078914289F80D0018BFD2
:10281000904240F0D68189F804000844C0F10600D7
:1028200089F803004DF20D60C0F6000089F802102F
:1028300001F0BCFD99F8021099F8032099F80430D2
:10284000002089F80000C9F80500A9F8090033E064
:10285000417889F80B108078814289F80D0018BF03
:10286000002900F0AE81002800F0AB8189F8040057
:102870000844C0F1060089F8030041F6EC10C2F2EA
:1028800000000024047041F6ED10C2F20000047054
:102890004DF26960C0F6000089F8021001F086FD73
:1028A00099F8021099F8032099F8043089F800404B
:1028B000C9F80540A9F809404DF23830C0F60000CB
:1028C00001F074FD4DF21F70C0F6000001F06EFDC6
:1028D00040F62020C2F200000068002102220023FE
:1028E00006B0BDEC048B01B0BDE8F04F09F01CB898
:1028F0004DF28D60B9B29AB2C0F60000A9F814701A
:10290000A9F8163001F052FDB9F81410002900F0B2
:102910004C8140F25660C2F200000278002A00F0BA
:102920005681B9F818208B1A48BF5B42B9F81620B7
:10293000042B00F2F081B9F81A30D31A48BF5B4279
:10294000052B80F0E88141F6EC11C2F20001002471
:102950000C7041F6ED1104704DF2C250C2F200014C
:10296000C0F600000C7001F021FD89F80040A9E7D5
:102970004DF28D60B9B29AB2C0F60000A9F8147099
:10298000A9F8163001F012FDB9F81810B9F81A209C
:102990004DF29E60C0F6000001F008FDB9F8140089
:1029A000002800F00781B9F82620A9F81800B9F826
:1029B0001610801AB9F82820A9F81A10891A40F6BA
:1029C0000452C2F20002A9F82000A9F822101080D7
:1029D00040F6065205B2C2F20002118080EAE532EA
:1029E000A2EBE53399F82A209BB293420EB200F293
:1029F0000C8181EAE631A1EBE63189B2914200F225
:102A0000048141F6EC1441F6ED1599F80A00002610
:102A1000C2F20004C2F2000599F81310C9F8186058
:102A200026702E70002818BF01464DF2A970C0F61E
:102A3000000089F80A1001F0B9FC40F23410C2F22B
:102A40000000028840F21410C2F20000037801274F
:102A500040F67460CDE900070520012102964FF091
:102A6000050800F0CCFC40F28410C2F2000002889D
:102A700040F26210C2F20000037840F26410C2F229
:102A8000000000690021CDE900070620029600F051
:102A9000B6FC40F26010C2F20000028840F236102C
:102AA000C2F20000437840F23810C2F20000006A1F
:102AB0000121CDE900070820029600F0A0FC0820C3
:102AC0004FF42F7100F0ABFC277085F8008002F006
:102AD0006DFC40F25062C2F20002116842F62C74A2
:102AE000411A0220C2F200041160B1F5FA6F38BF3A
:102AF0000120207022784DF2AF60C0F6000001F096
:102B000055FC2078012840F03B824DF244600321BF
:102B1000C0F600003DE23804A9F81470A9F8163098
:102B200018BF5FEA034049D0B9F82E00B9F8301059
:102B300040F60452381A591AC2F20002A9F82000CD
:102B4000A9F82210108040F60652C2F2000211804D
:102B500041F6EC12C2F200021378022B00F0418120
:102B6000012B40F0408199F82B303CE1380418BF2C
:102B70005FEA034025D09AB2B9B20FF2707001F04B
:102B800015FC41F6ED18C2F2000898F80000032881
:102B900000F02E82022800F01182012840F02C82E1
:102BA000B9F83200B9F8344026E24DF29750C0F639
:102BB000000001E00FF2D07001F0F8FB002089F86E
:102BC000100006B0BDEC048B01B0BDE8F08FB9F881
:102BD0001620A9F81810012101704DF23260A9F8F1
:102BE0001A20C0F6000001F0E1FBB9F81810B9F89E
:102BF0001A204DF2FB60C0F6000006B0BDEC048B5D
:102C000001B0BDE8F04F01F0D1BB06FA80F000EB57
:102C1000D0704FF0000AAAEB60000490FDF77AFD37
:102C20008046701B00EBD07040100C460590FDF7FD
:102C300071FD834640F298709FEDE30BC2F20000F5
:102C40000F46C0F818A051EC100B9FEDE10B4FEAB6
:102C5000D17A6AF3DF7455EC106B40462146324658
:102C60002B46FDF72AFC9FEDDC0B54EC108B424603
:102C70002346FDF77BFBFDF771FD40F29871C2F230
:102C800000016AF3DF7788605846394632462B46A2
:102C9000FDF713FC42462346FDF768FBFDF75EFD9A
:102CA00040F2E074C2F20004A06004989FEDCC8A68
:102CB00000EE100A40F29875B8EEC00AC2F20005A4
:102CC000B1EE400A2846F0EE480A04F02FFC0598C1
:102CD000F0EE480A00EE100AB8EEC00AB1EE400A63
:102CE000204604F023FC95ED080ABDEEC00A10EE64
:102CF000100A94ED080AA9F82000BDEEC00A10EEF3
:102D0000100AA9F8220006B0BDEC048B01B0BDE8A2
:102D1000F04F04F0B7BDA9F81810A9F81A2050E731
:102D2000B9F81810411A48BF4942032900F2FD8042
:102D3000B9F81610B9F81A208A1A48BF5242032A65
:102D400000F2F38040F25562C2F2000201231370D8
:102D500099F8052099F81330002A18BF1346B9F8DE
:102D6000062089F80530002A18BF1046B9F8082057
:102D7000A9F80600002A18BF1146A9F80810DAE0E1
:102D800040F25565C2F200052978022900F042821E
:102D9000012940F075824DF29D50C0F6000001F00F
:102DA00005FB99F8051099F81320B9F814008A4228
:102DB00000F06682B9F80610091A48BF4942132983
:102DC00000F25E82B9F80810B9F81620891A48BFD7
:102DD0004942142980F054824DF23B70C0F6000045
:102DE00031E299F83E3005B280EAE537A7EBE537E6
:102DF000BFB2DBB29F420CB211D881EAE437A7EB35
:102E0000E437BFB29F420AD899F8123099F83F7060
:102E1000BB4280F0C1805A1C89F812207AE04FF042
:102E2000000A284689F812A0FDF774FC8046204667
:102E30000E46FDF76FFC059040F628009FED620BF3
:102E4000C2F200000F46C0F818A051EC100B9FED25
:102E5000660BC80F60F3DF765AEC10BB0490404657
:102E600031465A465346FDF79AFB9FED5B0B56ECF5
:102E7000108B42463346FDF779FAFDF76FFC40F6BA
:102E80002801C2F20001886004985A4660F3DF7797
:102E9000059839465346FDF782FB42463346FDF717
:102EA00065FAFDF75BFC40F6700600EE105A9FEDE8
:102EB0004C8A40F62805C2F20006B8EEC00AC2F2FB
:102EC0000005B060B1EE400A2846F0EE480A04F072
:102ED0002DFB00EE104AB8EEC00AB1EE400A3046B3
:102EE000F0EE480A04F022FB95ED080ABDEEC00A98
:102EF00010EE100A96ED080AA9F82000BDEEC00AEF
:102F000010EE100AA9F8220004F0BCFCB9F8200069
:102F1000B9F8221040F60452C2F20002108040F6C6
:102F20000650C2F2000001804BE640F25560C2F24A
:102F3000000002210170022020704DF2B350C0F653
:102F4000000001F033FA40F25560C2F2000001784F
:102F50004DF20B70C0F6000001F028FA99F8051048
:102F6000B9F80620B9F808304DF2C760C0F6000085
:102F700006B0BDEC048B01B0BDE8F04F01F016BA0D
:102F8000207802287FF41DAE4DF2E7500521C0F6EF
:102F9000000089F80010A1E141F6ED100024C2F212
:102FA000000004704DF2F470C0F60000147089F84F
:102FB0001240A9F82440A9F820407BE1B9F8360076
:102FC000B9F8384018E000BF000000000000000021
:102FD000000000000000D03F000000000000E83FBB
:102FE0000000000000BF00BF00000000000014400F
:102FF000B9F83A00B9F83C40B9F81E1087B2C1F1EF
:10300000F00100EE101AB9F81C10B8EEC00AC81B87
:1030100001EE100AF8EEC10A09F04EF89FEDB71A5A
:103020009FEDB72A20EE010A80EE020AB9F81E00D1
:103030009FEDB41AC0F1F000A6B230EE018A00EEA6
:10304000100AB9F81C00B8EEC00AC01B01EE100A45
:10305000B8EEC11A21EE011A20EE000AC6F1F00006
:1030600030EE010A01EE100AB1EEC00AB8EEC11A44
:1030700030EE419ABDEEC80A10EE100ABDEEC90A44
:10308000A9F8240010EE100AA9F8200018EE100A82
:10309000FDF751FB044619EE100A0D46FDF74BFBF8
:1030A00041EC100B98A022462B468DED000B01F051
:1030B0007DF9B9F92020B9F9241098A001F076F92A
:1030C000B9F81C00C01B48BF4042012816D8B9F807
:1030D0001E00801B48BF404201280FD899F81200FB
:1030E00099F83F10884280F0D280A2A001F05EF9EA
:1030F00099F81200013089F812007CE08BA001F0F1
:1031000055F9B2EE040A28EE001A29EE000A40F240
:10311000786ABDEEC11ABDEEC00AC2F2000A0027ED
:1031200011EE101A10EE102ADAF8000098F80030AC
:1031300089F81270A9F82410A9F82020C65C40F282
:103140006415C2F2000555F82640224445F82620B1
:10315000C25C40F21816C2F2000656F82240214422
:1031600046F82210C15C42F2486455F82120A24280
:10317000B8BF144624EAE47245F82120C15C41F648
:10318000583456F82120A242B8BF144624EAE4720B
:1031900046F82120C05C012455F820000021CDE92B
:1031A0000004062064223223029700F028F9DAF89E
:1031B000000098F800106422405C012156F82000BD
:1031C0003223CDE900040520029700F018F906200B
:1031D000C82100F024F90520C82100F020F9DAF810
:1031E000000098F80010415C52A055F8212056F8D4
:1031F000213001F0DBF8B9F8200040F60451C2F2AA
:1032000000010880B9F8240040F60251C2F2000122
:103210000880D6E45EA001F0C9F8B9F81400B9F846
:103220001810411A48BF4942042929D8B9F8161084
:10323000B9F81A20891A48BF4942052920D24DF20F
:103240005370C0F600000021C9F8181021702970D1
:1032500001F0ACF84DF2C870C0F6000001F0A6F81D
:10326000022089F8000002F0A1F840F25062014605
:10327000C2F200024DF28970C0F6000011602DE02C
:10328000B9F81610A9F81800A9F81A1099E498F8D6
:1032900000104DF26B70C0F6000001F087F841F6A7
:1032A000EC10C2F200000024047088F8004089F895
:1032B000124026A001F07AF889F8004003F0E9FDF9
:1032C00040F62020C2F20000006800210222002304
:1032D00008F02AFB4DF21F70C0F6000006B0BDECEE
:1032E000048B01B0BDE8F04F01F060B858202564B0
:1032F0002020592025640D0A0000000000003443FE
:10330000DB0F49400000B4C2645220252E336620F2
:1033100020645820252E33660D0A000064522025B3
:1033200064202064582025640D0A00004D6F7665E6
:103330000D0A00004469725B25645D2058202564F5
:103340002020522025640D0A0000000045584954F1
:10335000204150505F4D41495843414D5F5061728B
:1033600073655F434952434C455F43616C58520D4E
:103370000A0000007563537461626C65436F756E7B
:10338000742B2B0D0A00000058302059300D0A0014
:1033900042462D320D0A000010B580B179B140F2DD
:1033A000D034C2F20004227C1AB903F087FD012058
:1033B000207403F0F5FC10B10020207400BF10BD94
:1033C00080B50520002101F04DF9052001F004FF32
:1033D0000620002101F046F9052001F0FDFE07203E
:1033E000002101F03FF9052001F0F6FE0820002140
:1033F00001F038F90520BDE8804001F0EDBE10B5C0
:1034000084B0DDE906CE089CCDE900CE029401F03F
:10341000F3F8022004B0BDE8104001F0DDBE05F075
:10342000D9B8000080B582B040F6C000C2F20000FA
:10343000002100688DF807100DF10701002207F048
:10344000FDFF012809D19DF8071042F62170C2F254
:103450000000017002A000F0A9FF02B080BD00BF13
:10346000735F7563537461747573203A2025640D1E
:103470000A0000002DE9F04F8DB005A82021FCF7CF
:103480002AFF42F62178C2F2000898F800000022D4
:10349000A0F114011729049246D8DFE811F01800B2
:1034A0008A01C603C603C603C603C603C603C60312
:1034B000C603C603C603F9016F01DA00C60214028F
:1034C000C603C603C6039200F50077005C004DF208
:1034D000FC30C0F6000000F069FF0120FEF792FF0B
:1034E0004FF4967006F092FF01200421012201237F
:1034F000FEF7F7FF04AA00204FF0FF314FF0FF3333
:1035000008F05EFBFFF7B1F8014640F25760C2F2E7
:1035100000000170152088F800004DF2FD20C0F673
:10352000000000F043FF9CE20A2800F27E83DFE8FF
:1035300010F00B0059033E037C037C037C031F0344
:103540007C037C037C03C8024FF4FA700DB0BDE825
:10355000F04F06F05BBF4DF24020C0F6000000F0D7
:1035600025FFFEF791FE2B20FDF7B2FF04AA0020F5
:103570004FF0FF314FF0FF3308F022FB282088F88E
:1035800000004DF26920C0F6000068E24DF25910CB
:10359000C0F6000000F00AFFFEF776FE2A20FDF7D5
:1035A00097FF04AA00204FF0FF314FF0FF3308F0DF
:1035B00007FB282088F800004DF28210C0F60000BA
:1035C0004DE24DF2A630C0F6000000F0EFFE022002
:1035D000FEF718FF40F20800C2F20000007800F089
:1035E000EDFB02200221022201230125FEF779FFD3
:1035F00004AC00204FF0FF3122464FF0FF3300268D
:1036000008F0DEFA42F23410CDE90005072000216F
:103610004FF4FA72DC230296FFF7F1FE07204FF415
:103620007A71FFF7FCFE0220022102220123FEF73D
:1036300058FF00204FF0FF3122464FF0FF3308F0D3
:10364000BFFA292088F800004DF2C330C0F6000010
:1036500005E24DF2AA10C0F6000000F0A7FEFEF74A
:1036600013FE2220FDF734FF04AA00204FF0FF31A3
:103670004FF0FF3308F0A4FA242088F800004DF240
:10368000D010C0F60000CEE20FF2B86000F08EFE5F
:1036900040F2080640F2841840F262190025C2F296
:1036A0000006012740F6746BC2F20008C2F200095E
:1036B00004AC4FF0000A00BF16F80A10022927D107
:1036C00040F23410C2F20000028840F21410C2F23C
:1036D0000000037805200121CDE900B70295FFF72E
:1036E0008EFEB8F8002099F8003006200021CDE9C0
:1036F00000570295FFF783FE05204FF42F71FFF767
:103700008EFE06204FF41671FFF789FE0DE000BF14
:10371000022002220223FEF7E4FE00204FF0FF31D8
:1037200022464FF0FF3308F04BFA16F80A00BAF1C0
:10373000020F0FD006EB0A0149780AF1010AFEF7E1
:10374000A7FC00204FF0FF3122464FF0FF3308F076
:1037500037FAB1E70021FEF79BFC04AA00204FF0E6
:10376000FF314FF0FF3308F02BFA42F621710620AB
:10377000C2F2000108700FF2EC5070E14DF2F80057
:10378000C0F6000000F012FEFEF77EFD2120FDF7DE
:103790009FFE04AA00204FF0FF314FF0FF3308F0E6
:1037A0000FFA142088F800004DF21E10C0F6000039
:1037B00055E14DF2C820C0F6000000F0F7FDFEF71D
:1037C0004EFF0446012003AE012100BF625C90421F
:1037D00004D001310429F9D101E000BF3154013096
:1037E0000428F1D16178A278E3784DF23830C0F640
:1037F000000000F0DBFD9DF80D109DF80E209DF8F7
:103800000F304DF21930C0F6000000F0CFFD40F24D
:103810000807C2F200073878315CFDF7DBFF04AA25
:1038200000204FF0FF314FF0FF3308F0C9F940F2AC
:103830005760C2F200000078012800F0F9810228E8
:1038400040F049824DF24310C0F6000000F0AEFD9A
:103850007878315CFDF7BEFF04AA00204FF0FF31FD
:103860004FF0FF3308F0ACF9B878315C0139CAB2D7
:10387000022A08D8C90040F20312C9B2C0F20202FB
:1038800022FA01F1315440F6340006F0BFFD16E291
:103890004DF2AD00C0F6000000F088FDFEF7F4FC2C
:1038A0002020FDF715FE04AA00204FF0FF314FF055
:1038B000FF3308F085F9242088F800004DF2D3008A
:1038C000C0F60000AFE14DF2DF30C0F6000000F0BE
:1038D0006DFD0220FEF796FD40F20806C2F20006DA
:1038E000307800F06BFA0220022102220123012726
:1038F000FEF7F7FD04AC00204FF0FF3122464FF0F9
:10390000FF33002508F05CF942F23410CDE90007DE
:10391000072000214FF4FA72DC230295FFF76FFDB8
:1039200007204FF47A71FFF77AFD0220022102226C
:103930000123FEF7D6FD40F2841B40F2621840F6E8
:10394000746AC2F2000BC2F200084FF0000900BF17
:1039500000204FF0FF3122464FF0FF3308F030F9DE
:1039600016F80910022927D140F23410C2F20000E3
:10397000028840F21410C2F20000037805200121F1
:10398000CDE900A70295FFF73AFDBBF8002098F8B3
:10399000003006200021CDE900570295FFF72FFDEA
:1039A00005204FF42F71FFF73AFD06204FF41671F2
:1039B000FFF735FD0DE000BF022002220223FEF7D3
:1039C00090FD00204FF0FF3122464FF0FF3308F00A
:1039D000F7F8B9F1020F09D006EB090116F8090052
:1039E000497809F10109FEF753FBB1E7B0780021EE
:1039F000FEF74EFB04AA00204FF0FF314FF0FF33DB
:103A000008F0DEF840F27060C2F200000078232176
:103A1000022842F62170C2F2000008BF2121017085
:103A20004DF28230C0F6000019E04DF2F510C0F6FC
:103A3000000000F0BBFCFEF727FC2320FDF748FD4B
:103A400004AA00204FF0FF314FF0FF3308F0B8F820
:103A5000142088F800004DF21B20C0F6000000F092
:103A6000A5FC01F0A3FC40F25864C2F2000454F833
:103A7000041B401A44F6D351C1F26201A0FB0112AB
:103A80004BF27321C4F2E751A0FB0101900944F20B
:103A90004542C0F24442A0FB02238A0BC3EB031150
:103AA000A0EB81034DF24941C0F60001204608F029
:103AB000BDFA4DF27240C0F60000214600F076FCDF
:103AC000B3E040F27165C2F20005287838B94DF2D2
:103AD0005730C0F6000000F069FC0120287005ACEA
:103AE000204603F00FFE002800F09F804DF2574063
:103AF000C0F60000214608F089FA40F208010020D3
:103B0000C2F20001002200BFD3B2E35C2B2B08BF3E
:103B10000132D3B2E35C0132303B0B540130062852
:103B2000F2D1087840F27061C2F20001087005A875
:103B300003F044FE40F62020C2F20000006800219D
:103B4000022200230224002607F0EEFE04AA002031
:103B50004FF0FF314FF0FF3308F032F84DF26D3087
:103B6000C0F6000088F8004000F020FC2E705CE0F9
:103B700062A000F01BFCFEF787FB0620FDF7A8FC07
:103B800004AA00204FF0FF314FF0FF33002408F06B
:103B900017F863A088F8004000F008FC40F2846049
:103BA000C2F200000068802106F0D4FF59E74DF210
:103BB0009120C0F6000000F0F9FBFEF765FB022043
:103BC000FDF786FC04AA00204FF0FF314FF0FF33D1
:103BD00007F0F6FF142088F800004DF2AD20C0F683
:103BE000000020E001F0E2FB40F25861C2F2000167
:103BF00008604DF21640C0F6000000F0D7FBFEF75B
:103C000043FB0120FDF764FC04AA00204FF0FF31C4
:103C10004FF0FF3307F0D4FF0A2088F800004DF280
:103C20003040C0F6000000F0C1FB0DB0BDE8F08FE1
:103C30004DF29700C0F6000000F0B8FBC82006F077
:103C4000E5FB01200421032201230125FEF749FCA5
:103C500004AA00204FF0FF314FF0FF3307F0B0FF10
:103C6000012000BF215C8D4204D001300428F9D12D
:103C700001E000BF70550135042DF1D1002000BFD7
:103C800039184978725C012A04D0022A04D1012231
:103C900005E000BF032202E0032A08BF0222013030
:103CA00002287254ECD17878315CFDF793FD04AAB8
:103CB00000204FF0FF314FF0FF3307F081FFB8785D
:103CC000315CFDF787FD04AA00204FF0FF314FF073
:103CD000FF3307F075FF4DF2E320C0F6000000F05F
:103CE00065FB40F27060C2F20000007822210228D9
:103CF00008BF202188F80010B3E600BF454E5445A8
:103D000052205354415455535F50726F5365634171
:103D10007265615F325F53746172740D0A00000056
:103D200045584954205354415455535F50726F5372
:103D30006563417265615F325F53746172740D0A2D
:103D400000000000454E54455220535441545553F1
:103D50005F50726F53656341726561506C6163655A
:103D60000D0A000045584954205354415455535F9F
:103D700050726F53656341726561506C6163650D8C
:103D80000A00000041F6EC1441F6ED15C2F2000401
:103D9000C2F2000520782978FFF7FEFA462006F0E7
:103DA00035FBF7E710B5044603F02AFD732C08BF76
:103DB00010BDC820BDE8104006F028BB03F034BD9C
:103DC0007047000082B040F28464C2F200042068B0
:103DD000012106F019FF4FF0FF3500BF20680121D7
:103DE00000220023009506F05DFFC00718BFFDF715
:103DF000E3F90A2006F00AFBF0E7FDF7EDB9000051
:103E0000FDF7D2FC052006F001FBF9E740F2004483
:103E1000C4F2020440F20E0740F2726B40F2736883
:103E2000C2F20007C2F2000B012604F54065C2F29F
:103E300000080FF2141A00BF2046022101F0ACFA6C
:103E4000397839B9012805D18BF800604FF00009A5
:103E50000CE000BF01399BF80020B1FA81F149095B
:103E60001140B0FA80F2520901EA0209387028467E
:103E7000802101F091FA98F8001019B910B988F86A
:103E8000006023E00138B0FA80F0400901421DD003
:103E9000002088F80000322006F0B8FA2CA000F0CC
:103EA00085FA2846802101F077FA01281CD140F6D6
:103EB000C000C2F20000006840F27461C2F200016A
:103EC000002202230E7007F061F90DE0B9F1000F36
:103ED0000AD0322006F09AFA504600F067FA2046DF
:103EE000022101F059FA18B1322006F08FFAA3E747
:103EF00040F61420C2F20000006806F037FD0020F2
:103F000000210022002305F0C9FF0520002100F058
:103F1000A9FB052001F060F90620002100F0A2FBBA
:103F2000052001F059F90720002100F09BFB052036
:103F300001F052F90820002100F094FB052001F067
:103F40004BF904F0EBF800BF52455345540D0A00FD
:103F500053544152540D0A00FFF764FAFFF78AFAEE
:103F60000A2006F053FAF7E7FFF70CBF90B040F2D3
:103F7000846B40F6602AC2F2000B4FF0FF34C2F2AD
:103F8000000A00BFDBF8000080210022002300941B
:103F900006F088FE000640F1BA81DAF81000DAF87F
:103FA0002440DAF83850DAF84C60FCF7C4FB80465D
:103FB00020468946FCF7BFFB41EC180B2846FCF76E
:103FC000BAFB41EC190B3046FCF7B5FBDAF830428E
:103FD00041EC1A0B2046FCF7AEFB41EC1B0B84F0C6
:103FE0000040FCF7A8FBDAF8344241EC1C0B2046F9
:103FF000FCF7A1FB41EC1D0B84F00040FCF79BFBA0
:1040000041EC1E0BDAF89402FCF795FB41EC100B27
:104010004CF69670C0F6000042464B468DEC0E8B77
:104020008DED0E0B07F0F2FFDAE91E40DAE90476B7
:10403000FCF781FB8046DAF880000D46FCF77BFB3D
:1040400041EC180BDAF88400FCF775FB41EC190B16
:104050002046FCF770FB41EC1A0B3846FCF76BFB73
:1040600041EC1B0B3046FCF766FB41EC100B4CF6A9
:10407000CB70C0F6000042462B468DEC088B8DEDD0
:10408000080B07F0C3FFDAE93040DAE90976FCF7FC
:1040900052FB8046DAF8C8000D46FCF74CFB41ECB9
:1040A000180BDAF8CC00FCF746FB41EC190B204664
:1040B000FCF741FB41EC1A0B3846FCF73CFB41ECAA
:1040C0001B0B3046FCF737FB41EC100B4CF6F6703F
:1040D000C0F6000042462B468DEC088B8DED080B98
:1040E00007F094FFDAE94240DAE90E76FCF723FBA9
:1040F0008046DAF810010D46FCF71DFB41EC180B69
:10410000DAF81401FCF717FB41EC190B2046FCF719
:1041100012FB41EC1A0B3846FCF70DFB41EC1B0B74
:104120003046FCF708FB41EC100B4DF22100C0F6C5
:10413000000042462B468DEC088B8DED080B07F0F6
:1041400065FFDAE95440DAE91376FCF7F4FA8046C1
:10415000DAF858010D46FCF7EEFA41EC180BDAF8E4
:104160005C01FCF7E8FA41EC190B2046FCF7E3FA96
:1041700041EC1A0B3846FCF7DEFA41EC1B0B3046DB
:10418000FCF7D9FA41EC100B4DF24C00C0F60000E0
:1041900042462B468DEC088B8DED080B07F036FF61
:1041A00040F60850C2F200000068FCF7C4FA04466A
:1041B000DAF838020D46FCF7BEFA41EC100B56A0B7
:1041C00022462B468DED000B07F020FFDAF8140095
:1041D000DAF82860DAF83C70DAF85040FCF7ABFA0D
:1041E000804630460D46FCF7A6FA41EC180B3846DF
:1041F000FCF7A1FA41EC190B2046FCF79CFA41ECC4
:10420000100B4DF27700C0F6000042462B468DECB5
:10421000048B8DED040B07F0F9FEBAF91810BAF90A
:104220002C20BAF94030BAF954704CF65270C0F6EE
:104230000000009707F0EAFEDAF80800DAF81C1030
:10424000DAF83070DAF84460D0E90A23D1E90A01DB
:10425000D7E90A75D6E90A648DE883004CF66D70DB
:10426000C0F60000CDE9035605944FF0FF3407F087
:10427000CDFE40F21810C2F20000031D0ECB2AA0A2
:1042800007F0C4FE40F26410C2F20000031D0ECB22
:104290002BA007F0BBFEDAE98017DAE984232EA011
:1042A000CDE9001707F0B2FE40F61C50C2F2000044
:1042B000B0F9001040F61E50C2F20000B0F9002024
:1042C0002AA007F0A3FE40F6FE40C2F200000188DB
:1042D00040F60050C2F20000028829A007F096FEC6
:1042E00040F60450C2F20000B0F9001040F606504B
:1042F000C2F20000B0F9002024A007F087FE40F6CB
:10430000FC40C2F20000017824A007F07FFE3220BA
:1043100006F07CF836E600BF7B777A7D252E336683
:104320002C252E33660A00007B4D4F544F525F52AE
:104330005F506F737D25642C25642C25640A000072
:104340007B4D4F544F525F585F506F737D25642CE7
:1043500025642C25640A00007B6469735F736574AF
:104360007D256C6C642C256C6C640A007B675F6F28
:10437000627365727665727D25642C25640A00007F
:104380007B63616D7D25642C25640A007B63616D10
:104390005F647D25642C25640A0000007B63616DE9
:1043A0005F636F6C6F727D25640A000083B0B0B5E7
:1043B000ADF20C4D84460DF10B04CDF81C14CDF874
:1043C0002024CDF824340DF21C43204640F2014154
:1043D0006246019307F03EFE40F6B805C2F20005C2
:1043E00028684FF0FF3104F0AAFE06A0214607F02E
:1043F0000DFE286804F0FEFE0DF20C4DBDE8B04045
:1044000003B07047257300002DE9F04782B0002506
:104410000DF1070100208DF8075004F0E8FB00289B
:104420003FD042F6207640F2B83741F6E018C2F2AB
:104430000006C2F20007C2F200080DF107044FF0B7
:1044400001094FF0000A00BF307898B138783E2853
:104450001AD89DF807107B7A78683A78994215D176
:104460008554D8F80020AAB13978904735704FF0BC
:10447000010A0FE09DF807007978884204BF86F8AA
:1044800000903D7006E000BF357003E0531C3B70A8
:10449000815400BF0020214604F0A9FB0028D3D19D
:1044A00001E04FF0000A5FFA8AF002B0BDE8F08741
:1044B000FEE740F62050C2F2000000F03BBA10B513
:1044C00040F6CC0440F62050C2F2000440F6C4038B
:1044D000C2F20000C2F200030021224600F099F966
:1044E0002068A0F20121032988BF10BD013841F2E4
:1044F0007031C0B2C2F2000101EB801040F6C4017D
:10450000C2F20001BDE8104004F034BC40F648504F
:10451000C2F2000000F00EBAB0B540F6F00540F669
:10452000E80440F64850C2F20005C2F20004C2F2AC
:10453000000000212A46234600F06BF900B1B0BD0F
:104540006868010A40F65520C2F200000170217827
:10455000FD290CD161789F2909D1A1786B2906D159
:10456000007840F64C21C2F2000101220A5440F6C4
:10457000F000C2F200001C21FBF7ADFEB0BD40F61A
:104580003060C2F2000000F06FBC41F27000C2F275
:10459000000000F069BC40F67050C2F2000000F06C
:1045A00063BC41F2D000C2F2000000F05DBC40F6F6
:1045B000D050C2F2000000F057BC40F6B070C2F21A
:1045C000000000F051BC41F21000C2F2000000F007
:1045D0004BBC40F69060C2F2000000F045BC40F6D3
:1045E000F060C2F2000000F03FBC40F65070C2F232
:1045F000000000F039BC704770B584B040F64C261E
:104600000025C2F20006DDE9084E8DF80F50ADF826
:104610000D5035548DF80000FD208DF80100100A72
:104620008DF80300200E8DF80600200C8DF8070091
:10463000200ADDF828C08DF808006B208DF80210E4
:104640008DF80C0068460D218DF804208DF805309A
:104650008DF809408DF80AE08DF80BC003F026FFB5
:1046600004B070BD80B584B08DF8000049F6FE003E
:10467000ADF801006B2000228DF803108DF80400C6
:10468000684605210392CDF80920CDF8052003F0F6
:104690000DFF04B080BD000072B600BFFEE710B58C
:1046A00090F820E0D0F800C0AEF1010EBEF1010F8D
:1046B000DCF808E011D81EF0E05F14D0CEF30164FE
:1046C0000120A04018608B689BB1D1F804E0C86855
:1046D00040EACE0040EA030E0FE000F1240301207F
:1046E0004FF4802121E000F1240301204FF4001158
:1046F0001BE00868CB6843EA405E0CF5C07000EB35
:104700000413240140F804E00C69184640F8044FF3
:10471000097D012903D1016841F48071016050686D
:104720000121D8601068986000201A681143196050
:1047300010BD90F82020013A012A30D8B0B546F2D9
:104740000060C4F20000026842F0010202600268E8
:1047500022F47C520260D1F814E0CC694A6A036802
:10476000012C43EA022202600EF01F024FF0010307
:1047700003FA02F2C3696FEA020C23EA0203C3617F
:1047800013D02CBBC36803EA0C03C360CB688C88CE
:1047900044EA034300EBCE0423640B4611E0416A74
:1047A00041F48021416201207047C3681343C36014
:1047B0000B688C8844EA034300EBCE04236401F1C8
:1047C0000C038C681B8843EA044300EBCE0463644B
:1047D00043688D6943EA0204D1F810E0096A002DAC
:1047E00008BF03EA0C0444604369BEF1000F43EACA
:1047F000020408BF03EA0C040129446102D1C16923
:104800001143C161016821F0010101600020B0BDC8
:104810007047B0B590F82040013C012C7AD8D0F810
:1048200000C000290CBFDCF80C40DCF81040A407E5
:1048300076D00CF5D8754FEA011C55F80C4014F0F1
:104840000404946055F80CE005EB011C19BF4FEA15
:10485000DE0555604FEA5E551560DCF80050E6460F
:1048600005F00205D5605EF8044F24075ABFDEF854
:10487000004004F00F0408241461DEF80040002911
:10488000C4F307249461DEF800504FEA15455561E2
:10489000DCF808201A70026802EB0112D2F8B82185
:1048A0004FEA12225A70026802EB0112D2F8B821C4
:1048B0004FEA12429A70026802EB0112D2F8B82154
:1048C0004FEA1262DA70026802EB0112D2F8BC21E0
:1048D0001A71026802EB0112D2F8BC214FEA1222CF
:1048E0005A71026802EB0112D2F8BC214FEA12425F
:1048F0009A71026802EB0112D2F8BC214FEA1262EF
:10490000DA7100680CBF00F10C0100F11001002009
:1049100020220AE000F1240101204FF4802204E06B
:1049200000F1240101204FF400120B681A430A60C1
:10493000B0BD00002DE9F04F81B004460068466923
:10494000D0F804908768D0F80CB0D0F810A0D0F858
:104950001880F10701D1002549E0F9070ED00121A7
:10496000BA07816007D478071DD4380721D42046C0
:1049700000F020FA02E0204600F01DFA0025F805BC
:104980001CD520684FF48071BA05816007D4780582
:104990000CD4380510D4204600F00EFA0EE0204664
:1049A00000F00BFA0AE04FF40065E8E705F5005562
:1049B00004E04FF48055E2E705F58045F80316D58D
:1049C00020684FF48031BA03816007D4780309D49A
:1049D00038030AD4204600F0F1F908E0204600F040
:1049E000EEF904E005F5004501E005F580353007F6
:1049F00007D51BF0100004D0206845F40075102185
:104A0000C160700708D51BF0080005D02068082198
:104A1000C160204600F08CF9B00706D52068C06858
:104A2000800702D0204600F084F9700607D51AF0FE
:104A3000100004D0206845F4806510210161B006A3
:104A400008D51AF0080005D0206808210161204629
:104A500000F080F9F00606D520680069800702D0D2
:104A6000204600F078F9B00308D519F0100005D001
:104A7000206810214160204600F06EF9F00308D54F
:104A800019F0080005D0206808214160204600F098
:104A900097F9300440D55FEA49703AD506F4807042
:104AA00008EA102028435FEA8871014648BF41F0B8
:104AB0000201B20558BF01465FEA48700D4648BF83
:104AC00045F00405700558BF0D46300521D518F096
:104AD00070001ED010380009052815D8DFE800F056
:104AE000030F090C061245F008050DE045F080059E
:104AF0000AE045F0200507E045F0400504E045F0F8
:104B0000100501E045F480752068816921F070018D
:104B100081612068042141604DB1606A40EA05016D
:104B20002046616201B0BDE8F04FFFF771BE01B0F1
:104B3000BDE8F08FD0B1B0B5044690F8200010B9B0
:104B4000204600F06FF82068016841F00101016023
:104B500000F02CFC054600BF20684168C90707D15A
:104B600000F024FC401B0B28F6D312E00120704714
:104B7000016821F00201016000F018FC054600BF49
:104B80002068416889070BD500F010FC401B0B28FA
:104B9000F6D3606A052140F40030606201203EE0F7
:104BA000217E0268012922F0800208BF8032026063
:104BB000617E0268012922F0400208BF4032026093
:104BC000A17E0268012922F0200208BF2032026083
:104BD000E17E0268012922F0100218BF1032026043
:104BE000217F0268012922F0080208BF0832026012
:104BF000617F0268012922F0040208BF04320260CA
:104C0000D4E901C2D4E9033561691A432A43114347
:104C1000ACF101021143C16100200121606284F8FE
:104C20002010B0BD10B586B0044601A81421FBF7D2
:104C300052FB206846F60001C4F2000188422ED0E3
:104C400046F20041C4F2000188426FD140F288610F
:104C5000C2F200010A6843F63000C4F20200531C9D
:104C60000B6052B900210091016941F000710161AE
:104C7000016901F000710091009900210091016823
:104C8000142441F00101016000684FF4C05100F0AC
:104C90000100009000980020C4F2020032E043F6C8
:104CA00030000021C4F202000091026942F08062EB
:104CB0000261026902F080620092009A40F288620A
:104CC000C2F2000213685C1C14604BB900910269C7
:104CD00042F000720261026902F000720092009AD2
:104CE00000910168402441F00201016000684FF426
:104CF000405100F00200009000980020C4F2020031
:104D000000F58060019102210291002103910321AD
:104D100004910921059101A900F072FA20460521AC
:104D2000002200F0FAFB204600F0E7FB06B010BDC1
:104D3000704740F62051C2F20001884208BFFFF7D9
:104D4000BEBB40F64851C2F20001884218BF70470E
:104D5000FFF7E2BB7047704770470000B0B50446EC
:104D600090F8200001281CD1022084F8200020683F
:104D7000016821F00101016000F018FB054600BF49
:104D800020684068C00712D000F010FB401B0B28C1
:104D9000F6D3606A40F400306062052084F8200099
:104DA00003E0606A40F4002060620120B0BD002092
:104DB0006062B0BD7047704770477047704770477A
:104DC0007047000070B5866D044600F0EFFA94F865
:104DD0003510022925D105462068216C026822F091
:104DE00016020260426922F08002426109B9A16C98
:104DF00019B1016821F008010160016821F0010189
:104E0000016000BF20680068C0070ED000F0CEFA35
:104E1000401B0628F6D320206065032084F8350067
:104E20000CE080206065012008E0E06D3F2101FA80
:104E300000F0B060012084F835000020002184F8E3
:104E4000341070BD90F83510022909D1052180F881
:104E500035100068016821F00101016000207047F1
:104E60008021416501207047F0B581B004460020E3
:104E7000009040F2B030C2F200000268D4E916603F
:104E800048F2B51337680821C1F64E3381403942E4
:104E9000A2FB03250CD0226813685B0708D51368B2
:104EA00023F004031360B160616D41F0010161659D
:104EB00001218140394208D022685269120604D586
:104EC000B160616D41F002016165042181403942A8
:104ED00008D022681268920704D5B160616D41F074
:104EE0000401616510218140394217D020680268B1
:104EF000120713D5B16002680168520306D4C905D0
:104F000006D4016821F00801016001E0080301D422
:104F1000216C00E0A16C09B120468847E16D20209A
:104F200000FA01F23A423CD020680368DB0638D52B
:104F3000B26094F835300268052B1AD122F01602BF
:104F40000260426922F080024261226C0AB9A26CBE
:104F50001AB1026822F0080202603F208840B06067
:104F6000012084F83500216D002084F83400B9BB9D
:104F70003BE0016852030CD4C9050ED4016821F04E
:104F800010010160012084F83500002084F834000D
:104F900003E0080301D4616C00E0E16B09B1204635
:104FA0008847606D08B3606DC00717D0052084F88E
:104FB00035002068A90A026822F00102026000BFE1
:104FC000009A01328A42009202D80268D207F7D1D1
:104FD000012084F83500002084F83400E16C21B110
:104FE000204601B0BDE8F040084701B0F0BD000028
:104FF0002DE9F041044600F0D9F9C4B1054602207C
:1050000084F835000020216884F83400086820F016
:105010000100086021680868C0070BD000F0C6F9DD
:10502000401B0528F6D903252023032064E0012036
:10503000BDE8F081086848F23F02CFF21002D4E9DF
:10504000013500EA020C04F10C0898E8C10143EABA
:105050000C032B431843D4E9072E30433843104345
:10506000626A40EA0E00042A40EA08031CD1206B61
:10507000D4E90A2E40EA0E00184308604869BEF1E0
:10508000000F20F0030040EA020040F0040C11D0B1
:10509000B8F5005F35D0B8F1000F42D1022A43D0F5
:1050A000012A38D0002A3EE00B60486920F0070052
:1050B00040EA020C01F0F8004AF6AB221038CAF6BA
:1050C000AA22A0FB02231A094CF6C063C1F814C03F
:1050D000C0F600039A5C40F2FF335F284FF03F00B8
:1050E00021EA030100FA02F088BF0431C4E9161274
:1050F0008860002301250020636584F83550BDE8F1
:10510000F081032AD6D8012540230120DFE802F0F0
:10511000020C0203F0E7AEF1C070B0FA80F0400973
:1051200004E0032A04D3C5D1CEF300600028C1D027
:10513000012540230120DFE790F834C0BCF1010FC6
:1051400004BF0220704770B54FF0010C80F834C0E6
:10515000D0F858E090F835C0BCF1010F37D14FF0CE
:10516000020C80F835C04FF0000CC0F854C0D0F8E5
:1051700000C08468056CC06DDCF80060402C26F42B
:105180008026CCF80060CCF804300B4604BF1346F0
:105190000A463F2101FA00F0CCF80830CCF80C2088
:1051A000CEF80800DCF8000040F01600CCF8000053
:1051B0002DB1DCF8000040F00800CCF80000DCF86D
:1051C000000040F00100CCF80000002070BD00217C
:1051D00080F83410022070BDB0B5044600F0E6F847
:1051E000054640F23040C2F200000078611C18BF52
:1051F000044400BF00F0DAF8401BA042FAD3B0BD6F
:105200002DE9F04F83B000F1200200F13E4741F656
:105210000045009207F1FF77C4F2020508224FEA29
:10522000B726A84208BF072200254FF000084FF01C
:105230000009072E38BF4FEAB72201920F680122FA
:1052400002FA09FE17EA0E0A00F09980D1F804C0AC
:1052500003220CF003077E1E02FA08F4012E6FEA07
:10526000040B11D88468CE6804EA0B0406FA08F629
:1052700034438460446824EA0E06CCF3001404FA34
:1052800009F42643466003E0032F01D103271EE003
:10529000C6688C6806EA0B0604FA08F42643022F57
:1052A000C66014D16FF00302009E02EA590756F857
:1052B00007C005F01C040F220B69A2402CEA020271
:1052C000A3401A43F251D1F804C00CF0030702685E
:1052D00007FA08F302EA0B021A431CF4403F02608B
:1052E0004DD0002243F644030292C4F202031A682E
:1052F00043F6004442F480421A601A68C4F2010482
:1053000002F480420292029A29F003024FF6084CFE
:105310002244CFF6FF7C52F80C3005F00C070F2624
:10532000BE40B343019E06FA07F73B4342F80C30F8
:10533000A2684B6842EA0A0743F60C4CDE0258BFEB
:1053400022EA0A07A760C4F2010CDCF800209E02E2
:1053500042EA0A0758BF22EA0A07CCF800706268DE
:105360009E0342EA0A0758BF22EA0A0767602268DA
:10537000DB0342EA0A0758BF22EA0A07276009F15D
:10538000010908F10208B9F1100F05F104057FF4D5
:1053900055AF03B0BDE8F08F0069084018BF012089
:1053A0007047002A08BF0904816170474AF26840CB
:1053B000C2F200000068704740F230404AF2684193
:1053C000C2F20000C2F2000100780A6810440860CE
:1053D000704780B543F60040C4F20200016841F412
:1053E00000710160016841F480610160016841F46D
:1053F00080710160032000F0BBF80F2000F004F87A
:1054000000F05AF8002080BD70B586B0002543F644
:1054100040010195C4F202010A68044642F02002EC
:105420000A60096801A801F020010191019969460B
:1054300000F057F9049E002E18BF012600F070F905
:105440004DF68361B040C4F21B31A0FB01014FF067
:10545000FF3000EB914141F2781041F20042C2F27C
:105460000000C4F2000240F2E733C0E90021C0E9C5
:1054700002530561856100F0BAFB0546C8B941F2E7
:105480007810C2F2000000F0F8FB054688B937201A
:1054900000F033F80F2C0BD83720214600220025CE
:1054A00000F03BF840F23440C2F20000046000E03B
:1054B0000125284606B070BD82B0002043F64001A9
:1054C0000190C4F202014A6842F480424A604A688C
:1054D00002F480420192019A00900868002240F094
:1054E0008050086008680F2100F0805000900098FC
:1054F0006FF0010002B000F010B800280CD400F0EA
:105500001F01012202FA01F11C2202EAD0004EF230
:105510000012CEF200028150704710B54EF60C5CBE
:10552000CEF2000CDCF80030C3F3022E8EF007043C
:10553000042C28BF0424BEF103034FF0FF3E0EFAF3
:1055400004F438BF0023A14399400EFA03F39A43B1
:10555000114300F00F0200F160430901043A03F522
:1055600064436244002848BF02F10C03197010BD67
:105570004EF60C51CEF200010A684FF6FF031A40B6
:1055800060F30A2242F0806040F0FD7008607047CE
:10559000002872D02DE9F04143F60008C4F2020859
:1055A0000446D8F800040D4600F00700884207D2F0
:1055B00088F80054D8F8000400F00700A84266D12B
:1055C0002068810717D5410705D5D8F8081041F4A0
:1055D000E051C8F80810010705D5D8F8081041F4C3
:1055E0006041C8F80810D8F80810A26821F0F0014E
:1055F0001143C8F80810C00741D1D8F8000400F0E2
:105600000700A84207D988F80054D8F8000400F031
:105610000700A8423BD12068410707D5D8F80810F9
:10562000E26821F4E0511143C8F80810000708D5DA
:10563000D8F80800216920F4604040EAC100C8F8A9
:10564000080000F093F8D8F808104CF63C52C1F36B
:105650000311C0F60002515C40F2B03220FA01F1B1
:1056600040F23440C2F200000068C2F20002116051
:10567000FFF7CAFE0020BDE8F08101207047606896
:10568000811E022906D2D8F80010890108D4012011
:10569000BDE8F08101281FD1D8F800108903F6D5A4
:1056A000D8F8081021F003010843C8F80800FFF7F4
:1056B0007DFE064641F28837D8F80800616800F0A0
:1056C0000C00B0EB810F98D0FFF770FE801BB84242
:1056D000F2D90320BDE8F081D8F800108907D6D5AB
:1056E000DEE70F22026043F60802C4F202021368EA
:1056F00003F003034360136803F0F003836013684F
:1057000003F4E053C360D2F800C04FF4E05303EA5F
:10571000DC030361D2F8F80300F00700086070476B
:1057200040F2B03043F60801C2F20000C4F20201B8
:10573000006809684CF64C52C1F38221C0F60002A1
:10574000515CC840704740F2B03043F60801C2F2E5
:105750000000C4F20201006809684CF64C52C1F323
:105760004231C0F60002515CC840704710B543F6A4
:105770000404C4F20204606800F00C0142F200402C
:105780000829C0F2F40007D0042918BF10BD41F267
:105790000020C0F27A0010BD216801F03F022168AC
:1057A00023684902C3F3881105D4A1FB000100233B
:1057B000FAF716FD06E041F20020C0F27A004843F5
:1057C000B0FBF2F021680222C1F3014102EB41017A
:1057D000B0FBF1F010BD000000286BD02DE9F041C6
:1057E00082B00446007843F60006C007C4F2020601
:1057F0000CD0B06800F00C00042840F098803068AD
:10580000800303D56068002800F0AB802078800713
:105810001BD5B06810F00C0F09D0B06800F00C0078
:10582000082840F0A0807068400200F19C80306839
:10583000800703D5E068012840F093803068216933
:1058400020F0F80040EAC10030602078000733D42F
:105850002078400745D4A56955B3B06800F00C0026
:10586000082840F0B980012D7BD07068E16900F410
:1058700080028A4275D1216A00F03F028A4270D1CB
:1058800047F6C071626A0140B1EB821F69D1A16A1B
:105890004FF6FF73C903994300F44032A1F58031FC
:1058A0008A425ED1E16A00F07060B0EB016F58D1BE
:1058B0000020F3E0012070476069002878D00020C4
:1058C000C4F247200121C0F8801EFFF76FFD054696
:1058D000706F8007BCD4FFF769FD401B0228F7D921
:1058E000DBE0306C5FEAC0080AD400200190306C25
:1058F00040F080503064306C00F08050019001988E
:1059000047F20007C4F200073868C00542D438687F
:1059100040F480703860FFF749FD05463868C005DF
:1059200038D4FFF743FD401B0228F7D9B5E0B06833
:1059300000F00C00082803D1706840023FF55FAF0B
:1059400061683068B1F5803F07D0B1F5A02F40F015
:105950008E8040F480203060306840F480303060C9
:105960008EE001209AE0E068002840F20000C4F2D6
:10597000472053D001210160FFF718FD054600BF05
:10598000306880073FF55AAFFFF710FD401B022833
:10599000F6D982E0A168306F012905D005294FD1E1
:1059A00040F004003067306F40F00100306750E095
:1059B0000020C4F247200021C0F8801EFFF7F6FC4B
:1059C000054600BF706F80077FF542AFFFF7EEFC22
:1059D000401B0228F6D960E00027C4F247270020C8
:1059E0003866FFF7E3FC022D05460BD130688001D5
:1059F00057D5FFF7DBFC401B02284FF00300F5D919
:105A00004CE000BF306880017FF552AFFFF7CEFC5D
:105A1000401B02284FF00300F4D93FE00021016051
:105A2000FFF7C4FC054600BF306880077FF50DAF67
:105A3000FFF7BCFC401B02284FF00300F4D92DE017
:105A400020F001003067306F002920F0040030673B
:105A500048D0FFF7ABFC054641F28837306F80072E
:105A600051D4FFF7A3FC401BB842F7D915E020F44E
:105A7000803030603068002920F4802030604BD0C6
:105A8000FFF794FC054600BF306880033FF5BEAECB
:105A9000FFF78CFC401B6428F6D9032002B0BDE858
:105AA000F08104F11C052FCD084340EA8210D90390
:105AB0004FF6FF729143A1F5803140EA056008433B
:105AC000706001203866FFF771FC04463068800181
:105AD0003FF5EEAEFFF76AFC001B02284FF0030013
