:020000040800F2
:10000000E8AE0020A10100084D660008415F00082D
:10001000496600085D3600086972000800000000AB
:10002000000000000000000000000000B1690008AE
:10003000A337000800000000C1670008C5010008E0
:10004000BB010008BB010008BB010008BB010008A0
:10005000BB010008BB010008BB010008BB01000890
:10006000BB010008BB010008BB0100082B370008DA
:1000700037370008433700084F3700085B37000860
:100080006737000873370008BB010008BB01000890
:100090005F360008BB010008BB010008BB01000877
:1000A000BB010008BB010008BB010008BB01000840
:1000B000BB010008BB010008BB010008BB01000830
:1000C000BB010008BB010008BB010008BB01000820
:1000D000BB01000837720008437200084F72000825
:1000E000BB010008BB010008BB010008BB01000800
:1000F000BB010008BB010008BB0100087F370008F6
:10010000BB010008BB010008BB010008BB010008DF
:10011000CF6D0008DB6D0008BB010008196B0008FB
:10012000BB010008BB0100088B370008BB010008B9
:10013000BB010008BB010008BB010008BB010008AF
:10014000B9360008BB010008BB010008BB0100086C
:10015000BB010008BB010008973700085B7200086C
:10016000BB010008BB010008BB010008BB0100087F
:10017000BB010008BB010008BB0100080000000033
:10018000BB010008BB010008DFF810D000F046FCFE
:1001900000F0D8F800480047997E0008E8AE00203B
:1001A0000648804706480047FEE7FEE7FEE7FEE711
:1001B000FEE7FEE7FEE7FEE7FEE7FEE7076B000867
:1001C0008901000830B410B50348804730BCAE4602
:1001D00030BC0248004770476D820008416A000841
:1001E0002DE9F05F0546002092469B46884606466C
:1001F000814640241BE0284641464746224600F0FF
:10020000EEFA53465A46C01A914110D31146184689
:10021000224600F0D5FA2D1A67EB01084F46224618
:100220000120002100F0CCFA17EB00094E41201EFE
:10023000A4F10104DFDC484631462A464346BDE8C6
:10024000F09F2DE9F0410024061B254671F10006C0
:1002500005DA01240027D0EB070067EB0101161E29
:1002600073F1000605DA0027D2EB0702012567EBE0
:100270000303FFF7B5FF86460E4617469C46AC4281
:1002800004D00025D0EB050E65EB010624B100205B
:10029000D2EB000760EB030C704631463A466346EA
:1002A000BDE8F08140EA01039B0703D009E008C9DB
:1002B000121F08C0042AFAD203E011F8013B00F82B
:1002C000013B521EF9D27047D2B201E000F8012B77
:1002D000491EFBD270470022F6E710B513460A46C6
:1002E00004461946FFF7F0FF204610BD421C10F8E7
:1002F000011B0029FBD1801A7047034611F8012B1E
:1003000000F8012B002AF9D11846704730B5054690
:100310000020034600E05B1C934205D2EC5CC85C05
:10032000201A01D1002CF6D130BD70B506460AF076
:1003300015FE046805460A220021304600F071FAD5
:100340002C6070BD7CB507480090074801900546B9
:10035000009C04E02046016808448047241DAC420C
:10036000F8D17CBD60C4000864C400082DE9FE4FCC
:10037000804681EA0300C00F0C46009021F0004146
:1003800023F00045B8EB0200A94105D240462146C2
:1003900090461C460B46024623F00040104347D0CF
:1003A000270DC7F30A00C3F30A510290401A0190C7
:1003B00040286BDAC3F3130040F4801B0098924688
:1003C00020B10023D2EB030A63EB0B0B01985946D3
:1003D000C0F14002504600F0F3F906460D46504683
:1003E0005946019A00F00BFA10EB08006141002415
:1003F00087EA115284EAE7731A4340D0009A62B345
:10040000019A012A4FEA075215DC001B61EB020139
:100410004FF0004202EA0752CDE90042001C41F5CC
:10042000801132462B4600F07AFA03B0BDE8F08F17
:1004300040462146F9E7001B61EB0201001C41F533
:10044000801300185B412018A2F5001747EB030149
:1004500040EAD570B6196D4111E06D084FEA3606D5
:1004600045EAC0754FEA0752001B61EB0201001C10
:1004700041F5801149084FEA3000001951413246D8
:100480002B4603B0BDE8F04F00F03ABA00980122C5
:1004900040000023D0EB020263EBE073009821469A
:1004A0004FEAE074B8EB000061EB0401E9E783F088
:1004B00000435BE781F0004158E72DE9FE4F81EAF8
:1004C000030404F0004421F0004100944FF0000BBD
:1004D00023F0004350EA01045ED052EA03045BD0EB
:1004E000C3F30A54C1F30A552C44A4F2F334019423
:1004F000A0FB0254C1F3130141F48011C3F31303B1
:1005000043F4801301FB024400FB034E840A970A64
:1005100044EA815447EA8357A4FB076802958D0A91
:1005200005FB07854FEA932C04FB0C542705029D1D
:100530004FEA065847EA1637B5EB08056EEB070C8D
:10054000870E920E47EA811742EA8312A7FB020147
:10055000B6EB0B0164EB00042B0D43EA0C335E1881
:1005600044EB1C50DA465146E7FB0201C5F3130485
:100570004FEA0B3343EA14534FEA0432019C43EA37
:100580000603A4F10C040294009CCDE900B400F031
:10059000C6F903B0BDE8F08F00200146F9E72DE968
:1005A000F04D81EA030404F0004B21F000451446AD
:1005B0004FF0000A23F0004150EA050220D054EA2F
:1005C00001021DD0C5F30A570246C5F31303C1F358
:1005D0001300C1F30A5640F4801543F48013A7EBCF
:1005E0000608101BD64608F2FD3873EB050002D34F
:1005F00008F1010801E092185B41B8F1000F03DA3D
:1006000000200146BDE8F08D00204FF48011064621
:1006100084460EE0171B73EB050705D3121B63EB33
:10062000050306434CEA010C49084FEA30009218D2
:100630005B4150EA0107EDD152EA030012D082EA91
:10064000040083EA0501084305D0101BAB4106D224
:100650000122002306E000224FF0004302E06FF089
:10066000010253101AEB06004CEB085110EB0A0084
:1006700041EB0B01BDE8F04D00F042B930B5041E6E
:1006800071F1000404DB4FF00044404264EB0101CF
:10069000141E73F1000405DB1C464FF00043524268
:1006A00063EB0403101A8B4101D2012030BD0020FE
:1006B00030BD30B5041E71F1000404DB4FF000447E
:1006C000404264EB0101141E73F1000405DB1C467B
:1006D0004FF00043524263EB0403801A994101D268
:1006E000012030BD002030BDF0B4CA17CB0F504000
:1006F0005140C61841F100054FEAC3723146280047
:100700004FF0960303D0B623F0BC00F0CBB83046D0
:100710000021F9E70EB5C10F80EAE0700844CA076E
:10072000002140F233438DE80E000A460B4600F0EC
:10073000F6F803B000BD00F0004230F000400AD0EF
:10074000C10D01F56071C0F3160042EA0151C20803
:1007500040071143704700200146704701F00043F5
:1007600030B421F0004150EA010206D00A0DA2F592
:100770006072C1F31301002A02DC30BC0020704714
:10078000440F44EAC104C100E01830BC00EBC25081
:1007900000F07FB830B50B4601460020202201242E
:1007A00009E021FA02F59D4205D303FA02F5491B3F
:1007B00004FA02F52844151EA2F10102F1DC30BD55
:1007C000202A04DB203A00FA02F100207047914011
:1007D000C2F1200320FA03F3194390407047202A06
:1007E00004DB203A21FA02F00021704721FA02F3DB
:1007F000D040C2F120029140084319467047202A98
:1008000006DBCB17203A41FA02F043EAE07306E038
:1008100041FA02F3D040C2F1200291400843194648
:1008200070472DE9F04791460F4680460446002662
:1008300014F8015B2DB100F009F90068405DC007B4
:10084000F6D12B2D02D02D2D18D0641E4A463946E4
:10085000204600F0FFF827B13968A14201D1C7F85E
:10086000008071054FF002040BD54042002803DDE3
:100870000AF074FB0460A007BDE8F08746F48066C8
:10088000E4E70028F8DA0AF069FB04606FF0004042
:10089000F2E70029A8BF7047401C490008BF20F0BC
:1008A0000100704710B4B0FA80FC00FA0CF050EA76
:1008B000010404BF10BC704749B1CCF1200421FAF7
:1008C00004F411FA0CF118BF012121430843A3EBF2
:1008D0000C01CB1D4FEA00614FEA102042BF0020FF
:1008E00010BC704700EBC35010440029A4BF10BCDB
:1008F0007047401C490008BF20F0010010BC704741
:1009000010B5141E73F1000408DA401C41F1000117
:1009100092185B411A4301D120F0010010BD2DE96E
:10092000F04D92469B4611B1B1FA81F202E0B0FA65
:1009300080F220329046FFF743FF04460F4640EA1C
:100940000A0041EA0B0153465A46084313D01146A8
:1009500053EA010019D0C8F140025046FFF73FFFAB
:1009600005460E46504659464246FFF729FF0843C2
:1009700005D0012004E020463946BDE8F08D002076
:10098000054346EAE0762C4337430A986305E40AB8
:10099000A0EB08000022FD0A44EA47540A3002D5C1
:1009A00000200146E9E7010510196941DDE9084524
:1009B00000196941BDE8F04DA2E7C1F30A52C1F345
:1009C000130140F2FF3341F480119A4202DA002011
:1009D0000146704740F233439A42A2F2334202DCAE
:1009E0005242FFF7FCBEFFF7EBBE000030B5041E1D
:1009F00071F1000404DB4FF00044404264EB01015C
:100A0000141E73F1000405DB1C464FF000435242F4
:100A100063EB0403994208BF904230BD1CB50948FE
:100A20000090094801900546009C06E0E06840F00F
:100A3000010394E8070098471034AC42F6D3FFF75F
:100A4000A7FB000040C4000860C4000800487047CD
:100A5000D0BB00082DE9F05F8246007800271546DC
:100A60008B460AF10104B946302801D09DB113E04C
:100A700014F8010B0127782803D0582801D045B17C
:100A80000AE00DB1102D07D10027102514F8010B35
:100A900002E0082500E00A250026B0460EE005FB2E
:100AA000080005FB06F1012701EB10461FFA80F84C
:100AB000B6F5803F00D3B94614F8010B294600F083
:100AC00018F80028EBDABBF1000F05D00FB1641E57
:100AD00000E05446CBF80040B9F1000F06D00AF010
:100AE0003DFA02210160C81EBDE8F09F48EA0640B9
:100AF000FAE73A2800D2303820F02002412A01D308
:100B0000A2F13700884201D34FF0FF30704730B573
:100B10008C1810F8012B12F00F0301D110F8013BD3
:100B2000120906D110F8012B03E010F8015B01F85F
:100B3000015B5B1EF9D101E001F8013B521EFBD1C4
:100B4000A142E6D3002030BD40F65530C0F600008B
:100B500006F035BC70B584B004464CF2FC20C0F6FB
:100B60000000214602F0F8FC0FF2845120460822D2
:100B7000FFF7CCFB002800F0AE800FF2805120463A
:100B80000D22FFF7C3FB002800F0E6800FF27C5136
:100B900020460422FFF7BAFB002800F021810FF263
:100BA000745120460522FFF7B1FB002800F0278191
:100BB0000FF2685120460522FFF7A8FB002800F03D
:100BC00087820FF2605120460722FFF79FFB002823
:100BD00000F025810FF2545120460922FFF796FBC1
:100BE000002800F030810FF2505120460922FFF713
:100BF0008DFB002800F030810FF248512046092279
:100C0000FFF784FB002800F032810FF244512046A8
:100C10000422FFF77BFB002800F040810FF23851DF
:100C200020460822FFF772FB002800F043810FF2F4
:100C3000345120460922FFF769FB002800F0438168
:100C40000FF22C5120460922FFF760FB002800F02C
:100C500045810FF2285120460C22FFF757FB002850
:100C600000F046810FF2245120460A22FFF74EFB86
:100C7000002800F056810FF2205120460922FFF78C
:100C800045FB002800F069810FF2185120460B2225
:100C9000FFF73CFB002800F06C814CF20131C0F6FC
:100CA000000120460B22FFF731FB002800F06D8188
:100CB0004CF20D31C0F6000120460C22FFF726FB56
:100CC000002800F06F814CF2EB20C0F600002146B6
:100CD00002F042FCC9E04CF20220C0F6000002F033
:100CE0003BFC4CF2A220C0F6000002F035FC40F2C2
:100CF000F824C2F20004204608F0C0FB4CF2FC25A8
:100D0000C0F600052846214602F026FC20464FF496
:100D10000071FFF7E0FA4CF26620C0F6000002F026
:100D20001BFC204608F03CFB2846214602F014FC40
:100D300020464FF40071FFF7CEFA40F2FA44C2F2B7
:100D4000000440F21C502578C2F2000000688021A7
:100D5000BDB308F0AFFE36E040F60010C2F200006E
:100D6000D0F85802FFF7E7FC02464CF28D20C0F69F
:100D700000000B4602F0F0FB40F67430C2F20000B7
:100D8000B0F900104CF24220C0F6000002F0E4FB83
:100D900040F67630C2F20000B0F900104CF24E205E
:100DA000C0F6000002F0D8FB40F67230C2F200003C
:100DB000B0F900104CF23620C0F6000002F0CCFB77
:100DC00004E008F01DFE85F0010020700E214CF2B9
:100DD0005A20C0F6000004B0BDE8704002F0BCBB71
:100DE00040F6B800C2F20000006808F015FD0020CF
:100DF00000210022002307F0A7FF0121E7E74FF6BB
:100E0000D460CFF6FF7001464FF496724FF496739C
:100E100007F09AFF0A2008F04FFA0221D7E7E01DF9
:100E2000FFF783FA40F26472C2F2000240F204510A
:100E30001268C2F20001087010460022022309F075
:100E4000FBF80521C3E704F10900FFF76EFA40F251
:100E5000F941C2F2000107E004F10900FFF765FA69
:100E600040F2F841C2F2000108700021AFE704F13E
:100E70000900FFF75AFA034640F2F94040F2F84100
:100E8000C2F20000C2F2000100780A78DE170121E8
:100E9000CDE9003600F004FB042198E740F6C000DD
:100EA000C2F20000006800210222002309F092FC37
:100EB0000B218CE704F10800FFF737FA40F2FC4100
:100EC000C2F2000107E004F10900FFF72EFA40F238
:100ED000FB41C2F2000108700C2178E704F109001F
:100EE000FFF723FA40F20051C2F200010860F3E775
:100EF00040F2FC4040F2FB4140F20052C2F20000DE
:100F0000C2F20001C2F200020078097816680022DD
:100F10000123CDE9013232226423009601F03BFD2A
:100F2000DAE740F2FC4440F2FB4140F20052C2F2E8
:100F30000004C2F20001C2F20002207809781668AB
:100F400000220123CDE901320A220A23009601F092
:100F500022FD207801F02FFDBEE704F10900FFF724
:100F6000E4F940F6A071C2F20001096880B248635A
:100F700016E004F10B00FFF7D8F940F6A071C2F2B9
:100F80000001096880B2C8630AE004F10B00FFF7B2
:100F9000CCF940F6A071C2F20001096880B2886302
:100FA0000D2114E704F10C00FFF7BFF94FF0FF31FA
:100FB00051FA80F00B2800F28980DFE800F0061E6D
:100FC00012180C252C1B830F8108012016E002202B
:100FD00000F0A4FE7AE00220022117E001200321A4
:100FE00072E001200221032200F09EFC6EE002204C
:100FF00001210BE000F04CFF68E0022001210222F9
:10100000032300F077FD61E0022003210022012389
:1010100000F0B2FF5AE041F2883008F04DF90125A6
:1010200042F604100024CDE90005072000214FF40A
:1010300048720023029401F0AEFC072001F0BBFCD3
:101040005A2002F013F84FF49676072000214FF44F
:1010500048720023CDE90065029401F09CFC072052
:1010600001F0A9FC522002F012F84FF4C87008F009
:1010700023F940F6B830CDE90005072000214FF4F0
:1010800048720023029401F086FC072001F093FCD3
:10109000532001F0EBFF072000214FF4487200239A
:1010A000CDE90065029401F076FC072001F083FC95
:1010B000462001F0ECFF4FF4C87008F0FDF805E0A1
:1010C000032000E00220012100F060FB10217EE6F9
:1010D00040F6B800C2F20000006808F09DFB002056
:1010E00000210022002307F02FFE06F0BFF800BF0A
:1010F00053686F775461736B0000000053686F771B
:10110000506172616D6574657200000053746F7098
:101110000000000053746172740000005265736532
:10112000740000005374617475733D005768616CFE
:10113000654D6F643D0000005768616C65446972DD
:101140003D0000005768616C65506F733D00000002
:101150004E657874000000004D5F5A445469643D48
:10116000000000004D5F5A44546469723D00000065
:101170004D5F5A4454706F733D0000004D5F5A44F8
:101180005473746172746E77000000004D5F5A44AE
:101190005473746172740000536572766F4A61779C
:1011A0003D000000536572766F57726973743D009D
:1011B00080B502F0FFF920B102A0BDE8804002F046
:1011C000CBB980BD524543454956450D0A00000044
:1011D00088B040F2651008F06FF840F60014C2F2D3
:1011E00000040120207100F078FA9FEDA18A9FEDA4
:1011F000A19A4BF63C5804F1580504F10807002663
:10120000C0F60008206000BFF0B206F014FD47F8F9
:10121000140B284600214246B0EE480AF0EE490A77
:1012200005F0BAFA0136042E05F14805ECD19FED20
:10123000938A4BF630529FED900A04F5BC70C0F6CD
:1012400000020021F0EE480A0190002505F0A4FA02
:101250009FED8B9A4BF6205104F5E070C0F600012B
:10126000B0EE490A06F0BCFC4BF6285104F5E870D4
:10127000C0F60001B0EE490A06F0B2FC4BF624516C
:1012800004F5F070C0F60001B0EE490A06F0A8FCC3
:101290004BF62C5104F5F870C0F60001B0EE490A87
:1012A00006F09EFC00200021C4F27A40CCF27A4184
:1012B000C4E99201C4E99401204606F0BDFB9FED0C
:1012C0006A0B9FED70AA04AE0DF1080A5BEC107B6F
:1012D000204606F03DFA204606F0AEFB304603A954
:1012E000524623460495CDE9025506F015FA2079B9
:1012F00001283FD194ED910A94ED961A30EE410AFF
:1013000007F06CFD10EE100A20F00040B0EE409A9D
:10131000FFF711FA3A465B46FFF7CBF9002840F693
:101320007830F0EE480AC2F2000018BFF0EE490A29
:10133000C0ED000A0198B0EE480A05F089F99DED6C
:10134000042A94ED921AD4ED930A84ED8E0AB0EE3D
:10135000420A06F04DFC9DED032A94ED941AD4ED5B
:10136000950A84ED8C0AB0EE420A06F041FC84ED49
:101370008D0A01E094ED8D0A94ED8C1A94ED8E2A7D
:1013800031EE003A33EE024AB1EE444A8DED044AA2
:1013900030EE414A31EE400A30EE420A34EE424A23
:1013A00033EE423A8DED070A04F114000021B0EE4D
:1013B000480A8DED054A8DED063A00BF721892ED90
:1013C000001A043180ED001AB0EEC11AB4EE410AE1
:1013D000F1EE10FAB8BFB0EE410A102900F1140086
:1013E000ECD1B4EE4A0AF1EE10FA0DDD8AEE000AF5
:1013F000142000BF211891ED001A143020EE011ABC
:10140000642881ED001AF5D104F110084FF0580955
:1014100098EC020A04EB090005F01AF909F14809F1
:10142000B9F5BC7F08F11408F2D104F1780000216D
:1014300090ED000A6318BDEEC00A143110EE102AB8
:10144000502900F148001A83F2D1B4F91800B4F918
:101450002C10B4F94020B4F9543007F075FC052085
:1014600007F02AFF34E700BF9A9999999999B93FF3
:101470000080BB450000FA440000C84200000000A4
:101480000AD7A33B00007A4480B500200021002247
:10149000002307F059FCBDE8804006F005BC0000C1
:1014A0002DE9F041069D4FF47A74079EA5FB0437A1
:1014B000884606FB047140F60017C2F2000787F861
:1014C000640287F82022C7E98031C7E9823107F03A
:1014D00073FC97F82002102830D128463146FFF7D8
:1014E00003F997ED961A00EE100A002130EE410A3A
:1014F000C7E98011C7E98211C7F8440207F06EFC02
:1015000010EE100A20F00040FFF715F99FED1E0BBA
:1015100055EC104B22462B46FFF7B0F888BB97EDF1
:10152000910A97ED961A30EE410A07F057FC10EE3B
:10153000100A20F00040FFF7FEF8EBE7182000BF8C
:101540003C5214306828FBD1142007F0B5FE00206F
:1015500000210022002307F0F7FBB8F1000F18BFAD
:10156000BDE8F08140F6B0050024C2F2000500BFDE
:1015700028684FF0FF3108F07BFF312C04F10104A3
:10158000F6D3BDE8F08100BF9A9999999999B93F2E
:101590000138052800F29780B0B582B0DFE800F08E
:1015A000035C2946126500249623002000210422B2
:1015B000CDE90034FFF774FF4FF4167300200021CB
:1015C000012279E0002440F252350020002102225D
:1015D000CDE90054FFF764FF002000210422CDE98B
:1015E0000054FFF75DFF00940020002110220194B9
:1015F00064E000244FF4AF73002000210222CDE903
:101600000034FFF74DFF5A23002000211022CDE9BE
:101610000034FFF745FF40F2A463002000210122BF
:10162000CDE90034FFF73CFFB42311E0002440F281
:101630005235002000210222CDE90054FFF730FF8F
:10164000002000210422CDE90054FFF729FF5A238E
:101650000020002110222FE000234FF448740020C6
:1016600000210122CDE9004328E0002440F2523558
:10167000002000210222CDE90054FFF711FF0020D5
:1016800000210422CDE90054FFF70AFFB423002013
:1016900000211022CDE90034FFF702FF40F2A463DD
:1016A000002000210122CDE90034FFF7F9FE4FF4BC
:1016B000C873002000210422CDE90034FFF7F0FEBA
:1016C00002B0BDE8B04040F6C000C2F200000068C1
:1016D00000210222002309F07DB840F66830C2F2F2
:1016E0000000704741F2F160C0F6000005F0A7BEAF
:1016F00080B5808841F64C01C2F200010880B1F942
:101700000000FFF707F89FED0A0B53EC102BFEF7D4
:10171000D4FE9FED090B53EC102BFEF7CEFEFFF726
:101720001DF840F66831C2F20001086080BD00BFBC
:10173000000000000000003F000000000080664044
:1017400080B504F091FB002818BF012080BD40F255
:10175000145CC2F2000C0CEB800041708270C3700C
:10176000704740F21450C2F2000070470538C0B212
:1017700002288EBF002002A151F82000704700BF50
:101780000C00002028000020480000202DE9F04334
:1017900083B00C4601F073FC40F24808C2F2000826
:1017A000D8F8000001270026CDE900070720002116
:1017B0004FF4FA72E623029601F0EDF8072001F0EB
:1017C000FAF8601EC0B2022828D84EA151F82010A5
:1017D0004FA252F8205051A252F8209008680121DF
:1017E000CDE900070520C8226423029601F0D3F852
:1017F00028680021CDE900070620C822642302964C
:1018000001F0C9F80820012164223223CDE90097B4
:10181000029601F0C0F8082001F0CDF800BFD8F81A
:1018200020000021CDE9000707204FF4FA72E623DB
:10183000029601F0B0F8072001F0BDF85A2001F03F
:1018400015FCD8F808000021CDE9000707204FF467
:10185000FA72E623029601F09EF8072001F0ABF839
:10186000012C12D140F22800C2F20000C06901210F
:101870000027CDE9000106200021C8226423029739
:1018800001F089F8062001F096F8002401260820CE
:10189000012164223223CDE90046029401F07BF855
:1018A0004FF4FA6007F008FDD8F80C000021CDE9EC
:1018B000000607204FF4FA72E623029401F06BF859
:1018C000072001F078F8532001F0D0FBD8F8000091
:1018D0000021CDE9000607204FF4FA72E6230294B6
:1018E00001F059F8072001F066F840F6C000C2F296
:1018F0000000006800210222002303B0BDE8F0438D
:1019000008F068BF1C0000202000002024000020F8
:10191000380000203C000020400000205A05000054
:10192000CA0800005A0500002DE9F04F85B00346B3
:1019300040F21450C2F20000C45C455C865C4CF27C
:10194000FF30C0F6000019461A468DF811408DF898
:1019500012508DF8136001F0FFFD4CF2EC30C0F630
:10196000000021462A46334601F0F6FD40F20C09FC
:1019700040F2280840F2480B00260DF1110AC2F28D
:1019800000090124C2F20008C2F2000B002700BFC8
:10199000462001F07CFB1AF80750012159F8250078
:1019A000C822CDE9000405206423029600F0F3FF6D
:1019B00058F825000021CDE900040620C822642340
:1019C000029600F0E8FF4FF47A7007F075FC4FF4D0
:1019D000C870002F08BF4FF4FA7007F06DFCDBF8F9
:1019E00010000021CDE9000407204FF4FA72E6232D
:1019F000029600F0D0FF072000F0DDFF5A2001F032
:101A000035FBDBF808000021CDE9000407204FF486
:101A1000FA72E623029600F0BEFF072000F0CBFF2B
:101A2000522001F034FB4FF4C87007F045FCDBF89E
:101A30000C000021CDE9000407204FF4FA72E623E0
:101A4000029600F0A8FF072000F0B5FF532001F038
:101A50000DFB022F10D0DBF808000021CDE90004B7
:101A600007204FF4FA72E623029600F094FF072055
:101A700000F0A1FF01378BE7DBF80400012500240B
:101A8000CDE90005072000214FF4FA72E623029405
:101A900000F081FF072000F08EFF462001F0F7FAEA
:101AA000D9F808000121CDE900050520C8226423EA
:101AB000029400F070FFD8F808000021CDE900057D
:101AC0000620C8226423029400F065FF062000F07F
:101AD00072FF052000F06FFF40F6C000C2F2000068
:101AE000006800210222002305B0BDE8F04F08F095
:101AF00071BE00002DE9F04F85B0044640F214504D
:101B0000C2F2000000EB840010F80190865CC75C14
:101B10004CF2FF30C0F6000088468DF811908DF829
:101B200012608DF8137001F017FD4CF2EC30C0F626
:101B30000000494632463B4601F00EFD40F2280BBC
:101B400040F20C0AC2F2000BC2F2000A5BF8292034
:101B50005AF829504CF21440C0F6000049464B4652
:101B6000009501F0F9FC5BF826205AF826504CF25B
:101B70001440C0F6000031463346009501F0ECFCFD
:101B80005BF827205AF827604CF21440C0F600009A
:101B900039463B46009601F0DFFC404601F06FFA03
:101BA00040F2480600270DF111080125C2F2000697
:101BB0004FF0000A522001F06AFA18F80AB040F219
:101BC0000C00C2F2000050F82B000121CDE9000505
:101BD0000520C8226423029700F0DDFE40F22800B1
:101BE000C2F2000050F82B000021CDE900050620CC
:101BF000C8226423029700F0CEFE4FF47A7007F0FB
:101C00005BFBF0680021CDE9000507204FF4FA7274
:101C1000E623029700F0BFFE072000F0CCFE5A201A
:101C200001F024FAB0680021CDE9000507204FF447
:101C3000FA72E623029700F0AEFE072000F0BBFE2A
:101C4000462001F024FA4FF47A7007F035FB48463D
:101C5000BAF1020F1CBF08EB0A00407801F00FFA3E
:101C6000B4B1012C0DD170690021CDE90005072028
:101C70004FF4FA72E623029700F08DFE072000F081
:101C80009AFE532001F0F2F9BAF1020F14D124E0C8
:101C900030690021CDE9000507204FF4FA72E623F0
:101CA000029700F078FE072000F085FE532001F037
:101CB000DDF9BAF1020F13D0B0680021CDE90005BB
:101CC00007204FF4FA72E623029700F064FE072023
:101CD00000F071FE0AF1010A6CE7012C10D1043604
:101CE000306801210027CDE90001072000214FF4D1
:101CF000FA72E623029700F04EFE072000F05BFE2A
:101D000040F6C000C2F20000006800210222002359
:101D100005B0BDE8F04F08F05DBD000070B584B0BF
:101D2000044640F21450C2F20000055D49A021466D
:101D300001F012FC4AA0294601F00EFC40F22800F6
:101D4000C2F2000050F8251040F20C00C2F2000070
:101D500050F8252045A001F0FFFB204601F08FF947
:101D600040F24805C2F20005286801260024CDE9AA
:101D70000006072000214FF4FA72E623029400F0D7
:101D80000AFE072000F017FE0820012164223223FA
:101D9000CDE90046029400F0FEFD40F24C4007F011
:101DA0008BFAE8680021CDE9000607204FF4FA72AB
:101DB000E623029400F0EFFD072000F0FCFD5A201E
:101DC00001F054F9A8680021CDE9000607204FF47E
:101DD000FA72E623029400F0DEFD072000F0EBFD2E
:101DE00040F25A50CDE90006082001216422322336
:101DF000029400F0D0FD082000F0DDFD28690021EC
:101E0000CDE9000607204FF4FA72E623029400F0B1
:101E1000C2FD072000F0CFFD532001F027F96868CC
:101E20000021CDE9000607204FF4FA72E623029460
:101E300000F0B1FD072000F0BEFD40F6C000C2F288
:101E40000000006800210222002304B0BDE87040B9
:101E500008F0C0BC436F6C6F72202564200D0A002F
:101E6000446972202564200D0A0000004D4F544F34
:101E7000525F585F506F733D2535642020204D4FD1
:101E8000544F525F525F506F733D2535640D0A0009
:101E9000B0B584B040F24800C2F2000000680125ED
:101EA0000024CDE90005072000214FF4FA72E62353
:101EB000029400F070FD40F20C00C2F20000806855
:101EC0000121CDE900050520C8226423029400F019
:101ED00062FD06200021C8226423CDE9004502945A
:101EE00000F059FD0820012164223223CDE900458C
:101EF000029400F050FD072004B0BDE8B04000F0AF
:101F00005ABDB0B584B040F24800C2F2000000688B
:101F100001250024CDE90005072000214FF4FA72C5
:101F2000E623029400F037FD40F20C00C2F20000FC
:101F300080680121CDE900050520C82264230294B0
:101F400000F029FD06200021C8226423CDE90045C8
:101F5000029400F020FD40F25A50CDE9000508201F
:101F6000012164223223029400F015FD072004B001
:101F7000BDE8B04000F01FBDF0B583B041F65C068F
:101F8000C2F20006307041F65D0540F29020C2F2C8
:101F90000005C2F20000022A29704274C37303D004
:101FA000012A06D1012103E0012B04D00BB9052140
:101FB000017003B0F0BD40F210570622C2F20007D4
:101FC000027040F230603A68C2F200000068515C72
:101FD000012650F821000024CDE90006052001214A
:101FE000C8226423029400F0D6FC40F234603968C1
:101FF0002A78C2F200000068895CC82250F82100EB
:102000000021CDE9000606206423029400F0C3FC01
:1020100041F64C50CDE90006072000214FF4FA723A
:10202000DC23029400F0B7FC062000F0C4FC05207D
:1020300000F0C1FC072003B0BDE8F04000F0BBBCDD
:1020400040F29020C2F200000130704740F2902030
:10205000C2F20000807B704710B52DED048B86B076
:1020600042F25910C0F6000005F0F0F90520FFF724
:102070007DFB40F23061C2F2000108600620FFF7EC
:1020800075FB40F23461C2F2000108600720FFF7DF
:102090006DFB40F23861C2F200010860FFF761FB9E
:1020A00040F21051C2F200010860234822A103ABA4
:1020B0009FED248A9FED249AD1E9011207C340F2D3
:1020C0003C6003ACC2F2000000212246B0EE480A98
:1020D000F0EE490A04F060FB40F28460C2F20000B6
:1020E00000212246B0EE480AF0EE490A04F054FB03
:1020F000164816A1D1E901128DE8070040F2CC6024
:102100006C46C2F2000000212246B0EE480AF0EE12
:10211000490A04F041FB40F21470C2F200000021B1
:102120002246B0EE480AF0EE490A04F035FB06B04C
:10213000BDEC048B10BD00BFCDCC4C3F00000000B7
:10214000000000000080BB45CDCCCC3D6666663FFC
:1021500000000000000000002DE9F04F81B02DEDDF
:10216000028B86B0437840F29029C2F2000989F8C8
:102170001330428840F66C37A9F814208188C2F2E7
:102180000007A9F816103B7040F66E37C2F2000740
:102190003A8040F67037C2F20007398099F8007033
:1021A000013F052F00F27D83DFE817F00600850070
:1021B0003B007B03FA00030199F80560002E08BF7D
:1021C0001E46B9F8067089F80560002F08BF17464B
:1021D000B9F80800A9F80670002808BF0846B342FD
:1021E000A9F8080000F05D83BBB292B29A1A80B2DF
:1021F00089B248BF5242401A48BF4042132A98BF92
:10220000132800F24E834CF2C030C0F6000001F0FB
:10221000A3F94CF281300221C0F6000089F80010C9
:10222000ABE2427899F80A1089F80B2080788A424C
:1022300089F80D0018BF884240F033831318C3F1AA
:1022400006038A4289F8022089F8040089F80330DD
:1022500018BF884204D1401A18BF012089F80E0027
:102260004CF24030C0F6000001F076F9002099F8F9
:10227000021099F8032099F8043089F800004CF214
:102280009E00C0F6000001F067F94CF26530C0F620
:10229000000001F061F940F6C000C2F200000068E1
:1022A00000210222002306B0BDEC028B01B0BDE884
:1022B000F04F08F08FBA100477D0B9F81E00101A4A
:1022C000B9F82020A9F81800891A40F67432C2F231
:1022D0000002A9F81A10108040F6763205B2C2F258
:1022E0000002118080EAE532A2EBE53799F822205E
:1022F000BFB297420EB200F2B28081EAE631A1EBA2
:10230000E63189B2914200F2AA8041F65C0541F6BD
:102310005D0499F80A00C2F200050026C2F200042A
:102320002E702670002818BF03464CF2A130C0F66C
:10233000000089F80A3001F00FF9012740F6A66085
:10234000CDE9000705200121C822FA2302964FF0AB
:10235000050800F020FB4FF4FA50CDE900070620F5
:102360000021C822FA23029600F015FB4FF4AF605B
:10237000009008200121C82264230296019700F0F2
:102380000AFB4FF47A7006F097FF032089F80000EB
:102390004CF21A302F70C0F6000084F80080ECE197
:1023A000100418BF5FEA01401DD1002089F8100019
:1023B00077E2100418BF5FEA014000F0728241F634
:1023C0005D08C2F2000898F80000032800F0578169
:1023D000022800F04F81012840F05581B9F82A0009
:1023E000B9F82C504FE1B9F82E00121AB9F83000A4
:1023F000A9F81820081A40F67431C2F20001A9F8B1
:102400001A000A8040F6763114B2C2F20001088048
:1024100082EAE431A1EBE43299F8361092B28A42B2
:1024200005B200F2A28080EAE530A0EBE53080B290
:10243000884200F29A8041F65C00C2F2000000245B
:10244000047041F65D00C2F2000004700FF280409B
:1024500089F81240A9F81C40A9F818407BE106FA57
:1024600080F000EBD0704FF0000AAAEB60000490FF
:10247000FEF750F98046701B00EBD07040100C4600
:102480000590FEF747F9834640F23C609FEDC00B94
:10249000C2F200000F46C0F818A051EC100B9FEDDF
:1024A000BE0B4FEAD17A6AF3DF7455EC106B4046ED
:1024B000214632462B46FEF700F89FEDB90B54EC4F
:1024C000108B42462346FDF751FFFEF747F940F2D5
:1024D0003C61C2F200016AF3DF77886058463946F2
:1024E00032462B46FDF7E9FF42462346FDF73EFF05
:1024F000FEF734F940F28464C2F20004A06004984C
:102500009FEDEB8A00EE100A40F23C65B8EEC00A7F
:10251000C2F20005B1EE400A2846F0EE480A04F087
:1025200097F80598F0EE480A00EE100AB8EEC00AD7
:10253000B1EE400A204604F08BF895ED080ABDEE96
:10254000C00A10EE100A94ED080AA9F81800BDEEB2
:10255000C00A10EE100AA9F81A0006B0BDEC028BF2
:1025600001B0BDE8F04F04F035BA4FF0000A204644
:1025700089F812A0FEF7CEF8804628460E46FEF7F0
:10258000C9F8059040F2CC609FEDCB0BC2F2000081
:102590000F46C0F818A051EC100B9FEDC90BC80FE7
:1025A00060F3DF765AEC10BB0490404631465A4641
:1025B0005346FDF7F4FF9FEDC40B56EC108B4246DB
:1025C0003346FDF7D3FEFEF7C9F840F2CC61C2F204
:1025D0000001886004985A4660F3DF770598394611
:1025E0005346FDF7DCFF42463346FDF7BFFEFEF7DC
:1025F000B5F840F2147600EE104A9FEDBF8A40F223
:10260000CC64C2F20006B8EEC00AC2F20004B060A8
:10261000B1EE400A2046F0EE480A04F019F800EE48
:10262000105AB8EEC00AB1EE400A3046F0EE480A41
:1026300004F00EF894ED080ABDEEC00A10EE100A80
:1026400096ED080AA9F81800BDEEC00A10EE100AAF
:10265000A9F81A0004F0BEF9B9F8180040F6743170
:10266000C2F200010880B9F81A0040F67631C2F2D1
:10267000000115E1B9F82E00B9F8305003E0B9F8BF
:102680003200B9F8345089B2C1F1F00100EE101AED
:1026900091B286B2881B01EE100AB8EEC00AF8EEBD
:1026A000C10A08F05FFC9FED951A9FED952A20EE78
:1026B000010A80EE020AB9F816009FED921AC0F1E5
:1026C000F00030EE010A01EE100AB9F81400B8EE7D
:1026D000C11A801B02EE100AB8EEC22AA8B222EE7E
:1026E000022A21EE011AC0F1F00031EE021A02EEC8
:1026F000100AB1EEC11AB8EEC22A31EE421ABDEE8E
:10270000C02A12EE101A0AB2A9F81C1081EAE231AE
:10271000A1EBE231BDEEC12A89B212EE100A022904
:10272000A9F8180040D801B280EAE130A0EBE1300E
:1027300080B2032838D298F8001073A000F00CFF84
:1027400041F65C00C2F200000024047088F80040EA
:1027500089F8124074A000F0FFFE40F6C000C2F2FB
:102760000000006800210222002389F8004008F0E0
:1027700031F84CF26530C0F6000006B0BDEC028BBB
:1027800001B0BDE8F04F00F0E7BE00BF00BF00BFE2
:102790000000000000000000000000000000D03F2A
:1027A000000000000000E83FB2EE042A20EE020A1A
:1027B000BDEEC00A10EE101A21EE020A40F2105BC4
:1027C000BDEEC00AC2F2000B4FF0000A10EE102A54
:1027D00040F23463DBF8000098F8004089F812A05A
:1027E000A9F81C10A9F81820C2F200031B68075DA5
:1027F00053F827502A4443F8272040F23067C2F2AA
:1028000000073A68055D52F82560314442F825100A
:10281000015D42F2486553F82160AE42B8BF3546CB
:1028200025EAE57643F82160015D41F6583552F816
:102830002160AE42B8BF354625EAE57642F8216010
:10284000005D012453F820000021CDE9000406209A
:1028500032223223CDF808A000F09DF8DBF800000A
:1028600098F800103A68405C012152F820003222AA
:10287000CDE9000405203223CDF808A000F08BF844
:10288000C82006F019FDB9F8180040F67431C2F2FC
:1028900000010880B9F81C0040F67231C2F2000154
:1028A000088006B0BDEC028B01B0BDE8F08F00BF20
:1028B0000000000000BF00BF00000000000000009A
:1028C0000000000000001440000000000000E83F8D
:1028D00045584954204150505F4D41495843414D5E
:1028E0005F50617273655F436972636C655F4361DA
:1028F0006C4361720D0A00000000000000003443C8
:10290000DB0F49400000B4C22A2A2A2A2A2A2A2A8E
:10291000202564202A2A2A2A2A2A2A2A2A204361B0
:102920006C4F6B0D0A00000045584954204150502F
:102930005F4D41495843414D5F50617273655F433C
:102940004952434C455F43616C58520D0A000000E8
:1029500010B580B179B140F29024C2F20004227C1B
:102960001AB903F069FB0120207403F0EBFA10B1EF
:102970000020207400BF10BD80B50520002100F0AC
:1029800047FF0620002100F043FF07200021BDE89B
:10299000804000F03DBF10B584B0DDE906CE089C54
:1029A000CDE900CE029400F0FDFE0A2004B0BDE89F
:1029B000104006F081BC04F0A5BE000080B582B0D6
:1029C00040F26470C2F20000002100688DF8071028
:1029D0000DF10701002207F087FC012809D19DF8BD
:1029E000071042F69150C2F20000017002A000F000
:1029F000B3FD02B080BD00BF735F75635374617433
:102A00007573203A2025640D0A0000002DE9F0417D
:102A10008CB004A82021FDF75EFC40F20130ADF837
:102A20000C0040F2012042F69155C0F20320C2F2A0
:102A300000050290287800211D28019121DC15282D
:102A400000F28582DFE810F01600CF004901930004
:102A5000AD0075003501830283028302E900830221
:102A6000830283028302830283028302830283023E
:102A7000630180014FF4FA700CB0BDE8F04106F03C
:102A80001BBC272829DC1E2800F0DA811F2840F013
:102A90005E824CF20F00C0F6000000F05DFD40F2D7
:102AA0000550C2F20000007802AA60F3000260F351
:102AB0004102107851789278FEF736FF01AA002083
:102AC0004FF0FF314FF0FF3307F0D0FF04202870A4
:102AD0004CF22D00C0F6000037E2282800F01982E1
:102AE000292840F034824CF2E800C0F6000000F0E3
:102AF00033FD40F20554C2F20004207802AB60F3CB
:102B0000000360F3410319785A789B78FEF7F2FFCF
:102B100001AA00204FF0FF314FF0FF3307F0A6FF6E
:102B200020780521002818BF062129700FF2FC40EB
:102B30000BE24BF6B470C0F6000000F00DFDFFF79D
:102B4000A7F90520FEF724FD01AA00204FF0FF3170
:102B50004FF0FF3307F08AFF40F20550C2F2000049
:102B600001210170032028700FF29C40EDE14BF62B
:102B70006D70C0F6000000F0EFFCFFF789F903204C
:102B8000FEF706FD01AA00204FF0FF314FF0FF33A2
:102B900007F06CFF042028704BF69170C0F600001F
:102BA000D3E14BF62070C0F6000000F0D5FCFFF733
:102BB0006FF90420FEF7ECFC01AA00204FF0FF3172
:102BC0004FF0FF3307F052FF40F20550C2F2000011
:102BD0000078052100284BF6477018BF06212970A0
:102BE000C0F60000B1E14CF2B410C0F6000000F0F5
:102BF000B3FCFFF74DF90120FEF7CAFC01AA002043
:102C00004FF0FF314FF0FF3307F030FF0220287004
:102C10004CF2CE10C0F6000097E140F20656C2F228
:102C20000006307838B94CF2BD00C0F6000000F064
:102C300093FC0120307004AC204603F0F3FD002823
:102C400000F085814CF2E710C0F60000214608F044
:102C500033F9002002A90022D3B2E35C2B2B08BF7A
:102C60000132D3B2E35C0132303B0B540130062811
:102C7000F2D104A803F032FE40F6C000C2F2000018
:102C800000680021022200230224002707F0A2FD91
:102C900001AA00204FF0FF314FF0FF3307F0E6FEAE
:102CA0004CF2D300C0F600002C7000F055FC3770D9
:102CB0004DE1C3A000F050FCFFF7EAF80620FEF754
:102CC00067FC01AA00204FF0FF314FF0FF330024D2
:102CD00007F0CCFEC3A02C7037E14BF6D870C0F6DD
:102CE000000000F039FCFFF7D3F80220FEF750FC9B
:102CF00001AA00204FF0FF314FF0FF3307F0B6FE7E
:102D0000032028704BF6F470C0F600001DE14CF271
:102D10008110C0F6000000F01FFCFFF7F2F8012060
:102D2000042101220023FFF727F901AA00204FF018
:102D3000FF314FF0FF3307F099FE152028704CF259
:102D40009B10C0F6000000E14CF24A00C0F6000003
:102D500000F002FCFFF774F901216E46012200BF6A
:102D6000835C994204D00132042AF9D101E000BF0A
:102D7000725401310429F1D141788278C3784CF240
:102D80009E00C0F6000000F0E7FB9DF801109DF8E2
:102D900002209DF803304CF27F00C0F6000000F0E6
:102DA000DBFB01AC00204FF0FF3122464FF0FF3338
:102DB00007F05CFE40F20557C2F2000738780DF1CB
:102DC0000808414660F3000160F341010878315C76
:102DD000FEF7DCFC00204FF0FF3122464FF0FF33BE
:102DE00007F044FE38780121002818BF042118F8A4
:102DF0000100315CFEF7CAFC00204FF0FF31224693
:102E00004FF0FF3307F032FEFFF720F9002800F003
:102E1000A180012840F0B2803878022200284FF0CB
:102E2000020018BF052018F80000315C032900F0EB
:102E3000C480022900F09E80012900F09D809DE061
:102E40004CF26410C0F6000000F086FBFFF759F862
:102E500002200221022200230026FFF78DF801AC98
:102E600000204FF0FF3122464FF0FF3307F0FEFD08
:102E70000220012102220123FFF77EF800204FF0FB
:102E8000FF3122464FF0FF3307F0F0FD0120FEF73F
:102E900045FF00204FF0FF3122464FF0FF3307F08F
:102EA000E5FD0220022102220123FFF765F8002040
:102EB0004FF0FF3122464FF0FF3307F0D7FD0220DD
:102EC000FEF72CFF00204FF0FF3122464FF0FF337A
:102ED00007F0CCFD0220032102220123FFF74CF86A
:102EE00000204FF0FF3122464FF0FF3307F0BEFDC8
:102EF0000320FEF713FF00204FF0FF3122464FF072
:102F0000FF3307F0B3FD4CF207102E70C0F600003F
:102F10001BE04CF22B10C0F6000000F01DFBFEF78A
:102F2000F0FF0220022100220023FFF725F801AA6A
:102F300000204FF0FF314FF0FF3307F097FD2920BD
:102F400028704CF24810C0F6000000F005FB0CB0F1
:102F5000BDE8F08138780221002818BF052118F853
:102F60000100315C032905D0022905D0012905D1D2
:102F7000022102E0012100E0032131544FF4FA6004
:102F800006F09AF938780221002818BF052118F8B0
:102F90000100315CFEF7FAFB01AA00204FF0FF317F
:102FA0004FF0FF33002407F061FD4CF26500C0F6DE
:102FB000000000F0D1FA2C70C9E73254DEE700BF00
:102FC000454E544552205354415455535F50726FEF
:102FD000536563417265615F325F53746172740D52
:102FE0000A00000045584954205354415455535F3A
:102FF00050726F536563417265615F325F537461F4
:1030000072740D0A00000000455849542053544181
:103010005455535F50726F536563417265615F32FF
:103020005F526177417265610D0A0000455849544D
:10303000205354415455535F50726F53656341722E
:103040006561506C6163650D0A00000041F65C0427
:1030500041F65D05C2F20004C2F20005207829782D
:10306000FFF776FC642006F027F9F7E780B503F058
:103070005FFC4FF4C870BDE8804006F01DB980B514
:1030800003F068FC6420BDE8804006F015B903F049
:1030900077BC704782B040F21C54C2F20004206832
:1030A000012106F007FD4FF0FF3500BF2068012128
:1030B00000220023009506F04BFDC00718BFFEF765
:1030C00077F80A2006F0F8F8F0E7FEF781B800007C
:1030D000FEF736FB052006F0EFF8F9E7FFF76EFC88
:1030E000FFF794FC0A2006F0E7F8F7E7FFF7AEBF1A
:1030F0008EB00520FEF73AFB40F20851C2F2000103
:1031000008600620FEF732FB40F20C5140F21C5BD7
:1031100040F6001AC2F20001C2F2000B4FF0FF3479
:10312000C2F2000A086000BFDBF800008021002224
:103130000023009406F00CFD000640F1C181DAF88E
:103140001000DAF82440DAF83850DAF84C60FDF76D
:10315000F2FA804620468946FDF7EDFA41EC180B5D
:103160002846FDF7E8FA41EC190B3046FDF7E3FA83
:10317000DAF8304241EC1A0B2046FDF7DCFA41EC5C
:103180001B0B84F00040FDF7D6FADAF8344241EC2C
:103190001C0B2046FDF7CFFA41EC1D0B84F00040DC
:1031A000FDF7C9FA41EC100B4BF61560C0F60000B4
:1031B00042464B468DEC0C8B8DED0C0B07F07CFEE4
:1031C000DAE91E40DAE90476FDF7B5FA8046DAF866
:1031D00080000D46FDF7AFFA41EC180BDAF88400D9
:1031E000FDF7A9FA41EC190B2046FDF7A4FA41ECD2
:1031F0001A0B3846FDF79FFA41EC1B0B3046FDF7E2
:103200009AFA41EC100B4BF64560C0F600004246BE
:103210002B468DEC088B8DED080B07F04DFEDAE99F
:103220003040DAE90976FDF786FA8046DAF8C80018
:103230000D46FDF780FA41EC180BDAF8CC00FDF7EB
:103240007AFA41EC190B2046FDF775FA41EC1A0B9E
:103250003846FDF770FA41EC1B0B3046FDF76BFA70
:1032600041EC100B4BF67060C0F6000042462B4656
:103270008DEC088B8DED080B07F01EFEDAE942405D
:10328000DAE90E76FDF757FA8046DAF810010D46B6
:10329000FDF751FA41EC180BDAF81401FDF74BFA7F
:1032A00041EC190B2046FDF746FA41EC1A0B384663
:1032B000FDF741FA41EC1B0B3046FDF73CFA41ECBF
:1032C000100B4BF69B60C0F6000042462B468DEC7F
:1032D000088B8DED080B07F0EFFDDAE95440DAE9D1
:1032E0001376FDF728FA8046DAF858010D46FDF707
:1032F00022FA41EC180BDAF85C01FDF71CFA41ECFC
:10330000190B2046FDF717FA41EC1A0B3846FDF76A
:1033100012FA41EC1B0B3046FDF70DFA41EC100B95
:103320004BF6C660C0F6000042462B468DEC088B7B
:103330008DED080B07F0C0FD40F67830C2F20000BA
:103340000068FDF7F8F90446DAF838020D46FDF793
:10335000F2F941EC100B4BF61170C0F6000022465A
:103360002B468DED000B07F0A7FDDAF81400DAF814
:103370002860DAF83C70DAF85040FDF7DCF9804656
:1033800030460D46FDF7D7F941EC180B3846FDF7EE
:10339000D2F941EC190B2046FDF7CDF941EC100BA9
:1033A0004BF6F160C0F6000042462B468DEC048BD4
:1033B0008DED040B07F080FDBAF91810BAF92C2036
:1033C000BAF94030BAF954704BF6D150C0F600004B
:1033D000009707F071FDDAF80800DAF81C10DAF847
:1033E0003070DAF84460D0E90A23D1E90A01D7E95C
:1033F0000A75D6E90A648DE883004BF6EC50C0F6F6
:103400000000CDE9035605944FF0FF3407F054FD5A
:1034100040F20850C2F200000068031D0ECB2AA043
:1034200007F04AFD40F20C50C2F200000068031D94
:103430000ECB2BA007F040FDDAE98017DAE98423F0
:103440002DA0CDE9001707F037FD40F68C30C2F211
:103450000000B0F9001040F68E30C2F20000B0F962
:1034600000202AA007F028FD40F66E30C2F20000CE
:10347000018840F6703040F29025C2F20000C2F29E
:1034800000050288EB882F8925A0009707F014FD1E
:1034900040F67430C2F20000B0F9001040F6763009
:1034A000C2F20000B0F9002022A007F005FD40F6AE
:1034B0006C30C2F2000001786A7922A007F0FCFCAF
:1034C000322005F0F9FE2FE67B4D4F544F525F52EC
:1034D0005F506F737D25642C25642C25640A0000E1
:1034E0007B4D4F544F525F585F506F737D25642C56
:1034F00025642C25640A00007B6469735F7365741E
:103500007D256C6C642C256C6C640A007B675F6F96
:10351000627365727665727D25642C25640A0000ED
:103520007B63616D7D25642C25642C25642C2564CA
:103530000A0000007B63616D5F647D25642C256457
:103540000A0000007B63616D5F636F6C6F727D25A5
:10355000642C25640A00000083B0B0B5ADF20C4DB8
:1035600084460DF10B04CDF81C14CDF82024CDF8C1
:1035700024340DF21C43204640F20141624601937F
:1035800007F0BEFC40F25C75C2F2000528684FF0FF
:10359000FF3104F02AFD06A0214607F08DFC2868C3
:1035A00004F07EFD0DF20C4DBDE8B04003B0704755
:1035B000257300002DE9F04782B000250DF10701C9
:1035C00000208DF8075004F07AFA00283FD042F628
:1035D000905640F2782741F65008C2F20006C2F237
:1035E0000007C2F200080DF107044FF001094FF087
:1035F000000A00BF307898B138783E281AD89DF874
:1036000007107B7A78683A78994215D18554D8F8B2
:103610000020AAB13978904735704FF0010A0FE0C9
:103620009DF807007978884204BF86F800903D70C5
:1036300006E000BF357003E0531C3B70815400BFAF
:103640000020214604F03BFA0028D3D101E04FF0DE
:10365000000A5FFA8AF002B0BDE8F087FEE740F6A4
:103660009030C2F2000000F03BBA10B540F2707426
:1036700040F69030C2F2000440F26873C2F20000DB
:10368000C2F200030021224600F099F92068A0F25E
:103690000121032988BF10BD013841F2E011C0B2F9
:1036A000C2F2000101EB801040F26871C2F2000129
:1036B000BDE8104004F0C6BA40F6B830C2F20000CF
:1036C00000F00EBAB0B540F2947540F28C7440F63A
:1036D000B830C2F20005C2F20004C2F200000021BC
:1036E0002A46234600F06BF900B1B0BD6868010AB4
:1036F00040F6F500C2F2000001702178FD290CD1DE
:1037000061789F2909D1A1786B2906D1007840F60C
:10371000EC01C2F2000101220A5440F29470C2F29C
:1037200000001C21FCF7D7FDB0BD40F6A040C2F25E
:10373000000000F06FBC40F6E060C2F2000000F054
:1037400069BC40F6E030C2F2000000F063BC40F615
:103750004070C2F2000000F05DBC40F64040C2F292
:10376000000000F057BC40F62060C2F2000000F0FC
:1037700051BC40F68060C2F2000000F04BBC40F645
:103780000050C2F2000000F045BC40F66050C2F2AA
:10379000000000F03FBC40F6C050C2F2000000F054
:1037A00039BC704770B584B040F6EC060025C2F213
:1037B0000006DDE9084E8DF80F50ADF80D50355478
:1037C0008DF80000FD208DF80100100A8DF803002F
:1037D000200E8DF80600200C8DF80700200ADDF879
:1037E00028C08DF808006B208DF802108DF80C00B1
:1037F00068460D218DF804208DF805308DF80940BC
:103800008DF80AE08DF80BC003F0E8FE04B070BD3F
:1038100080B584B08DF8000049F6FE00ADF80100D7
:103820006B2000228DF803108DF8040068460521F6
:103830000392CDF80920CDF8052003F0CFFE04B0A7
:1038400080BD000072B600BFFEE710B590F820E022
:10385000D0F800C0AEF1010EBEF1010FDCF808E0B7
:1038600011D81EF0E05F14D0CEF301640120A04017
:1038700018608B689BB1D1F804E0C86840EACE00BC
:1038800040EA030E0FE000F1240301204FF48021F1
:1038900021E000F1240301204FF400111BE008682F
:1038A000CB6843EA405E0CF5C07000EB04132401C2
:1038B00040F804E00C69184640F8044F097D0129DE
:1038C00003D1016841F48071016050680121D86022
:1038D0001068986000201A681143196010BD90F8B4
:1038E0002020013A012A30D8B0B546F20060C4F277
:1038F0000000026842F001020260026822F47C5279
:103900000260D1F814E0CC694A6A0368012C43EAEA
:10391000022202600EF01F024FF0010303FA02F2CE
:10392000C3696FEA020C23EA0203C36113D02CBB04
:10393000C36803EA0C03C360CB688C8844EA034382
:1039400000EBCE0423640B4611E0416A41F4802170
:10395000416201207047C3681343C3600B688C88C1
:1039600044EA034300EBCE04236401F10C038C68AA
:103970001B8843EA044300EBCE04636443688D690B
:1039800043EA0204D1F810E0096A002D08BF03EAF7
:103990000C0444604369BEF1000F43EA020408BF0F
:1039A00003EA0C040129446102D1C1691143C161D8
:1039B000016821F0010101600020B0BD7047B0B581
:1039C00090F82040013C012C7AD8D0F800C00029A2
:1039D0000CBFDCF80C40DCF81040A40776D00CF5E6
:1039E000D8754FEA011C55F80C4014F0040494609B
:1039F00055F80CE005EB011C19BF4FEADE055560D8
:103A00004FEA5E551560DCF80050E64605F0020509
:103A1000D5605EF8044F24075ABFDEF8004004F07A
:103A20000F0408241461DEF800400029C4F30724C1
:103A30009461DEF800504FEA15455561DCF8082026
:103A40001A70026802EB0112D2F8B8214FEA122272
:103A50005A70026802EB0112D2F8B8214FEA124202
:103A60009A70026802EB0112D2F8B8214FEA126292
:103A7000DA70026802EB0112D2F8BC211A710268F6
:103A800002EB0112D2F8BC214FEA12225A710268ED
:103A900002EB0112D2F8BC214FEA12429A7102687D
:103AA00002EB0112D2F8BC214FEA1262DA7100680F
:103AB0000CBF00F10C0100F11001002020220AE0EF
:103AC00000F1240101204FF4802204E000F12401E0
:103AD00001204FF400120B681A430A60B0BD0000C9
:103AE0002DE9F04F81B0044600684669D0F8049093
:103AF0008768D0F80CB0D0F810A0D0F81880F10783
:103B000001D1002549E0F9070ED00121BA078160F3
:103B100007D478071DD4380721D4204600F020FAB6
:103B200002E0204600F01DFA0025F8051CD52068AB
:103B30004FF48071BA05816007D478050CD438053C
:103B400010D4204600F00EFA0EE0204600F00BFAEA
:103B50000AE04FF40065E8E705F5005504E04FF48E
:103B60008055E2E705F58045F80316D520684FF447
:103B70008031BA03816007D4780309D438030AD4AA
:103B8000204600F0F1F908E0204600F0EEF904E0EC
:103B900005F5004501E005F58035300707D51BF038
:103BA000100004D0206845F400751021C160700732
:103BB00008D51BF0080005D020680821C160204608
:103BC00000F08CF9B00706D52068C068800702D0E5
:103BD000204600F084F9700607D51AF0100004D0D2
:103BE000206845F4806510210161B00608D51AF0FF
:103BF000080005D0206808210161204600F080F906
:103C0000F00606D520680069800702D0204600F043
:103C100078F9B00308D519F0100005D020681021FC
:103C20004160204600F06EF9F00308D519F0080055
:103C300005D0206808214160204600F097F9300443
:103C400040D55FEA49703AD506F4807008EA102042
:103C500028435FEA8871014648BF41F00201B2057E
:103C600058BF01465FEA48700D4648BF45F004055D
:103C7000700558BF0D46300521D518F070001ED0D4
:103C800010380009052815D8DFE800F0030F090CEB
:103C9000061245F008050DE045F080050AE045F004
:103CA000200507E045F0400504E045F0100501E07F
:103CB00045F480752068816921F070018161206878
:103CC000042141604DB1606A40EA0501204661620D
:103CD00001B0BDE8F04FFFF771BE01B0BDE8F08F55
:103CE000D0B1B0B5044690F8200010B9204600F0DD
:103CF0006FF82068016841F00101016000F027FCC5
:103D0000054600BF20684168C90707D100F01FFCC5
:103D1000401B0B28F6D312E001207047016821F008
:103D20000201016000F013FC054600BF20684168F5
:103D300089070BD500F00BFC401B0B28F6D3606AFB
:103D4000052140F40030606201203EE0217E0268DF
:103D5000012922F0800208BF80320260617E026881
:103D6000012922F0400208BF40320260A17E0268B1
:103D7000012922F0200208BF20320260E17E0268A1
:103D8000012922F0100218BF10320260217F026860
:103D9000012922F0080208BF08320260617F026830
:103DA000012922F0040208BF04320260D4E901C2F2
:103DB000D4E9033561691A432A431143ACF1010286
:103DC0001143C16100200121606284F82010B0BD60
:103DD00010B586B0044601A81421FCF77CFA2068CF
:103DE00046F60001C4F2000188422ED046F200419E
:103DF000C4F2000188426FD140F22051C2F20001AA
:103E00000A6843F63000C4F20200531C0B6052B93A
:103E100000210091016941F000710161016901F027
:103E2000007100910099002100910168142441F073
:103E30000101016000684FF4C05100F001000090E2
:103E400000980020C4F2020032E043F63000002166
:103E5000C4F202000091026942F0806202610269CC
:103E600002F080620092009A40F22052C2F20002F8
:103E700013685C1C14604BB90091026942F0007237
:103E80000261026902F000720092009A00910168DA
:103E9000402441F00201016000684FF4405100F0FD
:103EA0000200009000980020C4F2020000F580603B
:103EB0000191022102910021039103210491092122
:103EC000059101A900F072FA20460521002200F0B8
:103ED000F5FB204600F0E2FB06B010BD704740F64F
:103EE0009031C2F20001884208BFFFF7BEBB40F626
:103EF000B831C2F20001884218BF7047FFF7E2BB39
:103F00007047704770470000B0B5044690F8200035
:103F100001281CD1022084F820002068016821F0CB
:103F20000101016000F013FB054600BF20684068F6
:103F3000C00712D000F00BFB401B0B28F6D3606AC1
:103F400040F400306062052084F8200003E0606ADD
:103F500040F4002060620120B0BD00206062B0BD6E
:103F60007047704770477047704770477047000050
:103F700070B5866D044600F0EAFA94F8351002290F
:103F800025D105462068216C026822F016020260E5
:103F9000426922F08002426109B9A16C19B101683D
:103FA00021F008010160016821F00101016000BFFA
:103FB00020680068C0070ED000F0C9FA401B062830
:103FC000F6D320206065032084F835000CE08020C3
:103FD0006065012008E0E06D3F2101FA00F0B0606B
:103FE000012084F835000020002184F8341070BDD1
:103FF00090F83510022909D1052180F835100068A4
:10400000016821F0010101600020704780214165B5
:1040100001207047F0B581B004460020009040F2C6
:104020007020C2F200000268D4E9166048F2B513AD
:1040300037680821C1F64E3381403942A2FB03257F
:104040000CD0226813685B0708D5136823F00403BB
:104050001360B160616D41F0010161650121814032
:10406000394208D022685269120604D5B160616DE8
:1040700041F00201616504218140394208D0226883
:104080001268920704D5B160616D41F00401616569
:1040900010218140394217D020680268120713D5D9
:1040A000B16002680168520306D4C90506D40168EC
:1040B00021F00801016001E0080301D4216C00E057
:1040C000A16C09B120468847E16D202000FA01F279
:1040D0003A423CD020680368DB0638D5B26094F8D9
:1040E00035300268052B1AD122F0160202604269AF
:1040F00022F080024261226C0AB9A26C1AB10268F5
:1041000022F0080202603F208840B060012084F85D
:104110003500216D002084F83400B9BB3BE0016814
:1041200052030CD4C9050ED4016821F010010160BE
:10413000012084F83500002084F8340003E00803EF
:1041400001D4616C00E0E16B09B120468847606DE5
:1041500008B3606DC00717D0052084F835002068CB
:10416000A90A026822F00102026000BF009A01322F
:104170008A42009202D80268D207F7D1012084F85F
:104180003500002084F83400E16C21B1204601B0F4
:10419000BDE8F040084701B0F0BD00002DE9F04156
:1041A000044600F0D4F9C4B10546022084F8350075
:1041B0000020216884F83400086820F001000860BD
:1041C00021680868C0070BD000F0C1F9401B052822
:1041D000F6D903252023032064E00120BDE8F08107
:1041E000086848F23F02CFF21002D4E9013500EA34
:1041F000020C04F10C0898E8C10143EA0C032B43BC
:104200001843D4E9072E304338431043626A40EA2A
:104210000E00042A40EA08031CD1206BD4E90A2EC0
:1042200040EA0E00184308604869BEF1000F20F014
:10423000030040EA020040F0040C11D0B8F5005F22
:1042400035D0B8F1000F42D1022A43D0012A38D02C
:10425000002A3EE00B60486920F0070040EA020CAB
:1042600001F0F8004AF6AB221038CAF6AA22A0FBE9
:1042700002231A094BF64853C1F814C0C0F60003D4
:104280009A5C40F2FF335F284FF03F0021EA0301C0
:1042900000FA02F088BF0431C4E9161288600023D6
:1042A00001250020636584F83550BDE8F081032ABC
:1042B000D6D8012540230120DFE802F0020C0203DA
:1042C000F0E7AEF1C070B0FA80F0400904E0032AD4
:1042D00004D3C5D1CEF300600028C1D0012540230E
:1042E0000120DFE790F834C0BCF1010F04BF0220C9
:1042F000704770B54FF0010C80F834C0D0F858E02A
:1043000090F835C0BCF1010F37D14FF0020C80F8A6
:1043100035C04FF0000CC0F854C0D0F800C084681D
:10432000056CC06DDCF80060402C26F48026CCF8CB
:104330000060CCF804300B4604BF13460A463F2108
:1043400001FA00F0CCF80830CCF80C20CEF80800C8
:10435000DCF8000040F01600CCF800002DB1DCF8CD
:10436000000040F00800CCF80000DCF8000040F04D
:104370000100CCF80000002070BD002180F834104E
:10438000022070BDB0B5044600F0E1F8054640F2E9
:10439000E820C2F200000078611C18BF044400BF8E
:1043A00000F0D5F8401BA042FAD3B0BD2DE9F04F84
:1043B00083B000F1200200F13E4741F60045009233
:1043C00007F1FF77C4F2020508224FEAB726A84298
:1043D00008BF072200254FF000084FF00009072E04
:1043E00038BF4FEAB72201920F68012202FA09FE94
:1043F00017EA0E0A00F09980D1F804C003220CF0ED
:1044000003077E1E02FA08F4012E6FEA040B11D88E
:104410008468CE6804EA0B0406FA08F63443846024
:10442000446824EA0E06CCF3001404FA09F4264387
:10443000466003E0032F01D103271EE0C6688C68A5
:1044400006EA0B0604FA08F42643022FC66014D1CC
:104450006FF00302009E02EA590756F807C005F004
:104460001C040F220B69A2402CEA0202A3401A434B
:10447000F251D1F804C00CF00307026807FA08F300
:1044800002EA0B021A431CF4403F02604DD00022A6
:1044900043F644030292C4F202031A6843F600444E
:1044A00042F480421A601A68C4F2010402F48042A5
:1044B0000292029A29F003024FF6084C2244CFF6EA
:1044C000FF7C52F80C3005F00C070F26BE40B343BA
:1044D000019E06FA07F73B4342F80C30A2684B688E
:1044E00042EA0A0743F60C4CDE0258BF22EA0A07EA
:1044F000A760C4F2010CDCF800209E0242EA0A0721
:1045000058BF22EA0A07CCF8007062689E0342EAAC
:104510000A0758BF22EA0A0767602268DB0342EAFB
:104520000A0758BF22EA0A07276009F1010908F1C2
:104530000208B9F1100F05F104057FF455AF03B07F
:10454000BDE8F08F002A08BF0904816170474AF274
:10455000D820C2F200000068704740F2E8204AF21A
:10456000D821C2F20000C2F2000100780A681044AB
:104570000860704780B543F60040C4F2020001684D
:1045800041F400710160016841F4806101600168DB
:1045900041F480710160032000F0BBF80F2000F0AF
:1045A00004F800F05AF8002080BD70B586B00025F0
:1045B00043F640010195C4F202010A68044642F044
:1045C00020020A60096801A801F020010191019907
:1045D000694600F058F9049E002E18BF012600F02D
:1045E00071F94DF68361B040C4F21B31A0FB0101AB
:1045F0004FF0FF3000EB914140F6E87041F200428D
:10460000C2F20000C4F2000240F2E733C0E9002128
:10461000C0E902530561856100F0BBFB0546C8B9DE
:1046200040F6E870C2F2000000F0F9FB054688B9D8
:10463000372000F033F80F2C0BD83720214600220A
:10464000002500F03BF840F2EC20C2F200000460CC
:1046500000E00125284606B070BD82B0002043F678
:1046600040010190C4F202014A6842F480424A606B
:104670004A6802F480420192019A00900868002280
:1046800040F08050086008680F2100F080500090D2
:1046900000986FF0010002B000F010B800280CD4B0
:1046A00000F01F01012202FA01F11C2202EAD000EF
:1046B0004EF20012CEF200028150704710B54EF655
:1046C0000C5CCEF2000CDCF80030C3F3022E8EF04E
:1046D0000704042C28BF0424BEF103034FF0FF3E5F
:1046E0000EFA04F438BF0023A14399400EFA03F3F5
:1046F0009A43114300F00F0200F160430901043AAC
:1047000003F564436244002848BF02F10C031970AA
:1047100010BD4EF60C51CEF200010A684FF6FF03B1
:104720001A4060F30A2242F0806040F0FD70086099
:1047300070470000002872D02DE9F04143F60008D0
:10474000C4F202080446D8F800040D4600F0070041
:10475000884207D288F80054D8F8000400F0070017
:10476000A84266D12068810717D5410705D5D8F83A
:10477000081041F4E051C8F80810010705D5D8F831
:10478000081041F46041C8F80810D8F80810A26871
:1047900021F0F0011143C8F80810C00741D1D8F842
:1047A000000400F00700A84207D988F80054D8F8A0
:1047B000000400F00700A8423BD12068410707D55C
:1047C000D8F80810E26821F4E0511143C8F8081045
:1047D000000708D5D8F80800216920F4604040EAB5
:1047E000C100C8F8080000F093F8D8F808104BF69C
:1047F000E832C1F30311C0F60002515C40F27022AE
:1048000020FA01F140F2EC20C2F200000068C2F28E
:1048100000021160FFF7C9FE0020BDE8F081012011
:1048200070476068811E022906D2D8F800108901FD
:1048300008D40120BDE8F08101281FD1D8F800106C
:104840008903F6D5D8F8081021F003010843C8F809
:104850000800FFF77CFE064641F28837D8F80800CA
:10486000616800F00C00B0EB810F98D0FFF76FFE8D
:10487000801BB842F2D90320BDE8F081D8F80010BF
:104880008907D6D5DEE70F22026043F60802C4F29C
:104890000202136803F003034360136803F0F0039C
:1048A0008360136803F4E053C360D2F800C04FF490
:1048B000E05303EADC030361D2F8F80300F00700D9
:1048C0000860704740F2702043F60801C2F2000011
:1048D000C4F20201006809684BF6F832C1F3822184
:1048E000C0F60002515CC840704740F2702043F6A9
:1048F0000801C2F20000C4F20201006809684BF628
:10490000F832C1F34231C0F60002515CC840704732
:1049100010B543F60404C4F20204606800F00C0110
:1049200042F200400829C0F2F40007D0042918BF61
:1049300010BD41F20020C0F27A0010BD216801F0E4
:104940003F02216823684902C3F3881105D4A1FB03
:1049500000010023FBF744FC06E041F20020C0F216
:104960007A004843B0FBF2F021680222C1F3014112
:1049700002EB4101B0FBF1F010BD000000286BD04C
:104980002DE9F04182B00446007843F60006C007E6
:10499000C4F202060CD0B06800F00C00042840F00D
:1049A00098803068800303D56068002800F0AB80F1
:1049B000207880071BD5B06810F00C0F09D0B068C4
:1049C00000F00C00082840F0A0807068400200F160
:1049D0009C803068800703D5E068012840F0938010
:1049E0003068216920F0F80040EAC100306020788A
:1049F000000733D42078400745D4A56955B3B06883
:104A000000F00C00082840F0B980012D7BD07068C0
:104A1000E16900F480028A4275D1216A00F03F0208
:104A20008A4270D147F6C071626A0140B1EB821FC1
:104A300069D1A16A4FF6FF73C903994300F440326C
:104A4000A1F580318A425ED1E16A00F07060B0EB7E
:104A5000016F58D10020F3E0012070476069002801
:104A600078D00020C4F247200121C0F8801EFFF753
:104A70006EFD0546706F8007BCD4FFF768FD401BD4
:104A80000228F7D9DBE0306C5FEAC0080AD40020C6
:104A90000190306C40F080503064306C00F08050F9
:104AA0000190019847F20007C4F200073868C0057A
:104AB00042D4386840F480703860FFF748FD0546FE
:104AC0003868C00538D4FFF742FD401B0228F7D9EB
:104AD000B5E0B06800F00C00082803D1706840020F
:104AE0003FF55FAF61683068B1F5803F07D0B1F541
:104AF000A02F40F08E8040F480203060306840F479
:104B0000803030608EE001209AE0E068002840F2BA
:104B10000000C4F2472053D001210160FFF717FDC8
:104B2000054600BF306880073FF55AAFFFF70FFD1D
:104B3000401B0228F6D982E0A168306F012905D018
:104B400005294FD140F004003067306F40F001007C
:104B5000306750E00020C4F247200021C0F8801EDA
:104B6000FFF7F5FC054600BF706F80077FF542AF89
:104B7000FFF7EDFC401B0228F6D960E00027C4F2E5
:104B8000472700203866FFF7E2FC022D05460BD1CF
:104B90003068800157D5FFF7DAFC401B02284FF040
:104BA0000300F5D94CE000BF306880017FF552AFBB
:104BB000FFF7CDFC401B02284FF00300F4D93FE083
:104BC00000210160FFF7C3FC054600BF3068800785
:104BD0007FF50DAFFFF7BBFC401B02284FF0030031
:104BE000F4D92DE020F001003067306F002920F06B
:104BF0000400306748D0FFF7AAFC054641F2883729
:104C0000306F800751D4FFF7A2FC401BB842F7D9A0
:104C100015E020F4803030603068002920F48020D6
:104C200030604BD0FFF793FC054600BF306880032F
:104C30003FF5BEAEFFF78BFC401B6428F6D903207E
:104C400002B0BDE8F08104F11C052FCD084340EA15
:104C50008210D9034FF6FF729143A1F5803140EAEB
:104C600005600843706001203866FFF770FC044659
:104C7000306880013FF5EEAEFFF769FC001B0228AB
:104C80004FF00300F4D9DBE7FFF761FC054641F282
:104C9000883700BF306F800707D5FFF758FC401BEF
:104CA000B8424FF00300F5D9CAE7B8F1000F3FF55D
:104CB000A4AE306C20F0805030649EE6FFF747FCD5
:104CC000054600BF306880037FF572AEFFF73FFCFA
:104CD000401B64284FF00300F4D9B1E770477047D8
:104CE00090F83C20012A4FF0020250D010B580F815
:104CF0003D200268D2F804E0D2F808C00C682EF01B
:104D00007003234341F2FF74C4F20004A2425360D3
:104D10000BDC40F2FF73C4F200039A4213DCB2F1E1
:104D2000804F27D040F2004315E040F2FF33C4F239
:104D300001039A4212DC41F60003C4F200039A42D6
:104D400018D0002312E040F60003C4F200039A4298
:104D500010D040F60043C4F2000309E044F200031F
:104D6000C4F201039A4205D040F20043C4F20103A9
:104D70009A4204D149682CF08003194391600121C3
:104D8000002280F83D1080F83C20BDE8104010461D
:104D9000704740B310B5044690F83D0028B9002094
:104DA00084F83C00204600F020F8022084F83D0002
:104DB0002068211D01F0B6FE012084F8460084F829
:104DC0003E0084F83F0084F8400084F8410084F8F5
:104DD000420084F8430084F8440084F8450084F8D5
:104DE0003D00002010BD01207047006840F6000122
:104DF000C4F20001884218BF704781B000200090C3
:104E000043F64000C4F20200016841F00401016071
:104E1000006800F004000090009801B0704790F81E
:104E20003D1001291CBF01207047022180F83D1070
:104E3000006841F2FF72C168C4F20002904241F082
:104E40000101C1600BDC40F2FF71C4F20001884235
:104E500013DCB0F1804F27D040F2004115E040F262
:104E6000FF31C4F20101884212DC41F60001C4F2B4
:104E70000001884218D0002112E040F60001C4F27F
:104E80000001884210D040F60041C4F2000109E060
:104E900044F20001C4F20101884205D040F2004111
:104EA000C4F20101884204D1816801F0070106299A
:104EB00003D0016841F0010101600020704790F8C3
:104EC0003C20012A4FF002026BD080B580F83D20D3
:104ED000D0F800C04FF67772DCF8083023EA0202FF
:104EE000CCF808200B684F2B28DC1F2B44DD202B2F
:104EF00045D0302B43D0402B40F0AC80D1F804E0BB
:104F0000C968DCF82030DCF8202022F00102CCF85F
:104F10002020DCF8182022F0F00242EA011123F0F0
:104F20000A0242EA0E02CCF81810CCF82020DCF875
:104F3000081041F0470121F0300127E06F2B32DDEE
:104F4000B3F5005F73D0B3F5805F21D0702B40F0D4
:104F50008180D1E901E3C968DCF8082043EA0E0347
:104F600022F47F4243EA01211143CCF80810DCF817
:104F7000081041F0770109E00BB1102B6AD1DCF881
:104F8000081021F07001194341F00701CCF8081016
:104F90000022012180F83D10002180F83C10BDE87E
:104FA000804010467047502B21D0602B52D1D1F851
:104FB00004E0C968DCF82030DCF8202022F0100280
:104FC000CCF82020DCF8182022F4704242EA0131AB
:104FD00023F0A00242EA0E12CCF81810CCF82020E0
:104FE000DCF8081041F0670121F01001CEE7D1F89C
:104FF00004E0C968DCF82030DCF8202022F001024F
:10500000CCF82020DCF8182022F0F00242EA01114E
:1050100023F00A0242EA0E02CCF81810CCF8202045
:10502000DCF8081041F0570121F02001AEE7D1E98A
:1050300001E3C968DCF8082043EA0E0322F47F424A
:1050400043EA01211143CCF80810DCF8081041F4C0
:1050500080419BE701229CE7704770B504460068D9
:10506000C5680669B10716D515F0020113D06FF0B7
:1050700002010161012121778069800703D0204668
:10508000FFF7EAFF05E0204600F0B5F8204600F003
:105090002CF900202077700718D515F0040015D0E2
:1050A00020686FF00401016102212177806910F40A
:1050B000407F03D02046FFF7CFFF05E0204600F0F9
:1050C0009AF8204600F011F900202077300717D514
:1050D00015F0080014D020686FF008010161042168
:1050E0002177C069800703D02046FFF7B5FF05E0B0
:1050F000204600F080F8204600F0F7F800202077E6
:10510000F00618D515F0100015D020686FF01001CA
:10511000016108212177C06910F4407F03D0204647
:10512000FFF79AFF05E0204600F065F8204600F002
:10513000DCF800202077F00718BF15F0010006D03A
:1051400020686FF001010161204600F04EF9300641
:1051500009D515F0800006D020686FF0800101614C
:105160002046FFF7BBFD700609D515F0400006D0BC
:1051700020686FF040010161204600F040F9B00660
:1051800058BF70BD15F0200008D021686FF02002D4
:1051900020460A61BDE87040FFF7A1BD70BDB0B503
:1051A00086B0044640F6000501A81421C4F20005AB
:1051B000FBF791F82068A8421BD1002043F630018C
:1051C0000090C4F202010A6842F008020A6009680D
:1051D00001F00801009100994FF470410191022102
:1051E000CDE90210CDE9040105F5013001A9FFF771
:1051F000DDF806B0B0BD7047B0B5044690F83C008D
:10520000012804BF0220B0BD0D464FEAB2010120C3
:10521000032984F83C0037D8DFE801F002220A1A9B
:105220002068294601F014FD206850F8181F06E098
:105230002068294601F071FD206850F81C1F41F0DC
:1052400008010160016821F004010160296917E08B
:105250002068294601F094FD206850F81C1F06E0E4
:105260002068294601F025FD206850F8181F41F4F8
:1052700000610160016821F480610160296909020F
:105280000268114301600020002184F83C10B0BD89
:1052900040B310B5044690F83D0028B9002084F8CA
:1052A0003C00204600F020F8022084F83D002068F1
:1052B000211D01F037FC012084F8460084F83E00EF
:1052C00084F83F0084F8400084F8410084F84200EC
:1052D00084F8430084F8440084F8450084F83D00D5
:1052E000002010BD0120704770477047A1B104290C
:1052F00004D0082914BF4122402200E03F22825CF2
:10530000012A11D10222082910D0042914BF80F8E3
:10531000412080F83F200BE090F83E20012A03D185
:10532000022280F83E2003E00120704780F84020F0
:10533000006801F01F010122036A02FA01F123EA69
:1053400001020262026A114341F2FF72C4F20002DA
:10535000904201620BDC40F2FF71C4F2000188420E
:1053600013DCB0F1804F35D040F2004115E040F23F
:10537000FF31C4F20101884214DC41F60001C4F29D
:105380000001884226D0002114E040F60001C4F25A
:10539000000188421ED040F60041C4F2000188425C
:1053A00018D01CE044F20001C4F20101884211D07F
:1053B00040F20041C4F20101884210D1416C40F238
:1053C000004340F48062C4F2010341F400419A4278
:1053D000416404D1816801F00701062903D0016806
:1053E00041F00101016000207047006841F2004176
:1053F000C4F20001884218BF7047FFF7AEB870478B
:1054000070B582B0044690F84200202820D14FF0B9
:105410000105F1B1EAB1002620462563666301F07B
:1054200081FE206B012814D101962068016801914A
:1054300040680190019800BF206850E8030F216880
:1054400040F0100041E80302002AF5D1002500E0F9
:105450000225284602B070BD10B5044641F2300066
:10546000C2F2000084421BD041F27800C2F2000078
:1054700084421AD041F2C000C2F20000844219D026
:1054800041F20810C2F20000844218D041F25010DC
:10549000C2F20000844217D0FEF7D4F9002017E0D2
:1054A00042F68040C2F2000012E042F69040C2F2A2
:1054B00000000DE042F6A040C2F2000008E042F613
:1054C000B040C2F2000003E042F6C040C2F2000069
:1054D000E16B09684968C1810189C289891A4181E2
:1054E00010BD7047B0B582B0044600680168C3685B
:1054F000426901F02F05202D03F0200506D12DB1C2
:10550000204602B0BDE8B04001F03CBD5FEA017C3E
:105510001EBF02F0010E03F4907212EB0E026ED168
:10552000226BCD0643D5012A41D113F010023ED0A3
:10553000002101910168019141680191019940693F
:10554000400600F1CB80A08DE18DE28D002A00F0B5
:105550001581884200F01281401A00BF216851E88D
:10556000031F226821F4907142E80313002BF5D148
:10557000216851E8051F226821F0010142E8051366
:10558000002BF5D1202184F842100021216300BFB7
:10559000216851E8031F226821F0100142E803133B
:1055A000002BF5D1022281B220466263DCE00A06BC
:1055B00040F1828013F0800200F07E8094F8411068
:1055C000212940F0DB80A168B1F5805F03D121691A
:1055D000002900F0DB80216A4A1C226209784160C0
:1055E000E18C01390A04E18440F0C880C16821F0EF
:1055F0008001C160C16841F04001C160BEE0CA07DE
:1056000018BF13F4807203D0626C42F0010262642E
:105610004A0706D5BEF1000F03D0626C42F00202C9
:1056200062648A0706D5BEF1000F03D0626C42F0B7
:1056300004026264BCF1000F06D55EEA050203D0E5
:10564000626C42F008026264626C002A00F096808C
:10565000890604D51DB1204601F094FC20684069FC
:10566000616C00F0400001F00801401800F08180FA
:10567000204601F05FFC20684069400640F18080D0
:10568000206850E8050F216820F0400041E805023D
:10569000002AF5D1E06B002872D046F6E751C0F63B
:1056A00000010165FEF7A4FC002867D0E06B016DE6
:1056B00002B0BDE8B040084749065FD513F040018D
:1056C0005CD0C16821F04001C1602021204684F8EF
:1056D000411002B0BDE8B04000F0C4BBE06B01680F
:1056E00049688AB2002A49D0A38D9A4246D2E18500
:1056F000C069B0F5807F30D0206850E8030F216882
:1057000020F4807041E80302002AF5D1206850E8B7
:10571000050F216820F0010041E80502002AF5D1BB
:10572000206850E8050F216820F0400041E805029C
:10573000002AF5D1202084F842000020206300BF19
:10574000206850E8030F216820F0100041E80302B0
:10575000002AF5D1E06BFEF70BFC02206063A08D00
:10576000E18D401A81B2204602B0BDE8B040FFF79B
:1057700073BE2046FFF7B5FE0020606402B0B0BDE6
:10578000204602B0BDE8B040FFF7ABBE216A31F859
:10579000022B6FF35F224260216221E758B310B5FC
:1057A000044690F8410028B9002084F840002046C3
:1057B00000F023F8242084F841002068C16821F417
:1057C0000051C160204601F03EFC2068016921F4CF
:1057D00090410161416921F02A014161C16841F4B0
:1057E0000051C16000202021606484F8411084F8D9
:1057F0004210606310BD012070472DE9F04F87B063
:10580000044602A81421FAF766FD206844F6FF71E9
:10581000C4F20001884200F3818044F20041C4F2E6
:105820000001884200F0BE8044F60001C4F200018D
:10583000884200F0A58144F60041C4F2000188428C
:1058400040F07882002643F630000196C4F2020050
:10585000016946F2100841F4002101610169C4F2B6
:10586000020801F40021019101990196016841F0BB
:1058700004010160006802A900F004000190019891
:105880004FF4406002900220CDE90306032005900A
:10589000082006900020C4F2020000F50060FEF728
:1058A00085FD40F6404508F16000C2F200054FF06A
:1058B00000674021C5E9000705F108004FF4806941
:1058C00080E8420205F114001421FAF704FD28468D
:1058D000FEF764FC08B1FDF7B5FFA563AC6340F6C5
:1058E000E03508F13000C2F200054FF48071C5E9DF
:1058F00000072846C5E90266C5E90496C5E90661C0
:10590000C5E90866FEF74AFC08B1FDF79BFFE563B1
:10591000AC63342000210022342406E245F2000169
:10592000C4F20001884200F0A68041F20001C4F2F6
:105930000101884200F0908141F20041C4F201016E
:10594000884240F0F781002043F630010190C4F214
:1059500002014A6942F020024A614A6902F02002CB
:105960000192019A01900A6842F004020A600968F3
:1059700001F0040101910199C02102910221CDE9B8
:10598000031003200590082006900020C4F20200B6
:1059900000F5006002A9FEF709FD4720052100225D
:1059A0004724C2E1002643F630000196C4F202000B
:1059B000016946F2100841F4003101610169C4F245
:1059C000020801F40031019101990196016841F04A
:1059D00001010160006802A900F001000190019836
:1059E0000C2002900220CDE9030603200590072039
:1059F00006900020C4F20200FEF7D8FC40F6806555
:105A000008F19000C2F200054FF000674021C5E99F
:105A1000000705F108004FF4806980E8420205F1B3
:105A200014001421FAF757FC2846FEF7B7FB08B11B
:105A3000FDF708FFA563AC6340F6206508F1780028
:105A4000C2F200054FF48071C5E900072846C5E998
:105A50000266C5E90496C5E90661C5E90866FEF770
:105A60009DFB08B1FDF7EEFEE563AC632620002147
:105A70000022262459E1002643F630000196C4F2A4
:105A800002000169002741F4801101610169C4F23B
:105A9000020701F48011019101990196016802AD9C
:105AA00041F004010160016846F2100801F00401B0
:105AB00001910199019601684FF0020941F0080136
:105AC000016000684FF0030A00F00800019001989F
:105AD0004FF4805002904FF0080B07F50060294604
