:020000040800F2
:1000000060AE0020A1010008E95F0008B1580008B7
:10001000E55F0008D52F0008E56B00080000000030
:100020000000000000000000000000005163000814
:100030001D3100080000000061610008C5010008D2
:10004000BB010008BB010008BB010008BB010008A0
:10005000BB010008BB010008BB010008BB01000890
:10006000BB010008BB010008BB010008A530000867
:10007000B1300008BD300008C9300008D530000894
:10008000E1300008ED300008BB010008BB010008AA
:10009000D72F0008BB010008BB010008BB01000806
:1000A000BB010008BB010008BB010008BB01000840
:1000B000BB010008BB010008BB010008BB01000830
:1000C000BB010008BB010008BB010008BB01000820
:1000D000BB010008B36B0008BF6B0008CB6B0008C6
:1000E000BB010008BB010008BB010008BB01000800
:1000F000BB010008BB010008BB010008F930000883
:10010000BB010008BB010008BB010008BB010008DF
:100110004B67000857670008BB010008956400089A
:10012000BB010008BB01000805310008BB01000845
:10013000BB010008BB010008BB010008BB010008AF
:1001400031300008BB010008BB010008BB010008FA
:10015000BB010008BB01000811310008D76B000883
:10016000BB010008BB010008BB010008BB0100087F
:10017000BB010008BB010008BB0100080000000033
:10018000BB010008BB010008DFF810D000F072FCD2
:1001900000F0D8F8004800476178000860AE002001
:1001A0000648804706480047FEE7FEE7FEE7FEE711
:1001B000FEE7FEE7FEE7FEE7FEE7FEE783640008F2
:1001C0008901000830B410B50348804730BCAE4602
:1001D00030BC024800477047357C0008BF63000808
:1001E0002DE9F05F0546002092469B46884606466C
:1001F000814640241BE0284641464746224600F0FF
:100200001AFB53465A46C01A914110D3114618465C
:10021000224600F001FB2D1A67EB01084F462246EB
:100220000120002100F0F8FA17EB00094E41201ED2
:10023000A4F10104DFDC484631462A464346BDE8C6
:10024000F09F2DE9F0410024061B254671F10006C0
:1002500005DA01240027D0EB070067EB0101161E29
:1002600073F1000605DA0027D2EB0702012567EBE0
:100270000303FFF7B5FF86460E4617469C46AC4281
:1002800004D00025D0EB050E65EB010624B100205B
:10029000D2EB000760EB030C704631463A466346EA
:1002A000BDE8F08140EA01039B0703D009E008C9DB
:1002B000121F08C0042AFAD203E011F8013B00F82B
:1002C000013B521EF9D27047D2B201E000F8012B77
:1002D000491EFBD270470022F6E710B513460A46C6
:1002E00004461946FFF7F0FF204610BD421C10F8E7
:1002F000011B0029FBD1801A7047034611F8012B1E
:1003000000F8012B002AF9D11846704730B5054690
:100310000020034600E05B1C934205D2EC5CC85C05
:10032000201A01D1002CF6D130BD70B506460AF076
:10033000F9FA046805460A220021304600F09DFAC9
:100340002C6070BD7CB507480090074801900546B9
:10035000009C04E02046016808448047241DAC420C
:10036000F8D17CBDACBC0008B0BC00082DE9FE4F44
:10037000804681EA0300C00F0C46009021F0004146
:1003800023F00045B8EB0200A94105D240462146C2
:1003900090461C460B46024623F00040104347D0CF
:1003A000270DC7F30A00C3F30A510290401A0190C7
:1003B00040286BDAC3F3130040F4801B0098924688
:1003C00020B10023D2EB030A63EB0B0B01985946D3
:1003D000C0F14002504600F01FFA06460D46504656
:1003E0005946019A00F037FA10EB080061410024E9
:1003F00087EA115284EAE7731A4340D0009A62B345
:10040000019A012A4FEA075215DC001B61EB020139
:100410004FF0004202EA0752CDE90042001C41F5CC
:10042000801132462B4600F0A6FA03B0BDE8F08FEB
:1004300040462146F9E7001B61EB0201001C41F533
:10044000801300185B412018A2F5001747EB030149
:1004500040EAD570B6196D4111E06D084FEA3606D5
:1004600045EAC0754FEA0752001B61EB0201001C10
:1004700041F5801149084FEA3000001951413246D8
:100480002B4603B0BDE8F04F00F066BA0098012299
:1004900040000023D0EB020263EBE073009821469A
:1004A0004FEAE074B8EB000061EB0401E9E783F088
:1004B00000435BE781F0004158E72DE9FE4F81EAF8
:1004C000030404F0004421F0004100944FF0000BBD
:1004D00023F0004350EA01045ED052EA03045BD0EB
:1004E000C3F30A54C1F30A552C44A4F2F334019423
:1004F000A0FB0254C1F3130141F48011C3F31303B1
:1005000043F4801301FB024400FB034E840A970A64
:1005100044EA815447EA8357A4FB076802958D0A91
:1005200005FB07854FEA932C04FB0C542705029D1D
:100530004FEA065847EA1637B5EB08056EEB070C8D
:10054000870E920E47EA811742EA8312A7FB020147
:10055000B6EB0B0164EB00042B0D43EA0C335E1881
:1005600044EB1C50DA465146E7FB0201C5F3130485
:100570004FEA0B3343EA14534FEA0432019C43EA37
:100580000603A4F10C040294009CCDE900B400F031
:10059000F2F903B0BDE8F08F00200146F9E72DE93C
:1005A000F04D81EA030404F0004B21F000451446AD
:1005B0004FF0000A23F0004150EA050220D054EA2F
:1005C00001021DD0C5F30A570246C5F31303C1F358
:1005D0001300C1F30A5640F4801543F48013A7EBCF
:1005E0000608101BD64608F2FD3873EB050002D34F
:1005F00008F1010801E092185B41B8F1000F03DA3D
:1006000000200146BDE8F08D00204FF48011064621
:1006100084460EE0171B73EB050705D3121B63EB33
:10062000050306434CEA010C49084FEA30009218D2
:100630005B4150EA0107EDD152EA030012D082EA91
:10064000040083EA0501084305D0101BAB4106D224
:100650000122002306E000224FF0004302E06FF089
:10066000010253101AEB06004CEB085110EB0A0084
:1006700041EB0B01BDE8F04D00F06EB930B5041E42
:1006800071F1000404DB4FF00044404264EB0101CF
:10069000141E73F1000405DB1C464FF00043524268
:1006A00063EB0403101A8B4101D2012030BD0020FE
:1006B00030BD30B5041E71F1000404DB4FF000447E
:1006C000404264EB0101141E73F1000405DB1C467B
:1006D0004FF00043524263EB0403801A994101D268
:1006E000012030BD002030BDF0B4CA17CB0F504000
:1006F0005140C61841F100054FEAC3723146280047
:100700004FF0960303D0B623F0BC00F0F7B83046A4
:100710000021F9E70EB5C10F80EAE0700844CA076E
:10072000002140F233438DE80E000A460B4600F0EC
:1007300022F903B000BD0EB540F233410291002111
:10074000CDE900110A460B4600F015F903B000BDD3
:1007500070B5C1F30A5201F000450024C1F3130142
:1007600040F2FF3341F480119A4201DA002070BD5B
:1007700040F233439A42A2F2334203DC524200F089
:100780005AF800E090402C43F1D0404270BD00F098
:10079000004230F000400AD0C10D01F56071C0F395
:1007A000160042EA0151C208400711437047002079
:1007B0000146704701F0004330B421F0004150EA97
:1007C000010206D00A0DA2F56072C1F31301002ADE
:1007D00002DC30BC00207047440F44EAC104C10071
:1007E000E01830BC00EBC25000F07FB830B50B46CB
:1007F000014600202022012409E021FA02F59D4251
:1008000005D303FA02F5491B04FA02F52844151E24
:10081000A2F10102F1DC30BD202A04DB203A00FA0B
:1008200002F1002070479140C2F1200320FA03F347
:10083000194390407047202A04DB203A21FA02F045
:100840000021704721FA02F3D040C2F1200291400A
:10085000084319467047202A06DBCB17203A41FA95
:1008600002F043EAE07306E041FA02F3D040C2F13D
:10087000200291400843194670472DE9F047914600
:100880000F4680460446002614F8015B2DB100F0A7
:1008900009F90068405DC007F6D12B2D02D02D2D3F
:1008A00018D0641E4A463946204600F0FFF827B1AA
:1008B0003968A14201D1C7F8008071054FF00204E8
:1008C0000BD54042002803DD0AF02CF80460A00795
:1008D000BDE8F08746F48066E4E70028F8DA0AF01D
:1008E00021F804606FF00040F2E70029A8BF7047CC
:1008F000401C490008BF20F00100704710B4B0FA56
:1009000080FC00FA0CF050EA010404BF10BC7047F0
:1009100049B1CCF1200421FA04F411FA0CF118BF0A
:10092000012121430843A3EB0C01CB1D4FEA0061D9
:100930004FEA102042BF002010BC704700EBC350AC
:1009400010440029A4BF10BC7047401C490008BFD8
:1009500020F0010010BC704710B5141E73F10004A4
:1009600008DA401C41F1000192185B411A4301D1A1
:1009700020F0010010BD2DE9F04D92469B4611B1CB
:10098000B1FA81F202E0B0FA80F220329046FFF72D
:1009900043FF04460F4640EA0A0041EA0B01534672
:1009A0005A46084313D0114653EA010019D0C8F142
:1009B00040025046FFF73FFF05460E465046594657
:1009C0004246FFF729FF084305D0012004E02046F6
:1009D0003946BDE8F08D0020054346EAE0762C4319
:1009E00037430A986305E40AA0EB08000022FD0AD9
:1009F00044EA47540A3002D500200146E9E70105E0
:100A000010196941DDE9084500196941BDE8F04D5B
:100A1000A2E7C1F30A52C1F3130140F2FF3341F4DC
:100A200080119A4202DA00200146704740F23343B7
:100A30009A42A2F2334202DC5242FFF7FCBEFFF7B9
:100A4000EBBE000030B5041E71F1000404DB4FF072
:100A50000044404264EB0101141E73F1000405DB05
:100A60001C464FF00043524263EB0403994208BF17
:100A7000904230BD1CB509480090094801900546D8
:100A8000009C06E0E06840F0010394E80700984706
:100A90001034AC42F6D3FFF77BFB00008CBC00089F
:100AA000ACBC00080048704798B500082DE9F05F1D
:100AB00082460078002715468B460AF10104B946A4
:100AC000302801D09DB113E014F8010B01277828DC
:100AD00003D0582801D045B10AE00DB1102D07D13F
:100AE0000027102514F8010B02E0082500E00A2574
:100AF0000026B0460EE005FB080005FB06F10127C5
:100B000001EB10461FFA80F8B6F5803F00D3B946D6
:100B100014F8010B294600F018F80028EBDABBF1B5
:100B2000000F05D00FB1641E00E05446CBF8004022
:100B3000B9F1000F06D009F0F5FE02210160C81ED0
:100B4000BDE8F09F48EA0640FAE73A2800D230387C
:100B500020F02002412A01D3A2F13700884201D3BC
:100B60004FF0FF30704730B58C1810F8012B12F0A1
:100B70000F0301D110F8013B120906D110F8012B27
:100B800003E010F8015B01F8015B5B1EF9D101E0A5
:100B900001F8013B521EFBD1A142E6D3002030BD3B
:100BA00040F6AD30C0F6000006F0C7B870B584B0AE
:100BB00004464BF6DA30C0F60000214602F088F910
:100BC0000FF2045120460822FFF7A0FB002800F096
:100BD000A3800FF2005120460D22FFF797FB00285B
:100BE00000F0DB800FF2FC4120460422FFF78EFB71
:100BF000002800F016810FF2F44120460522FFF78D
:100C000085FB002800F01C810FF2E84120460522F8
:100C1000FFF77CFB002800F055820FF2E0412046F0
:100C20000722FFF773FB002800F01A810FF2D4416E
:100C300020460922FFF76AFB002800F025810FF209
:100C4000D04120460922FFF761FB002800F02781F0
:100C50000FF2C84120460422FFF758FB002800F09D
:100C60002E810FF2C04120460822FFF74FFB0028DB
:100C700000F031810FF2B84120460922FFF746FB10
:100C8000002800F031810FF2B44120460922FFF71D
:100C90003DFB002800F033810FF2AC4120460A22D0
:100CA000FFF734FB002800F034810FF2A841204602
:100CB0000C22FFF72BFB002800F047810FF2A44124
:100CC00020460922FFF722FB002800F057810FF28F
:100CD000A04120460B22FFF719FB002800F05A81A3
:100CE0000FF2984120460B22FFF710FB002800F07E
:100CF0005D814BF6DF31C0F6000120460C22FFF784
:100D000005FB002800F05F814BF6C930C0F60000FB
:100D1000214602F0DDF8C0E04BF6E020C0F600000E
:100D200002F0D6F84BF68030C0F6000002F0D0F8A2
:100D300040F2B834C2F20004204608F083F84BF6C3
:100D4000DA35C0F600052846214602F0C1F82046F3
:100D50004FF40071FFF7BFFA4BF64430C0F60000C5
:100D600002F0B6F8204607F0FFFF2846214602F0C1
:100D7000AFF820464FF40071FFF7ADFA40F2B954D6
:100D8000C2F2000440F2D8502578C2F20000006898
:100D90008021BDB308F072FB36E040F69000C2F24D
:100DA0000000D0F83802FFF7F2FC02464BF66B3039
:100DB000C0F600000B4602F08BF840F6DE20C2F2CF
:100DC0000000B0F900104BF62030C0F6000002F031
:100DD0007FF840F6E020C2F20000B0F900104BF6B8
:100DE0002C30C0F6000002F073F840F6DC20C2F2AE
:100DF0000000B0F900104BF61430C0F6000002F00D
:100E000067F804E008F0E0FA85F0010020700E2198
:100E10004BF63830C0F6000004B0BDE8704002F078
:100E200057B840F65000C2F20000006808F0D8F948
:100E3000002000210022002307F06AFC0121E7E7DF
:100E40004FF6D460CFF6FF7001464FF496724FF420
:100E5000967307F05DFC0A2007F012FF0221D7E726
:100E6000E01DFFF762FA40F2FC62C2F2000240F2BB
:100E7000C0511268C2F2000108701046002202231D
:100E800008F0BEFD0521C3E704F10900FFF74DFAA4
:100E900040F2B851C2F2000108700021B8E704F135
:100EA0000900FFF742FA024640F2B850C2F20000D1
:100EB0000178D317012000F0EBFA0421A8E740F6EF
:100EC0005800C2F20000006800210222002309F04D
:100ED00065F90B219CE704F10800FFF726FA40F2C0
:100EE000BB51C2F2000107E004F10900FFF71DFA4F
:100EF00040F2BA51C2F2000108700C2188E704F1F7
:100F00000900FFF712FA40F2BC51C2F2000108607A
:100F1000F3E740F2BB5040F2BA5140F2BC52C2F289
:100F20000000C2F20001C2F20002007809781668DF
:100F300000220123CDE901324FF4487200230096CC
:100F400001F006FB01F01EFBD7E740F2BB5040F278
:100F5000BA5140F2BC52C2F20000C2F20001C2F229
:100F6000000200780978166800220123CDE90132D9
:100F700032220023009601F0EBFABEE704F10900EB
:100F8000FFF7D3F940F60C71C2F20001096880B294
:100F9000486316E004F10B00FFF7C7F940F60C7147
:100FA000C2F20001096880B2C8630AE004F10B00D4
:100FB000FFF7BBF940F60C71C2F20001096880B27C
:100FC00088630D2124E704F10C00FFF7AEF94FF020
:100FD000FF3151FA80F0062800F27280DFE800F05D
:100FE0000412090F0619200001200CE00220022142
:100FF00011E001200221032200F01AFC60E002202F
:10100000012108E0022001210222032300F0E6FC76
:1010100056E0022003210022012300F0DCFE4FE015
:1010200041F2883007F02CFE012542F6041000241E
:10103000CDE90005072000214FF4487200230294F7
:1010400001F086FA01F09EFA5A2001F0B0FD4FF44B
:101050009676072000214FF448720023CDE9006501
:10106000029401F075FA01F08DFA522001F0B0FD02
:101070004FF4C87007F004FE40F6B830CDE9000523
:10108000072000214FF448720023029401F060FA17
:1010900001F078FA532001F08AFD072000214FF477
:1010A00048720023CDE90065029401F051FA01F085
:1010B00069FA462001F08CFD4FF4C87007F0E0FD9E
:1010C0001021A5E605F090FD53686F775461736BAE
:1010D0000000000053686F77506172616D65746540
:1010E0007200000053746F7000000000537461724E
:1010F00074000000526573657400000053746174DD
:1011000075733D005768616C654469723D0000006D
:101110005768616C65506F733D0000004E657874D0
:10112000000000004D5F5A445469643D0000000017
:101130004D5F5A44546469723D0000004D5F5A444B
:1011400054706F733D0000004D5F5A4454737461D6
:10115000727400004D5F5A445473746172746E77F8
:1011600000000000536572766F4A61773D00000011
:10117000536572766F57726973743D00536572766A
:101180006F506C6174653D0080B501F0CFFE20B1F9
:1011900002A0BDE8804001F09BBE80BD52454345A2
:1011A0004956450D0A0000008AB040F2651007F06C
:1011B00067FD40F69004C2F200040120207100F0A7
:1011C00073FA9FEDA78A9FEDA79A4BF2FC6804F192
:1011D000580504F108070026C0F60008206000BF8B
:1011E000F0B206F00CFA47F8140B284600214246EC
:1011F000B0EE480AF0EE490A04F09CFF0136042ED6
:1012000005F14805ECD19FED998A4BF2F0629FED14
:10121000960A04F5BC70C0F600020021F0EE480A00
:1012200003904FF0000B04F085FF9FED919A4BF275
:10123000E86104F5E070C0F60001B0EE490A06F07E
:10124000B3F94BF2EC6104F5E870C0F60001B0EEC2
:10125000490A06F0A9F90020C4F27A4000210022D0
:10126000002304F50A7CCCF27A41C4F2C822CCF205
:10127000C8238CE80F00204606F0C2F89FED760BDD
:101280009FED7CAA06AE05AF04AD51EC100B04F146
:101290001408CDE9011000BF204605F023FF2046C9
:1012A00006F0AEF8304639462A462346CDF818B047
:1012B000CDE904BB05F0FAFE2079012840D194ED78
:1012C000890A94ED8E1A30EE410A07F06BFA40F667
:1012D000E420C2F2000080ED000A0398F0EE400A1C
:1012E000B0EE480A04F082FE10EE100A20F0004032
:1012F000B0EE409AFFF74BFADDE90132FFF7D9F97A
:10130000B0EE482A002818BFB0EE492A9DED060A23
:1013100094ED8A1AD4ED8B0A84ED862A06F04CF9F6
:101320009DED052A94ED8C1AD4ED8D0A84ED840A86
:10133000B0EE420A06F040F9207984ED850A01E01A
:1013400094ED850A94ED841A94ED862A31EE003AE4
:1013500033EE024AB1EE444A8DED064A30EE414A80
:1013600031EE400A34EE424A33EE423A30EE420A5F
:1013700003284FF000008DED074A8DED083A8DED02
:10138000090A0FD1311891ED000A00EB8002BDEE81
:10139000C00A043010EE101A224410281183F1D133
:1013A0004BE000BF4146B0EE480A00BF321892ED54
:1013B000001A043081ED001AB0EEC11AB4EE410AF1
:1013C000F1EE10FAB8BFB0EE410A102801F1140195
:1013D000ECD1B4EE4A0AF1EE10FA0DDD8AEE000A05
:1013E000142000BF211891ED001A143020EE011ACC
:1013F000642881ED001AF5D104F110094FF0580A64
:1014000099EC020A04EB0A0004F0F0FD0AF1480A24
:10141000BAF5BC7F09F11409F2D104F1780000217A
:1014200090ED000A6318BDEEC00A143110EE102AC8
:10143000502900F148001A83F2D1B4F91800B4F928
:101440002C10B4F94020B4F9543007F061F90520AC
:1014500007F016FC20E700BF9A9999999999B93F2E
:101460000080BB450000FA440000C84200000000B4
:101470006F12033B00007A4480B500200021002257
:10148000002307F045F9BDE8804006F0F1B8000000
:101490002DE9F04114464FF47A72A4FB02678046AE
:1014A00003FB027040F69007C2F200071D4687F862
:1014B0000012C7E97860C7E97A6007F061F997F828
:1014C0000002102830D120462946FFF70DF997ED8C
:1014D0008E1A00EE100A002130EE410AC7E9781199
:1014E000C7E97A11C7F8240207F05CF910EE100A78
:1014F00020F00040FFF74BF99FED170B55EC104B18
:1015000022462B46FFF7BAF808BB97ED890A97EDFC
:101510008E1A30EE410A07F045F910EE100A20F05D
:101520000040FFF734F9EBE7B8F1000F18BFBDE852
:10153000F08140F648050024C2F2000528684FF00B
:10154000FF3108F079FC092C04F10104F6D3BDE861
:10155000F08100BF00BF00BF9A9999999999B93F4E
:101560000138052800F2968080B5DFE800F0036AB4
:101570002D4B0E6F0020042196220023FFF788FFD9
:10158000002001214FF416727FE0002010214FF45B
:1015900087720023FFF77CFF002001214FF42F7298
:1015A0000023FFF775FF00201021B4220023FFF76E
:1015B0006FFF002001214FF496720023FFF768FFB0
:1015C00000201021002260E000201021B42200231E
:1015D000FFF75EFF002001214FF4C8720023FFF7E0
:1015E00057FF002010215A220023FFF751FF00204F
:1015F000012140F2DC520023FFF74AFF00201021B6
:10160000B42242E00020102100220023FFF740FF17
:10161000002001214FF42F720023FFF739FF002033
:1016200010214FF487720023FFF732FF00200121C1
:1016300040F28A220023FFF72BFF002010215A22BC
:1016400023E0002001214FF42F721EE00020102122
:101650004FF487720023FFF71BFF002001214FF496
:101660002F720023FFF714FF00201021B422002363
:10167000FFF70EFF0020012140F2A4620023FFF7D4
:1016800007FF002004214FF4C8720023FFF700FF7A
:10169000BDE8804040F65800C2F20000006800211A
:1016A0000222002308F07ABD40F6D820C2F20000E2
:1016B000704741F2C160C0F6000005F07EBB00003B
:1016C00080B5808841F2BC71C2F200010880B1F996
:1016D0000000FFF71FF89FED0A0B53EC102BFEF7ED
:1016E000ECFE9FED090B53EC102BFEF7E6FEFFF727
:1016F00061F840F6D821C2F20001086080BD00BF49
:10170000000000000000003F000000000080664074
:1017100080B504F061F8002818BF012080BD40F2B8
:10172000D05CC2F2000C0CEB800041708270C37080
:10173000704740F2D050C2F2000070470538C0B286
:1017400002288EBF002002A151F82000704700BF80
:101750000C0100201C0100202C010020F0B583B0FA
:1017600040F22C16C2F200067168012704460025DB
:10177000CDE90017072000214FF42F72FA230295BC
:1017800000F0E6FE00F0FEFE462001F021FA2046C1
:1017900001F016FAF0680021CDE9000707204FF4A8
:1017A0002F72FA23029500F0D3FE00F0EBFE5A20D0
:1017B00001F0FDF970680021CDE9000707204FF422
:1017C0002F72FA23029500F0C3FE00F0DBFE5220D8
:1017D00001F0FEF9B0680021CDE9000707204FF4C1
:1017E0002F72FA23029500F0B3FE00F0CBFE5320D7
:1017F00001F0DDF970680021CDE9000707204FF402
:101800002F72FA23029500F0A3FE00F0BBFE4620E3
:1018100001F0DEF940F65800C2F200000068002135
:101820000222002303B0BDE8F04008F0B7BC00007E
:101830002DE9F04F85B0034640F2D050C2F20000CF
:10184000C45C455C865C4BF64840C0F60000194617
:101850001A468DF811408DF812508DF8136001F082
:1018600037FB4BF63540C0F6000021462A4633468A
:1018700001F02EFB40F20C1940F21C1840F22C1B18
:1018800000260DF1110AC2F200090124C2F200087B
:10189000C2F2000B002700BF462001F099F91AF8A8
:1018A0000750012159F825006422CDE900040520E4
:1018B000FA23029600F04CFE58F825000021CDE9ED
:1018C000000406206422FA23029600F041FE4FF441
:1018D000C870002F08BF4FF4FA7007F0D1F9DBF899
:1018E00010000021CDE9000407204FF42F72FA23E5
:1018F000029600F02DFE00F045FE5A2001F057F947
:10190000DBF808000021CDE9000407204FF42F7216
:10191000FA23029600F01CFE00F034FE522001F083
:1019200057F94FF4C87007F0ABF9DBF80C00002151
:10193000CDE9000407204FF42F72FA23029600F03D
:1019400007FE00F01FFE532001F031F9022F0FD0E7
:10195000DBF808000021CDE9000407204FF42F72C6
:10196000FA23029600F0F4FD00F00CFE013793E735
:10197000DBF8040001250024CDE900050720002143
:101980004FF42F72FA23029400F0E2FD00F0FAFD0A
:10199000462001F01DF9D9F808000121CDE9000524
:1019A00005206422FA23029400F0D2FDD8F8080042
:1019B0000021CDE9000506206422FA23029400F0FC
:1019C000C7FD40F65800C2F2000000680021022264
:1019D000002305B0BDE8F04F08F0E0BB2DE9F04F63
:1019E00085B0044640F2D050C2F2000000EB840003
:1019F000043810F80190865CC75C4BF64840C0F68E
:101A0000000088468DF811908DF812608DF81370E3
:101A100001F05EFA4BF63540C0F60000494632460A
:101A20003B4601F055FA40F21C1B40F20C1AC2F280
:101A3000000BC2F2000A5BF829205AF829504BF635
:101A40005D40C0F6000049464B46009501F040FA63
:101A50005BF826205AF826504BF65D40C0F6000091
:101A600031463346009501F033FA5BF827205AF8E7
:101A700027604BF65D40C0F6000039463B460096B5
:101A800001F026FA404601F09BF840F22C160027A0
:101A90000DF111080125C2F200064FF0000A00BF47
:101AA000522001F095F818F80AB040F20C10C2F27A
:101AB000000050F82B000121CDE90005052064222B
:101AC000FA23029700F044FD40F21C10C2F200001D
:101AD00050F82B000021CDE9000506206422FA23EE
:101AE000029700F035FD4FF47A7007F0C9F8F068FE
:101AF0000021CDE9000507204FF42F72FA23029749
:101B000000F026FD00F03EFD5A2001F050F8B068CC
:101B10000021CDE9000507204FF42F72FA23029728
:101B200000F016FD00F02EFD462001F051F84FF4B4
:101B30007A7007F0A5F84846BAF1020F1CBF08EB0F
:101B40000A00407801F03CF8012C15D0022C27D176
:101B500070690021CDE9000507204FF42F72FA23A8
:101B6000029700F0F5FC00F00DFD532001F01FF886
:101B7000BAF1020F1AD129E030690021CDE9000540
:101B800007204FF42F72FA23029700F0E1FC00F0D7
:101B9000F9FC532001F00BF8BAF1020F06D116E060
:101BA000532001F004F8BAF1020F1FD0B0680021F1
:101BB000CDE9000507204FF42F72FA23029700F0B9
:101BC000C7FC00F0DFFC0AF1010A69E7043630685F
:101BD00001210027CDE90001072000214FF42F72D9
:101BE000FA23029700F0B4FC00F0CCFC40F6580059
:101BF000C2F20000006800210222002305B0BDE807
:101C0000F04F08F0CBBA000070B584B0044640F243
:101C1000D050C2F20000055D3AA0214601F058F90B
:101C20003BA0294601F054F940F21C10C2F200001A
:101C300050F8251040F20C10C2F2000050F8252098
:101C400036A001F045F9204600F0BAFF522000F01E
:101C5000BFFF4FF47A7007F013F840F22C15C2F270
:101C60000005E86801260024CDE9000607200021D0
:101C70004FF42F72FA23029400F06AFC00F082FC09
:101C80005A2000F094FFA8680021CDE90006072043
:101C90004FF42F72FA23029400F05AFC00F072FC09
:101CA000462000F095FF4FF47A7006F0E9FF2869AE
:101CB0000021CDE9000607204FF42F72FA23029489
:101CC00000F046FC00F05EFC532000F070FF6868F6
:101CD0000021CDE9000607204FF42F72FA23029469
:101CE00000F036FC00F04EFC40F65800C2F2000056
:101CF000006800210222002304B0BDE8704008F013
:101D00004DBA00BF436F6C6F72202564200D0A002E
:101D1000446972202564200D0A0000004D4F544F85
:101D2000525F585F506F733D2535642020204D4F22
:101D3000544F525F525F506F733D2535640D0A005A
:101D4000B0B584B040F20C10C2F2000080680125EA
:101D50000024CDE90005052001216422FA23029424
:101D600000F0F6FB062000216422FA23CDE90045AD
:101D7000029400F0EDFB522004B0BDE8B04000F04A
:101D800027BFB0B584B040F20C10C2F200008068EA
:101D900001250024CDE90005052001216422FA2354
:101DA000029400F0D5FB40F21C10C2F200008068E3
:101DB0000021CDE9000506206422FA23029400F0F8
:101DC000C7FB462000F004FF4FF4FA6004B0BDE802
:101DD000B04006F055BFF0B583B041F2CC75C2F209
:101DE0000005287041F2CD7440F27030C2F2000458
:101DF000C2F20000012B2170827003702ED140F2DC
:101E0000CC56C2F2000640F2EC603268C2F200002A
:101E10000068515C012750F821000025CDE900073A
:101E2000052001216422FA23029500F091FB40F283
:101E3000F06031682278C2F200000068895C642298
:101E400050F821000021CDE900070620FA23029571
:101E500000F07EFB4FF4FA7006F012FF40F2D8500B
:101E6000C2F200000068022103B0BDE8F04007F0B4
:101E700005BB80B541F6B160C0F6000004F0A4FFD8
:101E80000520FFF75BFC40F2EC61C2F20001086044
:101E90000620FFF753FC40F2F061C2F20001086037
:101EA000FFF747FC40F2CC51C2F20001086080BD50
:101EB0002DE9F04F83B0B0F8011040F27034C2F257
:101EC0000004A1802278B0F80360012AE68025D0C2
:101ED000002A40F09281027841F2CC70C2F20000F8
:101EE0000078012A08BF012800F09780102A08BF57
:101EF000022840F0828142F60250C2F200000180C6
:101F000042F60450C2F200000A04068018BF5FEADD
:101F1000064040F01781002060704FE2080418BFAF
:101F20005FEA064000F06781B0B2C0F1F00000EE59
:101F3000100AE08A89B2081A01EE100AB8EEC00A47
:101F4000F8EEC10A08F0F2FC9FEDE71A20EE010A54
:101F500010EE100AFEF71BFC9FEDE50B53EC102B67
:101F6000FEF71DFB9FEDE40B53EC102BFEF7FEF983
:101F7000FEF720FCE188E28AC1F1F00100EE101AC0
:101F8000A188B8EEC00A891A01EE101AB8EEC11A7B
:101F900021EE011A20EE000A30EE011AB1EEC11A4C
:101FA000218B00EE100AC1F1F00002EE100AB8EE2B
:101FB000C22A31EE421ABDEEC02A12EE101A0AB23F
:101FC000A18181EAE231A1EBE231BDEEC12A89B201
:101FD00041F2CD7B40F2F06640F2CC5A40F2EC691F
:101FE00012EE100A0229C2F2000BC2F20006C2F27F
:101FF000000AC2F2000920812AD801B280EAE13049
:10200000A0EBE13080B2022822D8E078E17E88425D
:1020100080F0B9800130E070D0E0A07801287ED057
:10202000002840F0EA8042F6025B42F60459C2F210
:10203000000BC2F200090804ABF80010A9F8006018
:1020400018BF5FEA064040F0DB800020607018E2B5
:10205000B2EE042A20EE020ABDEEC00A10EE100A0B
:1020600021EE020ABDEEC00A4FF0000810EE101A71
:10207000DAF800209BF8003084F80380A0812181E9
:10208000B4463668D75C56F82750294446F82710DE
:10209000D9F80010D75C51F82750284441F82700A0
:1020A000D05C42F2486556F82070AF42B8BF3D465A
:1020B00025EAE57746F82070D05C41F6583551F8AE
:1020C0002070AF42B8BF3D4625EAE57741F8207061
:1020D000D05C012556F820000021CDE9000506203E
:1020E000142264236646CDF8088000F031FADAF84D
:1020F00000009BF80010D9F80020405C012152F844
:1021000020001422CDE9000505206423CDF80880C5
:1021100000F01EFA4FF4FA7006F0B2FD4EE042F6FF
:102120000250C2F20000018042F60450C2F20000E8
:102130000A04068018BF5FEA064040F08A8000204B
:102140006070C5E0E08A0D1A29B285EAE132208B81
:10215000A2EBE132A17E92B2301A8A4225816081DF
:1021600000F2BB8002B280EAE230A0EBE23080B243
:10217000884200F2B280E078E17E884280F0F3800D
:102180000130E07007E19BF80010C5A000F0A0FE50
:1021900040F65800C2F2000000680021022200232D
:1021A000002507F0FBFF40F2D850C2F200000068A3
:1021B000022107F009F9E57003F0F5FB208940F6EC
:1021C000DE21C2F200010880A08940F6DC21C2F2C3
:1021D000000108809BF80010DAF800003268405CCB
:1021E000D9F8003052F8202053F82070B4A00B46E4
:1021F000009700F06DFE0020607003B0BDE8F08F26
:1022000042F60652C2F20002B4F80E80B4F810A0F2
:10221000B2F800C01FFA81FEA1EB0807A6EB0A0383
:10222000BEEB0C002781638148BF4042042867D879
:1022300042F60850C2F200000088B5B2281A48BF22
:10224000404204285CD8E578207D85425BD2013588
:1022500058E0E089228A081A01B280EAE133A3EB50
:10226000E133E17C9BB2B21A8B42208162811DD89E
:1022700013B282EAE337A7EBE3339BB28B4215D864
:1022800040F65800C2F2000000680021022200233C
:1022900007F084FF40F2D850C2F20000006802212B
:1022A00007F092F803F07FFB2089628940F6DE2177
:1022B000C2F20001088040F6E021C2F200010A806B
:1022C00001B24BF60A4012B2C0F6000000F000FE68
:1022D0004BF6EC30C0F60000D7E00020E07004F0D0
:1022E00049F8258957E000BF0000344300BF00BF14
:1022F000182D4454FB21094000000000008056C006
:10230000207D0025E5708542C0F0A18038B287EAC3
:10231000E031A1EBE031A07C89B2814250D819B202
:1023200083EAE133A3EBE13189B2814248D840F638
:102330005800C2F20000006800210222002300269B
:1023400007F02CFF40F2D850C2F2000000680221D2
:1023500007F03AF803F027FBE670ABF80060A9F845
:10236000006000216FE040F65800C2F200000068F3
:10237000002102220023002507F010FF40F2D85070
:10238000C2F200000068022107F01EF803F00BFB08
:10239000E570A581258140F6DE20C2F200000580AF
:1023A000B4F90A2040F6E020C2F2000002804BF6A9
:1023B0000A4029B2C0F6000000F08AFD4BA064E09C
:1023C0000CEB0E00FEF7A6F99FED330B55EC109BBE
:1023D0004A462B46FEF771F8834640460F46FEF705
:1023E000AAF902460B4658463946FEF760F8FEF752
:1023F000AFF942F60851C2F200010988208111FAB2
:1024000086F0FEF787F94A462B46FEF756F8054652
:1024100050460E46FEF78FF902460B4628463146D7
:10242000FEF745F8FEF794F9608103F0A3FF42F64A
:10243000025142F60452C2F20001C2F200020988BF
:1024400016880020E07042F60652C2F2000242F600
:102450000850C2F200001180068040F6DE20B4F978
:102460000810C2F20000B4F90A20018040F6E02012
:10247000C2F2000002804BF60A40C0F6000000F0F5
:1024800027FD4BF61840C0F6000003B0BDE8F04F42
:1024900000F01EBD00BF00BF000000000000E03FD4
:1024A0002A2A2A2A2A2A2A2A202564202A2A2A2A6B
:1024B0002A2A2A2A2A2043616C4F6B0D0A00000049
:1024C0004D4F544F525F585F506F735B25645D3DB5
:1024D0002535642020204D4F544F525F525F506F7E
:1024E000735B25645D3D2535640D0A004150505FE6
:1024F0004D41495843414D5F50617273655F434997
:1025000052434C455F43616C4361720D0A00000009
:1025100010B540F27034C2F2000462781AB903F0C8
:1025200057FA0120607003F0C5F908B1002060700F
:1025300010BD80B50520002100F022FE06200021FC
:1025400000F01EFE07200021BDE8804000F018BE0C
:102550002DE9F04784B00CAE70CE984691468A467D
:10256000074604F08DFD384651464A464346CDE9BC
:102570000045029600F0D3FD0A2004B0BDE8F04704
:1025800006F07EBB04F088BD80B582B040F2FC60EE
:10259000C2F20000002100688DF807100DF107015C
:1025A000002207F085FB012809D19DF8071042F6AB
:1025B0000150C2F20000017002A000F089FC02B0DC
:1025C00080BD00BF735F7563537461747573203A87
:1025D0002025640D0A000000F0B58FB007A8202167
:1025E000FDF779FE40F20130ADF8180040F201200D
:1025F00042F60157C0F20320C2F200070590387876
:1026000000212928049100F26982DFE810F05101CD
:102610000001A1013701E6001A01B9016702670252
:102620006702CD01670267026702670267026702FD
:102630006702670267021A022A002A002A0067025C
:102640006702670267026702670298007300580119
:1026500067026702670267026702670267027C011E
:10266000410240F2C151C2F200010978002918BFAD
:1026700003301538C4B24BF62610C0F600002146D0
:1026800000F026FC05A8055D012029460122002353
:10269000FFF7A1FB04AE00204FF0FF3132464FF0B0
:1026A000FF3307F0C7FE4BF6A220C0F6000021461C
:1026B00000F00EFC2846FFF751F800204FF0FF31E4
:1026C00032464FF0FF3307F0B5FE38780321172864
:1026D00038BF411CC8B20328397040F0FF81FFF7B2
:1026E0002FFB40F2D850C2F200000068022106F031
:1026F0006BFEF3E14BF68D10C0F6000000F0E8FB36
:1027000040F2C150C2F20000007805AB60F3000354
:1027100060F3410319785A789B780120FFF75EF93E
:1027200004AA00204FF0FF314FF0FF3307F082FE84
:10273000202038704BF6AC10C0F60000CCE14BF610
:102740000320C0F6000000F0C3FBFFF71AFB0220D5
:102750000221002200230025FFF73DFB04AC0020EE
:102760004FF0FF3122464FF0FF3307F063FE0126A2
:1027700040F2EA50CDE90006052001216422FA2347
:102780000295FFF7E5FE41F69B10CDE90006062015
:1027900000216422FA230295FFF7DAFE4FF4FA7063
:1027A00006F06EFA40F2C150C2F20000007805A9AE
:1027B00060F3000160F341010878FFF725FA00207B
:1027C0004FF0FF3122464FF0FF3307F033FE4BF658
:1027D00020203D70C0F600007EE14BF2FC70C0F698
:1027E000000000F075FBFFF7ABFA0420FEF7B8FE1F
:1027F00004AA00204FF0FF314FF0FF3307F01AFE1C
:10280000282038704BF62300C0F6000064E14BF638
:102810006F20C0F6000000F05BFBFFF791FA01208B
:10282000FEF79EFE04AA00204FF0FF314FF0FF3369
:1028300007F000FE022038704BF68920C0F6000039
:102840004AE14BF69000C0F6000000F041FBFFF7B4
:1028500077FA0520FEF784FE04AA00204FF0FF312E
:102860004FF0FF3307F0E6FD40F2C150C2F2000026
:102870000121017014203870ABA02DE14BF6490006
:10288000C0F6000000F024FBFFF75AFA0320FEF721
:1028900067FE04AA00204FF0FF314FF0FF3307F02E
:1028A000C9FD1E2038704BF66D00C0F6000013E124
:1028B0004FF4FA700FB0BDE8F04006F0E1B94BF606
:1028C000EB00C0F6000000F003FB40F2C150C2F282
:1028D0000000007805AA60F3000260F3410210785E
:1028E00051789278FEF7A4FF04AA00204FF0FF3140
:1028F0004FF0FF3307F09EFD042038704BF60910AF
:10290000C0F60000E8E04BF6CA10C0F6000000F088
:10291000DFFAFFF736FA0220022100220023FFF738
:102920005AFA04AA00204FF0FF314FF0FF3307F0AE
:1029300081FD40F2C150C2F200000078052100285C
:102940004BF6E71018BF06213970C0F60000C3E04F
:102950004BF6B400C0F6000000F0BAFA0220FEF711
:10296000FFFD04AA00204FF0FF314FF0FF3307F0C6
:1029700061FD142038704BF6D000C0F60000ABE0CB
:1029800057A000F0A5FAFFF7DBF90620FEF7E8FDF7
:1029900004AA00204FF0FF314FF0FF33002407F06E
:1029A00049FD58A03C7097E040F2C255C2F20005C4
:1029B000287838B94BF64310C0F6000000F088FACA
:1029C0000120287007AC204603F0FCFB002800F033
:1029D00085804BF6C520C0F60000214607F050FF69
:1029E000002005A9002200BFD3B2E35C2B2B08BF57
:1029F0000132D3B2E35C0132303B0B540130062884
:102A0000F2D107A803F03AFC40F65800C2F20000E9
:102A100000680021022200230224002607F0BEFBEA
:102A200004AA00204FF0FF314FF0FF3307F002FD02
:102A30004BF65910C0F600003C7000F049FA2E70B9
:102A40004CE04BF63C20C0F6000000F041FAFFF7E6
:102A500098F940F2C150C2F20000007805A960F375
:102A6000000160F341010978012000220023FFF7F3
:102A7000B2F904AA00204FF0FF314FF0FF3307F006
:102A8000D9FC032038704BF65620C0F6000023E036
:102A90004BF66E10C0F6000000F01AFA40F2C15476
:102AA000C2F20004207805AB60F3000360F3410339
:102AB00019785A789B78FEF791FF04AA00204FF00E
:102AC000FF314FF0FF3307F0B5FC207805210028D7
:102AD00018BF062139701DA000F0FAF90FB0F0BD43
:102AE000454E544552205354415455535F50726FD4
:102AF000536563417265615F325F53746172740D37
:102B00000A00000045584954205354415455535F1E
:102B100050726F536563417265615F325F537461D8
:102B200072740D0A00000000455849542053544166
:102B30005455535F50726F536563417265615F32E4
:102B40005F526177417265610D0A00004558495432
:102B5000205354415455535F50726F536563417213
:102B60006561506C6163650D0A00000082B040F23F
:102B7000D85441F2CC7641F2CD77C2F200044FF046
:102B8000FF35C2F20006C2F2000700BF2068022132
:102B900000220023009506F0BFFC800703D53078A3
:102BA0003978FFF7B5FC642006F06AF8EEE780B5E7
:102BB00003F08EFB4FF4C870BDE8804006F060B8AB
:102BC00080B503F097FB6420BDE8804006F058B85C
:102BD00003F0A6BB7047000082B040F2D854C2F2A6
:102BE00000042068012106F049FC4FF0FF3500BFCA
:102BF0002068012100220023009506F08DFCC0070B
:102C000018BFFEF7C1FA0A2006F03AF8F0E7FEF71F
:102C1000CBBA0000FEF77CFD052006F031F8F9E79D
:102C2000FFF7B2FCFFF7D8FC0A2006F029F8F7E717
:102C3000FFF79CBF8EB00520FEF780FD40F2C45127
:102C4000C2F2000108600620FEF778FD40F2D85479
:102C5000C2F2000440F2C8522168C2F200021060C1
:102C60000846802106F00AFC40F690084FF0FF3538
:102C7000C2F200082068802100220023009506F09F
:102C80004BFC000640F1D580D8F81000D8F824405D
:102C9000D8F83850D8F84CB0FDF779FD8146204679
:102CA0008A46FDF774FD41EC180B2846FDF76FFDD1
:102CB00041EC190B5846FDF76AFDD8F8104241EC7B
:102CC0001A0B2046FDF763FD41EC1B0B84F000401E
:102CD000FDF75DFDD8F8144241EC1C0B2046FDF7D2
:102CE00056FD41EC1D0B84F00040FDF750FD41EC1A
:102CF000100B4BF2AC70C0F600004A4653468DEC08
:102D00000C8B8DED0C0B07F0BBFD40F6E420C2F2FE
:102D100000000068FDF73BFD0446D8F818020D4698
:102D2000FDF735FD41EC100B44A022462B468DEDFE
:102D3000000B07F0A5FDD8F81400D8F82860D8F8E3
:102D40003C70D8F85040FDF722FD814630460D46D4
:102D5000FDF71DFD41EC180B3846FDF718FD41EC61
:102D6000190B2046FDF713FD41EC100B4BF2DC7004
:102D7000C0F600004A462B468DEC048B8DED040B0B
:102D800007F07EFDB8F91810B8F92C20B8F94030DA
:102D9000B8F954704BF29170C0F60000009707F03C
:102DA0006FFDD8F80800D8F81C10D8F84460D8F89F
:102DB0003070D0E90A23D1E90A01D6E90A64D7E9DB
:102DC0000A758DE8830021A0059440F2D85403953C
:102DD0004FF0FF350496C2F2000407F051FD40F2B7
:102DE000C450C2F200000068031D0ECB22A007F001
:102DF00047FD40F2C850C2F200000068031D0ECB30
:102E000023A007F03DFDD8E97817D8E97C2326A058
:102E1000CDE9001707F034FD40F6F420C2F20000BF
:102E2000016840F6F820C2F20000026823A007F013
:102E300027FD322005F024FF1CE700BF7B777A7D59
:102E4000252E33662C252E33660A00007B746F74A2
:102E5000616C5F616E676C655F6F66667365747DDC
:102E6000256C6C642C256C6C642C256C6C642C2596
:102E70006C6C640A000000007B4D4F544F525F524F
:102E80005F506F737D25642C25642C25640A000037
:102E90007B4D4F544F525F585F506F737D25642CAC
:102EA00025642C25640A00007B6469735F73657474
:102EB0007D256C6C642C256C6C640A007B675F6FED
:102EC000627365727665727D25642C25640A000044
:102ED00083B0B0B5ADF20C4D84460DF10B04CDF8C6
:102EE0001C14CDF82024CDF824340DF21C432046C8
:102EF00040F201416246019307F0E6FC40F2F465BE
:102F0000C2F2000528684FF0FF3104F052FD06A020
:102F1000214607F0B5FC286804F0A6FD0DF20C4D23
:102F2000BDE8B04003B07047257300002DE9F047BD
:102F300082B000250DF1070100208DF8075004F044
:102F4000A2FA00283FD042F6005640F2583741F22C
:102F5000C078C2F20006C2F20007C2F200080DF10A
:102F600007044FF001094FF0000A00BF307898B114
:102F700038783E281AD89DF807107B7A78683A7816
:102F8000994215D18554D8F80020AAB139789047D4
:102F900035704FF0010A0FE09DF8070079788842FC
:102FA00004BF86F800903D7006E000BF357003E076
:102FB000531C3B70815400BF0020214604F063FA8B
:102FC0000028D3D101E04FF0000A5FFA8AF002B086
:102FD000BDE8F087FEE740F6FC20C2F2000000F0FA
:102FE00037BA10B540F2087440F6FC20C2F2000473
:102FF00040F20073C2F20000C2F200030021224638
:1030000000F095F92068A0F20121032988BF10BDC6
:10301000013841F25011C0B2C2F2000101EB801040
:1030200040F20071C2F20001BDE8104004F0EEBAB7
:1030300040F62430C2F2000000F00ABAB0B540F207
:103040002C7540F2247440F62430C2F20005C2F21E
:103050000004C2F2000000212A46234600F067F96E
:1030600000B1B0BD40F68500C2F20000007869688A
:10307000B0EB112F0ED12078FD280BD160789F285E
:1030800008D1A0786B2805D140F68400C2F2000078
:103090000121017040F22C70C2F200001C21FDF7EA
:1030A0001AF9B0BD40F60C40C2F2000000F06ABC54
:1030B00040F64C60C2F2000000F064BC40F64C30B8
:1030C000C2F2000000F05EBC40F6AC60C2F200004C
:1030D00000F058BC40F6AC30C2F2000000F052BC28
:1030E00040F68C50C2F2000000F04CBC40F6EC50B0
:1030F000C2F2000000F046BC40F66C40C2F2000094
:1031000000F040BC40F6CC40C2F2000000F03ABCF7
:1031100040F62C50C2F2000000F034BC7047B0B54D
:1031200084B0DDE9084E8DF80000FD208DF8010027
:10313000100A8DF80300200E8DF80600200C8DF883
:103140000700200ADDF828C08DF808006B20002554
:103150008DF802108DF80C0068460D218DF80F5087
:10316000ADF80D508DF804208DF805308DF809402C
:103170008DF80AE08DF80BC003F0EEFE04B0B0BD90
:1031800080B584B08DF8000049F6FE00ADF801006E
:103190006B2000228DF803108DF80400684605218D
:1031A0000392CDF80920CDF8052003F0D5FE04B038
:1031B00080BD000072B600BFFEE710B590F820E0B9
:1031C000D0F800C0AEF1010EBEF1010FDCF808E04E
:1031D00011D81EF0E05F14D0CEF301640120A040AE
:1031E00018608B689BB1D1F804E0C86840EACE0053
:1031F00040EA030E0FE000F1240301204FF4802188
:1032000021E000F1240301204FF400111BE00868C5
:10321000CB6843EA405E0CF5C07000EB0413240158
:1032200040F804E00C69184640F8044F097D012974
:1032300003D1016841F48071016050680121D860B8
:103240001068986000201A681143196010BD90F84A
:103250002020013A012A30D8B0B546F20060C4F20D
:103260000000026842F001020260026822F47C520F
:103270000260D1F814E0CC694A6A0368012C43EA81
:10328000022202600EF01F024FF0010303FA02F265
:10329000C3696FEA020C23EA0203C36113D02CBB9B
:1032A000C36803EA0C03C360CB688C8844EA034319
:1032B00000EBCE0423640B4611E0416A41F4802107
:1032C000416201207047C3681343C3600B688C8858
:1032D00044EA034300EBCE04236401F10C038C6841
:1032E0001B8843EA044300EBCE04636443688D69A2
:1032F00043EA0204D1F810E0096A002D08BF03EA8E
:103300000C0444604369BEF1000F43EA020408BFA5
:1033100003EA0C040129446102D1C1691143C1616E
:10332000016821F0010101600020B0BD7047B0B517
:1033300090F82040013C012C7AD8D0F800C0002938
:103340000CBFDCF80C40DCF81040A40776D00CF57C
:10335000D8754FEA011C55F80C4014F00404946031
:1033600055F80CE005EB011C19BF4FEADE0555606E
:103370004FEA5E551560DCF80050E64605F00205A0
:10338000D5605EF8044F24075ABFDEF8004004F011
:103390000F0408241461DEF800400029C4F3072458
:1033A0009461DEF800504FEA15455561DCF80820BD
:1033B0001A70026802EB0112D2F8B8214FEA122209
:1033C0005A70026802EB0112D2F8B8214FEA124299
:1033D0009A70026802EB0112D2F8B8214FEA126229
:1033E000DA70026802EB0112D2F8BC211A7102688D
:1033F00002EB0112D2F8BC214FEA12225A71026884
:1034000002EB0112D2F8BC214FEA12429A71026813
:1034100002EB0112D2F8BC214FEA1262DA710068A5
:103420000CBF00F10C0100F11001002020220AE085
:1034300000F1240101204FF4802204E000F1240176
:1034400001204FF400120B681A430A60B0BD00005F
:103450002DE9F04F81B0044600684669D0F8049029
:103460008768D0F80CB0D0F810A0D0F81880F10719
:1034700001D1002549E0F9070ED00121BA0781608A
:1034800007D478071DD4380721D4204600F020FA4D
:1034900002E0204600F01DFA0025F8051CD5206842
:1034A0004FF48071BA05816007D478050CD43805D3
:1034B00010D4204600F00EFA0EE0204600F00BFA81
:1034C0000AE04FF40065E8E705F5005504E04FF425
:1034D0008055E2E705F58045F80316D520684FF4DE
:1034E0008031BA03816007D4780309D438030AD441
:1034F000204600F0F1F908E0204600F0EEF904E083
:1035000005F5004501E005F58035300707D51BF0CE
:10351000100004D0206845F400751021C1607007C8
:1035200008D51BF0080005D020680821C16020469E
:1035300000F08CF9B00706D52068C068800702D07B
:10354000204600F084F9700607D51AF0100004D068
:10355000206845F4806510210161B00608D51AF095
:10356000080005D0206808210161204600F080F99C
:10357000F00606D520680069800702D0204600F0DA
:1035800078F9B00308D519F0100005D02068102193
:103590004160204600F06EF9F00308D519F00800EC
:1035A00005D0206808214160204600F097F93004DA
:1035B00040D55FEA49703AD506F4807008EA1020D9
:1035C00028435FEA8871014648BF41F00201B20515
:1035D00058BF01465FEA48700D4648BF45F00405F4
:1035E000700558BF0D46300521D518F070001ED06B
:1035F00010380009052815D8DFE800F0030F090C82
:10360000061245F008050DE045F080050AE045F09A
:10361000200507E045F0400504E045F0100501E015
:1036200045F480752068816921F07001816120680E
:10363000042141604DB1606A40EA050120466162A3
:1036400001B0BDE8F04FFFF771BE01B0BDE8F08FEB
:10365000D0B1B0B5044690F8200010B9204600F073
:103660006FF82068016841F00101016000F027FC5B
:10367000054600BF20684168C90707D100F01FFC5C
:10368000401B0B28F6D312E001207047016821F09F
:103690000201016000F013FC054600BF206841688C
:1036A00089070BD500F00BFC401B0B28F6D3606A92
:1036B000052140F40030606201203EE0217E026876
:1036C000012922F0800208BF80320260617E026818
:1036D000012922F0400208BF40320260A17E026848
:1036E000012922F0200208BF20320260E17E026838
:1036F000012922F0100218BF10320260217F0268F7
:10370000012922F0080208BF08320260617F0268C6
:10371000012922F0040208BF04320260D4E901C288
:10372000D4E9033561691A432A431143ACF101021C
:103730001143C16100200121606284F82010B0BDF6
:1037400010B586B0044601A81421FCF7C4FD20681A
:1037500046F60001C4F2000188422ED046F2004134
:10376000C4F2000188426FD140F2DC51C2F2000184
:103770000A6843F63000C4F20200531C0B6052B9D1
:1037800000210091016941F000710161016901F0BE
:10379000007100910099002100910168142441F00A
:1037A0000101016000684FF4C05100F00100009079
:1037B00000980020C4F2020032E043F630000021FD
:1037C000C4F202000091026942F080620261026963
:1037D00002F080620092009A40F2DC52C2F20002D3
:1037E00013685C1C14604BB90091026942F00072CE
:1037F0000261026902F000720092009A0091016871
:10380000402441F00201016000684FF4405100F093
:103810000200009000980020C4F2020000F58060D1
:1038200001910221029100210391032104910921B8
:10383000059101A900F072FA20460521002200F04E
:10384000F5FB204600F0E2FB06B010BD704740F6E5
:10385000FC21C2F20001884208BFFFF7C2BB40F65C
:103860002431C2F20001884218BF7047FFF7E6BB5F
:103870007047704770470000B0B5044690F82000CC
:1038800001281CD1022084F820002068016821F062
:103890000101016000F013FB054600BF206840688D
:1038A000C00712D000F00BFB401B0B28F6D3606A58
:1038B00040F400306062052084F8200003E0606A74
:1038C00040F4002060620120B0BD00206062B0BD05
:1038D00070477047704770477047704770470000E7
:1038E00070B5866D044600F0EAFA94F835100229A6
:1038F00025D105462068216C026822F0160202607C
:10390000426922F08002426109B9A16C19B10168D3
:1039100021F008010160016821F00101016000BF90
:1039200020680068C0070ED000F0C9FA401B0628C6
:10393000F6D320206065032084F835000CE0802059
:103940006065012008E0E06D3F2101FA00F0B06001
:10395000012084F835000020002184F8341070BD67
:1039600090F83510022909D1052180F8351000683A
:10397000016821F00101016000207047802141654C
:1039800001207047F0B581B004460020009040F25D
:103990005030C2F200000268D4E9166048F2B51354
:1039A00037680821C1F64E3381403942A2FB032516
:1039B0000CD0226813685B0708D5136823F0040352
:1039C0001360B160616D41F00101616501218140C9
:1039D000394208D022685269120604D5B160616D7F
:1039E00041F00201616504218140394208D022681A
:1039F0001268920704D5B160616D41F00401616500
:103A000010218140394217D020680268120713D56F
:103A1000B16002680168520306D4C90506D4016882
:103A200021F00801016001E0080301D4216C00E0ED
:103A3000A16C09B120468847E16D202000FA01F20F
:103A40003A423CD020680368DB0638D5B26094F86F
:103A500035300268052B1AD122F016020260426945
:103A600022F080024261226C0AB9A26C1AB102688B
:103A700022F0080202603F208840B060012084F8F4
:103A80003500216D002084F83400B9BB3BE00168AB
:103A900052030CD4C9050ED4016821F01001016055
:103AA000012084F83500002084F8340003E0080386
:103AB00001D4616C00E0E16B09B120468847606D7C
:103AC00008B3606DC00717D0052084F83500206862
:103AD000A90A026822F00102026000BF009A0132C6
:103AE0008A42009202D80268D207F7D1012084F8F6
:103AF0003500002084F83400E16C21B1204601B08B
:103B0000BDE8F040084701B0F0BD00002DE9F041EC
:103B1000044600F0D4F9C4B10546022084F835000B
:103B20000020216884F83400086820F00100086053
:103B300021680868C0070BD000F0C1F9401B0528B8
:103B4000F6D903252023032064E00120BDE8F0819D
:103B5000086848F23F02CFF21002D4E9013500EACA
:103B6000020C04F10C0898E8C10143EA0C032B4352
:103B70001843D4E9072E304338431043626A40EAC1
:103B80000E00042A40EA08031CD1206BD4E90A2E57
:103B900040EA0E00184308604869BEF1000F20F0AB
:103BA000030040EA020040F0040C11D0B8F5005FB9
:103BB00035D0B8F1000F42D1022A43D0012A38D0C3
:103BC000002A3EE00B60486920F0070040EA020C42
:103BD00001F0F8004AF6AB221038CAF6AA22A0FB80
:103BE00002231A094BF20873C1F814C0C0F600038F
:103BF0009A5C40F2FF335F284FF03F0021EA030157
:103C000000FA02F088BF0431C4E91612886000236C
:103C100001250020636584F83550BDE8F081032A52
:103C2000D6D8012540230120DFE802F0020C020370
:103C3000F0E7AEF1C070B0FA80F0400904E0032A6A
:103C400004D3C5D1CEF300600028C1D001254023A4
:103C50000120DFE790F834C0BCF1010F04BF02205F
:103C6000704770B54FF0010C80F834C0D0F858E0C0
:103C700090F835C0BCF1010F37D14FF0020C80F83D
:103C800035C04FF0000CC0F854C0D0F800C08468B4
:103C9000056CC06DDCF80060402C26F48026CCF862
:103CA0000060CCF804300B4604BF13460A463F219F
:103CB00001FA00F0CCF80830CCF80C20CEF808005F
:103CC000DCF8000040F01600CCF800002DB1DCF864
:103CD000000040F00800CCF80000DCF8000040F0E4
:103CE0000100CCF80000002070BD002180F83410E5
:103CF000022070BDB0B5044600F0E1F8054640F280
:103D0000AC30C2F200000078611C18BF044400BF50
:103D100000F0D5F8401BA042FAD3B0BD2DE9F04F1A
:103D200083B000F1200200F13E4741F600450092C9
:103D300007F1FF77C4F2020508224FEAB726A8422E
:103D400008BF072200254FF000084FF00009072E9A
:103D500038BF4FEAB72201920F68012202FA09FE2A
:103D600017EA0E0A00F09980D1F804C003220CF083
:103D700003077E1E02FA08F4012E6FEA040B11D825
:103D80008468CE6804EA0B0406FA08F634438460BB
:103D9000446824EA0E06CCF3001404FA09F426431E
:103DA000466003E0032F01D103271EE0C6688C683C
:103DB00006EA0B0604FA08F42643022FC66014D163
:103DC0006FF00302009E02EA590756F807C005F09B
:103DD0001C040F220B69A2402CEA0202A3401A43E2
:103DE000F251D1F804C00CF00307026807FA08F397
:103DF00002EA0B021A431CF4403F02604DD000223D
:103E000043F644030292C4F202031A6843F60044E4
:103E100042F480421A601A68C4F2010402F480423B
:103E20000292029A29F003024FF6084C2244CFF680
:103E3000FF7C52F80C3005F00C070F26BE40B34350
:103E4000019E06FA07F73B4342F80C30A2684B6824
:103E500042EA0A0743F60C4CDE0258BF22EA0A0780
:103E6000A760C4F2010CDCF800209E0242EA0A07B7
:103E700058BF22EA0A07CCF8007062689E0342EA43
:103E80000A0758BF22EA0A0767602268DB0342EA92
:103E90000A0758BF22EA0A07276009F1010908F159
:103EA0000208B9F1100F05F104057FF455AF03B016
:103EB000BDE8F08F002A08BF0904816170474AF20B
:103EC0005020C2F200000068704740F2AC304AF265
:103ED0005021C2F20000C2F2000100780A681044CA
:103EE0000860704780B543F60040C4F202000168E4
:103EF00041F400710160016841F480610160016872
:103F000041F480710160032000F0BBF80F2000F045
:103F100004F800F05AF8002080BD70B586B0002586
:103F200043F640010195C4F202010A68044642F0DA
:103F300020020A60096801A801F02001019101999D
:103F4000694600F058F9049E002E18BF012600F0C3
:103F500071F94DF68361B040C4F21B31A0FB010141
:103F60004FF0FF3000EB914140F6547041F20042B7
:103F7000C2F20000C4F2000240F2E733C0E90021BF
:103F8000C0E902530561856100F0BBFB0546C8B975
:103F900040F65470C2F2000000F0F9FB054688B903
:103FA000372000F033F80F2C0BD8372021460022A1
:103FB000002500F03BF840F2B030C2F2000004608F
:103FC00000E00125284606B070BD82B0002043F60F
:103FD00040010190C4F202014A6842F480424A6002
:103FE0004A6802F480420192019A00900868002217
:103FF00040F08050086008680F2100F08050009069
:1040000000986FF0010002B000F010B800280CD446
:1040100000F01F01012202FA01F11C2202EAD00085
:104020004EF20012CEF200028150704710B54EF6EB
:104030000C5CCEF2000CDCF80030C3F3022E8EF0E4
:104040000704042C28BF0424BEF103034FF0FF3EF5
:104050000EFA04F438BF0023A14399400EFA03F38B
:104060009A43114300F00F0200F160430901043A42
:1040700003F564436244002848BF02F10C03197041
:1040800010BD4EF60C51CEF200010A684FF6FF0348
:104090001A4060F30A2242F0806040F0FD70086030
:1040A00070470000002872D02DE9F04143F6000867
:1040B000C4F202080446D8F800040D4600F00700D8
:1040C000884207D288F80054D8F8000400F00700AE
:1040D000A84266D12068810717D5410705D5D8F8D1
:1040E000081041F4E051C8F80810010705D5D8F8C8
:1040F000081041F46041C8F80810D8F80810A26808
:1041000021F0F0011143C8F80810C00741D1D8F8D8
:10411000000400F00700A84207D988F80054D8F836
:10412000000400F00700A8423BD12068410707D5F2
:10413000D8F80810E26821F4E0511143C8F80810DB
:10414000000708D5D8F80800216920F4604040EA4B
:10415000C100C8F8080000F093F8D8F808104BF236
:10416000B052C1F30311C0F60002515C40F250326C
:1041700020FA01F140F2B030C2F200000068C2F251
:1041800000021160FFF7C9FE0020BDE8F0810120A8
:1041900070476068811E022906D2D8F80010890194
:1041A00008D40120BDE8F08101281FD1D8F8001003
:1041B0008903F6D5D8F8081021F003010843C8F8A0
:1041C0000800FFF77CFE064641F28837D8F8080061
:1041D000616800F00C00B0EB810F98D0FFF76FFE24
:1041E000801BB842F2D90320BDE8F081D8F8001056
:1041F0008907D6D5DEE70F22026043F60802C4F233
:104200000202136803F003034360136803F0F00332
:104210008360136803F4E053C360D2F800C04FF426
:10422000E05303EADC030361D2F8F80300F007006F
:104230000860704740F2503043F60801C2F20000B7
:10424000C4F20201006809684BF2C052C1F3822136
:10425000C0F60002515CC840704740F2503043F64F
:104260000801C2F20000C4F20201006809684BF2C2
:10427000C052C1F34231C0F60002515CC8407047E1
:1042800010B543F60404C4F20204606800F00C01A7
:1042900042F200400829C0F2F40007D0042918BFF8
:1042A00010BD41F20020C0F27A0010BD216801F07B
:1042B0003F02216823684902C3F3881105D4A1FB9A
:1042C00000010023FBF78CFF06E041F20020C0F262
:1042D0007A004843B0FBF2F021680222C1F30141A9
:1042E00002EB4101B0FBF1F010BD000000286BD0E3
:1042F0002DE9F04182B00446007843F60006C0077D
:10430000C4F202060CD0B06800F00C00042840F0A3
:1043100098803068800303D56068002800F0AB8087
:10432000207880071BD5B06810F00C0F09D0B0685A
:1043300000F00C00082840F0A0807068400200F1F6
:104340009C803068800703D5E068012840F09380A6
:104350003068216920F0F80040EAC1003060207820
:10436000000733D42078400745D4A56955B3B06819
:1043700000F00C00082840F0B980012D7BD0706857
:10438000E16900F480028A4275D1216A00F03F029F
:104390008A4270D147F6C071626A0140B1EB821F58
:1043A00069D1A16A4FF6FF73C903994300F4403203
:1043B000A1F580318A425ED1E16A00F07060B0EB15
:1043C000016F58D10020F3E0012070476069002898
:1043D00078D00020C4F247200121C0F8801EFFF7EA
:1043E0006EFD0546706F8007BCD4FFF768FD401B6B
:1043F0000228F7D9DBE0306C5FEAC0080AD400205D
:104400000190306C40F080503064306C00F080508F
:104410000190019847F20007C4F200073868C00510
:1044200042D4386840F480703860FFF748FD054694
:104430003868C00538D4FFF742FD401B0228F7D981
:10444000B5E0B06800F00C00082803D170684002A5
:104450003FF55FAF61683068B1F5803F07D0B1F5D7
:10446000A02F40F08E8040F480203060306840F40F
:10447000803030608EE001209AE0E068002840F251
:104480000000C4F2472053D001210160FFF717FD5F
:10449000054600BF306880073FF55AAFFFF70FFDB4
:1044A000401B0228F6D982E0A168306F012905D0AF
:1044B00005294FD140F004003067306F40F0010013
:1044C000306750E00020C4F247200021C0F8801E71
:1044D000FFF7F5FC054600BF706F80077FF542AF20
:1044E000FFF7EDFC401B0228F6D960E00027C4F27C
:1044F000472700203866FFF7E2FC022D05460BD166
:104500003068800157D5FFF7DAFC401B02284FF0D6
:104510000300F5D94CE000BF306880017FF552AF51
:10452000FFF7CDFC401B02284FF00300F4D93FE019
:1045300000210160FFF7C3FC054600BF306880071B
:104540007FF50DAFFFF7BBFC401B02284FF00300C7
:10455000F4D92DE020F001003067306F002920F001
:104560000400306748D0FFF7AAFC054641F28837BF
:10457000306F800751D4FFF7A2FC401BB842F7D937
:1045800015E020F4803030603068002920F480206D
:1045900030604BD0FFF793FC054600BF30688003C6
:1045A0003FF5BEAEFFF78BFC401B6428F6D9032015
:1045B00002B0BDE8F08104F11C052FCD084340EAAC
:1045C0008210D9034FF6FF729143A1F5803140EA82
:1045D00005600843706001203866FFF770FC0446F0
:1045E000306880013FF5EEAEFFF769FC001B022842
:1045F0004FF00300F4D9DBE7FFF761FC054641F219
:10460000883700BF306F800707D5FFF758FC401B85
:10461000B8424FF00300F5D9CAE7B8F1000F3FF5F3
:10462000A4AE306C20F0805030649EE6FFF747FC6B
:10463000054600BF306880037FF572AEFFF73FFC90
:10464000401B64284FF00300F4D9B1E7704770476E
:1046500090F83C20012A4FF0020250D010B580F8AB
:104660003D200268D2F804E0D2F808C00C682EF0B1
:104670007003234341F2FF74C4F20004A24253606A
:104680000BDC40F2FF73C4F200039A4213DCB2F178
:10469000804F27D040F2004315E040F2FF33C4F2D0
:1046A00001039A4212DC41F60003C4F200039A426D
:1046B00018D0002312E040F60003C4F200039A422F
:1046C00010D040F60043C4F2000309E044F20003B6
:1046D000C4F201039A4205D040F20043C4F2010340
:1046E0009A4204D149682CF080031943916001215A
:1046F000002280F83D1080F83C20BDE810401046B4
:10470000704740B310B5044690F83D0028B900202A
:1047100084F83C00204600F020F8022084F83D0098
:104720002068211D01F0BCFE012084F8460084F8B9
:104730003E0084F83F0084F8400084F8410084F88B
:10474000420084F8430084F8440084F8450084F86B
:104750003D00002010BD01207047006840F60001B8
:10476000C4F20001884218BF704781B00020009059
:1047700043F64000C4F20200016841F00401016008
:10478000006800F004000090009801B0704790F8B5
:104790003D1001291CBF01207047022180F83D1007
:1047A000006841F2FF72C168C4F20002904241F019
:1047B0000101C1600BDC40F2FF71C4F200018842CC
:1047C00013DCB0F1804F27D040F2004115E040F2F9
:1047D000FF31C4F20101884212DC41F60001C4F24B
:1047E0000001884218D0002112E040F60001C4F216
:1047F0000001884210D040F60041C4F2000109E0F7
:1048000044F20001C4F20101884205D040F20041A7
:10481000C4F20101884204D1816801F00701062930
:1048200003D0016841F0010101600020704790F859
:104830003C20012A4FF002026BD080B580F83D2069
:10484000D0F800C04FF67772DCF8083023EA020295
:10485000CCF808200B684F2B28DC1F2B44DD202BC5
:1048600045D0302B43D0402B40F0AC80D1F804E051
:10487000C968DCF82030DCF8202022F00102CCF8F6
:104880002020DCF8182022F0F00242EA011123F087
:104890000A0242EA0E02CCF81810CCF82020DCF80C
:1048A000081041F0470121F0300127E06F2B32DD85
:1048B000B3F5005F73D0B3F5805F21D0702B40F06B
:1048C0008180D1E901E3C968DCF8082043EA0E03DE
:1048D00022F47F4243EA01211143CCF80810DCF8AE
:1048E000081041F0770109E00BB1102B6AD1DCF818
:1048F000081021F07001194341F00701CCF80810AD
:104900000022012180F83D10002180F83C10BDE814
:10491000804010467047502B21D0602B52D1D1F8E7
:1049200004E0C968DCF82030DCF8202022F0100216
:10493000CCF82020DCF8182022F4704242EA013141
:1049400023F0A00242EA0E12CCF81810CCF8202076
:10495000DCF8081041F0670121F01001CEE7D1F832
:1049600004E0C968DCF82030DCF8202022F00102E5
:10497000CCF82020DCF8182022F0F00242EA0111E5
:1049800023F00A0242EA0E02CCF81810CCF82020DC
:10499000DCF8081041F0570121F02001AEE7D1E921
:1049A00001E3C968DCF8082043EA0E0322F47F42E1
:1049B00043EA01211143CCF80810DCF8081041F457
:1049C00080419BE701229CE7704770B50446006870
:1049D000C5680669B10716D515F0020113D06FF04E
:1049E00002010161012121778069800703D02046FF
:1049F000FFF7EAFF05E0204600F0B5F8204600F09A
:104A00002CF900202077700718D515F0040015D078
:104A100020686FF00401016102212177806910F4A0
:104A2000407F03D02046FFF7CFFF05E0204600F08F
:104A30009AF8204600F011F900202077300717D5AA
:104A400015F0080014D020686FF0080101610421FE
:104A50002177C069800703D02046FFF7B5FF05E046
:104A6000204600F080F8204600F0F7F8002020777C
:104A7000F00618D515F0100015D020686FF0100161
:104A8000016108212177C06910F4407F03D02046DE
:104A9000FFF79AFF05E0204600F065F8204600F099
:104AA000DCF800202077F00718BF15F0010006D0D1
:104AB00020686FF001010161204600F04EF93006D8
:104AC00009D515F0800006D020686FF080010161E3
:104AD0002046FFF7BBFD700609D515F0400006D053
:104AE00020686FF040010161204600F040F9B006F7
:104AF00058BF70BD15F0200008D021686FF020026B
:104B000020460A61BDE87040FFF7A1BD70BDB0B599
:104B100086B0044640F6000501A81421C4F2000541
:104B2000FBF7D9FB2068A8421BD1002043F63001D7
:104B30000090C4F202010A6842F008020A600968A3
:104B400001F00801009100994FF470410191022198
:104B5000CDE90210CDE9040105F5013001A9FFF707
:104B6000DDF806B0B0BD7047B0B5044690F83C0023
:104B7000012804BF0220B0BD0D464FEAB20101205A
:104B8000032984F83C0037D8DFE801F002220A1A32
:104B90002068294601F01AFD206850F8181F06E029
:104BA0002068294601F077FD206850F81C1F41F06D
:104BB00008010160016821F004010160296917E022
:104BC0002068294601F09AFD206850F81C1F06E075
:104BD0002068294601F02BFD206850F8181F41F489
:104BE00000610160016821F48061016029690902A6
:104BF0000268114301600020002184F83C10B0BD20
:104C000040B310B5044690F83D0028B9002084F860
:104C10003C00204600F020F8022084F83D00206887
:104C2000211D01F03DFC012084F8460084F83E007F
:104C300084F83F0084F8400084F8410084F8420082
:104C400084F8430084F8440084F8450084F83D006B
:104C5000002010BD0120704770477047A1B10429A2
:104C600004D0082914BF4122402200E03F22825C88
:104C7000012A11D10222082910D0042914BF80F87A
:104C8000412080F83F200BE090F83E20012A03D11C
:104C9000022280F83E2003E00120704780F8402087
:104CA000006801F01F010122036A02FA01F123EA00
:104CB00001020262026A114341F2FF72C4F2000271
:104CC000904201620BDC40F2FF71C4F200018842A5
:104CD00013DCB0F1804F35D040F2004115E040F2D6
:104CE000FF31C4F20101884214DC41F60001C4F234
:104CF0000001884226D0002114E040F60001C4F2F1
:104D0000000188421ED040F60041C4F200018842F2
:104D100018D01CE044F20001C4F20101884211D015
:104D200040F20041C4F20101884210D1416C40F2CE
:104D3000004340F48062C4F2010341F400419A420E
:104D4000416404D1816801F00701062903D001689C
:104D500041F00101016000207047006841F200410C
:104D6000C4F20001884218BF7047FFF7AEB8704721
:104D700070B582B0044690F84200202820D14FF050
:104D80000105F1B1EAB1002620462563666301F012
:104D900087FE206B012814D10196206801680191DB
:104DA00040680190019800BF206850E8030F216817
:104DB00040F0100041E80302002AF5D1002500E090
:104DC0000225284602B070BD10B5044640F69C701E
:104DD000C2F2000084421BD040F6E470C2F2000030
:104DE00084421AD041F22C00C2F20000844219D051
:104DF00041F27400C2F20000844218D041F2BC00BB
:104E0000C2F20000844217D0FEF7D4F9002017E068
:104E100042F6F030C2F2000012E042F60040C2F268
:104E200000000DE042F61040C2F2000008E042F639
:104E30002040C2F2000003E042F63040C2F200001F
:104E4000E16B09684968C1810189C289891A418178
:104E500010BD7047B0B582B0044600680168C368F1
:104E6000426901F02F05202D03F0200506D12DB158
:104E7000204602B0BDE8B04001F042BD5FEA017CCF
:104E80001EBF02F0010E03F4907212EB0E026ED1FF
:104E9000226BCD0643D5012A41D113F010023ED03A
:104EA00000210191016801914168019101994069D6
:104EB000400600F1CB80A08DE18DE28D002A00F04C
:104EC0001581884200F01281401A00BF216851E824
:104ED000031F226821F4907142E80313002BF5D1DF
:104EE000216851E8051F226821F0010142E80513FD
:104EF000002BF5D1202184F842100021216300BF4E
:104F0000216851E8031F226821F0100142E80313D1
:104F1000002BF5D1022281B220466263DCE00A0652
:104F200040F1828013F0800200F07E8094F84110FE
:104F3000212940F0DB80A168B1F5805F03D12169B0
:104F4000002900F0DB80216A4A1C22620978416056
:104F5000E18C01390A04E18440F0C880C16821F085
:104F60008001C160C16841F04001C160BEE0CA0774
:104F700018BF13F4807203D0626C42F001026264C5
:104F80004A0706D5BEF1000F03D0626C42F0020260
:104F900062648A0706D5BEF1000F03D0626C42F04E
:104FA00004026264BCF1000F06D55EEA050203D07C
:104FB000626C42F008026264626C002A00F0968023
:104FC000890604D51DB1204601F09AFC206840698D
:104FD000616C00F0400001F00801401800F0818091
:104FE000204601F065FC20684069400640F1808061
:104FF000206850E8050F216820F0400041E80502D4
:10500000002AF5D1E06B002872D046F26371C0F639
:1050100000010165FEF7A4FC002867D0E06B016D7C
:1050200002B0BDE8B040084749065FD513F0400123
:105030005CD0C16821F04001C1602021204684F885
:10504000411002B0BDE8B04000F0C4BBE06B0168A5
:1050500049688AB2002A49D0A38D9A4246D2E18596
:10506000C069B0F5807F30D0206850E8030F216818
:1050700020F4807041E80302002AF5D1206850E84E
:10508000050F216820F0010041E80502002AF5D152
:10509000206850E8050F216820F0400041E8050233
:1050A000002AF5D1202084F842000020206300BFB0
:1050B000206850E8030F216820F0100041E8030247
:1050C000002AF5D1E06BFEF70BFC02206063A08D97
:1050D000E18D401A81B2204602B0BDE8B040FFF732
:1050E00073BE2046FFF7B5FE0020606402B0B0BD7D
:1050F000204602B0BDE8B040FFF7ABBE216A31F8F0
:10510000022B6FF35F224260216221E758B310B592
:10511000044690F8410028B9002084F84000204659
:1051200000F023F8242084F841002068C16821F4AD
:105130000051C160204601F044FC2068016921F45F
:1051400090410161416921F02A014161C16841F446
:105150000051C16000202021606484F8411084F86F
:105160004210606310BD012070472DE9F04F87B0F9
:10517000044602A81421FBF7AEF8206844F6FF713C
:10518000C4F20001884200F3818044F20041C4F27D
:105190000001884200F0BE8044F60001C4F2000124
:1051A000884200F0A58144F60041C4F20001884223
:1051B00040F07882002643F630000196C4F20200E7
:1051C000016946F2100841F4002101610169C4F24D
:1051D000020801F40021019101990196016841F052
:1051E00004010160006802A900F004000190019828
:1051F0004FF4406002900220CDE9030603200590A1
:10520000082006900020C4F2020000F50060FEF7BE
:1052100085FD40F6AC3508F16000C2F200054FF0A4
:1052200000674021C5E9000705F108004FF48069D7
:1052300080E8420205F114001421FBF74CF82846DF
:10524000FEF764FC08B1FDF7B5FFA563AC6340F65B
:105250004C3508F13000C2F200054FF48071C5E909
:1052600000072846C5E90266C5E90496C5E9066156
:10527000C5E90866FEF74AFC08B1FDF79BFFE56348
:10528000AC63342000210022342406E245F2000100
:10529000C4F20001884200F0A68041F20001C4F28D
:1052A0000101884200F0908141F20041C4F2010105
:1052B000884240F0F781002043F630010190C4F2AB
:1052C00002014A6942F020024A614A6902F0200262
:1052D0000192019A01900A6842F004020A6009688A
:1052E00001F0040101910199C02102910221CDE94F
:1052F000031003200590082006900020C4F202004D
:1053000000F5006002A9FEF709FD472005210022F3
:105310004724C2E1002643F630000196C4F20200A1
:10532000016946F2100841F4003101610169C4F2DB
:10533000020801F40031019101990196016841F0E0
:1053400001010160006802A900F0010001900198CC
:105350000C2002900220CDE90306032005900720CF
:1053600006900020C4F20200FEF7D8FC40F6EC558F
:1053700008F19000C2F200054FF000674021C5E936
:10538000000705F108004FF4806980E8420205F14A
:1053900014001421FAF79FFF2846FEF7B7FB08B167
:1053A000FDF708FFA563AC6340F68C5508F1780063
:1053B000C2F200054FF48071C5E900072846C5E92F
:1053C0000266C5E90496C5E90661C5E90866FEF707
:1053D0009DFB08B1FDF7EEFEE563AC6326200021DE
:1053E0000022262459E1002643F630000196C4F23B
:1053F00002000169002741F4801101610169C4F2D2
:10540000020701F48011019101990196016802AD32
:1054100041F004010160016846F2100801F0040146
:1054200001910199019601684FF0020941F00801CC
:10543000016000684FF0030A00F008000190019835
:105440004FF4805002904FF0080B07F5006029469A
:10545000C4F20208CDE90396CDF814A0CDF818B037
:10546000FEF75CFC0420CDE9020904A880E8400CAA
:1054700007F540602946FEF751FC40F66C4508F1FF
:10548000A800C2F200054FF000674021C5E90007FF
:1054900005F108004FF4806980E8420205F114002C
:1054A0001421FAF718FF2846FEF730FB08B1FDF784
:1054B00081FEA563AC6340F60C45C2F200054FF4D3
:1054C0008070C5E906602846C5E90087C5E902661F
:1054D000C5E90496C5E90866FEF718FB08B1FDF7B3
:1054E00069FEE563AC633520002100223524D4E059
:1054F000002643F630000196C4F20200016946F22C
:10550000100841F4802101610169C4F2020801F42C
:105510008021019101990196016841F00201016029
:10552000006802A900F00200019001984FF4406069
:1055300002900220CDE90306032005900720069083
:105540000020C4F2020000F58060FEF7E7FB40F6A1
:10555000AC6508F14800C2F200054FF00067402139
:10556000C5E9000705F108004FF4806980E84202B0
:1055700005F114001421FAF7AEFE2846FEF7C6FA2C
:1055800008B1FDF717FEA563AC6340F64C6508F162
:105590001800C2F200054FF48071C5E900072846E3
:1055A000C5E90266C5E90496C5E90661C5E908666C
:1055B000FEF7ACFA08B1FDF7FDFDE563AC6327200B
:1055C00000210022272468E0002643F630000196DF
:1055D000C4F20200416946F2100841F01001416135
:1055E0004169C4F2020801F010010191019901968C
:1055F000016841F001010160006802A900F00100AA
:10560000019001984FF4C06002900220CDE903069A
:1056100003200590072006900020C4F20200FEF748
:105620007DFB40F62C5508F59560C2F200054FF061
:1056300000674021C5E9000705F108004FF48069C3
:1056400080E8420205F114001421FAF744FE2846CE
:10565000FEF75CFA08B1FDF7ADFDA563AC6340F65B
:10566000CC4508F58660C2F200054FF48071C5E9AB
:1056700000072846C5E90266C5E90496C5E9066142
:10568000C5E90866FEF742FA08B1FDF793FDE56348
:10569000AC632520052100222524FEF7C7FC204607
:1056A000FEF7B4FC07B0BDE8F08F7047704700000C
:1056B0002DE9F041044690F8410020281CBF02204B
:1056C000BDE8F0810D464FF00100E1B31746D2B3BB
:1056D000002060642120984684F84100FEF7EFFB2B
:1056E000A784E784A1680746B1F5805F01D12069EE
:1056F00088B32E46002500BFE08CC0B12046802133
:105700003A46434601F018FAF8B92EB116F8010BE3
:105710002168486007E000BF35F8020B21686FF38D
:105720005F2048600026E08C0138E084E4E72046F2
:1057300040213A46434601F0FFF9202184F8411008
:10574000002818BF0320BDE8F081202084F8410024
:105750000320BDE8F0810026CEE70000B0B5044686
:1057600090F8410020281CBF0220B0BD4FF001007E
:1057700079B313466AB34FF0000C21202162A38451
:10578000E384C4F844C084F84100A06B46F66D0E73
:1057900046F6AB052268C0F6000EC0F60005C0E96B
:1057A0000FE546F27175C0F600050432C0E9135CDE
:1057B000FEF750FA20686FF040010160206850E861
:1057C000050F216840F0800041E80502002AF5D16C
:1057D0000020B0BD704770472DE9F04F81B04FF009
:1057E00000090DF1030102208DF8039001F04BFE3A
:1057F000002855D040F2E05640F26437C2F200066D
:10580000C2F200070DF103044FF0050A4FF0010B3F
:105810004FF00008307805281AD0012808D098BB2E
:105820009DF803007978884208BF86F800B02DE023
:105830009DF80300B978884226D1082087F80090A7
:10584000F8707878B9780844387286F800A01DE0BE
:105850009DF8031078683A78531C3B7081543B786C
:10586000FD783A7AAB4218D991420DD141F2C47118
:10587000C2F200010A683AB1F9789047022001F0BB
:10588000F5FD4FF0010800BF86F800900220214688
:1058900001F0F9FD0028BDD104E050183872F5E799
:1058A0004FF000085FFA88F001B0BDE8F08F00000B
:1058B000FEE700002DE9F04381B04FF000090DF143
:1058C000030101208DF8039001F0DDFD002865D073
:1058D00040F2E85640F28C3741F2C878C2F2000636
:1058E0000DF10304C2F20007C2F20008002500BF58
:1058F00031780020072949D8DFE801F0042B480B54
:105900004830401B9DF80300797888423FD1012040
:105910003CE087F800907878F9789DF803200844F7
:1059200010443872786839784B1C3B70425405201B
:105930002CE09DF80300797A88424FF0000025D1D1
:10594000D8F8002012B37868F97890470125002034
:105950001CE09DF80300F870032017E09DF8030099
:1059600079683A78531C3B708854397A0844387205
:105970003878F97888420AD3072007E09DF80300B9
:10598000397A88424FF0000008BF072030700120AC
:10599000214601F078FD0028AAD100E00025E8B2F8
:1059A00001B0BDE8F08310B540F20C04C2F200046F
:1059B0002046FAF79BFC82B2B2F5006F28BF4FF485
:1059C000006201202146BDE8104001F07EBD0000CC
:1059D00010B50246481E44F25274C0B2C0F24204EE
:1059E000C300032838BF24FA03F140F2E954C2F29D
:1059F0000004CBB209A1204604F052FF2046FAF77A
:105A000075FC82B2B2F5006F28BF4FF4006201202E
:105A10002146BDE8104001F058BD00BF6D6F6465C0
:105A20003D2564256300000080B540F6FC2046F269
:105A30000041C2F20000C4F200010322002380E80A
:105A40000E0000F10C014FF4102C4FF4001E81E801
:105A5000085083618383FDF7FBFD18B1BDE88040EA
:105A6000FDF7A8BB80BD80B540F6243046F60001A6
:105A7000C2F20000C4F200010C22002380E80E00F4
:105A800000F10C014FF4003C4FF4001E81E8085077
:105A90004FF480710183C0F81A30FDF7D9FD18B1B9
:105AA000BDE88040FDF786BB80BD80B582B0002098
:105AB00043F630010190C4F202010A6842F4001278
:105AC0000A600A6802F400120192019A00900868C4
:105AD000002240F4800008600868002100F4800083
