:020000040800F2
:10000000F8AE0020A10100083D5E00080557000879
:10001000395E0008292E0008796A000800000000F7
:10002000000000000000000000000000A1610008C6
:10003000712F000800000000B15F0008C501000832
:10004000BB010008BB010008BB010008BB010008A0
:10005000BB010008BB010008BB010008BB01000890
:10006000BB010008BB010008BB010008F92E000815
:10007000052F0008112F00081D2F0008292F000848
:10008000352F0008412F0008BB010008BB01000804
:100090002B2E0008BB010008BB010008BB010008B3
:1000A000BB010008BB010008BB010008BB01000840
:1000B000BB010008BB010008BB010008BB01000830
:1000C000BB010008BB010008BB010008BB01000820
:1000D000BB010008476A0008536A00085F6A00080D
:1000E000BB010008BB010008BB010008BB01000800
:1000F000BB010008BB010008BB0100084D2F000830
:10010000BB010008BB010008BB010008BB010008DF
:10011000DF650008EB650008BB01000829630008E3
:10012000BB010008BB010008592F0008BB010008F3
:10013000BB010008BB010008BB010008BB010008AF
:10014000852E0008BB010008BB010008BB010008A8
:10015000BB010008BB010008652F00086B6A00089E
:10016000BB010008BB010008BB010008BB0100087F
:10017000BB010008BB010008BB0100080000000033
:10018000BB010008BB010008DFF810D000F066FCDE
:1001900000F0D8F800480047E9760008F8AE0020E3
:1001A0000648804706480047FEE7FEE7FEE7FEE711
:1001B000FEE7FEE7FEE7FEE7FEE7FEE7176300085F
:1001C0008901000830B410B50348804730BCAE4602
:1001D00030BC024800477047BD7A000851620008F1
:1001E0002DE9F05F0546002092469B46884606466C
:1001F000814640241BE0284641464746224600F0FF
:100200000FFB53465A46C01A914110D31146184667
:10021000224600F0F6FA2D1A67EB01084F462246F7
:100220000120002100F0EDFA17EB00094E41201EDD
:10023000A4F10104DFDC484631462A464346BDE8C6
:10024000F09F2DE9F0410024061B254671F10006C0
:1002500005DA01240027D0EB070067EB0101161E29
:1002600073F1000605DA0027D2EB0702012567EBE0
:100270000303FFF7B5FF86460E4617469C46AC4281
:1002800004D00025D0EB050E65EB010624B100205B
:10029000D2EB000760EB030C704631463A466346EA
:1002A000BDE8F08140EA01039B0703D009E008C9DB
:1002B000121F08C0042AFAD203E011F8013B00F82B
:1002C000013B521EF9D27047D2B201E000F8012B77
:1002D000491EFBD270470022F6E710B513460A46C6
:1002E00004461946FFF7F0FF204610BD421C10F8E7
:1002F000011B0029FBD1801A7047034611F8012B1E
:1003000000F8012B002AF9D11846704730B5054690
:100310000020034600E05B1C934205D2EC5CC85C05
:10032000201A01D1002CF6D130BD70B506460AF076
:100330003DFA046805460A220021304600F092FA90
:100340002C6070BD7CB507480090074801900546B9
:10035000009C04E02046016808448047241DAC420C
:10036000F8D17CBDF4BA0008F8BA00082DE9FE4FB8
:10037000804681EA0300C00F0C46009021F0004146
:1003800023F00045B8EB0200A94105D240462146C2
:1003900090461C460B46024623F00040104347D0CF
:1003A000270DC7F30A00C3F30A510290401A0190C7
:1003B00040286BDAC3F3130040F4801B0098924688
:1003C00020B10023D2EB030A63EB0B0B01985946D3
:1003D000C0F14002504600F014FA06460D46504661
:1003E0005946019A00F02CFA10EB080061410024F4
:1003F00087EA115284EAE7731A4340D0009A62B345
:10040000019A012A4FEA075215DC001B61EB020139
:100410004FF0004202EA0752CDE90042001C41F5CC
:10042000801132462B4600F09BFA03B0BDE8F08FF6
:1004300040462146F9E7001B61EB0201001C41F533
:10044000801300185B412018A2F5001747EB030149
:1004500040EAD570B6196D4111E06D084FEA3606D5
:1004600045EAC0754FEA0752001B61EB0201001C10
:1004700041F5801149084FEA3000001951413246D8
:100480002B4603B0BDE8F04F00F05BBA00980122A4
:1004900040000023D0EB020263EBE073009821469A
:1004A0004FEAE074B8EB000061EB0401E9E783F088
:1004B00000435BE781F0004158E72DE9FE4F81EAF8
:1004C000030404F0004421F0004100944FF0000BBD
:1004D00023F0004350EA01045ED052EA03045BD0EB
:1004E000C3F30A54C1F30A552C44A4F2F334019423
:1004F000A0FB0254C1F3130141F48011C3F31303B1
:1005000043F4801301FB024400FB034E840A970A64
:1005100044EA815447EA8357A4FB076802958D0A91
:1005200005FB07854FEA932C04FB0C542705029D1D
:100530004FEA065847EA1637B5EB08056EEB070C8D
:10054000870E920E47EA811742EA8312A7FB020147
:10055000B6EB0B0164EB00042B0D43EA0C335E1881
:1005600044EB1C50DA465146E7FB0201C5F3130485
:100570004FEA0B3343EA14534FEA0432019C43EA37
:100580000603A4F10C040294009CCDE900B400F031
:10059000E7F903B0BDE8F08F00200146F9E72DE947
:1005A000F04D81EA030404F0004B21F000451446AD
:1005B0004FF0000A23F0004150EA050220D054EA2F
:1005C00001021DD0C5F30A570246C5F31303C1F358
:1005D0001300C1F30A5640F4801543F48013A7EBCF
:1005E0000608101BD64608F2FD3873EB050002D34F
:1005F00008F1010801E092185B41B8F1000F03DA3D
:1006000000200146BDE8F08D00204FF48011064621
:1006100084460EE0171B73EB050705D3121B63EB33
:10062000050306434CEA010C49084FEA30009218D2
:100630005B4150EA0107EDD152EA030012D082EA91
:10064000040083EA0501084305D0101BAB4106D224
:100650000122002306E000224FF0004302E06FF089
:10066000010253101AEB06004CEB085110EB0A0084
:1006700041EB0B01BDE8F04D00F063B930B5041E4D
:1006800071F1000404DB4FF00044404264EB0101CF
:10069000141E73F1000405DB1C464FF00043524268
:1006A00063EB0403101A8B4101D2012030BD0020FE
:1006B00030BD30B5041E71F1000404DB4FF000447E
:1006C000404264EB0101141E73F1000405DB1C467B
:1006D0004FF00043524263EB0403801A994101D268
:1006E000012030BD002030BDF0B4CA17CB0F504000
:1006F0005140C61841F100054FEAC3723146280047
:100700004FF0960303D0B623F0BC00F0ECB83046AF
:100710000021F9E70EB5C10F80EAE0700844CA076E
:10072000002140F233438DE80E000A460B4600F0EC
:1007300017F903B000BD10B500F0004420F00040F0
:10074000C20DC0F3160040F400007F2A02DA002038
:10075000014610BD0021962A03DCC2F19602D0406A
:1007600002E0963A00F04DF8002CF2D00023D0EBD6
:10077000030063EB010110BD00F0004230F00040C7
:100780000AD0C10D01F56071C0F3160042EA0151B3
:10079000C20840071143704700200146704701F02E
:1007A000004330B421F0004150EA010206D00A0DA6
:1007B000A2F56072C1F31301002A02DC30BC0020F4
:1007C0007047440F44EAC104C100E01830BC00EB9C
:1007D000C25000F07FB830B50B4601460020202201
:1007E000012409E021FA02F59D4205D303FA02F53E
:1007F000491B04FA02F52844151EA2F10102F1DC9E
:1008000030BD202A04DB203A00FA02F100207047B4
:100810009140C2F1200320FA03F31943904070473E
:10082000202A04DB203A21FA02F00021704721FA45
:1008300002F3D040C2F120029140084319467047AC
:10084000202A06DBCB17203A41FA02F043EAE07394
:1008500006E041FA02F3D040C2F120029140084381
:10086000194670472DE9F04791460F4680460446E9
:10087000002614F8015B2DB100F008F90068405D16
:10088000C007F6D12B2D02D02D2D18D0641E4A465C
:100890003946204600F0FEF827B13968A14201D15F
:1008A000C7F8008071054FF002040BD540420028C4
:1008B00003DD09F07BFF0460A007BDE8F08746F484
:1008C0008066E4E70028F8DA09F070FF04606FF052
:1008D0000040F2E70029A8BF7047401C490008BF4C
:1008E00020F00100704710B4B0FA80FC00FA0CF060
:1008F00050EA010404BF10BC704749B1CCF1200498
:1009000021FA04F411FA0CF118BF01212143084324
:10091000A3EB0C01CB1D4FEA00614FEA102042BF50
:10092000002010BC704700EBC35010440029A4BF46
:1009300010BC7047401C490008BF20F0010010BCEB
:10094000704710B5141E73F1000408DA401C41F121
:10095000000192185B411A4301D120F0010010BD43
:100960002DE9F04D92469B4611B1B1FA81F202E0B9
:10097000B0FA80F220329046FFF743FF04460F465C
:1009800040EA0A0041EA0B0153465A46084313D095
:10099000114653EA010019D0C8F140025046FFF752
:1009A0003FFF05460E46504659464246FFF729FF8F
:1009B000084305D0012004E020463946BDE8F08D0B
:1009C0000020054346EAE0762C4337430A98630546
:1009D000E40AA0EB08000022FD0A44EA47540A306A
:1009E00002D500200146E9E7010510196941DDE95A
:1009F000084500196941BDE8F04DA2E7C1F30A526C
:100A0000C1F3130140F2FF3341F480119A4202DA3C
:100A100000200146704740F233439A42A2F233422B
:100A200002DC5242FFF7FCBEFFF7EBBE30B5041EFE
:100A300071F1000404DB4FF00044404264EB01011B
:100A4000141E73F1000405DB1C464FF000435242B4
:100A500063EB0403994208BF904230BD1CB50948BE
:100A60000090094801900546009C06E0E06840F0CF
:100A7000010394E8070098471034AC42F6D3FFF71F
:100A800087FB0000D4BA0008F4BA00080048704799
:100A900020B400082DE9F05F824600780027154653
:100AA0008B460AF10104B946302801D09DB113E00C
:100AB00014F8010B0127782803D0582801D045B13C
:100AC0000AE00DB1102D07D10027102514F8010BF5
:100AD00002E0082500E00A250026B0460EE005FBEE
:100AE000080005FB06F1012701EB10461FFA80F80C
:100AF000B6F5803F00D3B94614F8010B294600F043
:100B000018F80028EBDABBF1000F05D00FB1641E16
:100B100000E05446CBF80040B9F1000F06D009F0D0
:100B200045FE02210160C81EBDE8F09F48EA06406C
:100B3000FAE73A2800D2303820F02002412A01D3C7
:100B4000A2F13700884201D34FF0FF30704730B533
:100B50008C1810F8012B12F00F0301D110F8013B93
:100B6000120906D110F8012B03E010F8015B01F81F
:100B7000015B5B1EF9D101E001F8013B521EFBD184
:100B8000A142E6D3002030BD40F69530C0F600000B
:100B900006F01DB870B584B004464BF62220C0F6AE
:100BA0000000214602F0BEF80FF20C512046082248
:100BB000FFF7ACFB002800F0A3800FF2085120469D
:100BC0000D22FFF7A3FB002800F0DB800FF2045199
:100BD00020460422FFF79AFB002800F016810FF24E
:100BE000FC4120460522FFF791FB002800F01C8104
:100BF0000FF2F04120460522FFF788FB002800F0A5
:100C000058820FF2E84120460722FFF77FFB0028B9
:100C100000F01A810FF2DC4120460922FFF776FB33
:100C2000002800F025810FF2D84120460922FFF765
:100C30006DFB002800F027810FF2D04120460422EE
:100C4000FFF764FB002800F02E810FF2C841204618
:100C50000822FFF75BFB002800F031810FF2C04152
:100C600020460922FFF752FB002800F031810FF2E5
:100C7000BC4120460922FFF749FB002800F03381E0
:100C80000FF2B44120460A22FFF740FB002800F093
:100C900034810FF2B04120460C22FFF737FB0028C9
:100CA00000F047810FF2AC4120460922FFF72EFBEE
:100CB000002800F057810FF2A84120460B22FFF7D1
:100CC00025FB002800F05A810FF2A04120460B229C
:100CD000FFF71CFB002800F05D814BF62721C0F6D2
:100CE000000120460C22FFF711FB002800F05F8175
:100CF0004BF61120C0F60000214602F013F8C0E0C8
:100D00004BF62810C0F6000002F00CF84BF6C810A5
:100D1000C0F6000002F006F840F2C034C2F200044F
:100D2000204607F0D3FF4BF62225C0F600052846E3
:100D3000214601F0F7FF20464FF40071FFF7CBFA90
:100D40004BF68C10C0F6000001F0ECFF204607F0D7
:100D50004FFF2846214601F0E5FF20464FF4007181
:100D6000FFF7B9FA40F2C154C2F2000440F2E05079
:100D70002578C2F2000000688021BDB308F0C2FAF5
:100D800036E040F62810C2F20000D0F83802FFF733
:100D9000F3FC02464BF6B310C0F600000B4601F020
:100DA000C1FF40F67630C2F20000B0F900104BF6F9
:100DB0006810C0F6000001F0B5FF40F67830C2F2CE
:100DC0000000B0F900104BF67410C0F6000001F0FE
:100DD000A9FF40F67430C2F20000B0F900104BF6E3
:100DE0005C10C0F6000001F09DFF04E008F030FA4E
:100DF00085F0010020700E214BF68010C0F6000037
:100E000004B0BDE8704001F08DBF40F6E800C2F2CA
:100E10000000006808F028F90020002100220023CB
:100E200007F0BAFB0121E7E74FF6D460CFF6FF7079
:100E300001464FF496724FF4967307F0ADFB0A200B
:100E400007F062FE0221D7E7E01DFFF76EFA40F2DD
:100E50009472C2F2000240F2C8511268C2F200015C
:100E6000087010460022022308F00EFD0521C3E79A
:100E700004F10900FFF759FA40F2C051C2F2000133
:100E800008700021B8E704F10900FFF74EFA0246A6
:100E900040F2C050C2F200000178D317012000F0E8
:100EA000CFFA0421A8E740F6F000C2F20000006883
:100EB00000210222002309F0B5F80B219CE704F180
:100EC0000800FFF732FA40F2C351C2F2000107E016
:100ED00004F10900FFF729FA40F2C251C2F2000101
:100EE00008700C2188E704F10900FFF71EFA40F2B0
:100EF000C451C2F200010860F3E740F2C35040F26F
:100F0000C25140F2C452C2F20000C2F20001C2F269
:100F1000000200780978166800220123CDE9013229
:100F20004FF448720023009601F098FA01F0B0FAED
:100F3000D7E740F2C35040F2C25140F2C452C2F26D
:100F40000000C2F20001C2F20002007809781668BF
:100F500000220123CDE9013232220023009601F064
:100F60007DFABEE704F10900FFF7DFF940F6A4714E
:100F7000C2F20001096880B2486316E004F10B0078
:100F8000FFF7D3F940F6A471C2F20001096880B2FC
:100F9000C8630AE004F10B00FFF7C7F940F6A4713B
:100FA000C2F20001096880B288630D2124E704F1D0
:100FB0000C00FFF7BAF94FF0FF3151FA80F0072823
:100FC00000F27580DFE800F00415090F061C2312FB
:100FD00001200FE00220022114E00120022103225F
:100FE00000F0FAFB63E0022001210BE000F0DFFDDE
:100FF0005DE0022001210222032300F0C3FC56E041
:10100000022003210022012300F01BFE4FE041F2E9
:10101000883007F079FD012542F604100024CDE95F
:101020000005072000214FF448720023029401F0CC
:1010300015FA01F02DFA5A2001F0E3FC4FF49676F0
:10104000072000214FF448720023CDE90065029487
:1010500001F004FA01F01CFA522001F0E3FC4FF415
:10106000C87007F051FD40F6B830CDE90005072003
:1010700000214FF448720023029401F0EFF901F0CF
:1010800007FA532001F0BDFC072000214FF44872FD
:101090000023CDE90065029401F0E0F901F0F8F9D0
:1010A000462001F0BFFC4FF4C87007F02DFD102161
:1010B000A2E605F0E3FC00BF53686F775461736BE1
:1010C0000000000053686F77506172616D65746550
:1010D0007200000053746F7000000000537461725E
:1010E00074000000526573657400000053746174ED
:1010F00075733D005768616C654469723D0000007E
:101100005768616C65506F733D0000004E657874E0
:10111000000000004D5F5A445469643D0000000027
:101120004D5F5A44546469723D0000004D5F5A445B
:1011300054706F733D0000004D5F5A4454737461E6
:10114000727400004D5F5A445473746172746E7708
:1011500000000000536572766F4A61773D00000021
:10116000536572766F57726973743D00536572767A
:101170006F506C6174653D0080B501F001FE20B1D7
:1011800002A0BDE8804001F0CDBD80BD5245434581
:101190004956450D0A00000088B040F2651007F07E
:1011A000B3FC40F62814C2F200040120207100F0C4
:1011B0004DFA9FED978A9FED979A4BF2845804F170
:1011C000580504F108070026C0F60008206000BF9B
:1011D000F0B206F058F947F8140B284600214246B1
:1011E000B0EE480AF0EE490A04F0CEFE0136042EB5
:1011F00005F14805ECD19FED898A4BF278529FEDBD
:10120000860A04F5BC70C0F600020021F0EE480A20
:101210000190002504F0B8FE9FED819A4BF27051C9
:1012200004F5E070C0F60001B0EE490A06F000F9DE
:101230004BF2745104F5E870C0F60001B0EE490AB3
:1012400006F0F6F800200021C4F27A40CCF27A4190
:10125000C4E98A01C4E98C01204606F015F89FED27
:101260006A0B9FED70AA04AE0DF1080A5BEC107BCF
:10127000204605F081FE204606F006F8304603A918
:10128000524623460495CDE9025505F059FE2079D2
:1012900001283FD194ED890A94ED8E1A30EE410A6F
:1012A00007F0C4F910EE100A20F00040B0EE409AAA
:1012B000FFF762FA3A465B46FFF7FBF9002840F673
:1012C0007C30F0EE480AC2F2000018BFF0EE490A86
:1012D000C0ED000A0198B0EE480A04F0B1FD9DEDA2
:1012E000042A94ED8A1AD4ED8B0A84ED860AB0EEB6
:1012F000420A06F0A5F89DED032A94ED8C1AD4ED70
:101300008D0A84ED840AB0EE420A06F099F884ED65
:10131000850A01E094ED850A94ED841A94ED862AFD
:1013200031EE003A33EE024AB1EE444A8DED044A02
:1013300030EE414A31EE400A30EE420A34EE424A83
:1013400033EE423A8DED070A04F114000021B0EEAD
:10135000480A8DED054A8DED063A00BF721892EDF0
:10136000001A043180ED001AB0EEC11AB4EE410A41
:10137000F1EE10FAB8BFB0EE410A102900F11400E6
:10138000ECD1B4EE4A0AF1EE10FA0DDD8AEE000A55
:10139000142000BF211891ED001A143020EE011A1C
:1013A000642881ED001AF5D104F110084FF05809B6
:1013B00098EC020A04EB090004F042FD09F1480927
:1013C000B9F5BC7F08F11408F2D104F178000021CE
:1013D00090ED000A6318BDEEC00A143110EE102A19
:1013E000502900F148001A83F2D1B4F91800B4F979
:1013F0002C10B4F94020B4F9543007F0CDF8052092
:1014000007F082FB34E700BF9A9999999999B93FFF
:101410000080BB450000FA440000C8420000000004
:101420000AD7A33B00007A4480B5002000210022A7
:10143000002307F0B1F8BDE8804006F05DB8000079
:101440002DE9F04114464FF47A72A4FB02678046FE
:1014500003FB027040F62817C2F200071D4687F80A
:101460000012C7E97860C7E97A6007F0CDF897F80D
:101470000002102830D120462946FFF735F997EDB4
:101480008E1A00EE100A002130EE410AC7E97811E9
:10149000C7E97A11C7F8240207F0C8F810EE100A5D
:1014A00020F00040FFF768F99FED170B55EC104B4B
:1014B00022462B46FFF7E2F808BB97ED890A97ED25
:1014C0008E1A30EE410A07F0B1F810EE100A20F043
:1014D0000040FFF751F9EBE7B8F1000F18BFBDE886
:1014E000F08140F6E0050024C2F2000528684FF0C4
:1014F000FF3108F0E5FB092C04F10104F6D3BDE847
:10150000F08100BF00BF00BF9A9999999999B93F9E
:101510000138052800F2908080B5DFE800F0036410
:101520002D450E690020042196220023FFF788FF35
:10153000002001214FF4167279E0002010214FF4B1
:1015400087720023FFF77CFF0020012140F2523216
:101550000023FFF775FF00201021B4220023FFF7BE
:101560006FFF002001214FF4AF720023FFF768FFE7
:101570000020102100225AE0002002214FF4AF7217
:101580000023FFF75DFF002010215A220023FFF700
:1015900057FF0020012140F2A4620023FFF750FF13
:1015A00000201021B42242E000201021002200235C
:1015B000FFF746FF0020012140F252320023FFF7DF
:1015C0003FFF002010214FF487720023FFF738FF00
:1015D0000020012140F252320023FFF731FF0020AA
:1015E00010215A2223E0002001214FF448721EE00E
:1015F000002010214FF487720023FFF721FF002005
:1016000001214FF42F720023FFF71AFF0020102151
:10161000B4220023FFF714FF0020012140F2A4624E
:101620000023FFF70DFF002004214FF4C8720023B0
:10163000FFF706FFBDE8804040F6F000C2F2000070
:10164000006800210222002308F0ECBC40F6703054
:10165000C2F20000704741F26960C0F6000005F078
:10166000F6BA00000000000080B5808841F6540101
:10167000C2F200010880B1F90000FFF74BF89FEDBE
:101680000A0B53EC102BFEF718FF9FED090B53ECE0
:10169000102BFEF712FFFFF782F840F67031C2F20E
:1016A0000001086080BD00BF000000000000003F96
:1016B000000000000080664080B503F0B7FF0028FE
:1016C00018BF012080BD40F2D85CC2F2000C0CEBC8
:1016D000800041708270C370704740F2D850C2F2EF
:1016E000000070470538C0B202288EBF002002A15A
:1016F00051F82000704700BF0C0100201C010020A1
:101700002C010020F0B583B040F22C16C2F2000686
:101710007168012704460025CDE900170720002144
:101720004FF42F72FA23029500F098FE00F0B0FEFD
:10173000462001F077F9204601F06CF9F0680021AD
:10174000CDE9000707204FF42F72FA23029500F02D
:1017500085FE00F09DFE5A2001F053F970680021CB
:10176000CDE9000707204FF42F72FA23029500F00D
:1017700075FE00F08DFE522001F054F9B068002192
:10178000CDE9000707204FF42F72FA23029500F0ED
:1017900065FE00F07DFE532001F033F970680021F2
:1017A000CDE9000707204FF42F72FA23029500F0CD
:1017B00055FE00F06DFE462001F034F940F6F000D1
:1017C000C2F20000006800210222002303B0BDE83D
:1017D000F04008F027BC00002DE9F04F85B003462B
:1017E00040F2D850C2F20000C45C455C865C4BF607
:1017F0009020C0F6000019461A468DF811408DF869
:1018000012508DF8136001F08DFA4BF67D20C0F672
:10181000000021462A46334601F084FA40F20C19B2
:1018200040F21C1840F22C1B00260DF1110AC2F2E6
:1018300000090124C2F20008C2F2000B002700BF19
:10184000462001F0EFF81AF80750012159F8250059
:101850006422CDE9000405206423029600F0FEFD19
:1018600058F825000021CDE90004062064226423F5
:10187000029600F0F3FD4FF4C870002F08BF4FF43C
:10188000FA7007F041F9DBF810000021CDE90004FF
:1018900007204FF42F72FA23029600F0DFFD00F0CC
:1018A000F7FD5A2001F0ADF8DBF808000021CDE982
:1018B000000407204FF42F72FA23029600F0CEFDA9
:1018C00000F0E6FD522001F0ADF84FF4C87007F0CB
:1018D0001BF9DBF80C000021CDE9000407204FF4D0
:1018E0002F72FA23029600F0B9FD00F0D1FD5320CB
:1018F00001F087F8022F0FD0DBF808000021CDE9B6
:10190000000407204FF42F72FA23029600F0A6FD80
:1019100000F0BEFD013793E7DBF804000125002449
:10192000CDE90005072000214FF42F72FA2302941D
:1019300000F094FD00F0ACFD462001F073F8D9F8FA
:1019400008000121CDE900050520642264230294EA
:1019500000F084FDD8F808000021CDE9000506203C
:1019600064226423029400F079FD40F6F000C2F294
:101970000000006800210222002305B0BDE8F04FFE
:1019800008F050BB2DE9F04F85B0044640F2D85026
:10199000C2F2000000EB8400043810F80190865C6D
:1019A000C75C4BF69020C0F6000088468DF8119079
:1019B0008DF812608DF8137001F0B4F94BF67D20AC
:1019C000C0F60000494632463B4601F0ABF940F212
:1019D0001C1B40F20C1AC2F2000BC2F2000A5BF8A8
:1019E00029205AF829504BF6A520C0F60000494698
:1019F0004B46009501F096F95BF826205AF82650E0
:101A00004BF6A520C0F6000031463346009501F0A4
:101A100089F95BF827205AF827604BF6A520C0F615
:101A2000000039463B46009601F07CF9404600F044
:101A3000F1FF40F22C1600270DF111080125C2F22A
:101A400000064FF0000A00BF522000F0EBFF18F82C
:101A50000AB040F20C10C2F2000050F82B00012135
:101A6000CDE90005052064226423029700F0F6FC0E
:101A700040F21C10C2F2000050F82B000021CDE90A
:101A80000005062064226423029700F0E7FC4FF46F
:101A90007A7007F039F8F0680021CDE900050720D9
:101AA0004FF42F72FA23029700F0D8FC00F0F0FCFC
:101AB0005A2000F0A6FFB0680021CDE900050720FC
:101AC0004FF42F72FA23029700F0C8FC00F0E0FCFC
:101AD000462000F0A7FF4FF47A7007F015F848464B
:101AE000BAF1020F1CBF08EB0A00407800F092FF29
:101AF000012C15D0022C27D170690021CDE90005F9
:101B000007204FF42F72FA23029700F0A7FC00F091
:101B1000BFFC532000F075FFBAF1020F1AD129E083
:101B200030690021CDE9000507204FF42F72FA2318
:101B3000029700F093FC00F0ABFC532000F061FF33
:101B4000BAF1020F06D116E0532000F05AFFBAF1A5
:101B5000020F1FD0B0680021CDE9000507204FF427
:101B60002F72FA23029700F079FC00F091FC0AF141
:101B7000010A69E70436306801210027CDE9000138
:101B8000072000214FF42F72FA23029700F066FC21
:101B900000F07EFC40F6F000C2F200000068002178
:101BA0000222002305B0BDE8F04F08F03BBAB0B503
:101BB00084B040F20C10C2F20000806801250024BD
:101BC000CDE900050520012164226423029400F080
:101BD00045FC0620002164226423CDE900450294DF
:101BE00000F03CFC522004B0BDE8B04000F01ABF49
:101BF000B0B584B040F20C10C2F20000806801253C
:101C00000024CDE90005052001216422642302940B
:101C100000F024FC40F21C10C2F200008068002199
:101C2000CDE90005062064226423029400F016FC2E
:101C3000462000F0F7FEC82004B0BDE8B04006F032
:101C400063BFF0B583B041F66405C2F200052870A9
:101C500041F6650440F27030C2F20004C2F20000A6
:101C6000012B2170827003702ED140F2D456C2F243
:101C7000000640F2F4603268C2F200000068515C75
:101C8000012750F821000025CDE90007052001219A
:101C90006422FA23029500F0E1FB40F2F86031681B
:101CA0002278C2F200000068895C642250F82100AA
:101CB0000021CDE900070620FA23029500F0CEFBB3
:101CC0004FF4FA7006F020FF40F2E050C2F200003C
:101CD0000068022103B0BDE8F04007F013BB00002C
:101CE00010B52DED048B84B041F68950C0F600008C
:101CF00004F0B4FF0520FFF7F5FC40F2F461C2F2F6
:101D0000000108600620FFF7EDFC40F2F861C2F226
:101D100000010860FFF7E1FC40F2D451C2F200017B
:101D20000860134812A101AB9FED148A9FED149A2D
:101D3000D1E9011207C340F2FC6001ACC2F200001D
:101D400000212246B0EE480AF0EE490A04F01CF9E0
:101D500040F24470C2F2000000212246B0EE480A70
:101D6000F0EE490A04F010F904B0BDEC048B10BD8C
:101D70000000003F00000000000000000080BB45A4
:101D8000CDCCCC3D000000002DE9F04F81B02DED11
:101D9000028B84B0B0F8011040F27036C2F2000637
:101DA000B1803278B0F80340012AF48023D0002AB1
:101DB00040F08E81027841F66400C2F200000078A3
:101DC000012A08BF01282AD0102A08BF022840F0A3
:101DD0007F8142F69A50C2F20000018042F69C5088
:101DE000C2F200000A04048018BF5FEA044044D134
:101DF0000020707041E2080418BF5FEA044000F060
:101E0000658141F66507C2F20007387803285AD089
:101E1000022855D0012858D1F08A358B55E0B0788A
:101E2000012817D0002840F0538142F69A5A42F612
:101E30009C58C2F2000AC2F200080804AAF8001076
:101E4000A8F8004018BF5FEA044040F04781002036
:101E500070708AE242F69A50C2F20000018042F6A7
:101E60009C50C2F200000A04048018BF5FEA0440DC
:101E700040F05D810020707098E1708B0D1A29B2DE
:101E800085EAE132B08BA2EBE13296F8221092B2F1
:101E9000201A8A423581708100F28D8102B280EA77
:101EA000E230A0EBE23080B2884200F28481F07828
:101EB00096F82310884280F0B7810130F070C9E1B4
:101EC000708BB58B01E0F08B358CA2B289B284B2F5
:101ED000C2F1F002081B00EE102A01EE100AB8EE63
:101EE000C00AF8EEC10A08F065FC9FEDE51A9FED07
:101EF000E52A20EE010A80EE020AF0889FEDE21A40
:101F0000C0F1F00040F2F86940F2D45B40F2F46AAC
:101F1000C2F20009C2F2000BC2F2000A30EE010A5E
:101F200001EE100AB088B8EEC11A001B02EE100ACA
:101F3000B8EEC22AA8B222EE022A21EE011AC0F19E
:101F4000F00031EE021A02EE100AB1EEC11AB8EE3C
:101F5000C22A31EE421ABDEEC02A12EE101A0AB29F
:101F6000B18181EAE231A1EBE231BDEEC12A89B251
:101F700012EE100A012930810FD801B280EAE13057
:101F8000A0EBE13080B2012807D8F07896F8231052
:101F9000884264D20130F0707BE0B2EE042A20EE79
:101FA000020ABDEEC00A10EE100A21EE020ABDEED2
:101FB000C00A4FF0000810EE101ADBF800203B7842
:101FC00086F80380B0813181D9F80040BC46D75CE7
:101FD00054F82750294444F82710DAF80010D75C49
:101FE00051F82750284441F82700D05C42F2486558
:101FF00054F82070AF42B8BF3D4625EAE57744F873
:102000002070D05C41F6583551F82070AF42B8BF0F
:102010003D4625EAE57741F82070D05C002154F870
:1020200020000124CDE90004062014226423674621
:10203000CDF8088000F012FADBF800003978DAF801
:102040000020405C012152F820001422CDE9000458
:1020500005206423CDF8088000F000FA19E03978F3
:10206000D1A000F05FFE40F6F000C2F20000006870
:10207000002102220023002507F0D4FF40F2E050A7
:10208000C2F200000068022107F0E2F8F57003F0E8
:10209000B4FB308940F67631C2F200010880B08985
:1020A00040F67431C2F2000108803978DBF8000094
:1020B000D9F80020405CDAF8003052F8202053F8BC
:1020C0002070C1A00B46009700F02CFE002070701D
:1020D00004B0BDEC028B01B0BDE8F08F42F69E5B10
:1020E000C2F2000BB6F80EC0B6F81090BBF80000B4
:1020F0001FFA81FEA1EB0C07A4EB0903BEEB000065
:1021000042F6A0523781738148BF40420428C2F290
:10211000000256D81088A5B2281A48BF40420428A9
:102120004FD8F578307D85424ED201354BE0F089AD
:10213000328A081A01B280EAE133A3EBE133F17C81
:102140009BB2A21A8B42308172811DD813B282EAEF
:10215000E337A7EBE3339BB28B4215D840F6F00090
:10216000C2F20000006800210222002307F05AFF9B
:1021700040F2E050C2F200000068022107F068F867
:1021800003F03BFB3089728940F67631C2F20001E0
:10219000088040F67831C2F200010A8001B24BF6A5
:1021A000522012B2C0F6000000F0BCFD4BF6342005
:1021B000C0F60000DDE00020F07004F003F835897F
:1021C00048E0307D0025F5708542C0F0BF8038B210
:1021D00087EAE031A1EBE031B07C89B2814255D889
:1021E00019B283EAE133A3EBE13189B281424DD8E0
:1021F00040F6F000C2F20000006800210222002335
:10220000002407F00FFF40F2E050C2F20000006827
:10221000022107F01DF803F0F0FAF470AAF800406C
:10222000A8F8004000218DE040F6F000C2F2000066
:102230000068002102220023002507F0F3FE40F28F
:10224000E050C2F200000068022107F001F8F570CA
:10225000B581358140F67630C2F200000580B6F9CE
:102260000A2040F67830C2F2000002804BF652207D
:1022700029B2C0F6000000F055FD5EA079E000BF75
:1022800000003443DB0F49400000B4C25F46AEEBB0
:102290000C0B5846FEF73EFA9FED3B0BA2B2A2EBA9
:1022A000090553EC102B9FED3A0B40F2FC64DA0F5A
:1022B000C2F200044FF0000962F3DF7153EC102BFF
:1022C000C4F81890FEF76BF99FED330B53EC102B0D
:1022D000FEF7F3F89FED320B53EC102BFEF746F8A8
:1022E000FEF75DFA9FED4C8A00EE10BAA060B8EEE2
:1022F000C00A2046F0EE480ABB4603F0A1FD00EEFE
:10230000105A40F24475C2F20005B8EEC00A2846E1
:10231000F0EE480A03F094FD94ED080ABDEEC00A01
:1023200010EE100A95ED080A3081BDEEC00A10EEDD
:10233000100A708103F046FFBAF80010B8F80040A8
:1023400086F8039042F6A052C2F20002ABF80010E9
:10235000308940F67631C2F200011480088070891D
:1023600040F67831C2F2000108804BF66020C0F6DA
:10237000000004B0BDEC028B01B0BDE8F04F00F0EE
:10238000D1BC00BF00BF00BF000000000000000083
:102390000000000000805640333333333333E33FD3
:1023A0009A9999999999C93F2A2A2A2A2A2A2A2A3E
:1023B000202564202A2A2A2A2A2A2A2A2A20436116
:1023C0006C4F6B0D0A0000004D4F544F525F585F29
:1023D000506F735B25645D3D2535642020204D4F93
:1023E000544F525F525F506F735B25645D3D2535DE
:1023F000640D0A004150505F4D41495843414D5FC3
:1024000050617273655F434952434C455F43616C51
:102410004361720D0A0000000000000010B540F298
:102420007034C2F2000462781AB903F0FBF901209B
:10243000607003F069F908B10020607010BD80B5CC
:102440000520002100F0C6FD0620002100F0C2FD9D
:1024500007200021BDE8804000F0BCBD2DE9F04719
:1024600084B00CAE70CE984691468A46074604F07A
:1024700051FD384651464A464346CDE9004502964D
:1024800000F077FD0A2004B0BDE8F04706F03CBB41
:1024900004F04CBD80B582B040F29470C2F20000EE
:1024A000002100688DF807100DF10701002207F0E8
:1024B00043FB012809D19DF8071042F69950C2F25A
:1024C0000000017002A000F02DFC02B080BD00BF32
:1024D000735F7563537461747573203A2025640DBE
:1024E0000A0000002DE9F0418CB004A82021FDF77E
:1024F000F2FE40F20130ADF80C0040F2012042F64D
:102500009958C0F20320C2F20008029098F8000027
:1025100000211D28019121DC152800F20882DFE846
:1025200010F01600CA0048019400AF007600330195
:10253000060206020602E50006020602060206027E
:1025400006020602060206020602630181014FF43A
:10255000FA700CB0BDE8F04106F0D6BA27282ADCA4
:102560001E2800F09F811F2840F0E1814BF273701C
:10257000C0F6000000F0D6FB40F2C950C2F20000E5
:10258000007802AA60F3000260F3410210785178EB
:102590009278FFF721F901AA00204FF0FF314FF0A8
:1025A000FF3307F08BFE042088F800004BF2917097
:1025B000C0F60000B9E1282800F09281292840F0F7
:1025C000B6814BF60E00C0F6000000F0ABFB40F207
:1025D000C954C2F20004207802AB60F3000360F338
:1025E000410319785A789B78FFF7CCF901AA0020AB
:1025F0004FF0FF314FF0FF3307F060FE20780521E8
:10260000002818BF062188F80010E5A08DE14BF2E4
:102610001870C0F6000000F085FBFFF7C8FA05202F
:10262000FEF776FF01AA00204FF0FF314FF0FF3395
:1026300007F044FE40F2C950C2F2000001210170CF
:10264000142088F80000CDA06FE14BF2D160C0F6F5
:10265000000000F067FBFFF7AAFA0320FEF758FF1F
:1026600001AA00204FF0FF314FF0FF3307F026FEA4
:102670001E2088F800004BF2F560C0F6000054E11F
:102680004BF28460C0F6000000F04CFBFFF78FFABD
:102690000420FEF73DFF01AA00204FF0FF314FF06C
:1026A000FF3307F00BFE282088F800004BF2AB60E8
:1026B000C0F6000039E14BF6DA00C0F6000000F089
:1026C00031FBFFF774FA0120FEF722FF01AA002078
:1026D0004FF0FF314FF0FF3307F0F0FD022088F894
:1026E00000004BF6F400C0F600001EE140F2CA56AE
:1026F000C2F20006307838B94BF2E370C0F6000041
:1027000000F010FB0120307004AC204603F082FC86
:10271000002800F00C814BF60D10C0F60000214699
:1027200007F0F2FF002002A9002200BFD3B2E35C51
:102730002B2B08BF0132D3B2E35C0132303B0B5488
:1027400001300628F2D104A803F0C0FC40F6F000E6
:10275000C2F20000006800210222002302240025AA
:1027600007F060FC01AA00204FF0FF314FF0FF336B
:1027700007F0A4FD4BF2F970C0F6000088F80040A5
:1027800000F0D0FA3570D2E06AA000F0CBFAFFF783
:102790000EFA0620FEF7BCFE01AA00204FF0FF3122
:1027A0004FF0FF33002407F089FD6BA088F800404C
:1027B000BBE04BF23C70C0F6000000F0B3FAFFF74C
:1027C000F6F90220FEF7A4FE01AA00204FF0FF3127
:1027D0004FF0FF3307F072FD142088F800004BF231
:1027E0005870C0F60000A0E04BF6A700C0F600004D
:1027F00000F098FAFFF7FCF90120012100220023E4
:10280000FFF71FFA01AA00204FF0FF314FF0FF330E
:1028100007F054FD032088F800004BF6C100C0F615
:10282000000082E04BF2AE70C0F6000000F07AFAD1
:1028300040F2C9570026C2F2000702AD01AC00BF4A
:102840003878294660F3000160F34101895D012079
:1028500001220023FFF7F5F900204FF0FF31224657
:102860004FF0FF3307F02AFD3878294660F3000166
:1028700060F34101885DFEF745FF00204FF0FF3116
:1028800022464FF0FF3307F019FD0136032ED7D152
:102890004BF2C970C0F6000000F044FA032088F83B
:1028A000000044E04BF68A00C0F6000000F03AFA5F
:1028B000FFF79EF90220022100220023FFF7C1F951
:1028C00001AA00204FF0FF314FF0FF3307F0F6FC74
:1028D000042088F800004BF62D00C0F6000024E02C
:1028E0004BF65100C0F6000000F01CFAFFF780F92B
:1028F0000220022100220023FFF7A3F901AA0020F1
:102900004FF0FF314FF0FF3307F0D8FC40F2C950D1
:10291000C2F200000078052100284BF66E0018BFB7
:10292000062188F80010C0F6000000F0FBF90CB09A
:10293000BDE8F081454E54455220535441545553FF
:102940005F50726F536563417265615F325F5374AC
:102950006172740D0A0000004558495420535441D7
:102960005455535F50726F536563417265615F32B6
:102970005F53746172740D0A000000004558495499
:10298000205354415455535F50726F5365634172E5
:1029900065615F325F526177417265610D0A0000C7
:1029A00045584954205354415455535F50726F5306
:1029B000656341726561506C6163650D0A000000DA
:1029C00082B040F2E05441F6640641F66507C2F277
:1029D00000044FF0FF35C2F20006C2F2000700BF4C
:1029E0002068022100220023009506F0D9FC800710
:1029F00003D530783978FFF711FD642006F084F8AC
:102A0000EEE780B503F08CFB4FF4C870BDE8804062
:102A100006F07AB880B503F095FB6420BDE88040ED
:102A200006F072B803F0A4BB7047000082B040F219
:102A3000E054C2F200042068012106F063FC4FF06C
:102A4000FF3500BF2068012100220023009506F019
:102A5000A7FCC00718BFFEF78FFB0A2006F054F84A
:102A6000F0E7FEF799BB0000FEF726FE052006F012
:102A70004BF8F9E7FFF70EFDFFF734FD0A2006F0EB
:102A800043F8F7E7FFF79CBF8EB00520FEF72AFE5C
:102A900040F2CC51C2F2000108600620FEF722FE8F
:102AA00040F2E054C2F2000440F2D0522168C2F277
:102AB000000210600846802106F024FC40F6281829
:102AC0004FF0FF35C2F20008206880210022002369
:102AD000009506F065FC000640F1D580D8F810009E
:102AE000D8F82440D8F83850D8F84CB0FDF744FE58
:102AF000814620468A46FDF73FFE41EC180B2846EA
:102B0000FDF73AFE41EC190B5846FDF735FED8F8B3
:102B1000104241EC1A0B2046FDF72EFE41EC1B0B38
:102B200084F00040FDF728FED8F8144241EC1C0B5D
:102B30002046FDF721FE41EC1D0B84F00040FDF71F
:102B40001BFE41EC100B4BF23460C0F600004A460D
:102B500053468DEC0C8B8DED0C0B07F0D5FD40F63C
:102B60007C30C2F200000068FDF706FE0446D8F88B
:102B700018020D46FDF700FE41EC100B44A0224662
:102B80002B468DED000B07F0BFFDD8F81400D8F8E8
:102B90002860D8F83C70D8F85040FDF7EDFD81462C
:102BA00030460D46FDF7E8FD41EC180B3846FDF7C1
:102BB000E3FD41EC190B2046FDF7DEFD41EC100B67
:102BC0004BF26460C0F600004A462B468DEC048B45
:102BD0008DED040B07F098FDB8F91810B8F92C200A
:102BE000B8F94030B8F954704BF21960C0F60000E3
:102BF000009707F089FDD8F80800D8F81C10D8F81D
:102C00004460D8F83070D0E90A23D1E90A01D6E946
:102C10000A64D7E90A758DE8830021A0059440F283
:102C2000E05403954FF0FF350496C2F2000407F01C
:102C30006BFD40F2CC50C2F200000068031D0ECBC9
:102C400022A007F061FD40F2D050C2F200000068FF
:102C5000031D0ECB23A007F057FDD8E97817D8E95C
:102C60007C2326A0CDE9001707F04EFD40F68C30FE
:102C7000C2F20000016840F69030C2F20000026823
:102C800023A007F041FD322005F03EFF1CE700BF06
:102C90007B777A7D252E33662C252E33660A00003D
:102CA0007B746F74616C5F616E676C655F6F666685
:102CB0007365747D256C6C642C256C6C642C256CA0
:102CC0006C642C256C6C640A000000007B4D4F5432
:102CD0004F525F525F506F737D25642C25642C2505
:102CE000640A00007B4D4F544F525F585F506F7322
:102CF0007D25642C25642C25640A00007B6469739F
:102D00005F7365747D256C6C642C256C6C640A00A3
:102D10007B675F6F627365727665727D25642C25B3
:102D2000640A000083B0B0B5ADF20C4D84460DF1DD
:102D30000B04CDF81C14CDF82024CDF824340DF26A
:102D40001C43204640F201416246019307F000FD1A
:102D500040F28C75C2F2000528684FF0FF3104F094
:102D60006CFD06A0214607F0CFFC286804F0C0FDEA
:102D70000DF20C4DBDE8B04003B070472573000064
:102D80002DE9F04782B000250DF1070100208DF8F4
:102D9000075004F0BCFA00283FD042F6985640F2A3
:102DA000583741F65808C2F20006C2F20007C2F2D4
:102DB00000080DF107044FF001094FF0000A00BFB1
:102DC000307898B138783E281AD89DF807107B7A69
:102DD00078683A78994215D18554D8F80020AAB17C
:102DE0003978904735704FF0010A0FE09DF80700E1
:102DF0007978884204BF86F800903D7006E000BFF5
:102E0000357003E0531C3B70815400BF0020214605
:102E100004F07DFA0028D3D101E04FF0000A5FFAF8
:102E20008AF002B0BDE8F087FEE740F69430C2F2C7
:102E3000000000F037BA10B540F2A07440F69430AC
:102E4000C2F2000440F29873C2F20000C2F2000322
:102E50000021224600F095F92068A0F20121032903
:102E600088BF10BD013841F2E811C0B2C2F20001C2
:102E700001EB801040F29871C2F20001BDE81040F1
:102E800004F008BB40F6BC30C2F2000000F00ABA01
:102E9000B0B540F2C47540F2BC7440F6BC30C2F22A
:102EA0000005C2F20004C2F2000000212A462346B7
:102EB00000F067F900B1B0BD40F61D10C2F200008D
:102EC00000786968B0EB112F0ED12078FD280BD166
:102ED00060789F2808D1A0786B2805D140F61C1097
:102EE000C2F200000121017040F2C470C2F2000081
:102EF0001C21FDF7F0F9B0BD40F6A440C2F200007D
:102F000000F06ABC40F6E460C2F2000000F064BC6D
:102F100040F6E430C2F2000000F05EBC40F64470BF
:102F2000C2F2000000F058BC40F64440C2F200007B
:102F300000F052BC40F62460C2F2000000F04CBC2D
:102F400040F68460C2F2000000F046BC40F6045037
:102F5000C2F2000000F040BC40F66450C2F2000033
:102F600000F03ABC40F6C450C2F2000000F034BC9D
:102F70007047B0B584B0DDE9084E8DF80000FD2043
:102F80008DF80100100A8DF80300200E8DF8060060
:102F9000200C8DF80700200ADDF828C08DF8080005
:102FA0006B2000258DF802108DF80C0068460D216D
:102FB0008DF80F50ADF80D508DF804208DF80530C8
:102FC0008DF809408DF80AE08DF80BC003F00EFF74
:102FD00004B0B0BD80B584B08DF8000049F6FE00A5
:102FE000ADF801006B2000228DF803108DF804006D
:102FF000684605210392CDF80920CDF8052003F09D
:10300000F5FE04B080BD000072B600BFFEE710B54B
:1030100090F820E0D0F800C0AEF1010EBEF1010F33
:10302000DCF808E011D81EF0E05F14D0CEF30164A4
:103030000120A04018608B689BB1D1F804E0C868FB
:1030400040EACE0040EA030E0FE000F12403012025
:103050004FF4802121E000F1240301204FF40011FE
:103060001BE00868CB6843EA405E0CF5C07000EBDB
:103070000413240140F804E00C69184640F8044F9A
:10308000097D012903D1016841F480710160506814
:103090000121D8601068986000201A6811431960F7
:1030A00010BD90F82020013A012A30D8B0B546F280
:1030B0000060C4F20000026842F00102026002688F
:1030C00022F47C520260D1F814E0CC694A6A0368A9
:1030D000012C43EA022202600EF01F024FF00103AE
:1030E00003FA02F2C3696FEA020C23EA0203C36126
:1030F00013D02CBBC36803EA0C03C360CB688C8875
:1031000044EA034300EBCE0423640B4611E0416A1A
:1031100041F48021416201207047C3681343C360BA
:103120000B688C8844EA034300EBCE04236401F16E
:103130000C038C681B8843EA044300EBCE046364F1
:1031400043688D6943EA0204D1F810E0096A002D52
:1031500008BF03EA0C0444604369BEF1000F43EA70
:10316000020408BF03EA0C040129446102D1C169C9
:103170001143C161016821F0010101600020B0BD6F
:103180007047B0B590F82040013C012C7AD8D0F8B7
:1031900000C000290CBFDCF80C40DCF81040A4078C
:1031A00076D00CF5D8754FEA011C55F80C4014F098
:1031B0000404946055F80CE005EB011C19BF4FEABC
:1031C000DE0555604FEA5E551560DCF80050E646B6
:1031D00005F00205D5605EF8044F24075ABFDEF8FB
:1031E000004004F00F0408241461DEF800400029B8
:1031F000C4F307249461DEF800504FEA1545556189
:10320000DCF808201A70026802EB0112D2F8B8212B
:103210004FEA12225A70026802EB0112D2F8B8216A
:103220004FEA12429A70026802EB0112D2F8B821FA
:103230004FEA1262DA70026802EB0112D2F8BC2186
:103240001A71026802EB0112D2F8BC214FEA122275
:103250005A71026802EB0112D2F8BC214FEA124205
:103260009A71026802EB0112D2F8BC214FEA126295
:10327000DA7100680CBF00F10C0100F110010020B0
:1032800020220AE000F1240101204FF4802204E012
:1032900000F1240101204FF400120B681A430A6068
:1032A000B0BD00002DE9F04F81B0044600684669CA
:1032B000D0F804908768D0F80CB0D0F810A0D0F8FF
:1032C0001880F10701D1002549E0F9070ED001214E
:1032D000BA07816007D478071DD4380721D4204667
:1032E00000F020FA02E0204600F01DFA0025F80563
:1032F0001CD520684FF48071BA05816007D4780529
:103300000CD4380510D4204600F00EFA0EE020460A
:1033100000F00BFA0AE04FF40065E8E705F5005508
:1033200004E04FF48055E2E705F58045F80316D533
:1033300020684FF48031BA03816007D4780309D440
:1033400038030AD4204600F0F1F908E0204600F0E6
:10335000EEF904E005F5004501E005F5803530079C
:1033600007D51BF0100004D0206845F4007510212B
:10337000C160700708D51BF0080005D0206808213F
:10338000C160204600F08CF9B00706D52068C068FF
:10339000800702D0204600F084F9700607D51AF0A5
:1033A000100004D0206845F4806510210161B0064A
:1033B00008D51AF0080005D02068082101612046D0
:1033C00000F080F9F00606D520680069800702D079
:1033D000204600F078F9B00308D519F0100005D0A8
:1033E000206810214160204600F06EF9F00308D5F6
:1033F00019F0080005D0206808214160204600F03F
:1034000097F9300440D55FEA49703AD506F48070E8
:1034100008EA102028435FEA8871014648BF41F05E
:103420000201B20558BF01465FEA48700D4648BF29
:1034300045F00405700558BF0D46300521D518F03C
:1034400070001ED010380009052815D8DFE800F0FC
:10345000030F090C061245F008050DE045F0800544
:103460000AE045F0200507E045F0400504E045F09E
:10347000100501E045F480752068816921F0700134
:1034800081612068042141604DB1606A40EA050114
:103490002046616201B0BDE8F04FFFF771BE01B098
:1034A000BDE8F08FD0B1B0B5044690F8200010B957
:1034B000204600F06FF82068016841F001010160CA
:1034C00000F027FC054600BF20684168C90707D106
:1034D00000F01FFC401B0B28F6D312E001207047C0
:1034E000016821F00201016000F013FC054600BFF5
:1034F0002068416889070BD500F00BFC401B0B28A6
:10350000F6D3606A052140F40030606201203EE09D
:10351000217E0268012922F0800208BF8032026009
:10352000617E0268012922F0400208BF4032026039
:10353000A17E0268012922F0200208BF2032026029
:10354000E17E0268012922F0100218BF10320260E9
:10355000217F0268012922F0080208BF08320260B8
:10356000617F0268012922F0040208BF0432026070
:10357000D4E901C2D4E9033561691A432A431143EE
:10358000ACF101021143C16100200121606284F8A5
:103590002010B0BD10B586B0044601A81421FCF778
:1035A0009AFE206846F60001C4F2000188422ED03F
:1035B00046F20041C4F2000188426FD140F2E4516A
:1035C000C2F200010A6843F63000C4F20200531C44
:1035D0000B6052B900210091016941F00071016155
:1035E000016901F0007100910099002100910168CA
:1035F000142441F00101016000684FF4C05100F053
:103600000100009000980020C4F2020032E043F66E
:1036100030000021C4F202000091026942F0806291
:103620000261026902F080620092009A40F2E45264
:10363000C2F2000213685C1C14604BB9009102696D
:1036400042F000720261026902F000720092009A78
:1036500000910168402441F00201016000684FF4CC
:10366000405100F00200009000980020C4F20200D7
:1036700000F5806001910221029100210391032154
:1036800004910921059101A900F072FA2046052153
:10369000002200F0F5FB204600F0E2FB06B010BD72
:1036A000704740F69431C2F20001884208BFFFF72C
:1036B000C2BB40F6BC31C2F20001884218BF70475D
:1036C000FFF7E6BB7047704770470000B0B504468F
:1036D00090F8200001281CD1022084F820002068E6
:1036E000016821F00101016000F013FB054600BFF5
:1036F00020684068C00712D000F00BFB401B0B286D
:10370000F6D3606A40F400306062052084F820003F
:1037100003E0606A40F4002060620120B0BD002038
:103720006062B0BD70477047704770477047704720
:103730007047000070B5866D044600F0EAFA94F810
:103740003510022925D105462068216C026822F037
:1037500016020260426922F08002426109B9A16C3E
:1037600019B1016821F008010160016821F001012F
:10377000016000BF20680068C0070ED000F0C9FAE1
:10378000401B0628F6D320206065032084F835000E
:103790000CE080206065012008E0E06D3F2101FA27
:1037A00000F0B060012084F835000020002184F88A
:1037B000341070BD90F83510022909D1052180F828
:1037C00035100068016821F0010101600020704798
:1037D0008021416501207047F0B581B0044600208A
:1037E000009040F25030C2F200000268D4E9166046
:1037F00048F2B51337680821C1F64E33814039428B
:10380000A2FB03250CD0226813685B0708D5136858
:1038100023F004031360B160616D41F00101616543
:1038200001218140394208D022685269120604D52C
:10383000B160616D41F0020161650421814039424E
:1038400008D022681268920704D5B160616D41F01A
:103850000401616510218140394217D02068026857
:10386000120713D5B16002680168520306D4C90576
:1038700006D4016821F00801016001E0080301D4C9
:10388000216C00E0A16C09B120468847E16D202041
:1038900000FA01F23A423CD020680368DB0638D5D2
:1038A000B26094F835300268052B1AD122F0160266
:1038B0000260426922F080024261226C0AB9A26C65
:1038C0001AB1026822F0080202603F208840B0600E
:1038D000012084F83500216D002084F83400B9BB44
:1038E0003BE0016852030CD4C9050ED4016821F0F5
:1038F00010010160012084F83500002084F83400B4
:1039000003E0080301D4616C00E0E16B09B12046DB
:103910008847606D08B3606DC00717D0052084F834
:1039200035002068A90A026822F00102026000BF87
:10393000009A01328A42009202D80268D207F7D177
:10394000012084F83500002084F83400E16C21B1B6
:10395000204601B0BDE8F040084701B0F0BD0000CE
:103960002DE9F041044600F0D4F9C4B10546022027
:1039700084F835000020216884F83400086820F0BD
:103980000100086021680868C0070BD000F0C1F989
:10399000401B0528F6D903252023032064E00120DD
:1039A000BDE8F081086848F23F02CFF21002D4E986
:1039B000013500EA020C04F10C0898E8C10143EA61
:1039C0000C032B431843D4E9072E304338431043EC
:1039D000626A40EA0E00042A40EA08031CD1206B08
:1039E000D4E90A2E40EA0E00184308604869BEF187
:1039F000000F20F0030040EA020040F0040C11D058
:103A0000B8F5005F35D0B8F1000F42D1022A43D09B
:103A1000012A38D0002A3EE00B60486920F00700F8
:103A200040EA020C01F0F8004AF6AB221038CAF660
:103A3000AA22A0FB02231A094BF29053C1F814C02A
:103A4000C0F600039A5C40F2FF335F284FF03F005E
:103A500021EA030100FA02F088BF0431C4E916121A
:103A60008860002301250020636584F83550BDE897
:103A7000F081032AD6D8012540230120DFE802F097
:103A8000020C0203F0E7AEF1C070B0FA80F040091A
:103A900004E0032A04D3C5D1CEF300600028C1D0CE
:103AA000012540230120DFE790F834C0BCF1010F6D
:103AB00004BF0220704770B54FF0010C80F834C08D
:103AC000D0F858E090F835C0BCF1010F37D14FF075
:103AD000020C80F835C04FF0000CC0F854C0D0F88C
:103AE00000C08468056CC06DDCF80060402C26F4D2
:103AF0008026CCF80060CCF804300B4604BF134697
:103B00000A463F2101FA00F0CCF80830CCF80C202E
:103B1000CEF80800DCF8000040F01600CCF80000F9
:103B20002DB1DCF8000040F00800CCF80000DCF813
:103B3000000040F00100CCF80000002070BD002122
:103B400080F83410022070BDB0B5044600F0E1F8F2
:103B5000054640F2B430C2F200000078611C18BF84
:103B6000044400BF00F0D5F8401BA042FAD3B0BD1A
:103B70002DE9F04F83B000F1200200F13E4741F6FD
:103B80000045009207F1FF77C4F2020508224FEAD0
:103B9000B726A84208BF072200254FF000084FF0C3
:103BA0000009072E38BF4FEAB72201920F680122A1
:103BB00002FA09FE17EA0E0A00F09980D1F804C053
:103BC00003220CF003077E1E02FA08F4012E6FEAAE
:103BD000040B11D88468CE6804EA0B0406FA08F6D0
:103BE00034438460446824EA0E06CCF3001404FADB
:103BF00009F42643466003E0032F01D103271EE0AA
:103C0000C6688C6806EA0B0604FA08F42643022FFD
:103C1000C66014D16FF00302009E02EA590756F8FD
:103C200007C005F01C040F220B69A2402CEA020217
:103C3000A3401A43F251D1F804C00CF00307026804
:103C400007FA08F302EA0B021A431CF4403F026031
:103C50004DD0002243F644030292C4F202031A68D4
:103C600043F6004442F480421A601A68C4F2010428
:103C700002F480420292029A29F003024FF6084CA5
:103C80002244CFF6FF7C52F80C3005F00C070F26CB
:103C9000BE40B343019E06FA07F73B4342F80C309F
:103CA000A2684B6842EA0A0743F60C4CDE0258BF92
:103CB00022EA0A07A760C4F2010CDCF800209E0289
:103CC00042EA0A0758BF22EA0A07CCF80070626885
:103CD0009E0342EA0A0758BF22EA0A076760226881
:103CE000DB0342EA0A0758BF22EA0A07276009F104
:103CF000010908F10208B9F1100F05F104057FF47C
:103D000055AF03B0BDE8F08F002A08BF09048161F8
:103D100070474AF2E820C2F200000068704740F2A3
:103D2000B4304AF2E821C2F20000C2F20001007889
:103D30000A6810440860704780B543F60040C4F23A
:103D40000200016841F400710160016841F4806182
:103D50000160016841F480710160032000F0BBF84C
:103D60000F2000F004F800F05AF8002080BD70B574
:103D700086B0002543F640010195C4F202010A68AD
:103D8000044642F020020A60096801A801F02001FF
:103D900001910199694600F058F9049E002E18BF60
:103DA000012600F071F94DF68361B040C4F21B3179
:103DB000A0FB01014FF0FF3000EB914140F6EC70A9
:103DC00041F20042C2F20000C4F2000240F2E733C6
:103DD000C0E90021C0E902530561856100F0BBFB29
:103DE0000546C8B940F6EC70C2F2000000F0F9FBDD
:103DF000054688B9372000F033F80F2C0BD8372050
:103E000021460022002500F03BF840F2B830C2F213
:103E10000000046000E00125284606B070BD82B0B5
:103E2000002043F640010190C4F202014A6842F4C6
:103E300080424A604A6802F480420192019A0090EE
:103E40000868002240F08050086008680F2100F0E8
:103E50008050009000986FF0010002B000F010B8A0
:103E600000280CD400F01F01012202FA01F11C22EB
:103E700002EAD0004EF20012CEF2000281507047EA
:103E800010B54EF60C5CCEF2000CDCF80030C3F33B
:103E9000022E8EF00704042C28BF0424BEF1030375
:103EA0004FF0FF3E0EFA04F438BF0023A1439940BF
:103EB0000EFA03F39A43114300F00F0200F160433E
:103EC0000901043A03F564436244002848BF02F143
:103ED0000C03197010BD4EF60C51CEF200010A68A9
:103EE0004FF6FF031A4060F30A2242F0806040F070
:103EF000FD70086070470000002872D02DE9F04185
:103F000043F60008C4F202080446D8F800040D463F
:103F100000F00700884207D288F80054D8F800045F
:103F200000F00700A84266D12068810717D5410735
:103F300005D5D8F8081041F4E051C8F80810010779
:103F400005D5D8F8081041F46041C8F80810D8F831
:103F50000810A26821F0F0011143C8F80810C0074A
:103F600041D1D8F8000400F00700A84207D988F82A
:103F70000054D8F8000400F00700A8423BD12068A4
:103F8000410707D5D8F80810E26821F4E051114341
:103F9000C8F80810000708D5D8F80800216920F4EF
:103FA000604040EAC100C8F8080000F093F8D8F873
:103FB00008104BF23842C1F30311C0F60002515C05
:103FC00040F2503220FA01F140F2B830C2F2000063
:103FD0000068C2F200021160FFF7C9FE0020BDE8D0
:103FE000F081012070476068811E022906D2D8F84E
:103FF0000010890108D40120BDE8F08101281FD1FB
:10400000D8F800108903F6D5D8F8081021F003017C
:104010000843C8F80800FFF77CFE064641F28837DF
:10402000D8F80800616800F00C00B0EB810F98D060
:10403000FFF76FFE801BB842F2D90320BDE8F08184
:10404000D8F800108907D6D5DEE70F22026043F6C4
:104050000802C4F20202136803F00303436013680A
:1040600003F0F0038360136803F4E053C360D2F8F5
:1040700000C04FF4E05303EADC030361D2F8F80315
:1040800000F007000860704740F2503043F6080126
:10409000C2F20000C4F20201006809684BF2484213
:1040A000C1F38221C0F60002515CC840704740F263
:1040B000503043F60801C2F20000C4F20201006869
:1040C00009684BF24842C1F34231C0F60002515C2C
:1040D000C840704710B543F60404C4F20204606897
:1040E00000F00C0142F200400829C0F2F40007D0B1
:1040F000042918BF10BD41F20020C0F27A0010BDA3
:10410000216801F03F02216823684902C3F3881146
:1041100005D4A1FB00010023FCF762F806E041F2A0
:104120000020C0F27A004843B0FBF2F0216802227E
:10413000C1F3014102EB4101B0FBF1F010BD000001
:1041400000286BD02DE9F04182B00446007843F698
:104150000006C007C4F202060CD0B06800F00C00E4
:10416000042840F098803068800303D560680028F8
:1041700000F0AB80207880071BD5B06810F00C0FE2
:1041800009D0B06800F00C00082840F0A0807068EA
:10419000400200F19C803068800703D5E068012868
:1041A00040F093803068216920F0F80040EAC100B7
:1041B00030602078000733D42078400745D4A569C3
:1041C00055B3B06800F00C00082840F0B980012D0C
:1041D0007BD07068E16900F480028A4275D1216A5F
:1041E00000F03F028A4270D147F6C071626A014016
:1041F000B1EB821F69D1A16A4FF6FF73C9039943DE
:1042000000F44032A1F580318A425ED1E16A00F0CB
:104210007060B0EB016F58D10020F3E001207047CF
:104220006069002878D00020C4F247200121C0F83E
:10423000801EFFF76EFD0546706F8007BCD4FFF748
:1042400068FD401B0228F7D9DBE0306C5FEAC0084C
:104250000AD400200190306C40F080503064306C03
:1042600000F080500190019847F20007C4F2000767
:104270003868C00542D4386840F480703860FFF771
:1042800048FD05463868C00538D4FFF742FD401B9D
:104290000228F7D9B5E0B06800F00C00082803D177
:1042A000706840023FF55FAF61683068B1F5803FEC
:1042B00007D0B1F5A02F40F08E8040F48020306010
:1042C000306840F4803030608EE001209AE0E06891
:1042D000002840F20000C4F2472053D001210160C1
:1042E000FFF717FD054600BF306880073FF55AAF5E
:1042F000FFF70FFD401B0228F6D982E0A168306F5E
:10430000012905D005294FD140F004003067306FF6
:1043100040F00100306750E00020C4F24720002147
:10432000C0F8801EFFF7F5FC054600BF706F8007E0
:104330007FF542AFFFF7EDFC401B0228F6D960E0A5
:104340000027C4F2472700203866FFF7E2FC022D61
:1043500005460BD13068800157D5FFF7DAFC401BCA
:1043600002284FF00300F5D94CE000BF306880010F
:104370007FF552AFFFF7CDFC401B02284FF0030042
:10438000F4D93FE000210160FFF7C3FC054600BF00
:10439000306880077FF50DAFFFF7BBFC401B02289C
:1043A0004FF00300F4D92DE020F001003067306FAA
:1043B000002920F00400306748D0FFF7AAFC05462A
:1043C00041F28837306F800751D4FFF7A2FC401BC1
:1043D000B842F7D915E020F4803030603068002909
:1043E00020F4802030604BD0FFF793FC054600BFDF
:1043F000306880033FF5BEAEFFF78BFC401B64289E
:10440000F6D9032002B0BDE8F08104F11C052FCDE0
:10441000084340EA8210D9034FF6FF729143A1F599
:10442000803140EA05600843706001203866FFF77C
:1044300070FC0446306880013FF5EEAEFFF769FC82
:10444000001B02284FF00300F4D9DBE7FFF761FC03
:10445000054641F2883700BF306F800707D5FFF768
:1044600058FC401BB8424FF00300F5D9CAE7B8F139
:10447000000F3FF5A4AE306C20F0805030649EE613
:10448000FFF747FC054600BF306880037FF572AE3A
:10449000FFF73FFC401B64284FF00300F4D9B1E75D
:1044A0007047704790F83C20012A4FF0020250D02C
:1044B00010B580F83D200268D2F804E0D2F808C0B8
:1044C0000C682EF07003234341F2FF74C4F2000421
:1044D000A24253600BDC40F2FF73C4F200039A4225
:1044E00013DCB2F1804F27D040F2004315E040F2D8
:1044F000FF33C4F201039A4212DC41F60003C4F216
:1045000000039A4218D0002312E040F60003C4F2E0
:1045100000039A4210D040F60043C4F2000309E0C1
:1045200044F20003C4F201039A4205D040F2004372
:10453000C4F201039A4204D149682CF08003194364
:1045400091600121002280F83D1080F83C20BDE8F8
:1045500010401046704740B310B5044690F83D0037
:1045600028B9002084F83C00204600F020F8022002
:1045700084F83D002068211D01F0DCFE012084F854
:10458000460084F83E0084F83F0084F8400084F838
:10459000410084F8420084F8430084F8440084F821
:1045A000450084F83D00002010BD012070470068E0
:1045B00040F60001C4F20001884218BF704781B084
:1045C0000020009043F64000C4F20200016841F070
:1045D00004010160006800F004000090009801B040
:1045E000704790F83D1001291CBF0120704702213F
:1045F00080F83D10006841F2FF72C168C4F2000209
:10460000904241F00101C1600BDC40F2FF71C4F245
:104610000001884213DCB0F1804F27D040F2004106
:1046200015E040F2FF31C4F20101884212DC41F68C
:104630000001C4F20001884218D0002112E040F6C7
:104640000001C4F20001884210D040F60041C4F2DB
:10465000000109E044F20001C4F20101884205D0E2
:1046600040F20041C4F20101884204D1816801F0A6
:104670000701062903D0016841F001010160002013
:10468000704790F83C20012A4FF002026BD080B5B1
:1046900080F83D20D0F800C04FF67772DCF8083083
:1046A00023EA0202CCF808200B684F2B28DC1F2BD2
:1046B00044DD202B45D0302B43D0402B40F0AC8044
:1046C000D1F804E0C968DCF82030DCF8202022F0C2
:1046D0000102CCF82020DCF8182022F0F00242EA97
:1046E000011123F00A0242EA0E02CCF81810CCF8AD
:1046F0002020DCF8081041F0470121F0300127E0CC
:104700006F2B32DDB3F5005F73D0B3F5805F21D03E
:10471000702B40F08180D1E901E3C968DCF8082002
:1047200043EA0E0322F47F4243EA01211143CCF80D
:104730000810DCF8081041F0770109E00BB1102BEC
:104740006AD1DCF8081021F07001194341F007012B
:10475000CCF808100022012180F83D10002180F8DB
:104760003C10BDE8804010467047502B21D0602B94
:1047700052D1D1F804E0C968DCF82030DCF8202000
:1047800022F01002CCF82020DCF8182022F470422D
:1047900042EA013123F0A00242EA0E12CCF81810CE
:1047A000CCF82020DCF8081041F0670121F010015E
:1047B000CEE7D1F804E0C968DCF82030DCF820202E
:1047C00022F00102CCF82020DCF8182022F0F002C0
:1047D00042EA011123F00A0242EA0E02CCF8181054
:1047E000CCF82020DCF8081041F0570121F020011E
:1047F000AEE7D1E901E3C968DCF8082043EA0E031B
:1048000022F47F4243EA01211143CCF80810DCF87E
:10481000081041F480419BE701229CE7704770B586
:1048200004460068C5680669B10716D515F002018F
:1048300013D06FF0020101610121217780698007A7
:1048400003D02046FFF7EAFF05E0204600F0B5F868
:10485000204600F02CF900202077700718D515F0BD
:10486000040015D020686FF0040101610221217756
:10487000806910F4407F03D02046FFF7CFFF05E0AA
:10488000204600F09AF8204600F011F90020207729
:10489000300717D515F0080014D020686FF0080114
:1048A000016104212177C069800703D02046FFF70A
:1048B000B5FF05E0204600F080F8204600F0F7F84C
:1048C00000202077F00618D515F0100015D02068CC
:1048D0006FF01001016108212177C06910F4407F59
:1048E00003D02046FFF79AFF05E0204600F065F868
:1048F000204600F0DCF800202077F00718BF15F004
:10490000010006D020686FF001010161204600F02F
:104910004EF9300609D515F0800006D020686FF0FA
:10492000800101612046FFF7BBFD700609D515F037
:10493000400006D020686FF040010161204600F081
:1049400040F9B00658BF70BD15F0200008D02168AE
:104950006FF0200220460A61BDE87040FFF7A1BD5C
:1049600070BDB0B586B0044640F6000501A814211C
:10497000C4F20005FBF7AFFC2068A8421BD1002061
:1049800043F630010090C4F202010A6842F00802C6
:104990000A60096801F00801009100994FF4704124
:1049A00001910221CDE90210CDE9040105F50130A4
:1049B00001A9FFF7DDF806B0B0BD7047B0B50446F9
:1049C00090F83C00012804BF0220B0BD0D464FEA1C
:1049D000B2010120032984F83C0037D8DFE801F058
:1049E00002220A1A2068294601F03AFD206850F890
:1049F000181F06E02068294601F097FD206850F84E
:104A00001C1F41F008010160016821F004010160F0
:104A1000296917E02068294601F0BAFD206850F89E
:104A20001C1F06E02068294601F04BFD206850F865
:104A3000181F41F400610160016821F48061016088
:104A4000296909020268114301600020002184F8ED
:104A50003C10B0BD40B310B5044690F83D0028B9F5
:104A6000002084F83C00204600F020F8022084F862
:104A70003D002068211D01F05DFC012084F8460006
:104A800084F83E0084F83F0084F8400084F8410038
:104A900084F8420084F8430084F8440084F8450018
:104AA00084F83D00002010BD01207047704770471A
:104AB000A1B1042904D0082914BF4122402200E0FA
:104AC0003F22825C012A11D10222082910D0042938
:104AD00014BF80F8412080F83F200BE090F83E2082
:104AE000012A03D1022280F83E2003E00120704712
:104AF00080F84020006801F01F010122036A02FAD9
:104B000001F123EA01020262026A114341F2FF72DB
:104B1000C4F20002904201620BDC40F2FF71C4F269
:104B20000001884213DCB0F1804F35D040F20041E3
:104B300015E040F2FF31C4F20101884214DC41F675
:104B40000001C4F20001884226D0002114E040F6A2
:104B50000001C4F2000188421ED040F60041C4F2B8
:104B60000001884218D01CE044F20001C4F20101A7
:104B7000884211D040F20041C4F20101884210D1B4
:104B8000416C40F2004340F48062C4F2010341F4FE
:104B900000419A42416404D1816801F0070106296D
:104BA00003D0016841F001010160002070470068F6
:104BB00041F20041C4F20001884218BF7047FFF77C
:104BC000AEB8704770B582B0044690F84200202815
:104BD00020D14FF00105F1B1EAB10026204625634E
:104BE000666301F0A7FE206B012814D101962068AE
:104BF0000168019140680190019800BF206850E869
:104C0000030F216840F0100041E80302002AF5D1AB
:104C1000002500E00225284602B070BD10B504460C
:104C200041F23400C2F2000084421BD041F27C0009
:104C3000C2F2000084421AD041F2C400C2F2000065
:104C4000844219D041F20C10C2F20000844218D004
:104C500041F25410C2F20000844217D0FEF7D4F99A
:104C6000002017E042F68840C2F2000012E042F64F
:104C70009840C2F200000DE042F6A840C2F20000E7
:104C800008E042F6B840C2F2000003E042F6C84035
:104C9000C2F20000E16B09684968C1810189C289DB
:104CA000891A418110BD7047B0B582B004460068D2
:104CB0000168C368426901F02F05202D03F020052B
:104CC00006D12DB1204602B0BDE8B04001F062BD72
:104CD0005FEA017C1EBF02F0010E03F4907212EB3A
:104CE0000E026ED1226BCD0643D5012A41D113F0BD
:104CF00010023ED0002101910168019141680191AB
:104D000001994069400600F1CB80A08DE18DE28DD4
:104D1000002A00F01581884200F01281401A00BF7D
:104D2000216851E8031F226821F4907142E80313BF
:104D3000002BF5D1216851E8051F226821F00101FF
:104D400042E80513002BF5D1202184F84210002100
:104D5000216300BF216851E8031F226821F0100180
:104D600042E80313002BF5D1022281B22046626390
:104D7000DCE00A0640F1828013F0800200F07E80C1
:104D800094F84110212940F0DB80A168B1F5805FE3
:104D900003D12169002900F0DB80216A4A1C2262CC
:104DA00009784160E18C01390A04E18440F0C8804F
:104DB000C16821F08001C160C16841F04001C1605B
:104DC000BEE0CA0718BF13F4807203D0626C42F0D1
:104DD000010262644A0706D5BEF1000F03D0626C7F
:104DE00042F0020262648A0706D5BEF1000F03D0CA
:104DF000626C42F004026264BCF1000F06D55EEA08
:104E0000050203D0626C42F008026264626C002A00
:104E100000F09680890604D51DB1204601F0BAFC49
:104E200020684069616C00F0400001F00801401802
:104E300000F08180204601F085FC20684069400632
:104E400040F18080206850E8050F216820F0400084
:104E500041E80502002AF5D1E06B002872D046F245
:104E6000F751C0F600010165FEF7A4FC002867D0E9
:104E7000E06B016D02B0BDE8B040084749065FD560
:104E800013F040015CD0C16821F04001C1602021D5
:104E9000204684F8411002B0BDE8B04000F0C4BB29
:104EA000E06B016849688AB2002A49D0A38D9A4212
:104EB00046D2E185C069B0F5807F30D0206850E8E7
:104EC000030F216820F4807041E80302002AF5D125
:104ED000206850E8050F216820F0010041E8050234
:104EE000002AF5D1206850E8050F216820F0400025
:104EF00041E80502002AF5D1202084F84200002074
:104F0000206300BF206850E8030F216820F01000E4
:104F100041E80302002AF5D1E06BFEF70BFC02200A
:104F20006063A08DE18D401A81B2204602B0BDE8D9
:104F3000B040FFF773BE2046FFF7B5FE0020606467
:104F400002B0B0BD204602B0BDE8B040FFF7ABBE36
:104F5000216A31F8022B6FF35F224260216221E760
:104F600058B310B5044690F8410028B9002084F8E1
:104F70004000204600F023F8242084F841002068F7
:104F8000C16821F40051C160204601F064FC206832
:104F9000016921F490410161416921F02A014161D7
:104FA000C16841F40051C16000202021606484F890
:104FB000411084F84210606310BD012070472DE954
:104FC000F04F87B0044602A81421FBF784F920684B
:104FD00044F6FF71C4F20001884200F3818044F27C
:104FE0000041C4F20001884200F0BE8044F6000196
:104FF000C4F20001884200F0A58144F60041C4F2E9
:105000000001884240F07882002643F63000019685
:10501000C4F20200016946F2100841F40021016166
:105020000169C4F2020801F400210191019901967D
:10503000016841F004010160006802A900F0040069
:10504000019001984FF4406002900220CDE90306E0
:1050500003200590082006900020C4F2020000F50D
:105060000060FEF785FD40F6444508F16000C2F29D
:1050700000054FF000674021C5E9000705F1080071
:105080004FF4806980E8420205F114001421FBF717
:1050900022F92846FEF764FC08B1FDF7B5FFA563C9
:1050A000AC6340F6E43508F13000C2F200054FF47D
:1050B0008071C5E900072846C5E90266C5E904967E
:1050C000C5E90661C5E90866FEF74AFC08B1FDF7C7
:1050D0009BFFE563AC63342000210022342406E208
:1050E00045F20001C4F20001884200F0A68041F2BE
:1050F0000001C4F20101884200F0908141F20041B8
:10510000C4F20101884240F0F781002043F63001EB
:105110000190C4F202014A6942F020024A614A69E0
:1051200002F020020192019A01900A6842F0040202
:105130000A60096801F0040101910199C0210291FE
:105140000221CDE9031003200590082006900020DD
:10515000C4F2020000F5006002A9FEF709FD472035
:10516000052100224724C2E1002643F630000196C3
:10517000C4F20200016946F2100841F400310161F5
:105180000169C4F2020801F400310191019901960C
:10519000016841F001010160006802A900F001000E
:1051A000019001980C2002900220CDE90306032013
:1051B0000590072006900020C4F20200FEF7D8FCFC
:1051C00040F6846508F19000C2F200054FF00067D8
:1051D0004021C5E9000705F108004FF4806980E827
:1051E000420205F114001421FBF775F82846FEF77A
:1051F000B7FB08B1FDF708FFA563AC6340F6246573
:1052000008F17800C2F200054FF48071C5E900078B
:105210002846C5E90266C5E90496C5E90661C5E9FF
:105220000866FEF79DFB08B1FDF7EEFEE563AC6393
:10523000262000210022262459E1002643F63000D2
:105240000196C4F202000169002741F48011016156
:105250000169C4F2020701F48011019101990196DC
:10526000016802AD41F004010160016846F21008D6
:1052700001F0040101910199019601684FF00209C2
:1052800041F00801016000684FF0030A00F00800D7
:10529000019001984FF4805002904FF0080B07F5F1
:1052A00000602946C4F20208CDE90396CDF814A0A7
:1052B000CDF818B0FEF75CFC0420CDE9020904A883
:1052C00080E8400C07F540602946FEF751FC40F6A7
:1052D000045508F1A800C2F200054FF00067402114
:1052E000C5E9000705F108004FF4806980E8420233
:1052F00005F114001421FAF7EEFF2846FEF730FB03
:1053000008B1FDF781FEA563AC6340F6A445C2F287
:1053100000054FF48070C5E906602846C5E900879E
:10532000C5E90266C5E90496C5E90866FEF718FBFB
:1053300008B1FDF769FEE563AC633520002100226A
:105340003524D4E0002643F630000196C4F2020072
:10535000016946F2100841F4802101610169C4F23B
:10536000020801F48021019101990196016841F040
:1053700002010160006802A900F00200019001989A
:105380004FF4406002900220CDE90306032005900F
:10539000072006900020C4F2020000F58060FEF7AE
:1053A000E7FB40F6447508F14800C2F200054FF0F3
:1053B00000674021C5E9000705F108004FF4806946
:1053C00080E8420205F114001421FAF784FF284610
:1053D000FEF7C6FA08B1FDF717FEA563AC6340F609
:1053E000E46508F11800C2F200054FF48071C5E9C8
:1053F00000072846C5E90266C5E90496C5E90661C5
:10540000C5E90866FEF7ACFA08B1FDF7FDFDE563F6
:10541000AC63272000210022272468E0002643F601
:1054200030000196C4F20200416946F2100841F0D2
:10543000100141614169C4F2020801F010010191BB
:1054400001990196016841F001010160006802A91B
:1054500000F00100019001984FF4C060029002201A
:10546000CDE9030603200590072006900020C4F232
:105470000200FEF77DFB40F6C45508F59560C2F2C8
:1054800000054FF000674021C5E9000705F108005D
:105490004FF4806980E8420205F114001421FAF704
:1054A0001AFF2846FEF75CFA08B1FDF7ADFDA563CB
:1054B000AC6340F6645508F58660C2F200054FF40F
:1054C0008071C5E900072846C5E90266C5E904966A
:1054D000C5E90661C5E90866FEF742FA08B1FDF7BD
:1054E00093FDE563AC632520052100222524FEF70A
:1054F000C7FC2046FEF7B4FC07B0BDE8F08F70474C
:10550000704700002DE9F041044690F84100202842
:105510001CBF0220BDE8F0810D464FF00100E1B351
:105520001746D2B3002060642120984684F84100D9
:10553000FEF7EFFBA784E784A1680746B1F5805F1B
:1055400001D1206988B32E46002500BFE08CC0B190
:10555000204680213A46434601F038FAF8B92EB188
:1055600016F8010B2168486007E000BF35F8020B10
:1055700021686FF35F2048600026E08C0138E084EA
:10558000E4E7204640213A46434601F01FFA202135
:1055900084F84110002818BF0320BDE8F0812020C6
:1055A00084F841000320BDE8F0810026CEE700002A
:1055B000B0B5044690F8410020281CBF0220B0BDC1
:1055C0004FF0010079B313466AB34FF0000C21206D
:1055D0002162A384E384C4F844C084F84100A06B32
:1055E00046F2017E46F23F752268C0F6000EC0F614
:1055F0000005C0E90FE546F20565C0F60005043276
:10560000C0E9135CFEF750FA20686FF040010160BA
:10561000206850E8050F216840F0800041E805024D
:10562000002AF5D10020B0BD704770472DE9F04F3A
:1056300081B04FF000090DF1030102208DF80390B5
:1056400001F065FE002855D040F2E85640F264377C
:10565000C2F20006C2F200070DF103044FF0050A82
:105660004FF0010B4FF00008307805281AD00128C0
:1056700008D098BB9DF803007978884208BF86F867
:1056800000B02DE09DF80300B978884226D10820AB
:1056900087F80090F8707878B9780844387286F8FE
:1056A00000A01DE09DF8031078683A78531C3B7009
:1056B00081543B78FD783A7AAB4218D991420DD1AA
:1056C00041F65C01C2F200010A683AB1F9789047EC
:1056D000022001F00FFE4FF0010800BF86F8009095
:1056E0000220214601F013FE0028BDD104E050182D
:1056F0003872F5E74FF000085FFA88F001B0BDE8B6
:10570000F08F0000FEE700002DE9F04381B04FF07C
:1057100000090DF1030101208DF8039001F0F7FD60
:10572000002865D040F2F05640F2943741F6600808
:10573000C2F200060DF10304C2F20007C2F2000833
:10574000002500BF31780020072949D8DFE801F0A3
:10575000042B480B4830401B9DF8030079788842A1
:105760003FD101203CE087F800907878F9789DF8E7
:105770000320084410443872786839784B1C3B7019
:10578000425405202CE09DF80300797A88424FF0BE
:10579000000025D1D8F8002012B37868F978904736
:1057A000012500201CE09DF80300F870032017E09D
:1057B0009DF8030079683A78531C3B708854397A15
:1057C000084438723878F97888420AD3072007E00D
:1057D0009DF80300397A88424FF0000008BF072087
:1057E00030700120214601F092FD0028AAD100E08E
:1057F0000025E8B201B0BDE8F08310B540F20C041A
:10580000C2F200042046FAF771FD82B2B2F5006FD1
:1058100028BF4FF4006201202146BDE8104001F08E
:1058200098BD000010B50246481E44F25274C0B242
:10583000C4F24214C300042838BF24FA03F140F232
:10584000F154C2F20004CBB209A1204604F06CFF6F
:105850002046FAF74BFD82B2B2F5006F28BF4FF435
:10586000006201202146BDE8104001F072BD00BF7A
:105870006D6F64653D2564256300000080B540F6CA
:10588000943046F20041C2F20000C4F2000103224B
:10589000002380E80E0000F10C014FF4102C4FF4AF
:1058A000001E81E8085083618383FDF7FBFD18B17A
:1058B000BDE88040FDF7A8BB80BD80B540F6BC3098
:1058C00046F60001C2F20000C4F200010C220023DF
:1058D00080E80E0000F10C014FF4003C4FF4001E74
:1058E00081E808504FF480710183C0F81A30FDF749
:1058F000D9FD18B1BDE88040FDF786BB80BD80B5FD
:1059000082B0002043F630010190C4F202010A681F
:1059100042F400120A600A6802F400120192019A2D
:1059200000900868002240F48000086008680021A8
:1059300000F48000009000980B20FEF7A1FA0B20E5
:10594000FEF78EFA0C2000210022FEF799FA0C20B7
:10595000FEF786FA0D2000210022FEF791FA0D20B5
:10596000FEF77EFA0E2000210022FEF789FA0E20B3
:10597000FEF776FA0F2000210022FEF781FA0F20B1
:10598000FEF76EFA102005210022FEF779FA1020AA
:10599000FEF766FA112005210022FEF771FA1120A8
:1059A000FEF75EFA2F2005210022FEF769FA2F206C
:1059B000FEF756FA3A2005210022FEF761FA3A2056
:1059C000FEF74EFA462005210022FEF759FA46203E
:1059D00002B0BDE88040FEF743BA80B54BF26040AC
:1059E000C0F6000001F04CFF40F28C71C2F20001E1
:1059F0004BF288420860C0F600020120002101F04D
:105A000094FF40F6E001C2F200014BF270420860E0
:105A1000C0F600020120012101F0D8FE40F294718D
:105A2000C2F20001086042F675204BF20452C0F643
:105A30000000C0F60002002101F0C1FF40F6F001B5
:105A4000C2F20001086042F685204BF22852C0F6EF
:105A50000000C0F60002002101F0B1FF40F6F401A1
:105A6000C2F20001086042F62D204BF29842C0F6C7
:105A70000000C0F60002002101F0A1FF40F6E401A1
:105A8000C2F20001086042F669204BF2E042C0F623
:105A90000000C0F60002002101F091FF40F6EC0189
:105AA000C2F20001086042F689204BF24C52C0F667
:105AB0000000C0F60002002101F081FF40F6F8016D
:105AC000C2F20001086042F663204BF2BC42C0F60D
:105AD0000000C0F60002002101F071FF40F6E8016D
