:020000040800F2
:1000000080B00020A10100088D7000085969000827
:100010008970000875400008697C00080000000035
:10002000000000000000000000000000B1730008A4
:10003000BB4100080000000001720008C501000873
:10004000BB010008BB010008BB010008BB010008A0
:10005000BB010008BB010008BB010008BB01000890
:10006000BB010008BB010008BB01000843410008B8
:100070004F4100085B4100086741000873410008D8
:100080007F4100088B410008BB010008BB0100084C
:1000900077400008BB010008BB010008BB01000855
:1000A000BB010008BB010008BB010008BB01000840
:1000B000BB010008BB010008BB010008BB01000830
:1000C000BB010008BB010008BB010008BB01000820
:1000D000BB010008377C0008437C00084F7C000807
:1000E000BB010008BB010008BB010008BB01000800
:1000F000BB010008BB010008BB01000897410008D4
:10010000BB010008BB010008BB010008BB010008DF
:10011000CF770008DB770008BB01000819750008DD
:10012000BB010008BB010008A3410008BB01000897
:10013000BB010008BB010008BB010008BB010008AF
:10014000D1400008BB010008BB010008BB0100084A
:10015000BB010008BB010008AF4100085B7C000840
:10016000BB010008BB010008BB010008BB0100087F
:10017000BB010008BB010008BB0100080000000033
:10018000BB010008BB010008DFF810D000F046FCFE
:1001900000F0D8F800480047C98A000880B0002065
:1001A0000648804706480047FEE7FEE7FEE7FEE711
:1001B000FEE7FEE7FEE7FEE7FEE7FEE7077500085D
:1001C0008901000830B410B50348804730BCAE4602
:1001D00030BC0248004770479D8E000841740008FB
:1001E0002DE9F05F0546002092469B46884606466C
:1001F000814640241BE0284641464746224600F0FF
:10020000EEFA53465A46C01A914110D31146184689
:10021000224600F0D5FA2D1A67EB01084F46224618
:100220000120002100F0CCFA17EB00094E41201EFE
:10023000A4F10104DFDC484631462A464346BDE8C6
:10024000F09F2DE9F0410024061B254671F10006C0
:1002500005DA01240027D0EB070067EB0101161E29
:1002600073F1000605DA0027D2EB0702012567EBE0
:100270000303FFF7B5FF86460E4617469C46AC4281
:1002800004D00025D0EB050E65EB010624B100205B
:10029000D2EB000760EB030C704631463A466346EA
:1002A000BDE8F08140EA01039B0703D009E008C9DB
:1002B000121F08C0042AFAD203E011F8013B00F82B
:1002C000013B521EF9D27047D2B201E000F8012B77
:1002D000491EFBD270470022F6E710B513460A46C6
:1002E00004461946FFF7F0FF204610BD421C10F8E7
:1002F000011B0029FBD1801A7047034611F8012B1E
:1003000000F8012B002AF9D11846704730B5054690
:100310000020034600E05B1C934205D2EC5CC85C05
:10032000201A01D1002CF6D130BD70B506460BF075
:1003300037FC046805460A220021304600F071FAB5
:100340002C6070BD7CB507480090074801900546B9
:10035000009C04E02046016808448047241DAC420C
:10036000F8D17CBD40D2000844D200082DE9FE4FF0
:10037000804681EA0300C00F0C46009021F0004146
:1003800023F00045B8EB0200A94105D240462146C2
:1003900090461C460B46024623F00040104347D0CF
:1003A000270DC7F30A00C3F30A510290401A0190C7
:1003B00040286BDAC3F3130040F4801B0098924688
:1003C00020B10023D2EB030A63EB0B0B01985946D3
:1003D000C0F14002504600F0F3F906460D46504683
:1003E0005946019A00F00BFA10EB08006141002415
:1003F00087EA115284EAE7731A4340D0009A62B345
:10040000019A012A4FEA075215DC001B61EB020139
:100410004FF0004202EA0752CDE90042001C41F5CC
:10042000801132462B4600F07AFA03B0BDE8F08F17
:1004300040462146F9E7001B61EB0201001C41F533
:10044000801300185B412018A2F5001747EB030149
:1004500040EAD570B6196D4111E06D084FEA3606D5
:1004600045EAC0754FEA0752001B61EB0201001C10
:1004700041F5801149084FEA3000001951413246D8
:100480002B4603B0BDE8F04F00F03ABA00980122C5
:1004900040000023D0EB020263EBE073009821469A
:1004A0004FEAE074B8EB000061EB0401E9E783F088
:1004B00000435BE781F0004158E72DE9FE4F81EAF8
:1004C000030404F0004421F0004100944FF0000BBD
:1004D00023F0004350EA01045ED052EA03045BD0EB
:1004E000C3F30A54C1F30A552C44A4F2F334019423
:1004F000A0FB0254C1F3130141F48011C3F31303B1
:1005000043F4801301FB024400FB034E840A970A64
:1005100044EA815447EA8357A4FB076802958D0A91
:1005200005FB07854FEA932C04FB0C542705029D1D
:100530004FEA065847EA1637B5EB08056EEB070C8D
:10054000870E920E47EA811742EA8312A7FB020147
:10055000B6EB0B0164EB00042B0D43EA0C335E1881
:1005600044EB1C50DA465146E7FB0201C5F3130485
:100570004FEA0B3343EA14534FEA0432019C43EA37
:100580000603A4F10C040294009CCDE900B400F031
:10059000C6F903B0BDE8F08F00200146F9E72DE968
:1005A000F04D81EA030404F0004B21F000451446AD
:1005B0004FF0000A23F0004150EA050220D054EA2F
:1005C00001021DD0C5F30A570246C5F31303C1F358
:1005D0001300C1F30A5640F4801543F48013A7EBCF
:1005E0000608101BD64608F2FD3873EB050002D34F
:1005F00008F1010801E092185B41B8F1000F03DA3D
:1006000000200146BDE8F08D00204FF48011064621
:1006100084460EE0171B73EB050705D3121B63EB33
:10062000050306434CEA010C49084FEA30009218D2
:100630005B4150EA0107EDD152EA030012D082EA91
:10064000040083EA0501084305D0101BAB4106D224
:100650000122002306E000224FF0004302E06FF089
:10066000010253101AEB06004CEB085110EB0A0084
:1006700041EB0B01BDE8F04D00F042B930B5041E6E
:1006800071F1000404DB4FF00044404264EB0101CF
:10069000141E73F1000405DB1C464FF00043524268
:1006A00063EB0403101A8B4101D2012030BD0020FE
:1006B00030BD30B5041E71F1000404DB4FF000447E
:1006C000404264EB0101141E73F1000405DB1C467B
:1006D0004FF00043524263EB0403801A994101D268
:1006E000012030BD002030BDF0B4CA17CB0F504000
:1006F0005140C61841F100054FEAC3723146280047
:100700004FF0960303D0B623F0BC00F0CBB83046D0
:100710000021F9E70EB5C10F80EAE0700844CA076E
:10072000002140F233438DE80E000A460B4600F0EC
:10073000F6F803B000BD00F0004230F000400AD0EF
:10074000C10D01F56071C0F3160042EA0151C20803
:1007500040071143704700200146704701F00043F5
:1007600030B421F0004150EA010206D00A0DA2F592
:100770006072C1F31301002A02DC30BC0020704714
:10078000440F44EAC104C100E01830BC00EBC25081
:1007900000F07FB830B50B4601460020202201242E
:1007A00009E021FA02F59D4205D303FA02F5491B3F
:1007B00004FA02F52844151EA2F10102F1DC30BD55
:1007C000202A04DB203A00FA02F100207047914011
:1007D000C2F1200320FA03F3194390407047202A06
:1007E00004DB203A21FA02F00021704721FA02F3DB
:1007F000D040C2F120029140084319467047202A98
:1008000006DBCB17203A41FA02F043EAE07306E038
:1008100041FA02F3D040C2F1200291400843194648
:1008200070472DE9F04791460F4680460446002662
:1008300014F8015B2DB100F009F90068405DC007B4
:10084000F6D12B2D02D02D2D18D0641E4A463946E4
:10085000204600F0FFF827B13968A14201D1C7F85E
:10086000008071054FF002040BD54042002803DDE3
:100870000BF096F90460A007BDE8F08746F48066A7
:10088000E4E70028F8DA0BF08BF904606FF0004021
:10089000F2E70029A8BF7047401C490008BF20F0BC
:1008A0000100704710B4B0FA80FC00FA0CF050EA76
:1008B000010404BF10BC704749B1CCF1200421FAF7
:1008C00004F411FA0CF118BF012121430843A3EBF2
:1008D0000C01CB1D4FEA00614FEA102042BF0020FF
:1008E00010BC704700EBC35010440029A4BF10BCDB
:1008F0007047401C490008BF20F0010010BC704741
:1009000010B5141E73F1000408DA401C41F1000117
:1009100092185B411A4301D120F0010010BD2DE96E
:10092000F04D92469B4611B1B1FA81F202E0B0FA65
:1009300080F220329046FFF743FF04460F4640EA1C
:100940000A0041EA0B0153465A46084313D01146A8
:1009500053EA010019D0C8F140025046FFF73FFFAB
:1009600005460E46504659464246FFF729FF0843C2
:1009700005D0012004E020463946BDE8F08D002076
:10098000054346EAE0762C4337430A986305E40AB8
:10099000A0EB08000022FD0A44EA47540A3002D5C1
:1009A00000200146E9E7010510196941DDE9084524
:1009B00000196941BDE8F04DA2E7C1F30A52C1F345
:1009C000130140F2FF3341F480119A4202DA002011
:1009D0000146704740F233439A42A2F2334202DCAE
:1009E0005242FFF7FCBEFFF7EBBE000030B5041E1D
:1009F00071F1000404DB4FF00044404264EB01015C
:100A0000141E73F1000405DB1C464FF000435242F4
:100A100063EB0403994208BF904230BD1CB50948FE
:100A20000090094801900546009C06E0E06840F00F
:100A3000010394E8070098471034AC42F6D3FFF75F
:100A4000A7FB000020D2000840D2000800487047F1
:100A500014C800082DE9F05F82460078002715468B
:100A60008B460AF10104B946302801D09DB113E04C
:100A700014F8010B0127782803D0582801D045B17C
:100A80000AE00DB1102D07D10027102514F8010B35
:100A900002E0082500E00A250026B0460EE005FB2E
:100AA000080005FB06F1012701EB10461FFA80F84C
:100AB000B6F5803F00D3B94614F8010B294600F083
:100AC00018F80028EBDABBF1000F05D00FB1641E57
:100AD00000E05446CBF80040B9F1000F06D00BF00F
:100AE0005FF802210160C81EBDE8F09F48EA064099
:100AF000FAE73A2800D2303820F02002412A01D308
:100B0000A2F13700884201D34FF0FF30704730B573
:100B10008C1810F8012B12F00F0301D110F8013BD3
:100B2000120906D110F8012B03E010F8015B01F85F
:100B3000015B5B1EF9D101E001F8013B521EFBD1C4
:100B4000A142E6D3002030BD40F65530C0F600008B
:100B500007F035B9B0B584B004464CF67F70C0F6E6
:100B60000000214603F004FA0FF224512046082227
:100B7000FFF7CCFB002800F0AE800FF2205120469A
:100B80000D22FFF7C3FB002800F0E6800FF21C5196
:100B900020460422FFF7BAFB002800F021810FF263
:100BA000145120460522FFF7B1FB002800F04381D5
:100BB0000FF2085120460522FFF7A8FB002800F09D
:100BC00057820FF2005120460722FFF79FFB0028B3
:100BD00000F041810FF2F44120460922FFF796FB15
:100BE000002800F04C810FF2F04120460922FFF767
:100BF0008DFB002800F04C810FF2E84120460922CD
:100C0000FFF784FB002800F04E810FF2E4412046FC
:100C10000422FFF77BFB002800F05C810FF2D84133
:100C200020460822FFF772FB002800F05F810FF2D8
:100C3000D44120460922FFF769FB002800F05F81BC
:100C40000FF2CC4120460922FFF760FB002800F09C
:100C500061810FF2C84120460C22FFF757FB0028A4
:100C600000F062810FF2C44120460A22FFF74EFBDA
:100C7000002800F072810FF2C04120460922FFF7E0
:100C800045FB002800F087810FF2B84120460B2277
:100C9000FFF73CFB002800F08A814CF68471C0F617
:100CA000000120460B22FFF731FB002800F08B816A
:100CB0004CF69071C0F6000120460C22FFF726FB8F
:100CC000002800F08D814CF66E70C0F600002146C1
:100CD00003F04EF9E5E04CF68560C0F6000003F045
:100CE00047F94CF62570C0F6000003F041F940F2D8
:100CF0004054C2F20004204609F0E2F94CF67F7538
:100D0000C0F600052846214603F032F920464FF48C
:100D10000071FFF7E0FA4CF6E960C0F6000003F05E
:100D200027F9204609F05EF92846214603F020F90C
:100D300020464FF40071FFF7CEFA40F24274C2F23F
:100D4000000440F280702578C2F200000068802123
:100D5000BDB309F0D1FC36E040F65820C2F20000E5
:100D6000D0F85802FFF7E7FC02464CF61070C0F6C8
:100D700000000B4603F0FCF840F6FC40C2F2000015
:100D8000B0F900104CF6C560C0F6000003F0F0F8B2
:100D900040F6FE40C2F20000B0F900104CF6D160FF
:100DA000C0F6000003F0E4F840F6FA40C2F200009A
:100DB000B0F900104CF6B960C0F6000003F0D8F8A6
:100DC00004E009F03FFC85F0010020700E214CF694
:100DD000DD60C0F6000004B0BDE8B04003F0C8B864
:100DE00040F61020C2F20000006809F037FB002036
:100DF00000210022002308F0C9FD0520002103F096
:100E000013FA052003F0CAFF0620002103F00CFAB4
:100E1000052003F0C3FF0720002103F005FA052099
:100E200003F0BCFF0820002103F0FEF9052003F0C9
:100E3000B5FF0121CBE74FF6D460CFF6FF70014636
:100E40004FF496724FF4967308F0A0FD0A2009F053
:100E500055F80221BBE7E01DFFF767FA40F6BC1228
:100E6000C2F2000240F24C711268C2F20001087036
:100E700010460022022309F001FF0521A7E704F133
:100E80000900FFF752FA40F24171C2F2000107E097
:100E900004F10900FFF749FA40F24071C2F2000183
:100EA0000870002193E704F10900FFF73EFA0346BA
:100EB00040F2417040F24071C2F20000C2F2000103
:100EC00000780A78DD170121CDE9003500F094FAA9
:100ED00004217CE740F61820C2F2000000680021DF
:100EE000022200230AF098FA0B2170E704F10800AF
:100EF000FFF71BFA40F24471C2F2000107E004F16F
:100F00000900FFF712FA40F24371C2F200010870C3
:100F10000C215CE704F10900FFF707FA40F2487181
:100F2000C2F200010860F3E740F2447040F24371FE
:100F300040F24872C2F20000C2F20001C2F20002A6
:100F400000780978156800220123CDE90132C82212
:100F50003223009502F06FF9DAE740F2447440F270
:100F6000437140F24872C2F20004C2F20001C2F2C0
:100F7000000220780978156800220123CDE90132AA
:100F8000C8223223009502F056F920784FF47A7186
:100F900002F061F9BCE704F10900FFF7C6F941F27C
:100FA0002811C2F20001096880B2486316E004F11A
:100FB0000B00FFF7BAF941F22811C2F200010968EB
:100FC00080B2C8630AE004F10B00FFF7AEF941F20A
:100FD0002811C2F20001096880B288630D21F6E68B
:100FE00004F10C00FFF7A1F94FF0FF3151FA80F046
:100FF00011283BD8DFE800F009110B3126341F21FE
:101000002418291B1F2E1809110B002006E00120AF
:101010000221032200F098FC28E001200121022295
:10102000032300F0F9FD21E0012003210FE002205D
:10103000012100F0EFFF012008E001F0D5F815E0F4
:10104000022003E0022002210CE00320012100F035
:101050006DFB0BE001200221F9E70220012101E0F4
:10106000022003210022022301F091F91021AEE6B3
:1010700040F61020C2F20000006809F0EFF90020ED
:1010800000210022002308F081FC06F0EFFD00BFE4
:1010900053686F775461736B0000000053686F777B
:1010A000506172616D6574657200000053746F70F9
:1010B0000000000053746172740000005265736593
:1010C000740000005374617475733D005768616C5F
:1010D000654D6F643D0000005768616C654469723E
:1010E0003D0000005768616C65506F733D00000063
:1010F0004E657874000000004D5F5A445469643DA9
:10110000000000004D5F5A44546469723D000000C5
:101110004D5F5A4454706F733D0000004D5F5A4458
:101120005473746172746E77000000004D5F5A440E
:101130005473746172740000536572766F4A6177FC
:101140003D000000536572766F57726973743D00FD
:1011500080B502F03BFF20B102A0BDE8804002F064
:1011600007BF80BD524543454956450D0A00000062
:1011700084B040F2651008F0C1FE40F65824C2F277
:1011800000040120207100F086FA9FED8D8A9FED0A
:101190008D9A4CF6801804F1580504F108070026D2
:1011A000C0F60008206000BFF0B207F068FB47F807
:1011B000140B284600214246B0EE480AF0EE490AD8
:1011C00006F00AF80136042E05F14805ECD19FED32
:1011D0007F8A04F5BC7B4CF674129FED7B0AC0F647
:1011E000000258460021F0EE480A002505F0F4FF01
:1011F0009FED779A4CF6641104F5E070C0F600019B
:10120000B0EE490A07F010FB4CF66C1104F5E870DB
:10121000C0F60001B0EE490A07F006FB4CF6681173
:1012200004F5F070C0F60001B0EE490A07F0FCFAD0
:101230004CF6701104F5F870C0F60001B0EE490AE2
:1012400007F0F2FA00200021C4F27A40CCF27A4191
:10125000C4E99201C4E99401204607F011FA9FED18
:10126000560B9FED5CDA9FED5C9A0DF10C080DF1C9
:1012700008090DF1040A56EC107BB7EE00AA00BF76
:10128000204607F0FDF9404649465246234603955D
:10129000CDE9015506F055FF2079042828D0012812
:1012A00079D194ED910A94ED961A30EE410A08F046
:1012B000B7FB10EE100A20F00040B0EE40BAFFF786
:1012C0003AFA3A463346FFF7F4F9002840F6005060
:1012D000F0EE480AC2F2000018BFF0EE4B0AC0ED73
:1012E000000A5846B0EE480A05F0D2FE39E000BFC9
:1012F00094ED910A94ED961A30EE410A08F090FBB5
:1013000010EE100A20F00040B0EE40BAFFF713FADA
:101310003A463346FFF7CDF9B0EE48CA002818BF69
:10132000B0EE4BCA8CEE0D0A40F60050C2F200003F
:10133000F0EE490AB0EE4A1A80ED00CA07F07CFAD6
:101340000020CCF2F02003900020C4F22020029074
:101350005846B0EE480AF0EE4C0A05F099FEB0EEA1
:10136000480A9DED032A94ED921AD4ED930A84ED78
:101370008E0AB0EE420A07F05FFA9DED022A94ED64
:10138000941AD4ED950A84ED8C0AB0EE420A07F067
:1013900053FA84ED8D0A06F0F1FEB4F91800B4F9A1
:1013A0002C10B4F94020B4F9543008F0EFFA0520BD
:1013B00008F0A4FD64E700BF9A9999999999B93FFB
:1013C0000080BB450000FA440000C8420000000055
:1013D0000AD7A33B0000B4423333333F80B500202B
:1013E00000210022002308F0D1FABDE8804007F078
:1013F0007FBA0000000000002DE9F0412DED028BC6
:10140000089D4FF47A73099EA5FB0347884606FBA7
:10141000037140F65827C2F2000701233B7187F899
:101420008D0287F82022C7E98041C7E9824108F090
:10143000E5FA97F82002032833D010285DD128461A
:101440003146FFF751F997ED961A00EE100A002188
:1014500030EE410AC7E98011C7E98211C7F844029A
:1014600008F0DEFA10EE100A20F00040FFF763F9F2
:101470009FED350B55EC104B22462B46FFF7FEF83F
:1014800000285CD197ED910A97ED961A30EE410A4B
:1014900008F0C6FA10EE100A20F00040FFF74BF9F2
:1014A000EAE728463146FFF71FF997ED961A00EE56
:1014B000100A0021C7F84402042030EE410AC7E9AF
:1014C0008011C7E98211387108F0AAFAB0EEC00A9B
:1014D000B1EE048AB4EE480AF1EE10FA0ADB97ED99
:1014E000910A97ED961A30EE410A08F099FAB0EE9B
:1014F000C00AEFE70120387121E018204FF47A711B
:10150000395214306828FBD1142008F0F7FC002071
:1015100000210022002308F039FAB8F1000F0ED1A3
:1015200040F608250024C2F2000500BF28684FF0ED
:10153000FF3109F0BFFD042C04F10104F6D3BDEC2A
:10154000028BBDE8F08100BF9A9999999999B93FAA
:101550000138052800F29580B0B582B0DFE800F0D0
:101560000362294A126B00247D23002000210422FB
:10157000CDE90034FFF740FF4FF4FA73002000215B
:10158000012277E0002440F25233002000210222A1
:10159000CDE90034FFF730FF002000211022009435
:1015A0000194FFF729FF4FF4C873002000210222A5
:1015B00060E000244FF4AF73002000210222CDE947
:1015C0000034FFF719FF4FF4877300200021102229
:1015D000CDE90034FFF710FF40F2726300200021D4
:1015E0000222CDE90034FFF707FFB42300200021D9
:1015F00010223FE000244FF4487500200021022211
:10160000CDE90054FFF7F8FE5A23002000211022F4
:10161000CDE90034FFF7F0FE002000210222CDE9E1
:10162000005429E000234FF45774002000210122C8
:10163000CDE9004320E0002440F252330020002195
:101640000222CDE90034FFF7D7FE0020002110224E
:1016500000940194FFF7D0FE40F2A4630020002123
:101660000222CDE90034FFF7C7FE4FF49673002045
:1016700000210822CDE90034FFF7BEFE02B0BDE82C
:10168000B04040F61820C2F200000068002102229B
:10169000002309F0C1BE40F6F040C2F200007047DE
:1016A00041F2B160C0F6000006F0C9BB00000000C6
:1016B00080B5808841F6D411C2F200010880B1F9EA
:1016C0000000FFF727F89FED0A0B53EC102BFEF7F5
:1016D000F4FE9FED090B53EC102BFEF7EEFEFFF727
:1016E0003DF840F6F041C2F20001086080BD00BF45
:1016F000000000000000003F000000000080664085
:1017000080B505F0BDF8002818BF012080BD40F26B
:10171000787CC2F2000C0CEB800041708270C370C8
:10172000704740F27870C2F2000070472DE9F04F28
:1017300083B08346481EC0B240F2601540F2361AAC
:101740000C460228C2F20005C2F2000A40D878A274
:1017500074A152F8206079A251F8201052F820703C
:1017600040F23410C2F20000028840F21410C2F2BB
:10177000000003780868A94601254FF00008CDE96C
:10178000000505200121CDF8088001F054FD40F24C
:101790008410C2F20000028840F26210C2F200001F
:1017A000037830680021CDE900050620CDF80880D7
:1017B00001F041FD3868B9F800209AF80130CDE910
:1017C0000005082001214D46CDF8088001F033FDC9
:1017D00008204FF42F7101F03EFD05204FF42F71CA
:1017E00001F039FD40F2881A00BF40F2AC1740F218
:1017F0008619C2F2000AC2F20007C2F20009DAF842
:1018000020003A8899F800304FF001080026CDE911
:10181000000807200021029601F00DFD07204FF47B
:101820007A7101F018FD584602F051F95A2002F081
:1018300041F9DAF808007A8899F80130CDE9000812
:1018400007200021029601F0F6FC07204FF47A7180
:1018500001F001FD012C1AD140F28410C2F2000007
:10186000028840F26210C2F20000037840F2641075
:10187000C2F20000C0690021CDE9000806200296EE
:1018800001F0D9FC06204FF4167101F0E4FC40F29F
:101890003610C2F2000040F238114078C2F2000166
:1018A000C9692A880A38CDE90018C3B20820012185
:1018B000029601F0C0FC08204FF42F7101F0CBFC20
:1018C000DAF80C003A8899F80030CDE900080720D2
:1018D0000021029601F0AFFC07204FF47A7101F06D
:1018E000BAFC532002F0E6F8DAF800007A8899F89A
:1018F0000130CDE9000807200021029601F09BFC91
:1019000007204FF47A7101F0A6FC40F61820C2F2CD
:101910000000006800210222002303B0BDE8F04F60
:1019200009F07ABD280100202C01002030010020A0
:1019300074010020780100207C0100204801002073
:101940004C010020500100202DE9F04F87B00346E4
:1019500040F27870C2F2000010F80390455C875C9A
:101960004DF2DD1004910592C0F6000019461A46AA
:101970008DF819908DF81A508DF81B70039302F0B2
:10198000F7FA4DF2CA10C0F6000049462A463B4617
:1019900002F0EEFA40F2601440F2361640F23815CA
:1019A00040F2AC1840F2861BC2F20004C2F20006FC
:1019B000C2F200054FF0010AC2F20008C2F2000BA9
:1019C0004FF00009286A22887378CDE9000A0820C0
:1019D000012100255F46C346029501F02CFC40F230
:1019E0003410C2F2000002880DF1190010F80980CD
:1019F00040F21410C2F20000037840F21810C2F254
:101A0000000050F828000121CDE9000A05200295C8
:101A100001F011FC40F28410C2F20000028840F292
:101A20006210C2F20000037840F26410C2F20000BB
:101A300050F828000021CDE9000A06200024029574
:101A400001F0F9FBB9F1000F22D008204FF42F71FB
:101A500001F001FC40F28815C2F200052869BBF8CC
:101A600000203B78CDE9000A07200021D846BB467C
:101A7000029401F0E0FB07204FF4487101F0EBFB0A
:101A8000DDE90410B9F1010F08BF084621E000BFED
:101A900006204FF42F7101F0DEFB05204FF42F716B
:101AA00001F0D9FB40F28815C2F200052869BBF8A5
:101AB00000203B78CDE9000A07200021D846BB462C
:101AC000029401F0B8FB07204FF4487101F0C3FB0A
:101AD000039801F0FCFF5A2001F0ECFFA868B8F869
:101AE00002209BF80130CDE9000A072000210027E1
:101AF000029701F0A0FB07204FF47A7101F0ABFBD5
:101B0000AA4640F23815C2F2000540F2601440F2D5
:101B10003616E869C2F20004C2F200062288737821
:101B2000009001200190082001210027029701F078
:101B300082FB08204FF42F7101F08DFBDAF80C00C6
:101B4000B8F800209BF80030009001200190072099
:101B500000210027029701F06EFB07204FF47A71F5
:101B600001F079FB532001F0A5FFDAF80800B8F87E
:101B700002209BF801304FF0010ACDE9000A07204E
:101B800000210027029701F056FB07204FF47A71DD
:101B900001F061FB09F10109B9F1030F7FF412AF04
:101BA00040F23410C2F20000028840F21410C2F277
:101BB0000000037840F21810C2F20000806801258E
:101BC0000024CDE9000505200121029401F033FB3A
:101BD00040F28410C2F20000028840F26210C2F2A9
:101BE0000000037840F26410C2F200008068002117
:101BF000CDE900050620029401F01DFB40F61820F7
:101C0000C2F20000006800210222002307B0BDE8F4
:101C1000F04F09F001BC00002DE9F04F87B040F211
:101C20007877C2F20007059007EB8000465C845C81
:101C3000C75C4DF2DD10C0F600008DF819608DF81C
:101C40001A408DF81B70CDE9033202F091F94DF284
:101C5000CA10C0F60000314622463B4602F088F921
:101C600040F2641840F21819C2F20008C2F20009EA
:101C70004DF2F21A58F8262059F82650C0F6000AFC
:101C8000504631463346009502F072F958F8242048
:101C900059F82460504621462346009602F068F920
:101CA00058F8272059F82760504639463B46009699
:101CB00002F05EF940F2881540F2AC1740F2861649
:101CC000C2F20005C2F20007C2F2000668683A8854
:101CD000337801244FF0000ACDE9000407200021E9
:101CE000CDF808A001F0A7FA07204FF47A7101F0AF
:101CF000B2FA4FF0000900BF0DF1190010F8098089
:101D00000598012808BFB8F1010F00F0918040F25A
:101D10008410C2F20000028840F26210C2F2000099
:101D2000037840F26410C2F2000050F8280000214D
:101D3000CDE900040620CDF808A001F07CFA40F2BD
:101D40003410C2F20000028840F21410C2F2000007
:101D5000037840F21810C2F2000050F82800012168
:101D6000CDE900040520CDF808A001F064FA40F2A6
:101D7000381040F2601840F2361BC2F20000C2F286
:101D80000008C2F2000BC069B8F800209BF80030D0
:101D9000CDE9000408200121CDF808A001F04BFA9C
:101DA00008204FF42F7101F056FAE8683A8833782A
:101DB000CDE9000407200021CDF808A001F03BFA8E
:101DC00007204FF47A7101F046FA5A2001F072FEB2
:101DD000A8683A883378CDE9000407200021CDF8BF
:101DE00008A001F028FA07204FF47A7101F033FAC5
:101DF00040F23810C2F20000006AB8F800209BF8E8
:101E00000030CDE9000408200121CDF808A001F040
:101E100012FA08204FF42F7101F01DFA05980028DE
:101E200000F0B4800598012800F0A980C0E000BF50
:101E3000B04640F2341B40F21816C2F2000BC2F258
:101E40000006BBF80020706840F2141BC2F2000BC1
:101E50009BF8003000F2DC50CDE9000405200121A0
:101E6000CDF808A001F0E7F940F28410C2F20000BA
:101E7000028840F26210C2F20000037840F264105F
:101E8000C2F2000040680021CDE900040620CDF830
:101E900008A001F0D0F940F2381040F2601640F28C
:101EA000361BC2F20000C2F20006C2F2000BC0698B
:101EB00032889BF80030CDE9000408200121CDF8DC
:101EC00008A001F0B8F908204FF42F7101F0C3F910
:101ED000E8683A8898F80030CDE90004072000212E
:101EE000CDF808A001F0A7F907204FF47A7101F0AE
:101EF000B2F95A2001F0DEFDA8683A8898F800305F
:101F0000CDE9000407200021CDF808A001F093F9E5
:101F100007204FF47A7101F09EF940F23810C2F2B6
:101F20000000006A32889BF80030CDE900040820E8
:101F30000121CDF808A001F07EF908204FF42F719F
:101F400001F089F940F23410C2F20000028840F238
:101F50001410C2F20000037840F21810C2F2000020
:101F600040680121CDE9000405204646CDF808A0CF
:101F700001F061F905204FF42F7101F06CF93A88F6
:101F800033786869CDE9000407E000BF307829693B
:101F90003A880A38CDE90014C3B207200021CDF8F1
:101FA00008A001F048F907204FF47A7101F053F9C5
:101FB0005FFA89F1049811B1012902D1039801F067
:101FC00086FD532001F076FD307829683A8805387F
:101FD000CDE90014C3B207200021CDF808A001F01C
:101FE0002AF907204FF47A7101F035F909F1010956
:101FF000B9F1030F7FF480AE40F61820C2F2000062
:10200000006800210222002307B0BDE8F04F09F06C
:1020100003BA00002DE9F04F85B0024640F2787017
:10202000C2F20000855C049160A0114601F0A0FF9F
:1020300061A0294601F09CFF40F26410C2F200004A
:1020400050F8251040F21810C2F2000050F8252078
:102050005CA001F08DFF40F28617C2F2000740F24B
:10206000881440F2AC193878C2F20004C2F20009B8
:102070002168B9F80020053801260025CDE90016B1
:10208000C3B207200021029501F0D5F807204FF4D4
:102090007A7101F0E0F840F2381840F2601A40F22C
:1020A000361BC2F20008C2F2000AC2F2000BD8F8D6
:1020B0001C00BAF800209BF80030CDE9000608208B
:1020C0000121029501F0B7F808204FF42F7101F0BB
:1020D000C2F83878E168B9F800200538CDE9001673
:1020E000C3B207200021029501F0A5F807204FF4A4
:1020F0007A7101F0B0F85A2001F0DCFCA068B9F860
:1021000000203B78CDE9000607200021029501F070
:1021100092F807204FF47A7101F09DF8D8F820006A
:10212000BAF800209BF80030CDE900060820012114
:10213000029501F080F808204FF42F7101F08BF820
:1021400038782169B9F800200A38CDE90016C3B201
:1021500007200021029501F06EF807204FF47A71F4
:1021600001F079F8049801F0B2FC532001F0A2FCD0
:10217000A069B9F800203B78CDE9000607200021CE
:10218000029501F058F807204FF47A7101F063F8D6
:1021900040F61820C2F2000000680021022200234D
:1021A00005B0BDE8F04F09F037B900BF436F6C6F61
:1021B00072202564200D0A00446972202564200DD8
:1021C0000A0000004D4F544F525F585F506F733DEF
:1021D0002535642020204D4F544F525F525F506F81
:1021E000733D2535640D0A00B0B584B040F2AC10E3
:1021F000C2F20000428840F28610C2F2000043782A
:1022000040F28810C2F20000006801250024CDE9E8
:10221000000507200021029401F00DF840F234106F
:10222000C2F20000028840F21410C2F200000378EB
:1022300040F21810C2F2000080680121CDE90005CB
:102240000520029400F0F7FF40F28410C2F2000073
:10225000028840F26210C2F20000037841F250405E
:10226000CDE9000506200021029400F0E4FF40F2D1
:102270006010C2F20000028840F23610C2F2000084
:10228000437808200121CDE90045029400F0D3FFF6
:1022900007204FF47A7100F0DEFF08204FF42F7111
:1022A00004B0BDE8B04000F0D6BFF0B583B040F256
:1022B000AC11C2F200014A8840F28611C2F200015C
:1022C0004B7840F28811C2F20001096801260446E9
:1022D0000025CDE9001607200021029500F0ABFF94
:1022E00007204FF47A7100F0B6FF40F23810012C4D
:1022F000C2F2000008D0022C3ED100F120044FF4BD
:10230000967740F6AC5003E000F12404002000274B
:1023100040F23411C2F200010A8840F21411C2F2F4
:1023200000010B78CDE9000605200121029500F09F
:1023300082FF40F28410C2F20000028840F2621074
:10234000C2F20000037806200021CDE90076029554
:1023500000F071FF40F26010C2F20000028840F20B
:102360003610C2F20000437820680121CDE9000652
:102370000820029500F05FFF732001F09BFB08200E
:102380004FF42F7103B0BDE8F04000F064BF2DE9B9
:10239000F04184B040F2D0460C460546C2F2000639
:1023A000032A7274F3730FD0022A04D0012A04BFE7
:1023B000012030709CE0022B53D0012B40F098801C
:1023C0000620307000BF93E040F23410C2F20000EB
:1023D000028840F21410C2F200000378012740F690
:1023E000AC504FF00008CDE9000705200121CDF8E1
:1023F000088000F020FF40F28410C2F20000028842
:1024000040F26210C2F20000037840F26410C2F29F
:10241000000000690021CDE900070620CDF8088002
:1024200000F009FF40F26010C2F20000028840F2A2
:102430003610C2F20000037840F23810C2F20000F9
:10244000006A0121CDE900070820CDF8088000F0DE
:10245000F2FE08204FF4FA7100F0FDFE0420307007
:1024600046E040F27478C2F200080720D8F8001065
:102470003070085D40F21811C2F2000151F82000DE
:1024800001270026CDE9000705200121C822642389
:10249000029600F0D0FED8F8000040F26411005D12
:1024A000C2F2000151F820000021CDE9000706200A
:1024B000C8226423029600F0BEFE42F23410CDE939
:1024C0000007072000214FF4FA72DC23029600F087
:1024D000B2FE06204FF4167100F0BDFE05204FF449
:1024E0002F7100F0B8FE07204FF47A7100F0B3FEB0
:1024F00041F6E410C2F20000057041F6E510C2F2A8
:102500000000047004B0BDE8F08140F2D040C2F297
:1025100000000130704742F63470C2F200000078CB
:102520007047000010B52DED048B86B042F2F950D3
:10253000C0F6000005F08AFCFFF7F3F840F2747172
:10254000C2F200010860234822A103AB9FED248A58
:102550009FED249AD1E9011207C340F6940003AC21
:10256000C2F2000000212246B0EE480AF0EE490A0D
:1025700004F032FE40F6DC00C2F2000000212246E8
:10258000B0EE480AF0EE490A04F026FE164816A1FD
:10259000D1E901128DE8070040F624106C46C2F222
:1025A000000000212246B0EE480AF0EE490A04F08D
:1025B00013FE40F66C10C2F2000000212246B0EE7D
:1025C000480AF0EE490A04F007FE06B0BDEC048BA1
:1025D00010BD00BF9A99193F0000000000000000E4
:1025E0000080BB45CDCCCC3D6666663F0000000058
:1025F00000000000000000002DE9F04F81B02DED3B
:10260000028B86B0417840F2D049C2F2000989F8C5
:102610001310428840F6F447A9F81C208388C2F2C0
:102620000007A9F81E30397040F6F647C2F20007DD
:102630003A8040F6F847C2F200073B8099F80070F4
:10264000013F062F00F21182DFE817F00700E800D3
:102650005A00A8003000BF01EA014DF2D500A9F8E8
:102660001420A9F8163092B29BB2C0F6000001F017
:102670007FFCB9F81400002800F0EB8140F254749C
:10268000C2F200042178012900F09C82002940F068
:10269000C982A9F818000120B9F8161020704CF66C
:1026A000AA70C0F60000A9F81A10EEE1417899F876
:1026B0000A2089F80B108078914289F80D0018BF24
:1026C000904240F0D28189F804000844C0F106002D
:1026D00089F803004DF21300C0F6000089F80210DB
:1026E00001F046FC99F8021099F8032099F804309B
:1026F000002089F80000C9F80500A9F8090031E0B8
:10270000417889F80B108078002989F80D0000F0D5
:10271000AC81002800F0A98189F804000844C0F1C8
:10272000060089F8030041F6E410C2F2000000241C
:10273000047041F6E510C2F2000004704DF25D0035
:10274000C0F6000089F8021001F012FC99F802109E
:1027500099F8032099F8043089F80040C9F8054039
:10276000A9F809404CF62050C0F6000001F000FC2A
:102770004DF21310C0F6000001F0FAFB40F61820ED
:10278000C2F20000006800210222002306B0BDEC66
:10279000028B01B0BDE8F04F08F03EBE4DF2810063
:1027A000A9F8142091B29AB2C0F60000A9F8163028
:1027B00001F0DEFBB9F81410002900F04A8140F264
:1027C0005670C2F200000278002A00F05481B9F875
:1027D00018208B1A48BF5B42B9F81620072B00F26D
:1027E000EC81B9F81A30D31A48BF5B42082B80F04D
:1027F000E48141F6E411C2F2000100240C7041F6BC
:10280000E51104704CF6C870C2F20001C0F6000079
:102810000C7001F0ADFB89F80040A9E74DF2810092
:10282000A9F8142091B29AB2C0F60000A9F81630A7
:1028300001F09EFBB9F81810B9F81A204DF2920079
:10284000C0F6000001F094FBB9F81400002800F075
:102850000581B9F82620A9F81800B9F81610801AD1
:10286000B9F82820A9F81A10891A40F6FC42C2F2D9
:102870000002A9F82000A9F82210108040F6FE42BC
:1028800005B2C2F20002118080EAE532A2EBE53324
:1028900099F82A209BB293420EB200F2088181EA95
:1028A000E631A1EBE63189B2914200F2008141F6B6
:1028B000E41441F6E51599F80A000026C2F2000476
:1028C000C2F2000599F81310C9F8186026702E702E
:1028D000002818BF01464DF27F10C0F6000089F8AD
:1028E0000A1001F045FB40F23410C2F200000288E9
:1028F00040F21410C2F20000037840F21810C2F245
:10290000000080680127CDE900070520012102961B
:102910004FF0050800F08FFC40F28410C2F2000076
:10292000028840F26210C2F20000037840F26410A4
:10293000C2F2000000690021CDE9000706200296DE
:1029400000F079FC40F26010C2F20000028840F210
:102950003610C2F20000437840F23810C2F2000094
:10296000006A0121CDE900070820029600F063FC0F
:1029700008204FF42F7100F06EFC277085F800805E
:1029800002F0F1FA40F25072C2F20002116842F60F
:102990003474411A116040F6C4100222C2F20004DD
:1029A000814238BF0122227022784DF2A300C0F686
:1029B000000001F0DDFA2078012840F033824DF26A
:1029C00038000321C0F6000035E21004A9F81420F5
:1029D000A9F8163018BF5FEA034043D0B9F82E00BB
:1029E000B9F83010101A40F6FC42591AC2F200022F
:1029F000A9F82000A9F82210108040F6FE42C2F289
:102A00000002118041F6E412C2F200021378022B98
:102A100000F03981012B40F0388199F82B3034E1F6
:102A2000100418BF5FEA03401FD041F6E518C2F258
:102A3000000898F80000032800F02A82022800F01D
:102A40000C82012840F02882B9F83200B9F83450DD
:102A500022E24CF69D70C0F6000001E00FF26070BB
:102A600001F086FA002089F8100006B0BDEC028B58
:102A700001B0BDE8F08FB9F81620A9F818100121AF
:102A8000A9F81A2001700FF2247001F071FAB9F858
:102A90001810B9F81A204DF2EF00C0F6000006B089
:102AA000BDEC028B01B0BDE8F04F01F061BA06FA4F
:102AB00080F000EBD0704FF0000AAAEB60000490A9
:102AC000FDF728FE8046701B00EBD07040100C46CE
:102AD0000590FDF71FFE834640F694009FEDE20B44
:102AE000C2F200000F46C0F818A051EC100B9FED89
:102AF000E00B4FEAD17A6AF3DF7455EC106B404675
:102B0000214632462B46FDF7D8FC9FEDDB0B54ECFB
:102B1000108B42462346FDF729FCFDF71FFE40F6C9
:102B20009401C2F200016AF3DF77886058463946A3
:102B300032462B46FDF7C1FC42462346FDF716FC04
:102B4000FDF70CFE40F6DC04C2F20004A06004981D
:102B50009FEDCB8A00EE100A40F69405B8EEC00A4D
:102B6000C2F20005B1EE400A2846F0EE480A04F031
:102B70008FFA0598F0EE480A00EE100AB8EEC00A87
:102B8000B1EE400A204604F083FA95ED080ABDEE46
:102B9000C00A10EE100A94ED080AA9F82000BDEE54
:102BA000C00A10EE100AA9F8220006B0BDEC028B94
:102BB00001B0BDE8F04F04F00DBCA9F81810A9F859
:102BC0001A2052E7B9F81810411A48BF49420329A0
:102BD00000F2FD80B9F81610B9F81A208A1A48BF19
:102BE0005242032A00F2F38040F25572C2F2000210
:102BF0000123137099F8052099F81330002A18BFA3
:102C00001346B9F8062089F80530002A18BF104687
:102C1000B9F80820A9F80600002A18BF1146A9F83B
:102C20000810DAE040F25575C2F200052978022951
:102C300000F04182012940F074824CF6A370C0F686
:102C4000000001F095F999F8051099F81320B9F8EA
:102C500014008A4200F06582B9F80610091A48BFCC
:102C60004942132900F25D82B9F80810B9F816201C
:102C7000891A48BF4942142980F053824DF22F101F
:102C8000C0F6000030E299F83E3005B280EAE53740
:102C9000A7EBE537BFB2DBB29F420CB211D881EA95
:102CA000E437A7EBE437BFB29F420AD899F8123055
:102CB00099F83F70BB4280F0C1805A1C89F81220FD
:102CC0007AE04FF0000A284689F812A0FDF722FDAD
:102CD000804620460E46FDF71DFD059040F6241067
:102CE0009FED610BC2F200000F46C0F818A051EC36
:102CF000100B9FED650BC80F60F3DF765AEC10BB2D
:102D00000490404631465A465346FDF748FC9FED35
:102D10005A0B56EC108B42463346FDF727FBFDF766
:102D20001DFD40F62411C2F20001886004985A4645
:102D300060F3DF77059839465346FDF730FC42468D
:102D40003346FDF713FBFDF709FD40F66C1600EE68
:102D5000105A9FED4B8A40F62415C2F20006B8EED9
:102D6000C00AC2F20005B060B1EE400A2846F0EE9B
:102D7000480A04F08DF900EE104AB8EEC00AB1EE30
:102D8000400A3046F0EE480A04F082F995ED080A50
:102D9000BDEEC00A10EE100A96ED080AA9F8200050
:102DA000BDEEC00A10EE100AA9F8220004F012FBD2
:102DB000B9F82000B9F8221040F6FC42C2F2000235
:102DC000108040F6FE40C2F2000001804DE640F265
:102DD0005570C2F2000002210170022020704CF6F2
:102DE000B970C0F6000001F0C3F840F25570C2F2AD
:102DF000000001784DF2FF00C0F6000001F0B8F8C5
:102E000099F80510B9F80620B9F808304DF2BB0062
:102E1000C0F6000006B0BDEC028B01B0BDE8F04F7B
:102E200001F0A6B8207802287FF41FAE4CF6ED70B2
:102E30000521C0F6000089F8001034E141F6E510E4
:102E40000024C2F200000470CEA0147089F8124071
:102E5000A9F82440A9F8204011E1B9F83600B9F8E2
:102E6000385019E000BF00BF000000000000000063
:102E7000000000000000D03F000000000000E83F1C
:102E80000000000000BF00BF000000000000144070
:102E9000B9F83A00B9F83C5099B2C1F1F00100EE2E
:102EA000101A91B286B2881B01EE100AB8EEC00A61
:102EB000F8EEC10A08F078FE9FED9D1A9FED9D2A5D
:102EC00020EE010A80EE020AB9F81E009FED9A1A60
:102ED000C0F1F00030EE010A01EE100AB9F81C0052
:102EE000B8EEC11A801B02EE100AB8EEC22AA8B2D0
:102EF00022EE022A21EE011AC0F1F00031EE021A90
:102F000002EE100AB1EEC11AB8EEC22A31EE421A30
:102F1000BDEEC02A12EE100A02B280EAE233A3EB41
:102F2000E232BDEEC12A92B212EE101A012AA9F8BD
:102F30002400A9F8201012D80AB281EAE233A3EBE8
:102F4000E23292B2012A0AD899F8122099F83F3059
:102F50009A4280F08480013289F8122074E0B2EE47
:102F6000042A20EE020ABDEEC00A10EE101A21EE6D
:102F7000020A40F27476BDEEC00AC2F200064FF0BB
:102F8000000A10EE102A306898F8003089F812A074
:102F9000A9F82410A9F82020C75C40F26414C2F2FA
:102FA000000454F827502A4444F82720C25C40F219
:102FB0001817C2F2000757F82250294447F8221088
:102FC000C15C42F2486554F82120AA42B8BF1546B8
:102FD00025EAE57244F82120C15C41F6583557F8DE
:102FE0002120AA42B8BF154625EAE57247F82120FC
:102FF000C05C002154F820000124CDE90004062023
:1030000064223223CDF808A000F015F9306898F852
:1030100000106422405C012157F820003223CDE9E2
:1030200000040520CDF808A000F005F906204FF4B3
:10303000FA7100F010F905204FF4FA7100F00BF965
:10304000B9F82010B9F8240040F6FC42C2F20002A0
:10305000118040F6FA41C2F20001088005E598F8B7
:10306000001036A000F084FF41F6E410C2F2000028
:103070000024047088F8004089F8124037A000F05E
:1030800077FF89F8004003F0E2FC40F61820C2F216
:103090000000006800210222002308F0BDF94DF273
:1030A0001310C0F6000006B0BDEC028B01B0BDE805
:1030B000F04F00F05DBF44A000F05AFFB9F81400D3
:1030C000B9F81810411A48BF4942042929D8B9F85B
:1030D0001610B9F81A20891A48BF4942052920D28A
:1030E0004DF24710C0F600000021C9F818102170F9
:1030F000297000F03DFF4DF29E10C0F6000000F078
:1031000037FF022089F8000001F02DFF40F25072D5
:103110000146C2F200024DF25F10C0F600001160DD
:10312000C1E7B9F81610A9F81800A9F81A109CE41C
:1031300000003443DB0F49400000B4C22A2A2A2A87
:103140002A2A2A2A202564202A2A2A2A2A2A2A2ABE
:103150002A2043616C4F6B0D0A000000455849540A
:10316000204150505F4D41495843414D5F5061727D
:1031700073655F434952434C455F43616C58520D40
:103180000A00000045584954204150505F4D4149C4
:103190005843414D5F50617273655F436972636C60
:1031A000655F43616C4361720D0A00004172726990
:1031B0007665466C6167203D20313B0D0A000000BA
:1031C00058302059300D0A0042462D320D0A0000B9
:1031D00010B580B179B140F2D044C2F20004227C33
:1031E0001AB903F049FC0120207403F0B7FB10B1B9
:1031F0000020207400BF10BD80B50520002101F023
:1032000013F8052001F0CAFD0620002101F00CF89A
:10321000052001F0C3FD0720002101F005F805207D
:1032200001F0BCFD0820002100F0FEFF0520BDE8F4
:10323000804001F0B3BD10B584B0DDE906CE089C36
:10324000CDE900CE029400F0B9FF0A2004B0BDE839
:10325000104006F053BE04F055BF000080B582B0A8
:1032600040F6BC10C2F20000002100688DF8071083
:103270000DF10701002207F059FE012809D19DF840
:10328000071042F62970C2F20000017002A000F09F
:103290006FFE02B080BD00BF735F756353746174CD
:1032A0007573203A2025640D0A0000002DE9F047CF
:1032B0008AB002A82021FDF70EF842F6297AC2F260
:1032C000000A9AF8000000211D28019121DC152830
:1032D00000F22883DFE810F01600C9005D019300BA
:1032E000AE0074003C01260326032603EB002603F0
:1032F0002603260326032603260326032603260386
:103300007A01A7014FF4FA700AB0BDE8F04706F061
:10331000F5BD272836DC1E2800F00E821F2840F05D
:1033200001834CF67540C0F6000000F021FE40F22B
:103330007074C2F20004207840F20805C2F2000561
:103340000028284605F1030618BF3046007800F033
:10335000BEFB2078002818BF354628786978AA78FF
:10336000FEF7F2FA01AA00204FF0FF314FF0FF33D1
:1033700008F09EF904208AF800004CF69340C0F64D
:1033800000009EE2282800F01B82292840F0CA8213
:103390000FF2E06000F0ECFD40F27078C2F200083D
:1033A00098F80000002800F03E8240F20800C2F2C7
:1033B0000000C178027943790120FEF72DFC6CE210
:1033C0004CF61A40C0F6000000F0D2FDFEF70CFFEC
:1033D0000520FEF7BDF801AA00204FF0FF314FF0A5
:1033E000FF3308F065F940F27070C2F2000001216D
:1033F000017014208AF800000FF2546061E24CF66C
:10340000D330C0F6000000F0B3FDFEF7EDFE032060
:10341000FEF79EF801AA00204FF0FF314FF0FF3376
:1034200008F046F91E208AF800004CF6F730C0F686
:103430000000C8E04CF68630C0F6000000F098FDB1
:10344000FEF7D2FE0420FEF783F801AA00204FF019
:10345000FF314FF0FF3308F02BF928208AF80000E5
:103460004CF6AD30C0F600002BE201F07CFD40F2DE
:103470005871C2F2000108604CF61C60C0F60000F2
:1034800000F076FDFEF7B0FE0120FEF761F801AA1C
:1034900000204FF0FF314FF0FF3308F009F90A2008
:1034A0008AF800004CF63660C0F600008BE040F26F
:1034B0007176C2F20006307838B94CF63F50C0F64B
:1034C000000000F055FD0120307002AC204603F0F2
:1034D000C9FE002800F026824CF65D60C0F60000B0
:1034E000214608F00BFB40F208010020C2F2000167
:1034F000002200BFD3B2E35C2B2B08BF0132D3B252
:10350000E35C0132303B0B5401300628F2D102A8B3
:1035100003F003FF40F61820C2F20000006800210B
:10352000022200230224002507F076FF01AA0020D2
:103530004FF0FF314FF0FF3308F0BAF84CF655501A
:10354000C0F600008AF8004000F012FD3570E9E195
:103550000FF2B44000F00CFDFEF746FE0620FDF72A
:10356000F7FF01AA00204FF0FF314FF0FF33002496
:1035700008F09EF80FF2B4408AF8004000F0F8FC22
:1035800040F28070C2F200000068802107F05AF813
:1035900099E14CF63E40C0F6000000F0E9FCFEF771
:1035A00023FE0220FDF7D4FF01AA00204FF0FF31D7
:1035B0004FF0FF3308F07CF814208AF800004CF636
:1035C0005A40C0F6000000F0D3FCABE14CF60260BC
:1035D000C0F6000000F0CCFC0120FEF766FE4FF4C0
:1035E000967006F08BFC0120042101220123FEF7D6
:1035F000CEFE01AA00204FF0FF314FF0FF3308F05C
:1036000057F8FEF788FF014640F25770C2F20000FB
:10361000017015208AF800004CF6E540C0F6000065
:1036200000F0A6FC4FE14CF6B040C0F6000000F000
:103630009FFCFEF76AFF044601206E46012100BF91
:10364000625C904204D001310429F9D101E000BF4D
:10365000315401300428F1D16178A278E3784CF636
:103660002050C0F6000000F083FC9DF801109DF88A
:1036700002209DF803304CF60150C0F6000000F027
:1036800077FC40F27078C2F2000898F8000040F22F
:103690000809C2F200090028484609F1030718BFCB
:1036A00038460078315CFEF741F801AA00204FF05F
:1036B000FF314FF0FF3307F0FBFF40F25770C2F2CB
:1036C00000000078012800F03081022840F091814C
:1036D0004CF67030C0F6000000F04AFC98F800008C
:1036E0000121002818BF042119F80100315CFEF700
:1036F0001DF801AA00204FF0FF314FF0FF3307F013
:10370000D7FF98F800000221002818BF052119F8FA
:103710000100315C0139CAB2022A08D8C90040F25E
:103720000312C9B2C0F2020222FA01F1315440F28E
:10373000145006F0E3FB49E14CF6E550C0F60000FA
:1037400000F016FC0220FEF7B0FD40F27076C2F2E7
:103750000006307840F20805C2F20005002828462D
:1037600005F1030718BF3846007800F0B0F90220D1
:10377000022102220123FEF70AFE01AC00204FF0D5
:10378000FF3122464FF0FF3307F092FF30780028D8
:1037900018BF3D4629786A78AB780020FEF73CFADE
:1037A00000204FF0FF3122464FF0FF3307F080FF3B
:1037B0001F208AF800004CF68850C0F6000080E018
:1037C0004CF6AC50C0F6000000F0D2FB0220022400
:1037D000FEF76BFD40F27075C2F20005287840F2EA
:1037E0000801C2F20001002818BF0331087800F078
:1037F0006EF928780221002818BF012420460222F1
:103800000123FEF7C4FD01AA00204FF0FF314FF065
:10381000FF3307F04DFF29208AF800004CF6C9500D
:10382000C0F600004DE040F20807C2F20007002594
:10383000FE1C01AC98F8000002220028384618BF90
:103840003046415D02200223FEF7A1FD00204FF02B
:10385000FF3122464FF0FF3307F02AFF98F80000AF
:10386000022D12D00028384618BF30464119405D5D
:1038700049780135FEF7CEFB00204FF0FF3122469C
:103880004FF0FF3307F014FFD4E70221002818BFE0
:103890000521785C0021FEF7BDFB01AA00204FF056
:1038A000FF314FF0FF3307F003FF98F800000521C8
:1038B00000284CF66A50C0F6000018BF06218AF8AE
:1038C000001000F055FB01F04EFB40F25874C2F2BC
:1038D000000454F8041B401A44F6D351C1F26201AB
:1038E000A0FB01124BF27321C4F2E751A0FB0101CE
:1038F000900944F24542C0F24442A0FB02238A0BE5
:10390000C3EB0311A0EB81034CF64F61C0F600013D
:10391000204608F003F94CF67860C0F60000214616
:1039200000F026FB0AB0BDE8F0874CF65A30C0F62E
:10393000000000F01DFBC82006F0E0FA0120042181
:10394000032201230125FEF722FD01AA00204FF0EA
:10395000FF314FF0FF3307F0ABFE00BF012000BF87
:10396000215C8D4204D001300428F9D101E000BF70
:1039700070550135042DF1D198F80000002200287F
:1039800008BF4F46791C00BF8B5CF75C012F03D04A
:10399000022F03D1012704E0032702E0032F08BF11
:1039A00002270132022AF754EED10121002818BF64
:1039B000042119F80100315CFDF7B8FE01AA0020CE
:1039C0004FF0FF314FF0FF3307F072FE98F8000020
:1039D0000221002818BF052119F80100315CFDF70C
:1039E000A5FE01AA00204FF0FF314FF0FF3307F092
:1039F0005FFE4CF6CB40C0F6000000F0B9FA0320A1
:103A00008AF800005FE700BF454E544552205354EA
:103A1000415455535F50726F536563417265615FE6
:103A2000325F53746172740D0A00000045584954A6
:103A3000205354415455535F50726F536563417224
:103A400065615F325F53746172740D0A000000009B
:103A500045584954205354415455535F50726F5345
:103A60006563417265615F325F5261774172656182
:103A70000D0A0000454E54455220535441545553AD
:103A80005F50726F53656341726561506C6163652D
:103A90000D0A000041F6E41441F6E515C2F20004F7
:103AA000C2F2000520782978FFF792FB462006F045
:103AB00025FAF7E710B5044603F04EFC732C08BF57
:103AC00010BD4FF4C870BDE8104006F017BA03F0FF
:103AD00057BC704782B040F28074C2F20004206884
:103AE000012106F009FE4FF0FF3500BF20680121DB
:103AF00000220023009506F04DFEC00718BFFDF719
:103B000027FB0A2006F0FAF9F0E7FDF731BB0000C9
:103B1000FDF7F6FD052006F0F1F9F9E7FFF79EFB4A
:103B2000FFF7C4FB0A2006F0E9F9F7E7FFF7B2BF99
:103B300090B040F2807B40F6582AC2F2000B4FF062
:103B4000FF34C2F2000A00BFDBF80000802100222F
:103B50000023009406F01EFE000640F1BA81DAF858
:103B60001000DAF82440DAF83850DAF84C60FCF744
:103B7000E2FD804620468946FCF7DDFD41EC180B4E
:103B80002846FCF7D8FD41EC190B3046FCF7D3FD75
:103B9000DAF8304241EC1A0B2046FCF7CCFD41EC40
:103BA0001B0B84F00040FCF7C6FDDAF8344241EC10
:103BB0001C0B2046FCF7BFFD41EC1D0B84F00040C0
:103BC000FCF7B9FD41EC1E0BDAF89002FCF7B3FDEF
:103BD00041EC100B4CF65920C0F6000042464B4613
:103BE0008DEC0E8B8DED0E0B07F088FFDAE91E4091
:103BF000DAE90476FCF79FFD8046DAF880000D468E
:103C0000FCF799FD41EC180BDAF88400FCF793FD02
:103C100041EC190B2046FCF78EFD41EC1A0B38469F
:103C2000FCF789FD41EC1B0B3046FCF784FD41ECB1
:103C3000100B4CF68E20C0F6000042462B468DEC51
:103C4000088B8DED080B07F059FFDAE93040DAE90F
:103C50000976FCF770FD8046DAF8C8000D46FCF7DF
:103C60006AFD41EC180BDAF8CC00FCF764FD41EC7E
:103C7000190B2046FCF75FFD41EC1A0B3846FCF7A8
:103C80005AFD41EC1B0B3046FCF755FD41EC100B87
:103C90004CF6B920C0F6000042462B468DEC088B4E
:103CA0008DED080B07F02AFFDAE94240DAE90E76DB
:103CB000FCF741FD8046DAF810010D46FCF73BFDAC
:103CC00041EC180BDAF81401FCF735FD41EC190B47
:103CD0002046FCF730FD41EC1A0B3846FCF72BFD73
:103CE00041EC1B0B3046FCF726FD41EC100B4CF66B
:103CF000E420C0F6000042462B468DEC088B8DED8B
:103D0000080B07F0FBFEDAE95440DAE91376FCF71A
:103D100012FD8046DAF858010D46FCF70CFD41EC27
:103D2000180BDAF85C01FCF706FD41EC190B204694
:103D3000FCF701FD41EC1A0B3846FCF7FCFC41ECAA
:103D40001B0B3046FCF7F7FC41EC100B4CF60F3028
:103D5000C0F6000042462B468DEC088B8DED080B1B
:103D600007F0CCFE40F60050C2F200000068FCF7FD
:103D7000E2FC0446DAF838020D46FCF7DCFC41ECC4
:103D8000100B56A022462B468DED000B07F0B6FE19
:103D9000DAF81400DAF82860DAF83C70DAF8504003
:103DA000FCF7C9FC804630460D46FCF7C4FC41ECEC
:103DB000180B3846FCF7BFFC41EC190B2046FCF70A
:103DC000BAFC41EC100B4CF63A30C0F6000042460B
:103DD0002B468DEC048B8DED040B07F08FFEBAF9AA
:103DE0001810BAF92C20BAF94030BAF954704CF6D0
:103DF0001520C0F60000009707F080FEDAF80800F2
:103E0000DAF81C10DAF83070DAF84460D0E90A23E6
:103E1000D1E90A01D7E90A75D6E90A648DE8830079
:103E20004CF63020C0F60000CDE9035605944FF063
:103E3000FF3407F063FE40F21810C2F20000031DC9
:103E40000ECB2AA007F05AFE40F26410C2F2000026
:103E5000031D0ECB2BA007F051FEDAE98017DAE93B
:103E600084232EA0CDE9001707F048FE40F6145039
:103E7000C2F20000B0F9001040F61650C2F2000085
:103E8000B0F900202AA007F039FE40F6F640C2F251
:103E90000000018840F6F840C2F20000028829A024
:103EA00007F02CFE40F6FC40C2F20000B0F9001012
:103EB00040F6FE40C2F20000B0F9002024A007F056
:103EC0001DFE40F6F440C2F20000017824A007F085
:103ED00015FE322006F012F836E600BF7B777A7DB9
:103EE000252E33662C252E33660A00007B4D4F5459
:103EF0004F525F525F506F737D25642C25642C25D3
:103F0000640A00007B4D4F544F525F585F506F73EF
:103F10007D25642C25642C25640A00007B6469736C
:103F20005F7365747D256C6C642C256C6C640A0071
:103F30007B675F6F627365727665727D25642C2581
:103F4000640A00007B63616D7D25642C25640A0092
:103F50007B63616D5F647D25642C25640A0000002D
:103F60007B63616D5F636F6C6F727D25640A000017
:103F700083B0B0B5ADF20C4D84460DF10B04CDF815
:103F80001C14CDF82024CDF824340DF21C43204617
:103F900040F201416246019307F0D4FD40F6B415AA
:103FA000C2F2000528684FF0FF3104F036FE06A08B
:103FB000214607F0A3FD286804F08AFE0DF20C4D9F
:103FC000BDE8B04003B07047257300002DE9F0470D
:103FD00082B000250DF1070100208DF8075004F094
:103FE00092FB00283FD042F6287640F2B84741F6CF
:103FF000D818C2F20006C2F20007C2F200080DF1A2
:1040000007044FF001094FF0000A00BF307898B163
:1040100038783E281AD89DF807107B7A78683A7865
:10402000994215D18554D8F80020AAB13978904723
:1040300035704FF0010A0FE09DF80700797888424B
:1040400004BF86F800903D7006E000BF357003E0C5
:10405000531C3B70815400BF0020214604F053FBE9
:104060000028D3D101E04FF0000A5FFA8AF002B0D5
:10407000BDE8F087FEE740F61850C2F2000000F0FD
:104080003BBA10B540F6C81440F61850C2F200040E
:1040900040F6C013C2F20000C2F200030021224623
:1040A00000F099F92068A0F20121032988BF10BD12
:1040B000013841F26831C0B2C2F2000101EB801058
:1040C00040F6C011C2F20001BDE8104004F0DEBBB2
:1040D00040F64050C2F2000000F00EBAB0B540F613
:1040E000EC1540F6E41440F64050C2F20005C2F26E
:1040F0000004C2F2000000212A46234600F06BF9BA
:1041000000B1B0BD6868010A40F64D20C2F200005F
:1041100001702178FD290CD161789F2909D1A178FE
:104120006B2906D1007840F64421C2F20001012239
:104130000A5440F6EC10C2F200001C21FCF7CBF848
:10414000B0BD40F62860C2F2000000F06FBC41F242
:104150006800C2F2000000F069BC40F66850C2F28C
:10416000000000F063BC41F2C800C2F2000000F0A1
:104170005DBC40F6C850C2F2000000F057BC40F6EB
:10418000A870C2F2000000F051BC41F20800C2F277
:10419000000000F04BBC40F68860C2F2000000F066
:1041A00045BC40F6E860C2F2000000F03FBC40F6BB
:1041B0004870C2F2000000F039BC704770B584B09E
:1041C00040F644260025C2F20006DDE9084E8DF8CF
:1041D0000F50ADF80D5035548DF80000FD208DF8CE
:1041E0000100100A8DF80300200E8DF80600200C47
:1041F0008DF80700200ADDF828C08DF808006B2034
:104200008DF802108DF80C0068460D218DF8042001
:104210008DF805308DF809408DF80AE08DF80BC057
:1042200003F0DCFE04B070BD80B584B08DF80000F2
:1042300049F6FE00ADF801006B2000228DF8031056
:104240008DF80400684605210392CDF80920CDF8C9
:10425000052003F0C3FE04B080BD000072B600BFAD
:10426000FEE710B590F820E0D0F800C0AEF1010EE6
:10427000BEF1010FDCF808E011D81EF0E05F14D0A9
:10428000CEF301640120A04018608B689BB1D1F887
:1042900004E0C86840EACE0040EA030E0FE000F1F7
:1042A000240301204FF4802121E000F124030120A8
:1042B0004FF400111BE00868CB6843EA405E0CF540
:1042C000C07000EB0413240140F804E00C691846A8
:1042D00040F8044F097D012903D1016841F4807140
:1042E000016050680121D8601068986000201A6849
:1042F0001143196010BD90F82020013A012A30D8EE
:10430000B0B546F20060C4F20000026842F001025B
:104310000260026822F47C520260D1F814E0CC6999
:104320004A6A0368012C43EA022202600EF01F026F
:104330004FF0010303FA02F2C3696FEA020C23EAA9
:104340000203C36113D02CBBC36803EA0C03C36030
:10435000CB688C8844EA034300EBCE0423640B460D
:1043600011E0416A41F48021416201207047C36835
:104370001343C3600B688C8844EA034300EBCE040C
:10438000236401F10C038C681B8843EA044300EBAF
:10439000CE04636443688D6943EA0204D1F810E0F7
:1043A000096A002D08BF03EA0C0444604369BEF1AA
:1043B000000F43EA020408BF03EA0C040129446128
:1043C00002D1C1691143C161016821F0010101609D
:1043D0000020B0BD7047B0B590F82040013C012CE2
:1043E0007AD8D0F800C000290CBFDCF80C40DCF80B
:1043F0001040A40776D00CF5D8754FEA011C55F88B
:104400000C4014F00404946055F80CE005EB011C1A
:1044100019BF4FEADE0555604FEA5E551560DCF8BE
:104420000050E64605F00205D5605EF8044F24070B
:104430005ABFDEF8004004F00F0408241461DEF8CF
:1044400000400029C4F307249461DEF800504FEACD
:1044500015455561DCF808201A70026802EB01125C
:10446000D2F8B8214FEA12225A70026802EB011208
:10447000D2F8B8214FEA12429A70026802EB011298
:10448000D2F8B8214FEA1262DA70026802EB011228
:10449000D2F8BC211A71026802EB0112D2F8BC21D9
:1044A0004FEA12225A71026802EB0112D2F8BC21C3
:1044B0004FEA12429A71026802EB0112D2F8BC2153
:1044C0004FEA1262DA7100680CBF00F10C0100F1D2
:1044D0001001002020220AE000F1240101204FF405
:1044E000802204E000F1240101204FF400120B6847
:1044F0001A430A60B0BD00002DE9F04F81B00446B8
:1045000000684669D0F804908768D0F80CB0D0F8FD
:1045100010A0D0F81880F10701D1002549E0F90773
:104520000ED00121BA07816007D478071DD438075F
:1045300021D4204600F020FA02E0204600F01DFAC7
:104540000025F8051CD520684FF48071BA058160FC
:1045500007D478050CD4380510D4204600F00EFAA4
:104560000EE0204600F00BFA0AE04FF40065E8E7A1
:1045700005F5005504E04FF48055E2E705F5804568
:10458000F80316D520684FF48031BA03816007D450
:10459000780309D438030AD4204600F0F1F908E082
:1045A000204600F0EEF904E005F5004501E005F5D0
:1045B0008035300707D51BF0100004D0206845F483
:1045C00000751021C160700708D51BF0080005D0E8
:1045D00020680821C160204600F08CF9B00706D59C
:1045E0002068C068800702D0204600F084F9700679
:1045F00007D51AF0100004D0206845F4806510211A
:104600000161B00608D51AF0080005D0206808211D
:104610000161204600F080F9F00606D520680069A7
:10462000800702D0204600F078F9B00308D519F0D1
:10463000100005D0206810214160204600F06EF97E
:10464000F00308D519F0080005D020680821416062
:10465000204600F097F9300440D55FEA49703AD51A
:1046600006F4807008EA102028435FEA887101464A
:1046700048BF41F00201B20558BF01465FEA4870E9
:104680000D4648BF45F00405700558BF0D4630057E
:1046900021D518F070001ED010380009052815D853
:1046A000DFE800F0030F090C061245F008050DE0E5
:1046B00045F080050AE045F0200507E045F040059B
:1046C00004E045F0100501E045F48075206881693B
:1046D00021F0700181612068042141604DB1606A60
:1046E00040EA05012046616201B0BDE8F04FFFF7E6
:1046F00071BE01B0BDE8F08FD0B1B0B5044690F8FE
:10470000200010B9204600F06FF82068016841F0E1
:104710000101016000F027FC054600BF20684168E8
:10472000C90707D100F01FFC401B0B28F6D312E08D
:1047300001207047016821F00201016000F013FCC4
:10474000054600BF2068416889070BD500F00BFCC7
:10475000401B0B28F6D3606A052140F400306062EC
:1047600001203EE0217E0268012922F0800208BF7C
:1047700080320260617E0268012922F0400208BF97
:1047800040320260A17E0268012922F0200208BFA7
:1047900020320260E17E0268012922F0100218BF77
:1047A00010320260217F0268012922F0080208BF4E
:1047B00008320260617F0268012922F0040208BF0A
:1047C00004320260D4E901C2D4E9033561691A43B5
:1047D0002A431143ACF101021143C16100200121C0
:1047E000606284F82010B0BD10B586B0044601A800
:1047F0001421FBF770FD206846F60001C4F20001A9
:1048000088422ED046F20041C4F2000188426FD1A6
:1048100040F28471C2F200010A6843F63000C4F22B
:104820000200531C0B6052B900210091016941F054
:1048300000710161016901F000710091009900218E
:1048400000910168142441F00101016000684FF4F7
:10485000C05100F00100009000980020C4F2020056
:1048600032E043F630000021C4F2020000910269F8
:1048700042F080620261026902F080620092009A56
:1048800040F28472C2F2000213685C1C14604BB9DF
:104890000091026942F000720261026902F0007246
:1048A0000092009A00910168402441F002010160E9
:1048B00000684FF4405100F0020000900098002082
:1048C000C4F2020000F580600191022102910021F2
:1048D0000391032104910921059101A900F072FAC5
:1048E00020460521002200F0F5FB204600F0E2FB07
:1048F00006B010BD704740F61851C2F20001884260
:1049000008BFFFF7BEBB40F64051C2F2000188422B
:1049100018BF7047FFF7E2BB704770477047000051
:10492000B0B5044690F8200001281CD1022084F87C
:1049300020002068016821F00101016000F013FBF4
:10494000054600BF20684068C00712D000F00BFB8E
:10495000401B0B28F6D3606A40F4003060620520EB
:1049600084F8200003E0606A40F4002060620120C7
:10497000B0BD00206062B0BD70477047704770479F
:10498000704770477047000070B5866D044600F0B0
:10499000EAFA94F83510022925D105462068216CE1
:1049A000026822F016020260426922F0800242612F
:1049B00009B9A16C19B1016821F008010160016811
:1049C00021F00101016000BF20680068C0070ED01F
:1049D00000F0C9FA401B0628F6D3202060650320AA
:1049E00084F835000CE080206065012008E0E06D6F
:1049F0003F2101FA00F0B060012084F8350000206A
:104A0000002184F8341070BD90F83510022909D1C6
:104A1000052180F835100068016821F0010101606E
:104A2000002070478021416501207047F0B581B0BA
:104A300004460020009040F2B040C2F2000002683C
:104A4000D4E9166048F2B51337680821C1F64E3331
:104A500081403942A2FB03250CD0226813685B0712
:104A600008D5136823F004031360B160616D41F051
:104A70000101616501218140394208D022685269F3
:104A8000120604D5B160616D41F002016165042137
:104A90008140394208D022681268920704D5B1607B
:104AA000616D41F00401616510218140394217D0E8
:104AB00020680268120713D5B160026801685203CA
:104AC00006D4C90506D4016821F00801016001E09F
:104AD000080301D4216C00E0A16C09B1204688478D
:104AE000E16D202000FA01F23A423CD020680368D0
:104AF000DB0638D5B26094F835300268052B1AD140
:104B000022F016020260426922F080024261226CA9
:104B10000AB9A26C1AB1026822F0080202603F20B2
:104B20008840B060012084F83500216D002084F8B1
:104B30003400B9BB3BE0016852030CD4C9050ED464
:104B4000016821F010010160012084F83500002087
:104B500084F8340003E0080301D4616C00E0E16BE9
:104B600009B120468847606D08B3606DC00717D053
:104B7000052084F835002068A90A026822F00102A5
:104B8000026000BF009A01328A42009202D8026895
:104B9000D207F7D1012084F83500002084F83400D2
:104BA000E16C21B1204601B0BDE8F040084701B0FA
:104BB000F0BD00002DE9F041044600F0D4F9C4B185
:104BC0000546022084F835000020216884F834006E
:104BD000086820F00100086021680868C0070BD051
:104BE00000F0C1F9401B0528F6D903252023032036
:104BF00064E00120BDE8F081086848F23F02CFF28E
:104C00001002D4E9013500EA020C04F10C0898E81E
:104C1000C10143EA0C032B431843D4E9072E304368
:104C200038431043626A40EA0E00042A40EA08034F
:104C30001CD1206BD4E90A2E40EA0E00184308600C
:104C40004869BEF1000F20F0030040EA020040F086
:104C5000040C11D0B8F5005F35D0B8F1000F42D187
:104C6000022A43D0012A38D0002A3EE00B6048696E
:104C700020F0070040EA020C01F0F8004AF6AB22EF
:104C80001038CAF6AA22A0FB02231A094CF68C138C
:104C9000C1F814C0C0F600039A5C40F2FF335F28ED
:104CA0004FF03F0021EA030100FA02F088BF04310F
:104CB000C4E916128860002301250020636584F88A
:104CC0003550BDE8F081032AD6D8012540230120C4
:104CD000DFE802F0020C0203F0E7AEF1C070B0FAB8
:104CE00080F0400904E0032A04D3C5D1CEF300606C
:104CF0000028C1D0012540230120DFE790F834C00F
:104D0000BCF1010F04BF0220704770B54FF0010CD9
:104D100080F834C0D0F858E090F835C0BCF1010FED
:104D200037D14FF0020C80F835C04FF0000CC0F8BE
:104D300054C0D0F800C08468056CC06DDCF8006019
:104D4000402C26F48026CCF80060CCF804300B46CA
:104D500004BF13460A463F2101FA00F0CCF80830A0
:104D6000CCF80C20CEF80800DCF8000040F016006B
:104D7000CCF800002DB1DCF8000040F00800CCF8C1
:104D80000000DCF8000040F00100CCF8000000203A
:104D900070BD002180F83410022070BDB0B504460B
:104DA00000F0E1F8054640F23050C2F20000007811
:104DB000611C18BF044400BF00F0D5F8401BA0429E
:104DC000FAD3B0BD2DE9F04F83B000F1200200F11D
:104DD0003E4741F60045009207F1FF77C4F2020515
:104DE00008224FEAB726A84208BF072200254FF045
:104DF00000084FF00009072E38BF4FEAB722019292
:104E00000F68012202FA09FE17EA0E0A00F09980E3
:104E1000D1F804C003220CF003077E1E02FA08F446
:104E2000012E6FEA040B11D88468CE6804EA0B04E3
:104E300006FA08F634438460446824EA0E06CCF38C
:104E4000001404FA09F42643466003E0032F01D15D
:104E500003271EE0C6688C6806EA0B0604FA08F40D
:104E60002643022FC66014D16FF00302009E02EAAF
:104E7000590756F807C005F01C040F220B69A24021
:104E80002CEA0202A3401A43F251D1F804C00CF0FC
:104E90000307026807FA08F302EA0B021A431CF43C
:104EA000403F02604DD0002243F644030292C4F218
:104EB00002031A6843F6004442F480421A601A68FA
:104EC000C4F2010402F480420292029A29F0030221
:104ED0004FF6084C2244CFF6FF7C52F80C3005F018
:104EE0000C070F26BE40B343019E06FA07F73B436B
:104EF00042F80C30A2684B6842EA0A0743F60C4CB1
:104F0000DE0258BF22EA0A07A760C4F2010CDCF8EF
:104F100000209E0242EA0A0758BF22EA0A07CCF89C
:104F2000007062689E0342EA0A0758BF22EA0A0735
:104F300067602268DB0342EA0A0758BF22EA0A07D1
:104F4000276009F1010908F10208B9F1100F05F114
:104F500004057FF455AF03B0BDE8F08F002A08BF09
:104F60000904816170474AF27040C2F20000006893
:104F7000704740F230504AF27041C2F20000C2F273
:104F8000000100780A6810440860704780B543F655
:104F90000040C4F20200016841F400710160016840
:104FA00041F480610160016841F480710160032077
:104FB00000F0BBF80F2000F004F800F05AF80020D1
:104FC00080BD70B586B0002543F640010195C4F25E
:104FD00002010A68044642F020020A60096801A83A
:104FE00001F0200101910199694600F058F9049EF1
:104FF000002E18BF012600F071F94DF68361B04014
:10500000C4F21B31A0FB01014FF0FF3000EB9141D6
:1050100041F2701041F20042C2F20000C4F20002FC
:1050200040F2E733C0E90021C0E902530561856120
:1050300000F0BBFB0546C8B941F27010C2F2000097
:1050400000F0F9FB054688B9372000F033F80F2C43
:105050000BD8372021460022002500F03BF840F213
:105060003450C2F20000046000E00125284606B07A
:1050700070BD82B0002043F640010190C4F20201ED
:105080004A6842F480424A604A6802F480420192CF
:10509000019A00900868002240F08050086008687B
:1050A0000F2100F08050009000986FF0010002B0D6
:1050B00000F010B800280CD400F01F01012202FA01
:1050C00001F11C2202EAD0004EF20012CEF20002E0
:1050D0008150704710B54EF60C5CCEF2000CDCF837
:1050E0000030C3F3022E8EF00704042C28BF0424E2
:1050F000BEF103034FF0FF3E0EFA04F438BF002365
:10510000A14399400EFA03F39A43114300F00F02B2
:1051100000F160430901043A03F564436244002846
:1051200048BF02F10C03197010BD4EF60C51CEF2BF
:1051300000010A684FF6FF031A4060F30A2242F0AA
:10514000806040F0FD70086070470000002872D059
:105150002DE9F04143F60008C4F202080446D8F8ED
:1051600000040D4600F00700884207D288F800547A
:10517000D8F8000400F00700A84266D12068810733
:1051800017D5410705D5D8F8081041F4E051C8F803
:105190000810010705D5D8F8081041F46041C8F897
:1051A0000810D8F80810A26821F0F0011143C8F8DF
:1051B0000810C00741D1D8F8000400F00700A84249
:1051C00007D988F80054D8F8000400F00700A84276
:1051D0003BD12068410707D5D8F80810E26821F4D0
:1051E000E0511143C8F80810000708D5D8F80800A6
:1051F000216920F4604040EAC100C8F8080000F0CE
:1052000093F8D8F808104CF62C02C1F30311C0F63D
:105210000002515C40F2B04220FA01F140F23450F9
:10522000C2F200000068C2F200021160FFF7C9FE7E
:105230000020BDE8F081012070476068811E0229CE
:1052400006D2D8F80010890108D40120BDE8F08109
:1052500001281FD1D8F800108903F6D5D8F8081016
:1052600021F003010843C8F80800FFF77CFE06465A
:1052700041F28837D8F80800616800F00C00B0EB04
:10528000810F98D0FFF76FFE801BB842F2D9032040
:10529000BDE8F081D8F800108907D6D5DEE70F22E7
:1052A000026043F60802C4F20202136803F003032B
:1052B0004360136803F0F0038360136803F4E05362
:1052C000C360D2F800C04FF4E05303EADC0303618B
:1052D000D2F8F80300F007000860704740F2B040D1
:1052E00043F60801C2F20000C4F202010068096836
:1052F0004CF63C02C1F38221C0F60002515CC8406A
:10530000704740F2B04043F60801C2F20000C4F218
:105310000201006809684CF63C02C1F34231C0F654
:105320000002515CC840704710B543F60404C4F253
:105330000204606800F00C0142F200400829C0F24B
:10534000F40007D0042918BF10BD41F20020C0F2BC
:105350007A0010BD216801F03F02216823684902EC
:10536000C3F3881105D4A1FB00010023FAF738FF2D
:1053700006E041F20020C0F27A004843B0FBF2F0B0
:1053800021680222C1F3014102EB4101B0FBF1F0BF
:1053900010BD000000286BD02DE9F04182B004461A
:1053A000007843F60006C007C4F202060CD0B068CD
:1053B00000F00C00042840F098803068800303D58A
:1053C0006068002800F0AB80207880071BD5B068AB
:1053D00010F00C0F09D0B06800F00C00082840F065
:1053E000A0807068400200F19C803068800703D57F
:1053F000E068012840F093803068216920F0F800CF
:1054000040EAC10030602078000733D4207840079C
:1054100045D4A56955B3B06800F00C00082840F0E9
:10542000B980012D7BD07068E16900F480028A4266
:1054300075D1216A00F03F028A4270D147F6C071EF
:10544000626A0140B1EB821F69D1A16A4FF6FF7316
:10545000C903994300F44032A1F580318A425ED1FC
:10546000E16A00F07060B0EB016F58D10020F3E00A
:10547000012070476069002878D00020C4F24720DE
:105480000121C0F8801EFFF76EFD0546706F800792
:10549000BCD4FFF768FD401B0228F7D9DBE0306C75
:1054A0005FEAC0080AD400200190306C40F08050C0
:1054B0003064306C00F080500190019847F2000792
:1054C000C4F200073868C00542D4386840F48070E0
:1054D0003860FFF748FD05463868C00538D4FFF747
:1054E00042FD401B0228F7D9B5E0B06800F00C007F
:1054F000082803D1706840023FF55FAF61683068EB
:10550000B1F5803F07D0B1F5A02F40F08E8040F478
:1055100080203060306840F4803030608EE00120C0
:105520009AE0E068002840F20000C4F2472053D01F
:1055300001210160FFF717FD054600BF30688007B5
:105540003FF55AAFFFF70FFD401B0228F6D982E066
:10555000A168306F012905D005294FD140F0040022
:105560003067306F40F00100306750E00020C4F237
:1055700047200021C0F8801EFFF7F5FC054600BF5C
:10558000706F80077FF542AFFFF7EDFC401B0228EC
:10559000F6D960E00027C4F2472700203866FFF7FD
:1055A000E2FC022D05460BD13068800157D5FFF78C
:1055B000DAFC401B02284FF00300F5D94CE000BF95
:1055C000306880017FF552AFFFF7CDFC401B022809
:1055D0004FF00300F4D93FE000210160FFF7C3FC66
:1055E000054600BF306880077FF50DAFFFF7BBFCB5
:1055F000401B02284FF00300F4D92DE020F00100F9
:105600003067306F002920F00400306748D0FFF782
:10561000AAFC054641F28837306F800751D4FFF766
:10562000A2FC401BB842F7D915E020F4803030606E
:105630003068002920F4802030604BD0FFF793FCC5
:10564000054600BF306880033FF5BEAEFFF78BFC18
:10565000401B6428F6D9032002B0BDE8F08104F1B4
:105660001C052FCD084340EA8210D9034FF6FF7284
:105670009143A1F5803140EA056008437060012044
:105680003866FFF770FC0446306880013FF5EEAEE7
:10569000FFF769FC001B02284FF00300F4D9DBE799
:1056A000FFF761FC054641F2883700BF306F800785
:1056B00007D5FFF758FC401BB8424FF00300F5D95F
:1056C000CAE7B8F1000F3FF5A4AE306C20F080506F
:1056D00030649EE6FFF747FC054600BF3068800354
:1056E0007FF572AEFFF73FFC401B64284FF00300CC
:1056F000F4D9B1E77047704790F83C20012A4FF089
:10570000020250D010B580F83D200268D2F804E0C3
:10571000D2F808C00C682EF07003234341F2FF74E6
:10572000C4F20004A24253600BDC40F2FF73C4F2E7
:1057300000039A4213DCB2F1804F27D040F20043BD
:1057400015E040F2FF33C4F201039A4212DC41F645
:105750000003C4F200039A4218D0002312E040F67E
:105760000003C4F200039A4210D040F60043C4F292
:10577000000309E044F20003C4F201039A4205D099
:1057800040F20043C4F201039A4204D149682CF06C
:105790008003194391600121002280F83D1080F8B8
:1057A0003C20BDE810401046704740B310B5044699
:1057B00090F83D0028B9002084F83C00204600F015
:1057C00020F8022084F83D002068211D01F0AAFE87
:1057D000012084F8460084F83E0084F83F0084F8F5
:1057E000400084F8410084F8420084F8430084F8C3
:1057F000440084F8450084F83D00002010BD0120DD
:105800007047006840F60001C4F20001884218BFEA
:10581000704781B00020009043F64000C4F20200BF
:10582000016841F004010160006800F0040000908C
:10583000009801B0704790F83D1001291CBF01206D
:105840007047022180F83D10006841F2FF72C16884
:10585000C4F20002904241F00101C1600BDC40F251
:10586000FF71C4F20001884213DCB0F1804F27D0F1
:1058700040F2004115E040F2FF31C4F201018842DC
:1058800012DC41F60001C4F20001884218D0002168
:1058900012E040F60001C4F20001884210D040F648
:1058A0000041C4F2000109E044F20001C4F2010128
:1058B000884205D040F20041C4F20101884204D17F
:1058C000816801F00701062903D0016841F0010158
:1058D00001600020704790F83C20012A4FF002023E
:1058E0006BD080B580F83D20D0F800C04FF67772BD
:1058F000DCF8083023EA0202CCF808200B684F2BB2
:1059000028DC1F2B44DD202B45D0302B43D0402BEF
:1059100040F0AC80D1F804E0C968DCF82030DCF855
:10592000202022F00102CCF82020DCF8182022F000
:10593000F00242EA011123F00A0242EA0E02CCF818
:105940001810CCF82020DCF8081041F0470121F0B5
:10595000300127E06F2B32DDB3F5005F73D0B3F574
:10596000805F21D0702B40F08180D1E901E3C968CC
:10597000DCF8082043EA0E0322F47F4243EA0121C7
:105980001143CCF80810DCF8081041F0770109E069
:105990000BB1102B6AD1DCF8081021F0700119430B
:1059A00041F00701CCF808100022012180F83D10D9
:1059B000002180F83C10BDE8804010467047502B15
:1059C00021D0602B52D1D1F804E0C968DCF8203036
:1059D000DCF8202022F01002CCF82020DCF818207F
:1059E00022F4704242EA013123F0A00242EA0E1290
:1059F000CCF81810CCF82020DCF8081041F0670132
:105A000021F01001CEE7D1F804E0C968DCF82030BD
:105A1000DCF8202022F00102CCF82020DCF818204D
:105A200022F0F00242EA011123F00A0242EA0E02D9
:105A3000CCF81810CCF82020DCF8081041F0570101
:105A400021F02001AEE7D1E901E3C968DCF80820C4
:105A500043EA0E0322F47F4243EA01211143CCF8CA
:105A60000810DCF8081041F480419BE701229CE714
:105A7000704770B504460068C5680669B10716D559
:105A800015F0020113D06FF00201016101212177AD
:105A90008069800703D02046FFF7EAFF05E0204633
:105AA00000F0B5F8204600F02CF9002020777007B0
:105AB00018D515F0040015D020686FF004010161BD
:105AC00002212177806910F4407F03D02046FFF740
:105AD000CFFF05E0204600F09AF8204600F011F9CB
