:020000040800F2
:10000000B8A70020A101000869540008214B00088E
:1000100025530008D1220008996300080000000061
:10002000000000000000000000000000D15900089E
:100030002724000800000000E1550008C501000861
:10004000BB010008BB010008BB010008BB010008A0
:10005000BB010008BB010008BB010008BB01000890
:10006000BB010008BB010008BB010008AF2300086A
:10007000BB230008C7230008D3230008DF230008A0
:10008000EB230008F7230008BB010008BB010008B0
:10009000D3220008BB010008BB010008BB01000817
:1000A000BB010008BB010008BB010008BB01000840
:1000B000BB010008BB010008BB010008BB01000830
:1000C000BB010008BB010008BB010008BB01000820
:1000D000BB01000867630008736300087F630008C2
:1000E000BB010008BB010008BB010008BB01000800
:1000F000BB010008BB010008BB0100080324000885
:10010000BB010008BB010008BB010008BB010008DF
:10011000FF5E00080B5F0008BB010008495C000897
:10012000BB010008BB0100080F240008BB01000848
:10013000BB010008BB010008BB010008BB010008AF
:100140003B230008BB010008BB010008BB010008FD
:10015000BB010008BB0100081B2400088B630008DA
:10016000BB010008BB010008BB010008BB0100087F
:10017000BB010008BB010008BB0100080000000033
:10018000BB010008BB010008DFF810D000F038FC0C
:1001900000F0D0F800480047956E0008B8A700208E
:1001A0000648804706480047FEE7FEE7FEE7FEE711
:1001B000FEE7FEE7FEE7FEE7FEE7FEE7375C000846
:1001C0008901000830B410B50348804730BCAE4602
:1001D00030BC024800477047D5710008715B0008C9
:1001E0002DE9F05F0546002092469B46884606466C
:1001F000814640241BE0284641464746224600F0FF
:10020000E1FA53465A46C01A914110D31146184696
:10021000224600F0C8FA2D1A67EB01084F46224625
:100220000120002100F0BFFA17EB00094E41201E0B
:10023000A4F10104DFDC484631462A464346BDE8C6
:10024000F09F2DE9F0410024061B254671F10006C0
:1002500005DA01240027D0EB070067EB0101161E29
:1002600073F1000605DA0027D2EB0702012567EBE0
:100270000303FFF7B5FF86460E4617469C46AC4281
:1002800004D00025D0EB050E65EB010624B100205B
:10029000D2EB000760EB030C704631463A466346EA
:1002A000BDE8F08140EA01039B0703D009E008C9DB
:1002B000121F08C0042AFAD203E011F8013B00F82B
:1002C000013B521EF9D27047D2B201E000F8012B77
:1002D000491EFBD270470022F6E710B513460A46C6
:1002E00004461946FFF7F0FF204610BD421C10F8E7
:1002F000011B0029FBD1801A704730B5054600204C
:10030000034600E05B1C934205D2EC5CC85C201AFB
:1003100001D1002CF6D130BD70B5064609F04EFB78
:10032000046805460A220021304600F06DFA2C6070
:1003300070BD00007CB50748009007480190054655
:10034000009C04E02046016808448047241DAC421C
:10035000F8D17CBDC0A90008C4A900082DE9FE4F52
:10036000804681EA0300C00F0C46009021F0004156
:1003700023F00045B8EB0200A94105D240462146D2
:1003800090461C460B46024623F00040104347D0DF
:10039000270DC7F30A00C3F30A510290401A0190D7
:1003A00040286BDAC3F3130040F4801B0098924698
:1003B00020B10023D2EB030A63EB0B0B01985946E3
:1003C000C0F14002504600F0EEF906460D46504698
:1003D0005946019A00F006FA10EB0800614100242A
:1003E00087EA115284EAE7731A4340D0009A62B355
:1003F000019A012A4FEA075215DC001B61EB02014A
:100400004FF0004202EA0752CDE90042001C41F5DC
:10041000801132462B4600F075FA03B0BDE8F08F2C
:1004200040462146F9E7001B61EB0201001C41F543
:10043000801300185B412018A2F5001747EB030159
:1004400040EAD570B6196D4111E06D084FEA3606E5
:1004500045EAC0754FEA0752001B61EB0201001C20
:1004600041F5801149084FEA3000001951413246E8
:100470002B4603B0BDE8F04F00F035BA00980122DA
:1004800040000023D0EB020263EBE07300982146AA
:100490004FEAE074B8EB000061EB0401E9E783F098
:1004A00000435BE781F0004158E72DE9FE4F81EA08
:1004B000030404F0004421F0004100944FF0000BCD
:1004C00023F0004350EA01045ED052EA03045BD0FB
:1004D000C3F30A54C1F30A552C44A4F2F334019433
:1004E000A0FB0254C1F3130141F48011C3F31303C1
:1004F00043F4801301FB024400FB034E840A970A75
:1005000044EA815447EA8357A4FB076802958D0AA1
:1005100005FB07854FEA932C04FB0C542705029D2D
:100520004FEA065847EA1637B5EB08056EEB070C9D
:10053000870E920E47EA811742EA8312A7FB020157
:10054000B6EB0B0164EB00042B0D43EA0C335E1891
:1005500044EB1C50DA465146E7FB0201C5F3130495
:100560004FEA0B3343EA14534FEA0432019C43EA47
:100570000603A4F10C040294009CCDE900B400F041
:10058000C1F903B0BDE8F08F00200146F9E72DE97D
:10059000F04D81EA030404F0004B21F000451446BD
:1005A0004FF0000A23F0004150EA050220D054EA3F
:1005B00001021DD0C5F30A570246C5F31303C1F368
:1005C0001300C1F30A5640F4801543F48013A7EBDF
:1005D0000608101BD64608F2FD3873EB050002D35F
:1005E00008F1010801E092185B41B8F1000F03DA4D
:1005F00000200146BDE8F08D00204FF48011064632
:1006000084460EE0171B73EB050705D3121B63EB43
:10061000050306434CEA010C49084FEA30009218E2
:100620005B4150EA0107EDD152EA030012D082EAA1
:10063000040083EA0501084305D0101BAB4106D234
:100640000122002306E000224FF0004302E06FF099
:10065000010253101AEB06004CEB085110EB0A0094
:1006600041EB0B01BDE8F04D00F03DB930B5041E83
:1006700071F1000404DB4FF00044404264EB0101DF
:10068000141E73F1000405DB1C464FF00043524278
:1006900063EB0403101A8B4101D2012030BD00200E
:1006A00030BD0EB5C10F80EAE0700844CA070021D2
:1006B00040F233438DE80E000A460B4600F022F963
:1006C00003B000BD0EB540F2334102910021CDE9E7
:1006D00000110A460B4600F015F903B000BD70B5D5
:1006E000C1F30A5201F000450024C1F3130140F2A6
:1006F000FF3341F480119A4201DA002070BD40F2CC
:1007000033439A42A2F2334203DC524200F05AF8D9
:1007100000E090402C43F1D0404270BD00F0004218
:1007200030F000400AD0C10D01F56071C0F3160031
:1007300042EA0151C20840071143704700200146B8
:10074000704701F0004330B421F0004150EA01024B
:1007500006D00A0DA2F56072C1F31301002A02DC73
:1007600030BC00207047440F44EAC104C100E018C7
:1007700030BC00EBC25000F07FB830B50B460146EC
:1007800000202022012409E021FA02F59D4205D330
:1007900003FA02F5491B04FA02F52844151EA2F1DA
:1007A0000102F1DC30BD202A04DB203A00FA02F11C
:1007B000002070479140C2F1200320FA03F319434F
:1007C00090407047202A04DB203A21FA02F00021F1
:1007D000704721FA02F3D040C2F120029140084351
:1007E00019467047202A06DBCB17203A41FA02F05F
:1007F00043EAE07306E041FA02F3D040C2F120027E
:1008000091400843194670472DE9F04791460F463D
:1008100080460446002614F8015B2DB100F008F96B
:100820000068405DC007F6D12B2D02D02D2D18D0C9
:10083000641E4A463946204600F0FEF827B1396862
:10084000A14201D1C7F8008071054FF002040BD519
:100850004042002803DD09F0B1F80460A007BDE8BC
:10086000F08746F48066E4E70028F8DA09F0A6F895
:1008700004606FF00040F2E70029A8BF7047401CF9
:10088000490008BF20F00100704710B4B0FA80FCA6
:1008900000FA0CF050EA010404BF10BC704749B1E3
:1008A000CCF1200421FA04F411FA0CF118BF012153
:1008B00021430843A3EB0C01CB1D4FEA00614FEA33
:1008C000102042BF002010BC704700EBC350104402
:1008D0000029A4BF10BC7047401C490008BF20F08D
:1008E000010010BC704710B5141E73F1000408DA43
:1008F000401C41F1000192185B411A4301D120F0E4
:10090000010010BD2DE9F04D92469B4611B1B1FAA0
:1009100081F202E0B0FA80F220329046FFF743FF06
:1009200004460F4640EA0A0041EA0B0153465A4684
:10093000084313D0114653EA010019D0C8F1400210
:100940005046FFF73FFF05460E4650465946424681
:10095000FFF729FF084305D0012004E0204639466F
:10096000BDE8F08D0020054346EAE0762C4337438E
:100970000A986305E40AA0EB08000022FD0A44EA95
:1009800047540A3002D500200146E9E70105101955
:100990006941DDE9084500196941BDE8F04DA2E76C
:1009A000C1F30A52C1F3130140F2FF3341F4801145
:1009B0009A4202DA00200146704740F233439A42DD
:1009C000A2F2334202DC5242FFF7FCBEFFF7EBBE5D
:1009D00030B5041E71F1000404DB4FF000444042C6
:1009E00064EB0101141E73F1000405DB1C464FF09B
:1009F0000043524263EB0403994208BF904230BD6A
:100A00001CB509480090094801900546009C06E085
:100A1000E06840F0010394E8070098471034AC42C6
:100A2000F6D3FFF7B5FB0000A0A90008C0A9000895
:100A30000048704760A300082DE9F05F8246007807
:100A4000002715468B460AF10104B946302801D02B
:100A50009DB113E014F8010B0127782803D0582822
:100A600001D045B10AE00DB1102D07D100271025A6
:100A700014F8010B02E0082500E00A250026B04624
:100A80000EE005FB080005FB06F1012701EB10460F
:100A90001FFA80F8B6F5803F00D3B94614F8010B71
:100AA000294600F018F80028EBDABBF1000F05D05A
:100AB0000FB1641E00E05446CBF80040B9F1000FBE
:100AC00006D008F07BFF02210160C81EBDE8F09F40
:100AD00048EA0640FAE73A2800D2303820F02002EF
:100AE000412A01D3A2F13700884201D34FF0FF30F1
:100AF000704730B58C1810F8012B12F00F0301D19C
:100B000010F8013B120906D110F8012B03E010F890
:100B1000015B01F8015B5B1EF9D101E001F8013BCB
:100B2000521EFBD1A142E6D3002030BD40F6393041
:100B3000C0F6000005F0F6BDB0B584B00446A0A034
:100B4000214601F047FBA0A120460422FFF7D5FB78
:100B5000002865D09EA120460722FFF7CEFB002883
:100B600060D09DA120460A22FFF7C7FB00286DD068
:100B70009CA120460A22FFF7C0FB002871D09CA14F
:100B800020460A22FFF7B9FB00286CD09BA1204623
:100B90000A22FFF7B2FB002870D09BA120460A2250
:100BA000FFF7ABFB00286BD09AA120460A22FFF783
:100BB000A4FB002878D09AA120460522FFF79DFBD0
:100BC000002800F0C88098A120460422FFF795FB7A
:100BD000002800F0C28096A120460622FFF78DFB78
:100BE000002800F0C68094A120460922FFF785FB6B
:100BF000002800F0D38093A120460B22FFF77DFB55
:100C0000002800F0CF8092A120460B22FFF775FB51
:100C1000002800F0CB8091A0214601F0DBFA39E0FA
:100C2000012138E0E01DFFF777FB40F2A032C2F26D
:100C3000000240F270211268C2F2000108701046F2
:100C40000022022307F048FF052124E004F10A00F6
:100C5000FFF762FB40F20801C2F200010968087068
:100C600018E0042521E004F10A00FFF755FB40F2EB
:100C70000801C2F20001096808720BE00C2514E0BB
:100C800004F10A00FFF748FB40F20801C2F200013C
:100C90000968087400214AF6EE00C0F6000004B0AE
:100CA000BDE8B04001F096BA142504F10A00FFF740
:100CB00033FB40F2080440F29C31C2F20004C2F25D
:100CC000000122680968505108462146002202238B
:100CD00007F002FF4AF6EE00C0F60000042101F022
:100CE00079FA4AF6D005C0F60005284601F072FAF6
:100CF000206801784AF60510C0F6000001F06AFA93
:100D0000206841684AF61010C0F6000001F062FA4F
:100D10002068017A4AF61B10C0F6000001F05AFA6A
:100D20002068C1684AF62610C0F6000001F052FAA9
:100D30002068017C4AF6FA00C0F6000001F04AFA89
:100D4000206841694BA001F045FA284604B0BDE88F
:100D5000B04001F03FBA02219DE740F21050C2F2CC
:100D60000000006800210222002308F077FA0B211E
:100D700091E7A01DFFF7D0FA00254FF44861C4B2F7
:100D8000CDE90015204600210A220023029500F03B
:100D900049FE204600F056FE0C217CE7607A01F007
:100DA0009DF90AE0E07A01F0A9F906E004F10B00F0
:100DB000FFF7B2FAC0B201F099F90D216BE700BF5D
:100DC00025730D0A0000000053746F7000000000CE
:100DD0005374617475733D005768616C6544697242
:100DE000583D00005768616C65506F73583D0000B6
:100DF0005768616C65446972593D00005768616CC1
:100E000065506F73593D00005768616C65446972A5
:100E1000523D00005768616C65506F73523D000091
:100E200053746172740000004E6578740000000015
:100E30004D5F5A44543D0000536572766F4A6177A6
:100E40003D000000536572766F57726973743D0000
:100E5000536572766F506C6174653D00556E6B6EB4
:100E60006F776E20636F6D6D616E643A2025730D30
:100E70000A000000506F73523A2025640D0A0000EA
:100E800080B501F0D1F920B102A0BDE8804001F0A9
:100E9000A1B980BD524543454956450D0A000000A1
:100EA00040F2943540F2742440F29C36C2F20005C0
:100EB000C2F20004C2F20006286821464FF0FF3259
:100EC00007F062FF306821460022022307F004FE8B
:100ED000F2E72DE9F04F83B04AF69010C0F600001B
:100EE0009A4691460E4608F02BFD06F0FD004AF2A8
:100EF0000C584AF21C550128C0F60008C0F600053F
:100F000040F0C081532001F0E9F8304601F0EEF8DE
:100F1000002401274FF4AF7B06200121FA220A2387
:100F2000CDE900B7029400F07DFD062000F08AFDB7
:100F3000522001F0E3F858F826000021CDE900071F
:100F40000520FA220A23029400F06CFD052000F02F
:100F500079FD40F2DC50CDE9000706200121FA229C
:100F60000A23029400F05EFD062000F06BFD55F8A8
:100F700026000021CDE900070720FA220A23029467
:100F800000F050FD5A2001F0A9F806200121FA22B4
:100F90000A23CDE900B7029400F044FD062000F0DA
:100FA00051FD462001F0AAF843F29C10CDE900075C
:100FB00006200121FA220A23029400F033FD0620C4
:100FC00000F040FD532001F089F806200121FA22AB
:100FD0000A23CDE900B7029400F024FD4FF4C87055
:100FE00007F012F8072000F02DFD55F82900002128
:100FF000CDE900070720FA220A23029400F012FD2F
:10100000062000F01FFDB9F1020F72D1022001F09D
:101010006DF8522001F072F841F26800CDE9000746
:1010200005200021FA220A23029400F0FBFC40F282
:10103000DC50CDE9000706200121FA220A230294A0
:1010400000F0F0FC062000F0FDFC5A2001F046F80C
:101050004FF4AF7506200121FA220A23CDE900578B
:10106000029400F0DFFC062000F0ECFC462001F0CA
:1010700045F843F29C10CDE9000706200121FA2231
:101080000A23029400F0CEFC062000F0DBFC532083
:1010900001F024F806200121FA220A23CDE90057A5
:1010A000029400F0BFFC4FF4FA7006F0ADFF4AF274
:1010B0000C58C0F6000858F82A000021CDE90007B6
:1010C0000520FA220A23029400F0ACFC062000F06E
:1010D000B9FC504601F00AF8522001F00FF8072041
:1010E0004FF0070B00F0AEFC4AF21C50C0F60000B7
:1010F00073E04846A84600F0F9FF522000F0FEFFDA
:101100004AF20C50C0F6000050F829000021CDE949
:1011100000070520FA220A2302944FF0050B00F085
:1011200081FC40F2DC50CDE9000706200121FA22C3
:101130000A23029400F076FC062000F083FC5A207B
:1011400000F0CCFF4FF4AF7506200121FA220A23EC
:10115000CDE90057029400F065FC062000F072FC17
:10116000462000F0CBFF43F29C10CDE9000706209B
:101170000121FA220A23029400F054FC062000F018
:1011800061FC532000F0AAFF06200121FA220A2365
:10119000CDE90057029400F045FC4FF4C87006F00A
:1011A00033FF072000F04EFC58F82A000021CDE95B
:1011B00000070720FA220A23029400F033FC0620DD
:1011C00000F040FC504600F091FF522000F096FFE6
:1011D0004AF20C58C0F60008404650F82A00012791
:1011E0000024CDE9000758460021FA220A23029480
:1011F00000F018FC40F2DC50CDE900070620012188
:10120000FA220A23029400F00DFC062000F01AFCDA
:101210005A2000F063FF4FF4AF70CDE900070620BD
:101220000121FA220A23029400F0FCFB062000F0C0
:1012300009FC462000F062FF43F29C10CDE9000754
:1012400006200121FA220A23029400F0EBFB06207B
:1012500000F0F8FB532000F041FF40F6AC50CDE920
:10126000000706200121FA220A23029400F0DAFB8B
:10127000062000F0E7FB072000F0E4FB4AF21C55D3
:10128000C0F60005022E1CBF03B0BDE8F08F53204E
:1012900000F024FF022000F029FF002401264FF473
:1012A000AF7706200121FA220A23CDE900760294C5
:1012B00000F0B8FB062000F0C5FB522000F01EFF36
:1012C00040F2DC50CDE9000606200121FA220A2373
:1012D000029400F0A7FB062000F0B4FB5A2000F0B7
:1012E000FDFE06200121FA220A23CDE900760294B0
:1012F00000F098FB062000F0A5FB462000F0FEFE63
:1013000043F29C1B06200121FA220A23CDE900B6F4
:10131000029400F087FB062000F094FB532000F0BD
:10132000DDFE06200121FA220A23CDE9007602948F
:1013300000F078FB4FF4C87006F066FE58F82900FC
:101340000021CDE900060520FA220A23029400F0CC
:1013500069FB062000F076FB484600F0C7FE5220ED
:1013600000F0CCFE55F829000021CDE90006072049
:10137000FA220A23029400F055FB40F2DC50009060
:1013800006200121FA220A2340F2DC590196029438
:1013900000F048FB062000F055FB5A2000F09EFEAE
:1013A00006200121FA220A23CDE90076029400F0FA
:1013B00039FB062000F046FB462000F09FFE062089
:1013C0000121FA220A23CDE900B6029400F02AFB9B
:1013D000062000F037FB532000F080FE062001219C
:1013E000FA220A23CDE90076029400F01BFB4FF4A9
:1013F000C87006F009FE072000F024FB55F82A000B
:101400000021CDE900060720FA220A23029400F009
:1014100009FB4FF4FA7006F0F7FD062000F012FB0E
:10142000504600F063FE522000F068FE58F82A0093
:101430000021CDE900060520FA220A23029400F0DB
:10144000F1FA06200121FA220A23CDE9009602943E
:1014500000F0E8FA062000F0F5FA5A2000F03EFE0F
:1014600006200121FA220A23CDE90076029400F039
:10147000D9FA062000F0E6FA462000F03FFE0620EA
:101480000121FA220A23CDE900B6029400F0CAFA3B
:10149000062000F0D7FA532000F020FE40F6AC50B2
:1014A000CDE9000606200121FA220A23029400F069
:1014B000B9FA062000F0C6FA072003B0BDE8F04FE5
:1014C00000F0C0BA41F22853C2F20003187041F292
:1014D0002950C2F20000017040F28020C2F20000E8
:1014E000006841F22A53C2F2000302211A7007F089
:1014F00079B841F20150C0F6000005F053B9000080
:101500002DE9F04F81B0B0F80120B0F80310037856
:1015100041F22850C2F200000078012B08BF0128D8
:1015200006D0102B08BF022877D001B0BDE8F08F9D
:1015300042F25250C2F200000078002800F09E8073
:101540000128F2D142F2546542F25650C2F200052F
:10155000A2F1AF03C2F20000B5F800C042F250663B
:1015600042F25267038042F258501FFA82FEC2F2E2
:101570000006C2F20007A1F16E0BC2F20000BEEB42
:101580000C0442F2566A32803980A0F800B048BF9D
:101590006442042CC2F2000A00F20881BAF800800A
:1015A0001FFA81F9B9EB080448BF6442042C00F229
:1015B000FD8042F25454C2F200042578022D04D872
:1015C00005F10105257040F0F98019B283EAE13296
:1015D000A2EBE13189B23D4634460A2900F2B480DB
:1015E0000FFA8BF18BEAE132A2EBE13189B20A29E1
:1015F00000F2AA8040F21050C2F200000068002100
:101600000222002307F02AFE40F28020C2F20000EE
:101610000068022106F08CFFC6E042F25060C2F280
:101620000000028042F25260C2F2000001808A3A59
:1016300042F2565013B2C2F20000028082EAE33254
:10164000A2EBE332A1F16C0042F2585192B2C2F225
:101650000001012A088055D801B280EAE130A0EBF0
:10166000E13080B201284DD842F25454C2F2000455
:10167000207802284FD80130207060E042F250609C
:10168000C2F20000028042F25260C2F20000018009
:10169000A2F1AF0042F2565302B2C2F20003188028
:1016A00080EAE230A0EBE23080B242F258531E28CA
:1016B0004AF65010A1F16E01C2F20003C0F600001C
:1016C000198000F283800AB281EAE231A1EBE231B3
:1016D00089B21E297AD840F21050C2F20000006888
:1016E00000210222002307F0B9FD40F28020C2F25F
:1016F00000000068022106F01BFF4AF65010C0F6F9
:10170000000063E042F25450C2F200000021017078
:1017100004F09DF913E040F21050C2F2000000689E
:10172000002102220023002507F098FD40F28020CE
:10173000C2F200000068022106F0FAFE25704AF6A7
:101740003110C0F6000041E00CEB0E00FEF7A9FFDF
:101750009FED210B56EC107B3A463346FEF7A5FE73
:101760009FED1F0B53EC102BFEF7F8FDFEF7B7FFB4
:1017700042F25651C2F20001088008EB0900FEF760
:1017800090FF3A463346FEF790FE9FED170B53EC61
:10179000102BFEF7E3FDFEF7A2FF42F25851C2F212
:1017A0000001088004F053F926462F4642F25450B7
:1017B00032883988C2F200000023037042F254607C
:1017C000C2F200000280AAF8001009A001B0BDE832
:1017D000F04F00F0FFBC00BF000000000000E03F41
:1017E0000000000000E065C00000000000805BC059
:1017F0004150505F4D41495843414D5F50617273B4
:10180000655F424C4F425F43616C0D0A000000006F
:10181000B0B542F25055C2F2000514462A7842B9DA
:1018200003F04CFA0120287042F25250C2F200003C
:10183000047003F0C9F930B1002164202970BDE8BB
:10184000B04006F0E1BBB0BDB0B540F27825C2F2C1
:1018500000052A78002A60D10C46411E072915D8B8
:10186000DFE801F0042D5B3F5B5B5B1D9FED380BF8
:101870009FED3B1BB0EE402AB0EE403AF0EE602AFE
:10188000F0EE603A03F04FFD204627E0102845D0E7
:10189000202842D19FED2E0B9FED2F2B42E09FED94
:1018A0002C1B9FED2F0BB0EE412AB0EE413AF0EE2B
:1018B000612AF0EE613A03F036FD604220E09FEDD0
:1018C000240B9FED291BB0EE402AB0EE403AF0EE1B
:1018D000602AF0EE603A03F026FD604205F0D8F988
:1018E00010E09FED1B1B9FED200BB0EE412AB0EEE8
:1018F000413AF0EE612AF0EE613A03F014FD204621
:1019000005F0A2F9012808D101242C7006F0BBF9DA
:1019100040F24050C2F200000460B0BD9FED0C0BDD
:101920009FED092BB0EE401AB0EE403AF0EE601A8F
:10193000F0EE603A03F0F7FC40F26450C2F20000AF
:101940000068A042E0D0E8E70000000000C072C0DC
:1019500000000000000000000000000000C0724015
:101960000000000000407F400000000000407FC0F9
:1019700080B50138052888BF80BDDFE800F0032F5F
:1019800015220C33022040F69801FFF75DFF04207A
:1019900041F2A86133E0082042F2C421FFF754FF6E
:1019A00002204FF4616114E0082041F29411FFF726
:1019B0004BFF2020B421FFF747FF012044F27401C0
:1019C0001DE0082041F6A471FFF73EFF02204FF40E
:1019D000FA51FFF739FF10205A2110E0042042F29B
:1019E00060210CE0022044F26821FFF72DFF08205F
:1019F00042F24861FFF728FF022040F2DC51BDE8C7
:101A00008040FFF721BF80B50120002100F03DFD9F
:101A10000220002100F039FD03200021BDE88040B4
:101A200000F033BD10B584B0DDE906CE089CCDE9E9
:101A300000CE029400F0F8FC0A2004B0BDE810408B
:101A400006F0E2BA05F006B880B582B040F2A030E8
:101A5000C2F20000002100688DF807100DF10701A7
:101A6000002207F091F9012809D19DF8071042F2F0
:101A70004E60C2F20000017002A000F0ABFB02B0A9
:101A800080BD00BF735F7563537461747573203AD2
:101A90002025640D0A000000F0B58BB003A82021BA
:101AA000FEF719FC40F20130ADF8080040F20120C9
:101AB00042F24E66C0F20320C2F200060190307876
:101AC00000212928009100F20A82DFE810F00601C7
:101AD000BB004801EE00A300D30060010802080229
:101AE000080272010802080208020802080208023D
:101AF000080208020802BE012A002A002A00080281
:101B00000802080208020802080281006C000D01A8
:101B1000080208020802080208020802080222015C
:101B2000E20140F27921C2F200010978002918BFD0
:101B300003301538C4B24AF21670C0F600002146D0
:101B400000F048FB01A8015D01200022FFF7BAFC6C
:101B50006D4600204FF0FF312A464FF0FF3307F06B
:101B6000C9FC4AF69200C0F60000214600F032FBA4
:101B700000204FF0FF312A464FF0FF3307F0BAFC48
:101B800030780321172838BF411CC8B203283170B0
:101B900040F0A58140F28020C2F2000000680221DE
:101BA00006F0C6FC9BE14AF27D70C0F6000000F032
:101BB00011FB6A4600204FF0FF314FF0FF3307F072
:101BC00099FC202030704AF29C70C0F6000084E13D
:101BD0004AF2F370C0F6000000F0FCFA0220022185
:101BE0000122FFF76FFC6A4600204FF0FF314FF0F3
:101BF000FF3307F07FFC40F28020C2F20000006853
:101C0000022106F095FC1F2030704AF61000C0F645
:101C1000000062E14AF2EC50C0F6000000F0DAFA8F
:101C20000420FFF7A5FE6A4600204FF0FF314FF079
:101C3000FF3307F05FFC282030704AF21360C0F6D3
:101C400000004AE14AF65F00C0F6000000F0C2FA68
:101C50000120FFF78DFE6A4600204FF0FF314FF064
:101C6000FF3307F047FC0A2030704AF67900C0F6CF
:101C7000000032E14AF28060C0F6000000F0AAFAEB
:101C80000520FFF775FE6A4600204FF0FF314FF048
:101C9000FF3307F02FFC40F27920C2F2000001214F
:101CA000017014203070A1A017E14AF23960C0F62B
:101CB000000000F08FFA0320FFF75AFE6A4600206A
:101CC0004FF0FF314FF0FF3307F014FC1E2030704F
:101CD0004AF25D60C0F60000FFE04FF4FA700BB00E
:101CE000BDE8F04006F090B94AF2DB60C0F60000B3
:101CF00000F070FA6A4600204FF0FF314FF0FF33DA
:101D000007F0F8FB042030704AF2F960C0F60000DA
:101D1000E3E04AF2BA70C0F6000000F05BFA40F26D
:101D20008024C2F200042068022106F05BFC02203D
:101D300002210122FFF7C6FB6A4600204FF0FF3167
:101D40004FF0FF3307F0D6FB2068022106F0F0FBCE
:101D5000292030704AF2D770C0F60000BDE04AF288
:101D6000A460C0F6000000F035FA0220FFF700FE84
:101D70006A4600204FF0FF314FF0FF3307F0BAFB07
:101D8000142030704AF2C060C0F60000A5E055A0F3
:101D900000F020FA0620FFF7EBFD6A4600204FF026
:101DA000FF314FF0FF33002407F0A4FB56A034703E
:101DB00093E040F27A25C2F20005287838B94AF259
:101DC0003370C0F6000000F005FA0120287003AC63
:101DD000204603F037FC002800F081804AF6B50069
:101DE000C0F60000214607F0ABFD002001A900224B
:101DF000D3B2E35C2B2B08BF0132D3B2E35C0132D8
:101E0000303B0B5401300628F2D103A803F078FDD3
:101E100040F21050C2F200000068002102220023AC
:101E20000224002707F01AFA6A4600204FF0FF311B
:101E30004FF0FF3307F05EFB4AF24970C0F6000036
:101E4000347000F0C7F92F7049E04AF62C00C0F654
:101E5000000000F0BFF940F27920C2F200000078E3
:101E60000221002818BF052101A8415C01200122A0
:101E7000FFF728FB6A4600204FF0FF314FF0FF3399
:101E800007F038FB152030704AF64600C0F6000017
:101E900023E04AF25E70C0F6000000F09BF940F2C9
:101EA0007924C2F20004207801AB60F3000360F3F0
:101EB000410319785A789B78FFF70BF86A4600209F
:101EC0004FF0FF314FF0FF3307F014FB207805216E
:101ED000002818BF062131701DA000F07BF90BB05F
:101EE000F0BD00BF454E5445522053544154555304
:101EF0005F50726F536563417265615F325F537407
:101F00006172740D0A000000455849542053544131
:101F10005455535F50726F536563417265615F3210
:101F20005F53746172740D0A0000000045584954F3
:101F3000205354415455535F50726F53656341723F
:101F400065615F325F526177417265610D0A000021
:101F500045584954205354415455535F50726F5360
:101F6000656341726561506C6163650D0A00000034
:101F700082B040F2802441F2285841F2295741F2C0
:101F80002A56C2F200044FF0FF35C2F20008C2F236
:101F90000007C2F2000600BF2068022100220023D1
:101FA000009506F06DFB8007F6D598F800003978AB
:101FB0003278FFF72DFCEFE740F27C244AF66E15ED
:101FC000C2F20004C0F600050FF2D40A0FF2DC0BD7
:101FD00039A63CA70FF2F8084FF0000940F29C30F8
:101FE000C2F20000006821464FF0FF3206F0CCFE3E
:101FF000284600F0EFF8216822A000F0EBF82068F6
:10200000017824A000F0E6F820684168504600F00E
:10201000E1F82068017A584600F0DCF82068C168D1
:10202000304600F0D7F82068017C384600F0D2F83E
:1020300020684169404600F0CDF8284600F0CAF813
:102040002068416839B10078FFF7FEFB206880F80E
:102050000090C0F80490C16839B1007AFFF7F4FB32
:10206000206880F80890C0F80C9041690029B5D02C
:10207000007CFFF7E9FB206880F81090C0F814900E
:10208000ACE700BF414444523A20253034580D0A91
:1020900000000000446972583A2025640D0A0000CF
:1020A000506F73583A2025640D0A00004469725934
:1020B0003A2025640D0A0000506F73593A202564B8
:1020C0000D0A0000446972523A2025640D0A00008E
:1020D000506F73523A2025640D0A000080B503F05A
:1020E00039FC6420BDE8804005F08EBF80B503F068
:1020F00043FC6420BDE8804005F086BF80B503F056
:1021000051FC6420BDE8804005F07EBF70470000B0
:1021100082B040F28024C2F200042068012106F05F
:1021200061FA4FF0FF3500BF206801210022002333
:10213000009506F0A5FAC007F6D0FEF7A1FE0A202A
:1021400005F062FFF0E7FEF7ABBE0000322003F0BF
:1021500051FC18B14FF4967005F056FF142005F0AD
:1021600053FFF3E782B042F2606540F240564FF60B
:10217000E044C2F20005C2F2000601274FF0000859
:102180004FF01409CFF6FF74FFF75EFCFFF784FCF5
:102190002868012809D048B920460021322214239A
:1021A000CDE9009803F08CFC2F6037600A2005F021
:1021B0002BFFE9E7FFF7DCBEFFF7FEBE05F022FECE
:1021C00004F0EEF804F0CAF905F03EFE0A2005F02E
:1021D0001BFFF3E783B0B0B5ADF5037D844687A858
:1021E0000DF10B040EC087AB204640F20121624680
:1021F000019307F0C9FB40F28C35C2F20005286854
:102200004FF0FF3104F0EFFE06A0214607F098FBE7
:10221000286804F043FF0DF5037DBDE8B04003B02E
:10222000704700BF257300002DE9F04782B00025FC
:102230000DF1070100208DF8075004F01BFC002869
:102240003FD042F24C6640F21C2741F22058C2F2C5
:102250000006C2F20007C2F200080DF107044FF0B9
:1022600001094FF0000A00BF307898B138783E2855
:102270001AD89DF807107B7A78683A78994215D178
:102280008554D8F80020AAB13978904735704FF0BE
:10229000010A0FE09DF807007978884204BF86F8AC
:1022A00000903D7006E000BF357003E0531C3B70AA
:1022B000815400BF0020214604F0DCFB0028D3D16C
:1022C00001E04FF0000A5FFA8AF002B0BDE8F08743
:1022D000FEE740F26850C2F2000000F03DBAB0B52F
:1022E00040F2685440F2AC35C2F20004C2F200057C
:1022F00040F2A433C2F20003204600212A4600F037
:102300009AF92868A0F20121032910D80138C1B236
:10231000C90051FA80F040F60041C2F2000101EB21
:10232000800040F2A431C2F2000104F00FFD2068E9
:10233000416941F002014161B0BD40F29050C2F2EA
:10234000000000F009BAB0B540F2D03540F2C83410
:1023500040F29050C2F20005C2F20004C2F2000046
:1023600000212A46234600F066F900B1B0BD40F2D4
:102370004550C2F2000000786968B0EB112F0ED111
:102380002078FD280BD160789F2808D1A0786B2891
:1023900005D140F24450C2F200000121017040F228
:1023A000D030C2F200001C21FDF795FFB0BD40F215
:1023B0007860C2F2000000F069BC40F6B800C2F2DA
:1023C000000000F063BC40F2B850C2F2000000F020
:1023D0005DBC40F61810C2F2000000F057BC40F29D
:1023E0001860C2F2000000F051BC40F2F870C2F276
:1023F000000000F04BBC40F65800C2F2000000F0B4
:1024000045BC40F2D860C2F2000000F03FBC40F290
:102410003870C2F2000000F039BC40F29870C2F28D
:10242000000000F033BC7047B0B584B0DDE9084E61
:102430008DF80000FD208DF80100100A8DF80300D2
:10244000200E8DF80600200C8DF80700200ADDF81C
:1024500028C08DF808006B2000258DF802108DF83B
:102460000C0068460D218DF80F50ADF80D508DF819
:1024700004208DF805308DF809408DF80AE08DF8BC
:102480000BC004F053FA04B0B0BD80B584B08DF831
:10249000000049F6FE00ADF801006B2000228DF827
:1024A00003108DF80400684605210392CDF8092039
:1024B000CDF8052004F03AFA04B080BD72B600BF32
:1024C000FEE710B590F820E0D0F800C0AEF1010EA4
:1024D000BEF1010FDCF808E011D81EF0E05F14D067
:1024E000CEF301640120A04018608B689BB1D1F845
:1024F00004E0C86840EACE0040EA030E0FE000F1B5
:10250000240301204FF4802121E000F12403012065
:102510004FF400111BE00868CB6843EA405E0CF5FD
:10252000C07000EB0413240140F804E00C69184665
:1025300040F8044F097D012903D1016841F48071FD
:10254000016050680121D8601068986000201A6806
:102550001143196010BD90F82020013A012A30D8AB
:10256000B0B546F20060C4F20000026842F0010219
:102570000260026822F47C520260D1F814E0CC6957
:102580004A6A0368012C43EA022202600EF01F022D
:102590004FF0010303FA02F2C3696FEA020C23EA67
:1025A0000203C36113D02CBBC36803EA0C03C360EE
:1025B000CB688C8844EA034300EBCE0423640B46CB
:1025C00011E0416A41F48021416201207047C368F3
:1025D0001343C3600B688C8844EA034300EBCE04CA
:1025E000236401F10C038C681B8843EA044300EB6D
:1025F000CE04636443688D6943EA0204D1F810E0B5
:10260000096A002D08BF03EA0C0444604369BEF167
:10261000000F43EA020408BF03EA0C0401294461E5
:1026200002D1C1691143C161016821F0010101605A
:102630000020B0BD7047B0B590F82040013C012C9F
:102640007AD8D0F800C000290CBFDCF80C40DCF8C8
:102650001040A40776D00CF5D8754FEA011C55F848
:102660000C4014F00404946055F80CE005EB011CD8
:1026700019BF4FEADE0555604FEA5E551560DCF87C
:102680000050E64605F00205D5605EF8044F2407C9
:102690005ABFDEF8004004F00F0408241461DEF88D
:1026A00000400029C4F307249461DEF800504FEA8B
:1026B00015455561DCF808201A70026802EB01121A
:1026C000D2F8B8214FEA12225A70026802EB0112C6
:1026D000D2F8B8214FEA12429A70026802EB011256
:1026E000D2F8B8214FEA1262DA70026802EB0112E6
:1026F000D2F8BC211A71026802EB0112D2F8BC2197
:102700004FEA12225A71026802EB0112D2F8BC2180
:102710004FEA12429A71026802EB0112D2F8BC2110
:102720004FEA1262DA7100680CBF00F10C0100F18F
:102730001001002020220AE000F1240101204FF4C2
:10274000802204E000F1240101204FF400120B6804
:102750001A430A60B0BD00002DE9F04F81B0044675
:1027600000684669D0F804908768D0F80CB0D0F8BB
:1027700010A0D0F81880F10701D1002549E0F90731
:102780000ED00121BA07816007D478071DD438071D
:1027900021D4204600F020FA02E0204600F01DFA85
:1027A0000025F8051CD520684FF48071BA058160BA
:1027B00007D478050CD4380510D4204600F00EFA62
:1027C0000EE0204600F00BFA0AE04FF40065E8E75F
:1027D00005F5005504E04FF48055E2E705F5804526
:1027E000F80316D520684FF48031BA03816007D40E
:1027F000780309D438030AD4204600F0F1F908E040
:10280000204600F0EEF904E005F5004501E005F58D
:102810008035300707D51BF0100004D0206845F440
:1028200000751021C160700708D51BF0080005D0A5
:1028300020680821C160204600F08CF9B00706D559
:102840002068C068800702D0204600F084F9700636
:1028500007D51AF0100004D0206845F480651021D7
:102860000161B00608D51AF0080005D020680821DB
:102870000161204600F080F9F00606D52068006965
:10288000800702D0204600F078F9B00308D519F08F
:10289000100005D0206810214160204600F06EF93C
:1028A000F00308D519F0080005D020680821416020
:1028B000204600F097F9300440D55FEA49703AD5D8
:1028C00006F4807008EA102028435FEA8871014608
:1028D00048BF41F00201B20558BF01465FEA4870A7
:1028E0000D4648BF45F00405700558BF0D4630053C
:1028F00021D518F070001ED010380009052815D811
:10290000DFE800F0030F090C061245F008050DE0A2
:1029100045F080050AE045F0200507E045F0400558
:1029200004E045F0100501E045F4807520688169F8
:1029300021F0700181612068042141604DB1606A1D
:1029400040EA05012046616201B0BDE8F04FFFF7A3
:1029500071BE01B0BDE8F08FD0B1B0B5044690F8BB
:10296000200010B9204600F06FF82068016841F09F
:102970000101016000F02CFC054600BF20684168A1
:10298000C90707D100F024FC401B0B28F6D312E046
:1029900001207047016821F00201016000F018FC7D
:1029A000054600BF2068416889070BD500F010FC80
:1029B000401B0B28F6D3606A052140F400306062AA
:1029C00001203EE0217E0268012922F0800208BF3A
:1029D00080320260617E0268012922F0400208BF55
:1029E00040320260A17E0268012922F0200208BF65
:1029F00020320260E17E0268012922F0100218BF35
:102A000010320260217F0268012922F0080208BF0B
:102A100008320260617F0268012922F0040208BFC7
:102A200004320260D4E901C2D4E9033561691A4372
:102A30002A431143ACF101021143C161002001217D
:102A4000606284F82010B0BD10B586B0044601A8BD
:102A50001421FDF740FC206846F60001C4F2000195
:102A600088422ED046F20041C4F2000188426FD164
:102A700040F28421C2F200010A6843F63000C4F239
:102A80000200531C0B6052B900210091016941F012
:102A900000710161016901F000710091009900214C
:102AA00000910168142441F00101016000684FF4B5
:102AB000C05100F00100009000980020C4F2020014
:102AC00032E043F630000021C4F2020000910269B6
:102AD00042F080620261026902F080620092009A14
:102AE00040F28422C2F2000213685C1C14604BB9ED
:102AF0000091026942F000720261026902F0007204
:102B00000092009A00910168402441F002010160A6
:102B100000684FF4405100F002000090009800203F
:102B2000C4F2020000F580600191022102910021AF
:102B30000391032104910921059101A900F072FA82
:102B400020460521002200F0FAFB204600F0E7FBBA
:102B500006B010BD704740F26851C2F200018842D1
:102B600008BFFFF7BCBB40F29051C2F2000188429F
:102B700018BF7047FFF7E7BB70477047704700000A
:102B8000B0B5044690F8200001281CD1022084F83A
:102B900020002068016821F00101016000F018FBAD
:102BA000054600BF20684068C00712D000F010FB47
:102BB000401B0B28F6D3606A40F4003060620520A9
:102BC00084F8200003E0606A40F400206062012085
:102BD000B0BD00206062B0BD70477047704770475D
:102BE000704770477047000070B5866D044600F06E
:102BF000EFFA94F83510022925D105462068216C9A
:102C0000026822F016020260426922F080024261EC
:102C100009B9A16C19B1016821F0080101600168CE
:102C200021F00101016000BF20680068C0070ED0DC
:102C300000F0CEFA401B0628F6D320206065032062
:102C400084F835000CE080206065012008E0E06D2C
:102C50003F2101FA00F0B060012084F83500002027
:102C6000002184F8341070BD90F83510022909D184
:102C7000052180F835100068016821F0010101602C
:102C8000002070478021416501207047F0B581B078
:102C900004460020009040F21820C2F200000268B2
:102CA000D4E9166048F2B51337680821C1F64E33EF
:102CB00081403942A2FB03250CD0226813685B07D0
:102CC00008D5136823F004031360B160616D41F00F
:102CD0000101616501218140394208D022685269B1
:102CE000120604D5B160616D41F0020161650421F5
:102CF0008140394208D022681268920704D5B16039
:102D0000616D41F00401616510218140394217D0A5
:102D100020680268120713D5B16002680168520387
:102D200006D4C90506D4016821F00801016001E05C
:102D3000080301D4216C00E0A16C09B1204688474A
:102D4000E16D202000FA01F23A423CD0206803688D
:102D5000DB0638D5B26094F835300268052B1AD1FD
:102D600022F016020260426922F080024261226C67
:102D70000AB9A26C1AB1026822F0080202603F2070
:102D80008840B060012084F83500216D002084F86F
:102D90003400B9BB3BE0016852030CD4C9050ED422
:102DA000016821F010010160012084F83500002045
:102DB00084F8340003E0080301D4616C00E0E16BA7
:102DC00009B120468847606D08B3606DC00717D011
:102DD000052084F835002068A90A026822F0010263
:102DE000026000BF009A01328A42009202D8026853
:102DF000D207F7D1012084F83500002084F8340090
:102E0000E16C21B1204601B0BDE8F040084701B0B7
:102E1000F0BD00002DE9F041044600F0D9F9C4B13D
:102E20000546022084F835000020216884F834002B
:102E3000086820F00100086021680868C0070BD00E
:102E400000F0C6F9401B0528F6D9032520230320EE
:102E500064E00120BDE8F081086848F23F02CFF24B
:102E60001002D4E9013500EA020C04F10C0898E8DC
:102E7000C10143EA0C032B431843D4E9072E304326
:102E800038431043626A40EA0E00042A40EA08030D
:102E90001CD1206BD4E90A2E40EA0E0018430860CA
:102EA0004869BEF1000F20F0030040EA020040F044
:102EB000040C11D0B8F5005F35D0B8F1000F42D145
:102EC000022A43D0012A38D0002A3EE00B6048692C
:102ED00020F0070040EA020C01F0F8004AF6AB22AD
:102EE0001038CAF6AA22A0FB02231A094AF22C5370
:102EF000C1F814C0C0F600039A5C40F2FF335F28AB
:102F00004FF03F0021EA030100FA02F088BF0431CC
:102F1000C4E916128860002301250020636584F847
:102F20003550BDE8F081032AD6D801254023012081
:102F3000DFE802F0020C0203F0E7AEF1C070B0FA75
:102F400080F0400904E0032A04D3C5D1CEF3006029
:102F50000028C1D0012540230120DFE790F834C0CC
:102F6000BCF1010F04BF0220704770B54FF0010C97
:102F700080F834C0D0F858E090F835C0BCF1010FAB
:102F800037D14FF0020C80F835C04FF0000CC0F87C
:102F900054C0D0F800C08468056CC06DDCF80060D7
:102FA000402C26F48026CCF80060CCF804300B4688
:102FB00004BF13460A463F2101FA00F0CCF808305E
:102FC000CCF80C20CEF80800DCF8000040F0160029
:102FD000CCF800002DB1DCF8000040F00800CCF87F
:102FE0000000DCF8000040F00100CCF800000020F8
:102FF00070BD002180F83410022070BDB0B50446C9
:1030000000F0E6F8054640F24820C2F200000078E1
:10301000611C18BF044400BF00F0DAF8401BA04256
:10302000FAD3B0BD2DE9F04F83B000F1200200F1DA
:103030003E4741F60045009207F1FF77C4F20205D2
:1030400008224FEAB726A84208BF072200254FF002
:1030500000084FF00009072E38BF4FEAB72201924F
:103060000F68012202FA09FE17EA0E0A00F09980A1
:10307000D1F804C003220CF003077E1E02FA08F404
:10308000012E6FEA040B11D88468CE6804EA0B04A1
:1030900006FA08F634438460446824EA0E06CCF34A
:1030A000001404FA09F42643466003E0032F01D11B
:1030B00003271EE0C6688C6806EA0B0604FA08F4CB
:1030C0002643022FC66014D16FF00302009E02EA6D
:1030D000590756F807C005F01C040F220B69A240DF
:1030E0002CEA0202A3401A43F251D1F804C00CF0BA
:1030F0000307026807FA08F302EA0B021A431CF4FA
:10310000403F02604DD0002243F644030292C4F2D5
:1031100002031A6843F6004442F480421A601A68B7
:10312000C4F2010402F480420292029A29F00302DE
:103130004FF6084C2244CFF6FF7C52F80C3005F0D5
:103140000C070F26BE40B343019E06FA07F73B4328
:1031500042F80C30A2684B6842EA0A0743F60C4C6E
:10316000DE0258BF22EA0A07A760C4F2010CDCF8AD
:1031700000209E0242EA0A0758BF22EA0A07CCF85A
:10318000007062689E0342EA0A0758BF22EA0A07F3
:1031900067602268DB0342EA0A0758BF22EA0A078F
:1031A000276009F1010908F10208B9F1100F05F1D2
:1031B00004057FF455AF03B0BDE8F08F0069084007
:1031C00018BF01207047002A08BF090481617047B9
:1031D00049F69C30C2F200000068704740F2482077
:1031E00049F69C31C2F20000C2F2000100780A6880
:1031F00010440860704780B543F60040C4F20200F6
:10320000016841F400710160016841F4806101606E
:10321000016841F480710160032000F0BBF80F20C9
:1032200000F004F800F05AF8002080BD70B586B0B8
:10323000002543F640010195C4F202010A680446E4
:1032400042F020020A60096801A801F02001019102
:103250000199694600F057F9049E002E18BF012617
:1032600000F070F94DF68361B040C4F21B31A0FB51
:1032700001014FF0FF3000EB914140F6C01041F2E8
:103280000042C2F20000C4F2000240F2E733C0E99B
:103290000021C0E902530561856100F0BAFB0546D3
:1032A000C8B940F6C010C2F2000000F0F8FB0546B5
:1032B00088B9372000F033F80F2C0BD8372021467F
:1032C0000022002500F03BF840F24C20C2F2000042
:1032D000046000E00125284606B070BD82B00020E1
:1032E00043F640010190C4F202014A6842F4804270
:1032F0004A604A6802F480420192019A009008688C
:10330000002240F08050086008680F2100F08050D3
:10331000009000986FF0010002B000F010B8002893
:103320000CD400F01F01012202FA01F11C2202EA72
:10333000D0004EF20012CEF200028150704710B55C
:103340004EF60C5CCEF2000CDCF80030C3F3022E1B
:103350008EF00704042C28BF0424BEF103034FF0B1
:10336000FF3E0EFA04F438BF0023A14399400EFA41
:1033700003F39A43114300F00F0200F16043090187
:10338000043A03F564436244002848BF02F10C0389
:10339000197010BD4EF60C51CEF200010A684FF6BE
:1033A000FF031A4060F30A2242F0806040F0FD7093
:1033B00008607047002872D02DE9F04143F60008FC
:1033C000C4F202080446D8F800040D4600F00700D5
:1033D000884207D288F80054D8F8000400F00700AB
:1033E000A84266D12068810717D5410705D5D8F8CE
:1033F000081041F4E051C8F80810010705D5D8F8C5
:10340000081041F46041C8F80810D8F80810A26804
:1034100021F0F0011143C8F80810C00741D1D8F8D5
:10342000000400F00700A84207D988F80054D8F833
:10343000000400F00700A8423BD12068410707D5EF
:10344000D8F80810E26821F4E0511143C8F80810D8
:10345000000708D5D8F80800216920F4604040EA48
:10346000C100C8F8080000F093F8D8F808104AF234
:103470007832C1F30311C0F60002515C40F2182209
:1034800020FA01F140F24C20C2F200000068C2F2C2
:1034900000021160FFF7CAFE0020BDE8F0810120A4
:1034A00070476068811E022906D2D8F80010890191
:1034B00008D40120BDE8F08101281FD1D8F8001000
:1034C0008903F6D5D8F8081021F003010843C8F89D
:1034D0000800FFF77DFE064641F28837D8F808005D
:1034E000616800F00C00B0EB810F98D0FFF770FE20
:1034F000801BB842F2D90320BDE8F081D8F8001053
:103500008907D6D5DEE70F22026043F60802C4F22F
:103510000202136803F003034360136803F0F0032F
:103520008360136803F4E053C360D2F800C04FF423
:10353000E05303EADC030361D2F8F80300F007006C
:103540000860704740F2182043F60801C2F20000FC
:10355000C4F20201006809684AF28832C1F382218C
:10356000C0F60002515CC840704740F2182043F694
:103570000801C2F20000C4F20201006809684AF2C0
:103580008832C1F34231C0F60002515CC840704736
:1035900010B543F60404C4F20204606800F00C01A4
:1035A00042F200400829C0F2F40007D0042918BFF5
:1035B00010BD41F20020C0F27A0010BD216801F078
:1035C0003F02216823684902C3F3881105D4A1FB97
:1035D00000010023FCF704FE06E041F20020C0F2E7
:1035E0007A004843B0FBF2F021680222C1F30141A6
:1035F00002EB4101B0FBF1F010BD000000286BD0E0
:103600002DE9F04182B00446007843F60006C00779
:10361000C4F202060CD0B06800F00C00042840F0A0
:1036200098803068800303D56068002800F0AB8084
:10363000207880071BD5B06810F00C0F09D0B06857
:1036400000F00C00082840F0A0807068400200F1F3
:103650009C803068800703D5E068012840F09380A3
:103660003068216920F0F80040EAC100306020781D
:10367000000733D42078400745D4A56955B3B06816
:1036800000F00C00082840F0B980012D7BD0706854
:10369000E16900F480028A4275D1216A00F03F029C
:1036A0008A4270D147F6C071626A0140B1EB821F55
:1036B00069D1A16A4FF6FF73C903994300F4403200
:1036C000A1F580318A425ED1E16A00F07060B0EB12
:1036D000016F58D10020F3E0012070476069002895
:1036E00078D00020C4F247200121C0F8801EFFF7E7
:1036F0006FFD0546706F8007BCD4FFF769FD401B66
:103700000228F7D9DBE0306C5FEAC0080AD4002059
:103710000190306C40F080503064306C00F080508C
:103720000190019847F20007C4F200073868C0050D
:1037300042D4386840F480703860FFF749FD054690
:103740003868C00538D4FFF743FD401B0228F7D97D
:10375000B5E0B06800F00C00082803D170684002A2
:103760003FF55FAF61683068B1F5803F07D0B1F5D4
:10377000A02F40F08E8040F480203060306840F40C
:10378000803030608EE001209AE0E068002840F24E
:103790000000C4F2472053D001210160FFF718FD5B
:1037A000054600BF306880073FF55AAFFFF710FDB0
:1037B000401B0228F6D982E0A168306F012905D0AC
:1037C00005294FD140F004003067306F40F0010010
:1037D000306750E00020C4F247200021C0F8801E6E
:1037E000FFF7F6FC054600BF706F80077FF542AF1C
:1037F000FFF7EEFC401B0228F6D960E00027C4F278
:10380000472700203866FFF7E3FC022D05460BD161
:103810003068800157D5FFF7DBFC401B02284FF0D2
:103820000300F5D94CE000BF306880017FF552AF4E
:10383000FFF7CEFC401B02284FF00300F4D93FE015
:1038400000210160FFF7C4FC054600BF3068800717
:103850007FF50DAFFFF7BCFC401B02284FF00300C3
:10386000F4D92DE020F001003067306F002920F0FE
:103870000400306748D0FFF7ABFC054641F28837BB
:10388000306F800751D4FFF7A3FC401BB842F7D933
:1038900015E020F4803030603068002920F480206A
:1038A00030604BD0FFF794FC054600BF30688003C2
:1038B0003FF5BEAEFFF78CFC401B6428F6D9032011
:1038C00002B0BDE8F08104F11C052FCD084340EAA9
:1038D0008210D9034FF6FF729143A1F5803140EA7F
:1038E00005600843706001203866FFF771FC0446EC
:1038F000306880013FF5EEAEFFF76AFC001B02283E
:103900004FF00300F4D9DBE7FFF762FC054641F214
:10391000883700BF306F800707D5FFF759FC401B81
:10392000B8424FF00300F5D9CAE7B8F1000F3FF5F0
:10393000A4AE306C20F0805030649EE6FFF748FC67
:10394000054600BF306880037FF572AEFFF740FC8C
:10395000401B64284FF00300F4D9B1E7704770476B
:1039600090F83C20012A4FF0020250D010B580F8A8
:103970003D200268D2F804E0D2F808C00C682EF0AE
:103980007003234341F2FF74C4F20004A242536067
:103990000BDC40F2FF73C4F200039A4213DCB2F175
:1039A000804F27D040F2004315E040F2FF33C4F2CD
:1039B00001039A4212DC41F60003C4F200039A426A
:1039C00018D0002312E040F60003C4F200039A422C
:1039D00010D040F60043C4F2000309E044F20003B3
:1039E000C4F201039A4205D040F20043C4F201033D
:1039F0009A4204D149682CF0800319439160012157
:103A0000002280F83D1080F83C20BDE810401046B0
:103A1000704740B310B5044690F83D0028B9002027
:103A200084F83C00204600F020F8022084F83D0095
:103A30002068211D02F00EF9012084F8460084F868
:103A40003E0084F83F0084F8400084F8410084F888
:103A5000420084F8430084F8440084F8450084F868
:103A60003D00002010BD01207047006840F60001B5
:103A7000C4F20001884218BF704781B00020009056
:103A800043F64000C4F20200016841F00401016005
:103A9000006800F004000090009801B0704790F8B2
:103AA0003D1001291CBF01207047022180F83D1004
:103AB000006841F2FF72C168C4F20002904241F016
:103AC0000101C1600BDC40F2FF71C4F200018842C9
:103AD00013DCB0F1804F27D040F2004115E040F2F6
:103AE000FF31C4F20101884212DC41F60001C4F248
:103AF0000001884218D0002112E040F60001C4F213
:103B00000001884210D040F60041C4F2000109E0F3
:103B100044F20001C4F20101884205D040F20041A4
:103B2000C4F20101884204D1816801F0070106292D
:103B300003D0016841F0010101600020704790F856
:103B40003C20012A4FF002026BD080B580F83D2066
:103B5000D0F800C04FF67772DCF8083023EA020292
:103B6000CCF808200B684F2B28DC1F2B44DD202BC2
:103B700045D0302B43D0402B40F0AC80D1F804E04E
:103B8000C968DCF82030DCF8202022F00102CCF8F3
:103B90002020DCF8182022F0F00242EA011123F084
:103BA0000A0242EA0E02CCF81810CCF82020DCF809
:103BB000081041F0470121F0300127E06F2B32DD82
:103BC000B3F5005F73D0B3F5805F21D0702B40F068
:103BD0008180D1E901E3C968DCF8082043EA0E03DB
:103BE00022F47F4243EA01211143CCF80810DCF8AB
:103BF000081041F0770109E00BB1102B6AD1DCF815
:103C0000081021F07001194341F00701CCF80810A9
:103C10000022012180F83D10002180F83C10BDE811
:103C2000804010467047502B21D0602B52D1D1F8E4
:103C300004E0C968DCF82030DCF8202022F0100213
:103C4000CCF82020DCF8182022F4704242EA01313E
:103C500023F0A00242EA0E12CCF81810CCF8202073
:103C6000DCF8081041F0670121F01001CEE7D1F82F
:103C700004E0C968DCF82030DCF8202022F00102E2
:103C8000CCF82020DCF8182022F0F00242EA0111E2
:103C900023F00A0242EA0E02CCF81810CCF82020D9
:103CA000DCF8081041F0570121F02001AEE7D1E91E
:103CB00001E3C968DCF8082043EA0E0322F47F42DE
:103CC00043EA01211143CCF80810DCF8081041F454
:103CD00080419BE701229CE7704770B5044600686D
:103CE000C5680669B10716D515F0020113D06FF04B
:103CF00002010161012121778069800703D02046FC
:103D0000FFF7EAFF05E0204600F0B5F8204600F096
:103D10002CF900202077700718D515F0040015D075
:103D200020686FF00401016102212177806910F49D
:103D3000407F03D02046FFF7CFFF05E0204600F08C
:103D40009AF8204600F011F900202077300717D5A7
:103D500015F0080014D020686FF0080101610421FB
:103D60002177C069800703D02046FFF7B5FF05E043
:103D7000204600F080F8204600F0F7F80020207779
:103D8000F00618D515F0100015D020686FF010015E
:103D9000016108212177C06910F4407F03D02046DB
:103DA000FFF79AFF05E0204600F065F8204600F096
:103DB000DCF800202077F00718BF15F0010006D0CE
:103DC00020686FF001010161204600F04EF93006D5
:103DD00009D515F0800006D020686FF080010161E0
:103DE0002046FFF7BBFD700609D515F0400006D050
:103DF00020686FF040010161204600F040F9B006F4
:103E000058BF70BD15F0200008D021686FF0200267
:103E100020460A61BDE87040FFF7A1BD70BDB0B596
:103E200086B0044640F6000501A81421C4F200053E
:103E3000FCF751FA2068A8421BD1002043F630015C
:103E40000090C4F202010A6842F008020A600968A0
:103E500001F00801009100994FF470410191022195
:103E6000CDE90210CDE9040105F5013001A9FFF704
:103E7000D9F806B0B0BD7047B0B5044690F83C0024
:103E8000012804BF0220B0BD0D464FEAB201012057
:103E9000032984F83C0037D8DFE801F002220A1A2F
:103EA0002068294601F06CFF206850F8181F06E0D2
:103EB0002068294601F0C9FF206850F81C1F41F016
:103EC00008010160016821F004010160296917E01F
:103ED0002068294601F0ECFF206850F81C1F06E01E
:103EE0002068294601F07DFF206850F8181F41F432
:103EF00000610160016821F48061016029690902A3
:103F00000268114301600020002184F83C10B0BD1C
:103F100040B310B5044690F83D0028B9002084F85D
:103F20003C00204600F020F8022084F83D00206884
:103F3000211D01F08FFE012084F8460084F83E0028
:103F400084F83F0084F8400084F8410084F842007F
:103F500084F8430084F8440084F8450084F83D0068
:103F6000002010BD0120704770477047A1B104299F
:103F700004D0082914BF4122402200E03F22825C85
:103F8000012A11D10222082910D0042914BF80F877
:103F9000412080F83F200BE090F83E20012A03D119
:103FA000022280F83E2003E00120704780F8402084
:103FB000006801F01F010122036A02FA01F123EAFD
:103FC00001020262026A114341F2FF72C4F200026E
:103FD000904201620BDC40F2FF71C4F200018842A2
:103FE00013DCB0F1804F35D040F2004115E040F2D3
:103FF000FF31C4F20101884214DC41F60001C4F231
:104000000001884226D0002114E040F60001C4F2ED
:10401000000188421ED040F60041C4F200018842EF
:1040200018D01CE044F20001C4F20101884211D012
:1040300040F20041C4F20101884210D1416C40F2CB
:10404000004340F48062C4F2010341F400419A420B
:10405000416404D1816801F00701062903D0016899
:1040600041F00101016000207047006841F2004109
:10407000C4F20001884218BF7047FFF7AFB870471D
:1040800070B582B0044690F84200202820D14FF04D
:104090000105F1B1EAB1002620462563666302F00E
:1040A000D9F8206B012814D101962068016801918C
:1040B00040680190019800BF206850E8030F216814
:1040C00040F0100041E80302002AF5D1002500E08D
:1040D0000225284602B070BD10B5044640F60820FF
:1040E000C2F2000084421BD040F65020C2F2000011
:1040F00084421AD040F69820C2F20000844219D0BF
:1041000040F6E020C2F20000844218D040F6283089
:10411000C2F20000844217D0FEF7D0F9002017E069
:1041200042F25C50C2F2000012E042F26C50C2F265
:1041300000000DE042F27C50C2F2000008E042F2C2
:104140008C50C2F2000003E042F29C50C2F2000028
:10415000E16B226809684968C1810189C389C91A6C
:1041600044F20043C4F200039A42418118BF10BDDB
:1041700042F26C54C2F200046068007804F0B4F9B2
:1041800002F0AAFC6168228940F65020C2F20000C9
:10419000BDE81040FFF774BF70470000B0B582B0B3
:1041A000044600680168C368426901F02F05202DAC
:1041B00003F0200506D12DB1204602B0BDE8B04085
:1041C00001F078BF5FEA017C1EBF02F0010E03F42C
:1041D000907212EB0E026ED1226BCD0643D5012AEE
:1041E00041D113F010023ED00021019101680191EC
:1041F0004168019101994069400600F1CB80A08D92
:10420000E18DE28D002A00F01581884200F01281D4
:10421000401A00BF216851E8031F226821F4907101
:1042200042E80313002BF5D1216851E8051F2268ED
:1042300021F0010142E80513002BF5D1202184F87B
:1042400042100021216300BF216851E8031F22684A
:1042500021F0100142E80313002BF5D1022281B2B4
:1042600020466263DCE00A0640F1828013F080029F
:1042700000F07E8094F84110212940F0DB80A16895
:10428000B1F5805F03D12169002900F0DB80216A4C
:104290004A1C226209784160E18C01390A04E184F8
:1042A00040F0C880C16821F08001C160C16841F060
:1042B0004001C160BEE0CA0718BF13F4807203D08A
:1042C000626C42F0010262644A0706D5BEF1000F3B
:1042D00003D0626C42F0020262648A0706D5BEF126
:1042E000000F03D0626C42F004026264BCF1000F64
:1042F00006D55EEA050203D0626C42F008026264F1
:10430000626C002A00F09680890604D51DB1204613
:1043100001F0D0FE20684069616C00F0400001F0BF
:104320000801401800F08180204601F09BFE2068C3
:104330004069400640F18080206850E8050F216800
:1043400020F0400041E80502002AF5D1E06B00288A
:1043500072D045F61771C0F600010165FEF784FCC6
:10436000002867D0E06B016D02B0BDE8B04008479F
:1043700049065FD513F040015CD0C16821F04001CF
:10438000C1602021204684F8411002B0BDE8B04051
:1043900000F0C4BBE06B016849688AB2002A49D0CA
:1043A000A38D9A4246D2E185C069B0F5807F30D0B6
:1043B000206850E8030F216820F4807041E8030270
:1043C000002AF5D1206850E8050F216820F001008F
:1043D00041E80502002AF5D1206850E8050F216860
:1043E00020F0400041E80502002AF5D1202084F8A1
:1043F00042000020206300BF206850E8030F2168BE
:1044000020F0100041E80302002AF5D1E06BFEF72E
:10441000EBFB02206063A08DE18D401A81B2204643
:1044200002B0BDE8B040FFF757BE2046FFF7B4FE2C
:104430000020606402B0B0BD204602B0BDE8B040CC
:10444000FFF7AABE216A31F8022B6FF35F224260A8
:10445000216221E758B310B5044690F8410028B90D
:10446000002084F84000204600F023F8242084F83F
:1044700041002068C16821F40051C160204601F06C
:104480007AFE2068016921F490410161416921F0BF
:104490002A014161C16841F40051C160002020211E
:1044A000606484F8411084F84210606310BD0120FC
:1044B00070472DE9F04F87B0044602A81421FBF79E
:1044C0000AFF206844F6FF71C4F20001884200F33D
:1044D000818044F20041C4F20001884200F0BE80B5
:1044E00044F60001C4F20001884200F0A58144F6C0
:1044F0000041C4F20001884240F07882002643F671
:1045000030000196C4F20200016946F2100841F43D
:10451000002101610169C4F2020801F40021019146
:1045200001990196016841F004010160006802A947
:1045300000F00400019001984FF4406002900220C6
:10454000CDE9030603200590082006900020C4F260
:10455000020000F50060FEF765FD40F2186508F105
:104560006000C2F200054FF000674021C5E9000776
:1045700005F108004FF4806980E8420205F114005B
:104580001421FBF7A8FE2846FEF744FC08B1FDF70E
:1045900095FFA563AC6340F2B85508F13000C2F254
:1045A00000054FF48071C5E900072846C5E9026699
:1045B000C5E90496C5E90661C5E90866FEF72AFC67
:1045C00008B1FDF77BFFE563AC63342000210022D6
:1045D000342406E245F20001C4F20001884200F0F2
:1045E000A68041F20001C4F20101884200F09081EE
:1045F00041F20041C4F20101884240F0F7810020FD
:1046000043F630010190C4F202014A6942F02002EF
:104610004A614A6902F020020192019A01900A68F7
:1046200042F004020A60096801F004010191019955
:10463000C02102910221CDE903100320059008203A
:1046400006900020C4F2020000F5006002A9FEF707
:10465000E9FC4720052100224724C2E1002643F659
:1046600030000196C4F20200016946F2100841F4DC
:10467000003101610169C4F2020801F400310191C5
:1046800001990196016841F001010160006802A9E9
:1046900000F00100019001980C2002900220CDE969
:1046A000030603200590072006900020C4F20200B4
:1046B000FEF7B8FC40F6580508F19000C2F200057C
:1046C0004FF000674021C5E9000705F108004FF4ED
:1046D000806980E8420205F114001421FBF7FBFD1C
:1046E0002846FEF797FB08B1FDF7E8FEA563AC632B
:1046F00040F2F87508F17800C2F200054FF48071BD
:10470000C5E900072846C5E90266C5E90496C5E97A
:104710000661C5E90866FEF77DFB08B1FDF7CEFE30
:10472000E563AC63262000210022262459E10026FF
:1047300043F630000196C4F202000169002741F4FB
:10474000801101610169C4F2020701F48011019135
:1047500001990196016802AD41F004010160016810
:1047600046F2100801F004010191019901960168D7
:104770004FF0020941F00801016000684FF0030AA0
:1047800000F00800019001984FF4805002904FF023
:10479000080B07F500602946C4F20208CDE903962C
:1047A000CDF814A0CDF818B0FEF73CFC0420CDE9FC
:1047B000020904A880E8400C07F540602946FEF78E
:1047C00031FC40F2D86508F1A800C2F200054FF0B4
:1047D00000674021C5E9000705F108004FF4806932
:1047E00080E8420205F114001421FBF774FD28460D
:1047F000FEF710FB08B1FDF761FEA563AC6340F264
:104800007865C2F200054FF48070C5E9066028465D
:10481000C5E90087C5E90266C5E90496C5E90866E9
:10482000FEF7F8FA08B1FDF749FEE563AC63352001
:10483000002100223524D4E0002643F63000019602
:10484000C4F20200016946F2100841F480210161BE
:104850000169C4F2020801F48021019101990196D5
:10486000016841F002010160006802A900F0020045
:10487000019001984FF4406002900220CDE90306B8
:1048800003200590072006900020C4F2020000F5E6
:104890008060FEF7C7FB40F6181508F14800C2F229
:1048A00000054FF000674021C5E9000705F1080049
:1048B0004FF4806980E8420205F114001421FBF7EF
:1048C0000AFD2846FEF7A6FA08B1FDF7F7FDA56335
:1048D000AC6340F6B80508F11800C2F200054FF4C9
:1048E0008071C5E900072846C5E90266C5E9049656
:1048F000C5E90661C5E90866FEF78CFA08B1FDF75F
:10490000DDFDE563AC63272000210022272468E059
:10491000002643F630000196C4F20200416946F2D7
:10492000100841F0100141614169C4F2020801F030
:104930001001019101990196016841F001010160A6
:10494000006802A900F00100019001984FF4C060D6
:1049500002900220CDE9030603200590072006906F
:104960000020C4F20200FEF75DFB40F2987508F5E6
:104970009560C2F200054FF000674021C5E90007CD
:1049800005F108004FF4806980E8420205F1140047
:104990001421FBF7A0FC2846FEF73CFA08B1FDF70E
:1049A0008DFDA563AC6340F2387508F58660C2F2F0
:1049B00000054FF48071C5E900072846C5E9026685
:1049C000C5E90496C5E90661C5E90866FEF722FA5D
:1049D00008B1FDF773FDE563AC63252005210022D6
:1049E0002524FEF7ACFC2046FEF799FC07B0BDE895
:1049F000F08F7047704700002DE9F041044690F8B1
:104A0000410020281CBF0220BDE8F0810D464FF078
:104A10000100E1B31746D2B300206064212098461C
:104A200084F84100FEF7D4FBA784E784A168074619
:104A3000B1F5805F01D1206988B32E46002500BF03
:104A4000E08CC0B1204680213A46434601F04EFC3E
:104A5000F8B92EB116F8010B2168486007E000BFD5
:104A600035F8020B21686FF35F2048600026E08C68
:104A70000138E084E4E7204640213A46434601F00D
:104A800035FC202184F84110002818BF0320BDE820
:104A9000F081202084F841000320BDE8F081002649
:104AA000CEE70000B0B5044690F8410020281CBFB6
:104AB0000220B0BD4FF0010079B313466AB34FF046
:104AC000000C21202162A384E384C4F844C084F84C
:104AD0004100A06B46F2210E46F25F052268C0F647
:104AE000000EC0F60005C0E90FE545F62575C0F6D5
:104AF00000050432C0E9135CFEF730FA20686FF05D
:104B000040010160206850E8050F216840F08000F6
:104B100041E80502002AF5D10020B0BD704770477A
:104B2000FEE70000000000002DE9F04F81B040F6E4
:104B30000040C2F20000D0F83890D0F85CA0D0F865
:104B40001480D0F880B009EB0A00A8EB00005844AC
:104B5000FBF7A7FD9FED180B54EC105B2A4623468C
:104B6000FBF7A3FC9FED160B56EC107B3A46334641
:104B7000FBF70DFDFBF7E5FD40F25451C2F20001D9
:104B8000086009EB0800AAEB00005844FBF789FD18
:104B90002A462346FBF789FC3A463346FBF7F7FCE7
:104BA000FBF7CFFD40F25051C2F20001086001B0A6
:104BB000BDE8F08F00BF00BF6666666666E63640F9
:104BC00000000000000062402DE9F04381B04FF08A
:104BD00000090DF1030101208DF8039001F04AFF57
:104BE000002865D042F24D6640F2282741F2245851
:104BF000C2F200060DF10304C2F20007C2F200087F
:104C0000002500BF31780020072949D8DFE801F0EE
:104C1000042B480B4830401B9DF8030079788842EC
:104C20003FD101203CE087F800907878F9789DF832
:104C30000320084410443872786839784B1C3B7064
:104C4000425405202CE09DF80300797A88424FF009
:104C5000000025D1D8F8002012B37868F978904781
:104C6000012500201CE09DF80300F870032017E0E8
:104C70009DF8030079683A78531C3B708854397A60
:104C8000084438723878F97888420AD3072007E058
:104C90009DF80300397A88424FF0000008BF0720D2
:104CA00030700120214601F0E5FE0028AAD100E085
:104CB0000025E8B201B0BDE8F083000010B502465F
:104CC000481E44F24274C0B2C4F25214C300042815
:104CD00038BF24FA03F140F28C24C2F20004CBB2B4
:104CE00009A1204604F03CFE2046FBF7FFFA82B201
:104CF000B2F5006F28BF4FF4006201202146BDE8E5
:104D0000104001F0D9BE00BF6D6F64653D2564257C
:104D10006300000080B540F2685046F20041C2F2E4
:104D20000000C4F200010322002380E80E0000F11D
:104D30000C014FF4102C4FF4001E81E808508361E1
:104D40008383FDF709FE18B1BDE88040FDF7B6BBCF
:104D500080BD80B540F2905046F60001C2F20000DE
:104D6000C4F200010C22002380E80E0000F10C01C7
:104D70004FF4003C4FF4001E81E808504FF480715E
:104D80000183C0F81A30FDF7E7FD18B1BDE8804097
:104D9000FDF794BB80BD80B582B0002043F63001A2
:104DA0000190C4F202010A6842F400120A600A6823
:104DB00002F400120192019A00900868002240F467
:104DC000800008600868002100F4800000900098CE
:104DD0000B20FEF7B4FA0B20FEF7A1FA0C200021FD
:104DE0000022FEF7ACFA0C20FEF799FA0D20002104
:104DF0000022FEF7A4FA0D20FEF791FA0E20002102
:104E00000022FEF79CFA0E20FEF789FA0F200021FF
:104E10000022FEF794FA0F20FEF781FA10200521F8
:104E20000022FEF78CFA1020FEF779FA11200521F6
:104E30000022FEF784FA1120FEF771FA2F200521D7
:104E40000022FEF77CFA2F20FEF769FA3A200521AE
:104E50000022FEF774FA3A20FEF761FA4620052197
:104E60000022FEF76CFA462002B0BDE88040FEF753
:104E700056BA80B54AF2A030C0F6000002F0D6F86B
:104E800040F28C31C2F200014AF2B0320860C0F642
:104E900000020120042102F06FF840F29431C2F2C6
:104EA00000014AF2E0320860C0F60002012004214D
:104EB00002F062F840F29C31C2F200014AF2C832BC
:104EC0000860C0F600020120042102F055F840F20B
:104ED0009831C2F200014AF2F8320860C0F60002CE
:104EE0000120012102F048F840F2A031C2F2000195
:104EF000086042F265104AF27C42C0F60000C0F63B
:104F00000002002102F0E7F840F21051C2F2000165
:104F1000086042F24D104AF25842C0F60000C0F656
:104F20000002002102F0D7F840F20C51C2F2000159
:104F3000086042F2B5104AF2A042C0F60000C0F686
:104F40000002002102F0C7F840F21451C2F2000141
:104F5000086042F247104AF23442C0F60000C0F640
:104F60000002002102F0B7F840F20851C2F200013D
:104F7000086042F211104AF21042C0F60000C0F67A
:104F80000002002102F0A7F840F20451C2F2000131
:104F9000086042F2B9104AF2C442C0F60000C0F6FE
:104FA0000002002102F097F840F21851C2F200010D
:104FB000086042F2BD104AF2E842C0F60000C0F6B6
:104FC0000002002102F087F840F21C51C2F20001F9
:104FD00008604AF29030C0F6000001F08BFF40F20A
:104FE0008021C2F20001086080BD2DE9F04786B043
:104FF0000DF1040840461421FBF76DF9002743F634
:1050000030000097C4F202000168002541F004015D
:1050100001600168C4F2020501F0040100910099E9
:105020000097016805F5006641F0800101600168A4
:10503000012201F0800100910099009701684FF46E
:10504000005941F0010101600168012401F00101F2
:10505000009100990097016841F002010160016828
:1050600001F00201009100990097016841F00801E8
:10507000016000684FF4005100F0080000900098B3
:105080003046FEF7A0F82846132100224FF0130AFD
:10509000FEF799F830464146CDE90194CDE9037712
:1050A000FDF7C0FF28464146CDE901A4CDE90377CD
:1050B000FDF7B8FF4FF40040CDE90107284641460F
:1050C0000394FDF7AFFF06B0BDE8F08710B58EB0D2
:1050D000002401A81C210D94CDE90B44CDE908441E
:1050E000FBF7F9F840F6781040F60001C2F2000034
:1050F000C4F2000142F20F73A72280E81600C0E953
:1051000003348461FEF785FC08B1FDF7D7F94FF44D
:1051100080500A9040F67810C2F200000AA9FEF70B
:105120000EFD08B1FDF7CAF940F67810C2F2000092
:10513000FEF7EEFE08B1FDF7C1F940F67810002445
:10514000C2F2000008A9CDE90844FEF709FC08B145
:10515000FDF7B4F96020CDE9010440F67810C2F201
:10516000000001A9002203940594FEF785FE08B112
:10517000FDF7A4F940F67810C2F2000001A904225C
:10518000FEF77AFE08B1FDF799F940F67810C2F201
:10519000000001A90822FEF76FFE08B1FDF78EF9A5
:1051A00040F67810C2F2000001A90C22FEF764FE5E
:1051B00008B1FDF783F940F67810C2F20000FEF75F
:1051C0002EFE0EB010BD80B540F6E02044F6004142
:1051D000C2F20000C4F2000100234FF00C0C4FF4A7
:1051E000E13280E80E00C0E90333C0E905C3C361C2
:1051F000FFF730F918B1BDE88040FDF75FB980BD19
:1052000080B540F6283045F20001C2F20000C4F239
:10521000000100234FF00C0C4FF4165280E80E00F2
:10522000C0E90333C0E905C3C361FFF713F918B13F
:10523000BDE88040FDF742B980BD80B540F608204A
:1052400041F20001C2F20000C4F2010100234FF05C
:105250000C0C4FF4E13280E80E00C0E90333C0E9E2
:1052600005C3C361FFF7F6F818B1BDE88040FDF74C
:1052700025B980BD80B540F6502044F20041C2F20D
:105280000000C4F2000100234FF00C0C4FF4E13297
:1052900080E80E00C0E90333C0E905C3C361FFF72E
:1052A000D9F818B1BDE88040FDF708B980BD80B5D8
:1052B00040F6982044F60001C2F20000C4F200015A
:1052C00000234FF00C0C4FF4E13280E80E00C0E9EF
:1052D0000333C0E905C3C361FFF7BCF818B1BDE8EB
:1052E0008040FDF7EBB880BD80B540F6703041F2EC
:1052F0000041C2F20000C4F2010100234FF00C0C87
:105300004FF4E13280E80E00C0E90333C0E905C381
:10531000C361FFF79FF818B1BDE88040FDF7CEB834
:1053200080BD0000FEE72DE9F04F81B02DED048B2C
:1053300088B05AEC10BBB0EE438AB0EE429A53EC00
:10534000112B58465146F0EE638AF0EE629ACDE991
:105350000032CDF808B0CDF80CA0FAF7FFFF0446F4
:10536000059041F21C50C2F2000000680D46049105
:10537000FBF7D4F902460B4651EC190BCDE90601B7
:10538000FBF793F822462B4680468946FAF7E6FF5C
:1053900006464AF2A020C2F2000000680F46FBF762
:1053A000BDF904460D463046394622462B46FBF7EA
:1053B0007CF8FBF7C6F94AF29021C2F20001C860FE
:1053C0000E4658465146DDF804B0DDF800A05A46B6
:1053D0005346FBF764F842464B46FBF760F822461B
:1053E0002B46FBF762F8FBF7ACF9B06041F21850BE
:1053F000C2F200000068B046FBF790F902460B4687
:10540000DDE90601FBF751F8DDE9043206460F46F7
:10541000FBF745F822462B46FBF747F8FBF791F9D7
:10542000DDE90223C8F8040058465146FBF737F877
:1054300032463B46FBF733F822462B46FBF735F85E
:10544000FBF77FF9C8F8000051EC180BFBF747F9A0
:105450004AF2B031C2F20001086008B0BDEC048B22
:1054600001B0BDE8F08F0000FEE7000000284ED03C
:10547000017890ED0F1A90ED102A80ED070A30EEBA
:10548000C00A0029C0ED060A80ED0F0A80ED101A4F
:1054900080ED112A3ED0012940F0868090ED015A1E
:1054A00090ED026A30EE414A31EE011A90ED037A36
:1054B00024EE054A20EE065A30EE410A32EE000A8A
:1054C000D0E90C2180ED0C0A20EE070A34EE051A13
:1054D00090ED082A90ED043A80ED0B0A31EE000AB7
:1054E00032EE000AB4EE430AF1EE10FA80ED094AFA
:1054F00080ED0A5AC0E90D2180ED080AC2BF80ED97
:10550000083AB0EE430A7047B1EE431A41E09FED0E
:10551000280A704790ED024A90ED0A6A90ED012A40
:1055200090ED053A24EE004A90ED035A34EE064A17
:1055300020EE022AD0E90C2130EE410AB4EE434AB3
:1055400080ED0C0A20EE050AF1EE10FA80ED092A32
:1055500080ED0A4AC0E90D2180ED0B0A06DCB1EEB0
:10556000433AB4EE434AF1EE10FA03DAB0EE434A9E
:1055700080ED0A3A32EE042A90ED041A30EE020A67
:10558000B4EE410AF1EE10FA80ED080A07DCB1EE44
:10559000411AB4EE410AF1EE10FAA8BF7047B0EE1E
:1055A000410A80ED081A704790ED080A704700BF65
:1055B0000000000088B182B180B5017011684160BF
:1055C00051688160916880ED040AC160C0ED050AF0
:1055D00020302821FAF77FFE80BD704700000000D0
:1055E000EFF30980BFF36F8F154B1A681EF0100F91
:1055F00008BF20ED108A20E9F04F10602DE9090066
:105600004FF0500080F31188BFF34F8FBFF36F8FBF
:1056100002F0A6FE4FF0000080F31188BDE80900FB
:1056200019680868B0E8F04F1EF0100F08BFB0EC22
:10563000108A80F30988BFF36F8F704700BF00BFE7
:10564000A40E00202DE9F04782B040F29034C2F25F
:1056500000048046207800218DF80710A0B940F2A0
:105660001001C2F200010420102201F025FAC82026
:10567000FDF7C4FC40F21011C2F2000104200E221A
:1056800001F01AFA012020700DF10701042001F049
:10569000F1F9002468B340F234270DF107054FF00B
:1056A000010940F2C11AC2F2000700BF9DF80700CD
:1056B000A0F12B01082916D809FA01F111EA0A0F05
:1056C00011D07E6839784A1C3A70705438780728AF
:1056D00009D33A7840463146FAF7E4FD3978304646
:1056E000FAF7F9FD01240420294601F0C3F9002846
:1056F000DCD1E0B202B0BDE8F0870000000000009D
:105700002DE9F04F81B02DED048B984693468946E4
:105710000029074655D4A9EB070090FBFBFA002FA0
:1057200000F190804046FAF7BCFF41EC180BBBF14A
:10573000010F34DB9FED709B40F250560125C2F201
:10574000000600BF05FB0A742046FAF7AAFF41ECE9
:10575000100BB0EE491AB0EE492AB0EE483AF0EE1E
:10576000691AF0EE692AF0EE683AFFF7DCFDB4B191
:1057700096ED000ABDEEC00A10EE100A013000EEF0
:10578000100AB8EEC00A00BF96ED001AB4EE401A37
:10579000F1EE10FAF8DB5D4505F10105D2D148467E
:1057A000FAF77FFF9FED541B41EC100BB0EE412A3E
:1057B000B0EE483AF0EE612AF0EE683AFFF7B3FD3A
:1057C0007DE0BBF1010F7ADBA9EB070090FBFBFA50
:1057D0004046FAF766FF41EC180B9FED479B40F2FD
:1057E00050560125C2F2000605FB0A742046FAF75E
:1057F00058FF41EC100BB0EE491AB0EE492AB0EE5A
:10580000483AF0EE691AF0EE692AF0EE683AFFF7CE
:105810008AFD002C53D096ED000ABDEEC00A10EEB2
:10582000100A013800EE100AB8EEC00A96ED001A10
:10583000B4EE401AF1EE10FAF8DC5D4505F1010511
:10584000D2D13CE0BBF1010F39DB4046FAF729FF2A
:1058500041EC180B9FED289B40F250560125C2F2F7
:10586000000600BF05FB0A742046FAF71AFF41EC58
:10587000100BB0EE491AB0EE492AB0EE483AF0EEFD
:10588000691AF0EE692AF0EE683AFFF74CFDB4B100
:1058900096ED000ABDEEC00A10EE100A013800EEC7
:1058A000100AB8EEC00A00BF96ED001AB4EE401A16
:1058B000F1EE10FAF8DC5D4505F10105D2D148465C
:1058C000FAF7EFFE41EC180B4046FAF7EAFE9FEDBF
:1058D0000A1BB0EE480AB0EE412A41EC130BF0EE81
:1058E000680AF0EE612ABDEC048B01B0BDE8F04F10
:1058F000FFF719BD00BF00BF00000000000000005E
:1059000010B540F2EC34C2F2000402460EA120466B
:1059100004F026F82046FAF7E9FC82B2032021467B
:10592000B2F5006F28BF4FF4006201F0C5F81420F3
:10593000FDF764FB40F21021C2F2000103200322B4
:10594000BDE8104001F0B8B874302E7478743D2270
:10595000257322005A2805D0532818BF704740F2FB
:10596000B63001E04FF4207040F67811C2F2000129
:1059700009684863704700000138C0B2022888BF38
:10598000704705A151F8200040F67811C2F20001DD
:105990000968C863704700BF5E0100000C03000087
:1059A000E2040000462805D0522818BF70474FF483
:1059B000207001E04FF4916040F67811C2F20001CE
:1059C00009688863704700000000000000000000C4
:1059D000074B19680868B0E8F04F80F30988BFF3F7
:1059E0006F8F4FF0000080F31188704700BF00BF39
:1059F000A40E002070B5054618B1FDF7E9FB064678
:105A000000E000260024C4F2020400BF25B1FDF727
:105A1000DFFB801BA8420FD820464FF40041FDF762
:105A2000CDFB0028F2D11420FDF7E8FA20464FF410
:105A30000041FDF7C3FB08B1002070BD20464FF4C4
:105A40000041FDF7BBFB0028F8D0012070BD42F2F9
:105A50005650C2F20000008840F21421C2F2000148
:105A600000B20822D1F800C00028C8BF04228CF878
:105A7000002042F2585248BF4042C2F2000200EBFE
:105A8000800012884000CCF8040010B202220028E6
:105A9000C8BF01228CF8082048BF404280B500EB07
:105AA000800240F29430C2F2000000684FEA420ED9
:105AB00000220223CCF80CE0BDE8804003F00CB8D3
:105AC0002DE9F04381B0DDE9086907461D4614461B
:105AD0008846002039461A464B46FFF711FE40F231
