:020000040800F2
:1000000078AC0020A1010008315C00088D53000885
:10001000ED5A00087D2A0008516800080000000021
:10002000000000000000000000000000A15F0008C8
:10003000C52B000800000000B15D0008C5010008E4
:10004000BB010008BB010008BB010008BB010008A0
:10005000BB010008BB010008BB010008BB01000890
:10006000BB010008BB010008BB0100084D2B0008C4
:10007000592B0008652B0008712B00087D2B000808
:10008000892B0008952B0008BB010008BB01000864
:100090007F2A0008BB010008BB010008BB01000863
:1000A000BB010008BB010008BB010008BB01000840
:1000B000BB010008BB010008BB010008BB01000830
:1000C000BB010008BB010008BB010008BB01000820
:1000D000BB0100081F6800082B680008376800088B
:1000E000BB010008BB010008BB010008BB01000800
:1000F000BB010008BB010008BB010008A12B0008E0
:10010000BB010008BB010008BB010008BB010008DF
:10011000B7630008C3630008BB0100080161000861
:10012000BB010008BB010008AD2B0008BB010008A3
:10013000BB010008BB010008BB010008BB010008AF
:10014000D92A0008BB010008BB010008BB01000858
:10015000BB010008BB010008B92B00084368000878
:10016000BB010008BB010008BB010008BB0100087F
:10017000BB010008BB010008BB0100080000000033
:10018000BB010008BB010008DFF810D000F026FC1E
:1001900000F0D8F800480047BD73000878AC002094
:1001A0000648804706480047FEE7FEE7FEE7FEE711
:1001B000FEE7FEE7FEE7FEE7FEE7FEE7EF6000088A
:1001C0008901000830B410B50348804730BCAE4602
:1001D00030BC024800477047FD7600082B600008DD
:1001E0002DE9F05F0546002092469B46884606466C
:1001F000814640241BE0284641464746224600F0FF
:10020000CEFA53465A46C01A914110D311461846A9
:10021000224600F0B5FA2D1A67EB01084F46224638
:100220000120002100F0ACFA17EB00094E41201E1E
:10023000A4F10104DFDC484631462A464346BDE8C6
:10024000F09F2DE9F0410024061B254671F10006C0
:1002500005DA01240027D0EB070067EB0101161E29
:1002600073F1000605DA0027D2EB0702012567EBE0
:100270000303FFF7B5FF86460E4617469C46AC4281
:1002800004D00025D0EB050E65EB010624B100205B
:10029000D2EB000760EB030C704631463A466346EA
:1002A000BDE8F08140EA01039B0703D009E008C9DB
:1002B000121F08C0042AFAD203E011F8013B00F82B
:1002C000013B521EF9D27047D2B201E000F8012B77
:1002D000491EFBD270470022F6E710B513460A46C6
:1002E00004461946FFF7F0FF204610BD421C10F8E7
:1002F000011B0029FBD1801A7047034611F8012B1E
:1003000000F8012B002AF9D11846704730B5054690
:100310000020034600E05B1C934205D2EC5CC85C05
:10032000201A01D1002CF6D130BD70B506460AF076
:1003300035F8046805460A220021304600F051FADB
:100340002C6070BD7CB507480090074801900546B9
:10035000009C04E02046016808448047241DAC420C
:10036000F8D17CBD18B800081CB800082DE9FE4F74
:10037000804681EA0300C00F0C46009021F0004146
:1003800023F00045B8EB0200A94105D240462146C2
:1003900090461C460B46024623F00040104347D0CF
:1003A000270DC7F30A00C3F30A510290401A0190C7
:1003B00040286BDAC3F3130040F4801B0098924688
:1003C00020B10023D2EB030A63EB0B0B01985946D3
:1003D000C0F14002504600F0D3F906460D465046A3
:1003E0005946019A00F0EBF910EB08006141002436
:1003F00087EA115284EAE7731A4340D0009A62B345
:10040000019A012A4FEA075215DC001B61EB020139
:100410004FF0004202EA0752CDE90042001C41F5CC
:10042000801132462B4600F05AFA03B0BDE8F08F37
:1004300040462146F9E7001B61EB0201001C41F533
:10044000801300185B412018A2F5001747EB030149
:1004500040EAD570B6196D4111E06D084FEA3606D5
:1004600045EAC0754FEA0752001B61EB0201001C10
:1004700041F5801149084FEA3000001951413246D8
:100480002B4603B0BDE8F04F00F01ABA00980122E5
:1004900040000023D0EB020263EBE073009821469A
:1004A0004FEAE074B8EB000061EB0401E9E783F088
:1004B00000435BE781F0004158E72DE9FE4F81EAF8
:1004C000030404F0004421F0004100944FF0000BBD
:1004D00023F0004350EA01045ED052EA03045BD0EB
:1004E000C3F30A54C1F30A552C44A4F2F334019423
:1004F000A0FB0254C1F3130141F48011C3F31303B1
:1005000043F4801301FB024400FB034E840A970A64
:1005100044EA815447EA8357A4FB076802958D0A91
:1005200005FB07854FEA932C04FB0C542705029D1D
:100530004FEA065847EA1637B5EB08056EEB070C8D
:10054000870E920E47EA811742EA8312A7FB020147
:10055000B6EB0B0164EB00042B0D43EA0C335E1881
:1005600044EB1C50DA465146E7FB0201C5F3130485
:100570004FEA0B3343EA14534FEA0432019C43EA37
:100580000603A4F10C040294009CCDE900B400F031
:10059000A6F903B0BDE8F08F00200146F9E72DE988
:1005A000F04D81EA030404F0004B21F000451446AD
:1005B0004FF0000A23F0004150EA050220D054EA2F
:1005C00001021DD0C5F30A570246C5F31303C1F358
:1005D0001300C1F30A5640F4801543F48013A7EBCF
:1005E0000608101BD64608F2FD3873EB050002D34F
:1005F00008F1010801E092185B41B8F1000F03DA3D
:1006000000200146BDE8F08D00204FF48011064621
:1006100084460EE0171B73EB050705D3121B63EB33
:10062000050306434CEA010C49084FEA30009218D2
:100630005B4150EA0107EDD152EA030012D082EA91
:10064000040083EA0501084305D0101BAB4106D224
:100650000122002306E000224FF0004302E06FF089
:10066000010253101AEB06004CEB085110EB0A0084
:1006700041EB0B01BDE8F04D00F022B90EB5C10F02
:1006800080EAE0700844CA07002140F233438DE855
:100690000E000A460B4600F022F903B000BD0EB56D
:1006A00040F2334102910021CDE900110A460B4688
:1006B00000F015F903B000BD70B5C1F30A5201F0A6
:1006C00000450024C1F3130140F2FF3341F48011CF
:1006D0009A4201DA002070BD40F233439A42A2F2FE
:1006E000334203DC524200F05AF800E090402C43C1
:1006F000F1D0404270BD00F0004230F000400AD01E
:10070000C10D01F56071C0F3160042EA0151C20843
:1007100040071143704700200146704701F0004335
:1007200030B421F0004150EA010206D00A0DA2F5D2
:100730006072C1F31301002A02DC30BC0020704754
:10074000440F44EAC104C100E01830BC00EBC250C1
:1007500000F07FB830B50B4601460020202201246E
:1007600009E021FA02F59D4205D303FA02F5491B7F
:1007700004FA02F52844151EA2F10102F1DC30BD95
:10078000202A04DB203A00FA02F100207047914051
:10079000C2F1200320FA03F3194390407047202A46
:1007A00004DB203A21FA02F00021704721FA02F31B
:1007B000D040C2F120029140084319467047202AD8
:1007C00006DBCB17203A41FA02F043EAE07306E079
:1007D00041FA02F3D040C2F1200291400843194689
:1007E00070472DE9F04791460F46804604460026A3
:1007F00014F8015B2DB100F009F90068405DC007F5
:10080000F6D12B2D02D02D2D18D0641E4A46394624
:10081000204600F0FFF827B13968A14201D1C7F89E
:10082000008071054FF002040BD54042002803DD23
:1008300009F0B4FD0460A007BDE8F08746F48066C7
:10084000E4E70028F8DA09F0A9FD04606FF0004041
:10085000F2E70029A8BF7047401C490008BF20F0FC
:100860000100704710B4B0FA80FC00FA0CF050EAB6
:10087000010404BF10BC704749B1CCF1200421FA37
:1008800004F411FA0CF118BF012121430843A3EB32
:100890000C01CB1D4FEA00614FEA102042BF00203F
:1008A00010BC704700EBC35010440029A4BF10BC1B
:1008B0007047401C490008BF20F0010010BC704781
:1008C00010B5141E73F1000408DA401C41F1000158
:1008D00092185B411A4301D120F0010010BD2DE9AF
:1008E000F04D92469B4611B1B1FA81F202E0B0FAA6
:1008F00080F220329046FFF743FF04460F4640EA5D
:100900000A0041EA0B0153465A46084313D01146E8
:1009100053EA010019D0C8F140025046FFF73FFFEB
:1009200005460E46504659464246FFF729FF084302
:1009300005D0012004E020463946BDE8F08D0020B6
:10094000054346EAE0762C4337430A986305E40AF8
:10095000A0EB08000022FD0A44EA47540A3002D501
:1009600000200146E9E7010510196941DDE9084564
:1009700000196941BDE8F04DA2E7C1F30A52C1F385
:10098000130140F2FF3341F480119A4202DA002051
:100990000146704740F233439A42A2F2334202DCEE
:1009A0005242FFF7FCBEFFF7EBBE000030B5041E5D
:1009B00071F1000404DB4FF00044404264EB01019C
:1009C000141E73F1000405DB1C464FF00043524235
:1009D00063EB0403994208BF904230BD1CB509483F
:1009E0000090094801900546009C06E0E06840F050
:1009F000010394E8070098471034AC42F6D3FFF7A0
:100A0000C7FB0000F8B7000818B800080048704796
:100A100010B000082DE9F05F8246007800271546E7
:100A20008B460AF10104B946302801D09DB113E08C
:100A300014F8010B0127782803D0582801D045B1BC
:100A40000AE00DB1102D07D10027102514F8010B75
:100A500002E0082500E00A250026B0460EE005FB6E
:100A6000080005FB06F1012701EB10461FFA80F88C
:100A7000B6F5803F00D3B94614F8010B294600F0C3
:100A800018F80028EBDABBF1000F05D00FB1641E97
:100A900000E05446CBF80040B9F1000F06D009F051
:100AA0007DFC02210160C81EBDE8F09F48EA0640B7
:100AB000FAE73A2800D2303820F02002412A01D348
:100AC000A2F13700884201D34FF0FF30704730B5B4
:100AD0008C1810F8012B12F00F0301D110F8013B14
:100AE000120906D110F8012B03E010F8015B01F8A0
:100AF000015B5B1EF9D101E001F8013B521EFBD105
:100B0000A142E6D3002030BD40F61530C0F600000B
:100B100006F0A8B870B584B004464BF2DF60C0F6AA
:100B20000000214601F028FF0FF2746120460822E0
:100B3000FFF7ECFB002800F0CF800FF27061204639
:100B40000D22FFF7E3FB002800F008810FF26C6133
:100B500020460422FFF7DAFB002800F060810FF244
:100B6000646120460522FFF7D1FB002800F01683C0
:100B70000FF2586120460722FFF7C8FB002800F05B
:100B800062810FF2506120460A22FFF7BFFB002866
:100B900000F06D810FF2486120460A22FFF7B6FB94
:100BA000002800F06F810FF2446120460A22FFF70F
:100BB000ADFB002800F068810FF23C6120460A225C
:100BC000FFF7A4FB002800F06A810FF2386120468D
:100BD0000A22FFF79BFB002800F063810FF23061CF
:100BE00020460A22FFF792FB002800F066810FF2F0
:100BF0002C6120460522FFF789FB002800F0B78111
:100C00000FF2206120460422FFF780FB002800F04D
:100C1000B0810FF2186120460822FFF777FB002809
:100C200000F0B3810FF2106120460922FFF76EFB3E
:100C3000002800F0B3810FF20C6120460922FFF773
:100C400065FB002800F0B5810FF2046120460A22FE
:100C5000FFF75CFB002800F0B6814BF21371C0F681
:100C6000000120460C22FFF751FB002800F0C7814D
:100C70004BF20971C0F6000120460922FFF746FB3E
:100C8000002800F0D5814BF2FD61C0F6000120463E
:100C90000B22FFF73BFB002800F0D6814BF2E4610A
:100CA000C0F6000120460B22FFF730FB002800F0C1
:100CB000D7814BF2F061C0F6000120460C22FFF70D
:100CC00025FB002800F0D9814BF2CE60C0F6000071
:100CD000214601F051FEEEE04BF27B50C0F60000E1
:100CE00001F04AFE4BF28560C0F6000001F044FEC0
:100CF00040F2C024C2F20004204607F0ADFD4BF2E2
:100D0000DF65C0F600052846214601F035FE204685
:100D10004FF40071FFF7DFFA4BF22160C0F60000DC
:100D200001F02AFE204607F029FD2846214601F061
:100D300023FE20464FF40071FFF7CDFA40F2C04485
:100D4000C2F2000440F2F4402578C2F200000068CC
:100D50008021002D54D008F0BBF853E040F2F4702D
:100D6000C2F200000068FFF7C6FC02464BF2726058
:100D7000C0F600000B4601F0FFFD40F2E470C2F245
:100D800000000068FFF7B7FC02464BF25E60C0F659
:100D900000000B4601F0F0FD40F2E070C2F20000EE
:100DA0000068FFF7A8FC02464BF24860C0F600005E
:100DB0000B4601F0E1FD40F2EE70C2F20000B0F926
:100DC00000104BF2BB50C0F6000001F0D5FD40F220
:100DD000F070C2F20000B0F900104BF2C750C0F63C
:100DE000000001F0C9FD40F2EC70C2F20000B0F961
:100DF00000104BF2AF50C0F6000001F0BDFD04E062
:100E000008F0C0F885F0010020700E214BF2D3509D
:100E1000C0F6000004B0BDE8704001F0ADBD40F286
:100E20009C70C2F20000006807F0E4FE40F6080083
:100E30000026C2F20000002100220023009607F0E5
:100E4000CBF90121E2E7E01DFFF76FFA40F22462DF
:100E5000C2F2000240F2E0411268C2F200010870E2
:100E600010460022022308F007FB0521CEE704F11B
:100E70000A00FFF75AFA40F20801C2F200010968BD
:100E8000087018E0042519E004F10A00FFF74DFA94
:100E900040F20801C2F20001096808720BE00C255B
:100EA0000CE004F10A00FFF740FA40F20801C2F238
:100EB0000001096808740021A8E7142504F10A005C
:100EC000FFF733FA40F2080440F22061C2F2000456
:100ED000C2F20001226809685051084621460022EA
:100EE000022308F0C9FA4BF2D350C0F600000421E7
:100EF00001F042FD4BF25D55C0F60005284601F0B9
:100F00003BFD206801784BF2F550C0F6000001F07F
:100F100033FD206841684BF20060C0F6000001F02C
:100F20002BFD2068017A4BF20B60C0F6000001F047
:100F300023FD2068C1684BF21660C0F6000001F086
:100F40001BFD2068017C4BF2DF50C0F6000001F071
:100F500013FD206841694BF2EA50C0F6000001F031
:100F60000BFD284604B0BDE8704001F005BD02212C
:100F70004CE740F29070C2F20000006800210222AB
:100F8000002308F047FE0B2140E704F10800FFF7BB
:100F9000CCF940F2C241C2F2000107E004F10900BD
:100FA000FFF7C3F940F2C141C2F2000108700C2101
:100FB0002CE704F10900FFF7B8F940F2C441C2F28E
:100FC00000010860F3E740F2C24040F2C14140F244
:100FD000C442C2F20000C2F20001C2F20002007874
:100FE0000978166800220123CDE901324FF47A72A4
:100FF0000023009601F0BFF801F0D7F8D7E740F2E0
:10100000C24040F2C14140F2C442C2F20000C2F20A
:101010000001C2F20002007809781668002201235C
:10102000CDE9013232220023009601F0A4F8BEE798
:1010300004F10900FFF779F940F61841C2F2000106
:10104000096880B2486316E004F10B00FFF76DF900
:1010500040F61841C2F20001096880B2C8630AE094
:1010600004F10B00FFF761F940F61841C2F20001EC
:10107000096880B288630D21C8E604F10C00FFF70F
:1010800054F94FF0FF3151FA80F0082800F28480C3
:10109000DFE800F0051B0A0E072027117800012069
:1010A00014E00220012117E001200221032209E0BF
:1010B0000220032110E041F2883007F0EBFA032010
:1010C0000221012200F03AF966E002200121022209
:1010D00003235FE0022002210022012300F0FFFA37
:1010E0005AE041F2883007F0D5FA012542F60410A3
:1010F0000024CDE90005072000214FF448720023A9
:10110000029401F038F801F050F85A2001F0AAFBDF
:101110004FF49676072000214FF448720023CDE962
:101120000065029401F027F801F03FF8522001F029
:10113000AAFB4FF4C87007F0ADFA40F6B830CDE91D
:101140000005072000214FF448720023029401F0AB
:1011500012F801F02AF8532001F084FB0720002147
:101160004FF448720023CDE90065029401F003F8C2
:1011700001F01BF8462001F086FB4FF4C87007F021
:1011800089FA09E041F2883007F084FA012003214E
:101190000222012300F09EF9102137E605F0B6FC8B
:1011A00053686F775461736B0000000053686F776A
:1011B000506172616D6574657200000053746F70E8
:1011C0000000000052657365740000005374617480
:1011D00075733D005768616C65446972583D000045
:1011E0005768616C65506F73583D00005768616CBB
:1011F00065446972593D00005768616C65506F73B2
:10120000593D00005768616C65446972523D0000A9
:101210005768616C65506F73523D00005374617282
:10122000740000004E657874000000004D5F5A4461
:101230005469643D000000004D5F5A445464697273
:101240003D0000004D5F5A4454706F733D00000034
:101250004D5F5A44547374617274000080B501F09C
:10126000B9FB20B102A0BDE8804001F085BB80BD84
:10127000524543454956450D0A00000040F2E870CA
:10128000C2F20000704741F29920C0F6000005F05C
:1012900029BD00000000000080B5808841F2B851EF
:1012A000C2F200010880B1F90000FFF7E7F99FEDF5
:1012B0000C0B53EC102BFFF700F99FED0B0B53ECCD
:1012C000102BFFF7FAF8FFF729FA40F2E871C2F2A3
:1012D0000001086040F2F471C2F20001086080BDB4
:1012E000000000000000003F000000000080664099
:1012F00080B503F0DFFF002818BF012080BD40F259
:10130000EC4CC2F2000C0CEB800041708270C37098
:10131000704740F2EC40C2F2000070470538C0B29E
:1013200002288EBF002002A151F82000704700BFA4
:101330001000002020000020300000202DE9F04F98
:1013400085B0034640F2EC40C2F20000C45C455C4C
:10135000865C4BF2E070C0F6000019461A468DF824
:1013600011408DF812508DF8136001F005FB4BF21F
:10137000CD70C0F6000021462A46334601F0FCFA43
:1013800040F2100940F2200840F2300B00260DF127
:10139000110AC2F200090124C2F20008C2F2000BD5
:1013A000002700BF462001F06EFA1AF8075001210D
:1013B00059F82500C822CDE9000405200023029633
:1013C00000F0D9FE58F825000021CDE900040620E0
:1013D000C8220023029600F0CEFE4FF4C870002F02
:1013E00008BF4FF4FA7007F055F9DBF81000002140
:1013F000CDE9000407204FF448720023029600F064
:10140000BAFE00F0D2FE5A2001F02CFADBF80800F8
:101410000021CDE9000407204FF448720023029612
:1014200000F0A9FE00F0C1FE522001F02CFA4FF4AA
:10143000C87007F02FF9DBF80C000021CDE900049B
:1014400007204FF448720023029600F094FE00F04B
:10145000ACFE532001F006FA022F0FD0DBF8080093
:101460000021CDE9000407204FF4487200230296C2
:1014700000F081FE00F099FE013793E7DBF80400ED
:1014800001250024CDE90005072000214FF4487212
:101490000023029400F06FFE00F087FE462001F06A
:1014A000F2F9D9F808000121CDE900050520C8228C
:1014B0000023029400F05FFED8F808000021CDE977
:1014C00000050620C8220023029400F054FE05B057
:1014D000BDE8F08F2DE9F04F85B0044640F2EC40B6
:1014E000C2F2000000EB840010F801B010F8028096
:1014F000C75C4BF2E070C0F600000A460B460E4691
:101500008DF811B08DF812808DF8137001F034FA57
:101510004BF2CD70C0F60000594642463B4601F002
:101520002BFA304601F0A7F940F2300500260DF104
:1015300011090127C2F200054FF00008522001F006
:10154000A2F919F808A040F21000C2F2000050F809
:101550002A000121CDE900070520C82200230296B8
:1015600000F009FE40F22000C2F2000050F82A000C
:101570000021CDE900070620C8220023029600F0D2
:10158000FAFD4FF4C87007F085F8E8680021CDE94E
:10159000000707204FF448720023029600F0EBFD8D
:1015A00000F003FE5A2001F05DF9A8680021CDE9A2
:1015B000000707204FF448720023029600F0DBFD7D
:1015C00000F0F3FD462001F05EF94FF4C87007F01B
:1015D00061F85846B8F1020F1CBF09EB08004078CB
:1015E00001F049F9012C15D0022C27D1686900219E
:1015F000CDE9000707204FF448720023029600F05F
:10160000BAFD00F0D2FD532001F02CF9B8F1020F21
:101610001AD129E028690021CDE9000707204FF4FD
:1016200048720023029600F0A6FD00F0BEFD532094
:1016300001F018F9B8F1020F06D117E0532001F0BC
:1016400011F9B8F1020F25D0A8680021CDE90007F3
:1016500007204FF448720023029600F08CFD00F042
:10166000A4FD08F1010869E7281D01E005F1140057
:10167000006801210027CDE90001072000214FF477
:1016800048720023029700F076FD05B0BDE8F04FE8
:1016900000F08BBD05B0BDE8F08FB0B584B040F26E
:1016A0001000C2F20000806801250024CDE9000589
:1016B00005200121C8220023029400F05CFD40F2C5
:1016C0002000C2F2000080680021CDE9000506205C
:1016D000C8220023029400F04EFD04B0B0BDF0B566
:1016E00083B041F2C855C2F20005287041F2C954D6
:1016F00040F27425C2F20004C2F200052170AA7003
:101700002B7023BB40F20860C2F200000068012782
:1017100080680026CDE9000705200121C8220023AA
:10172000029600F028FD40F20C60C2F20000006852
:1017300000218068C822CDE9000706200023029618
:1017400000F019FD4FF4FA6006F0A4FF2B78012B8E
:101750002FD140F2E846C2F2000640F2086031683C
:101760002278C2F200000068895C012750F821004D
:101770000025CDE9000705200121C822002302959C
:1017800000F0F9FC40F20C6031682278C2F20000EF
:101790000068895CC82250F821000021CDE90007CB
:1017A00006200023029500F0E6FC4FF4FA6006F0F4
:1017B00071FF40F2F440C2F200000068022103B061
:1017C000BDE8F04007F0DEBB40F27420C2F200003A
:1017D000704780B541F61100C0F6000005F089FAA7
:1017E0000520FFF79BFD40F20861C2F2000108608E
:1017F0000620FFF793FD40F20C61C2F20001086081
:10180000FFF787FD40F2E841C2F20001086080BDA9
:101810002DE9F04F81B02DED028B84B0B0F80110AE
:1018200040F27427C2F20007B9803A78B0F803405A
:10183000012AFC8025D0002A40F07081027841F214
:10184000C850C2F200000078012A08BF012800F049
:10185000AB80102A08BF022840F0608142F60230B7
:10186000C2F20000018042F60430C2F200000A0415
:10187000048018BF5FEA044040F06881002078705F
:101880005AE2080418BF5FEA044000F04581A0B2A4
:10189000C0F1F00000EE100AF88A89B2081A01EED1
:1018A000100AB8EEC00AF8EEC10A08F07BFD9FED01
:1018B000EF1A20EE010A10EE100AFEF71CFF9FED52
:1018C000EC0B53EC102BFEF76AFE9FEDEB0B53EC89
:1018D000102BFEF74BFDFEF721FFF9888146C1F181
:1018E000F00000EE100AB888F98AB8EEC00A401A73
:1018F00001EE100AB8EEC11A21EE011A20EE000A1C
:1019000030EE011AB1EEC11A388B00EE109AC0F118
:10191000F00002EE100AB8EEC22A31EE428ABDEEA5
:10192000C01A11EE101A0AB2B98181EAE231A1EBB4
:10193000E231BDEEC81A89B241F2C95A40F20C64D4
:1019400040F2E84B40F2086811EE100A0229C2F298
:10195000000AC2F20004C2F2000BC2F20008388191
:101960003ED801B280EAE130A0EBE13080B202283B
:1019700036D89AF800100FF2B04000F0FDFF40F2A8
:101980009070C2F2000000680021022200230025AE
:1019900008F040F940F2F440C2F200000068022171
:1019A00007F096FAFD707EE0B878012800F0BC8060
:1019B000002840F0B38042F6023B42F60439C2F2FE
:1019C000000BC2F200090804ABF80010A9F80040AF
:1019D00018BF5FEA044040F0D8800020787011E220
:1019E000B3EE041A20EE010ABDEEC00A10EE100A92
:1019F00028EE010ABDEEC00A10EE101ADBF8002036
:101A00009AF80030B88139812668D55C56F82540AF
:101A1000214446F82510D8F80010D55C51F825402F
:101A2000204441F82500D05C42F2283456F820507A
:101A3000A542B8BF2C4624EAE47546F82050D05C95
:101A400041F2941451F82050A542B8BF2C4624EA24
:101A5000E47541F82050D05C012456F820000025A0
:101A6000CDE900040620002114220023029500F095
:101A700082FBDBF800009AF80010D8F80020405CE8
:101A8000012152F820001422CDE9000440F20C6438
:101A900005200023C2F20004029500F06CFB4FF415
:101AA000C87006F0F7FD388940F2EE71C2F200010D
:101AB0000880B88940F2EC71C2F20001088018EE8B
:101AC000100AFEF718FE054648460E46FEF713FEBE
:101AD00041EC100B4BF24C70C0F600002A46334626
:101AE0008DED000B00F048FFB7F90810B7F90C2096
:101AF000D5A000F041FF9AF80010DBF80000226842
:101B0000405CD8F8003052F8202053F82060D8A06C
:101B10000B46009600F030FF0020787004B0BDEC5A
:101B2000028B01B0BDE8F08F42F60230C2F2000035
:101B3000018042F60430C2F200000A04048018BF9B
:101B40005FEA04404AD10020787084E0F88A0D1AD8
:101B500029B285EAE132388BA2EBE132B97E92B24A
:101B6000201A8A423D8178817AD802B280EAE23036
:101B7000A0EBE23080B2884272D8F878F97E8842D1
:101B800080F0B1800130F870C3E042F60632C2F254
:101B90000002B7F80E80B7F810A0B2F800C01FFA24
:101BA00081FEA1EB0806A4EB0A03BEEB0C003E810C
:101BB0007B8148BF4042042862D842F60830C2F216
:101BC00000000088A5B2281A48BF4042042857D810
:101BD000FD78387D854256D2013553E0F8893A8A3E
:101BE000081A01B280EAE133A3EBE133F97C9BB23E
:101BF000A21A8B4238817A811BD813B282EAE3366B
:101C0000A6EBE3339BB28B4213D840F29070C2F242
:101C10000000006800210222002307F0FBFF40F2D1
:101C2000F440C2F200000068022107F051F938893F
:101C30007A8940F2EE71C2F20001088040F2F07140
:101C4000C2F200010A8001B24BF23E7012B2C0F63D
:101C5000000000F091FE4BF22070C0F60000D5E0CD
:101C60000020F87004F0AEF93D8952E000003443E2
:101C7000182D4454FB21094000000000008056C08C
:101C8000387D0025FD708542C0F0A28030B286EA22
:101C9000E031A1EBE031B87C89B2814251D819B270
:101CA00083EAE133A3EBE13189B2814249D840F2C2
:101CB0009070C2F20000006800210222002300247C
:101CC00007F0A8FF40F2F440C2F2000000680221D1
:101CD00007F0FEF8C7F80340FC71ABF80040A9F824
:101CE0000040002170E040F29070C2F200000068F5
:101CF000002102220023002507F08CFF40F2F4406F
:101D0000C2F200000068022107F0E2F8FD70BD8118
:101D10003D8140F2EE70C2F200000580B7F90A2062
:101D200040F2F070C2F2000002804BF23E7029B225
:101D3000C0F6000000F020FE4BF28970C0F60000F3
:101D400064E00CEB0E00FEF799FC9FED350B55ECB3
:101D5000109B4A462B46FEF7B0FB064640468B4694
:101D6000FEF79DFC02460B4630465946FEF79FFBA8
:101D7000FEF7A2FC42F60831C2F200010988388160
:101D800011FA84F0FEF77AFC4A462B46FEF795FBE3
:101D9000054650460E46FEF782FC02460B46284694
:101DA0003146FEF784FBFEF787FC788104F00AF9E0
:101DB00042F6023142F60432C2F20001C2F20002DF
:101DC000098814880020F87042F60632C2F2000238
:101DD00042F60830C2F200001180048040F2EE703A
:101DE000B7F90810C2F20000B7F90A20018040F2EA
:101DF000F070C2F2000002804BF23E70C0F60000AC
:101E000000F0BAFD4BF26C70C0F6000004B0BDECFF
:101E1000028B01B0BDE8F04F00F0AEBD00BF00BFC7
:101E2000000000000000E03F2A2A2A2A2A2A2A2A43
:101E3000202564202A2A2A2A2A2A2A2A2A2043619B
:101E40006C4F6B0D0A00000064436F6F72645F5843
:101E50003D253564202020202020202020206443A0
:101E60006F6F72645F523D2535640D0A00000000FB
:101E70004D4F544F525F585F506F735B25645D3D0B
:101E80002535642020204D4F544F525F525F506FD4
:101E9000735B25645D3D2535640D0A0010B540F285
:101EA0007424C2F2000462781AB903F0EBFA01203C
:101EB000607003F06DFA08B10020607010BD80B54D
:101EC00082B040F2C870C2F200000121016040F609
:101ED00008004FF0000CC2F2000000210022002395
:101EE000CDF800C006F078F902B080BD0000000017
:101EF000B0B50C4640F2C875411EC2F20005002282
:101F000007292A601BD80FF20600DFE801F004352C
:101F10001C491C1C1C1D4AF67400C2F2000000681B
:101F2000FEF7ACFB41EC130B44F6EF10C0F20200DD
:101F300084428CBF9FED480B9FED450B46E0102877
:101F400065D0202863D0B0BD4AF67400C2F200000C
:101F50000068FEF793FB41EC130B44F6EF10C0F260
:101F600002009FED370B8442C4F1000494BF9FED43
:101F7000321B9FED351B37E04AF67400C2F20000B9
:101F80000068FEF77BFB41EC130B44F6EF10C0F248
:101F900002008442C4F1000416D99FED2B0B15E01A
:101FA0004AF67400C2F200000068FEF767FB41ECDD
:101FB000130B44F6EF10C0F202009FED210B844298
:101FC00010D99FED251B0FE09FED1B0B9FED1C1BF8
:101FD000B0EE412AF0EE612A03F089FD204605F0BB
:101FE00039F80AE09FED1A1BB0EE402AF0EE602AA5
:101FF00003F07DFD204605F04FF8012818BFB0BD65
:10200000012028604AF67400C2F2000004682046ED
:10201000FEF734FB9FED0A0B41EC130BB0EE401AB8
:10202000B0EE402AF0EE601AF0EE602ABDE8B04053
:1020300003F05DBD00BF00BF00000000000039C01C
:1020400000000000000000000000000000407FC011
:1020500000000000000039400000000000407F4008
:1020600080B50138052888BF80BDDFE800F0035245
:1020700015320C56022040F69801FFF739FF042074
:1020800041F2A86156E0082042F2C421FFF730FF78
:1020900002204FF4616124E0082041F29411FFF71F
:1020A00027FF9FED270B40F2C8709FED293BB0EE54
:1020B000401AB0EE402AC2F200000021F0EE601A91
:1020C000F0EE602A016003F012FD012044F2740179
:1020D00030E0082041F6A471FFF70AFF02204FF418
:1020E000FA51FFF705FF9FED160B40F2C870C2F2E0
:1020F000000000219FED143BB0EE401AB0EE402AE4
:10210000F0EE601AF0EE602A0160BDE8804003F056
:10211000EEBC042042F260210CE0022044F268216F
:10212000FFF7E6FE082042F24861FFF7E1FE0220D9
:1021300040F2DC51BDE88040FFF7DABE00BF00BFCF
:102140000000000000000000000000000080564079
:10215000000000000080664080B50520002100F0EE
:102160007DFD0620002100F079FD07200021BDE85B
:10217000804000F073BD2DE9F04784B00CAE70CE06
:10218000984691468A46074604F010FF3846514665
:102190004A464346CDE90045029600F02EFD0A204E
:1021A00004B0BDE8F04706F075BA04F00BBF0000BC
:1021B00080B582B040F22460C2F2000000210068C5
:1021C0008DF807100DF10701002207F0ADFA012884
:1021D00009D19DF8071042F60130C2F200000170EB
:1021E00002A000F0C9FB02B080BD00BF735F756341
:1021F000537461747573203A2025640D0A00000041
:10220000F0B58BB003A82021FEF765F840F201304D
:10221000ADF8080040F2012042F60136C0F203207A
:10222000C2F200060190307800212928009100F2C6
:102230001982DFE810F00E01BD005101F400A30087
:10224000D7006B011702170217027F01170217024E
:102250001702170217021702170217021702CC0102
:102260002A002A002A001702170217021702170273
:10227000170282006D0015011702170217021702DC
:102280001702170217022A01F10140F2E141C2F2DE
:1022900000010978002918BF03301538C4B24BF289
:1022A000A330C0F60000214600F066FB01A8015DE6
:1022B000012001220023FFF712FA6D4600204FF0A3
:1022C000FF312A464FF0FF3307F0F0FD4BF21F506D
:1022D000C0F60000214600F04FFB00204FF0FF3118
:1022E0002A464FF0FF3307F0E1FD3078032117282D
:1022F00038BF411CC8B20328317040F0B38140F2AE
:10230000F440C2F200000068022106F0E1FDA9E1FC
:102310004BF20A40C0F6000000F02EFB6A46002097
:102320004FF0FF314FF0FF3307F0C0FD2020307039
:102330004BF22940C0F6000092E14BF28040C0F61B
:10234000000000F019FB02200221002200230024DB
:10235000FFF7C5F96A4600204FF0FF314FF0FF3319
:1023600007F0A4FD41F24000C2F20000012101602B
:102370004BF29D403470C0F6000071E14BF27920C1
:10238000C0F6000000F0F8FAFFF787F90420FFF725
:1023900067FE6A4600204FF0FF314FF0FF3307F031
:1023A00085FD282030704BF2A020C0F6000057E1D8
:1023B0004BF2EC40C0F6000000F0DEFAFFF76DF9DA
:1023C0000120FFF74DFE6A4600204FF0FF314FF02D
:1023D000FF3307F06BFD0A2030704BF20650C0F659
:1023E00000003DE14BF20D30C0F6000000F0C4FAF1
:1023F000FFF753F90520FFF733FE6A4600204FF040
:10240000FF314FF0FF3307F051FD40F2E140C2F2DF
:1024100000000121017014203070A5A020E14BF2D2
:10242000C620C0F6000000F0A7FAFFF736F9032037
:10243000FFF716FE6A4600204FF0FF314FF0FF33E2
:1024400007F034FD1E2030704BF2EA20C0F6000089
:1024500006E14FF4FA700BB0BDE8F04006F01AB98F
:102460004BF26830C0F6000000F086FA6A460020A1
:102470004FF0FF314FF0FF3307F018FD04203070AC
:102480004BF28630C0F60000EAE04BF24740C0F65F
:10249000000000F071FA40F2F444C2F20004206837
:1024A000022106F06FFD0220022100220023FFF727
:1024B00016F96A4600204FF0FF314FF0FF3307F066
:1024C000F5FC2068022106F003FD292030704BF254
:1024D0006440C0F60000C3E04BF23130C0F60000AB
:1024E00000F04AFAFFF7D9F80220FFF7B9FD6A4673
:1024F00000204FF0FF314FF0FF3307F0D7FC1420DE
:1025000030704BF24D30C0F60000A9E056A000F04C
:1025100033FAFFF7C2F80620FFF7A2FD6A46002053
:102520004FF0FF314FF0FF33002407F0BFFC57A0FE
:10253000347095E040F2E245C2F20005287838B9DF
:102540004BF2C030C0F6000000F016FA01202870EF
:1025500003AC204603F05EFC002800F083804BF2C1
:102560004250C0F60000214607F0C6FE002001A937
:10257000002200BFD3B2E35C2B2B08BF0132D3B2E1
:10258000E35C0132303B0B5401300628F2D103A842
:1025900003F09CFC40F29070C2F200000068002141
:1025A000022200230224002707F034FB6A460020A1
:1025B0004FF0FF314FF0FF3307F078FC4BF2D6308D
:1025C000C0F60000347000F0D7F92F704AE04BF2EB
:1025D000B940C0F6000000F0CFF940F2E140C2F28D
:1025E000000000780221002818BF052101A8415CE5
:1025F0000120002200230024FFF771F86A46002022
:102600004FF0FF314FF0FF3307F050FC4BF2D34057
:102610003470C0F6000023E04BF2EB30C0F600004F
:1026200000F0AAF940F2E144C2F20004207801ABC4
:1026300060F3000360F3410319785A789B78FEF742
:1026400049FF6A4600204FF0FF314FF0FF3307F09B
:102650002DFC20780521002818BF062131701DA00F
:1026600000F08AF90BB0F0BD454E5445522053544A
:10267000415455535F50726F536563417265615F9A
:10268000325F53746172740D0A000000455849545A
:10269000205354415455535F50726F5365634172D8
:1026A00065615F325F53746172740D0A000000004F
:1026B00045584954205354415455535F50726F53F9
:1026C0006563417265615F325F5261774172656136
:1026D0000D0A000045584954205354415455535F46
:1026E00050726F53656341726561506C6163650D33
:1026F0000A00000082B040F2F44441F2C85641F2B0
:10270000C957C2F200044FF0FF35C2F20006C2F210
:10271000000700BF2068022100220023009506F078
:102720007FFC800703D530783978FFF7B7FB64204A
:1027300005F0B0FFEEE70000FFF746F840F2E44591
:102740004BF2AB760446C2F20005C0F600060FF26B
:10275000E40B3BA70FF2F4080FF2FC094FF0000A5C
:1027600040F22060C2F20000006829464FF0FF32BC
:1027700006F0DAFF304600F0FFF8296823A000F0E9
:10278000FBF82868017825A000F0F6F82868416871
:1027900025A000F0F1F82868017A584600F0ECF81E
:1027A0002868C168384600F0E7F82868017C404690
:1027B00000F0E2F828684169484600F0DDF830464C
:1027C00000F0DAF82868416849B10078FFF790FB1B
:1027D000286884F801A080F800A0C0F804A0C168AF
:1027E00049B1007AFFF784FB286884F801A080F8DB
:1027F00008A0C0F80CA04169007CFFF779FB2868AD
:1028000080F810A0C0F814A0AAE700BF41444452C9
:102810003A20253034580D0A0000000044697258EF
:102820003A2025640D0A0000506F73583A20256441
:102830000D0A0000446972593A2025640D0A00000F
:10284000506F73593A2025640D0A00004469725292
:102850003A2025640D0A0000506F73523A20256417
:102860000D0A000080B503F05BFB4FF4C870BDE8B3
:10287000804005F00FBF80B503F064FB6420BDE825
:10288000804005F007BF03F073BB704782B040F291
:10289000F444C2F200042068012106F073FB4FF0FB
:1028A000FF3500BF2068012100220023009506F0BB
:1028B000B7FBC00718BFFEF7D1FC0A2005F0EAFEFF
:1028C000F0E70000FEF714FD052005F0E3FEF9E750
:1028D000FFF76EFCFFF794FC0A2005F0DBFEF7E73C
:1028E000FFF708BFFFF728BF41F24004C2F200041F
:1028F000256805F0CDFD1DB105F0A1FC02E000BF8B
:1029000003F0AAFF04F06EF805F0E4FD0A2005F0DC
:10291000C1FEEDE782B040F2F44540F6A067C2F296
:1029200000054FF0FF36C2F200070FF2300800BF7B
:102930002868802100220023009606F071FB000623
:1029400007D579697A6B7B6D7C6F4046009407F000
:10295000D3FC322005F09EFEEAE700BF7B746F7463
:10296000616C5F616E676C657D25642C25642C2528
:10297000642C25640A00000083B0B0B5ADF20C4DA4
:1029800084460DF10B04CDF81C14CDF82024CDF8AD
:1029900024340DF21C43204640F20141624601936B
:1029A00007F0CEFC40F21065C2F2000528684FF037
:1029B000FF3104F0ACFD06A0214607F09DFC28681D
:1029C00004F000FE0DF20C4DBDE8B04003B07047BE
:1029D000257300002DE9F04782B000250DF10701B5
:1029E00000208DF8075004F004FB00283FD042F689
:1029F000003640F25C2741F2BC58C2F20006C2F237
:102A00000007C2F200080DF107044FF001094FF072
:102A1000000A00BF307898B138783E281AD89DF85F
:102A200007107B7A78683A78994215D18554D8F89E
:102A30000020AAB13978904735704FF0010A0FE0B5
:102A40009DF807007978884204BF86F800903D70B1
:102A500006E000BF357003E0531C3B70815400BF9B
:102A60000020214604F0C5FA0028D3D101E04FF040
:102A7000000A5FFA8AF002B0BDE8F087FEE740F690
:102A80000800C2F2000000F051BA10B540F2306404
:102A900040F60800C2F2000440F22863C2F20000CF
:102AA000C2F200030021224600F0AFF92068A0F234
:102AB0000121032988BF10BD013840F6A061C0B2D2
:102AC000C2F2000101EB401040F22861C2F20001A5
:102AD000BDE8104004F05FBB40F63000C2F20000D9
:102AE00000F024BAB0B540F2546540F24C6440F6B0
:102AF0003000C2F20005C2F20004C2F20000002160
:102B00002A46234600F081F900B1B0BD40F2CD70F5
:102B1000C2F2000000786968B0EB112F0ED1207866
:102B2000FD280BD160789F2808D1A0786B2805D1AB
:102B300040F2CC70C2F200000121017040F25460FA
:102B4000C2F200001C21FDF7C6FBB0BD40F6181014
:102B5000C2F2000000F084BC40F65830C2F200001F
:102B600000F07EBC40F65800C2F2000000F078BCD5
:102B700040F6B830C2F2000000F072BC40F6B80077
:102B8000C2F2000000F06CBC40F69820C2F20000D7
:102B900000F066BC40F6F820C2F2000000F060BC15
:102BA00040F67810C2F2000000F05ABC40F6D8108F
:102BB000C2F2000000F054BC40F63820C2F200001F
:102BC00000F04EBC704780B584B08DF800009A20AC
:102BD0008DF801006B2000238DF802108DF80400A1
:102BE000684605210393CDF80930CDF805308DF8FE
:102BF000032004F047F904B080BDB0B584B0DDE92E
:102C0000084E8DF80000FD208DF80100100A8DF8A7
:102C10000300200E8DF80600200C8DF80700200A16
:102C2000DDF828C08DF808006B2000258DF8021013
:102C30008DF80C0068460D218DF80F50ADF80D5041
:102C40008DF804208DF805308DF809408DF80AE0E4
:102C50008DF80BC004F016F904B0B0BD80B584B097
:102C60008DF8000049F6FE00ADF801006B2000224F
:102C70008DF803108DF80400684605210392CDF805
:102C80000920CDF8052004F0FDF804B080BD000057
:102C900072B600BFFEE710B590F820E0D0F800C093
:102CA000AEF1010EBEF1010FDCF808E011D81EF004
:102CB000E05F14D0CEF301640120A04018608B685F
:102CC0009BB1D1F804E0C86840EACE0040EA030EA8
:102CD0000FE000F1240301204FF4802121E000F1F6
:102CE000240301204FF400111BE00868CB6843EA7D
:102CF000405E0CF5C07000EB0413240140F804E0C2
:102D00000C69184640F8044F097D012903D1016878
:102D100041F48071016050680121D86010689860AA
:102D200000201A681143196010BD90F82020013A64
:102D3000012A30D8B0B546F20060C4F20000026843
:102D400042F001020260026822F47C520260D1F873
:102D500014E0CC694A6A0368012C43EA022202604B
:102D60000EF01F024FF0010303FA02F2C3696FEA8B
:102D7000020C23EA0203C36113D02CBBC36803EA2D
:102D80000C03C360CB688C8844EA034300EBCE0499
:102D900023640B4611E0416A41F480214162012025
:102DA0007047C3681343C3600B688C8844EA0343CD
:102DB00000EBCE04236401F10C038C681B8843EA0A
:102DC000044300EBCE04636443688D6943EA020464
:102DD000D1F810E0096A002D08BF03EA0C04446032
:102DE0004369BEF1000F43EA020408BF03EA0C0482
:102DF0000129446102D1C1691143C161016821F017
:102E0000010101600020B0BD7047B0B590F82040CE
:102E1000013C012C7AD8D0F800C000290CBFDCF8A6
:102E20000C40DCF81040A40776D00CF5D8754FEABA
:102E3000011C55F80C4014F00404946055F80CE0A3
:102E400005EB011C19BF4FEADE0555604FEA5E55E0
:102E50001560DCF80050E64605F00205D5605EF826
:102E6000044F24075ABFDEF8004004F00F04082482
:102E70001461DEF800400029C4F307249461DEF8F1
:102E800000504FEA15455561DCF808201A700268B9
:102E900002EB0112D2F8B8214FEA12225A700268EE
:102EA00002EB0112D2F8B8214FEA12429A7002687E
:102EB00002EB0112D2F8B8214FEA1262DA7002680E
:102EC00002EB0112D2F8BC211A71026802EB011266
:102ED000D2F8BC214FEA12225A71026802EB0112A9
:102EE000D2F8BC214FEA12429A71026802EB011239
:102EF000D2F8BC214FEA1262DA7100680CBF00F10F
:102F00000C0100F11001002020220AE000F1240150
:102F100001204FF4802204E000F1240101204FF44D
:102F200000120B681A430A60B0BD00002DE9F04F93
:102F300081B0044600684669D0F804908768D0F8EC
:102F40000CB0D0F810A0D0F81880F10701D10025FE
:102F500049E0F9070ED00121BA07816007D478074C
:102F60001DD4380721D4204600F020FA02E0204684
:102F700000F01DFA0025F8051CD520684FF480717B
:102F8000BA05816007D478050CD4380510D42046E2
:102F900000F00EFA0EE0204600F00BFA0AE04FF4C3
:102FA0000065E8E705F5005504E04FF48055E2E7D9
:102FB00005F58045F80316D520684FF48031BA0333
:102FC000816007D4780309D438030AD4204600F07E
:102FD000F1F908E0204600F0EEF904E005F50045BF
:102FE00001E005F58035300707D51BF0100004D04F
:102FF000206845F400751021C160700708D51BF0EA
:10300000080005D020680821C160204600F08CF936
:10301000B00706D52068C068800702D0204600F0BF
:1030200084F9700607D51AF0100004D0206845F422
:10303000806510210161B00608D51AF0080005D09E
:10304000206808210161204600F080F9F00606D5CD
:1030500020680069800702D0204600F078F9B003AC
:1030600008D519F0100005D02068102141602046D5
:1030700000F06EF9F00308D519F0080005D02068BB
:1030800008214160204600F097F9300440D55FEAFE
:1030900049703AD506F4807008EA102028435FEAA8
:1030A0008871014648BF41F00201B20558BF014690
:1030B0005FEA48700D4648BF45F00405700558BFEB
:1030C0000D46300521D518F070001ED010380009CB
:1030D000052815D8DFE800F0030F090C061245F0AB
:1030E00008050DE045F080050AE045F0200507E001
:1030F00045F0400504E045F0100501E045F4807519
:103100002068816921F0700181612068042141609B
:103110004DB1606A40EA05012046616201B0BDE838
:10312000F04FFFF771BE01B0BDE8F08FD0B1B0B580
:10313000044690F8200010B9204600F06FF820688F
:10314000016841F00101016000F027FC054600BF65
:1031500020684168C90707D100F01FFC401B0B28FD
:10316000F6D312E001207047016821F002010160EE
:1031700000F013FC054600BF2068416889070BD5A5
:1031800000F00BFC401B0B28F6D3606A052140F4CD
:103190000030606201203EE0217E0268012922F0B9
:1031A000800208BF80320260617E0268012922F03D
:1031B000400208BF40320260A17E0268012922F06D
:1031C000200208BF20320260E17E0268012922F05D
:1031D000100218BF10320260217F0268012922F01C
:1031E000080208BF08320260617F0268012922F0EC
:1031F000040208BF04320260D4E901C2D4E90335F5
:1032000061691A432A431143ACF101021143C161C0
:1032100000200121606284F82010B0BD10B586B096
:10322000044601A81421FDF756F8206846F600016F
:10323000C4F2000188422ED046F20041C4F20001DF
:1032400088426FD140F2F841C2F200010A6843F6A9
:103250003000C4F20200531C0B6052B900210091EF
:10326000016941F000710161016901F00071009193
:103270000099002100910168142441F001010160CE
:1032800000684FF4C05100F0010000900098002049
:10329000C4F2020032E043F630000021C4F2020022
:1032A0000091026942F080620261026902F080626C
:1032B0000092009A40F2F842C2F2000213685C1CCD
:1032C00014604BB90091026942F000720261026918
:1032D00002F000720092009A00910168402441F0CF
:1032E0000201016000684FF4405100F002000090BC
:1032F00000980020C4F2020000F5806001910221D4
:10330000029100210391032104910921059101A952
:1033100000F072FA20460521002200F0F5FB20465D
:1033200000F0E2FB06B010BD704740F60801C2F2A3
:103330000001884208BFFFF7A8BB40F63001C2F287
:103340000001884218BF7047FFF7CCBB7047704739
:1033500070470000B0B5044690F8200001281CD149
:10336000022084F820002068016821F0010101603A
:1033700000F013FB054600BF20684068C00712D06C
:1033800000F00BFB401B0B28F6D3606A40F40030C2
:103390006062052084F8200003E0606A40F40020A9
:1033A00060620120B0BD00206062B0BD7047704710
:1033B00070477047704770477047000070B5866D62
:1033C000044600F0EAFA94F83510022925D10546A2
:1033D0002068216C026822F016020260426922F025
:1033E0008002426109B9A16C19B1016821F008019C
:1033F0000160016821F00101016000BF20680068E0
:10340000C0070ED000F0C9FA401B0628F6D32020D2
:103410006065032084F835000CE0802060650120A1
:1034200008E0E06D3F2101FA00F0B060012084F86F
:1034300035000020002184F8341070BD90F835105C
:10344000022909D1052180F835100068016821F0B2
:103450000101016000207047802141650120704713
:10346000F0B581B004460020009040F25820C2F22E
:1034700000000268D4E9166048F2B51337680821E5
:10348000C1F64E3381403942A2FB03250CD022689D
:1034900013685B0708D5136823F004031360B16059
:1034A000616D41F00101616501218140394208D01F
:1034B00022685269120604D5B160616D41F00201C3
:1034C000616504218140394208D022681268920760
:1034D00004D5B160616D41F0040161651021814046
:1034E000394217D020680268120713D5B16002680C
:1034F0000168520306D4C90506D4016821F0080109
:10350000016001E0080301D4216C00E0A16C09B165
:1035100020468847E16D202000FA01F23A423CD073
:1035200020680368DB0638D5B26094F8353002684D
:10353000052B1AD122F016020260426922F08002A5
:103540004261226C0AB9A26C1AB1026822F0080228
:1035500002603F208840B060012084F83500216D72
:10356000002084F83400B9BB3BE0016852030CD45E
:10357000C9050ED4016821F010010160012084F812
:103580003500002084F8340003E0080301D4616CA6
:1035900000E0E16B09B120468847606D08B3606DBB
:1035A000C00717D0052084F835002068A90A0268F2
:1035B00022F00102026000BF009A01328A420092AA
:1035C00002D80268D207F7D1012084F83500002024
:1035D00084F83400E16C21B1204601B0BDE8F04030
:1035E000084701B0F0BD00002DE9F041044600F0AD
:1035F000D4F9C4B10546022084F8350000202168C2
:1036000084F83400086820F0010008602168086828
:10361000C0070BD000F0C1F9401B0528F6D90325DF
:103620002023032064E00120BDE8F081086848F20F
:103630003F02CFF21002D4E9013500EA020C04F196
:103640000C0898E8C10143EA0C032B431843D4E962
:10365000072E304338431043626A40EA0E00042AC2
:1036600040EA08031CD1206BD4E90A2E40EA0E0080
:10367000184308604869BEF1000F20F0030040EADB
:10368000020040F0040C11D0B8F5005F35D0B8F15D
:10369000000F42D1022A43D0012A38D0002A3EE04E
:1036A0000B60486920F0070040EA020C01F0F800C6
:1036B0004AF6AB221038CAF6AA22A0FB02231A0946
:1036C0004BF2BC13C1F814C0C0F600039A5C40F280
:1036D000FF335F284FF03F0021EA030100FA02F0B8
:1036E00088BF0431C4E91612886000230125002038
:1036F000636584F83550BDE8F081032AD6D80125EA
:1037000040230120DFE802F0020C0203F0E7AEF1F3
:10371000C070B0FA80F0400904E0032A04D3C5D198
:10372000CEF300600028C1D0012540230120DFE74F
:1037300090F834C0BCF1010F04BF0220704770B58F
:103740004FF0010C80F834C0D0F858E090F835C044
:10375000BCF1010F37D14FF0020C80F835C04FF0AB
:10376000000CC0F854C0D0F800C08468056CC06D6F
:10377000DCF80060402C26F48026CCF80060CCF801
:1037800004300B4604BF13460A463F2101FA00F0FD
:10379000CCF80830CCF80C20CEF80800DCF800009B
:1037A00040F01600CCF800002DB1DCF8000040F02D
:1037B0000800CCF80000DCF8000040F00100CCF874
:1037C0000000002070BD002180F83410022070BD80
:1037D000B0B5044600F0E1F8054640F2B020C2F270
:1037E00000000078611C18BF044400BF00F0D5F849
:1037F000401BA042FAD3B0BD2DE9F04F83B000F1D9
:10380000200200F13E4741F60045009207F1FF77A4
:10381000C4F2020508224FEAB726A84208BF0722D1
:1038200000254FF000084FF00009072E38BF4FEA7F
:10383000B72201920F68012202FA09FE17EA0E0A66
:1038400000F09980D1F804C003220CF003077E1E1B
:1038500002FA08F4012E6FEA040B11D88468CE68CE
:1038600004EA0B0406FA08F634438460446824EA48
:103870000E06CCF3001404FA09F42643466003E074
:10388000032F01D103271EE0C6688C6806EA0B06E9
:1038900004FA08F42643022FC66014D16FF0030225
:1038A000009E02EA590756F807C005F01C040F22D3
:1038B0000B69A2402CEA0202A3401A43F251D1F84C
:1038C00004C00CF00307026807FA08F302EA0B02CF
:1038D0001A431CF4403F02604DD0002243F64403DB
:1038E0000292C4F202031A6843F6004442F4804292
:1038F0001A601A68C4F2010402F480420292029A29
:1039000029F003024FF6084C2244CFF6FF7C52F810
:103910000C3005F00C070F26BE40B343019E06FA9B
:1039200007F73B4342F80C30A2684B6842EA0A07AB
:1039300043F60C4CDE0258BF22EA0A07A760C4F225
:10394000010CDCF800209E0242EA0A0758BF22EA76
:103950000A07CCF8007062689E0342EA0A0758BF63
:1039600022EA0A0767602268DB0342EA0A0758BFB7
:1039700022EA0A07276009F1010908F10208B9F1F2
:10398000100F05F104057FF455AF03B0BDE8F08FCB
:10399000002A08BF0904816170474AF25000C2F250
:1039A00000000068704740F2B0204AF25001C2F2B5
:1039B0000000C2F2000100780A68104408607047F5
:1039C00080B543F60040C4F20200016841F4007182
:1039D0000160016841F480610160016841F4807117
:1039E0000160032000F0BBF80F2000F004F800F0A5
:1039F0005AF8002080BD70B586B0002543F640011E
:103A00000195C4F202010A68044642F020020A60ED
:103A1000096801A801F0200101910199694600F0AF
:103A200058F9049E002E18BF012600F071F94DF6DA
:103A30008361B040C4F21B31A0FB01014FF0FF30A5
:103A400000EB914140F6604041F20042C2F20000BA
:103A5000C4F2000240F2E733C0E90021C0E902539A
:103A60000561856100F0BBFB0546C8B940F66040C2
:103A7000C2F2000000F0F9FB054688B9372000F0DB
:103A800033F80F2C0BD8372021460022002500F0F8
:103A90003BF840F2B420C2F20000046000E00125CF
:103AA000284606B070BD82B0002043F64001019068
:103AB000C4F202014A6842F480424A604A6802F451
:103AC00080420192019A00900868002240F08050E4
:103AD000086008680F2100F08050009000986FF097
:103AE000010002B000F010B800280CD400F01F0153
:103AF000012202FA01F11C2202EAD0004EF2001269
:103B0000CEF200028150704710B54EF60C5CCEF23A
:103B1000000CDCF80030C3F3022E8EF00704042CF6
:103B200028BF0424BEF103034FF0FF3E0EFA04F455
:103B300038BF0023A14399400EFA03F39A4311437F
:103B400000F00F0200F160430901043A03F56443F9
:103B50006244002848BF02F10C03197010BD4EF6F4
:103B60000C51CEF200010A684FF6FF031A4060F3D1
:103B70000A2242F0806040F0FD700860704700004B
:103B8000002872D02DE9F04143F60008C4F2020883
:103B90000446D8F800040D4600F00700884207D21A
:103BA00088F80054D8F8000400F00700A84266D155
:103BB0002068810717D5410705D5D8F8081041F4CA
:103BC000E051C8F80810010705D5D8F8081041F4ED
:103BD0006041C8F80810D8F80810A26821F0F00178
:103BE0001143C8F80810C00741D1D8F8000400F00C
:103BF0000700A84207D988F80054D8F8000400F05C
:103C00000700A8423BD12068410707D5D8F8081023
:103C1000E26821F4E0511143C8F80810000708D504
:103C2000D8F80800216920F4604040EAC100C8F8D3
:103C3000080000F093F8D8F808104BF22802C1F3FE
:103C40000311C0F60002515C40F2582220FA01F143
:103C500040F2B420C2F200000068C2F2000211601B
:103C6000FFF7C9FE0020BDE8F081012070476068C1
:103C7000811E022906D2D8F80010890108D401203B
:103C8000BDE8F08101281FD1D8F800108903F6D5CE
:103C9000D8F8081021F003010843C8F80800FFF71E
:103CA0007CFE064641F28837D8F80800616800F0CB
:103CB0000C00B0EB810F98D0FFF76FFE801BB8426D
:103CC000F2D90320BDE8F081D8F800108907D6D5D5
:103CD000DEE70F22026043F60802C4F20202136814
:103CE00003F003034360136803F0F0038360136879
:103CF00003F4E053C360D2F800C04FF4E05303EA8A
:103D0000DC030361D2F8F80300F007000860704795
:103D100040F2582043F60801C2F20000C4F202014A
:103D2000006809684BF23802C1F38221C0F6000234
:103D3000515CC840704740F2582043F60801C2F277
:103D40000000C4F20201006809684BF23802C1F3B6
:103D50004231C0F60002515CC840704710B543F6CE
:103D60000404C4F20204606800F00C0142F2004056
:103D70000829C0F2F40007D0042918BF10BD41F291
:103D80000020C0F27A0010BD216801F03F022168D6
:103D900023684902C3F3881105D4A1FB0001002365
:103DA000FCF71EFA06E041F20020C0F27A00484318
:103DB000B0FBF2F021680222C1F3014102EB4101A4
:103DC000B0FBF1F010BD000000286BD02DE9F041F0
:103DD00082B00446007843F60006C007C4F202062B
:103DE0000CD0B06800F00C00042840F098803068D7
:103DF000800303D56068002800F0AB80207880073E
:103E00001BD5B06810F00C0F09D0B06800F00C00A2
:103E1000082840F0A0807068400200F19C80306863
:103E2000800703D5E068012840F09380306821695D
:103E300020F0F80040EAC10030602078000733D459
:103E40002078400745D4A56955B3B06800F00C0050
:103E5000082840F0B980012D7BD07068E16900F43A
:103E600080028A4275D1216A00F03F028A4270D1F5
:103E700047F6C071626A0140B1EB821F69D1A16A45
:103E80004FF6FF73C903994300F44032A1F5803126
:103E90008A425ED1E16A00F07060B0EB016F58D1E8
:103EA0000020F3E0012070476069002878D00020EE
:103EB000C4F247200121C0F8801EFFF76EFD0546C1
:103EC000706F8007BCD4FFF768FD401B0228F7D94C
:103ED000DBE0306C5FEAC0080AD400200190306C4F
:103EE00040F080503064306C00F0805001900198B8
:103EF00047F20007C4F200073868C00542D43868AA
:103F000040F480703860FFF748FD05463868C0050A
:103F100038D4FFF742FD401B0228F7D9B5E0B0685E
:103F200000F00C00082803D1706840023FF55FAF35
:103F300061683068B1F5803F07D0B1F5A02F40F03F
:103F40008E8040F480203060306840F480303060F3
:103F50008EE001209AE0E068002840F20000C4F200
:103F6000472053D001210160FFF717FD054600BF30
:103F7000306880073FF55AAFFFF70FFD401B02285E
:103F8000F6D982E0A168306F012905D005294FD10B
:103F900040F004003067306F40F00100306750E0BF
:103FA0000020C4F247200021C0F8801EFFF7F5FC76
:103FB000054600BF706F80077FF542AFFFF7EDFC4D
:103FC000401B0228F6D960E00027C4F247270020F2
:103FD0003866FFF7E2FC022D05460BD13068800100
:103FE00057D5FFF7DAFC401B02284FF00300F5D944
:103FF0004CE000BF306880017FF552AFFFF7CDFC89
:10400000401B02284FF00300F4D93FE0002101607B
:10401000FFF7C3FC054600BF306880077FF50DAF92
:10402000FFF7BBFC401B02284FF00300F4D92DE042
:1040300020F001003067306F002920F00400306765
:1040400048D0FFF7AAFC054641F28837306F800759
:1040500051D4FFF7A2FC401BB842F7D915E020F479
:10406000803030603068002920F4802030604BD0F0
:10407000FFF793FC054600BF306880033FF5BEAEF6
:10408000FFF78BFC401B6428F6D9032002B0BDE883
:10409000F08104F11C052FCD084340EA8210D903BA
:1040A0004FF6FF729143A1F5803140EA0560084365
:1040B000706001203866FFF770FC044630688001AC
:1040C0003FF5EEAEFFF769FC001B02284FF003003E
:1040D000F4D9DBE7FFF761FC054641F2883700BF02
:1040E000306F800707D5FFF758FC401BB8424FF0F0
:1040F0000300F5D9CAE7B8F1000F3FF5A4AE306C64
:1041000020F0805030649EE6FFF747FC054600BF74
:10411000306880037FF572AEFFF73FFC401B6428D8
:104120004FF00300F4D9B1E77047704790F83C2096
:10413000012A4FF0020250D010B580F83D200268ED
:10414000D2F804E0D2F808C00C682EF070032343C4
:1041500041F2FF74C4F20004A24253600BDC40F24F
:10416000FF73C4F200039A4213DCB2F1804F27D0F0
:1041700040F2004315E040F2FF33C4F201039A42DB
:1041800012DC41F60003C4F200039A4218D0002367
:1041900012E040F60003C4F200039A4210D040F649
:1041A0000043C4F2000309E044F20003C4F2010337
:1041B0009A4205D040F20043C4F201039A4204D16E
:1041C00049682CF08003194391600121002280F896
:1041D0003D1080F83C20BDE810401046704740B3C9
:1041E00010B5044690F83D0028B9002084F83C0042
:1041F000204600F020F8022084F83D002068211DB0
:1042000001F084FF012084F8460084F83E0084F821
:104210003F0084F8400084F8410084F8420084F8AC
:10422000430084F8440084F8450084F83D000020F1
:1042300010BD01207047006840F60001C4F2000183
:10424000884218BF704781B00020009043F64000BC
:10425000C4F20200016841F004010160006800F04E
:1042600004000090009801B0704790F83D100129BB
:104270001CBF01207047022180F83D10006841F208
:10428000FF72C168C4F20002904241F00101C160B6
:104290000BDC40F2FF71C4F20001884213DCB0F184
:1042A000804F27D040F2004115E040F2FF31C4F2C8
:1042B0000101884212DC41F60001C4F2000188428B
:1042C00018D0002112E040F60001C4F2000188423B
:1042D00010D040F60041C4F2000109E044F20001B0
:1042E000C4F20101884205D040F20041C4F201014C
:1042F000884204D1816801F00701062903D00168D2
:1043000041F0010101600020704790F83C20012A33
:104310004FF002026BD080B580F83D20D0F800C08D
:104320004FF67772DCF8083023EA0202CCF8082056
:104330000B684F2B28DC1F2B44DD202B45D0302B66
:1043400043D0402B40F0AC80D1F804E0C968DCF8E1
:104350002030DCF8202022F00102CCF82020DCF80C
:10436000182022F0F00242EA011123F00A0242EA88
:104370000E02CCF81810CCF82020DCF8081041F020
:10438000470121F0300127E06F2B32DDB3F5005FEC
:1043900073D0B3F5805F21D0702B40F08180D1E9DC
:1043A00001E3C968DCF8082043EA0E0322F47F42E7
:1043B00043EA01211143CCF80810DCF8081041F061
:1043C000770109E00BB1102B6AD1DCF8081021F05D
:1043D0007001194341F00701CCF8081000220121B7
:1043E00080F83D10002180F83C10BDE88040104668
:1043F0007047502B21D0602B52D1D1F804E0C9680E
:10440000DCF82030DCF8202022F01002CCF820204C
:10441000DCF8182022F4704242EA013123F0A002B5
:1044200042EA0E12CCF81810CCF82020DCF8081064
:1044300041F0670121F01001CEE7D1F804E0C9682E
:10444000DCF82030DCF8202022F00102CCF820201B
:10445000DCF8182022F0F00242EA011123F00A02EF
:1044600042EA0E02CCF81810CCF82020DCF8081034
:1044700041F0570121F02001AEE7D1E901E3C9681D
:10448000DCF8082043EA0E0322F47F4243EA0121CC
:104490001143CCF80810DCF8081041F480419BE788
:1044A00001229CE7704770B504460068C56806693C
:1044B000B10716D515F0020113D06FF002010161AA
:1044C000012121778069800703D02046FFF7EAFFAA
:1044D00005E0204600F0B5F8204600F02CF9002059
:1044E0002077700718D515F0040015D020686FF0FC
:1044F0000401016102212177806910F4407F03D01B
:104500002046FFF7CFFF05E0204600F09AF820464E
:1045100000F011F900202077300717D515F00800BA
:1045200014D020686FF00801016104212177C0696F
:10453000800703D02046FFF7B5FF05E0204600F0D6
:1045400080F8204600F0F7F800202077F00618D514
:1045500015F0100015D020686FF0100101610821DE
:104560002177C06910F4407F03D02046FFF79AFFFF
:1045700005E0204600F065F8204600F0DCF8002059
:104580002077F00718BF15F0010006D020686FF003
:1045900001010161204600F04EF9300609D515F001
:1045A000800006D020686FF0800101612046FFF78F
:1045B000BBFD700609D515F0400006D020686FF0ED
:1045C00040010161204600F040F9B00658BF70BDBF
:1045D00015F0200008D021686FF0200220460A6103
:1045E000BDE87040FFF7A1BD70BDB0B586B0044610
:1045F00040F6000501A81421C4F20005FBF76BFE8C
:104600002068A8421BD1002043F630010090C4F27C
:1046100002010A6842F008020A60096801F0080114
:10462000009100994FF4704101910221CDE90210EF
:10463000CDE9040105F5013001A9FFF7DDF806B069
:10464000B0BD7047B0B5044690F83C00012804BFE7
:104650000220B0BD0D464FEAB2010120032984F8C3
:104660003C0037D8DFE801F002220A1A2068294608
:1046700001F0E2FD206850F8181F06E02068294686
:1046800001F03FFE206850F81C1F41F00801016056
:10469000016821F004010160296917E020682946BA
:1046A00001F062FE206850F81C1F06E020682946D1
:1046B00001F0F3FD206850F8181F41F4006101601B
:1046C000016821F4806101602969090202681143CF
:1046D00001600020002184F83C10B0BD40B310B54B
:1046E000044690F83D0028B9002084F83C0020469C
:1046F00000F020F8022084F83D002068211D01F020
:1047000005FD012084F8460084F83E0084F83F004F
:1047100084F8400084F8410084F8420084F84300A3
:1047200084F8440084F8450084F83D00002010BD62
:104730000120704770477047A1B1042904D00829AF
:1047400014BF4122402200E03F22825C012A11D1A5
:104750000222082910D0042914BF80F8412080F8D3
:104760003F200BE090F83E20012A03D1022280F87E
:104770003E2003E00120704780F84020006801F0EF
:104780001F010122036A02FA01F123EA0102026217
:10479000026A114341F2FF72C4F2000290420162C8
:1047A0000BDC40F2FF71C4F20001884213DCB0F16F
:1047B000804F35D040F2004115E040F2FF31C4F2A5
:1047C0000101884214DC41F60001C4F20001884274
:1047D00026D0002114E040F60001C4F20001884216
:1047E0001ED040F60041C4F20001884218D01CE0FF
:1047F00044F20001C4F20101884211D040F20041AC
:10480000C4F20101884210D1416C40F2004340F4EF
:104810008062C4F2010341F400419A42416404D130
:10482000816801F00701062903D0016841F0010108
:10483000016000207047006841F20041C4F20001AD
:10484000884218BF7047FFF7AEB8704770B582B0A6
:10485000044690F84200202820D14FF00105F1B124
:10486000EAB1002620462563666301F04FFF206B06
:10487000012814D1019620680168019140680190D7
:10488000019800BF206850E8030F216840F0100035
:1048900041E80302002AF5D1002500E00225284660
:1048A00002B070BD10B5044640F6A840C2F2000048
:1048B00084421BD040F6F040C2F2000084421AD07D
:1048C00040F63850C2F20000844219D040F68050C1
:1048D000C2F20000844218D040F6C850C2F2000074
:1048E000844217D0FEF7D4F9002017E042F6F0100A
:1048F000C2F2000012E042F60020C2F200000DE019
:1049000042F61020C2F2000008E042F62020C2F277
:10491000000003E042F63020C2F20000E16B0968BB
:104920004968C1810189C289891A418110BD7047D6
:10493000B0B582B0044600680168C368426901F0FE
:104940002F05202D03F0200506D12DB1204602B001
:10495000BDE8B04001F00ABE5FEA017C1EBF02F074
:10496000010E03F4907212EB0E026ED1226BCD0693
:1049700043D5012A41D113F010023ED0002101910C
:10498000016801914168019101994069400600F177
:10499000CB80A08DE18DE28D002A00F01581884248
:1049A00000F01281401A00BF216851E8031F2268FD
:1049B00021F4907142E80313002BF5D1216851E8EE
:1049C000051F226821F0010142E80513002BF5D1F3
:1049D000202184F842100021216300BF216851E8A2
:1049E000031F226821F0100142E80313002BF5D1C8
:1049F000022281B220466263DCE00A0640F1828036
:104A000013F0800200F07E8094F84110212940F0DC
:104A1000DB80A168B1F5805F03D12169002900F036
:104A2000DB80216A4A1C226209784160E18C0139ED
:104A30000A04E18440F0C880C16821F08001C160AF
:104A4000C16841F04001C160BEE0CA0718BF13F45D
:104A5000807203D0626C42F0010262644A0706D59C
:104A6000BEF1000F03D0626C42F0020262648A075A
:104A700006D5BEF1000F03D0626C42F004026264FE
:104A8000BCF1000F06D55EEA050203D0626C42F06D
:104A900008026264626C002A00F09680890604D5E0
:104AA0001DB1204601F062FD20684069616C00F094
:104AB000400001F00801401800F08180204601F01C
:104AC0002DFD20684069400640F18080206850E854
:104AD000050F216820F0400041E80502002AF5D1C9
:104AE000E06B002872D046F2CF31C0F600010165BC
:104AF000FEF7A4FC002867D0E06B016D02B0BDE8B2
:104B0000B040084749065FD513F040015CD0C1684A
:104B100021F04001C1602021204684F8411002B0FC
:104B2000BDE8B04000F0C4BBE06B016849688AB2E0
:104B3000002A49D0A38D9A4246D2E185C069B0F5DA
:104B4000807F30D0206850E8030F216820F4807007
:104B500041E80302002AF5D1206850E8050F2168DA
:104B600020F0010041E80502002AF5D1206850E854
:104B7000050F216820F0400041E80502002AF5D128
:104B8000202084F842000020206300BF206850E805
:104B9000030F216820F0100041E80302002AF5D13C
:104BA000E06BFEF70BFC02206063A08DE18D401AE4
:104BB00081B2204602B0BDE8B040FFF773BE204688
:104BC000FFF7B5FE0020606402B0B0BD204602B021
:104BD000BDE8B040FFF7ABBE216A31F8022B6FF39E
:104BE0005F224260216221E758B310B5044690F875
:104BF000410028B9002084F84000204600F023F846
:104C0000242084F841002068C16821F40051C1606B
:104C1000204601F00CFD2068016921F490410161FA
:104C2000416921F02A014161C16841F40051C1602C
:104C300000202021606484F8411084F842106063F1
:104C400010BD012070472DE9F04F87B0044602A83F
:104C50001421FBF740FB206844F6FF71C4F2000109
:104C6000884200F3818044F20041C4F2000188428E
:104C700000F0BE8044F60001C4F20001884200F05A
:104C8000A58144F60041C4F20001884240F07882D8
:104C9000002643F630000196C4F20200016946F294
:104CA000100841F4002101610169C4F2020801F415
:104CB0000021019101990196016841F00401016010
:104CC000006802A900F00400019001984FF44060D0
:104CD00002900220CDE903060320059008200690EB
:104CE0000020C4F2020000F50060FEF785FD40F6EA
:104CF000B80508F16000C2F200054FF000674021DE
:104D0000C5E9000705F108004FF4806980E8420218
:104D100005F114001421FBF7DEFA2846FEF764FCC7
:104D200008B1FDF7B5FFA563AC6340F6580508F17F
:104D30003000C2F200054FF48071C5E90007284633
:104D4000C5E90266C5E90496C5E90661C5E90866D4
:104D5000FEF74AFC08B1FDF79BFFE563AC63342026
:104D600000210022342406E245F20001C4F20001D1
:104D7000884200F0A68041F20001C4F2010188429D
:104D800000F0908141F20041C4F20101884240F0FC
:104D9000F781002043F630010190C4F202014A6914
:104DA00042F020024A614A6902F020020192019A0F
:104DB00001900A6842F004020A60096801F00401E7
:104DC00001910199C02102910221CDE90310032034
:104DD0000590082006900020C4F2020000F5006053
:104DE00002A9FEF709FD4720052100224724C2E160
:104DF000002643F630000196C4F20200016946F233
:104E0000100841F4003101610169C4F2020801F4A3
:104E10000031019101990196016841F001010160A1
:104E2000006802A900F00100019001980C20029096
:104E30000220CDE9030603200590072006900020FC
:104E4000C4F20200FEF7D8FC40F6F82508F1900005
:104E5000C2F200054FF000674021C5E9000705F1E7
:104E600008004FF4806980E8420205F11400142123
:104E7000FBF731FA2846FEF7B7FB08B1FDF708FF4C
:104E8000A563AC6340F6982508F17800C2F20005EE
:104E90004FF48071C5E900072846C5E90266C5E9F7
:104EA0000496C5E90661C5E90866FEF79DFB08B1F1
:104EB000FDF7EEFEE563AC632620002100222624E8
:104EC00059E1002643F630000196C4F20200016960
:104ED000002741F4801101610169C4F2020701F465
:104EE0008011019101990196016802AD41F0040120
:104EF0000160016846F2100801F004010191019976
:104F0000019601684FF0020941F008010160006854
:104F10004FF0030A00F00800019001984FF4805010
:104F200002904FF0080B07F500602946C4F2020812
:104F3000CDE90396CDF814A0CDF818B0FEF75CFCCF
:104F40000420CDE9020904A880E8400C07F5406080
:104F50002946FEF751FC40F6781508F1A800C2F288
:104F600000054FF000674021C5E9000705F1080082
:104F70004FF4806980E8420205F114001421FBF728
:104F8000AAF92846FEF730FB08B1FDF781FEA563BC
:104F9000AC6340F61815C2F200054FF48070C5E905
:104FA00006602846C5E90087C5E90266C5E904969A
:104FB000C5E90866FEF718FB08B1FDF769FEE56371
:104FC000AC633520002100223524D4E0002643F6CE
:104FD00030000196C4F20200016946F2100841F463
:104FE000802101610169C4F2020801F4802101916C
:104FF00001990196016841F002010160006802A96F
:1050000000F00200019001984FF4406002900220ED
:10501000CDE9030603200590072006900020C4F286
:10502000020000F58060FEF7E7FB40F6B83508F1B6
:105030004800C2F200054FF000674021C5E90007B3
:1050400005F108004FF4806980E8420205F1140080
:105050001421FBF740F92846FEF7C6FA08B1FDF720
:1050600017FEA563AC6340F6583508F11800C2F28C
:1050700000054FF48071C5E900072846C5E90266BE
:10508000C5E90496C5E90661C5E90866FEF7ACFA0C
:1050900008B1FDF7FDFDE563AC6327200021002288
:1050A000272468E0002643F630000196C4F202008F
:1050B000416946F2100841F0100141614169C4F2B2
:1050C000020801F01001019101990196016841F077
:1050D00001010160006802A900F00100019001983F
:1050E0004FF4C06002900220CDE903060320059032
:1050F000072006900020C4F20200FEF77DFB40F678
:10510000382508F59560C2F200054FF00067402190
:10511000C5E9000705F108004FF4806980E8420204
:1051200005F114001421FBF7D6F82846FEF75CFAC7
:1051300008B1FDF7ADFDA563AC6340F6D81508F5E1
:105140008660C2F200054FF48071C5E90007284669
:10515000C5E90266C5E90496C5E90661C5E90866C0
:10516000FEF742FA08B1FDF793FDE563AC63252035
:10517000052100222524FEF7C7FC2046FEF7B4FCDB
:1051800007B0BDE8F08F7047704700002DE9F0418F
:10519000044690F8410020281CBF0220BDE8F081A1
:1051A0000D464FF00100E1B31746D2B30020606412
:1051B0002120984684F84100FEF7EFFBA784E7849E
:1051C000A1680746B1F5805F01D1206988B32E46FA
:1051D000002500BFE08CC0B1204680213A464346FE
:1051E00001F0E0FAF8B92EB116F8010B2168486019
:1051F00007E000BF35F8020B21686FF35F204860BD
:105200000026E08C0138E084E4E7204640213A465D
:10521000434601F0C7FA202184F84110002818BF46
:105220000320BDE8F081202084F841000320BDE880
:10523000F0810026CEE70000B0B5044690F84100AA
:1052400020281CBF0220B0BD4FF0010079B31346E7
:105250006AB34FF0000C21202162A384E384C4F8D8
:1052600044C084F84100A06B46F2D94E46F217556F
:105270002268C0F6000EC0F60005C0E90FE546F250
:10528000DD35C0F600050432C0E9135CFEF750FAC4
:1052900020686FF040010160206850E8050F216828
:1052A00040F0800041E80502002AF5D10020B0BDA1
:1052B000704770472DE9F04F81B04FF000090DF1B4
:1052C000030102208DF8039001F093FE002855D0D1
:1052D00040F2FC4640F26827C2F20006C2F2000724
:1052E0000DF103044FF0050A4FF0010B4FF00008D9
:1052F000307805281AD0012808D098BB9DF8030003
:105300007978884208BF86F800B02DE09DF8030048
:10531000B978884226D1082087F80090F87078780C
:10532000B9780844387286F800A01DE09DF8031093
:1053300078683A78531C3B7081543B78FD783A7A10
:10534000AB4218D991420DD141F2C051C2F20001D5
:105350000A683AB1F9789047022001F03DFE4FF01B
:10536000010800BF86F800900220214601F041FEAE
:105370000028BDD104E050183872F5E74FF000085E
:105380005FFA88F001B0BDE8F08F0000FEE7000092
:105390002DE9F04381B04FF000090DF10301012028
:1053A0008DF8039001F025FE002865D040F20456E8
:1053B00040F2902741F2C458C2F200060DF10304F6
:1053C000C2F20007C2F20008002500BF31780020B9
:1053D000072949D8DFE801F0042B480B4830401B6F
:1053E0009DF80300797888423FD101203CE087F89E
:1053F00000907878F9789DF80320084410443872BA
:10540000786839784B1C3B70425405202CE09DF89D
:105410000300797A88424FF0000025D1D8F80020A7
:1054200012B37868F9789047012500201CE09DF8B8
:105430000300F870032017E09DF8030079683A78BC
:10544000531C3B708854397A084438723878F9789C
:1054500088420AD3072007E09DF80300397A884282
:105460004FF0000008BF072030700120214601F0F6
:10547000C0FD0028AAD100E00025E8B201B0BDE8D7
:10548000F083000010B50246481E44F25274C0B2C8
:10549000C0F24204C300032838BF24FA03F140F2EB
:1054A0000554C2F20004CBB209A1204604F034FF37
:1054B0002046FAF71BFF82B2B2F5006F28BF4FF407
:1054C000006201202146BDE8104001F0B4BD00BFDC
:1054D0006D6F64653D2564256300000080B540F66E
:1054E000080046F20041C2F20000C4F200010322AB
:1054F000002380E80E0000F10C014FF4102C4FF453
:10550000001E81E8085083618383FDF70FFE18B108
:10551000BDE88040FDF7BCBB80BD80B540F63000E3
:1055200046F60001C2F20000C4F200010C22002382
:1055300080E80E0000F10C014FF4003C4FF4001E17
:1055400081E808504FF480710183C0F81A30FDF7EC
:10555000EDFD18B1BDE88040FDF79ABB80BD80B578
:1055600082B0002043F630010190C4F202010A68C3
:1055700042F400120A600A6802F400120192019AD1
:1055800000900868002240F480000860086800214C
:1055900000F48000009000980B20FEF7B5FA0B2075
:1055A000FEF7A2FA0C2000210022FEF7ADFA0C2033
:1055B000FEF79AFA0D2000210022FEF7A5FA0D2031
:1055C000FEF792FA0E2000210022FEF79DFA0E202F
:1055D000FEF78AFA0F2000210022FEF795FA0F202D
:1055E000FEF782FA102005210022FEF78DFA102026
:1055F000FEF77AFA112005210022FEF785FA112024
:10560000FEF772FA2F2005210022FEF77DFA2F20E7
:10561000FEF76AFA3A2005210022FEF775FA3A20D1
:10562000FEF762FA462005210022FEF76DFA4620B9
:1056300002B0BDE88040FEF757BA80B54BF250008B
:10564000C0F6000001F086FF40F21061C2F20001D6
:105650004BF260020860C0F600020120042101F054
:105660001FFF40F21861C2F200014BF29002086085
:10567000C0F600020120042101F012FF40F2206177
:10568000C2F200014BF278020860C0F6000201206D
:10569000042101F005FF40F21C61C2F200014BF24F
:1056A000A8020860C0F600020120012101F0F8FE06
:1056B00040F22461C2F20001086042F6D1004BF2D0
:1056C0000812C0F60000C0F60002002101F097FFAA
:1056D00040F29071C2F20001086042F6E1004BF224
:1056E0002C12C0F60000C0F60002002101F087FF76
:1056F00040F29471C2F20001086042F68D004BF254
:10570000C002C0F60000C0F60002002101F077FFE1
:1057100040F28871C2F20001086042F6E5004BF2E7
:105720005012C0F60000C0F60002002101F067FF31
:1057300040F29871C2F20001086042F6E9004BF2B3
:105740007412C0F60000C0F60002002101F057FFFD
:1057500040F29C71C2F20001086042F6C5004BF2B3
:10576000E402C0F60000C0F60002002101F047FF8D
:1057700040F28C71C2F20001086042F615104BF243
:105780009812C0F60000C0F60002002101F037FFB9
:1057900040F2A071C2F2000108604BF24000C0F676
:1057A000000001F03BFE40F2F441C2F2000108604B
:1057B00080BD2DE9F04786B00DF104084046142164
:1057C000FAF789FD002743F630000097C4F2020083
:1057D0000168002541F0040101600168C4F202057E
:1057E00001F00401009100990097016805F5006639
:1057F00041F0800101600168012201F08001009107
:105800000099009701684FF4005941F001010160CF
:105810000168012401F001010091009900970168DD
:1058200041F002010160016801F00201009100995C
:105830000097016841F00801016000684FF40051D1
:1058400000F00800009000983046FEF7A1F82846C6
:10585000132100224FF0130AFEF79AF83046414612
:10586000CDE90194CDE90377FDF7C6FF284641460F
:10587000CDE901A4CDE90377FDF7BEFF4FF4004069
:10588000CDE90107284641460394FDF7B5FF06B070
:10589000BDE8F08710B58EB0002401A81C210D943E
:1058A000CDE90B44CDE90844FAF715FD40F6184060
:1058B00040F60001C2F20000C4F2000142F20F7390
:1058C000A72280E81600C0E903348461FEF787FC54
:1058D00008B1FDF7DDF94FF480500A9040F618400A
:1058E000C2F200000AA9FEF710FD08B1FDF7D0F9D9
:1058F00040F61840C2F20000FEF7F0FE08B1FDF7D6
:10590000C7F940F618400024C2F2000008A9CDE90A
:105910000844FEF70BFC08B1FDF7BAF96020CDE9A9
:10592000010440F61840C2F2000001A900220394CD
:105930000594FEF787FE08B1FDF7AAF940F6184076
:10594000C2F2000001A90422FEF77CFE08B1FDF7B7
:105950009FF940F61840C2F2000001A90822FEF7A4
:1059600071FE08B1FDF794F940F61840C2F200004C
:1059700001A90C22FEF766FE08B1FDF789F940F691
:105980001840C2F20000FEF730FE0EB010BD80B528
:1059900040F6805044F60041C2F20000C4F200011B
:1059A00000234FF00C0C4FF4E13280E80E00C0E908
:1059B0000333C0E905C3C361FFF716F918B1BDE8A9
:1059C0008040FDF765B980BD80B540F6C85045F20E
:1059D0000001C2F20000C4F2000100234FF00C0CE1
:1059E0004FF4165280E80E00C0E90333C0E905C346
:1059F000C361FFF7F9F818B1BDE88040FDF748B979
:105A000080BD80B540F6A84041F20001C2F200001E
:105A1000C4F2010100234FF00C0C4FF4613280E816
:105A20000E00C0E90333C0E905C3C361FFF7DCF82A
:105A300018B1BDE88040FDF72BB980BD80B540F6B8
:105A4000F04044F20041C2F20000C4F20001002321
:105A50004FF00C0C4FF4E13280E80E00C0E9033344
:105A6000C0E905C3C361FFF7BFF818B1BDE88040C6
:105A7000FDF70EB980BD80B540F6385044F6000100
:105A8000C2F20000C4F2000100234FF00C0C4FF4EE
:105A9000E13280E80E00C0E90333C0E905C3C36109
:105AA000FFF7A2F818B1BDE88040FDF7F1B880BD5E
:105AB00080B540F6106041F20041C2F20000C4F22D
:105AC000010100234FF00C0C4FF4E13280E80E008E
:105AD000C0E90333C0E905C3C361FFF785F818B116
