:020000040800F2
:1000000080AC0020A1010008115C00085D520008CE
:10001000CD5A00087D290008696D00080000000025
:100020000000000000000000000000002163000844
:10003000CB2A000800000000915D0008C5010008FF
:10004000BB010008BB010008BB010008BB010008A0
:10005000BB010008BB010008BB010008BB01000890
:10006000BB010008BB010008BB010008532A0008BF
:100070005F2A00086B2A0008772A0008832A0008F4
:100080008F2A00089B2A0008BB010008BB0100085A
:100090007F290008BB010008BB010008BB01000864
:1000A000BB010008BB010008BB010008BB01000840
:1000B000BB010008BB010008BB010008BB01000830
:1000C000BB010008BB010008BB010008BB01000820
:1000D000BB010008376D0008436D00084F6D000834
:1000E000BB010008BB010008BB010008BB01000800
:1000F000BB010008BB010008BB010008A72A0008DB
:10010000BB010008BB010008BB010008BB010008DF
:10011000CF680008DB680008BB010008196600080A
:10012000BB010008BB010008B32A0008BB0100089E
:10013000BB010008BB010008BB010008BB010008AF
:10014000DF290008BB010008BB010008BB01000853
:10015000BB010008BB010008BF2A00085B6D000856
:10016000BB010008BB010008BB010008BB0100087F
:10017000BB010008BB010008BB0100080000000033
:10018000BB010008BB010008DFF810D000F03EFC06
:1001900000F0D8F8004800476178000880AC0020E3
:1001A0000648804706480047FEE7FEE7FEE7FEE711
:1001B000FEE7FEE7FEE7FEE7FEE7FEE7076600086C
:1001C0008901000830B410B50348804730BCAE4602
:1001D00030BC024800477047BD7B000841650008FD
:1001E0002DE9F05F0546002092469B46884606466C
:1001F000814640241BE0284641464746224600F0FF
:10020000E7FA53465A46C01A914110D31146184690
:10021000224600F0CEFA2D1A67EB01084F4622461F
:100220000120002100F0C5FA17EB00094E41201E05
:10023000A4F10104DFDC484631462A464346BDE8C6
:10024000F09F2DE9F0410024061B254671F10006C0
:1002500005DA01240027D0EB070067EB0101161E29
:1002600073F1000605DA0027D2EB0702012567EBE0
:100270000303FFF7B5FF86460E4617469C46AC4281
:1002800004D00025D0EB050E65EB010624B100205B
:10029000D2EB000760EB030C704631463A466346EA
:1002A000BDE8F08140EA01039B0703D009E008C9DB
:1002B000121F08C0042AFAD203E011F8013B00F82B
:1002C000013B521EF9D27047D2B201E000F8012B77
:1002D000491EFBD270470022F6E710B513460A46C6
:1002E00004461946FFF7F0FF204610BD421C10F8E7
:1002F000011B0029FBD1801A7047034611F8012B1E
:1003000000F8012B002AF9D11846704730B5054690
:100310000020034600E05B1C934205D2EC5CC85C05
:10032000201A01D1002CF6D130BD70B506460AF076
:1003300093FA046805460A220021304600F06AFA62
:100340002C6070BD7CB507480090074801900546B9
:10035000009C04E02046016808448047241DAC420C
:10036000F8D17CBD70BC000874BC00082DE9FE4FBC
:10037000804681EA0300C00F0C46009021F0004146
:1003800023F00045B8EB0200A94105D240462146C2
:1003900090461C460B46024623F00040104347D0CF
:1003A000270DC7F30A00C3F30A510290401A0190C7
:1003B00040286BDAC3F3130040F4801B0098924688
:1003C00020B10023D2EB030A63EB0B0B01985946D3
:1003D000C0F14002504600F0ECF906460D4650468A
:1003E0005946019A00F004FA10EB0800614100241C
:1003F00087EA115284EAE7731A4340D0009A62B345
:10040000019A012A4FEA075215DC001B61EB020139
:100410004FF0004202EA0752CDE90042001C41F5CC
:10042000801132462B4600F073FA03B0BDE8F08F1E
:1004300040462146F9E7001B61EB0201001C41F533
:10044000801300185B412018A2F5001747EB030149
:1004500040EAD570B6196D4111E06D084FEA3606D5
:1004600045EAC0754FEA0752001B61EB0201001C10
:1004700041F5801149084FEA3000001951413246D8
:100480002B4603B0BDE8F04F00F033BA00980122CC
:1004900040000023D0EB020263EBE073009821469A
:1004A0004FEAE074B8EB000061EB0401E9E783F088
:1004B00000435BE781F0004158E72DE9FE4F81EAF8
:1004C000030404F0004421F0004100944FF0000BBD
:1004D00023F0004350EA01045ED052EA03045BD0EB
:1004E000C3F30A54C1F30A552C44A4F2F334019423
:1004F000A0FB0254C1F3130141F48011C3F31303B1
:1005000043F4801301FB024400FB034E840A970A64
:1005100044EA815447EA8357A4FB076802958D0A91
:1005200005FB07854FEA932C04FB0C542705029D1D
:100530004FEA065847EA1637B5EB08056EEB070C8D
:10054000870E920E47EA811742EA8312A7FB020147
:10055000B6EB0B0164EB00042B0D43EA0C335E1881
:1005600044EB1C50DA465146E7FB0201C5F3130485
:100570004FEA0B3343EA14534FEA0432019C43EA37
:100580000603A4F10C040294009CCDE900B400F031
:10059000BFF903B0BDE8F08F00200146F9E72DE96F
:1005A000F04D81EA030404F0004B21F000451446AD
:1005B0004FF0000A23F0004150EA050220D054EA2F
:1005C00001021DD0C5F30A570246C5F31303C1F358
:1005D0001300C1F30A5640F4801543F48013A7EBCF
:1005E0000608101BD64608F2FD3873EB050002D34F
:1005F00008F1010801E092185B41B8F1000F03DA3D
:1006000000200146BDE8F08D00204FF48011064621
:1006100084460EE0171B73EB050705D3121B63EB33
:10062000050306434CEA010C49084FEA30009218D2
:100630005B4150EA0107EDD152EA030012D082EA91
:10064000040083EA0501084305D0101BAB4106D224
:100650000122002306E000224FF0004302E06FF089
:10066000010253101AEB06004CEB085110EB0A0084
:1006700041EB0B01BDE8F04D00F03BB90EB5C10FE9
:1006800080EAE0700844CA07002140F233438DE855
:100690000E000A460B4600F03BF903B000BD0EB554
:1006A00040F2334102910021CDE900110A460B4688
:1006B00000F02EF903B000BD70B5C1F30A5201F08D
:1006C00000450024C1F3130140F2FF3341F48011CF
:1006D0009A4201DA002070BD40F233439A42A2F2FE
:1006E000334203DC524200F073F800E090402C43A8
:1006F000F1D0404270BDC1F30A5210B5C1F31301ED
:1007000040F2FF3341F480119A4201DA002010BD1B
:1007100040F233439A42A2F2334203DC524200F0E9
:1007200057F810BD904010BD00F0004230F000407E
:100730000AD0C10D01F56071C0F3160042EA015103
:10074000C20840071143704700200146704701F07E
:10075000004330B421F0004150EA010206D00A0DF6
:10076000A2F56072C1F31301002A02DC30BC002044
:100770007047440F44EAC104C100E01830BC00EBEC
:10078000C25000F07FB830B50B4601460020202251
:10079000012409E021FA02F59D4205D303FA02F58E
:1007A000491B04FA02F52844151EA2F10102F1DCEE
:1007B00030BD202A04DB203A00FA02F10020704705
:1007C0009140C2F1200320FA03F31943904070478F
:1007D000202A04DB203A21FA02F00021704721FA96
:1007E00002F3D040C2F120029140084319467047FD
:1007F000202A06DBCB17203A41FA02F043EAE073E5
:1008000006E041FA02F3D040C2F1200291400843D1
:10081000194670472DE9F04791460F468046044639
:10082000002614F8015B2DB100F008F90068405D66
:10083000C007F6D12B2D02D02D2D18D0641E4A46AC
:100840003946204600F0FEF827B13968A14201D1AF
:10085000C7F8008071054FF002040BD54042002814
:1008600003DD09F0F9FF0460A007BDE8F08746F456
:100870008066E4E70028F8DA09F0EEFF04606FF024
:100880000040F2E70029A8BF7047401C490008BF9C
:1008900020F00100704710B4B0FA80FC00FA0CF0B0
:1008A00050EA010404BF10BC704749B1CCF12004E8
:1008B00021FA04F411FA0CF118BF01212143084375
:1008C000A3EB0C01CB1D4FEA00614FEA102042BFA1
:1008D000002010BC704700EBC35010440029A4BF97
:1008E00010BC7047401C490008BF20F0010010BC3C
:1008F000704710B5141E73F1000408DA401C41F172
:10090000000192185B411A4301D120F0010010BD93
:100910002DE9F04D92469B4611B1B1FA81F202E009
:10092000B0FA80F220329046FFF743FF04460F46AC
:1009300040EA0A0041EA0B0153465A46084313D0E5
:10094000114653EA010019D0C8F140025046FFF7A2
:100950003FFF05460E46504659464246FFF729FFDF
:10096000084305D0012004E020463946BDE8F08D5B
:100970000020054346EAE0762C4337430A98630596
:10098000E40AA0EB08000022FD0A44EA47540A30BA
:1009900002D500200146E9E7010510196941DDE9AA
:1009A000084500196941BDE8F04DA2E7C1F30A52BC
:1009B000C1F3130140F2FF3341F480119A4202DA8D
:1009C00000200146704740F233439A42A2F233427C
:1009D00002DC5242FFF7FCBEFFF7EBBE30B5041E4F
:1009E00071F1000404DB4FF00044404264EB01016C
:1009F000141E73F1000405DB1C464FF00043524205
:100A000063EB0403994208BF904230BD1CB509480E
:100A10000090094801900546009C06E0E06840F01F
:100A2000010394E8070098471034AC42F6D3FFF76F
:100A3000AFFB000050BC000870BC000800487047C5
:100A4000CCB400082DE9F05F8246007800271546F7
:100A50008B460AF10104B946302801D09DB113E05C
:100A600014F8010B0127782803D0582801D045B18C
:100A70000AE00DB1102D07D10027102514F8010B45
:100A800002E0082500E00A250026B0460EE005FB3E
:100A9000080005FB06F1012701EB10461FFA80F85C
:100AA000B6F5803F00D3B94614F8010B294600F093
:100AB00018F80028EBDABBF1000F05D00FB1641E67
:100AC00000E05446CBF80040B9F1000F06D009F021
:100AD000C3FE02210160C81EBDE8F09F48EA06403F
:100AE000FAE73A2800D2303820F02002412A01D318
:100AF000A2F13700884201D34FF0FF30704730B584
:100B00008C1810F8012B12F00F0301D110F8013BE3
:100B1000120906D110F8012B03E010F8015B01F86F
:100B2000015B5B1EF9D101E001F8013B521EFBD1D4
:100B3000A142E6D3002030BD40F64530C0F60000AB
:100B400006F0E7BAB0B584B004464BF6A830C0F65C
:100B50000000214601F090FE0FF26051204608226D
:100B6000FFF7D4FB002800F0CF800FF25C51204645
:100B70000D22FFF7CBFB002800F007810FF2585140
:100B800020460422FFF7C2FB002800F03B810FF251
:100B9000505120460522FFF7B9FB002800F08B8258
:100BA0000FF2445120460722FFF7B0FB002800F067
:100BB0003D810FF23C5120460A22FFF7A7FB002897
:100BC00000F048810FF2345120460A22FFF79EFBC5
:100BD000002800F04A810FF2305120460A22FFF728
:100BE00095FB002800F043810FF2285120460A228D
:100BF000FFF78CFB002800F045810FF224512046BE
:100C00000A22FFF783FB002800F03E810FF21C51FF
:100C100020460A22FFF77AFB002800F041810FF2FC
:100C2000185120460522FFF771FB002800F0928141
:100C30000FF20C5120460422FFF768FB002800F059
:100C40008B810FF2045120460822FFF75FFB00283A
:100C500000F08E810FF2FC4120460922FFF756FB7F
:100C6000002800F08E810FF2F84120460922FFF79C
:100C70004DFB002800F090810FF2F04120460A223F
:100C8000FFF744FB002800F091814BF6DC31C0F601
:100C9000000120460C22FFF739FB002800F0A1815B
:100CA0004BF6D231C0F6000120460922FFF72EFB99
:100CB000002800F0AF814BF6C631C0F60001204697
:100CC0000B22FFF723FB002800F0B0814BF6AD317B
:100CD000C0F6000120460B22FFF718FB002800F0A9
:100CE000B1814BF6B931C0F6000120460C22FFF766
:100CF0000DFB002800F0B3814BF69730C0F60000E2
:100D0000214601F0B9FDC9E04BF66820C0F60000AD
:100D100001F0B2FD4BF64E30C0F6000001F0ACFD24
:100D200040F2C024C2F20004204607F0F3FF4BF665
:100D3000A835C0F600052846214601F09DFD204655
:100D40004FF40071FFF7C7FA4BF6EA20C0F6000037
:100D500001F092FD204607F06FFF2846214601F082
:100D60008BFD20464FF40071FFF7B5FA40F2C04406
:100D7000C2F2000440F2F4402578C2F2000000689C
:100D8000802185B308F002FB2FE040F2E870C2F248
:100D900000000068FFF7C8FC02464BF63B30C0F687
:100DA00000000B4601F068FD40F2E070C2F2000066
:100DB0000068FFF7B9FC02464BF62730C0F600008A
:100DC0000B4601F059FD40F2DC70C2F200000068F1
:100DD000FFF7AAFC02464BF61130C0F600000B46A6
:100DE00001F04AFD04E008F02BFB85F001002070C3
:100DF0000E214BF69C20C0F6000004B0BDE8B040C8
:100E000001F03ABD40F2A070C2F20000006808F0A4
:100E10004FF940F600000025C2F200000021002238
:100E20000023009507F042FC0121E2E7E01DFFF7F7
:100E30007CFA40F22462C2F2000240F2E041126801
:100E4000C2F20001087010460022022308F072FD71
:100E50000521CEE704F10A00FFF767FA40F2080126
:100E6000C2F200010968087018E0042519E004F1D5
:100E70000A00FFF75AFA40F20801C2F200010968BD
:100E800008720BE00C250CE004F10A00FFF74DFAA4
:100E900040F20801C2F20001096808740021A8E7C5
:100EA000142504F10A00FFF740FA40F2080440F26A
:100EB0002061C2F20004C2F20001226809685051A8
:100EC000084621460022022308F034FD4BF69C2000
:100ED000C0F60000042101F0CFFC4BF64A25C0F615
:100EE0000005284601F0C8FC206801784BF6BE20BA
:100EF000C0F6000001F0C0FC206841684BF6C92034
:100F0000C0F6000001F0B8FC2068017A4BF6D4204E
:100F1000C0F6000001F0B0FC2068C1684BF6DF208D
:100F2000C0F6000001F0A8FC2068017C4BF6A82068
:100F3000C0F6000001F0A0FC206841694BF6B32028
:100F4000C0F6000001F098FC284604B0BDE8B040AF
:100F500001F092BC02214CE740F29470C2F2000012
:100F6000006800210222002309F0B2F80B2140E7BB
:100F700004F10800FFF7D9F940F2C241C2F20001C2
:100F800007E004F10900FFF7D0F940F2C141C2F2D5
:100F9000000108700C212CE704F10900FFF7C5F9E6
:100FA00040F2C441C2F200010860F3E740F2C240DF
:100FB00040F2C14140F2C442C2F20000C2F200015C
:100FC000C2F2000200780978156800220123CDE9F9
:100FD000013232220023009501F009F801F021F8D6
:100FE000D8E740F2C24040F2C14140F2C442C2F2EE
:100FF0000000C2F20001C2F2000200780978156810
:1010000000220123CDE9013232220023009500F0B5
:10101000EEFFBFE704F10900FFF787F940F6104142
:10102000C2F20001096880B2486316E004F10B00C7
:10103000FFF77BF940F61041C2F20001096880B267
:1010400088630AE004F10B00FFF76FF940F61041E6
:10105000C2F20001096880B2C8630D21C9E604F13B
:101060000C00FFF762F94FF0FF3151FA80F00528CC
:101070001FD8DFE800F00311080E051801200CE06E
:101080000220012111E001200221032200F0E2F8F8
:101090000FE00220032108E00220012102220323A5
:1010A00000F088F905E0022002210022012300F06F
:1010B0005EFA10219DE605F085FF00BF53686F774B
:1010C0005461736B0000000053686F775061726168
:1010D0006D6574657200000053746F70000000004D
:1010E00052657365740000005374617475733D003C
:1010F0005768616C65446972583D00005768616CBF
:1011000065506F73583D00005768616C65446972A3
:10111000593D00005768616C65506F73593D000080
:101120005768616C65446972523D00005768616C94
:1011300065506F73523D000053746172740000007B
:101140004E657874000000004D5F5A445469643D58
:10115000000000004D5F5A44546469723D00000075
:101160004D5F5A4454706F733D0000004D5F5A4408
:10117000547374617274000080B501F0ABFB20B150
:1011800002A0BDE8804001F077BB80BD52454345D9
:101190004956450D0A00000040F2E470C2F200001A
:1011A000704741F2B110C0F6000005F0F2BF000038
:1011B00080B5808841F2BC51C2F200010880B1F9CB
:1011C0000000FFF75BFA9FED0C0B53EC102BFFF7C1
:1011D00074F99FED0B0B53EC102BFFF76EF9FFF733
:1011E000B6FA40F2E471C2F20001086040F2E87120
:1011F000C2F20001086080BD000000000000003F56
:10120000000000000080664080B503F0BBFF0028AE
:1012100018BF012080BD40F2EC4CC2F2000C0CEB78
:10122000800041708270C370704740F2EC40C2F29F
:10123000000070470538C0B202288EBF002002A10E
:1012400051F82000704700BF10000020200000204F
:10125000300000202DE9F04F85B0034640F2EC400D
:10126000C2F20000C45C455C865C4BF63B40C0F6B5
:10127000000019461A468DF811408DF812508DF86D
:10128000136001F0F9FA4BF62840C0F60000214641
:101290002A46334601F0F0FA40F2100940F2200AE3
:1012A00040F2300B00240DF11108C2F200090127B1
:1012B000C2F2000AC2F2000B002500BF462001F076
:1012C00035FA18F80560012159F826003222CDE9D7
:1012D000000705200A23029400F089FE5AF8260030
:1012E0000021CDE90007062032220A23029400F0F3
:1012F0007EFE6420002D08BF4FF47A7007F028FCB2
:10130000DBF810000021CDE90007072032220A2374
:10131000029400F06CFE00F084FE5A2001F0F6F911
:10132000DBF808000021CDE90007072032220A235C
:10133000029400F05CFE00F074FE522001F0F6F919
:10134000642007F005FCDBF80C000021CDE9000764
:10135000072032220A23029400F049FE00F061FEC9
:10136000532001F0D3F9022D0ED0DBF80800002144
:10137000CDE90007072032220A23029400F037FE4D
:1013800000F04FFE013599E7DBF80400012100274A
:10139000CDE900010720002132220A23029700F044
:1013A00026FE00F03EFE462005B0BDE8F04F01F0FD
:1013B000BDB900002DE9F04F85B0044640F2EC4085
:1013C000C2F2000000EB840010F801B010F80280B7
:1013D000C75C4BF63B40C0F600000A460B460E4683
:1013E0008DF811B08DF812808DF8137001F044FA69
:1013F0004BF62840C0F60000594642463B4601F0F5
:101400003BFA304601F08AF940F2300500260DF132
:1014100011090127C2F200054FF00008522001F027
:1014200085F919F808A040F21000C2F2000050F847
:101430002A000121CDE90007052032220A23029665
:1014400000F0D5FD40F22000C2F2000050F82A0062
:101450000021CDE90007062032220A23029600F07F
:10146000C6FD642007F074FBE8680021CDE90007A1
:10147000072032220A23029600F0B9FD00F0D1FDC8
:101480005A2001F043F9A8680021CDE900070720A0
:1014900032220A23029600F0AAFD00F0C2FD462087
:1014A00001F044F9642007F053FB5846B8F1020FED
:1014B0001CBF09EB0800407801F030F9012C15D071
:1014C000022C27D168690021CDE9000707203222CC
:1014D0000A23029600F08BFD00F0A3FD532001F0DB
:1014E00015F9B8F1020F1BD129E000BF28690021CE
:1014F000CDE90007072032220A23029600F077FD8B
:1015000000F08FFD532001F001F9B8F1020F07D16F
:1015100017E000BF532001F0F9F8B8F1020F23D013
:10152000A8680021CDE90007072032220A2302968D
:1015300000F05DFD00F075FD08F101086EE7281D63
:1015400001E005F11400006801210027CDE9000148
:101550000720002132220A23029700F048FD05B03F
:10156000BDE8F04F00F05DBD05B0BDE8F08FF0B50F
:1015700083B041F2CC55C2F20005287041F2CD543F
:1015800040F27820C2F20004C2F20000012B217068
:10159000827003702ED140F2E846C2F2000640F29B
:1015A00008603268C2F200000068515C012750F800
:1015B00021000025CDE90007052001210A22002392
:1015C000029500F014FD40F20C6031682278C2F2FE
:1015D00000000068895C0A2250F821000021CDE952
:1015E000000706200023029500F001FD41F288303B
:1015F00007F0AEFA40F2F440C2F2000000680221A7
:1016000003B0BDE8F04007F01BBF40F27820C2F203
:101610000000704780B541F25960C0F6000005F047
:10162000BFFD0520FFF706FE40F20861C2F200018F
:1016300008600620FFF7FEFD40F20C61C2F20001D7
:101640000860FFF7F2FD40F2E841C2F200010860D5
:1016500080BD0000000000002DE9F0472DED028B59
:1016600084B0B0F8012040F27825C2F20005AA80CB
:101670002B78B0F80310012BE98033D0002B40F019
:101680003F81037841F2CC50C2F200000078012B78
:1016900008BF012800F0AF80102B08BF022840F0DF
:1016A0002F81E88A121A288B13B2081A82EAE331D2
:1016B0002A81A1EBE332A97E92B28A42688100F2CC
:1016C0004F8102B280EAE230A0EBE23080B2884281
:1016D00000F24681E878E97E884280F04681013058
:1016E000E87056E1100418BF5FEA014000F006817F
:1016F00088B2C0F1F00000EE100AE88A91B2081A30
:1017000001EE100AB8EEC00AF8EEC10A09F0A8F816
:101710009FEDC11A20EE010A10EE100AFFF704F83F
:101720009FEDB90B53EC102BFEF739FF9FEDB80B73
:1017300053EC102BFEF71AFEFFF709F8E988044670
:10174000C1F1F00000EE100AA888E98AB8EEC00ADC
:10175000401A01EE100AB8EEC11A21EE011A20EE6D
:10176000000A30EE010AB1EEC00A288B01EE104AE1
:10177000C0F1F00002EE100AB8EEC22A30EE428A42
:10178000BDEEC10A10EE100A02B280EAE233A3EB0A
:10179000E232BDEEC80A92B241F2CD5A40F20C6874
:1017A00040F2086910EE101A022AC2F2000AC2F2D0
:1017B0000008C2F20009A88129812FD80AB281EA63
:1017C000E233A3EBE23292B2022A27D840F29470BD
:1017D000C2F200000068002102220023002708F066
:1017E00077FC40F2F440C2F200000068022107F0EA
:1017F000CDFDEF7058E0A878012800F08680002821
:101800007ED1100418BF5FEA014040F0CA8000207A
:10181000A8604BF6E930C0F60000BBE0D8F8002025
:101820009AF80030012652F823703944D9F8007034
:1018300042F8231057F82310084447F8230052F8C1
:10184000230041F64C518842B8BF014621EAE170BD
:1018500042F8230057F8230041F288318842B8BF8C
:10186000014621EAE17047F8230052F823000027DF
:10187000CDE90006062000210A220023029700F08D
:10188000B6FBD9F800009AF800100A2250F821009F
:101890000121CDE9000605200023029700F0A7FBF7
:1018A0004FF47A7007F054F918EE100AFEF73CFF77
:1018B00002465AA00B4600F0DFFF2046FEF734FF39
:1018C000024658A00B4600F0D7FFB5F90810B5F94D
:1018D0000C2056A000F0D0FF9AF80010D8F80000B5
:1018E00050F8212057A000F0C7FF9AF80010D9F84F
:1018F000000050F8212058A000F0BEFF00206870C2
:1019000004B0BDEC028BBDE8F087E889121A288A82
:1019100013B2081A82EAE3312A81A1EBE332E97CAF
:1019200092B28A42688119D802B280EAE230A0EB12
:10193000E23080B2884211D840F29470C2F20000C6
:10194000006800210222002308F0C2FB40F2F440AC
:10195000C2F200000068022107F018FD4CA019E057
:101960000020E87004F0F0FC13E040F29470C2F242
:1019700000000068002102220023002408F0A8FBD8
:1019800040F2F440C2F200000068022107F0FEFCC1
:10199000EC7036A004B0BDEC028BBDE8F04700F05F
:1019A0006BBFE889121A288A13B2081A82EAE33157
:1019B0002A81A1EBE332A97C92B28A4268811CD8C9
:1019C00002B280EAE230A0EBE23080B2884214D862
:1019D00040F29470C2F2000000680021022200234D
:1019E000002408F075FB40F2F440C2F200000068E9
:1019F000022107F0CBFCEC700BE704F0A5FC002003
:101A0000E87006E700BF00BF182D4454FB210940D1
:101A100000000000008056C00000344364583D259B
:101A20002E33660064523D252E33660064436F6F8B
:101A300072645F583D25642064436F6F72645F5227
:101A40003D2564004D4F544F525F585F506F735B9C
:101A500025645D3D256400004D4F544F525F525F39
:101A6000506F735B25645D3D256400004150505FFD
:101A70004D41495843414D5F50617273655F434921
:101A800052434C455F43616C4361720D0A00000094
:101A90004150505F4D41495843414D5F5061727311
:101AA000655F424C4F425F477261620D0A00000061
:101AB00010B540F27824C2F2000462781AB903F03B
:101AC000C1FC01206070BDE8104003F041BC80B54E
:101AD00082B040F25C20C2F200000121016040F6B9
:101AE00000004FF0000CC2F2000000210022002391
:101AF000CDF800C006F0DAFD02B080BD00000000A5
:101B000070B582B00C4640F25C25411EC2F2000561
:101B1000002207292A601ED80FF20400DFE801F036
:101B2000043AEB58EBEBEB22322CC0F291802046CA
:101B3000FEF7A4FD9FED780B53EC102BFEF7BDFCD8
:101B4000FEF7BAFD4AF67C01C2F200010E680346B8
:101B50004FF4487035E0102802D0202840F0CB80A8
:101B60002046B5E0322C51DB2046FEF787FD9FED85
:101B70006A0B53EC102BFEF7A0FCFEF79DFD4AF616
:101B80007C01C2F200010E6803464FF6E040CFF63A
:101B9000FF7032E0322C4BDB2046FEF76FFD9FEDED
:101BA0005E0B53EC102BFEF788FCFEF785FD4AF622
:101BB0007C01C2F200010E6803464FF6E040CFF60A
:101BC000FF7000212246CDE9003604F063FC1AE0E4
:101BD000322C4DDB2046FEF751FD9FED4F0B53ECB1
:101BE000102BFEF76AFCFEF767FD4AF67C01C2F295
:101BF00000010E6803464FF4487000212246CDE9EB
:101C0000003604F0F1FB0120286074E04AF67C06FF
:101C1000C2F200063068FEF731FD41EC130B9FED78
:101C2000380B152CC4F1000434DB9FED391B33E075
:101C30004AF67C06C2F200063068FEF71FFD41EC52
:101C4000130B152CC4F1000430DB9FED310B2FE09A
:101C50004AF67C06C2F200063068FEF70FFD41EC42
:101C6000130B152CACBF9FED300B9FED2D0B1FE020
:101C70004AF67C06C2F200063068FEF7FFFC41EC33
:101C8000130B9FED1F0B152CACBF9FED271B9FED7A
:101C9000241B01E09FED1C1BB0EE402AF0EE602AF1
:101CA00003F015FF204605F045FC0CE09FED160BF8
:101CB0009FED131BB0EE412AF0EE612A03F007FFFF
:101CC000204605F015FC012815D101202860306858
:101CD000FEF7D4FC9FED0A0B41EC130BB0EE401A5B
:101CE000B0EE402AF0EE601AF0EE602A02B0BDE8D5
:101CF000704003F0ECBE02B070BD00BF00BF00BF7B
:101D0000000000000000000000000000000039C0DA
:101D100000000000000069C09A9999999999D93FEB
:101D20000000000000003940000000000000694091
:101D30002DE9F04383B00138052800F23A81DFE84D
:101D400000F003DB5B9930F640F25C24C2F2000441
:101D500000254AF67C062560C2F2000637684FF679
:101D6000E0404FF45C7CCFF6FF70002140F6980213
:101D70004FF45C73CDE900C704F08CFB01272760AA
:101D8000256036684FF411654FF44870002141F228
:101D9000A8624FF41163CDE9005604F025FB2760DB
:101DA00007E140F25C25C2F200054FF000084AF658
:101DB0007C07C5F80080C2F200074FF6E0443E6899
:101DC000CFF6FF7440F6E85C2046002142F2C422C0
:101DD00040F6E853CDE900C604F006FB01262E606C
:101DE000C5F800803F684FF4B46C204600214FF4E2
:101DF00061624FF4B46367E040F25C24C2F2000415
:101E000000254AF67C082560C2F20008D8F8007068
:101E10004FF6E0404FF4E166CFF6FF70002141F24B
:101E200094124FF4E163CDE9006704F0DDFA9FED11
:101E3000620B9FED653BB0EE401AB0EE402A0126E2
:101E4000F0EE601AF0EE602A2660256003F03FFE97
:101E50002560D8F8007041F6C8154FF4487000218D
:101E600044F2740241F6C813CDE9005704F012FBA6
:101E700026609EE040F25C25C2F200054FF00008AB
:101E80004AF67C07C5F80080C2F200074FF6E0442E
:101E90003E68CFF6FF7440F6A84C2046002141F67C
:101EA000A47240F6A843CDE900C604F09DFA0126CD
:101EB0002E60C5F800803F684FF4486C2046002132
:101EC0004FF4FA524FF44863CDE900C704F0E2FA48
:101ED0009FED390B9FED3A3BB0EE401AB0EE402A31
:101EE0002E60F0EE601AF0EE602AC5F8008003B0B4
:101EF000BDE8F04303F0EBBD40F25C24C2F2000405
:101F0000002020604AF67C00C2F2000007684FF40F
:101F10005C664FF44870002142F260224FF45C632B
:101F2000CDE9006704F060FA0120206041E040F252
:101F30005C25C2F200054FF000084AF67C09C5F89E
:101F40000080C2F200094FF6E044D9F80060CFF6F5
:101F5000FF7441F6902C2046002144F2682241F69D
:101F60009023CDE900C604F095FA01262E60C5F84D
:101F70000080D9F800704FF4756C2046002142F2C1
:101F800048624FF47563CDE900C704F02DFA2E6066
:101F9000C5F80080D9F800704FF4167C2046002167
:101FA00040F2DC524FF41673CDE900C704F072FA28
:101FB0002E6003B0BDE8F0830000000000000000C8
:101FC00000000000008056400000000000806640D5
:101FD00080B50120002100F0AAFD0220002100F0C0
:101FE000A6FD03200021BDE8804000F0A0BD2DE942
:101FF000F04784B00CAE70CE984691468A460746AC
:1020000005F028FA384651464A464346CDE9004590
:10201000029600F05BFD0A2004B0BDE8F04706F030
:1020200097BD05F01DBA000080B582B040F2246073
:10203000C2F20000002100688DF807100DF10701C1
:10204000002207F0CFFD012809D19DF8071042F6C4
:102050001130C2F20000017002A000F00DFC02B0CD
:1020600080BD00BF735F7563537461747573203AEC
:102070002025640D0A000000F0B58BB003A82021D4
:10208000FEF729F940F20130ADF8080040F20120D6
:1020900042F61136C0F20320C2F2000601903078F9
:1020A00000212928009100F23182DFE810F02B0195
:1020B000E0006E011301C800F80086012F022F0214
:1020C0002F0298012F022F022F022F022F022F0220
:1020D0002F022F022F02E4012A002A002A002F02D9
:1020E0002F022F022F022F022F0282006D003201D9
:1020F0002F022F022F022F022F022F022F02470141
:10210000090240F2E141C2F200010978002918BF3A
:1021100003301538C4B24BF69000C0F600002146DB
:1021200000F0AAFB01A8015D012001220023FFF7B6
:102130001EFA6D4600204FF0FF312A464FF0FF3364
:1021400008F012F94BF60C20C0F60000214600F012
:1021500093FB00204FF0FF312A464FF0FF3308F089
:1021600003F930780321172838BF411CC8B203286F
:10217000317040F0CB8140F2F440C2F200000068C0
:10218000022107F003F9C1E14BF6F700C0F60000A9
:1021900000F072FB6A4600204FF0FF314FF0FF3332
:1021A00008F0E2F8202030704BF61610C0F6000060
:1021B000AAE14BF66D10C0F6000000F05DFB0220B6
:1021C0000221002200230025FFF7D1F96C460020F0
:1021D0004FF0FF3122464FF0FF3308F0C5F80220E0
:1021E000032100220123FFF7C2F900204FF0FF3145
:1021F00022464FF0FF3308F0B7F8022001210022F9
:102200000123FFF7B4F900204FF0FF3122464FF0D1
:10221000FF3308F0A9F80220022100220123FFF772
:10222000A6F900204FF0FF3122464FF0FF3308F0AF
:102230009BF84BF68A103570C0F6000064E14BF253
:102240006670C0F6000000F017FB0420FFF770FD79
:102250006A4600204FF0FF314FF0FF3308F084F85A
:10226000282030704BF28D70C0F600004CE14BF628
:10227000D910C0F6000000F0FFFA0120FFF758FD6A
:102280006A4600204FF0FF314FF0FF3308F06CF842
:102290000A2030704BF6F310C0F6000034E14BF228
:1022A000FA70C0F6000000F0E7FA0520FFF740FDE5
:1022B0006A4600204FF0FF314FF0FF3308F054F82A
:1022C00040F2E140C2F200000121017014203070A0
:1022D000A1A019E14BF2B370C0F6000000F0CCFAF7
:1022E0000320FFF725FD6A4600204FF0FF314FF035
:1022F000FF3308F039F81E2030704BF2D770C0F66B
:10230000000001E14FF4FA700BB0BDE8F04006F0B8
:102310001FBC4BF65500C0F6000000F0ADFA6A464F
:1023200000204FF0FF314FF0FF3308F01DF804207C
:1023300030704BF67300C0F60000E5E04BF6341049
:10234000C0F6000000F098FA40F2F444C2F2000433
:102350002068022107F074F80220022100220023E5
:10236000FFF705F96A4600204FF0FF314FF0FF33C9
:1023700007F0FAFF2068022107F008F829203070E2
:102380004BF65110C0F60000BEE04BF61E00C0F642
:10239000000000F071FA0220FFF7CAFC6A46002034
:1023A0004FF0FF314FF0FF3307F0DEFF14203070A5
:1023B0004BF63A00C0F60000A6E055A000F05CFA2B
:1023C0000620FFF7B5FC6A4600204FF0FF314FF0C2
:1023D000FF33002407F0C8FF56A0347094E040F2A9
:1023E000E245C2F20005287838B94BF6AD00C0F6D8
:1023F000000000F041FA0120287003AC204603F0F1
:10240000F9FC002800F082804BF62F20C0F6000077
:10241000214608F0CFF9002001A90022D3B2E35CE5
:102420002B2B08BF0132D3B2E35C0132303B0B549B
:1024300001300628F2D103A803F00AFF40F294709D
:10244000C2F20000006800210222002302240027BB
:1024500007F03EFE6A4600204FF0FF314FF0FF3399
:1024600007F082FF4BF6C300C0F60000347000F0A6
:1024700003FA2F704AE04BF6A610C0F6000000F0F9
:10248000FBF940F2E140C2F200000078022100288E
:1024900018BF052101A8415C012000220023FFF79D
:1024A00066F86A4600204FF0FF314FF0FF3307F027
:1024B0005BFF152030704BF6C010C0F6000023E023
:1024C0004BF6D800C0F6000000F0D6F940F2E14427
:1024D000C2F20004207801AB60F3000360F3410313
:1024E00019785A789B78FEF765FF6A4600204FF00E
:1024F000FF314FF0FF3307F037FF20780521002828
:1025000018BF062131701DA000F0B6F90BB0F0BD68
:10251000454E544552205354415455535F50726FA9
:10252000536563417265615F325F53746172740D0C
:102530000A00000045584954205354415455535FF4
:1025400050726F536563417265615F325F537461AE
:1025500072740D0A0000000045584954205354413C
:102560005455535F50726F536563417265615F32BA
:102570005F526177417265610D0A00004558495408
:10258000205354415455535F50726F5365634172E9
:102590006561506C6163650D0A00000082B040F215
:1025A000F44441F2CC5641F2CD57C2F200044FF050
:1025B000FF35C2F20006C2F2000700BF2068022108
:1025C00000220023009506F089FF800703D53078AC
:1025D0003978FFF76DFA642006F0BAFAEEE70000EA
:1025E000FFF713F840F2E4454BF606460446C2F204
:1025F0000005C0F600060FF2E40B3BA70FF2F4084B
:102600000FF2FC094FF0000A40F22060C2F2000015
:10261000006829464FF0FF3207F0E4FA304600F038
:102620002BF9296823A000F027F92868017825A054
:1026300000F022F92868416825A000F01DF92868FB
:10264000017A584600F018F92868C168384600F049
:1026500013F92868017C404600F00EF928684169AA
:10266000484600F009F9304600F006F9286841684C
:1026700049B10078FFF744FA286884F801A080F88F
:1026800000A0C0F804A0C16849B1007AFFF738FA89
:10269000286884F801A080F808A0C0F80CA041695F
:1026A000007CFFF72DFA286880F810A0C0F814A06D
:1026B000AAE700BF414444523A20253034580D0A5D
:1026C00000000000446972583A2025640D0A000099
:1026D000506F73583A2025640D0A000044697259FE
:1026E0003A2025640D0A0000506F73593A20256482
:1026F0000D0A0000446972523A2025640D0A000058
:10270000506F73523A2025640D0A000080B503F023
:10271000C9FD6420BDE8804006F01ABA80B503F018
:10272000D3FD6420BDE8804006F012BA03F0E2BD9C
:102730007047000082B040F2F444C2F20004206806
:10274000012106F07DFE4FF0FF3500BF206801211A
:1027500000220023009506F0C1FEC00718BFFEF757
:102760000BFD0A2006F0F4F9F0E7000080B500BF89
:10277000012005F0A5F8FBE7FEF746FD052006F071
:10278000E7F9F9E7FFF750FCFFF776FC0A2006F0BF
:10279000DFF9F7E7FFF702BFFFF722BF06F0D6F831
:1027A00004F0E6FA04F0AAFB06F0F2F80A2006F0BC
:1027B000CFF9F3E782B040F2F44A40F6986440F66D
:1027C0002875C2F2000A4FF0FF37C2F200040FF280
:1027D0007808C2F200050FF2880900BFDAF800009D
:1027E000802100220023009706F078FE000626D5FF
:1027F000B4F90010B4F92420B4F94830B4F96C608D
:102800004046009607F0D6FF95ED060A95ED181A9A
:1028100095ED2A2ABDEEC00A95ED3C3A10EE101A4D
:10282000BDEEC10A10EE102ABDEEC20A10EE103A3B
:10283000BDEEC30A48468DED000A07F0BBFF32200B
:1028400006F086F9CAE700BF7B6D6F746F5F727028
:102850006D7D25642C25642C25642C25640A0000DC
:102860007B6D6F746F5F7365747D25642C25642C9C
:1028700025642C25640A000083B0B0B5ADF20C4D80
:1028800084460DF10B04CDF81C14CDF82024CDF8AE
:1028900024340DF21C43204640F20141624601936C
:1028A00007F0ACFF40F21065C2F2000528684FF057
:1028B000FF3105F08CF806A0214607F07BFF286861
:1028C00005F0E0F80DF20C4DBDE8B04003B07047E4
:1028D000257300002DE9F04782B000250DF10701B6
:1028E00000208DF8075004F0D2FD00283FD042F6BA
:1028F000103640F2602741F2C058C2F20006C2F220
:102900000007C2F200080DF107044FF001094FF073
:10291000000A00BF307898B138783E281AD89DF860
:1029200007107B7A78683A78994215D18554D8F89F
:102930000020AAB13978904735704FF0010A0FE0B6
:102940009DF807007978884204BF86F800903D70B2
:1029500006E000BF357003E0531C3B70815400BF9C
:102960000020214604F093FD0028D3D101E04FF070
:10297000000A5FFA8AF002B0BDE8F087FEE740F691
:102980000000C2F2000000F039BA10B540F2306425
:1029900040F60000C2F2000440F22863C2F20000D8
:1029A000C2F200030021224600F097F92068A0F24D
:1029B0000121032988BF10BD0138C1B2C90051FAF5
:1029C00080F040F69861C2F2000101EB800040F215
:1029D0002861C2F20001BDE8104004F02BBE40F6B1
:1029E0002800C2F2000000F009BAB0B540F2546508
:1029F00040F24C6440F62800C2F20005C2F2000426
:102A0000C2F2000000212A46234600F066F900B118
:102A1000B0BD40F2C970C2F2000000786968B0EB46
:102A2000112F0ED12078FD280BD160789F2808D176
:102A3000A0786B2805D140F2C870C2F200000121D5
:102A4000017040F25460C2F200001C21FDF743FC0B
:102A5000B0BD40F61010C2F2000000F069BC40F6B4
:102A60005030C2F2000000F063BC40F65000C2F2E9
:102A7000000000F05DBC40F6B030C2F2000000F093
:102A800057BC40F6B000C2F2000000F051BC40F666
:102A90009020C2F2000000F04BBC40F6F020C2F2E1
:102AA000000000F045BC40F67010C2F2000000F0DB
:102AB0003FBC40F6D010C2F2000000F039BC40F636
:102AC0003020C2F2000000F033BC7047B0B584B0D3
:102AD000DDE9084E8DF80000FD208DF80100100A98
:102AE0008DF80300200E8DF80600200C8DF80700ED
:102AF000200ADDF828C08DF808006B2000258DF82D
:102B000002108DF80C0068460D218DF80F50ADF8BD
:102B10000D508DF804208DF805308DF809408DF8A2
:102B20000AE08DF80BC004F001FC04B0B0BD80B524
:102B300084B08DF8000049F6FE00ADF801006B206E
:102B400000228DF803108DF80400684605210392D9
:102B5000CDF80920CDF8052004F0E8FB04B080BDD5
:102B600072B600BFFEE710B590F820E0D0F800C0C4
:102B7000AEF1010EBEF1010FDCF808E011D81EF035
:102B8000E05F14D0CEF301640120A04018608B6890
:102B90009BB1D1F804E0C86840EACE0040EA030ED9
:102BA0000FE000F1240301204FF4802121E000F127
:102BB000240301204FF400111BE00868CB6843EAAE
:102BC000405E0CF5C07000EB0413240140F804E0F3
:102BD0000C69184640F8044F097D012903D10168AA
:102BE00041F48071016050680121D86010689860DC
:102BF00000201A681143196010BD90F82020013A96
:102C0000012A30D8B0B546F20060C4F20000026874
:102C100042F001020260026822F47C520260D1F8A4
:102C200014E0CC694A6A0368012C43EA022202607C
:102C30000EF01F024FF0010303FA02F2C3696FEABC
:102C4000020C23EA0203C36113D02CBBC36803EA5E
:102C50000C03C360CB688C8844EA034300EBCE04CA
:102C600023640B4611E0416A41F480214162012056
:102C70007047C3681343C3600B688C8844EA0343FE
:102C800000EBCE04236401F10C038C681B8843EA3B
:102C9000044300EBCE04636443688D6943EA020495
:102CA000D1F810E0096A002D08BF03EA0C04446063
:102CB0004369BEF1000F43EA020408BF03EA0C04B3
:102CC0000129446102D1C1691143C161016821F048
:102CD000010101600020B0BD7047B0B590F8204000
:102CE000013C012C7AD8D0F800C000290CBFDCF8D8
:102CF0000C40DCF81040A40776D00CF5D8754FEAEC
:102D0000011C55F80C4014F00404946055F80CE0D4
:102D100005EB011C19BF4FEADE0555604FEA5E5511
:102D20001560DCF80050E64605F00205D5605EF857
:102D3000044F24075ABFDEF8004004F00F040824B3
:102D40001461DEF800400029C4F307249461DEF822
:102D500000504FEA15455561DCF808201A700268EA
:102D600002EB0112D2F8B8214FEA12225A7002681F
:102D700002EB0112D2F8B8214FEA12429A700268AF
:102D800002EB0112D2F8B8214FEA1262DA7002683F
:102D900002EB0112D2F8BC211A71026802EB011297
:102DA000D2F8BC214FEA12225A71026802EB0112DA
:102DB000D2F8BC214FEA12429A71026802EB01126A
:102DC000D2F8BC214FEA1262DA7100680CBF00F140
:102DD0000C0100F11001002020220AE000F1240182
:102DE00001204FF4802204E000F1240101204FF47F
:102DF00000120B681A430A60B0BD00002DE9F04FC5
:102E000081B0044600684669D0F804908768D0F81D
:102E10000CB0D0F810A0D0F81880F10701D100252F
:102E200049E0F9070ED00121BA07816007D478077D
:102E30001DD4380721D4204600F020FA02E02046B5
:102E400000F01DFA0025F8051CD520684FF48071AC
:102E5000BA05816007D478050CD4380510D4204613
:102E600000F00EFA0EE0204600F00BFA0AE04FF4F4
:102E70000065E8E705F5005504E04FF48055E2E70A
:102E800005F58045F80316D520684FF48031BA0364
:102E9000816007D4780309D438030AD4204600F0AF
:102EA000F1F908E0204600F0EEF904E005F50045F0
:102EB00001E005F58035300707D51BF0100004D080
:102EC000206845F400751021C160700708D51BF01B
:102ED000080005D020680821C160204600F08CF968
:102EE000B00706D52068C068800702D0204600F0F1
:102EF00084F9700607D51AF0100004D0206845F454
:102F0000806510210161B00608D51AF0080005D0CF
:102F1000206808210161204600F080F9F00606D5FE
:102F200020680069800702D0204600F078F9B003DD
:102F300008D519F0100005D0206810214160204606
:102F400000F06EF9F00308D519F0080005D02068EC
:102F500008214160204600F097F9300440D55FEA2F
:102F600049703AD506F4807008EA102028435FEAD9
:102F70008871014648BF41F00201B20558BF0146C1
:102F80005FEA48700D4648BF45F00405700558BF1C
:102F90000D46300521D518F070001ED010380009FC
:102FA000052815D8DFE800F0030F090C061245F0DC
:102FB00008050DE045F080050AE045F0200507E032
:102FC00045F0400504E045F0100501E045F480754A
:102FD0002068816921F070018161206804214160CD
:102FE0004DB1606A40EA05012046616201B0BDE86A
:102FF000F04FFFF771BE01B0BDE8F08FD0B1B0B5B2
:10300000044690F8200010B9204600F06FF82068C0
:10301000016841F00101016000F027FC054600BF96
:1030200020684168C90707D100F01FFC401B0B282E
:10303000F6D312E001207047016821F0020101601F
:1030400000F013FC054600BF2068416889070BD5D6
:1030500000F00BFC401B0B28F6D3606A052140F4FE
:103060000030606201203EE0217E0268012922F0EA
:10307000800208BF80320260617E0268012922F06E
:10308000400208BF40320260A17E0268012922F09E
:10309000200208BF20320260E17E0268012922F08E
:1030A000100218BF10320260217F0268012922F04D
:1030B000080208BF08320260617F0268012922F01D
:1030C000040208BF04320260D4E901C2D4E9033526
:1030D00061691A432A431143ACF101021143C161F2
:1030E00000200121606284F82010B0BD10B586B0C8
:1030F000044601A81421FDF7EEF8206846F6000109
:10310000C4F2000188422ED046F20041C4F2000110
:1031100088426FD140F2F841C2F200010A6843F6DA
:103120003000C4F20200531C0B6052B90021009120
:10313000016941F000710161016901F000710091C4
:103140000099002100910168142441F001010160FF
:1031500000684FF4C05100F001000090009800207A
:10316000C4F2020032E043F630000021C4F2020053
:103170000091026942F080620261026902F080629D
:103180000092009A40F2F842C2F2000213685C1CFE
:1031900014604BB90091026942F000720261026949
:1031A00002F000720092009A00910168402441F000
:1031B0000201016000684FF4405100F002000090ED
:1031C00000980020C4F2020000F580600191022105
:1031D000029100210391032104910921059101A984
:1031E00000F072FA20460521002200F0F5FB20468F
:1031F00000F0E2FB06B010BD704740F60001C2F2DD
:103200000001884208BFFFF7C0BB40F62801C2F2A8
:103210000001884218BF7047FFF7E7BB704770474F
:1032200070470000B0B5044690F8200001281CD17A
:10323000022084F820002068016821F0010101606B
:1032400000F013FB054600BF20684068C00712D09D
:1032500000F00BFB401B0B28F6D3606A40F40030F3
:103260006062052084F8200003E0606A40F40020DA
:1032700060620120B0BD00206062B0BD7047704741
:1032800070477047704770477047000070B5866D93
:10329000044600F0EAFA94F83510022925D10546D3
:1032A0002068216C026822F016020260426922F056
:1032B0008002426109B9A16C19B1016821F00801CD
:1032C0000160016821F00101016000BF2068006811
:1032D000C0070ED000F0C9FA401B0628F6D3202004
:1032E0006065032084F835000CE0802060650120D3
:1032F00008E0E06D3F2101FA00F0B060012084F8A1
:1033000035000020002184F8341070BD90F835108D
:10331000022909D1052180F835100068016821F0E3
:103320000101016000207047802141650120704744
:10333000F0B581B004460020009040F25820C2F25F
:1033400000000268D4E9166048F2B5133768082116
:10335000C1F64E3381403942A2FB03250CD02268CE
:1033600013685B0708D5136823F004031360B1608A
:10337000616D41F00101616501218140394208D050
:1033800022685269120604D5B160616D41F00201F4
:10339000616504218140394208D022681268920791
:1033A00004D5B160616D41F0040161651021814077
:1033B000394217D020680268120713D5B16002683D
:1033C0000168520306D4C90506D4016821F008013A
:1033D000016001E0080301D4216C00E0A16C09B197
:1033E00020468847E16D202000FA01F23A423CD0A5
:1033F00020680368DB0638D5B26094F8353002687F
:10340000052B1AD122F016020260426922F08002D6
:103410004261226C0AB9A26C1AB1026822F0080259
:1034200002603F208840B060012084F83500216DA3
:10343000002084F83400B9BB3BE0016852030CD48F
:10344000C9050ED4016821F010010160012084F843
:103450003500002084F8340003E0080301D4616CD7
:1034600000E0E16B09B120468847606D08B3606DEC
:10347000C00717D0052084F835002068A90A026823
:1034800022F00102026000BF009A01328A420092DB
:1034900002D80268D207F7D1012084F83500002055
:1034A00084F83400E16C21B1204601B0BDE8F04061
:1034B000084701B0F0BD00002DE9F041044600F0DE
:1034C000D4F9C4B10546022084F8350000202168F3
:1034D00084F83400086820F001000860216808685A
:1034E000C0070BD000F0C1F9401B0528F6D9032511
:1034F0002023032064E00120BDE8F081086848F241
:103500003F02CFF21002D4E9013500EA020C04F1C7
:103510000C0898E8C10143EA0C032B431843D4E993
:10352000072E304338431043626A40EA0E00042AF3
:1035300040EA08031CD1206BD4E90A2E40EA0E00B1
:10354000184308604869BEF1000F20F0030040EA0C
:10355000020040F0040C11D0B8F5005F35D0B8F18E
:10356000000F42D1022A43D0012A38D0002A3EE07F
:103570000B60486920F0070040EA020C01F0F800F7
:103580004AF6AB221038CAF6AA22A0FB02231A0977
:103590004BF29C63C1F814C0C0F600039A5C40F281
:1035A000FF335F284FF03F0021EA030100FA02F0E9
:1035B00088BF0431C4E91612886000230125002069
:1035C000636584F83550BDE8F081032AD6D801251B
:1035D00040230120DFE802F0020C0203F0E7AEF125
:1035E000C070B0FA80F0400904E0032A04D3C5D1CA
:1035F000CEF300600028C1D0012540230120DFE781
:1036000090F834C0BCF1010F04BF0220704770B5C0
:103610004FF0010C80F834C0D0F858E090F835C075
:10362000BCF1010F37D14FF0020C80F835C04FF0DC
:10363000000CC0F854C0D0F800C08468056CC06DA0
:10364000DCF80060402C26F48026CCF80060CCF832
:1036500004300B4604BF13460A463F2101FA00F02E
:10366000CCF80830CCF80C20CEF80800DCF80000CC
:1036700040F01600CCF800002DB1DCF8000040F05E
:103680000800CCF80000DCF8000040F00100CCF8A5
:103690000000002070BD002180F83410022070BDB1
:1036A000B0B5044600F0E1F8054640F2B420C2F29D
:1036B00000000078611C18BF044400BF00F0D5F87A
:1036C000401BA042FAD3B0BD2DE9F04F83B000F10A
:1036D000200200F13E4741F60045009207F1FF77D6
:1036E000C4F2020508224FEAB726A84208BF072203
:1036F00000254FF000084FF00009072E38BF4FEAB1
:10370000B72201920F68012202FA09FE17EA0E0A97
:1037100000F09980D1F804C003220CF003077E1E4C
:1037200002FA08F4012E6FEA040B11D88468CE68FF
:1037300004EA0B0406FA08F634438460446824EA79
:103740000E06CCF3001404FA09F42643466003E0A5
:10375000032F01D103271EE0C6688C6806EA0B061A
:1037600004FA08F42643022FC66014D16FF0030256
:10377000009E02EA590756F807C005F01C040F2204
:103780000B69A2402CEA0202A3401A43F251D1F87D
:1037900004C00CF00307026807FA08F302EA0B0200
:1037A0001A431CF4403F02604DD0002243F644030C
:1037B0000292C4F202031A6843F6004442F48042C3
:1037C0001A601A68C4F2010402F480420292029A5A
:1037D00029F003024FF6084C2244CFF6FF7C52F842
:1037E0000C3005F00C070F26BE40B343019E06FACD
:1037F00007F73B4342F80C30A2684B6842EA0A07DD
:1038000043F60C4CDE0258BF22EA0A07A760C4F256
:10381000010CDCF800209E0242EA0A0758BF22EAA7
:103820000A07CCF8007062689E0342EA0A0758BF94
:1038300022EA0A0767602268DB0342EA0A0758BFE8
:1038400022EA0A07276009F1010908F10208B9F123
:10385000100F05F104057FF455AF03B0BDE8F08FFC
:10386000002A08BF0904816170474AF25800C2F279
:1038700000000068704740F2B4204AF25801C2F2DA
:103880000000C2F2000100780A6810440860704726
:1038900080B543F60040C4F20200016841F40071B3
:1038A0000160016841F480610160016841F4807148
:1038B0000160032000F0BBF80F2000F004F800F0D6
:1038C0005AF8002080BD70B586B0002543F640014F
:1038D0000195C4F202010A68044642F020020A601F
:1038E000096801A801F0200101910199694600F0E1
:1038F00058F9049E002E18BF012600F071F94DF60C
:103900008361B040C4F21B31A0FB01014FF0FF30D6
:1039100000EB914140F6584041F20042C2F20000F3
:10392000C4F2000240F2E733C0E90021C0E90253CB
:103930000561856100F0BBFB0546C8B940F65840FB
:10394000C2F2000000F0F9FB054688B9372000F00C
:1039500033F80F2C0BD8372021460022002500F029
:103960003BF840F2B820C2F20000046000E00125FC
:10397000284606B070BD82B0002043F64001019099
:10398000C4F202014A6842F480424A604A6802F482
:1039900080420192019A00900868002240F0805015
:1039A000086008680F2100F08050009000986FF0C8
:1039B000010002B000F010B800280CD400F01F0184
:1039C000012202FA01F11C2202EAD0004EF200129A
:1039D000CEF200028150704710B54EF60C5CCEF26C
:1039E000000CDCF80030C3F3022E8EF00704042C28
:1039F00028BF0424BEF103034FF0FF3E0EFA04F487
:103A000038BF0023A14399400EFA03F39A431143B0
:103A100000F00F0200F160430901043A03F564432A
:103A20006244002848BF02F10C03197010BD4EF625
:103A30000C51CEF200010A684FF6FF031A4060F302
:103A40000A2242F0806040F0FD700860704700007C
:103A5000002872D02DE9F04143F60008C4F20208B4
:103A60000446D8F800040D4600F00700884207D24B
:103A700088F80054D8F8000400F00700A84266D186
:103A80002068810717D5410705D5D8F8081041F4FB
:103A9000E051C8F80810010705D5D8F8081041F41E
:103AA0006041C8F80810D8F80810A26821F0F001A9
:103AB0001143C8F80810C00741D1D8F8000400F03D
:103AC0000700A84207D988F80054D8F8000400F08D
:103AD0000700A8423BD12068410707D5D8F8081055
:103AE000E26821F4E0511143C8F80810000708D536
:103AF000D8F80800216920F4604040EAC100C8F805
:103B0000080000F093F8D8F808104BF2E442C1F333
:103B10000311C0F60002515C40F2582220FA01F174
:103B200040F2B820C2F200000068C2F20002116048
:103B3000FFF7C9FE0020BDE8F081012070476068F2
:103B4000811E022906D2D8F80010890108D401206C
:103B5000BDE8F08101281FD1D8F800108903F6D5FF
:103B6000D8F8081021F003010843C8F80800FFF74F
:103B70007CFE064641F28837D8F80800616800F0FC
:103B80000C00B0EB810F98D0FFF76FFE801BB8429E
:103B9000F2D90320BDE8F081D8F800108907D6D506
:103BA000DEE70F22026043F60802C4F20202136845
:103BB00003F003034360136803F0F00383601368AA
:103BC00003F4E053C360D2F800C04FF4E05303EABB
:103BD000DC030361D2F8F80300F0070008607047C7
:103BE00040F2582043F60801C2F20000C4F202017C
:103BF000006809684BF2F442C1F38221C0F600026A
:103C0000515CC840704740F2582043F60801C2F2A8
:103C10000000C4F20201006809684BF2F442C1F3EB
:103C20004231C0F60002515CC840704710B543F6FF
:103C30000404C4F20204606800F00C0142F2004087
:103C40000829C0F2F40007D0042918BF10BD41F2C2
:103C50000020C0F27A0010BD216801F03F02216807
:103C600023684902C3F3881105D4A1FB0001002396
:103C7000FCF7B6FA06E041F20020C0F27A004843B1
:103C8000B0FBF2F021680222C1F3014102EB4101D5
:103C9000B0FBF1F010BD000000286BD02DE9F04121
:103CA00082B00446007843F60006C007C4F202065C
:103CB0000CD0B06800F00C00042840F09880306808
:103CC000800303D56068002800F0AB80207880076F
:103CD0001BD5B06810F00C0F09D0B06800F00C00D4
:103CE000082840F0A0807068400200F19C80306895
:103CF000800703D5E068012840F09380306821698F
:103D000020F0F80040EAC10030602078000733D48A
:103D10002078400745D4A56955B3B06800F00C0081
:103D2000082840F0B980012D7BD07068E16900F46B
:103D300080028A4275D1216A00F03F028A4270D126
:103D400047F6C071626A0140B1EB821F69D1A16A76
:103D50004FF6FF73C903994300F44032A1F5803157
:103D60008A425ED1E16A00F07060B0EB016F58D119
:103D70000020F3E0012070476069002878D000201F
:103D8000C4F247200121C0F8801EFFF76EFD0546F2
:103D9000706F8007BCD4FFF768FD401B0228F7D97D
:103DA000DBE0306C5FEAC0080AD400200190306C80
:103DB00040F080503064306C00F0805001900198E9
:103DC00047F20007C4F200073868C00542D43868DB
:103DD00040F480703860FFF748FD05463868C0053C
:103DE00038D4FFF742FD401B0228F7D9B5E0B06890
:103DF00000F00C00082803D1706840023FF55FAF67
:103E000061683068B1F5803F07D0B1F5A02F40F070
:103E10008E8040F480203060306840F48030306024
:103E20008EE001209AE0E068002840F20000C4F231
:103E3000472053D001210160FFF717FD054600BF61
:103E4000306880073FF55AAFFFF70FFD401B02288F
:103E5000F6D982E0A168306F012905D005294FD13C
:103E600040F004003067306F40F00100306750E0F0
:103E70000020C4F247200021C0F8801EFFF7F5FCA7
:103E8000054600BF706F80077FF542AFFFF7EDFC7E
:103E9000401B0228F6D960E00027C4F24727002023
:103EA0003866FFF7E2FC022D05460BD13068800131
:103EB00057D5FFF7DAFC401B02284FF00300F5D975
:103EC0004CE000BF306880017FF552AFFFF7CDFCBA
:103ED000401B02284FF00300F4D93FE000210160AD
:103EE000FFF7C3FC054600BF306880077FF50DAFC4
:103EF000FFF7BBFC401B02284FF00300F4D92DE074
:103F000020F001003067306F002920F00400306796
:103F100048D0FFF7AAFC054641F28837306F80078A
:103F200051D4FFF7A2FC401BB842F7D915E020F4AA
:103F3000803030603068002920F4802030604BD021
:103F4000FFF793FC054600BF306880033FF5BEAE27
:103F5000FFF78BFC401B6428F6D9032002B0BDE8B4
:103F6000F08104F11C052FCD084340EA8210D903EB
:103F70004FF6FF729143A1F5803140EA0560084396
:103F8000706001203866FFF770FC044630688001DD
:103F90003FF5EEAEFFF769FC001B02284FF003006F
:103FA000F4D9DBE7FFF761FC054641F2883700BF33
:103FB000306F800707D5FFF758FC401BB8424FF021
:103FC0000300F5D9CAE7B8F1000F3FF5A4AE306C95
:103FD00020F0805030649EE6FFF747FC054600BFA6
:103FE000306880037FF572AEFFF73FFC401B64280A
:103FF0004FF00300F4D9B1E77047704790F83C20C8
:10400000012A4FF0020250D010B580F83D2002681E
:10401000D2F804E0D2F808C00C682EF070032343F5
:1040200041F2FF74C4F20004A24253600BDC40F280
:10403000FF73C4F200039A4213DCB2F1804F27D021
:1040400040F2004315E040F2FF33C4F201039A420C
:1040500012DC41F60003C4F200039A4218D0002398
:1040600012E040F60003C4F200039A4210D040F67A
:104070000043C4F2000309E044F20003C4F2010368
:104080009A4205D040F20043C4F201039A4204D19F
:1040900049682CF08003194391600121002280F8C7
:1040A0003D1080F83C20BDE810401046704740B3FA
:1040B00010B5044690F83D0028B9002084F83C0073
:1040C000204600F020F8022084F83D002068211DE1
:1040D00002F0A8FA012084F8460084F83E0084F833
:1040E0003F0084F8400084F8410084F8420084F8DE
:1040F000430084F8440084F8450084F83D00002023
:1041000010BD01207047006840F60001C4F20001B4
:10411000884218BF704781B00020009043F64000ED
:10412000C4F20200016841F004010160006800F07F
:1041300004000090009801B0704790F83D100129EC
:104140001CBF01207047022180F83D10006841F239
:10415000FF72C168C4F20002904241F00101C160E7
:104160000BDC40F2FF71C4F20001884213DCB0F1B5
:10417000804F27D040F2004115E040F2FF31C4F2F9
:104180000101884212DC41F60001C4F200018842BC
:1041900018D0002112E040F60001C4F2000188426C
:1041A00010D040F60041C4F2000109E044F20001E1
:1041B000C4F20101884205D040F20041C4F201017D
:1041C000884204D1816801F00701062903D0016803
:1041D00041F0010101600020704790F83C20012A65
:1041E0004FF002026BD080B580F83D20D0F800C0BF
:1041F0004FF67772DCF8083023EA0202CCF8082088
:104200000B684F2B28DC1F2B44DD202B45D0302B97
:1042100043D0402B40F0AC80D1F804E0C968DCF812
:104220002030DCF8202022F00102CCF82020DCF83D
:10423000182022F0F00242EA011123F00A0242EAB9
:104240000E02CCF81810CCF82020DCF8081041F051
:10425000470121F0300127E06F2B32DDB3F5005F1D
:1042600073D0B3F5805F21D0702B40F08180D1E90D
:1042700001E3C968DCF8082043EA0E0322F47F4218
:1042800043EA01211143CCF80810DCF8081041F092
:10429000770109E00BB1102B6AD1DCF8081021F08E
:1042A0007001194341F00701CCF8081000220121E8
:1042B00080F83D10002180F83C10BDE88040104699
:1042C0007047502B21D0602B52D1D1F804E0C9683F
:1042D000DCF82030DCF8202022F01002CCF820207E
:1042E000DCF8182022F4704242EA013123F0A002E7
:1042F00042EA0E12CCF81810CCF82020DCF8081096
:1043000041F0670121F01001CEE7D1F804E0C9685F
:10431000DCF82030DCF8202022F00102CCF820204C
:10432000DCF8182022F0F00242EA011123F00A0220
:1043300042EA0E02CCF81810CCF82020DCF8081065
:1043400041F0570121F02001AEE7D1E901E3C9684E
:10435000DCF8082043EA0E0322F47F4243EA0121FD
:104360001143CCF80810DCF8081041F480419BE7B9
:1043700001229CE7704770B504460068C56806696D
:10438000B10716D515F0020113D06FF002010161DB
:10439000012121778069800703D02046FFF7EAFFDB
:1043A00005E0204600F0B5F8204600F02CF900208A
:1043B0002077700718D515F0040015D020686FF02D
:1043C0000401016102212177806910F4407F03D04C
:1043D0002046FFF7CFFF05E0204600F09AF8204680
:1043E00000F011F900202077300717D515F00800EC
:1043F00014D020686FF00801016104212177C069A1
:10440000800703D02046FFF7B5FF05E0204600F007
:1044100080F8204600F0F7F800202077F00618D545
:1044200015F0100015D020686FF01001016108210F
:104430002177C06910F4407F03D02046FFF79AFF30
:1044400005E0204600F065F8204600F0DCF800208A
:104450002077F00718BF15F0010006D020686FF034
:1044600001010161204600F04EF9300609D515F032
:10447000800006D020686FF0800101612046FFF7C0
:10448000BBFD700609D515F0400006D020686FF01E
:1044900040010161204600F040F9B00658BF70BDF0
:1044A00015F0200008D021686FF0200220460A6134
:1044B000BDE87040FFF7A1BD70BDB0B586B0044641
:1044C00040F6000501A81421C4F20005FBF703FF24
:1044D0002068A8421BD1002043F630010090C4F2AE
:1044E00002010A6842F008020A60096801F0080146
:1044F000009100994FF4704101910221CDE9021021
:10450000CDE9040105F5013001A9FFF7DDF806B09A
:10451000B0BD7047B0B5044690F83C00012804BF18
:104520000220B0BD0D464FEAB2010120032984F8F4
:104530003C0037D8DFE801F002220A1A2068294639
:1045400002F006F9206850F8181F06E02068294696
:1045500002F063F9206850F81C1F41F00801016067
:10456000016821F004010160296917E020682946EB
:1045700002F086F9206850F81C1F06E020682946E2
:1045800002F017F9206850F8181F41F4006101602B
:10459000016821F480610160296909020268114300
:1045A00001600020002184F83C10B0BD40B310B57C
:1045B000044690F83D0028B9002084F83C002046CD
:1045C00000F020F8022084F83D002068211D02F050
:1045D00029F8012084F8460084F83E0084F83F0062
:1045E00084F8400084F8410084F8420084F84300D5
:1045F00084F8440084F8450084F83D00002010BD94
:104600000120704770477047A1B1042904D00829E0
:1046100014BF4122402200E03F22825C012A11D1D6
:104620000222082910D0042914BF80F8412080F804
:104630003F200BE090F83E20012A03D1022280F8AF
:104640003E2003E00120704780F84020006801F020
:104650001F010122036A02FA01F123EA0102026248
:10466000026A114341F2FF72C4F2000290420162F9
:104670000BDC40F2FF71C4F20001884213DCB0F1A0
:10468000804F35D040F2004115E040F2FF31C4F2D6
:104690000101884214DC41F60001C4F200018842A5
:1046A00026D0002114E040F60001C4F20001884247
:1046B0001ED040F60041C4F20001884218D01CE030
:1046C00044F20001C4F20101884211D040F20041DD
:1046D000C4F20101884210D1416C40F2004340F421
:1046E0008062C4F2010341F400419A42416404D162
:1046F000816801F00701062903D0016841F001013A
:10470000016000207047006841F20041C4F20001DE
:10471000884218BF7047FFF7AEB8704770B582B0D7
:10472000044690F84200202820D14FF00105F1B155
:10473000EAB1002620462563666302F073FA206B17
:10474000012814D101962068016801914068019008
:10475000019800BF206850E8030F216840F0100066
:1047600041E80302002AF5D1002500E00225284691
:1047700002B070BD10B5044640F6A040C2F2000081
:1047800084421BD040F6E840C2F2000084421AD0B6
:1047900040F63050C2F20000844219D040F6785002
:1047A000C2F20000844218D040F6C050C2F20000AD
:1047B000844217D0FEF7D4F9002017E042F600201B
:1047C000C2F2000012E042F61020C2F200000DE03A
:1047D00042F62020C2F2000008E042F63020C2F289
:1047E000000003E042F64020C2F20000E16B0968DD
:1047F0004968C1810189C289891A418110BD704708
:10480000B0B582B0044600680168C368426901F02F
:104810002F05202D03F0200506D12DB1204602B032
:10482000BDE8B04002F02EB95FEA017C1EBF02F085
:10483000010E03F4907212EB0E026ED1226BCD06C4
:1048400043D5012A41D113F010023ED0002101913D
:10485000016801914168019101994069400600F1A8
:10486000CB80A08DE18DE28D002A00F01581884279
:1048700000F01281401A00BF216851E8031F22682E
:1048800021F4907142E80313002BF5D1216851E81F
:10489000051F226821F0010142E80513002BF5D124
:1048A000202184F842100021216300BF216851E8D3
:1048B000031F226821F0100142E80313002BF5D1F9
:1048C000022281B220466263DCE00A0640F1828067
:1048D00013F0800200F07E8094F84110212940F00E
:1048E000DB80A168B1F5805F03D12169002900F068
:1048F000DB80216A4A1C226209784160E18C01391F
:104900000A04E18440F0C880C16821F08001C160E0
:10491000C16841F04001C160BEE0CA0718BF13F48E
:10492000807203D0626C42F0010262644A0706D5CD
:10493000BEF1000F03D0626C42F0020262648A078B
:1049400006D5BEF1000F03D0626C42F0040262642F
:10495000BCF1000F06D55EEA050203D0626C42F09E
:1049600008026264626C002A00F09680890604D511
:104970001DB1204602F086F820684069616C00F0A5
:10498000400001F00801401800F08180204602F04C
:1049900051F820684069400640F18080206850E866
:1049A000050F216820F0400041E80502002AF5D1FA
:1049B000E06B002872D046F6E701C0F60001016501
:1049C000FEF7A4FC002867D0E06B016D02B0BDE8E3
:1049D000B040084749065FD513F040015CD0C1687C
:1049E00021F04001C1602021204684F8411002B02E
:1049F000BDE8B04000F0C4BBE06B016849688AB212
:104A0000002A49D0A38D9A4246D2E185C069B0F50B
:104A1000807F30D0206850E8030F216820F4807038
:104A200041E80302002AF5D1206850E8050F21680B
:104A300020F0010041E80502002AF5D1206850E885
:104A4000050F216820F0400041E80502002AF5D159
:104A5000202084F842000020206300BF206850E836
:104A6000030F216820F0100041E80302002AF5D16D
:104A7000E06BFEF70BFC02206063A08DE18D401A15
:104A800081B2204602B0BDE8B040FFF773BE2046B9
:104A9000FFF7B5FE0020606402B0B0BD204602B052
:104AA000BDE8B040FFF7ABBE216A31F8022B6FF3CF
:104AB0005F224260216221E758B310B5044690F8A6
:104AC000410028B9002084F84000204600F023F877
:104AD000242084F841002068C16821F40051C1609D
:104AE000204602F030F82068016921F4904101610C
:104AF000416921F02A014161C16841F40051C1605E
:104B000000202021606484F8411084F84210606322
:104B100010BD012070472DE9F04F87B0044602A870
:104B20001421FBF7D8FB206844F6FF71C4F20001A2
:104B3000884200F3818044F20041C4F200018842BF
:104B400000F0BE8044F60001C4F20001884200F08B
:104B5000A58144F60041C4F20001884240F0788209
:104B6000002643F630000196C4F20200016946F2C5
:104B7000100841F4002101610169C4F2020801F446
:104B80000021019101990196016841F00401016041
:104B9000006802A900F00400019001984FF4406001
:104BA00002900220CDE9030603200590082006901C
:104BB0000020C4F2020000F50060FEF785FD40F61B
:104BC000B00508F16000C2F200054FF00067402117
:104BD000C5E9000705F108004FF4806980E842024A
:104BE00005F114001421FBF776FB2846FEF764FC60
:104BF00008B1FDF7B5FFA563AC6340F6500508F1B9
:104C00003000C2F200054FF48071C5E90007284664
:104C1000C5E90266C5E90496C5E90661C5E9086605
:104C2000FEF74AFC08B1FDF79BFFE563AC63342057
:104C300000210022342406E245F20001C4F2000102
:104C4000884200F0A68041F20001C4F201018842CE
:104C500000F0908141F20041C4F20101884240F02D
:104C6000F781002043F630010190C4F202014A6945
:104C700042F020024A614A6902F020020192019A40
:104C800001900A6842F004020A60096801F0040118
:104C900001910199C02102910221CDE90310032065
:104CA0000590082006900020C4F2020000F5006084
:104CB00002A9FEF709FD4720052100224724C2E191
:104CC000002643F630000196C4F20200016946F264
:104CD000100841F4003101610169C4F2020801F4D5
:104CE0000031019101990196016841F001010160D3
:104CF000006802A900F00100019001980C200290C8
:104D00000220CDE90306032005900720069000202D
:104D1000C4F20200FEF7D8FC40F6F02508F190003E
:104D2000C2F200054FF000674021C5E9000705F118
:104D300008004FF4806980E8420205F11400142154
:104D4000FBF7C9FA2846FEF7B7FB08B1FDF708FFE5
:104D5000A563AC6340F6902508F17800C2F2000527
:104D60004FF48071C5E900072846C5E90266C5E928
:104D70000496C5E90661C5E90866FEF79DFB08B122
:104D8000FDF7EEFEE563AC63262000210022262419
:104D900059E1002643F630000196C4F20200016991
:104DA000002741F4801101610169C4F2020701F496
:104DB0008011019101990196016802AD41F0040151
:104DC0000160016846F2100801F0040101910199A7
:104DD000019601684FF0020941F008010160006886
:104DE0004FF0030A00F00800019001984FF4805042
:104DF00002904FF0080B07F500602946C4F2020844
:104E0000CDE90396CDF814A0CDF818B0FEF75CFC00
:104E10000420CDE9020904A880E8400C07F54060B1
:104E20002946FEF751FC40F6701508F1A800C2F2C1
:104E300000054FF000674021C5E9000705F10800B3
:104E40004FF4806980E8420205F114001421FBF759
:104E500042FA2846FEF730FB08B1FDF781FEA56354
:104E6000AC6340F61015C2F200054FF48070C5E93E
:104E700006602846C5E90087C5E90266C5E90496CB
:104E8000C5E90866FEF718FB08B1FDF769FEE563A2
:104E9000AC633520002100223524D4E0002643F6FF
:104EA00030000196C4F20200016946F2100841F494
:104EB000802101610169C4F2020801F4802101919D
:104EC00001990196016841F002010160006802A9A0
:104ED00000F00200019001984FF44060029002201F
:104EE000CDE9030603200590072006900020C4F2B8
:104EF000020000F58060FEF7E7FB40F6B03508F1F0
:104F00004800C2F200054FF000674021C5E90007E4
:104F100005F108004FF4806980E8420205F11400B1
:104F20001421FBF7D8F92846FEF7C6FA08B1FDF7B9
:104F300017FEA563AC6340F6503508F11800C2F2C5
:104F400000054FF48071C5E900072846C5E90266EF
:104F5000C5E90496C5E90661C5E90866FEF7ACFA3D
:104F600008B1FDF7FDFDE563AC63272000210022B9
:104F7000272468E0002643F630000196C4F20200C0
:104F8000416946F2100841F0100141614169C4F2E3
:104F9000020801F01001019101990196016841F0A8
:104FA00001010160006802A900F001000190019870
:104FB0004FF4C06002900220CDE903060320059063
:104FC000072006900020C4F20200FEF77DFB40F6A9
:104FD000302508F59560C2F200054FF000674021CA
:104FE000C5E9000705F108004FF4806980E8420236
:104FF00005F114001421FBF76EF92846FEF75CFA60
:1050000008B1FDF7ADFDA563AC6340F6D01508F51A
:105010008660C2F200054FF48071C5E9000728469A
:10502000C5E90266C5E90496C5E90661C5E90866F1
:10503000FEF742FA08B1FDF793FDE563AC63252066
:10504000052100222524FEF7C7FC2046FEF7B4FC0C
:1050500007B0BDE8F08F7047704700002DE9F041C0
:10506000044690F8410020281CBF0220BDE8F081D2
:105070000D464FF00100E1B31746D2B30020606443
:105080002120984684F84100FEF7EFFBA784E784CF
:10509000A1680746B1F5805F01D1206988B32E462B
:1050A000002500BFE08CC0B1204680213A4643462F
:1050B00001F004FEF8B92EB116F8010B2168486022
:1050C00007E000BF35F8020B21686FF35F204860EE
:1050D0000026E08C0138E084E4E7204640213A468F
:1050E000434601F0EBFD202184F84110002818BF51
:1050F0000320BDE8F081202084F841000320BDE8B2
:10510000F0810026CEE70000B0B5044690F84100DB
:1051100020281CBF0220B0BD4FF0010079B3134618
:105120006AB34FF0000C21202162A384E384C4F809
:1051300044C084F84100A06B46F6F11E46F62F25C8
:105140002268C0F6000EC0F60005C0E90FE546F67D
:10515000F505C0F600050432C0E9135CFEF750FA0D
:1051600020686FF040010160206850E8050F216859
:1051700040F0800041E80502002AF5D10020B0BDD2
:10518000704770472DE9F04F81B04FF000090DF1E5
:10519000030102208DF8039002F079F9002855D020
:1051A00040F2FC4640F26C27C2F20006C2F2000751
:1051B0000DF103044FF0050A4FF0010B4FF000080A
:1051C000307805281AD0012808D098BB9DF8030034
:1051D0007978884208BF86F800B02DE09DF803007A
:1051E000B978884226D1082087F80090F87078783E
:1051F000B9780844387286F800A01DE09DF80310C5
:1052000078683A78531C3B7081543B78FD783A7A41
:10521000AB4218D991420DD141F2C451C2F2000102
:105220000A683AB1F9789047022002F023F94FF06A
:10523000010800BF86F800900220214602F027F9FD
:105240000028BDD104E050183872F5E74FF000088F
:105250005FFA88F001B0BDE8F08F0000FEE70000C3
:105260002DE9F04F81B040F69860C2F20000D0F80E
:1052700038A0D0F85CB0D0F81490D0F880800AEB59
:105280000B00A9EB00004044FBF7F8F99FED2C0B55
:1052900054EC105B2A462346FBF70FF99FED2A0BCF
:1052A00056EC107B3A463346FBF779F9FBF74FFA99
:1052B00040F2E071C2F2000108600AEB0900ABEBBA
:1052C00000004044FBF7DAF92A462346FBF7F5F8DD
:1052D0003A463346FBF763F9FBF739FA40F2DC71E3
:1052E000C2F2000140F698630860C2F20003198E12
:1052F000B3F854209889B3F878308F18C71B1F442F
:10530000084407EB9777101ABF10184400EE107A84
:1053100040F2D07700EB9070B8EEC00AC2F20007FE
:10532000801087ED000A00EE100A40F2CC70B8EE53
:10533000C00AC2F2000080ED000A01B0BDE8F08FA3
:105340006666666666E63640000000000000624061
:105350002DE9F04381B04FF000090DF10301012068
:105360008DF8039002F093F8002865D040F20456BF
:1053700040F2942741F2C858C2F200060DF103042E
:10538000C2F20007C2F20008002500BF31780020F9
:10539000072949D8DFE801F0042B480B4830401BAF
:1053A0009DF80300797888423FD101203CE087F8DE
:1053B00000907878F9789DF80320084410443872FA
:1053C000786839784B1C3B70425405202CE09DF8DE
:1053D0000300797A88424FF0000025D1D8F80020E8
:1053E00012B37868F9789047012500201CE09DF8F9
:1053F0000300F870032017E09DF8030079683A78FD
:10540000531C3B708854397A084438723878F978DC
:1054100088420AD3072007E09DF80300397A8842C2
:105420004FF0000008BF072030700120214602F035
:105430002EF80028AAD100E00025E8B201B0BDE8AE
:10544000F083000010B50246481E44F25274C0B208
:10545000C0F24204C300032838BF24FA03F140F22B
:105460000554C2F20004CBB209A1204605F0B2F9FE
:105470002046FAF73BFF82B2B2F5006F28BF4FF427
:10548000006201202146BDE8104002F022B800BFB2
:105490006D6F64653D2564256300000080B540F6AE
:1054A000000046F20041C2F20000C4F200010322F3
:1054B000002380E80E0000F10C014FF4102C4FF493
:1054C000001E81E8085083618383FDF797FD18B1C2
:1054D000BDE88040FDF744BB80BD80B540F62800A4
:1054E00046F60001C2F20000C4F200010C220023C3
:1054F00080E80E0000F10C014FF4003C4FF4001E58
:1055000081E808504FF480710183C0F81A30FDF72C
:1055100075FD18B1BDE88040FDF722BB80BD80B5A8
:1055200082B0002043F630010190C4F202010A6803
:1055300042F400120A600A6802F400120192019A11
:1055400000900868002240F480000860086800218C
:1055500000F48000009000980B20FEF73DFA0B202D
:10556000FEF72AFA0C2000210022FEF735FA0C2063
:10557000FEF722FA0D2000210022FEF72DFA0D2061
:10558000FEF71AFA0E2000210022FEF725FA0E205F
:10559000FEF712FA0F2000210022FEF71DFA0F205D
:1055A000FEF70AFA102005210022FEF715FA102056
:1055B000FEF702FA112005210022FEF70DFA112054
:1055C000FEF7FAF92F2005210022FEF705FA2F2019
:1055D000FEF7F2F93A2005210022FEF7FDF93A2004
:1055E000FEF7EAF9462005210022FEF7F5F94620EC
:1055F00002B0BDE88040FEF7DFB980B54BF20C5039
:10560000C0F6000002F006FA40F21061C2F200019A
:105610004BF21C520860C0F600020120042102F087
:105620009FF940F21861C2F200014BF24C5208603F
:10563000C0F600020120042102F092F940F220613C
:10564000C2F200014BF234520860C0F600020120A1
:10565000042102F085F940F21C61C2F200014BF214
:1056600064520860C0F600020120012102F078F9BE
:1056700040F22461C2F20001086042F285704BF2F0
:10568000E852C0F60000C0F60002002102F017FA4E
:1056900040F29471C2F20001086042F295704BF240
:1056A0000C62C0F60000C0F60002002102F007FA0A
:1056B00040F29871C2F20001086042F235704BF27C
:1056C0007C52C0F60000C0F60002002102F0F7F99B
:1056D00040F28871C2F20001086042F299704BF208
:1056E0003062C0F60000C0F60002002102F0E7F9C7
:1056F00040F29C71C2F20001086042F29D704BF2D0
:105700005462C0F60000C0F60002002102F0D7F992
:1057100040F2A071C2F20001086042F279704BF2CF
:10572000C452C0F60000C0F60002002102F0C7F922
:1057300040F29071C2F20001086042F2B5704BF283
:105740007862C0F60000C0F60002002102F0B7F94E
:1057500040F2A471C2F20001086042F26D704BF297
:10576000A052C0F60000C0F60002002102F0A7F926
:1057700040F28C71C2F2000108604BF2FC40C0F6AE
:10578000000002F0ABF840F2F441C2F20001086000
:1057900080BD2DE9F04786B00DF104084046142184
:1057A000FAF799FD002743F630000097C4F2020093
:1057B0000168002541F0040101600168C4F202059E
:1057C00001F00401009100990097016805F5006659
:1057D00041F0800101600168012201F08001009127
:1057E0000099009701684FF4005941F001010160F0
:1057F0000168012401F001010091009900970168FE
:1058000041F002010160016801F00201009100997C
:105810000097016841F00801016000684FF40051F1
:1058200000F00800009000983046FEF719F828466E
:10583000132100224FF0130AFEF712F830464146BA
:10584000CDE90194CDE90377FDF73EFF28464146B7
:10585000CDE901A4CDE90377FDF736FF4FF4004011
:10586000CDE90107284641460394FDF72DFF06B018
:10587000BDE8F08710B58EB0002401A81C210D945E
:10588000CDE90B44CDE90844FAF725FD40F6104078
:1058900040F60001C2F20000C4F2000142F20F73B0
:1058A000A72280E81600C0E903348461FEF7FFFBFD
:1058B00008B1FDF755F94FF480500A9040F61040BA
:1058C000C2F200000AA9FEF788FC08B1FDF748F90A
:1058D00040F61040C2F20000FEF768FE08B1FDF786
:1058E0003FF940F610400024C2F2000008A9CDE9BB
:1058F0000844FEF783FB08B1FDF732F96020CDE9DB
:10590000010440F61040C2F2000001A900220394F5
:105910000594FEF7FFFD08B1FDF722F940F61040AF
:10592000C2F2000001A90422FEF7F4FD08B1FDF760
:1059300017F940F61040C2F2000001A90822FEF754
:10594000E9FD08B1FDF70CF940F61040C2F2000085
:1059500001A90C22FEF7DEFD08B1FDF701F940F6C2
:105960001040C2F20000FEF7A8FD0EB010BD80B5D9
:1059700040F6785044F60041C2F20000C4F2000143
:1059800000234FF00C0C4FF4E13280E80E00C0E928
:105990000333C0E905C3C361FFF78EF818B1BDE852
:1059A0008040FDF7DDB880BD80B540F6C05045F2BF
:1059B0000001C2F20000C4F2000100234FF00C0C01
:1059C0004FF4165280E80E00C0E90333C0E905C366
:1059D000C361FFF771F818B1BDE88040FDF7C0B8AA
:1059E00080BD80B540F6A04041F20001C2F2000047
:1059F000C4F2010100234FF00C0C4FF4613280E837
:105A00000E00C0E90333C0E905C3C361FFF754F8D2
:105A100018B1BDE88040FDF7A3B880BD80B540F661
:105A2000E84044F20041C2F20000C4F20001002349
:105A30004FF00C0C4FF4E13280E80E00C0E9033364
:105A4000C0E905C3C361FFF737F818B1BDE880406E
:105A5000FDF786B880BD80B540F6305044F60001B1
:105A6000C2F20000C4F2000100234FF00C0C4FF40E
:105A7000E13280E80E00C0E90333C0E905C3C36129
:105A8000FFF71AF818B1BDE88040FDF769B880BD8E
:105A900080B540F6086041F20041C2F20000C4F255
:105AA000010100234FF00C0C4FF4E13280E80E00AE
:105AB000C0E90333C0E905C3C361FEF7FDFF18B1B8
:105AC000BDE88040FDF74CB880BD0000FEE72DE941
:105AD000F04F81B02DED048B88B05AEC10BBB0EEC6
